{
  "_format": "hh-sol-artifact-1",
  "contractName": "Tambora",
  "sourceName": "contracts/TamboraOG.sol",
  "abi": [
    {
      "inputs": [
        {
          "internalType": "address",
          "name": "deployer",
          "type": "address"
        },
        {
          "internalType": "string",
          "name": "name",
          "type": "string"
        },
        {
          "internalType": "string",
          "name": "symbol",
          "type": "string"
        },
        {
          "internalType": "uint256",
          "name": "price_",
          "type": "uint256"
        },
        {
          "internalType": "string",
          "name": "contractType_",
          "type": "string"
        },
        {
          "internalType": "address",
          "name": "to_",
          "type": "address"
        },
        {
          "internalType": "string",
          "name": "uri_",
          "type": "string"
        },
        {
          "internalType": "address",
          "name": "factoryOwner_",
          "type": "address"
        }
      ],
      "stateMutability": "nonpayable",
      "type": "constructor"
    },
    {
      "anonymous": false,
      "inputs": [
        {
          "indexed": true,
          "internalType": "address",
          "name": "owner",
          "type": "address"
        },
        {
          "indexed": true,
          "internalType": "address",
          "name": "approved",
          "type": "address"
        },
        {
          "indexed": true,
          "internalType": "uint256",
          "name": "tokenId",
          "type": "uint256"
        }
      ],
      "name": "Approval",
      "type": "event"
    },
    {
      "anonymous": false,
      "inputs": [
        {
          "indexed": true,
          "internalType": "address",
          "name": "owner",
          "type": "address"
        },
        {
          "indexed": true,
          "internalType": "address",
          "name": "operator",
          "type": "address"
        },
        {
          "indexed": false,
          "internalType": "bool",
          "name": "approved",
          "type": "bool"
        }
      ],
      "name": "ApprovalForAll",
      "type": "event"
    },
    {
      "anonymous": false,
      "inputs": [
        {
          "indexed": true,
          "internalType": "string",
          "name": "name",
          "type": "string"
        }
      ],
      "name": "FileAdded",
      "type": "event"
    },
    {
      "anonymous": false,
      "inputs": [
        {
          "components": [
            {
              "internalType": "string",
              "name": "name",
              "type": "string"
            },
            {
              "internalType": "address",
              "name": "addr",
              "type": "address"
            }
          ],
          "indexed": true,
          "internalType": "struct Tambora.Client",
          "name": "clientData",
          "type": "tuple"
        }
      ],
      "name": "Request",
      "type": "event"
    },
    {
      "anonymous": false,
      "inputs": [
        {
          "components": [
            {
              "internalType": "string",
              "name": "name",
              "type": "string"
            },
            {
              "internalType": "address",
              "name": "addr",
              "type": "address"
            }
          ],
          "indexed": true,
          "internalType": "struct Tambora.Client",
          "name": "clientData",
          "type": "tuple"
        },
        {
          "indexed": true,
          "internalType": "bool",
          "name": "res",
          "type": "bool"
        }
      ],
      "name": "Response",
      "type": "event"
    },
    {
      "anonymous": false,
      "inputs": [
        {
          "indexed": true,
          "internalType": "address",
          "name": "from",
          "type": "address"
        },
        {
          "indexed": true,
          "internalType": "address",
          "name": "to",
          "type": "address"
        },
        {
          "indexed": true,
          "internalType": "uint256",
          "name": "tokenId",
          "type": "uint256"
        }
      ],
      "name": "Transfer",
      "type": "event"
    },
    {
      "inputs": [
        {
          "internalType": "string",
          "name": "name_",
          "type": "string"
        },
        {
          "internalType": "string",
          "name": "uri_",
          "type": "string"
        }
      ],
      "name": "addFileLocation",
      "outputs": [],
      "stateMutability": "nonpayable",
      "type": "function"
    },
    {
      "inputs": [
        {
          "internalType": "string",
          "name": "uri_",
          "type": "string"
        },
        {
          "internalType": "string",
          "name": "name_",
          "type": "string"
        },
        {
          "internalType": "uint256",
          "name": "mintId_",
          "type": "uint256"
        }
      ],
      "name": "addIndividualFile",
      "outputs": [],
      "stateMutability": "nonpayable",
      "type": "function"
    },
    {
      "inputs": [
        {
          "internalType": "address",
          "name": "requester_",
          "type": "address"
        },
        {
          "internalType": "uint256",
          "name": "mintId_",
          "type": "uint256"
        },
        {
          "internalType": "string",
          "name": "uri_",
          "type": "string"
        },
        {
          "internalType": "string",
          "name": "name_",
          "type": "string"
        }
      ],
      "name": "addRequestedFiles",
      "outputs": [],
      "stateMutability": "nonpayable",
      "type": "function"
    },
    {
      "inputs": [],
      "name": "allottedAmount",
      "outputs": [
        {
          "internalType": "uint256",
          "name": "",
          "type": "uint256"
        }
      ],
      "stateMutability": "view",
      "type": "function"
    },
    {
      "inputs": [
        {
          "internalType": "address",
          "name": "to",
          "type": "address"
        },
        {
          "internalType": "uint256",
          "name": "tokenId",
          "type": "uint256"
        }
      ],
      "name": "approve",
      "outputs": [],
      "stateMutability": "nonpayable",
      "type": "function"
    },
    {
      "inputs": [
        {
          "internalType": "uint256",
          "name": "index_",
          "type": "uint256"
        }
      ],
      "name": "approveMintIncrease",
      "outputs": [],
      "stateMutability": "nonpayable",
      "type": "function"
    },
    {
      "inputs": [
        {
          "internalType": "uint256",
          "name": "index",
          "type": "uint256"
        },
        {
          "internalType": "bool",
          "name": "decision",
          "type": "bool"
        }
      ],
      "name": "approveOrDenyClient",
      "outputs": [],
      "stateMutability": "nonpayable",
      "type": "function"
    },
    {
      "inputs": [
        {
          "internalType": "address",
          "name": "",
          "type": "address"
        }
      ],
      "name": "approvedName",
      "outputs": [
        {
          "internalType": "string",
          "name": "",
          "type": "string"
        }
      ],
      "stateMutability": "view",
      "type": "function"
    },
    {
      "inputs": [
        {
          "internalType": "address",
          "name": "owner",
          "type": "address"
        }
      ],
      "name": "balanceOf",
      "outputs": [
        {
          "internalType": "uint256",
          "name": "",
          "type": "uint256"
        }
      ],
      "stateMutability": "view",
      "type": "function"
    },
    {
      "inputs": [],
      "name": "contractType",
      "outputs": [
        {
          "internalType": "string",
          "name": "",
          "type": "string"
        }
      ],
      "stateMutability": "view",
      "type": "function"
    },
    {
      "inputs": [
        {
          "internalType": "uint256",
          "name": "index_",
          "type": "uint256"
        }
      ],
      "name": "denyMintIncrease",
      "outputs": [],
      "stateMutability": "nonpayable",
      "type": "function"
    },
    {
      "inputs": [
        {
          "internalType": "string",
          "name": "uri",
          "type": "string"
        }
      ],
      "name": "finalizeClient",
      "outputs": [],
      "stateMutability": "payable",
      "type": "function"
    },
    {
      "inputs": [
        {
          "internalType": "uint256",
          "name": "mintId_",
          "type": "uint256"
        }
      ],
      "name": "finalizeMintIncrease",
      "outputs": [],
      "stateMutability": "payable",
      "type": "function"
    },
    {
      "inputs": [
        {
          "internalType": "uint256",
          "name": "tokenId",
          "type": "uint256"
        }
      ],
      "name": "getApproved",
      "outputs": [
        {
          "internalType": "address",
          "name": "",
          "type": "address"
        }
      ],
      "stateMutability": "view",
      "type": "function"
    },
    {
      "inputs": [],
      "name": "getFileStore",
      "outputs": [
        {
          "components": [
            {
              "internalType": "string",
              "name": "name",
              "type": "string"
            },
            {
              "internalType": "string",
              "name": "uri",
              "type": "string"
            }
          ],
          "internalType": "struct Tambora.File[]",
          "name": "",
          "type": "tuple[]"
        }
      ],
      "stateMutability": "view",
      "type": "function"
    },
    {
      "inputs": [
        {
          "internalType": "uint256",
          "name": "id_",
          "type": "uint256"
        }
      ],
      "name": "getIndividualFiles",
      "outputs": [
        {
          "components": [
            {
              "internalType": "string",
              "name": "name",
              "type": "string"
            },
            {
              "internalType": "string",
              "name": "uri",
              "type": "string"
            }
          ],
          "internalType": "struct Tambora.File[]",
          "name": "",
          "type": "tuple[]"
        }
      ],
      "stateMutability": "view",
      "type": "function"
    },
    {
      "inputs": [],
      "name": "getMintRequests",
      "outputs": [
        {
          "components": [
            {
              "internalType": "string",
              "name": "name",
              "type": "string"
            },
            {
              "internalType": "address",
              "name": "addr",
              "type": "address"
            }
          ],
          "internalType": "struct Tambora.Client[]",
          "name": "",
          "type": "tuple[]"
        }
      ],
      "stateMutability": "view",
      "type": "function"
    },
    {
      "inputs": [],
      "name": "getPendingClients",
      "outputs": [
        {
          "components": [
            {
              "internalType": "string",
              "name": "name",
              "type": "string"
            },
            {
              "internalType": "address",
              "name": "addr",
              "type": "address"
            }
          ],
          "internalType": "struct Tambora.Client[]",
          "name": "",
          "type": "tuple[]"
        }
      ],
      "stateMutability": "view",
      "type": "function"
    },
    {
      "inputs": [],
      "name": "getRequestedFiles",
      "outputs": [
        {
          "components": [
            {
              "internalType": "string",
              "name": "name",
              "type": "string"
            },
            {
              "internalType": "string",
              "name": "uri",
              "type": "string"
            }
          ],
          "internalType": "struct Tambora.File[]",
          "name": "",
          "type": "tuple[]"
        }
      ],
      "stateMutability": "view",
      "type": "function"
    },
    {
      "inputs": [],
      "name": "getShowData",
      "outputs": [
        {
          "components": [
            {
              "internalType": "uint256",
              "name": "tokenId",
              "type": "uint256"
            },
            {
              "internalType": "address",
              "name": "manager",
              "type": "address"
            },
            {
              "internalType": "string",
              "name": "contractType",
              "type": "string"
            },
            {
              "internalType": "string",
              "name": "tokenURI",
              "type": "string"
            },
            {
              "components": [
                {
                  "internalType": "string",
                  "name": "name",
                  "type": "string"
                },
                {
                  "internalType": "string",
                  "name": "uri",
                  "type": "string"
                }
              ],
              "internalType": "struct Tambora.File[]",
              "name": "fileStore",
              "type": "tuple[]"
            },
            {
              "components": [
                {
                  "internalType": "string",
                  "name": "name",
                  "type": "string"
                },
                {
                  "internalType": "string",
                  "name": "uri",
                  "type": "string"
                }
              ],
              "internalType": "struct Tambora.File[]",
              "name": "individualFilestore",
              "type": "tuple[]"
            }
          ],
          "internalType": "struct Tambora.ShowData",
          "name": "",
          "type": "tuple"
        }
      ],
      "stateMutability": "view",
      "type": "function"
    },
    {
      "inputs": [
        {
          "internalType": "uint256",
          "name": "id_",
          "type": "uint256"
        }
      ],
      "name": "getTokenData",
      "outputs": [
        {
          "components": [
            {
              "internalType": "uint256",
              "name": "blockNumber",
              "type": "uint256"
            },
            {
              "internalType": "uint256",
              "name": "timeStamp",
              "type": "uint256"
            },
            {
              "internalType": "string",
              "name": "uri",
              "type": "string"
            }
          ],
          "internalType": "struct Tambora.Token",
          "name": "",
          "type": "tuple"
        }
      ],
      "stateMutability": "view",
      "type": "function"
    },
    {
      "inputs": [],
      "name": "increaseContractMintAllowance",
      "outputs": [],
      "stateMutability": "payable",
      "type": "function"
    },
    {
      "inputs": [
        {
          "internalType": "address",
          "name": "",
          "type": "address"
        }
      ],
      "name": "isApproved",
      "outputs": [
        {
          "internalType": "bool",
          "name": "",
          "type": "bool"
        }
      ],
      "stateMutability": "view",
      "type": "function"
    },
    {
      "inputs": [
        {
          "internalType": "address",
          "name": "owner",
          "type": "address"
        },
        {
          "internalType": "address",
          "name": "operator",
          "type": "address"
        }
      ],
      "name": "isApprovedForAll",
      "outputs": [
        {
          "internalType": "bool",
          "name": "",
          "type": "bool"
        }
      ],
      "stateMutability": "view",
      "type": "function"
    },
    {
      "inputs": [
        {
          "internalType": "address",
          "name": "",
          "type": "address"
        }
      ],
      "name": "isPending",
      "outputs": [
        {
          "internalType": "bool",
          "name": "",
          "type": "bool"
        }
      ],
      "stateMutability": "view",
      "type": "function"
    },
    {
      "inputs": [
        {
          "internalType": "uint256",
          "name": "",
          "type": "uint256"
        }
      ],
      "name": "memberTokens",
      "outputs": [
        {
          "internalType": "uint256",
          "name": "mintId",
          "type": "uint256"
        },
        {
          "internalType": "uint256",
          "name": "minted",
          "type": "uint256"
        },
        {
          "internalType": "uint256",
          "name": "mintAllowance",
          "type": "uint256"
        }
      ],
      "stateMutability": "view",
      "type": "function"
    },
    {
      "inputs": [
        {
          "internalType": "address",
          "name": "to_",
          "type": "address"
        },
        {
          "internalType": "string",
          "name": "uri",
          "type": "string"
        },
        {
          "internalType": "uint256",
          "name": "mintId_",
          "type": "uint256"
        }
      ],
      "name": "mint",
      "outputs": [],
      "stateMutability": "payable",
      "type": "function"
    },
    {
      "inputs": [],
      "name": "mintAllowance",
      "outputs": [
        {
          "internalType": "uint256",
          "name": "",
          "type": "uint256"
        }
      ],
      "stateMutability": "view",
      "type": "function"
    },
    {
      "inputs": [],
      "name": "name",
      "outputs": [
        {
          "internalType": "string",
          "name": "",
          "type": "string"
        }
      ],
      "stateMutability": "view",
      "type": "function"
    },
    {
      "inputs": [],
      "name": "owner",
      "outputs": [
        {
          "internalType": "address",
          "name": "",
          "type": "address"
        }
      ],
      "stateMutability": "view",
      "type": "function"
    },
    {
      "inputs": [
        {
          "internalType": "uint256",
          "name": "tokenId",
          "type": "uint256"
        }
      ],
      "name": "ownerOf",
      "outputs": [
        {
          "internalType": "address",
          "name": "",
          "type": "address"
        }
      ],
      "stateMutability": "view",
      "type": "function"
    },
    {
      "inputs": [],
      "name": "price",
      "outputs": [
        {
          "internalType": "uint256",
          "name": "",
          "type": "uint256"
        }
      ],
      "stateMutability": "view",
      "type": "function"
    },
    {
      "inputs": [
        {
          "internalType": "string",
          "name": "name",
          "type": "string"
        }
      ],
      "name": "requestApproval",
      "outputs": [],
      "stateMutability": "nonpayable",
      "type": "function"
    },
    {
      "inputs": [
        {
          "internalType": "uint256",
          "name": "mintId_",
          "type": "uint256"
        },
        {
          "internalType": "string",
          "name": "name_",
          "type": "string"
        }
      ],
      "name": "requestMintIncrease",
      "outputs": [],
      "stateMutability": "nonpayable",
      "type": "function"
    },
    {
      "inputs": [
        {
          "internalType": "address",
          "name": "from",
          "type": "address"
        },
        {
          "internalType": "address",
          "name": "to",
          "type": "address"
        },
        {
          "internalType": "uint256",
          "name": "tokenId",
          "type": "uint256"
        }
      ],
      "name": "safeTransferFrom",
      "outputs": [],
      "stateMutability": "nonpayable",
      "type": "function"
    },
    {
      "inputs": [
        {
          "internalType": "address",
          "name": "from",
          "type": "address"
        },
        {
          "internalType": "address",
          "name": "to",
          "type": "address"
        },
        {
          "internalType": "uint256",
          "name": "tokenId",
          "type": "uint256"
        },
        {
          "internalType": "bytes",
          "name": "data",
          "type": "bytes"
        }
      ],
      "name": "safeTransferFrom",
      "outputs": [],
      "stateMutability": "nonpayable",
      "type": "function"
    },
    {
      "inputs": [
        {
          "internalType": "address",
          "name": "operator",
          "type": "address"
        },
        {
          "internalType": "bool",
          "name": "approved",
          "type": "bool"
        }
      ],
      "name": "setApprovalForAll",
      "outputs": [],
      "stateMutability": "nonpayable",
      "type": "function"
    },
    {
      "inputs": [
        {
          "internalType": "bytes4",
          "name": "interfaceId",
          "type": "bytes4"
        }
      ],
      "name": "supportsInterface",
      "outputs": [
        {
          "internalType": "bool",
          "name": "",
          "type": "bool"
        }
      ],
      "stateMutability": "view",
      "type": "function"
    },
    {
      "inputs": [],
      "name": "symbol",
      "outputs": [
        {
          "internalType": "string",
          "name": "",
          "type": "string"
        }
      ],
      "stateMutability": "view",
      "type": "function"
    },
    {
      "inputs": [
        {
          "internalType": "uint256",
          "name": "index",
          "type": "uint256"
        }
      ],
      "name": "tokenByIndex",
      "outputs": [
        {
          "internalType": "uint256",
          "name": "",
          "type": "uint256"
        }
      ],
      "stateMutability": "view",
      "type": "function"
    },
    {
      "inputs": [
        {
          "internalType": "address",
          "name": "owner",
          "type": "address"
        },
        {
          "internalType": "uint256",
          "name": "index",
          "type": "uint256"
        }
      ],
      "name": "tokenOfOwnerByIndex",
      "outputs": [
        {
          "internalType": "uint256",
          "name": "",
          "type": "uint256"
        }
      ],
      "stateMutability": "view",
      "type": "function"
    },
    {
      "inputs": [
        {
          "internalType": "uint256",
          "name": "tokenId_",
          "type": "uint256"
        }
      ],
      "name": "tokenURI",
      "outputs": [
        {
          "internalType": "string",
          "name": "",
          "type": "string"
        }
      ],
      "stateMutability": "view",
      "type": "function"
    },
    {
      "inputs": [],
      "name": "totalSupply",
      "outputs": [
        {
          "internalType": "uint256",
          "name": "",
          "type": "uint256"
        }
      ],
      "stateMutability": "view",
      "type": "function"
    },
    {
      "inputs": [
        {
          "internalType": "address",
          "name": "from",
          "type": "address"
        },
        {
          "internalType": "address",
          "name": "to",
          "type": "address"
        },
        {
          "internalType": "uint256",
          "name": "tokenId",
          "type": "uint256"
        }
      ],
      "name": "transferFrom",
      "outputs": [],
      "stateMutability": "nonpayable",
      "type": "function"
    }
  ],
  "bytecode": "0x60806040523480156200001157600080fd5b5060405162004b9d38038062004b9d83398101604081905262000034916200098f565b8651879087906200004d90600090602085019062000815565b5080516200006390600190602084019062000815565b5050600b80546001600160a01b03808c166001600160a01b031992831617909255600a80549285169290911691909117905550600d8590558351620000b090601090602087019062000815565b50600a600f819055605a600e5560408051606081018252600080825260016020808401918252938301948552818052601690935290517f0263c2b778d062355049effc2dece97bc6547ff8a88a3258daa512061c2153dd5590517f0263c2b778d062355049effc2dece97bc6547ff8a88a3258daa512061c2153de5590517f0263c2b778d062355049effc2dece97bc6547ff8a88a3258daa512061c2153df556200015d90849062000225565b6200016a600083620003ca565b6001600c5560408051606081018252438152426020808301918252928201858152600080526017845282517fd840e16649f6b9a295d95876f4633d3a6b10b55e8162971cf78afd886d5ec89b90815591517fd840e16649f6b9a295d95876f4633d3a6b10b55e8162971cf78afd886d5ec89c555180519293919262000213927fd840e16649f6b9a295d95876f4633d3a6b10b55e8162971cf78afd886d5ec89d92019062000815565b50905050505050505050505062000b30565b6001600160a01b038216620002815760405162461bcd60e51b815260206004820181905260248201527f4552433732313a206d696e7420746f20746865207a65726f206164647265737360448201526064015b60405180910390fd5b6000818152600260205260409020546001600160a01b031615620002e85760405162461bcd60e51b815260206004820152601c60248201527f4552433732313a20746f6b656e20616c7265616479206d696e74656400000000604482015260640162000278565b620002f86000838360016200046b565b6000818152600260205260409020546001600160a01b0316156200035f5760405162461bcd60e51b815260206004820152601c60248201527f4552433732313a20746f6b656e20616c7265616479206d696e74656400000000604482015260640162000278565b6001600160a01b038216600081815260036020908152604080832080546001019055848352600290915280822080546001600160a01b0319168417905551839291907fddf252ad1be2c89b69c2b068fc378daa952ba7f163c4a11628f55a4df523b3ef908290a45050565b6000828152600260205260409020546001600160a01b0316620004455760405162461bcd60e51b815260206004820152602c60248201527f4552433732314d657461646174613a2055524920736574206f66206e6f6e657860448201526b34b9ba32b73a103a37b5b2b760a11b606482015260840162000278565b60008281526011602090815260409091208251620004669284019062000815565b505050565b6200048484848484620005cf60201b62001f4b1760201c565b6001811115620004fd5760405162461bcd60e51b815260206004820152603560248201527f455243373231456e756d657261626c653a20636f6e736563757469766520747260448201527f616e7366657273206e6f7420737570706f727465640000000000000000000000606482015260840162000278565b816001600160a01b0385166200055c576200055681600880546000838152600960205260408120829055600182018355919091527ff3f7a9fe364faab93b216da50a3214154f22a0a2b415b23a84c8169e8b636ee30155565b62000582565b836001600160a01b0316856001600160a01b0316146200058257620005828582620005d5565b6001600160a01b038416620005a2576200059c8162000682565b620005c8565b846001600160a01b0316846001600160a01b031614620005c857620005c884826200073c565b5050505050565b50505050565b60006001620005ef846200078d60201b620012621760201c565b620005fb919062000a8b565b6000838152600760205260409020549091508082146200064f576001600160a01b03841660009081526006602090815260408083208584528252808320548484528184208190558352600790915290208190555b5060009182526007602090815260408084208490556001600160a01b039094168352600681528383209183525290812055565b600854600090620006969060019062000a8b565b60008381526009602052604081205460088054939450909284908110620006c157620006c162000b04565b906000526020600020015490508060088381548110620006e557620006e562000b04565b600091825260208083209091019290925582815260099091526040808220849055858252812055600880548062000720576200072062000aee565b6001900381819060005260206000200160009055905550505050565b600062000754836200078d60201b620012621760201c565b6001600160a01b039093166000908152600660209081526040808320868452825280832085905593825260079052919091209190915550565b60006001600160a01b038216620007f95760405162461bcd60e51b815260206004820152602960248201527f4552433732313a2061646472657373207a65726f206973206e6f7420612076616044820152683634b21037bbb732b960b91b606482015260840162000278565b506001600160a01b031660009081526003602052604090205490565b828054620008239062000ab1565b90600052602060002090601f01602090048101928262000847576000855562000892565b82601f106200086257805160ff191683800117855562000892565b8280016001018555821562000892579182015b828111156200089257825182559160200191906001019062000875565b50620008a0929150620008a4565b5090565b5b80821115620008a05760008155600101620008a5565b80516001600160a01b0381168114620008d357600080fd5b919050565b600082601f830112620008ea57600080fd5b81516001600160401b038082111562000907576200090762000b1a565b604051601f8301601f19908116603f0116810190828211818310171562000932576200093262000b1a565b816040528381526020925086838588010111156200094f57600080fd5b600091505b8382101562000973578582018301518183018401529082019062000954565b83821115620009855760008385830101525b9695505050505050565b600080600080600080600080610100898b031215620009ad57600080fd5b620009b889620008bb565b60208a01519098506001600160401b0380821115620009d657600080fd5b620009e48c838d01620008d8565b985060408b0151915080821115620009fb57600080fd5b62000a098c838d01620008d8565b975060608b0151965060808b015191508082111562000a2757600080fd5b62000a358c838d01620008d8565b955062000a4560a08c01620008bb565b945060c08b015191508082111562000a5c57600080fd5b5062000a6b8b828c01620008d8565b92505062000a7c60e08a01620008bb565b90509295985092959890939650565b60008282101562000aac57634e487b7160e01b600052601160045260246000fd5b500390565b600181811c9082168062000ac657607f821691505b6020821081141562000ae857634e487b7160e01b600052602260045260246000fd5b50919050565b634e487b7160e01b600052603160045260246000fd5b634e487b7160e01b600052603260045260246000fd5b634e487b7160e01b600052604160045260246000fd5b61405d8062000b406000396000f3fe6080604052600436106102675760003560e01c806393d34de911610144578063b09afec1116100b6578063d431a2481161007a578063d431a24814610760578063e985e9c514610773578063eb4297f6146107bc578063eb9ce163146107dc578063f9dc375f146107f1578063ffe644341461080457600080fd5b8063b09afec1146106cb578063b88d4fde146106f8578063ba7aef4314610718578063c87b56dd1461072b578063cb2ef6f71461074b57600080fd5b8063a035b1fe11610108578063a035b1fe146105dc578063a22cb465146105f2578063a28039cd14610612578063a918458214610632578063aeb20b9414610652578063af80a5be146106a957600080fd5b806393d34de91461054257806395d89b4114610557578063967615951461056c57806397a333421461058c578063a00745b6146105ac57600080fd5b8063396876bd116101dd5780635a9be11b116101a15780635a9be11b1461048a5780635bf61cfe146104925780636352211e146104b4578063673448dd146104d457806370a08231146105045780638da5cb5b1461052457600080fd5b8063396876bd146103f45780633c084fa51461040a5780634261917a1461042a57806342842e0e1461044a5780634f6ccce71461046a57600080fd5b806318160ddd1161022f57806318160ddd1461033f5780631fceaae01461035e5780632291e3881461037e57806323b872dd146103945780632b8fd8bd146103b45780632f745c59146103d457600080fd5b806301ffc9a71461026c57806306fdde03146102a1578063081812fc146102c3578063095ea7b3146102fb5780630e37b4fd1461031d575b600080fd5b34801561027857600080fd5b5061028c6102873660046139a5565b610824565b60405190151581526020015b60405180910390f35b3480156102ad57600080fd5b506102b661084f565b6040516102989190613d48565b3480156102cf57600080fd5b506102e36102de366004613ad4565b6108e1565b6040516001600160a01b039091168152602001610298565b34801561030757600080fd5b5061031b610316366004613909565b610908565b005b34801561032957600080fd5b50610332610a23565b6040516102989190613d35565b34801561034b57600080fd5b506008545b604051908152602001610298565b34801561036a57600080fd5b5061031b610379366004613a78565b610bbb565b34801561038a57600080fd5b50610350600f5481565b3480156103a057600080fd5b5061031b6103af3660046137d0565b610c31565b3480156103c057600080fd5b5061031b6103cf366004613933565b610c62565b3480156103e057600080fd5b506103506103ef366004613909565b610d3b565b34801561040057600080fd5b50610350600e5481565b34801561041657600080fd5b5061031b610425366004613b10565b610dd1565b34801561043657600080fd5b5061031b610445366004613a14565b610ed3565b34801561045657600080fd5b5061031b6104653660046137d0565b610f9b565b34801561047657600080fd5b50610350610485366004613ad4565b610fb6565b61031b611049565b34801561049e57600080fd5b506104a7611107565b6040516102989190613cb6565b3480156104c057600080fd5b506102e36104cf366004613ad4565b611202565b3480156104e057600080fd5b5061028c6104ef366004613782565b60136020526000908152604090205460ff1681565b34801561051057600080fd5b5061035061051f366004613782565b611262565b34801561053057600080fd5b50600b546001600160a01b03166102e3565b34801561054e57600080fd5b506103326112e8565b34801561056357600080fd5b506102b66114e4565b34801561057857600080fd5b5061031b6105873660046139df565b6114f3565b34801561059857600080fd5b506102b66105a7366004613782565b6115f0565b3480156105b857600080fd5b5061028c6105c7366004613782565b60126020526000908152604090205460ff1681565b3480156105e857600080fd5b50610350600d5481565b3480156105fe57600080fd5b5061031b61060d366004613888565b61168a565b34801561061e57600080fd5b5061031b61062d366004613aed565b611699565b34801561063e57600080fd5b5061031b61064d366004613ad4565b61191d565b34801561065e57600080fd5b5061068e61066d366004613ad4565b60166020526000908152604090208054600182015460029092015490919083565b60408051938452602084019290925290820152606001610298565b3480156106b557600080fd5b506106be611a01565b6040516102989190613e3f565b3480156106d757600080fd5b506106eb6106e6366004613ad4565b611e2a565b6040516102989190613ed9565b34801561070457600080fd5b5061031b61071336600461380c565b611f19565b61031b6107263660046138b2565b611f51565b34801561073757600080fd5b506102b6610746366004613ad4565b612185565b34801561075757600080fd5b506102b6612314565b61031b61076e366004613ad4565b612321565b34801561077f57600080fd5b5061028c61078e36600461379d565b6001600160a01b03918216600090815260056020908152604080832093909416825291909152205460ff1690565b3480156107c857600080fd5b506103326107d7366004613ad4565b61241f565b3480156107e857600080fd5b506104a7612603565b61031b6107ff3660046139df565b612706565b34801561081057600080fd5b5061031b61081f366004613ad4565b6128b4565b60006001600160e01b0319821663780e9d6360e01b148061084957506108498261298d565b92915050565b60606000805461085e90613f63565b80601f016020809104026020016040519081016040528092919081815260200182805461088a90613f63565b80156108d75780601f106108ac576101008083540402835291602001916108d7565b820191906000526020600020905b8154815290600101906020018083116108ba57829003601f168201915b5050505050905090565b60006108ec826129dd565b506000908152600460205260409020546001600160a01b031690565b600061091382611202565b9050806001600160a01b0316836001600160a01b031614156109865760405162461bcd60e51b815260206004820152602160248201527f4552433732313a20617070726f76616c20746f2063757272656e74206f776e656044820152603960f91b60648201526084015b60405180910390fd5b336001600160a01b03821614806109a257506109a2813361078e565b610a145760405162461bcd60e51b815260206004820152603d60248201527f4552433732313a20617070726f76652063616c6c6572206973206e6f7420746f60448201527f6b656e206f776e6572206f7220617070726f76656420666f7220616c6c000000606482015260840161097d565b610a1e8383612a3c565b505050565b60606000610a3033611262565b11610a3a57600080fd5b601c805480602002602001604051908101604052809291908181526020016000905b82821015610bb25783829060005260206000209060020201604051806040016040529081600082018054610a8f90613f63565b80601f0160208091040260200160405190810160405280929190818152602001828054610abb90613f63565b8015610b085780601f10610add57610100808354040283529160200191610b08565b820191906000526020600020905b815481529060010190602001808311610aeb57829003601f168201915b50505050508152602001600182018054610b2190613f63565b80601f0160208091040260200160405190810160405280929190818152602001828054610b4d90613f63565b8015610b9a5780601f10610b6f57610100808354040283529160200191610b9a565b820191906000526020600020905b815481529060010190602001808311610b7d57829003601f168201915b50505050508152505081526020019060010190610a5c565b50505050905090565b610bc3612aaa565b6000818152601560209081526040808320815180830190925285825281830187905280546001810182559084529282902081518051929460020290910192610c109284929091019061356f565b506020828101518051610c29926001850192019061356f565b505050505050565b610c3b3382612b06565b610c575760405162461bcd60e51b815260040161097d90613d5b565b610a1e838383612b85565b33610c6c84611202565b6001600160a01b031614610cc25760405162461bcd60e51b815260206004820152601e60248201527f596f75206d757374206265206120636f6e7472616374206d656d6265722e0000604482015260640161097d565b6001600160a01b0384166000908152601860209081526040808320815180830190925284825281830186905280546001810182559084529282902081518051929460020290910192610d199284929091019061356f565b506020828101518051610d32926001850192019061356f565b50505050505050565b6000610d4683611262565b8210610da85760405162461bcd60e51b815260206004820152602b60248201527f455243373231456e756d657261626c653a206f776e657220696e646578206f7560448201526a74206f6620626f756e647360a81b606482015260840161097d565b506001600160a01b03919091166000908152600660209081526040808320938352929052205490565b33610ddb83611202565b6001600160a01b031614610dee57600080fd5b60006040518060400160405280838152602001610e083390565b6001600160a01b03169052601a805460018101825560009190915281518051929350839260029092027f057c384a7d1c54f3a1b2e5e67b2617b8224fdfd1ea7234eea573a6ff665ff63e0191610e669183916020919091019061356f565b5060209190910151600190910180546001600160a01b0319166001600160a01b03909216919091179055604051610e9e908290613c3f565b604051908190038120907f88db4a536f075851673fbcb81050ab51c0a709de0eef6aa0c872a927c0ade24c90600090a2505050565b610edb612aaa565b604080518082019091528281526020808201839052601c805460018101825560009190915282518051849360029093027f0e4562a10381dec21b205ed72637e6b1b523bdd0e4d4d50af5cd23dd4500a2110192610f3c92849291019061356f565b506020828101518051610f55926001850192019061356f565b50505082604051610f669190613bf4565b604051908190038120907f035b065922620bc9e29f8f7e5156f5e151ecd66c99b686b6da840a49f68bc20890600090a2505050565b610a1e83838360405180602001604052806000815250611f19565b6000610fc160085490565b82106110245760405162461bcd60e51b815260206004820152602c60248201527f455243373231456e756d657261626c653a20676c6f62616c20696e646578206f60448201526b7574206f6620626f756e647360a01b606482015260840161097d565b6008828154811061103757611037613fe5565b90600052602060002001549050919050565b611051612aaa565b66b1a2bc2ec500003410156110b45760405162461bcd60e51b8152602060048201526024808201527f54686973207472616e73616374696f6e20726571756972657320302e303520656044820152633a3432b960e11b606482015260840161097d565b6064600e60008282546110c79190613f08565b9091555050600a546001600160a01b03166108fc346040518115909202916000818181858888f19350505050158015611104573d6000803e3d6000fd5b50565b6060601b805480602002602001604051908101604052809291908181526020016000905b82821015610bb2578382906000526020600020906002020160405180604001604052908160008201805461115e90613f63565b80601f016020809104026020016040519081016040528092919081815260200182805461118a90613f63565b80156111d75780601f106111ac576101008083540402835291602001916111d7565b820191906000526020600020905b8154815290600101906020018083116111ba57829003601f168201915b50505091835250506001918201546001600160a01b031660209182015291835292909201910161112b565b6000818152600260205260408120546001600160a01b0316806108495760405162461bcd60e51b8152602060048201526018602482015277115490cdcc8c4e881a5b9d985b1a59081d1bdad95b88125160421b604482015260640161097d565b60006001600160a01b0382166112cc5760405162461bcd60e51b815260206004820152602960248201527f4552433732313a2061646472657373207a65726f206973206e6f7420612076616044820152683634b21037bbb732b960b91b606482015260840161097d565b506001600160a01b031660009081526003602052604090205490565b336000908152601860205260409020546060906113645760405162461bcd60e51b815260206004820152603460248201527f596f752068617665206e6f74206265656e20617070726f76656420666f7220746044820152733432903932b8bab2b9ba32b21030b1ba34b7b71760611b606482015260840161097d565b33600090815260186020908152604080832080548251818502810185019093528083529193909284015b82821015610bb257838290600052602060002090600202016040518060400160405290816000820180546113c190613f63565b80601f01602080910402602001604051908101604052809291908181526020018280546113ed90613f63565b801561143a5780601f1061140f5761010080835404028352916020019161143a565b820191906000526020600020905b81548152906001019060200180831161141d57829003601f168201915b5050505050815260200160018201805461145390613f63565b80601f016020809104026020016040519081016040528092919081815260200182805461147f90613f63565b80156114cc5780601f106114a1576101008083540402835291602001916114cc565b820191906000526020600020905b8154815290600101906020018083116114af57829003601f168201915b5050505050815250508152602001906001019061138e565b60606001805461085e90613f63565b6000604051806040016040528083815260200161150d3390565b6001600160a01b03169052601b805460018101825560009190915281518051929350839260029092027f3ad8aa4f87544323a9d1e5dd902f40c356527a7955687113db5f9a85ad579dc1019161156b9183916020919091019061356f565b50602091820151600191820180546001600160a01b0319166001600160a01b039092169190911790553360009081526012909252604091829020805460ff19169091179055516115bc908290613c3f565b604051908190038120907f88db4a536f075851673fbcb81050ab51c0a709de0eef6aa0c872a927c0ade24c90600090a25050565b6014602052600090815260409020805461160990613f63565b80601f016020809104026020016040519081016040528092919081815260200182805461163590613f63565b80156116825780601f1061165757610100808354040283529160200191611682565b820191906000526020600020905b81548152906001019060200180831161166557829003601f168201915b505050505081565b611695338383612cf6565b5050565b6116a1612aaa565b6005600e5410156116b157600080fd5b6000601b83815481106116c6576116c6613fe5565b90600052602060002090600202016040518060400160405290816000820180546116ef90613f63565b80601f016020809104026020016040519081016040528092919081815260200182805461171b90613f63565b80156117685780601f1061173d57610100808354040283529160200191611768565b820191906000526020600020905b81548152906001019060200180831161174b57829003601f168201915b5050509183525050600191909101546001600160a01b0316602090910152905081156117da57602080820180516001600160a01b039081166000908152601384526040808220805460ff19166001179055855193519092168152601484522081516117d89391929091019061356f565b505b811515816040516117eb9190613c3f565b604051908190038120907f5b5cc648c0cdb118eeb9957a32510510d658bb499f3d22585ddf52d84082956c90600090a3601b805461182b90600190613f20565b8154811061183b5761183b613fe5565b9060005260206000209060020201601b848154811061185c5761185c613fe5565b9060005260206000209060020201600082018160000190805461187e90613f63565b6118899291906135f3565b50600191820154910180546001600160a01b0319166001600160a01b03909216919091179055601b8054806118c0576118c0613fcf565b600082815260208120600019909201916002830201906118e0828261366e565b5060010180546001600160a01b031916905590556020908101516001600160a01b03166000908152601290915260409020805460ff191690555050565b611925612aaa565b601a805461193590600190613f20565b8154811061194557611945613fe5565b9060005260206000209060020201601a828154811061196657611966613fe5565b9060005260206000209060020201600082018160000190805461198890613f63565b6119939291906135f3565b50600191820154910180546001600160a01b0319166001600160a01b03909216919091179055601a8054806119ca576119ca613fcf565b600082815260208120600019909201916002830201906119ea828261366e565b5060010180546001600160a01b0319169055905550565b611a436040518060c001604052806000815260200160006001600160a01b03168152602001606081526020016060815260200160608152602001606081525090565b6040518060c00160405280600c548152602001611a68600b546001600160a01b031690565b6001600160a01b0316815260200160108054611a8390613f63565b80601f0160208091040260200160405190810160405280929190818152602001828054611aaf90613f63565b8015611afc5780601f10611ad157610100808354040283529160200191611afc565b820191906000526020600020905b815481529060010190602001808311611adf57829003601f168201915b50505050508152602001611b106000612185565b8152602001601c805480602002602001604051908101604052809291908181526020016000905b82821015611c8d5783829060005260206000209060020201604051806040016040529081600082018054611b6a90613f63565b80601f0160208091040260200160405190810160405280929190818152602001828054611b9690613f63565b8015611be35780601f10611bb857610100808354040283529160200191611be3565b820191906000526020600020905b815481529060010190602001808311611bc657829003601f168201915b50505050508152602001600182018054611bfc90613f63565b80601f0160208091040260200160405190810160405280929190818152602001828054611c2890613f63565b8015611c755780601f10611c4a57610100808354040283529160200191611c75565b820191906000526020600020905b815481529060010190602001808311611c5857829003601f168201915b50505050508152505081526020019060010190611b37565b50505050815260200160156000808152602001908152602001600020805480602002602001604051908101604052809291908181526020016000905b82821015611e1f5783829060005260206000209060020201604051806040016040529081600082018054611cfc90613f63565b80601f0160208091040260200160405190810160405280929190818152602001828054611d2890613f63565b8015611d755780601f10611d4a57610100808354040283529160200191611d75565b820191906000526020600020905b815481529060010190602001808311611d5857829003601f168201915b50505050508152602001600182018054611d8e90613f63565b80601f0160208091040260200160405190810160405280929190818152602001828054611dba90613f63565b8015611e075780601f10611ddc57610100808354040283529160200191611e07565b820191906000526020600020905b815481529060010190602001808311611dea57829003601f168201915b50505050508152505081526020019060010190611cc9565b505050915250919050565b611e4e60405180606001604052806000815260200160008152602001606081525090565b601760008381526020019081526020016000206040518060600160405290816000820154815260200160018201548152602001600282018054611e9090613f63565b80601f0160208091040260200160405190810160405280929190818152602001828054611ebc90613f63565b8015611f095780601f10611ede57610100808354040283529160200191611f09565b820191906000526020600020905b815481529060010190602001808311611eec57829003601f168201915b5050505050815250509050919050565b611f233383612b06565b611f3f5760405162461bcd60e51b815260040161097d90613d5b565b611f4b84848484612dc5565b50505050565b600d54341015611fbd5760405162461bcd60e51b815260206004820152603160248201527f4d696e74206661696c65643a2056616c7565206f66206d657373616765206973604482015270103632b9b9903a3430b710383934b1b29760791b606482015260840161097d565b6064600c54106120195760405162461bcd60e51b815260206004820152602160248201527f4d696e74206661696c65643a20546f6b656e732061726520736f6c64206f75746044820152601760f91b606482015260840161097d565b3361202382611202565b6001600160a01b03161461203657600080fd5b600081815260166020526040902060028101546001909101541061209c5760405162461bcd60e51b815260206004820152601860248201527f4d696e7420616c6c6f77616e63652065786365656465642e0000000000000000604482015260640161097d565b6120a883600c54612df8565b6120b4600c5483612f91565b60408051606081018252438152426020808301918252828401868152600c546000908152601783529490942083518155915160018301559251805192939192612103926002850192019061356f565b5050600c80549150600061211683613f9e565b9091555050600b546001600160a01b03166108fc346040518115909202916000818181858888f19350505050158015612153573d6000803e3d6000fd5b50600160166000838152602001908152602001600020600101600082825461217b9190613f08565b9091555050505050565b6000818152600260205260409020546060906001600160a01b03166122045760405162461bcd60e51b815260206004820152602f60248201527f4552433732314d657461646174613a2055524920717565727920666f72206e6f60448201526e3732bc34b9ba32b73a103a37b5b2b760891b606482015260840161097d565b6000828152601160205260408120805461221d90613f63565b80601f016020809104026020016040519081016040528092919081815260200182805461224990613f63565b80156122965780601f1061226b57610100808354040283529160200191612296565b820191906000526020600020905b81548152906001019060200180831161227957829003601f168201915b5050505050905060006122b460408051602081019091526000815290565b90508051600014156122c7575092915050565b8151156122f95780826040516020016122e1929190613c10565b60405160208183030381529060405292505050919050565b8061230385613029565b6040516020016122e1929190613c10565b6010805461160990613f63565b3360009081526019602052604090205460ff16151560011461237d5760405162461bcd60e51b81526020600482015260156024820152742cb7ba9030b932903737ba1030b8383937bb32b21760591b604482015260640161097d565b600d5434101561238c57600080fd5b60008181526016602052604081206002018054600592906123ae908490613f08565b925050819055506005600f60008282546123c89190613f08565b925050819055506005600e60008282546123e29190613f20565b9091555050600b546001600160a01b03166108fc346040518115909202916000818181858888f19350505050158015611695573d6000803e3d6000fd5b6060600061242c33611262565b116124795760405162461bcd60e51b815260206004820152601b60248201527f596f75206d757374206265206120746f6b656e20686f6c6465722e0000000000604482015260640161097d565b600082815260156020908152604080832080548251818502810185019093528083529193909284015b828210156125f857838290600052602060002090600202016040518060400160405290816000820180546124d590613f63565b80601f016020809104026020016040519081016040528092919081815260200182805461250190613f63565b801561254e5780601f106125235761010080835404028352916020019161254e565b820191906000526020600020905b81548152906001019060200180831161253157829003601f168201915b5050505050815260200160018201805461256790613f63565b80601f016020809104026020016040519081016040528092919081815260200182805461259390613f63565b80156125e05780601f106125b5576101008083540402835291602001916125e0565b820191906000526020600020905b8154815290600101906020018083116125c357829003601f168201915b505050505081525050815260200190600101906124a2565b505050509050919050565b606061260d612aaa565b601a805480602002602001604051908101604052809291908181526020016000905b82821015610bb2578382906000526020600020906002020160405180604001604052908160008201805461266290613f63565b80601f016020809104026020016040519081016040528092919081815260200182805461268e90613f63565b80156126db5780601f106126b0576101008083540402835291602001916126db565b820191906000526020600020905b8154815290600101906020018083116126be57829003601f168201915b50505091835250506001918201546001600160a01b031660209182015291835292909201910161262f565b3360009081526013602052604090205460ff166127655760405162461bcd60e51b815260206004820152601d60248201527f436c69656e7420686173206e6f74206265656e20617070726f7665642e000000604482015260640161097d565b6005600e54101561277557600080fd5b60408051606081018252600c5480825260016020808401828152600585870190815260009485526016909252949092209251835592519282019290925590516002909101556127c633600c54612df8565b6127d2600c5482612f91565b60408051606081018252438152426020808301918252828401858152600c546000908152601783529490942083518155915160018301559251805192939192612821926002850192019061356f565b5050600c80549150600061283483613f9e565b9091555050600b546001600160a01b03166108fc346040518115909202916000818181858888f19350505050158015612871573d6000803e3d6000fd5b506005600e60008282546128859190613f20565b9091555050336000908152601360209081526040808320805460ff19169055601490915281206111049161366e565b6128bc612aaa565b600e54600f54106129265760405162461bcd60e51b815260206004820152602e60248201527f5468697320636f6e74726163742068617320726561636865642069742773206d60448201526d34b73a1030b63637bbb0b731b29760911b606482015260840161097d565b600160196000601a848154811061293f5761293f613fe5565b6000918252602080832060016002909302018201546001600160a01b0316845283019390935260409091019020805492151560ff1990931692909217909155601a8054909161193591613f20565b60006001600160e01b031982166380ac58cd60e01b14806129be57506001600160e01b03198216635b5e139f60e01b145b8061084957506301ffc9a760e01b6001600160e01b0319831614610849565b6000818152600260205260409020546001600160a01b03166111045760405162461bcd60e51b8152602060048201526018602482015277115490cdcc8c4e881a5b9d985b1a59081d1bdad95b88125160421b604482015260640161097d565b600081815260046020526040902080546001600160a01b0319166001600160a01b0384169081179091558190612a7182611202565b6001600160a01b03167f8c5be1e5ebec7d5bd14f71427d1e84f3dd0314c0f7b2291e5b200ac8c7c3b92560405160405180910390a45050565b600b546001600160a01b03163314612b045760405162461bcd60e51b815260206004820181905260248201527f4f776e61626c653a2063616c6c6572206973206e6f7420746865206f776e6572604482015260640161097d565b565b600080612b1283611202565b9050806001600160a01b0316846001600160a01b03161480612b5957506001600160a01b0380821660009081526005602090815260408083209388168352929052205460ff165b80612b7d5750836001600160a01b0316612b72846108e1565b6001600160a01b0316145b949350505050565b826001600160a01b0316612b9882611202565b6001600160a01b031614612bbe5760405162461bcd60e51b815260040161097d90613dfa565b6001600160a01b038216612c205760405162461bcd60e51b8152602060048201526024808201527f4552433732313a207472616e7366657220746f20746865207a65726f206164646044820152637265737360e01b606482015260840161097d565b612c2d83838360016130c6565b826001600160a01b0316612c4082611202565b6001600160a01b031614612c665760405162461bcd60e51b815260040161097d90613dfa565b600081815260046020908152604080832080546001600160a01b03199081169091556001600160a01b0387811680865260038552838620805460001901905590871680865283862080546001019055868652600290945282852080549092168417909155905184937fddf252ad1be2c89b69c2b068fc378daa952ba7f163c4a11628f55a4df523b3ef91a4505050565b816001600160a01b0316836001600160a01b03161415612d585760405162461bcd60e51b815260206004820152601960248201527f4552433732313a20617070726f766520746f2063616c6c657200000000000000604482015260640161097d565b6001600160a01b03838116600081815260056020908152604080832094871680845294825291829020805460ff191686151590811790915591519182527f17307eab39ab6107e8899845ad3d59bd9653f200f220920489ca2b5937696c31910160405180910390a3505050565b612dd0848484612b85565b612ddc848484846131fa565b611f4b5760405162461bcd60e51b815260040161097d90613da8565b6001600160a01b038216612e4e5760405162461bcd60e51b815260206004820181905260248201527f4552433732313a206d696e7420746f20746865207a65726f2061646472657373604482015260640161097d565b6000818152600260205260409020546001600160a01b031615612eb35760405162461bcd60e51b815260206004820152601c60248201527f4552433732313a20746f6b656e20616c7265616479206d696e74656400000000604482015260640161097d565b612ec16000838360016130c6565b6000818152600260205260409020546001600160a01b031615612f265760405162461bcd60e51b815260206004820152601c60248201527f4552433732313a20746f6b656e20616c7265616479206d696e74656400000000604482015260640161097d565b6001600160a01b038216600081815260036020908152604080832080546001019055848352600290915280822080546001600160a01b0319168417905551839291907fddf252ad1be2c89b69c2b068fc378daa952ba7f163c4a11628f55a4df523b3ef908290a45050565b6000828152600260205260409020546001600160a01b031661300a5760405162461bcd60e51b815260206004820152602c60248201527f4552433732314d657461646174613a2055524920736574206f66206e6f6e657860448201526b34b9ba32b73a103a37b5b2b760a11b606482015260840161097d565b60008281526011602090815260409091208251610a1e9284019061356f565b6060600061303683613307565b600101905060008167ffffffffffffffff81111561305657613056613ffb565b6040519080825280601f01601f191660200182016040528015613080576020820181803683370190505b5090508181016020015b600019016f181899199a1a9b1b9c1cb0b131b232b360811b600a86061a8153600a85049450846130b9576130be565b61308a565b509392505050565b60018111156131355760405162461bcd60e51b815260206004820152603560248201527f455243373231456e756d657261626c653a20636f6e7365637574697665207472604482015274185b9cd9995c9cc81b9bdd081cdd5c1c1bdc9d1959605a1b606482015260840161097d565b816001600160a01b0385166131915761318c81600880546000838152600960205260408120829055600182018355919091527ff3f7a9fe364faab93b216da50a3214154f22a0a2b415b23a84c8169e8b636ee30155565b6131b4565b836001600160a01b0316856001600160a01b0316146131b4576131b485826133df565b6001600160a01b0384166131d0576131cb8161347c565b6131f3565b846001600160a01b0316846001600160a01b0316146131f3576131f3848261352b565b5050505050565b60006001600160a01b0384163b156132fc57604051630a85bd0160e11b81526001600160a01b0385169063150b7a029061323e903390899088908890600401613c79565b602060405180830381600087803b15801561325857600080fd5b505af1925050508015613288575060408051601f3d908101601f19168201909252613285918101906139c2565b60015b6132e2573d8080156132b6576040519150601f19603f3d011682016040523d82523d6000602084013e6132bb565b606091505b5080516132da5760405162461bcd60e51b815260040161097d90613da8565b805181602001fd5b6001600160e01b031916630a85bd0160e11b149050612b7d565b506001949350505050565b60008072184f03e93ff9f4daa797ed6e38ed64bf6a1f0160401b83106133465772184f03e93ff9f4daa797ed6e38ed64bf6a1f0160401b830492506040015b6d04ee2d6d415b85acef81000000008310613372576d04ee2d6d415b85acef8100000000830492506020015b662386f26fc10000831061339057662386f26fc10000830492506010015b6305f5e10083106133a8576305f5e100830492506008015b61271083106133bc57612710830492506004015b606483106133ce576064830492506002015b600a83106108495760010192915050565b600060016133ec84611262565b6133f69190613f20565b600083815260076020526040902054909150808214613449576001600160a01b03841660009081526006602090815260408083208584528252808320548484528184208190558352600790915290208190555b5060009182526007602090815260408084208490556001600160a01b039094168352600681528383209183525290812055565b60085460009061348e90600190613f20565b600083815260096020526040812054600880549394509092849081106134b6576134b6613fe5565b9060005260206000200154905080600883815481106134d7576134d7613fe5565b600091825260208083209091019290925582815260099091526040808220849055858252812055600880548061350f5761350f613fcf565b6001900381819060005260206000200160009055905550505050565b600061353683611262565b6001600160a01b039093166000908152600660209081526040808320868452825280832085905593825260079052919091209190915550565b82805461357b90613f63565b90600052602060002090601f01602090048101928261359d57600085556135e3565b82601f106135b657805160ff19168380011785556135e3565b828001600101855582156135e3579182015b828111156135e35782518255916020019190600101906135c8565b506135ef9291506136a4565b5090565b8280546135ff90613f63565b90600052602060002090601f01602090048101928261362157600085556135e3565b82601f1061363257805485556135e3565b828001600101855582156135e357600052602060002091601f016020900482015b828111156135e3578254825591600101919060010190613653565b50805461367a90613f63565b6000825580601f1061368a575050565b601f01602090049060005260206000209081019061110491905b5b808211156135ef57600081556001016136a5565b600067ffffffffffffffff808411156136d4576136d4613ffb565b604051601f8501601f19908116603f011681019082821181831017156136fc576136fc613ffb565b8160405280935085815286868601111561371557600080fd5b858560208301376000602087830101525050509392505050565b80356001600160a01b038116811461374657600080fd5b919050565b8035801515811461374657600080fd5b600082601f83011261376c57600080fd5b61377b838335602085016136b9565b9392505050565b60006020828403121561379457600080fd5b61377b8261372f565b600080604083850312156137b057600080fd5b6137b98361372f565b91506137c76020840161372f565b90509250929050565b6000806000606084860312156137e557600080fd5b6137ee8461372f565b92506137fc6020850161372f565b9150604084013590509250925092565b6000806000806080858703121561382257600080fd5b61382b8561372f565b93506138396020860161372f565b925060408501359150606085013567ffffffffffffffff81111561385c57600080fd5b8501601f8101871361386d57600080fd5b61387c878235602084016136b9565b91505092959194509250565b6000806040838503121561389b57600080fd5b6138a48361372f565b91506137c76020840161374b565b6000806000606084860312156138c757600080fd5b6138d08461372f565b9250602084013567ffffffffffffffff8111156138ec57600080fd5b6138f88682870161375b565b925050604084013590509250925092565b6000806040838503121561391c57600080fd5b6139258361372f565b946020939093013593505050565b6000806000806080858703121561394957600080fd5b6139528561372f565b935060208501359250604085013567ffffffffffffffff8082111561397657600080fd5b6139828883890161375b565b9350606087013591508082111561399857600080fd5b5061387c8782880161375b565b6000602082840312156139b757600080fd5b813561377b81614011565b6000602082840312156139d457600080fd5b815161377b81614011565b6000602082840312156139f157600080fd5b813567ffffffffffffffff811115613a0857600080fd5b612b7d8482850161375b565b60008060408385031215613a2757600080fd5b823567ffffffffffffffff80821115613a3f57600080fd5b613a4b8683870161375b565b93506020850135915080821115613a6157600080fd5b50613a6e8582860161375b565b9150509250929050565b600080600060608486031215613a8d57600080fd5b833567ffffffffffffffff80821115613aa557600080fd5b613ab18783880161375b565b94506020860135915080821115613ac757600080fd5b506138f88682870161375b565b600060208284031215613ae657600080fd5b5035919050565b60008060408385031215613b0057600080fd5b823591506137c76020840161374b565b60008060408385031215613b2357600080fd5b82359150602083013567ffffffffffffffff811115613b4157600080fd5b613a6e8582860161375b565b600081518084526020808501808196508360051b8101915082860160005b85811015613bbb578284038952815160408151818752613b8d82880182613bc8565b91505086820151915085810387870152613ba78183613bc8565b9a87019a9550505090840190600101613b6b565b5091979650505050505050565b60008151808452613be0816020860160208601613f37565b601f01601f19169290920160200192915050565b60008251613c06818460208701613f37565b9190910192915050565b60008351613c22818460208801613f37565b835190830190613c36818360208801613f37565b01949350505050565b600082518051613c53818560208501613f37565b6020948501516001600160a01b0316601f91909101601f19169390930192835250500190565b6001600160a01b0385811682528416602082015260408101839052608060608201819052600090613cac90830184613bc8565b9695505050505050565b60006020808301818452808551808352604092508286019150828160051b87010184880160005b83811015613d2757888303603f1901855281518051878552613d0188860182613bc8565b918901516001600160a01b03169489019490945294870194925090860190600101613cdd565b509098975050505050505050565b60208152600061377b6020830184613b4d565b60208152600061377b6020830184613bc8565b6020808252602d908201527f4552433732313a2063616c6c6572206973206e6f7420746f6b656e206f776e6560408201526c1c881bdc88185c1c1c9bdd9959609a1b606082015260800190565b60208082526032908201527f4552433732313a207472616e7366657220746f206e6f6e20455243373231526560408201527131b2b4bb32b91034b6b83632b6b2b73a32b960711b606082015260800190565b60208082526025908201527f4552433732313a207472616e736665722066726f6d20696e636f72726563742060408201526437bbb732b960d91b606082015260800190565b602081528151602082015260018060a01b0360208301511660408201526000604083015160c06060840152613e7760e0840182613bc8565b90506060840151601f1980858403016080860152613e958383613bc8565b925060808601519150808584030160a0860152613eb28383613b4d565b925060a08601519150808584030160c086015250613ed08282613b4d565b95945050505050565b60208152815160208201526020820151604082015260006040830151606080840152612b7d6080840182613bc8565b60008219821115613f1b57613f1b613fb9565b500190565b600082821015613f3257613f32613fb9565b500390565b60005b83811015613f52578181015183820152602001613f3a565b83811115611f4b5750506000910152565b600181811c90821680613f7757607f821691505b60208210811415613f9857634e487b7160e01b600052602260045260246000fd5b50919050565b6000600019821415613fb257613fb2613fb9565b5060010190565b634e487b7160e01b600052601160045260246000fd5b634e487b7160e01b600052603160045260246000fd5b634e487b7160e01b600052603260045260246000fd5b634e487b7160e01b600052604160045260246000fd5b6001600160e01b03198116811461110457600080fdfea26469706673582212201667d25a523dc31dce3e448aa8ec2c08a0fa66cd2123330aa70ff807c860493964736f6c63430008070033",
  "linkReferences": {},
  "deployedLinkReferences": {}
}