{"contracts/TamboraFactory.sol":{"TamboraFactory":{"abi":[{"inputs":[],"stateMutability":"nonpayable","type":"constructor"},{"anonymous":false,"inputs":[{"indexed":true,"internalType":"contract Tambora","name":"contractAddr","type":"address"}],"name":"Deployed","type":"event"},{"inputs":[{"internalType":"string","name":"name","type":"string"},{"internalType":"string","name":"symbol","type":"string"},{"internalType":"uint256","name":"price_","type":"uint256"},{"internalType":"string","name":"contractType_","type":"string"},{"internalType":"address","name":"to_","type":"address"},{"internalType":"string","name":"uri_","type":"string"}],"name":"deployTambora","outputs":[],"stateMutability":"payable","type":"function"},{"inputs":[{"internalType":"string","name":"name_","type":"string"}],"name":"getContractAddress","outputs":[{"internalType":"contract Tambora","name":"","type":"address"}],"stateMutability":"view","type":"function"},{"inputs":[],"name":"getDeployedContracts","outputs":[{"internalType":"contract Tambora[]","name":"","type":"address[]"}],"stateMutability":"view","type":"function"},{"inputs":[],"name":"getNames","outputs":[{"internalType":"string[]","name":"","type":"string[]"}],"stateMutability":"view","type":"function"},{"inputs":[{"internalType":"address","name":"contractOwner","type":"address"}],"name":"getOwnedContracts","outputs":[{"internalType":"contract Tambora[]","name":"","type":"address[]"}],"stateMutability":"view","type":"function"},{"inputs":[{"internalType":"uint256","name":"","type":"uint256"}],"name":"names","outputs":[{"internalType":"string","name":"","type":"string"}],"stateMutability":"view","type":"function"}],"evm":{"bytecode":{"linkReferences":{},"object":"608060405234801561001057600080fd5b50600080546001600160a01b03191633178155614eb590819061003390396000f3fe6080604052600436106200006d5760003560e01c8063aa9a068f1162000048578063aa9a068f1462000101578063cd838f0f1462000128578063e5d2f8e3146200014f57600080fd5b806304433bbc14620000725780634622ab0314620000b45780634f8bd19814620000e8575b600080fd5b3480156200007f57600080fd5b5062000097620000913660046200081a565b62000174565b6040516001600160a01b0390911681526020015b60405180910390f35b348015620000c157600080fd5b50620000d9620000d336600462000930565b620001a7565b604051620000ab919062000ada565b620000ff620000f93660046200085b565b6200025c565b005b3480156200010e57600080fd5b5062000119620004d0565b604051620000ab919062000a25565b3480156200013557600080fd5b506200014062000534565b604051620000ab919062000a74565b3480156200015c57600080fd5b50620001196200016e366004620007f5565b62000617565b600060048260405162000188919062000978565b908152604051908190036020019020546001600160a01b031692915050565b60028181548110620001b857600080fd5b906000526020600020016000915090508054620001d59062000b22565b80601f0160208091040260200160405190810160405280929190818152602001828054620002039062000b22565b8015620002545780601f10620002285761010080835404028352916020019162000254565b820191906000526020600020905b8154815290600101906020018083116200023657829003601f168201915b505050505081565b6000620002698762000174565b6001600160a01b031614620002de576040517f08c379a000000000000000000000000000000000000000000000000000000000815260206004820152601360248201527f4e616d6520616c72656164792065786973747300000000000000000000000000604482015260640160405180910390fd5b60003387878787878760008054906101000a90046001600160a01b031660405162000309906200068f565b6200031c98979695949392919062000996565b604051809103906000f08015801562000339573d6000803e3d6000fd5b506001805480820182557fb10e2d527612073b26eecdfd717e6a320cf44b4afac2b0732d9fcbe2b7fa0cf601805473ffffffffffffffffffffffffffffffffffffffff19166001600160a01b0384161790556002805491820181556000528851919250620003d1917f405787fa12a823e0f2b7631cc41b3ba8828b3321ca811111fa75cd3aa3bb5ace9091019060208a01906200069d565b5080600488604051620003e5919062000978565b90815260405190819003602001812080546001600160a01b0393841673ffffffffffffffffffffffffffffffffffffffff19909116179055908216907ff40fcec21964ffb566044d083b4073f29f7f7929110ea19e1b3ebe375d89055e90600090a2336000908152600360209081526040808320805460018101825590845291832090910180546001600160a01b0385811673ffffffffffffffffffffffffffffffffffffffff1990921691909117909155825491519116913480156108fc02929091818181858888f19350505050158015620004c6573d6000803e3d6000fd5b5050505050505050565b606060018054806020026020016040519081016040528092919081815260200182805480156200052a57602002820191906000526020600020905b81546001600160a01b031681526001909101906020018083116200050b575b5050505050905090565b60606002805480602002602001604051908101604052809291908181526020016000905b828210156200060e5783829060005260206000200180546200057a9062000b22565b80601f0160208091040260200160405190810160405280929190818152602001828054620005a89062000b22565b8015620005f95780601f10620005cd57610100808354040283529160200191620005f9565b820191906000526020600020905b815481529060010190602001808311620005db57829003601f168201915b50505050508152602001906001019062000558565b50505050905090565b6001600160a01b0381166000908152600360209081526040918290208054835181840281018401909452808452606093928301828280156200068357602002820191906000526020600020905b81546001600160a01b0316815260019091019060200180831162000664575b50505050509050919050565b61430a8062000b7683390190565b828054620006ab9062000b22565b90600052602060002090601f016020900481019282620006cf57600085556200071a565b82601f10620006ea57805160ff19168380011785556200071a565b828001600101855582156200071a579182015b828111156200071a578251825591602001919060010190620006fd565b50620007289291506200072c565b5090565b5b808211156200072857600081556001016200072d565b80356001600160a01b03811681146200075b57600080fd5b919050565b600082601f8301126200077257600080fd5b813567ffffffffffffffff8082111562000790576200079062000b5f565b604051601f8301601f19908116603f01168101908282118183101715620007bb57620007bb62000b5f565b81604052838152866020858801011115620007d557600080fd5b836020870160208301376000602085830101528094505050505092915050565b6000602082840312156200080857600080fd5b620008138262000743565b9392505050565b6000602082840312156200082d57600080fd5b813567ffffffffffffffff8111156200084557600080fd5b620008538482850162000760565b949350505050565b60008060008060008060c087890312156200087557600080fd5b863567ffffffffffffffff808211156200088e57600080fd5b6200089c8a838b0162000760565b97506020890135915080821115620008b357600080fd5b620008c18a838b0162000760565b9650604089013595506060890135915080821115620008df57600080fd5b620008ed8a838b0162000760565b9450620008fd60808a0162000743565b935060a08901359150808211156200091457600080fd5b506200092389828a0162000760565b9150509295509295509295565b6000602082840312156200094357600080fd5b5035919050565b600081518084526200096481602086016020860162000aef565b601f01601f19169290920160200192915050565b600082516200098c81846020870162000aef565b9190910192915050565b60006101006001600160a01b03808c168452816020850152620009bc8285018c6200094a565b91508382036040850152620009d2828b6200094a565b91508860608501528382036080850152620009ee82896200094a565b915080871660a085015283820360c085015262000a0c82876200094a565b925080851660e085015250509998505050505050505050565b6020808252825182820181905260009190848201906040850190845b8181101562000a685783516001600160a01b03168352928401929184019160010162000a41565b50909695505050505050565b6000602080830181845280855180835260408601915060408160051b870101925083870160005b8281101562000acd57603f1988860301845262000aba8583516200094a565b9450928501929085019060010162000a9b565b5092979650505050505050565b6020815260006200081360208301846200094a565b60005b8381101562000b0c57818101518382015260200162000af2565b8381111562000b1c576000848401525b50505050565b600181811c9082168062000b3757607f821691505b6020821081141562000b5957634e487b7160e01b600052602260045260246000fd5b50919050565b634e487b7160e01b600052604160045260246000fdfe60806040523480156200001157600080fd5b506040516200430a3803806200430a8339810160408190526200003491620006dd565b8651879087906200004d90600090602085019062000563565b5080516200006390600190602084019062000563565b5050600060085550600780546001600160a01b03808b166001600160a01b031992831617909255600680549284169290911691909117905560098590558351620000b590600c90602087019062000563565b506005600b819055506040518060a00160405280888152602001896001600160a01b0316815260200160018152602001600581526020016040518060400160405280600581526020016437bbb732b960d91b815250815250600f600062000121620001c660201b60201c565b6001600160a01b03168152602080820192909252604001600020825180519192620001529284929091019062000563565b506020828101516001830180546001600160a01b0319166001600160a01b03909216919091179055604083015160028301556060830151600383015560808301518051620001a7926004850192019062000563565b50620001b8915084905083620001d5565b50505050505050506200087b565b6007546001600160a01b031690565b606460085410620002375760405162461bcd60e51b815260206004820152602160248201527f4d696e74206661696c65643a20546f6b656e732061726520736f6c64206f75746044820152601760f91b60648201526084015b60405180910390fd5b6001600160a01b0382166000908152600f60205260409020600381015460029091015410620002a95760405162461bcd60e51b815260206004820152601860248201527f4d696e7420616c6c6f77616e63652065786365656465642e000000000000000060448201526064016200022e565b620002bd826008546200037a60201b60201c565b600854620002cc9082620004c2565b6001600160a01b0382166000908152600e602090815260408220600880548254600181018455928552928420909101919091558054916200030d8362000831565b90915550506007546001600160a01b03166108fc346040518115909202916000818181858888f193505050501580156200034b573d6000803e3d6000fd5b50336000908152600f6020526040812060020180546001929062000371908490620007d9565b90915550505050565b6001600160a01b038216620003d25760405162461bcd60e51b815260206004820181905260248201527f4552433732313a206d696e7420746f20746865207a65726f206164647265737360448201526064016200022e565b6000818152600260205260409020546001600160a01b031615620004395760405162461bcd60e51b815260206004820152601c60248201527f4552433732313a20746f6b656e20616c7265616479206d696e7465640000000060448201526064016200022e565b6001600160a01b038216600090815260036020526040812080546001929062000464908490620007d9565b909155505060008181526002602052604080822080546001600160a01b0319166001600160a01b03861690811790915590518392907fddf252ad1be2c89b69c2b068fc378daa952ba7f163c4a11628f55a4df523b3ef908290a45050565b6000828152600260205260409020546001600160a01b03166200053d5760405162461bcd60e51b815260206004820152602c60248201527f4552433732314d657461646174613a2055524920736574206f66206e6f6e657860448201526b34b9ba32b73a103a37b5b2b760a11b60648201526084016200022e565b6000828152600d6020908152604090912082516200055e9284019062000563565b505050565b8280546200057190620007f4565b90600052602060002090601f016020900481019282620005955760008555620005e0565b82601f10620005b057805160ff1916838001178555620005e0565b82800160010185558215620005e0579182015b82811115620005e0578251825591602001919060010190620005c3565b50620005ee929150620005f2565b5090565b5b80821115620005ee5760008155600101620005f3565b80516001600160a01b03811681146200062157600080fd5b919050565b600082601f8301126200063857600080fd5b81516001600160401b038082111562000655576200065562000865565b604051601f8301601f19908116603f0116810190828211818310171562000680576200068062000865565b816040528381526020925086838588010111156200069d57600080fd5b600091505b83821015620006c15785820183015181830184015290820190620006a2565b83821115620006d35760008385830101525b9695505050505050565b600080600080600080600080610100898b031215620006fb57600080fd5b620007068962000609565b60208a01519098506001600160401b03808211156200072457600080fd5b620007328c838d0162000626565b985060408b01519150808211156200074957600080fd5b620007578c838d0162000626565b975060608b0151965060808b01519150808211156200077557600080fd5b620007838c838d0162000626565b95506200079360a08c0162000609565b945060c08b0151915080821115620007aa57600080fd5b50620007b98b828c0162000626565b925050620007ca60e08a0162000609565b90509295985092959890939650565b60008219821115620007ef57620007ef6200084f565b500190565b600181811c908216806200080957607f821691505b602082108114156200082b57634e487b7160e01b600052602260045260246000fd5b50919050565b60006000198214156200084857620008486200084f565b5060010190565b634e487b7160e01b600052601160045260246000fd5b634e487b7160e01b600052604160045260246000fd5b613a7f806200088b6000396000f3fe6080604052600436106101d85760003560e01c80636352211e11610102578063b88d4fde11610095578063d9d6165511610064578063d9d616551461054e578063e985e9c51461057b578063f9dc375f146105c4578063fd6e7579146105d757600080fd5b8063b88d4fde146104e6578063c87b56dd14610506578063cb2ef6f714610526578063d0def5211461053b57600080fd5b806396761595116100d15780639676159514610464578063a22cb46514610484578063a28039cd146104a4578063af80a5be146104c457600080fd5b80636352211e146103f157806370a08231146104115780638da5cb5b1461043157806395d89b411461044f57600080fd5b806319674f631161017a57806342842e0e1161014957806342842e0e146103875780635a9be11b146103a75780635bf61cfe146103af57806361eed2a9146103d157600080fd5b806319674f63146102f657806323b872dd146103275780632d006538146103475780634261917a1461036757600080fd5b8063095ea7b3116101b6578063095ea7b31461026c5780630e37b4fd1461028e57806317d70f7c146102b057806318f82330146102d457600080fd5b806301ffc9a7146101dd57806306fdde0314610212578063081812fc14610234575b600080fd5b3480156101e957600080fd5b506101fd6101f83660046133a2565b6105ea565b60405190151581526020015b60405180910390f35b34801561021e57600080fd5b50610227610687565b60405161020991906137dd565b34801561024057600080fd5b5061025461024f36600461346b565b610719565b6040516001600160a01b039091168152602001610209565b34801561027857600080fd5b5061028c610287366004613378565b610740565b005b34801561029a57600080fd5b506102a3610877565b6040516102099190613786565b3480156102bc57600080fd5b506102c660085481565b604051908152602001610209565b3480156102e057600080fd5b506102e9610aac565b604051610209919061383c565b34801561030257600080fd5b50610316610311366004613186565b610d53565b6040516102099594939291906137f0565b34801561033357600080fd5b5061028c6103423660046131d4565b610ea0565b34801561035357600080fd5b5061028c610362366004613304565b610f27565b34801561037357600080fd5b5061028c610382366004613411565b610fa7565b34801561039357600080fd5b5061028c6103a23660046131d4565b611010565b6102c661102b565b3480156103bb57600080fd5b506103c4611109565b6040516102099190613724565b3480156103dd57600080fd5b506103166103ec366004613186565b6112ae565b3480156103fd57600080fd5b5061025461040c36600461346b565b6112c9565b34801561041d57600080fd5b506102c661042c366004613186565b61132e565b34801561043d57600080fd5b506007546001600160a01b0316610254565b34801561045b57600080fd5b506102276113c8565b34801561047057600080fd5b5061028c61047f3660046133dc565b6113d7565b34801561049057600080fd5b5061028c61049f36600461328c565b6115bd565b3480156104b057600080fd5b5061028c6104bf366004613484565b6115cc565b3480156104d057600080fd5b506104d9611a63565b604051610209919061384f565b3480156104f257600080fd5b5061028c610501366004613210565b611eb0565b34801561051257600080fd5b5061022761052136600461346b565b611f3e565b34801561053257600080fd5b506102276120db565b61028c6105493660046132b6565b612169565b34801561055a57600080fd5b5061056e610569366004613186565b612312565b6040516102099190613799565b34801561058757600080fd5b506101fd6105963660046131a1565b6001600160a01b03918216600090815260056020908152604080832093909416825291909152205460ff1690565b61028c6105d23660046133dc565b61237e565b6102c66105e5366004613186565b6124a6565b60006001600160e01b031982167f80ac58cd00000000000000000000000000000000000000000000000000000000148061064d57506001600160e01b031982167f5b5e139f00000000000000000000000000000000000000000000000000000000145b8061068157507f01ffc9a7000000000000000000000000000000000000000000000000000000006001600160e01b03198316145b92915050565b6060600080546106969061395b565b80601f01602080910402602001604051908101604052809291908181526020018280546106c29061395b565b801561070f5780601f106106e45761010080835404028352916020019161070f565b820191906000526020600020905b8154815290600101906020018083116106f257829003601f168201915b5050505050905090565b600061072482612623565b506000908152600460205260409020546001600160a01b031690565b600061074b826112c9565b9050806001600160a01b0316836001600160a01b031614156107da5760405162461bcd60e51b815260206004820152602160248201527f4552433732313a20617070726f76616c20746f2063757272656e74206f776e6560448201527f720000000000000000000000000000000000000000000000000000000000000060648201526084015b60405180910390fd5b336001600160a01b03821614806107f657506107f68133610596565b6108685760405162461bcd60e51b815260206004820152603e60248201527f4552433732313a20617070726f76652063616c6c6572206973206e6f7420746f60448201527f6b656e206f776e6572206e6f7220617070726f76656420666f7220616c6c000060648201526084016107d1565b610872838361268a565b505050565b60408051808201825260068152653437b63232b960d11b602091820152336000908152600f90915281902090516060917ff24c48dfb555ee1f6fb0327ecc23cc06563c8943ed6777d6af6ba16c01787778916108d691600401906135ac565b60405180910390201461092b5760405162461bcd60e51b815260206004820152601760248201527f436c69656e74206973206e6f74206120686f6c6465722e00000000000000000060448201526064016107d1565b6014805480602002602001604051908101604052809291908181526020016000905b82821015610aa357838290600052602060002090600202016040518060400160405290816000820180546109809061395b565b80601f01602080910402602001604051908101604052809291908181526020018280546109ac9061395b565b80156109f95780601f106109ce576101008083540402835291602001916109f9565b820191906000526020600020905b8154815290600101906020018083116109dc57829003601f168201915b50505050508152602001600182018054610a129061395b565b80601f0160208091040260200160405190810160405280929190818152602001828054610a3e9061395b565b8015610a8b5780601f10610a6057610100808354040283529160200191610a8b565b820191906000526020600020905b815481529060010190602001808311610a6e57829003601f168201915b5050505050815250508152602001906001019061094d565b50505050905090565b610ae76040518060a001604052806060815260200160006001600160a01b031681526020016000815260200160008152602001606081525090565b336000908152600f60205260409020600101546001600160a01b031615610c8d57600f6000335b6001600160a01b03166001600160a01b031681526020019081526020016000206040518060a0016040529081600082018054610b499061395b565b80601f0160208091040260200160405190810160405280929190818152602001828054610b759061395b565b8015610bc25780601f10610b9757610100808354040283529160200191610bc2565b820191906000526020600020905b815481529060010190602001808311610ba557829003601f168201915b505050918352505060018201546001600160a01b031660208201526002820154604082015260038201546060820152600482018054608090920191610c069061395b565b80601f0160208091040260200160405190810160405280929190818152602001828054610c329061395b565b8015610c7f5780601f10610c5457610100808354040283529160200191610c7f565b820191906000526020600020905b815481529060010190602001808311610c6257829003601f168201915b505050505081525050905090565b336000908152601060205260409020600101546001600160a01b031615610cb8576010600033610b0e565b6040805160e08101909152600760a082019081527f746865647564650000000000000000000000000000000000000000000000000060c0830152815260208101336001600160a01b0316815260200160008152602001600081526020016040518060400160405280600581526020017f6775657374000000000000000000000000000000000000000000000000000000815250815250905090565b601060205260009081526040902080548190610d6e9061395b565b80601f0160208091040260200160405190810160405280929190818152602001828054610d9a9061395b565b8015610de75780601f10610dbc57610100808354040283529160200191610de7565b820191906000526020600020905b815481529060010190602001808311610dca57829003601f168201915b50505060018401546002850154600386015460048701805496976001600160a01b039094169692955090935090610e1d9061395b565b80601f0160208091040260200160405190810160405280929190818152602001828054610e499061395b565b8015610e965780601f10610e6b57610100808354040283529160200191610e96565b820191906000526020600020905b815481529060010190602001808311610e7957829003601f168201915b5050505050905085565b610eaa33826126f8565b610f1c5760405162461bcd60e51b815260206004820152602e60248201527f4552433732313a2063616c6c6572206973206e6f7420746f6b656e206f776e6560448201527f72206e6f7220617070726f76656400000000000000000000000000000000000060648201526084016107d1565b610872838383612777565b610f2f612944565b6001600160a01b0383166000908152601160209081526040808320815180830190925284825281830186905280546001810182559084529282902081518051929460020290910192610f8692849290910190612f78565b506020828101518051610f9f9260018501920190612f78565b505050505050565b610faf612944565b6040805180820190915282815260208082018390526014805460018101825560009190915282518051849360029093027fce6d7b5282bd9a3661ae061feed1dbda4e52ab073b1f9285be6e155d9c38d4ec0192610f86928492910190612f78565b61087283838360405180602001604052806000815250611eb0565b6000611035612944565b668e1bc9bf0400003410156110b15760405162461bcd60e51b8152602060048201526024808201527f54686973207472616e73616374696f6e20726571756972657320302e3034206560448201527f746865720000000000000000000000000000000000000000000000000000000060648201526084016107d1565b6064600a60008282546110c491906138ec565b90915550506006546001600160a01b03166108fc346040518115909202916000818181858888f19350505050158015611101573d6000803e3d6000fd5b5050600a5490565b60606012805480602002602001604051908101604052809291908181526020016000905b82821015610aa357838290600052602060002090600502016040518060a00160405290816000820180546111609061395b565b80601f016020809104026020016040519081016040528092919081815260200182805461118c9061395b565b80156111d95780601f106111ae576101008083540402835291602001916111d9565b820191906000526020600020905b8154815290600101906020018083116111bc57829003601f168201915b505050918352505060018201546001600160a01b03166020820152600282015460408201526003820154606082015260048201805460809092019161121d9061395b565b80601f01602080910402602001604051908101604052809291908181526020018280546112499061395b565b80156112965780601f1061126b57610100808354040283529160200191611296565b820191906000526020600020905b81548152906001019060200180831161127957829003601f168201915b5050505050815250508152602001906001019061112d565b600f60205260009081526040902080548190610d6e9061395b565b6000818152600260205260408120546001600160a01b0316806106815760405162461bcd60e51b815260206004820152601860248201527f4552433732313a20696e76616c696420746f6b656e204944000000000000000060448201526064016107d1565b60006001600160a01b0382166113ac5760405162461bcd60e51b815260206004820152602960248201527f4552433732313a2061646472657373207a65726f206973206e6f74206120766160448201527f6c6964206f776e6572000000000000000000000000000000000000000000000060648201526084016107d1565b506001600160a01b031660009081526003602052604090205490565b6060600180546106969061395b565b60006040518060a001604052808381526020016113f13390565b6001600160a01b031681526000602080830182905260408084018390528051808201909152600781527f70656e64696e67000000000000000000000000000000000000000000000000008183015260609093019290925260128054600181018255915282518051939450849360059092027fbb8a6a4669ba250d26cd7a459eca9d215f8307e33aebe50379bc5a3617ec3444019261149492849290910190612f78565b506020828101516001830180546001600160a01b0319166001600160a01b039092169190911790556040830151600283015560608301516003830155608083015180516114e79260048501920190612f78565b50505080601060006114f63390565b6001600160a01b0316815260208082019290925260400160002082518051919261152592849290910190612f78565b506020828101516001830180546001600160a01b0319166001600160a01b039092169190911790556040830151600283015560608301516003830155608083015180516115789260048501920190612f78565b505060405161158991508290613677565b604051908190038120907f23766829f2007bb634d622ce5a4bd72e6672b9079c3ecf18a9d1c800fe3d6c0790600090a25050565b6115c83383836129a0565b5050565b6115d4612944565b6000601283815481106115e9576115e9613a07565b90600052602060002090600502016040518060a00160405290816000820180546116129061395b565b80601f016020809104026020016040519081016040528092919081815260200182805461163e9061395b565b801561168b5780601f106116605761010080835404028352916020019161168b565b820191906000526020600020905b81548152906001019060200180831161166e57829003601f168201915b505050918352505060018201546001600160a01b0316602082015260028201546040820152600382015460608201526004820180546080909201916116cf9061395b565b80601f01602080910402602001604051908101604052809291908181526020018280546116fb9061395b565b80156117485780601f1061171d57610100808354040283529160200191611748565b820191906000526020600020905b81548152906001019060200180831161172b57829003601f168201915b5050505050815250509050811561182b57604080518082019091526008815267185c1c1c9bdd995960c21b60208083019190915260808301919091526013805460018101825560009190915282518051849360059093027f66de8ffda797e3de9c05e8fc57b3bf0ec28a930d40b0d285d93c06501cf6a09001926117d0928492910190612f78565b506020828101516001830180546001600160a01b0319166001600160a01b039092169190911790556040830151600283015560608301516003830155608083015180516118239260048501920190612f78565b505050611865565b60408051808201909152600681527f64656e6965640000000000000000000000000000000000000000000000000000602082015260808201525b6020808201516001600160a01b03166000908152600f825260409020825180518493611895928492910190612f78565b506020828101516001830180546001600160a01b0319166001600160a01b039092169190911790556040830151600283015560608301516003830155608083015180516118e89260048501920190612f78565b50905050811515816040516118fd9190613677565b604051908190038120907fff4df63477e7402dd0019181d8664c383223e7e2fb7d78eb4457e70615f656f390600090a36012805461193d90600190613918565b8154811061194d5761194d613a07565b90600052602060002090600502016012848154811061196e5761196e613a07565b906000526020600020906005020160008201816000019080546119909061395b565b61199b929190612ffc565b5060018281015490820180546001600160a01b0319166001600160a01b03909216919091179055600280830154908201556003808301549082015560048083018054918301916119ea9061395b565b6119f5929190612ffc565b509050506012805480611a0a57611a0a6139f1565b60008281526020812060001990920191600583020190611a2a8282613077565b6001820180546001600160a01b031916905560006002830181905560038301819055611a5a906004840190613077565b50509055505050565b611aac6040518060e001604052806000815260200160006001600160a01b0316815260200160608152602001606081526020016000815260200160608152602001606081525090565b6040518060e001604052806008548152602001611ad16007546001600160a01b031690565b6001600160a01b03168152602001600c8054611aec9061395b565b80601f0160208091040260200160405190810160405280929190818152602001828054611b189061395b565b8015611b655780601f10611b3a57610100808354040283529160200191611b65565b820191906000526020600020905b815481529060010190602001808311611b4857829003601f168201915b50505050508152602001611b796000611f3e565b815260135460208083019190915260148054604080518285028101850182528281529401939260009084015b82821015611cfb5783829060005260206000209060020201604051806040016040529081600082018054611bd89061395b565b80601f0160208091040260200160405190810160405280929190818152602001828054611c049061395b565b8015611c515780601f10611c2657610100808354040283529160200191611c51565b820191906000526020600020905b815481529060010190602001808311611c3457829003601f168201915b50505050508152602001600182018054611c6a9061395b565b80601f0160208091040260200160405190810160405280929190818152602001828054611c969061395b565b8015611ce35780601f10611cb857610100808354040283529160200191611ce3565b820191906000526020600020905b815481529060010190602001808311611cc657829003601f168201915b50505050508152505081526020019060010190611ba5565b50505050815260200160116000611d0f3390565b6001600160a01b03166001600160a01b03168152602001908152602001600020805480602002602001604051908101604052809291908181526020016000905b82821015611ea55783829060005260206000209060020201604051806040016040529081600082018054611d829061395b565b80601f0160208091040260200160405190810160405280929190818152602001828054611dae9061395b565b8015611dfb5780601f10611dd057610100808354040283529160200191611dfb565b820191906000526020600020905b815481529060010190602001808311611dde57829003601f168201915b50505050508152602001600182018054611e149061395b565b80601f0160208091040260200160405190810160405280929190818152602001828054611e409061395b565b8015611e8d5780601f10611e6257610100808354040283529160200191611e8d565b820191906000526020600020905b815481529060010190602001808311611e7057829003601f168201915b50505050508152505081526020019060010190611d4f565b505050915250919050565b611eba33836126f8565b611f2c5760405162461bcd60e51b815260206004820152602e60248201527f4552433732313a2063616c6c6572206973206e6f7420746f6b656e206f776e6560448201527f72206e6f7220617070726f76656400000000000000000000000000000000000060648201526084016107d1565b611f3884848484612a6f565b50505050565b6000818152600260205260409020546060906001600160a01b0316611fcb5760405162461bcd60e51b815260206004820152602f60248201527f4552433732314d657461646174613a2055524920717565727920666f72206e6f60448201527f6e6578697374656e7420746f6b656e000000000000000000000000000000000060648201526084016107d1565b6000828152600d602052604081208054611fe49061395b565b80601f01602080910402602001604051908101604052809291908181526020018280546120109061395b565b801561205d5780601f106120325761010080835404028352916020019161205d565b820191906000526020600020905b81548152906001019060200180831161204057829003601f168201915b50505050509050600061207b60408051602081019091526000815290565b905080516000141561208e575092915050565b8151156120c05780826040516020016120a8929190613648565b60405160208183030381529060405292505050919050565b806120ca85612af8565b6040516020016120a8929190613648565b600c80546120e89061395b565b80601f01602080910402602001604051908101604052809291908181526020018280546121149061395b565b80156121615780601f1061213657610100808354040283529160200191612161565b820191906000526020600020905b81548152906001019060200180831161214457829003601f168201915b505050505081565b6064600854106121e15760405162461bcd60e51b815260206004820152602160248201527f4d696e74206661696c65643a20546f6b656e732061726520736f6c64206f757460448201527f2e0000000000000000000000000000000000000000000000000000000000000060648201526084016107d1565b6001600160a01b0382166000908152600f602052604090206003810154600290910154106122515760405162461bcd60e51b815260206004820152601860248201527f4d696e7420616c6c6f77616e63652065786365656465642e000000000000000060448201526064016107d1565b61225d82600854612c2a565b61226960085482612d6c565b6001600160a01b0382166000908152600e602090815260408220600880548254600181018455928552928420909101919091558054916122a883613996565b90915550506007546001600160a01b03166108fc346040518115909202916000818181858888f193505050501580156122e5573d6000803e3d6000fd5b50336000908152600f602052604081206002018054600192906123099084906138ec565b90915550505050565b6001600160a01b0381166000908152600e602090815260409182902080548351818402810184019094528084526060939283018282801561237257602002820191906000526020600020905b81548152602001906001019080831161235e575b50505050509050919050565b6040805180820182526008815267185c1c1c9bdd995960c21b602091820152336000908152600f90915281902090517f2b29265fc125740ae6bbc5035ae7af720b6932f4a3e44ba5ac02955c21ca9a05916123de916004909101906135ac565b6040518091039020146123f057600080fd5b336000818152600f6020526040902060056003909101556124119082612169565b60408051808201825260068152653437b63232b960d11b6020808301918252336000908152600f9091529290922090516124519260049092019190612f78565b506007546001600160a01b03166108fc346040518115909202916000818181858888f1935050505015801561248a573d6000803e3d6000fd5b506005600b600082825461249e91906138ec565b909155505050565b60006124b0612944565b600a54600b54106125295760405162461bcd60e51b815260206004820152602e60248201527f5468697320636f6e74726163742068617320726561636865642069742773206d60448201527f696e7420616c6c6f77616e63652e00000000000000000000000000000000000060648201526084016107d1565b60095434101561257b5760405162461bcd60e51b815260206004820152601660248201527f4e6f7420656e6f7567682065746865722073656e742e0000000000000000000060448201526064016107d1565b6001600160a01b0382166000908152600f602052604081206003018054600592906125a79084906138ec565b925050819055506005600b60008282546125c191906138ec565b90915550506007546040516001600160a01b03909116903480156108fc02916000818181858888f193505050501580156125ff573d6000803e3d6000fd5b50506001600160a01b0381166000908152600f60205260409020600301545b919050565b6000818152600260205260409020546001600160a01b03166126875760405162461bcd60e51b815260206004820152601860248201527f4552433732313a20696e76616c696420746f6b656e204944000000000000000060448201526064016107d1565b50565b600081815260046020526040902080546001600160a01b0319166001600160a01b03841690811790915581906126bf826112c9565b6001600160a01b03167f8c5be1e5ebec7d5bd14f71427d1e84f3dd0314c0f7b2291e5b200ac8c7c3b92560405160405180910390a45050565b600080612704836112c9565b9050806001600160a01b0316846001600160a01b0316148061274b57506001600160a01b0380821660009081526005602090815260408083209388168352929052205460ff165b8061276f5750836001600160a01b031661276484610719565b6001600160a01b0316145b949350505050565b826001600160a01b031661278a826112c9565b6001600160a01b0316146128065760405162461bcd60e51b815260206004820152602560248201527f4552433732313a207472616e736665722066726f6d20696e636f72726563742060448201527f6f776e657200000000000000000000000000000000000000000000000000000060648201526084016107d1565b6001600160a01b0382166128815760405162461bcd60e51b8152602060048201526024808201527f4552433732313a207472616e7366657220746f20746865207a65726f2061646460448201527f726573730000000000000000000000000000000000000000000000000000000060648201526084016107d1565b61288c60008261268a565b6001600160a01b03831660009081526003602052604081208054600192906128b5908490613918565b90915550506001600160a01b03821660009081526003602052604081208054600192906128e39084906138ec565b909155505060008181526002602052604080822080546001600160a01b0319166001600160a01b0386811691821790925591518493918716917fddf252ad1be2c89b69c2b068fc378daa952ba7f163c4a11628f55a4df523b3ef91a4505050565b6007546001600160a01b0316331461299e5760405162461bcd60e51b815260206004820181905260248201527f4f776e61626c653a2063616c6c6572206973206e6f7420746865206f776e657260448201526064016107d1565b565b816001600160a01b0316836001600160a01b03161415612a025760405162461bcd60e51b815260206004820152601960248201527f4552433732313a20617070726f766520746f2063616c6c65720000000000000060448201526064016107d1565b6001600160a01b03838116600081815260056020908152604080832094871680845294825291829020805460ff191686151590811790915591519182527f17307eab39ab6107e8899845ad3d59bd9653f200f220920489ca2b5937696c31910160405180910390a3505050565b612a7a848484612777565b612a8684848484612e15565b611f385760405162461bcd60e51b815260206004820152603260248201527f4552433732313a207472616e7366657220746f206e6f6e20455243373231526560448201527f63656976657220696d706c656d656e746572000000000000000000000000000060648201526084016107d1565b606081612b3857505060408051808201909152600181527f3000000000000000000000000000000000000000000000000000000000000000602082015290565b8160005b8115612b625780612b4c81613996565b9150612b5b9050600a83613904565b9150612b3c565b60008167ffffffffffffffff811115612b7d57612b7d613a1d565b6040519080825280601f01601f191660200182016040528015612ba7576020820181803683370190505b5090505b841561276f57612bbc600183613918565b9150612bc9600a866139b1565b612bd49060306138ec565b60f81b818381518110612be957612be9613a07565b60200101907effffffffffffffffffffffffffffffffffffffffffffffffffffffffffffff1916908160001a905350612c23600a86613904565b9450612bab565b6001600160a01b038216612c805760405162461bcd60e51b815260206004820181905260248201527f4552433732313a206d696e7420746f20746865207a65726f206164647265737360448201526064016107d1565b6000818152600260205260409020546001600160a01b031615612ce55760405162461bcd60e51b815260206004820152601c60248201527f4552433732313a20746f6b656e20616c7265616479206d696e7465640000000060448201526064016107d1565b6001600160a01b0382166000908152600360205260408120805460019290612d0e9084906138ec565b909155505060008181526002602052604080822080546001600160a01b0319166001600160a01b03861690811790915590518392907fddf252ad1be2c89b69c2b068fc378daa952ba7f163c4a11628f55a4df523b3ef908290a45050565b6000828152600260205260409020546001600160a01b0316612df65760405162461bcd60e51b815260206004820152602c60248201527f4552433732314d657461646174613a2055524920736574206f66206e6f6e657860448201527f697374656e7420746f6b656e000000000000000000000000000000000000000060648201526084016107d1565b6000828152600d60209081526040909120825161087292840190612f78565b60006001600160a01b0384163b15612f6d57604051630a85bd0160e11b81526001600160a01b0385169063150b7a0290612e599033908990889088906004016136e8565b602060405180830381600087803b158015612e7357600080fd5b505af1925050508015612ea3575060408051601f3d908101601f19168201909252612ea0918101906133bf565b60015b612f53573d808015612ed1576040519150601f19603f3d011682016040523d82523d6000602084013e612ed6565b606091505b508051612f4b5760405162461bcd60e51b815260206004820152603260248201527f4552433732313a207472616e7366657220746f206e6f6e20455243373231526560448201527f63656976657220696d706c656d656e746572000000000000000000000000000060648201526084016107d1565b805181602001fd5b6001600160e01b031916630a85bd0160e11b14905061276f565b506001949350505050565b828054612f849061395b565b90600052602060002090601f016020900481019282612fa65760008555612fec565b82601f10612fbf57805160ff1916838001178555612fec565b82800160010185558215612fec579182015b82811115612fec578251825591602001919060010190612fd1565b50612ff89291506130ad565b5090565b8280546130089061395b565b90600052602060002090601f01602090048101928261302a5760008555612fec565b82601f1061303b5780548555612fec565b82800160010185558215612fec57600052602060002091601f016020900482015b82811115612fec57825482559160010191906001019061305c565b5080546130839061395b565b6000825580601f10613093575050565b601f01602090049060005260206000209081019061268791905b5b80821115612ff857600081556001016130ae565b600067ffffffffffffffff808411156130dd576130dd613a1d565b604051601f8501601f19908116603f0116810190828211818310171561310557613105613a1d565b8160405280935085815286868601111561311e57600080fd5b858560208301376000602087830101525050509392505050565b80356001600160a01b038116811461261e57600080fd5b8035801515811461261e57600080fd5b600082601f83011261317057600080fd5b61317f838335602085016130c2565b9392505050565b60006020828403121561319857600080fd5b61317f82613138565b600080604083850312156131b457600080fd5b6131bd83613138565b91506131cb60208401613138565b90509250929050565b6000806000606084860312156131e957600080fd5b6131f284613138565b925061320060208501613138565b9150604084013590509250925092565b6000806000806080858703121561322657600080fd5b61322f85613138565b935061323d60208601613138565b925060408501359150606085013567ffffffffffffffff81111561326057600080fd5b8501601f8101871361327157600080fd5b613280878235602084016130c2565b91505092959194509250565b6000806040838503121561329f57600080fd5b6132a883613138565b91506131cb6020840161314f565b600080604083850312156132c957600080fd5b6132d283613138565b9150602083013567ffffffffffffffff8111156132ee57600080fd5b6132fa8582860161315f565b9150509250929050565b60008060006060848603121561331957600080fd5b61332284613138565b9250602084013567ffffffffffffffff8082111561333f57600080fd5b61334b8783880161315f565b9350604086013591508082111561336157600080fd5b5061336e8682870161315f565b9150509250925092565b6000806040838503121561338b57600080fd5b61339483613138565b946020939093013593505050565b6000602082840312156133b457600080fd5b813561317f81613a33565b6000602082840312156133d157600080fd5b815161317f81613a33565b6000602082840312156133ee57600080fd5b813567ffffffffffffffff81111561340557600080fd5b61276f8482850161315f565b6000806040838503121561342457600080fd5b823567ffffffffffffffff8082111561343c57600080fd5b6134488683870161315f565b9350602085013591508082111561345e57600080fd5b506132fa8582860161315f565b60006020828403121561347d57600080fd5b5035919050565b6000806040838503121561349757600080fd5b823591506131cb6020840161314f565b600081518084526020808501808196508360051b8101915082860160005b858110156135155782840389528151604081518187526134e782880182613522565b915050868201519150858103878701526135018183613522565b9a87019a95505050908401906001016134c5565b5091979650505050505050565b6000815180845261353a81602086016020860161392f565b601f01601f19169290920160200192915050565b6000815160a0845261356360a0850182613522565b90506001600160a01b0360208401511660208501526040830151604085015260608301516060850152608083015184820360808601526135a38282613522565b95945050505050565b600080835481600182811c9150808316806135c857607f831692505b60208084108214156135e857634e487b7160e01b86526022600452602486fd5b8180156135fc576001811461360d5761363a565b60ff1986168952848901965061363a565b60008a81526020902060005b868110156136325781548b820152908501908301613619565b505084890196505b509498975050505050505050565b6000835161365a81846020880161392f565b83519083019061366e81836020880161392f565b01949350505050565b60008251805161368b81856020850161392f565b601f19915081601f820116840190506001600160a01b0360208601511681526040850151602082015260608501516040820152608085015180516136d681606085016020850161392f565b601f0190921601606001949350505050565b60006001600160a01b0380871683528086166020840152508360408301526080606083015261371a6080830184613522565b9695505050505050565b6000602080830181845280855180835260408601915060408160051b870101925083870160005b8281101561377957603f1988860301845261376785835161354e565b9450928501929085019060010161374b565b5092979650505050505050565b60208152600061317f60208301846134a7565b6020808252825182820181905260009190848201906040850190845b818110156137d1578351835292840192918401916001016137b5565b50909695505050505050565b60208152600061317f6020830184613522565b60a08152600061380360a0830188613522565b6001600160a01b038716602084015285604084015284606084015282810360808401526138308185613522565b98975050505050505050565b60208152600061317f602083018461354e565b60208152815160208201526001600160a01b0360208301511660408201526000604083015160e06060840152613889610100840182613522565b90506060840151601f19808584030160808601526138a78383613522565b9250608086015160a086015260a08601519150808584030160c08601526138ce83836134a7565b925060c08601519150808584030160e0860152506135a382826134a7565b600082198211156138ff576138ff6139c5565b500190565b600082613913576139136139db565b500490565b60008282101561392a5761392a6139c5565b500390565b60005b8381101561394a578181015183820152602001613932565b83811115611f385750506000910152565b600181811c9082168061396f57607f821691505b6020821081141561399057634e487b7160e01b600052602260045260246000fd5b50919050565b60006000198214156139aa576139aa6139c5565b5060010190565b6000826139c0576139c06139db565b500690565b634e487b7160e01b600052601160045260246000fd5b634e487b7160e01b600052601260045260246000fd5b634e487b7160e01b600052603160045260246000fd5b634e487b7160e01b600052603260045260246000fd5b634e487b7160e01b600052604160045260246000fd5b6001600160e01b03198116811461268757600080fdfea2646970667358221220c32f5cd0752b0431ffe10cd873c5efe637fa7238ff3830f1bb59211b8320df0364736f6c63430008070033a26469706673582212200e2da6cb4da90bded06c7fc18693857ddecf653598c590445a7fc1345a2c430764736f6c63430008070033","opcodes":"PUSH1 0x80 PUSH1 0x40 MSTORE CALLVALUE DUP1 ISZERO PUSH2 0x10 JUMPI PUSH1 0x0 DUP1 REVERT JUMPDEST POP PUSH1 0x0 DUP1 SLOAD PUSH1 0x1 PUSH1 0x1 PUSH1 0xA0 SHL SUB NOT AND CALLER OR DUP2 SSTORE PUSH2 0x4EB5 SWAP1 DUP2 SWAP1 PUSH2 0x33 SWAP1 CODECOPY PUSH1 0x0 RETURN INVALID PUSH1 0x80 PUSH1 0x40 MSTORE PUSH1 0x4 CALLDATASIZE LT PUSH3 0x6D JUMPI PUSH1 0x0 CALLDATALOAD PUSH1 0xE0 SHR DUP1 PUSH4 0xAA9A068F GT PUSH3 0x48 JUMPI DUP1 PUSH4 0xAA9A068F EQ PUSH3 0x101 JUMPI DUP1 PUSH4 0xCD838F0F EQ PUSH3 0x128 JUMPI DUP1 PUSH4 0xE5D2F8E3 EQ PUSH3 0x14F JUMPI PUSH1 0x0 DUP1 REVERT JUMPDEST DUP1 PUSH4 0x4433BBC EQ PUSH3 0x72 JUMPI DUP1 PUSH4 0x4622AB03 EQ PUSH3 0xB4 JUMPI DUP1 PUSH4 0x4F8BD198 EQ PUSH3 0xE8 JUMPI JUMPDEST PUSH1 0x0 DUP1 REVERT JUMPDEST CALLVALUE DUP1 ISZERO PUSH3 0x7F JUMPI PUSH1 0x0 DUP1 REVERT JUMPDEST POP PUSH3 0x97 PUSH3 0x91 CALLDATASIZE PUSH1 0x4 PUSH3 0x81A JUMP JUMPDEST PUSH3 0x174 JUMP JUMPDEST PUSH1 0x40 MLOAD PUSH1 0x1 PUSH1 0x1 PUSH1 0xA0 SHL SUB SWAP1 SWAP2 AND DUP2 MSTORE PUSH1 0x20 ADD JUMPDEST PUSH1 0x40 MLOAD DUP1 SWAP2 SUB SWAP1 RETURN JUMPDEST CALLVALUE DUP1 ISZERO PUSH3 0xC1 JUMPI PUSH1 0x0 DUP1 REVERT JUMPDEST POP PUSH3 0xD9 PUSH3 0xD3 CALLDATASIZE PUSH1 0x4 PUSH3 0x930 JUMP JUMPDEST PUSH3 0x1A7 JUMP JUMPDEST PUSH1 0x40 MLOAD PUSH3 0xAB SWAP2 SWAP1 PUSH3 0xADA JUMP JUMPDEST PUSH3 0xFF PUSH3 0xF9 CALLDATASIZE PUSH1 0x4 PUSH3 0x85B JUMP JUMPDEST PUSH3 0x25C JUMP JUMPDEST STOP JUMPDEST CALLVALUE DUP1 ISZERO PUSH3 0x10E JUMPI PUSH1 0x0 DUP1 REVERT JUMPDEST POP PUSH3 0x119 PUSH3 0x4D0 JUMP JUMPDEST PUSH1 0x40 MLOAD PUSH3 0xAB SWAP2 SWAP1 PUSH3 0xA25 JUMP JUMPDEST CALLVALUE DUP1 ISZERO PUSH3 0x135 JUMPI PUSH1 0x0 DUP1 REVERT JUMPDEST POP PUSH3 0x140 PUSH3 0x534 JUMP JUMPDEST PUSH1 0x40 MLOAD PUSH3 0xAB SWAP2 SWAP1 PUSH3 0xA74 JUMP JUMPDEST CALLVALUE DUP1 ISZERO PUSH3 0x15C JUMPI PUSH1 0x0 DUP1 REVERT JUMPDEST POP PUSH3 0x119 PUSH3 0x16E CALLDATASIZE PUSH1 0x4 PUSH3 0x7F5 JUMP JUMPDEST PUSH3 0x617 JUMP JUMPDEST PUSH1 0x0 PUSH1 0x4 DUP3 PUSH1 0x40 MLOAD PUSH3 0x188 SWAP2 SWAP1 PUSH3 0x978 JUMP JUMPDEST SWAP1 DUP2 MSTORE PUSH1 0x40 MLOAD SWAP1 DUP2 SWAP1 SUB PUSH1 0x20 ADD SWAP1 KECCAK256 SLOAD PUSH1 0x1 PUSH1 0x1 PUSH1 0xA0 SHL SUB AND SWAP3 SWAP2 POP POP JUMP JUMPDEST PUSH1 0x2 DUP2 DUP2 SLOAD DUP2 LT PUSH3 0x1B8 JUMPI PUSH1 0x0 DUP1 REVERT JUMPDEST SWAP1 PUSH1 0x0 MSTORE PUSH1 0x20 PUSH1 0x0 KECCAK256 ADD PUSH1 0x0 SWAP2 POP SWAP1 POP DUP1 SLOAD PUSH3 0x1D5 SWAP1 PUSH3 0xB22 JUMP JUMPDEST DUP1 PUSH1 0x1F ADD PUSH1 0x20 DUP1 SWAP2 DIV MUL PUSH1 0x20 ADD PUSH1 0x40 MLOAD SWAP1 DUP2 ADD PUSH1 0x40 MSTORE DUP1 SWAP3 SWAP2 SWAP1 DUP2 DUP2 MSTORE PUSH1 0x20 ADD DUP3 DUP1 SLOAD PUSH3 0x203 SWAP1 PUSH3 0xB22 JUMP JUMPDEST DUP1 ISZERO PUSH3 0x254 JUMPI DUP1 PUSH1 0x1F LT PUSH3 0x228 JUMPI PUSH2 0x100 DUP1 DUP4 SLOAD DIV MUL DUP4 MSTORE SWAP2 PUSH1 0x20 ADD SWAP2 PUSH3 0x254 JUMP JUMPDEST DUP3 ADD SWAP2 SWAP1 PUSH1 0x0 MSTORE PUSH1 0x20 PUSH1 0x0 KECCAK256 SWAP1 JUMPDEST DUP2 SLOAD DUP2 MSTORE SWAP1 PUSH1 0x1 ADD SWAP1 PUSH1 0x20 ADD DUP1 DUP4 GT PUSH3 0x236 JUMPI DUP3 SWAP1 SUB PUSH1 0x1F AND DUP3 ADD SWAP2 JUMPDEST POP POP POP POP POP DUP2 JUMP JUMPDEST PUSH1 0x0 PUSH3 0x269 DUP8 PUSH3 0x174 JUMP JUMPDEST PUSH1 0x1 PUSH1 0x1 PUSH1 0xA0 SHL SUB AND EQ PUSH3 0x2DE JUMPI PUSH1 0x40 MLOAD PUSH32 0x8C379A000000000000000000000000000000000000000000000000000000000 DUP2 MSTORE PUSH1 0x20 PUSH1 0x4 DUP3 ADD MSTORE PUSH1 0x13 PUSH1 0x24 DUP3 ADD MSTORE PUSH32 0x4E616D6520616C72656164792065786973747300000000000000000000000000 PUSH1 0x44 DUP3 ADD MSTORE PUSH1 0x64 ADD PUSH1 0x40 MLOAD DUP1 SWAP2 SUB SWAP1 REVERT JUMPDEST PUSH1 0x0 CALLER DUP8 DUP8 DUP8 DUP8 DUP8 DUP8 PUSH1 0x0 DUP1 SLOAD SWAP1 PUSH2 0x100 EXP SWAP1 DIV PUSH1 0x1 PUSH1 0x1 PUSH1 0xA0 SHL SUB AND PUSH1 0x40 MLOAD PUSH3 0x309 SWAP1 PUSH3 0x68F JUMP JUMPDEST PUSH3 0x31C SWAP9 SWAP8 SWAP7 SWAP6 SWAP5 SWAP4 SWAP3 SWAP2 SWAP1 PUSH3 0x996 JUMP JUMPDEST PUSH1 0x40 MLOAD DUP1 SWAP2 SUB SWAP1 PUSH1 0x0 CREATE DUP1 ISZERO DUP1 ISZERO PUSH3 0x339 JUMPI RETURNDATASIZE PUSH1 0x0 DUP1 RETURNDATACOPY RETURNDATASIZE PUSH1 0x0 REVERT JUMPDEST POP PUSH1 0x1 DUP1 SLOAD DUP1 DUP3 ADD DUP3 SSTORE PUSH32 0xB10E2D527612073B26EECDFD717E6A320CF44B4AFAC2B0732D9FCBE2B7FA0CF6 ADD DUP1 SLOAD PUSH20 0xFFFFFFFFFFFFFFFFFFFFFFFFFFFFFFFFFFFFFFFF NOT AND PUSH1 0x1 PUSH1 0x1 PUSH1 0xA0 SHL SUB DUP5 AND OR SWAP1 SSTORE PUSH1 0x2 DUP1 SLOAD SWAP2 DUP3 ADD DUP2 SSTORE PUSH1 0x0 MSTORE DUP9 MLOAD SWAP2 SWAP3 POP PUSH3 0x3D1 SWAP2 PUSH32 0x405787FA12A823E0F2B7631CC41B3BA8828B3321CA811111FA75CD3AA3BB5ACE SWAP1 SWAP2 ADD SWAP1 PUSH1 0x20 DUP11 ADD SWAP1 PUSH3 0x69D JUMP JUMPDEST POP DUP1 PUSH1 0x4 DUP9 PUSH1 0x40 MLOAD PUSH3 0x3E5 SWAP2 SWAP1 PUSH3 0x978 JUMP JUMPDEST SWAP1 DUP2 MSTORE PUSH1 0x40 MLOAD SWAP1 DUP2 SWAP1 SUB PUSH1 0x20 ADD DUP2 KECCAK256 DUP1 SLOAD PUSH1 0x1 PUSH1 0x1 PUSH1 0xA0 SHL SUB SWAP4 DUP5 AND PUSH20 0xFFFFFFFFFFFFFFFFFFFFFFFFFFFFFFFFFFFFFFFF NOT SWAP1 SWAP2 AND OR SWAP1 SSTORE SWAP1 DUP3 AND SWAP1 PUSH32 0xF40FCEC21964FFB566044D083B4073F29F7F7929110EA19E1B3EBE375D89055E SWAP1 PUSH1 0x0 SWAP1 LOG2 CALLER PUSH1 0x0 SWAP1 DUP2 MSTORE PUSH1 0x3 PUSH1 0x20 SWAP1 DUP2 MSTORE PUSH1 0x40 DUP1 DUP4 KECCAK256 DUP1 SLOAD PUSH1 0x1 DUP2 ADD DUP3 SSTORE SWAP1 DUP5 MSTORE SWAP2 DUP4 KECCAK256 SWAP1 SWAP2 ADD DUP1 SLOAD PUSH1 0x1 PUSH1 0x1 PUSH1 0xA0 SHL SUB DUP6 DUP2 AND PUSH20 0xFFFFFFFFFFFFFFFFFFFFFFFFFFFFFFFFFFFFFFFF NOT SWAP1 SWAP3 AND SWAP2 SWAP1 SWAP2 OR SWAP1 SWAP2 SSTORE DUP3 SLOAD SWAP2 MLOAD SWAP2 AND SWAP2 CALLVALUE DUP1 ISZERO PUSH2 0x8FC MUL SWAP3 SWAP1 SWAP2 DUP2 DUP2 DUP2 DUP6 DUP9 DUP9 CALL SWAP4 POP POP POP POP ISZERO DUP1 ISZERO PUSH3 0x4C6 JUMPI RETURNDATASIZE PUSH1 0x0 DUP1 RETURNDATACOPY RETURNDATASIZE PUSH1 0x0 REVERT JUMPDEST POP POP POP POP POP POP POP POP JUMP JUMPDEST PUSH1 0x60 PUSH1 0x1 DUP1 SLOAD DUP1 PUSH1 0x20 MUL PUSH1 0x20 ADD PUSH1 0x40 MLOAD SWAP1 DUP2 ADD PUSH1 0x40 MSTORE DUP1 SWAP3 SWAP2 SWAP1 DUP2 DUP2 MSTORE PUSH1 0x20 ADD DUP3 DUP1 SLOAD DUP1 ISZERO PUSH3 0x52A JUMPI PUSH1 0x20 MUL DUP3 ADD SWAP2 SWAP1 PUSH1 0x0 MSTORE PUSH1 0x20 PUSH1 0x0 KECCAK256 SWAP1 JUMPDEST DUP2 SLOAD PUSH1 0x1 PUSH1 0x1 PUSH1 0xA0 SHL SUB AND DUP2 MSTORE PUSH1 0x1 SWAP1 SWAP2 ADD SWAP1 PUSH1 0x20 ADD DUP1 DUP4 GT PUSH3 0x50B JUMPI JUMPDEST POP POP POP POP POP SWAP1 POP SWAP1 JUMP JUMPDEST PUSH1 0x60 PUSH1 0x2 DUP1 SLOAD DUP1 PUSH1 0x20 MUL PUSH1 0x20 ADD PUSH1 0x40 MLOAD SWAP1 DUP2 ADD PUSH1 0x40 MSTORE DUP1 SWAP3 SWAP2 SWAP1 DUP2 DUP2 MSTORE PUSH1 0x20 ADD PUSH1 0x0 SWAP1 JUMPDEST DUP3 DUP3 LT ISZERO PUSH3 0x60E JUMPI DUP4 DUP3 SWAP1 PUSH1 0x0 MSTORE PUSH1 0x20 PUSH1 0x0 KECCAK256 ADD DUP1 SLOAD PUSH3 0x57A SWAP1 PUSH3 0xB22 JUMP JUMPDEST DUP1 PUSH1 0x1F ADD PUSH1 0x20 DUP1 SWAP2 DIV MUL PUSH1 0x20 ADD PUSH1 0x40 MLOAD SWAP1 DUP2 ADD PUSH1 0x40 MSTORE DUP1 SWAP3 SWAP2 SWAP1 DUP2 DUP2 MSTORE PUSH1 0x20 ADD DUP3 DUP1 SLOAD PUSH3 0x5A8 SWAP1 PUSH3 0xB22 JUMP JUMPDEST DUP1 ISZERO PUSH3 0x5F9 JUMPI DUP1 PUSH1 0x1F LT PUSH3 0x5CD JUMPI PUSH2 0x100 DUP1 DUP4 SLOAD DIV MUL DUP4 MSTORE SWAP2 PUSH1 0x20 ADD SWAP2 PUSH3 0x5F9 JUMP JUMPDEST DUP3 ADD SWAP2 SWAP1 PUSH1 0x0 MSTORE PUSH1 0x20 PUSH1 0x0 KECCAK256 SWAP1 JUMPDEST DUP2 SLOAD DUP2 MSTORE SWAP1 PUSH1 0x1 ADD SWAP1 PUSH1 0x20 ADD DUP1 DUP4 GT PUSH3 0x5DB JUMPI DUP3 SWAP1 SUB PUSH1 0x1F AND DUP3 ADD SWAP2 JUMPDEST POP POP POP POP POP DUP2 MSTORE PUSH1 0x20 ADD SWAP1 PUSH1 0x1 ADD SWAP1 PUSH3 0x558 JUMP JUMPDEST POP POP POP POP SWAP1 POP SWAP1 JUMP JUMPDEST PUSH1 0x1 PUSH1 0x1 PUSH1 0xA0 SHL SUB DUP2 AND PUSH1 0x0 SWAP1 DUP2 MSTORE PUSH1 0x3 PUSH1 0x20 SWAP1 DUP2 MSTORE PUSH1 0x40 SWAP2 DUP3 SWAP1 KECCAK256 DUP1 SLOAD DUP4 MLOAD DUP2 DUP5 MUL DUP2 ADD DUP5 ADD SWAP1 SWAP5 MSTORE DUP1 DUP5 MSTORE PUSH1 0x60 SWAP4 SWAP3 DUP4 ADD DUP3 DUP3 DUP1 ISZERO PUSH3 0x683 JUMPI PUSH1 0x20 MUL DUP3 ADD SWAP2 SWAP1 PUSH1 0x0 MSTORE PUSH1 0x20 PUSH1 0x0 KECCAK256 SWAP1 JUMPDEST DUP2 SLOAD PUSH1 0x1 PUSH1 0x1 PUSH1 0xA0 SHL SUB AND DUP2 MSTORE PUSH1 0x1 SWAP1 SWAP2 ADD SWAP1 PUSH1 0x20 ADD DUP1 DUP4 GT PUSH3 0x664 JUMPI JUMPDEST POP POP POP POP POP SWAP1 POP SWAP2 SWAP1 POP JUMP JUMPDEST PUSH2 0x430A DUP1 PUSH3 0xB76 DUP4 CODECOPY ADD SWAP1 JUMP JUMPDEST DUP3 DUP1 SLOAD PUSH3 0x6AB SWAP1 PUSH3 0xB22 JUMP JUMPDEST SWAP1 PUSH1 0x0 MSTORE PUSH1 0x20 PUSH1 0x0 KECCAK256 SWAP1 PUSH1 0x1F ADD PUSH1 0x20 SWAP1 DIV DUP2 ADD SWAP3 DUP3 PUSH3 0x6CF JUMPI PUSH1 0x0 DUP6 SSTORE PUSH3 0x71A JUMP JUMPDEST DUP3 PUSH1 0x1F LT PUSH3 0x6EA JUMPI DUP1 MLOAD PUSH1 0xFF NOT AND DUP4 DUP1 ADD OR DUP6 SSTORE PUSH3 0x71A JUMP JUMPDEST DUP3 DUP1 ADD PUSH1 0x1 ADD DUP6 SSTORE DUP3 ISZERO PUSH3 0x71A JUMPI SWAP2 DUP3 ADD JUMPDEST DUP3 DUP2 GT ISZERO PUSH3 0x71A JUMPI DUP3 MLOAD DUP3 SSTORE SWAP2 PUSH1 0x20 ADD SWAP2 SWAP1 PUSH1 0x1 ADD SWAP1 PUSH3 0x6FD JUMP JUMPDEST POP PUSH3 0x728 SWAP3 SWAP2 POP PUSH3 0x72C JUMP JUMPDEST POP SWAP1 JUMP JUMPDEST JUMPDEST DUP1 DUP3 GT ISZERO PUSH3 0x728 JUMPI PUSH1 0x0 DUP2 SSTORE PUSH1 0x1 ADD PUSH3 0x72D JUMP JUMPDEST DUP1 CALLDATALOAD PUSH1 0x1 PUSH1 0x1 PUSH1 0xA0 SHL SUB DUP2 AND DUP2 EQ PUSH3 0x75B JUMPI PUSH1 0x0 DUP1 REVERT JUMPDEST SWAP2 SWAP1 POP JUMP JUMPDEST PUSH1 0x0 DUP3 PUSH1 0x1F DUP4 ADD SLT PUSH3 0x772 JUMPI PUSH1 0x0 DUP1 REVERT JUMPDEST DUP2 CALLDATALOAD PUSH8 0xFFFFFFFFFFFFFFFF DUP1 DUP3 GT ISZERO PUSH3 0x790 JUMPI PUSH3 0x790 PUSH3 0xB5F JUMP JUMPDEST PUSH1 0x40 MLOAD PUSH1 0x1F DUP4 ADD PUSH1 0x1F NOT SWAP1 DUP2 AND PUSH1 0x3F ADD AND DUP2 ADD SWAP1 DUP3 DUP3 GT DUP2 DUP4 LT OR ISZERO PUSH3 0x7BB JUMPI PUSH3 0x7BB PUSH3 0xB5F JUMP JUMPDEST DUP2 PUSH1 0x40 MSTORE DUP4 DUP2 MSTORE DUP7 PUSH1 0x20 DUP6 DUP9 ADD ADD GT ISZERO PUSH3 0x7D5 JUMPI PUSH1 0x0 DUP1 REVERT JUMPDEST DUP4 PUSH1 0x20 DUP8 ADD PUSH1 0x20 DUP4 ADD CALLDATACOPY PUSH1 0x0 PUSH1 0x20 DUP6 DUP4 ADD ADD MSTORE DUP1 SWAP5 POP POP POP POP POP SWAP3 SWAP2 POP POP JUMP JUMPDEST PUSH1 0x0 PUSH1 0x20 DUP3 DUP5 SUB SLT ISZERO PUSH3 0x808 JUMPI PUSH1 0x0 DUP1 REVERT JUMPDEST PUSH3 0x813 DUP3 PUSH3 0x743 JUMP JUMPDEST SWAP4 SWAP3 POP POP POP JUMP JUMPDEST PUSH1 0x0 PUSH1 0x20 DUP3 DUP5 SUB SLT ISZERO PUSH3 0x82D JUMPI PUSH1 0x0 DUP1 REVERT JUMPDEST DUP2 CALLDATALOAD PUSH8 0xFFFFFFFFFFFFFFFF DUP2 GT ISZERO PUSH3 0x845 JUMPI PUSH1 0x0 DUP1 REVERT JUMPDEST PUSH3 0x853 DUP5 DUP3 DUP6 ADD PUSH3 0x760 JUMP JUMPDEST SWAP5 SWAP4 POP POP POP POP JUMP JUMPDEST PUSH1 0x0 DUP1 PUSH1 0x0 DUP1 PUSH1 0x0 DUP1 PUSH1 0xC0 DUP8 DUP10 SUB SLT ISZERO PUSH3 0x875 JUMPI PUSH1 0x0 DUP1 REVERT JUMPDEST DUP7 CALLDATALOAD PUSH8 0xFFFFFFFFFFFFFFFF DUP1 DUP3 GT ISZERO PUSH3 0x88E JUMPI PUSH1 0x0 DUP1 REVERT JUMPDEST PUSH3 0x89C DUP11 DUP4 DUP12 ADD PUSH3 0x760 JUMP JUMPDEST SWAP8 POP PUSH1 0x20 DUP10 ADD CALLDATALOAD SWAP2 POP DUP1 DUP3 GT ISZERO PUSH3 0x8B3 JUMPI PUSH1 0x0 DUP1 REVERT JUMPDEST PUSH3 0x8C1 DUP11 DUP4 DUP12 ADD PUSH3 0x760 JUMP JUMPDEST SWAP7 POP PUSH1 0x40 DUP10 ADD CALLDATALOAD SWAP6 POP PUSH1 0x60 DUP10 ADD CALLDATALOAD SWAP2 POP DUP1 DUP3 GT ISZERO PUSH3 0x8DF JUMPI PUSH1 0x0 DUP1 REVERT JUMPDEST PUSH3 0x8ED DUP11 DUP4 DUP12 ADD PUSH3 0x760 JUMP JUMPDEST SWAP5 POP PUSH3 0x8FD PUSH1 0x80 DUP11 ADD PUSH3 0x743 JUMP JUMPDEST SWAP4 POP PUSH1 0xA0 DUP10 ADD CALLDATALOAD SWAP2 POP DUP1 DUP3 GT ISZERO PUSH3 0x914 JUMPI PUSH1 0x0 DUP1 REVERT JUMPDEST POP PUSH3 0x923 DUP10 DUP3 DUP11 ADD PUSH3 0x760 JUMP JUMPDEST SWAP2 POP POP SWAP3 SWAP6 POP SWAP3 SWAP6 POP SWAP3 SWAP6 JUMP JUMPDEST PUSH1 0x0 PUSH1 0x20 DUP3 DUP5 SUB SLT ISZERO PUSH3 0x943 JUMPI PUSH1 0x0 DUP1 REVERT JUMPDEST POP CALLDATALOAD SWAP2 SWAP1 POP JUMP JUMPDEST PUSH1 0x0 DUP2 MLOAD DUP1 DUP5 MSTORE PUSH3 0x964 DUP2 PUSH1 0x20 DUP7 ADD PUSH1 0x20 DUP7 ADD PUSH3 0xAEF JUMP JUMPDEST PUSH1 0x1F ADD PUSH1 0x1F NOT AND SWAP3 SWAP1 SWAP3 ADD PUSH1 0x20 ADD SWAP3 SWAP2 POP POP JUMP JUMPDEST PUSH1 0x0 DUP3 MLOAD PUSH3 0x98C DUP2 DUP5 PUSH1 0x20 DUP8 ADD PUSH3 0xAEF JUMP JUMPDEST SWAP2 SWAP1 SWAP2 ADD SWAP3 SWAP2 POP POP JUMP JUMPDEST PUSH1 0x0 PUSH2 0x100 PUSH1 0x1 PUSH1 0x1 PUSH1 0xA0 SHL SUB DUP1 DUP13 AND DUP5 MSTORE DUP2 PUSH1 0x20 DUP6 ADD MSTORE PUSH3 0x9BC DUP3 DUP6 ADD DUP13 PUSH3 0x94A JUMP JUMPDEST SWAP2 POP DUP4 DUP3 SUB PUSH1 0x40 DUP6 ADD MSTORE PUSH3 0x9D2 DUP3 DUP12 PUSH3 0x94A JUMP JUMPDEST SWAP2 POP DUP9 PUSH1 0x60 DUP6 ADD MSTORE DUP4 DUP3 SUB PUSH1 0x80 DUP6 ADD MSTORE PUSH3 0x9EE DUP3 DUP10 PUSH3 0x94A JUMP JUMPDEST SWAP2 POP DUP1 DUP8 AND PUSH1 0xA0 DUP6 ADD MSTORE DUP4 DUP3 SUB PUSH1 0xC0 DUP6 ADD MSTORE PUSH3 0xA0C DUP3 DUP8 PUSH3 0x94A JUMP JUMPDEST SWAP3 POP DUP1 DUP6 AND PUSH1 0xE0 DUP6 ADD MSTORE POP POP SWAP10 SWAP9 POP POP POP POP POP POP POP POP POP JUMP JUMPDEST PUSH1 0x20 DUP1 DUP3 MSTORE DUP3 MLOAD DUP3 DUP3 ADD DUP2 SWAP1 MSTORE PUSH1 0x0 SWAP2 SWAP1 DUP5 DUP3 ADD SWAP1 PUSH1 0x40 DUP6 ADD SWAP1 DUP5 JUMPDEST DUP2 DUP2 LT ISZERO PUSH3 0xA68 JUMPI DUP4 MLOAD PUSH1 0x1 PUSH1 0x1 PUSH1 0xA0 SHL SUB AND DUP4 MSTORE SWAP3 DUP5 ADD SWAP3 SWAP2 DUP5 ADD SWAP2 PUSH1 0x1 ADD PUSH3 0xA41 JUMP JUMPDEST POP SWAP1 SWAP7 SWAP6 POP POP POP POP POP POP JUMP JUMPDEST PUSH1 0x0 PUSH1 0x20 DUP1 DUP4 ADD DUP2 DUP5 MSTORE DUP1 DUP6 MLOAD DUP1 DUP4 MSTORE PUSH1 0x40 DUP7 ADD SWAP2 POP PUSH1 0x40 DUP2 PUSH1 0x5 SHL DUP8 ADD ADD SWAP3 POP DUP4 DUP8 ADD PUSH1 0x0 JUMPDEST DUP3 DUP2 LT ISZERO PUSH3 0xACD JUMPI PUSH1 0x3F NOT DUP9 DUP7 SUB ADD DUP5 MSTORE PUSH3 0xABA DUP6 DUP4 MLOAD PUSH3 0x94A JUMP JUMPDEST SWAP5 POP SWAP3 DUP6 ADD SWAP3 SWAP1 DUP6 ADD SWAP1 PUSH1 0x1 ADD PUSH3 0xA9B JUMP JUMPDEST POP SWAP3 SWAP8 SWAP7 POP POP POP POP POP POP POP JUMP JUMPDEST PUSH1 0x20 DUP2 MSTORE PUSH1 0x0 PUSH3 0x813 PUSH1 0x20 DUP4 ADD DUP5 PUSH3 0x94A JUMP JUMPDEST PUSH1 0x0 JUMPDEST DUP4 DUP2 LT ISZERO PUSH3 0xB0C JUMPI DUP2 DUP2 ADD MLOAD DUP4 DUP3 ADD MSTORE PUSH1 0x20 ADD PUSH3 0xAF2 JUMP JUMPDEST DUP4 DUP2 GT ISZERO PUSH3 0xB1C JUMPI PUSH1 0x0 DUP5 DUP5 ADD MSTORE JUMPDEST POP POP POP POP JUMP JUMPDEST PUSH1 0x1 DUP2 DUP2 SHR SWAP1 DUP3 AND DUP1 PUSH3 0xB37 JUMPI PUSH1 0x7F DUP3 AND SWAP2 POP JUMPDEST PUSH1 0x20 DUP3 LT DUP2 EQ ISZERO PUSH3 0xB59 JUMPI PUSH4 0x4E487B71 PUSH1 0xE0 SHL PUSH1 0x0 MSTORE PUSH1 0x22 PUSH1 0x4 MSTORE PUSH1 0x24 PUSH1 0x0 REVERT JUMPDEST POP SWAP2 SWAP1 POP JUMP JUMPDEST PUSH4 0x4E487B71 PUSH1 0xE0 SHL PUSH1 0x0 MSTORE PUSH1 0x41 PUSH1 0x4 MSTORE PUSH1 0x24 PUSH1 0x0 REVERT INVALID PUSH1 0x80 PUSH1 0x40 MSTORE CALLVALUE DUP1 ISZERO PUSH3 0x11 JUMPI PUSH1 0x0 DUP1 REVERT JUMPDEST POP PUSH1 0x40 MLOAD PUSH3 0x430A CODESIZE SUB DUP1 PUSH3 0x430A DUP4 CODECOPY DUP2 ADD PUSH1 0x40 DUP2 SWAP1 MSTORE PUSH3 0x34 SWAP2 PUSH3 0x6DD JUMP JUMPDEST DUP7 MLOAD DUP8 SWAP1 DUP8 SWAP1 PUSH3 0x4D SWAP1 PUSH1 0x0 SWAP1 PUSH1 0x20 DUP6 ADD SWAP1 PUSH3 0x563 JUMP JUMPDEST POP DUP1 MLOAD PUSH3 0x63 SWAP1 PUSH1 0x1 SWAP1 PUSH1 0x20 DUP5 ADD SWAP1 PUSH3 0x563 JUMP JUMPDEST POP POP PUSH1 0x0 PUSH1 0x8 SSTORE POP PUSH1 0x7 DUP1 SLOAD PUSH1 0x1 PUSH1 0x1 PUSH1 0xA0 SHL SUB DUP1 DUP12 AND PUSH1 0x1 PUSH1 0x1 PUSH1 0xA0 SHL SUB NOT SWAP3 DUP4 AND OR SWAP1 SWAP3 SSTORE PUSH1 0x6 DUP1 SLOAD SWAP3 DUP5 AND SWAP3 SWAP1 SWAP2 AND SWAP2 SWAP1 SWAP2 OR SWAP1 SSTORE PUSH1 0x9 DUP6 SWAP1 SSTORE DUP4 MLOAD PUSH3 0xB5 SWAP1 PUSH1 0xC SWAP1 PUSH1 0x20 DUP8 ADD SWAP1 PUSH3 0x563 JUMP JUMPDEST POP PUSH1 0x5 PUSH1 0xB DUP2 SWAP1 SSTORE POP PUSH1 0x40 MLOAD DUP1 PUSH1 0xA0 ADD PUSH1 0x40 MSTORE DUP1 DUP9 DUP2 MSTORE PUSH1 0x20 ADD DUP10 PUSH1 0x1 PUSH1 0x1 PUSH1 0xA0 SHL SUB AND DUP2 MSTORE PUSH1 0x20 ADD PUSH1 0x1 DUP2 MSTORE PUSH1 0x20 ADD PUSH1 0x5 DUP2 MSTORE PUSH1 0x20 ADD PUSH1 0x40 MLOAD DUP1 PUSH1 0x40 ADD PUSH1 0x40 MSTORE DUP1 PUSH1 0x5 DUP2 MSTORE PUSH1 0x20 ADD PUSH5 0x37BBB732B9 PUSH1 0xD9 SHL DUP2 MSTORE POP DUP2 MSTORE POP PUSH1 0xF PUSH1 0x0 PUSH3 0x121 PUSH3 0x1C6 PUSH1 0x20 SHL PUSH1 0x20 SHR JUMP JUMPDEST PUSH1 0x1 PUSH1 0x1 PUSH1 0xA0 SHL SUB AND DUP2 MSTORE PUSH1 0x20 DUP1 DUP3 ADD SWAP3 SWAP1 SWAP3 MSTORE PUSH1 0x40 ADD PUSH1 0x0 KECCAK256 DUP3 MLOAD DUP1 MLOAD SWAP2 SWAP3 PUSH3 0x152 SWAP3 DUP5 SWAP3 SWAP1 SWAP2 ADD SWAP1 PUSH3 0x563 JUMP JUMPDEST POP PUSH1 0x20 DUP3 DUP2 ADD MLOAD PUSH1 0x1 DUP4 ADD DUP1 SLOAD PUSH1 0x1 PUSH1 0x1 PUSH1 0xA0 SHL SUB NOT AND PUSH1 0x1 PUSH1 0x1 PUSH1 0xA0 SHL SUB SWAP1 SWAP3 AND SWAP2 SWAP1 SWAP2 OR SWAP1 SSTORE PUSH1 0x40 DUP4 ADD MLOAD PUSH1 0x2 DUP4 ADD SSTORE PUSH1 0x60 DUP4 ADD MLOAD PUSH1 0x3 DUP4 ADD SSTORE PUSH1 0x80 DUP4 ADD MLOAD DUP1 MLOAD PUSH3 0x1A7 SWAP3 PUSH1 0x4 DUP6 ADD SWAP3 ADD SWAP1 PUSH3 0x563 JUMP JUMPDEST POP PUSH3 0x1B8 SWAP2 POP DUP5 SWAP1 POP DUP4 PUSH3 0x1D5 JUMP JUMPDEST POP POP POP POP POP POP POP POP PUSH3 0x87B JUMP JUMPDEST PUSH1 0x7 SLOAD PUSH1 0x1 PUSH1 0x1 PUSH1 0xA0 SHL SUB AND SWAP1 JUMP JUMPDEST PUSH1 0x64 PUSH1 0x8 SLOAD LT PUSH3 0x237 JUMPI PUSH1 0x40 MLOAD PUSH3 0x461BCD PUSH1 0xE5 SHL DUP2 MSTORE PUSH1 0x20 PUSH1 0x4 DUP3 ADD MSTORE PUSH1 0x21 PUSH1 0x24 DUP3 ADD MSTORE PUSH32 0x4D696E74206661696C65643A20546F6B656E732061726520736F6C64206F7574 PUSH1 0x44 DUP3 ADD MSTORE PUSH1 0x17 PUSH1 0xF9 SHL PUSH1 0x64 DUP3 ADD MSTORE PUSH1 0x84 ADD JUMPDEST PUSH1 0x40 MLOAD DUP1 SWAP2 SUB SWAP1 REVERT JUMPDEST PUSH1 0x1 PUSH1 0x1 PUSH1 0xA0 SHL SUB DUP3 AND PUSH1 0x0 SWAP1 DUP2 MSTORE PUSH1 0xF PUSH1 0x20 MSTORE PUSH1 0x40 SWAP1 KECCAK256 PUSH1 0x3 DUP2 ADD SLOAD PUSH1 0x2 SWAP1 SWAP2 ADD SLOAD LT PUSH3 0x2A9 JUMPI PUSH1 0x40 MLOAD PUSH3 0x461BCD PUSH1 0xE5 SHL DUP2 MSTORE PUSH1 0x20 PUSH1 0x4 DUP3 ADD MSTORE PUSH1 0x18 PUSH1 0x24 DUP3 ADD MSTORE PUSH32 0x4D696E7420616C6C6F77616E63652065786365656465642E0000000000000000 PUSH1 0x44 DUP3 ADD MSTORE PUSH1 0x64 ADD PUSH3 0x22E JUMP JUMPDEST PUSH3 0x2BD DUP3 PUSH1 0x8 SLOAD PUSH3 0x37A PUSH1 0x20 SHL PUSH1 0x20 SHR JUMP JUMPDEST PUSH1 0x8 SLOAD PUSH3 0x2CC SWAP1 DUP3 PUSH3 0x4C2 JUMP JUMPDEST PUSH1 0x1 PUSH1 0x1 PUSH1 0xA0 SHL SUB DUP3 AND PUSH1 0x0 SWAP1 DUP2 MSTORE PUSH1 0xE PUSH1 0x20 SWAP1 DUP2 MSTORE PUSH1 0x40 DUP3 KECCAK256 PUSH1 0x8 DUP1 SLOAD DUP3 SLOAD PUSH1 0x1 DUP2 ADD DUP5 SSTORE SWAP3 DUP6 MSTORE SWAP3 DUP5 KECCAK256 SWAP1 SWAP2 ADD SWAP2 SWAP1 SWAP2 SSTORE DUP1 SLOAD SWAP2 PUSH3 0x30D DUP4 PUSH3 0x831 JUMP JUMPDEST SWAP1 SWAP2 SSTORE POP POP PUSH1 0x7 SLOAD PUSH1 0x1 PUSH1 0x1 PUSH1 0xA0 SHL SUB AND PUSH2 0x8FC CALLVALUE PUSH1 0x40 MLOAD DUP2 ISZERO SWAP1 SWAP3 MUL SWAP2 PUSH1 0x0 DUP2 DUP2 DUP2 DUP6 DUP9 DUP9 CALL SWAP4 POP POP POP POP ISZERO DUP1 ISZERO PUSH3 0x34B JUMPI RETURNDATASIZE PUSH1 0x0 DUP1 RETURNDATACOPY RETURNDATASIZE PUSH1 0x0 REVERT JUMPDEST POP CALLER PUSH1 0x0 SWAP1 DUP2 MSTORE PUSH1 0xF PUSH1 0x20 MSTORE PUSH1 0x40 DUP2 KECCAK256 PUSH1 0x2 ADD DUP1 SLOAD PUSH1 0x1 SWAP3 SWAP1 PUSH3 0x371 SWAP1 DUP5 SWAP1 PUSH3 0x7D9 JUMP JUMPDEST SWAP1 SWAP2 SSTORE POP POP POP POP JUMP JUMPDEST PUSH1 0x1 PUSH1 0x1 PUSH1 0xA0 SHL SUB DUP3 AND PUSH3 0x3D2 JUMPI PUSH1 0x40 MLOAD PUSH3 0x461BCD PUSH1 0xE5 SHL DUP2 MSTORE PUSH1 0x20 PUSH1 0x4 DUP3 ADD DUP2 SWAP1 MSTORE PUSH1 0x24 DUP3 ADD MSTORE PUSH32 0x4552433732313A206D696E7420746F20746865207A65726F2061646472657373 PUSH1 0x44 DUP3 ADD MSTORE PUSH1 0x64 ADD PUSH3 0x22E JUMP JUMPDEST PUSH1 0x0 DUP2 DUP2 MSTORE PUSH1 0x2 PUSH1 0x20 MSTORE PUSH1 0x40 SWAP1 KECCAK256 SLOAD PUSH1 0x1 PUSH1 0x1 PUSH1 0xA0 SHL SUB AND ISZERO PUSH3 0x439 JUMPI PUSH1 0x40 MLOAD PUSH3 0x461BCD PUSH1 0xE5 SHL DUP2 MSTORE PUSH1 0x20 PUSH1 0x4 DUP3 ADD MSTORE PUSH1 0x1C PUSH1 0x24 DUP3 ADD MSTORE PUSH32 0x4552433732313A20746F6B656E20616C7265616479206D696E74656400000000 PUSH1 0x44 DUP3 ADD MSTORE PUSH1 0x64 ADD PUSH3 0x22E JUMP JUMPDEST PUSH1 0x1 PUSH1 0x1 PUSH1 0xA0 SHL SUB DUP3 AND PUSH1 0x0 SWAP1 DUP2 MSTORE PUSH1 0x3 PUSH1 0x20 MSTORE PUSH1 0x40 DUP2 KECCAK256 DUP1 SLOAD PUSH1 0x1 SWAP3 SWAP1 PUSH3 0x464 SWAP1 DUP5 SWAP1 PUSH3 0x7D9 JUMP JUMPDEST SWAP1 SWAP2 SSTORE POP POP PUSH1 0x0 DUP2 DUP2 MSTORE PUSH1 0x2 PUSH1 0x20 MSTORE PUSH1 0x40 DUP1 DUP3 KECCAK256 DUP1 SLOAD PUSH1 0x1 PUSH1 0x1 PUSH1 0xA0 SHL SUB NOT AND PUSH1 0x1 PUSH1 0x1 PUSH1 0xA0 SHL SUB DUP7 AND SWAP1 DUP2 OR SWAP1 SWAP2 SSTORE SWAP1 MLOAD DUP4 SWAP3 SWAP1 PUSH32 0xDDF252AD1BE2C89B69C2B068FC378DAA952BA7F163C4A11628F55A4DF523B3EF SWAP1 DUP3 SWAP1 LOG4 POP POP JUMP JUMPDEST PUSH1 0x0 DUP3 DUP2 MSTORE PUSH1 0x2 PUSH1 0x20 MSTORE PUSH1 0x40 SWAP1 KECCAK256 SLOAD PUSH1 0x1 PUSH1 0x1 PUSH1 0xA0 SHL SUB AND PUSH3 0x53D JUMPI PUSH1 0x40 MLOAD PUSH3 0x461BCD PUSH1 0xE5 SHL DUP2 MSTORE PUSH1 0x20 PUSH1 0x4 DUP3 ADD MSTORE PUSH1 0x2C PUSH1 0x24 DUP3 ADD MSTORE PUSH32 0x4552433732314D657461646174613A2055524920736574206F66206E6F6E6578 PUSH1 0x44 DUP3 ADD MSTORE PUSH12 0x34B9BA32B73A103A37B5B2B7 PUSH1 0xA1 SHL PUSH1 0x64 DUP3 ADD MSTORE PUSH1 0x84 ADD PUSH3 0x22E JUMP JUMPDEST PUSH1 0x0 DUP3 DUP2 MSTORE PUSH1 0xD PUSH1 0x20 SWAP1 DUP2 MSTORE PUSH1 0x40 SWAP1 SWAP2 KECCAK256 DUP3 MLOAD PUSH3 0x55E SWAP3 DUP5 ADD SWAP1 PUSH3 0x563 JUMP JUMPDEST POP POP POP JUMP JUMPDEST DUP3 DUP1 SLOAD PUSH3 0x571 SWAP1 PUSH3 0x7F4 JUMP JUMPDEST SWAP1 PUSH1 0x0 MSTORE PUSH1 0x20 PUSH1 0x0 KECCAK256 SWAP1 PUSH1 0x1F ADD PUSH1 0x20 SWAP1 DIV DUP2 ADD SWAP3 DUP3 PUSH3 0x595 JUMPI PUSH1 0x0 DUP6 SSTORE PUSH3 0x5E0 JUMP JUMPDEST DUP3 PUSH1 0x1F LT PUSH3 0x5B0 JUMPI DUP1 MLOAD PUSH1 0xFF NOT AND DUP4 DUP1 ADD OR DUP6 SSTORE PUSH3 0x5E0 JUMP JUMPDEST DUP3 DUP1 ADD PUSH1 0x1 ADD DUP6 SSTORE DUP3 ISZERO PUSH3 0x5E0 JUMPI SWAP2 DUP3 ADD JUMPDEST DUP3 DUP2 GT ISZERO PUSH3 0x5E0 JUMPI DUP3 MLOAD DUP3 SSTORE SWAP2 PUSH1 0x20 ADD SWAP2 SWAP1 PUSH1 0x1 ADD SWAP1 PUSH3 0x5C3 JUMP JUMPDEST POP PUSH3 0x5EE SWAP3 SWAP2 POP PUSH3 0x5F2 JUMP JUMPDEST POP SWAP1 JUMP JUMPDEST JUMPDEST DUP1 DUP3 GT ISZERO PUSH3 0x5EE JUMPI PUSH1 0x0 DUP2 SSTORE PUSH1 0x1 ADD PUSH3 0x5F3 JUMP JUMPDEST DUP1 MLOAD PUSH1 0x1 PUSH1 0x1 PUSH1 0xA0 SHL SUB DUP2 AND DUP2 EQ PUSH3 0x621 JUMPI PUSH1 0x0 DUP1 REVERT JUMPDEST SWAP2 SWAP1 POP JUMP JUMPDEST PUSH1 0x0 DUP3 PUSH1 0x1F DUP4 ADD SLT PUSH3 0x638 JUMPI PUSH1 0x0 DUP1 REVERT JUMPDEST DUP2 MLOAD PUSH1 0x1 PUSH1 0x1 PUSH1 0x40 SHL SUB DUP1 DUP3 GT ISZERO PUSH3 0x655 JUMPI PUSH3 0x655 PUSH3 0x865 JUMP JUMPDEST PUSH1 0x40 MLOAD PUSH1 0x1F DUP4 ADD PUSH1 0x1F NOT SWAP1 DUP2 AND PUSH1 0x3F ADD AND DUP2 ADD SWAP1 DUP3 DUP3 GT DUP2 DUP4 LT OR ISZERO PUSH3 0x680 JUMPI PUSH3 0x680 PUSH3 0x865 JUMP JUMPDEST DUP2 PUSH1 0x40 MSTORE DUP4 DUP2 MSTORE PUSH1 0x20 SWAP3 POP DUP7 DUP4 DUP6 DUP9 ADD ADD GT ISZERO PUSH3 0x69D JUMPI PUSH1 0x0 DUP1 REVERT JUMPDEST PUSH1 0x0 SWAP2 POP JUMPDEST DUP4 DUP3 LT ISZERO PUSH3 0x6C1 JUMPI DUP6 DUP3 ADD DUP4 ADD MLOAD DUP2 DUP4 ADD DUP5 ADD MSTORE SWAP1 DUP3 ADD SWAP1 PUSH3 0x6A2 JUMP JUMPDEST DUP4 DUP3 GT ISZERO PUSH3 0x6D3 JUMPI PUSH1 0x0 DUP4 DUP6 DUP4 ADD ADD MSTORE JUMPDEST SWAP7 SWAP6 POP POP POP POP POP POP JUMP JUMPDEST PUSH1 0x0 DUP1 PUSH1 0x0 DUP1 PUSH1 0x0 DUP1 PUSH1 0x0 DUP1 PUSH2 0x100 DUP10 DUP12 SUB SLT ISZERO PUSH3 0x6FB JUMPI PUSH1 0x0 DUP1 REVERT JUMPDEST PUSH3 0x706 DUP10 PUSH3 0x609 JUMP JUMPDEST PUSH1 0x20 DUP11 ADD MLOAD SWAP1 SWAP9 POP PUSH1 0x1 PUSH1 0x1 PUSH1 0x40 SHL SUB DUP1 DUP3 GT ISZERO PUSH3 0x724 JUMPI PUSH1 0x0 DUP1 REVERT JUMPDEST PUSH3 0x732 DUP13 DUP4 DUP14 ADD PUSH3 0x626 JUMP JUMPDEST SWAP9 POP PUSH1 0x40 DUP12 ADD MLOAD SWAP2 POP DUP1 DUP3 GT ISZERO PUSH3 0x749 JUMPI PUSH1 0x0 DUP1 REVERT JUMPDEST PUSH3 0x757 DUP13 DUP4 DUP14 ADD PUSH3 0x626 JUMP JUMPDEST SWAP8 POP PUSH1 0x60 DUP12 ADD MLOAD SWAP7 POP PUSH1 0x80 DUP12 ADD MLOAD SWAP2 POP DUP1 DUP3 GT ISZERO PUSH3 0x775 JUMPI PUSH1 0x0 DUP1 REVERT JUMPDEST PUSH3 0x783 DUP13 DUP4 DUP14 ADD PUSH3 0x626 JUMP JUMPDEST SWAP6 POP PUSH3 0x793 PUSH1 0xA0 DUP13 ADD PUSH3 0x609 JUMP JUMPDEST SWAP5 POP PUSH1 0xC0 DUP12 ADD MLOAD SWAP2 POP DUP1 DUP3 GT ISZERO PUSH3 0x7AA JUMPI PUSH1 0x0 DUP1 REVERT JUMPDEST POP PUSH3 0x7B9 DUP12 DUP3 DUP13 ADD PUSH3 0x626 JUMP JUMPDEST SWAP3 POP POP PUSH3 0x7CA PUSH1 0xE0 DUP11 ADD PUSH3 0x609 JUMP JUMPDEST SWAP1 POP SWAP3 SWAP6 SWAP9 POP SWAP3 SWAP6 SWAP9 SWAP1 SWAP4 SWAP7 POP JUMP JUMPDEST PUSH1 0x0 DUP3 NOT DUP3 GT ISZERO PUSH3 0x7EF JUMPI PUSH3 0x7EF PUSH3 0x84F JUMP JUMPDEST POP ADD SWAP1 JUMP JUMPDEST PUSH1 0x1 DUP2 DUP2 SHR SWAP1 DUP3 AND DUP1 PUSH3 0x809 JUMPI PUSH1 0x7F DUP3 AND SWAP2 POP JUMPDEST PUSH1 0x20 DUP3 LT DUP2 EQ ISZERO PUSH3 0x82B JUMPI PUSH4 0x4E487B71 PUSH1 0xE0 SHL PUSH1 0x0 MSTORE PUSH1 0x22 PUSH1 0x4 MSTORE PUSH1 0x24 PUSH1 0x0 REVERT JUMPDEST POP SWAP2 SWAP1 POP JUMP JUMPDEST PUSH1 0x0 PUSH1 0x0 NOT DUP3 EQ ISZERO PUSH3 0x848 JUMPI PUSH3 0x848 PUSH3 0x84F JUMP JUMPDEST POP PUSH1 0x1 ADD SWAP1 JUMP JUMPDEST PUSH4 0x4E487B71 PUSH1 0xE0 SHL PUSH1 0x0 MSTORE PUSH1 0x11 PUSH1 0x4 MSTORE PUSH1 0x24 PUSH1 0x0 REVERT JUMPDEST PUSH4 0x4E487B71 PUSH1 0xE0 SHL PUSH1 0x0 MSTORE PUSH1 0x41 PUSH1 0x4 MSTORE PUSH1 0x24 PUSH1 0x0 REVERT JUMPDEST PUSH2 0x3A7F DUP1 PUSH3 0x88B PUSH1 0x0 CODECOPY PUSH1 0x0 RETURN INVALID PUSH1 0x80 PUSH1 0x40 MSTORE PUSH1 0x4 CALLDATASIZE LT PUSH2 0x1D8 JUMPI PUSH1 0x0 CALLDATALOAD PUSH1 0xE0 SHR DUP1 PUSH4 0x6352211E GT PUSH2 0x102 JUMPI DUP1 PUSH4 0xB88D4FDE GT PUSH2 0x95 JUMPI DUP1 PUSH4 0xD9D61655 GT PUSH2 0x64 JUMPI DUP1 PUSH4 0xD9D61655 EQ PUSH2 0x54E JUMPI DUP1 PUSH4 0xE985E9C5 EQ PUSH2 0x57B JUMPI DUP1 PUSH4 0xF9DC375F EQ PUSH2 0x5C4 JUMPI DUP1 PUSH4 0xFD6E7579 EQ PUSH2 0x5D7 JUMPI PUSH1 0x0 DUP1 REVERT JUMPDEST DUP1 PUSH4 0xB88D4FDE EQ PUSH2 0x4E6 JUMPI DUP1 PUSH4 0xC87B56DD EQ PUSH2 0x506 JUMPI DUP1 PUSH4 0xCB2EF6F7 EQ PUSH2 0x526 JUMPI DUP1 PUSH4 0xD0DEF521 EQ PUSH2 0x53B JUMPI PUSH1 0x0 DUP1 REVERT JUMPDEST DUP1 PUSH4 0x96761595 GT PUSH2 0xD1 JUMPI DUP1 PUSH4 0x96761595 EQ PUSH2 0x464 JUMPI DUP1 PUSH4 0xA22CB465 EQ PUSH2 0x484 JUMPI DUP1 PUSH4 0xA28039CD EQ PUSH2 0x4A4 JUMPI DUP1 PUSH4 0xAF80A5BE EQ PUSH2 0x4C4 JUMPI PUSH1 0x0 DUP1 REVERT JUMPDEST DUP1 PUSH4 0x6352211E EQ PUSH2 0x3F1 JUMPI DUP1 PUSH4 0x70A08231 EQ PUSH2 0x411 JUMPI DUP1 PUSH4 0x8DA5CB5B EQ PUSH2 0x431 JUMPI DUP1 PUSH4 0x95D89B41 EQ PUSH2 0x44F JUMPI PUSH1 0x0 DUP1 REVERT JUMPDEST DUP1 PUSH4 0x19674F63 GT PUSH2 0x17A JUMPI DUP1 PUSH4 0x42842E0E GT PUSH2 0x149 JUMPI DUP1 PUSH4 0x42842E0E EQ PUSH2 0x387 JUMPI DUP1 PUSH4 0x5A9BE11B EQ PUSH2 0x3A7 JUMPI DUP1 PUSH4 0x5BF61CFE EQ PUSH2 0x3AF JUMPI DUP1 PUSH4 0x61EED2A9 EQ PUSH2 0x3D1 JUMPI PUSH1 0x0 DUP1 REVERT JUMPDEST DUP1 PUSH4 0x19674F63 EQ PUSH2 0x2F6 JUMPI DUP1 PUSH4 0x23B872DD EQ PUSH2 0x327 JUMPI DUP1 PUSH4 0x2D006538 EQ PUSH2 0x347 JUMPI DUP1 PUSH4 0x4261917A EQ PUSH2 0x367 JUMPI PUSH1 0x0 DUP1 REVERT JUMPDEST DUP1 PUSH4 0x95EA7B3 GT PUSH2 0x1B6 JUMPI DUP1 PUSH4 0x95EA7B3 EQ PUSH2 0x26C JUMPI DUP1 PUSH4 0xE37B4FD EQ PUSH2 0x28E JUMPI DUP1 PUSH4 0x17D70F7C EQ PUSH2 0x2B0 JUMPI DUP1 PUSH4 0x18F82330 EQ PUSH2 0x2D4 JUMPI PUSH1 0x0 DUP1 REVERT JUMPDEST DUP1 PUSH4 0x1FFC9A7 EQ PUSH2 0x1DD JUMPI DUP1 PUSH4 0x6FDDE03 EQ PUSH2 0x212 JUMPI DUP1 PUSH4 0x81812FC EQ PUSH2 0x234 JUMPI JUMPDEST PUSH1 0x0 DUP1 REVERT JUMPDEST CALLVALUE DUP1 ISZERO PUSH2 0x1E9 JUMPI PUSH1 0x0 DUP1 REVERT JUMPDEST POP PUSH2 0x1FD PUSH2 0x1F8 CALLDATASIZE PUSH1 0x4 PUSH2 0x33A2 JUMP JUMPDEST PUSH2 0x5EA JUMP JUMPDEST PUSH1 0x40 MLOAD SWAP1 ISZERO ISZERO DUP2 MSTORE PUSH1 0x20 ADD JUMPDEST PUSH1 0x40 MLOAD DUP1 SWAP2 SUB SWAP1 RETURN JUMPDEST CALLVALUE DUP1 ISZERO PUSH2 0x21E JUMPI PUSH1 0x0 DUP1 REVERT JUMPDEST POP PUSH2 0x227 PUSH2 0x687 JUMP JUMPDEST PUSH1 0x40 MLOAD PUSH2 0x209 SWAP2 SWAP1 PUSH2 0x37DD JUMP JUMPDEST CALLVALUE DUP1 ISZERO PUSH2 0x240 JUMPI PUSH1 0x0 DUP1 REVERT JUMPDEST POP PUSH2 0x254 PUSH2 0x24F CALLDATASIZE PUSH1 0x4 PUSH2 0x346B JUMP JUMPDEST PUSH2 0x719 JUMP JUMPDEST PUSH1 0x40 MLOAD PUSH1 0x1 PUSH1 0x1 PUSH1 0xA0 SHL SUB SWAP1 SWAP2 AND DUP2 MSTORE PUSH1 0x20 ADD PUSH2 0x209 JUMP JUMPDEST CALLVALUE DUP1 ISZERO PUSH2 0x278 JUMPI PUSH1 0x0 DUP1 REVERT JUMPDEST POP PUSH2 0x28C PUSH2 0x287 CALLDATASIZE PUSH1 0x4 PUSH2 0x3378 JUMP JUMPDEST PUSH2 0x740 JUMP JUMPDEST STOP JUMPDEST CALLVALUE DUP1 ISZERO PUSH2 0x29A JUMPI PUSH1 0x0 DUP1 REVERT JUMPDEST POP PUSH2 0x2A3 PUSH2 0x877 JUMP JUMPDEST PUSH1 0x40 MLOAD PUSH2 0x209 SWAP2 SWAP1 PUSH2 0x3786 JUMP JUMPDEST CALLVALUE DUP1 ISZERO PUSH2 0x2BC JUMPI PUSH1 0x0 DUP1 REVERT JUMPDEST POP PUSH2 0x2C6 PUSH1 0x8 SLOAD DUP2 JUMP JUMPDEST PUSH1 0x40 MLOAD SWAP1 DUP2 MSTORE PUSH1 0x20 ADD PUSH2 0x209 JUMP JUMPDEST CALLVALUE DUP1 ISZERO PUSH2 0x2E0 JUMPI PUSH1 0x0 DUP1 REVERT JUMPDEST POP PUSH2 0x2E9 PUSH2 0xAAC JUMP JUMPDEST PUSH1 0x40 MLOAD PUSH2 0x209 SWAP2 SWAP1 PUSH2 0x383C JUMP JUMPDEST CALLVALUE DUP1 ISZERO PUSH2 0x302 JUMPI PUSH1 0x0 DUP1 REVERT JUMPDEST POP PUSH2 0x316 PUSH2 0x311 CALLDATASIZE PUSH1 0x4 PUSH2 0x3186 JUMP JUMPDEST PUSH2 0xD53 JUMP JUMPDEST PUSH1 0x40 MLOAD PUSH2 0x209 SWAP6 SWAP5 SWAP4 SWAP3 SWAP2 SWAP1 PUSH2 0x37F0 JUMP JUMPDEST CALLVALUE DUP1 ISZERO PUSH2 0x333 JUMPI PUSH1 0x0 DUP1 REVERT JUMPDEST POP PUSH2 0x28C PUSH2 0x342 CALLDATASIZE PUSH1 0x4 PUSH2 0x31D4 JUMP JUMPDEST PUSH2 0xEA0 JUMP JUMPDEST CALLVALUE DUP1 ISZERO PUSH2 0x353 JUMPI PUSH1 0x0 DUP1 REVERT JUMPDEST POP PUSH2 0x28C PUSH2 0x362 CALLDATASIZE PUSH1 0x4 PUSH2 0x3304 JUMP JUMPDEST PUSH2 0xF27 JUMP JUMPDEST CALLVALUE DUP1 ISZERO PUSH2 0x373 JUMPI PUSH1 0x0 DUP1 REVERT JUMPDEST POP PUSH2 0x28C PUSH2 0x382 CALLDATASIZE PUSH1 0x4 PUSH2 0x3411 JUMP JUMPDEST PUSH2 0xFA7 JUMP JUMPDEST CALLVALUE DUP1 ISZERO PUSH2 0x393 JUMPI PUSH1 0x0 DUP1 REVERT JUMPDEST POP PUSH2 0x28C PUSH2 0x3A2 CALLDATASIZE PUSH1 0x4 PUSH2 0x31D4 JUMP JUMPDEST PUSH2 0x1010 JUMP JUMPDEST PUSH2 0x2C6 PUSH2 0x102B JUMP JUMPDEST CALLVALUE DUP1 ISZERO PUSH2 0x3BB JUMPI PUSH1 0x0 DUP1 REVERT JUMPDEST POP PUSH2 0x3C4 PUSH2 0x1109 JUMP JUMPDEST PUSH1 0x40 MLOAD PUSH2 0x209 SWAP2 SWAP1 PUSH2 0x3724 JUMP JUMPDEST CALLVALUE DUP1 ISZERO PUSH2 0x3DD JUMPI PUSH1 0x0 DUP1 REVERT JUMPDEST POP PUSH2 0x316 PUSH2 0x3EC CALLDATASIZE PUSH1 0x4 PUSH2 0x3186 JUMP JUMPDEST PUSH2 0x12AE JUMP JUMPDEST CALLVALUE DUP1 ISZERO PUSH2 0x3FD JUMPI PUSH1 0x0 DUP1 REVERT JUMPDEST POP PUSH2 0x254 PUSH2 0x40C CALLDATASIZE PUSH1 0x4 PUSH2 0x346B JUMP JUMPDEST PUSH2 0x12C9 JUMP JUMPDEST CALLVALUE DUP1 ISZERO PUSH2 0x41D JUMPI PUSH1 0x0 DUP1 REVERT JUMPDEST POP PUSH2 0x2C6 PUSH2 0x42C CALLDATASIZE PUSH1 0x4 PUSH2 0x3186 JUMP JUMPDEST PUSH2 0x132E JUMP JUMPDEST CALLVALUE DUP1 ISZERO PUSH2 0x43D JUMPI PUSH1 0x0 DUP1 REVERT JUMPDEST POP PUSH1 0x7 SLOAD PUSH1 0x1 PUSH1 0x1 PUSH1 0xA0 SHL SUB AND PUSH2 0x254 JUMP JUMPDEST CALLVALUE DUP1 ISZERO PUSH2 0x45B JUMPI PUSH1 0x0 DUP1 REVERT JUMPDEST POP PUSH2 0x227 PUSH2 0x13C8 JUMP JUMPDEST CALLVALUE DUP1 ISZERO PUSH2 0x470 JUMPI PUSH1 0x0 DUP1 REVERT JUMPDEST POP PUSH2 0x28C PUSH2 0x47F CALLDATASIZE PUSH1 0x4 PUSH2 0x33DC JUMP JUMPDEST PUSH2 0x13D7 JUMP JUMPDEST CALLVALUE DUP1 ISZERO PUSH2 0x490 JUMPI PUSH1 0x0 DUP1 REVERT JUMPDEST POP PUSH2 0x28C PUSH2 0x49F CALLDATASIZE PUSH1 0x4 PUSH2 0x328C JUMP JUMPDEST PUSH2 0x15BD JUMP JUMPDEST CALLVALUE DUP1 ISZERO PUSH2 0x4B0 JUMPI PUSH1 0x0 DUP1 REVERT JUMPDEST POP PUSH2 0x28C PUSH2 0x4BF CALLDATASIZE PUSH1 0x4 PUSH2 0x3484 JUMP JUMPDEST PUSH2 0x15CC JUMP JUMPDEST CALLVALUE DUP1 ISZERO PUSH2 0x4D0 JUMPI PUSH1 0x0 DUP1 REVERT JUMPDEST POP PUSH2 0x4D9 PUSH2 0x1A63 JUMP JUMPDEST PUSH1 0x40 MLOAD PUSH2 0x209 SWAP2 SWAP1 PUSH2 0x384F JUMP JUMPDEST CALLVALUE DUP1 ISZERO PUSH2 0x4F2 JUMPI PUSH1 0x0 DUP1 REVERT JUMPDEST POP PUSH2 0x28C PUSH2 0x501 CALLDATASIZE PUSH1 0x4 PUSH2 0x3210 JUMP JUMPDEST PUSH2 0x1EB0 JUMP JUMPDEST CALLVALUE DUP1 ISZERO PUSH2 0x512 JUMPI PUSH1 0x0 DUP1 REVERT JUMPDEST POP PUSH2 0x227 PUSH2 0x521 CALLDATASIZE PUSH1 0x4 PUSH2 0x346B JUMP JUMPDEST PUSH2 0x1F3E JUMP JUMPDEST CALLVALUE DUP1 ISZERO PUSH2 0x532 JUMPI PUSH1 0x0 DUP1 REVERT JUMPDEST POP PUSH2 0x227 PUSH2 0x20DB JUMP JUMPDEST PUSH2 0x28C PUSH2 0x549 CALLDATASIZE PUSH1 0x4 PUSH2 0x32B6 JUMP JUMPDEST PUSH2 0x2169 JUMP JUMPDEST CALLVALUE DUP1 ISZERO PUSH2 0x55A JUMPI PUSH1 0x0 DUP1 REVERT JUMPDEST POP PUSH2 0x56E PUSH2 0x569 CALLDATASIZE PUSH1 0x4 PUSH2 0x3186 JUMP JUMPDEST PUSH2 0x2312 JUMP JUMPDEST PUSH1 0x40 MLOAD PUSH2 0x209 SWAP2 SWAP1 PUSH2 0x3799 JUMP JUMPDEST CALLVALUE DUP1 ISZERO PUSH2 0x587 JUMPI PUSH1 0x0 DUP1 REVERT JUMPDEST POP PUSH2 0x1FD PUSH2 0x596 CALLDATASIZE PUSH1 0x4 PUSH2 0x31A1 JUMP JUMPDEST PUSH1 0x1 PUSH1 0x1 PUSH1 0xA0 SHL SUB SWAP2 DUP3 AND PUSH1 0x0 SWAP1 DUP2 MSTORE PUSH1 0x5 PUSH1 0x20 SWAP1 DUP2 MSTORE PUSH1 0x40 DUP1 DUP4 KECCAK256 SWAP4 SWAP1 SWAP5 AND DUP3 MSTORE SWAP2 SWAP1 SWAP2 MSTORE KECCAK256 SLOAD PUSH1 0xFF AND SWAP1 JUMP JUMPDEST PUSH2 0x28C PUSH2 0x5D2 CALLDATASIZE PUSH1 0x4 PUSH2 0x33DC JUMP JUMPDEST PUSH2 0x237E JUMP JUMPDEST PUSH2 0x2C6 PUSH2 0x5E5 CALLDATASIZE PUSH1 0x4 PUSH2 0x3186 JUMP JUMPDEST PUSH2 0x24A6 JUMP JUMPDEST PUSH1 0x0 PUSH1 0x1 PUSH1 0x1 PUSH1 0xE0 SHL SUB NOT DUP3 AND PUSH32 0x80AC58CD00000000000000000000000000000000000000000000000000000000 EQ DUP1 PUSH2 0x64D JUMPI POP PUSH1 0x1 PUSH1 0x1 PUSH1 0xE0 SHL SUB NOT DUP3 AND PUSH32 0x5B5E139F00000000000000000000000000000000000000000000000000000000 EQ JUMPDEST DUP1 PUSH2 0x681 JUMPI POP PUSH32 0x1FFC9A700000000000000000000000000000000000000000000000000000000 PUSH1 0x1 PUSH1 0x1 PUSH1 0xE0 SHL SUB NOT DUP4 AND EQ JUMPDEST SWAP3 SWAP2 POP POP JUMP JUMPDEST PUSH1 0x60 PUSH1 0x0 DUP1 SLOAD PUSH2 0x696 SWAP1 PUSH2 0x395B JUMP JUMPDEST DUP1 PUSH1 0x1F ADD PUSH1 0x20 DUP1 SWAP2 DIV MUL PUSH1 0x20 ADD PUSH1 0x40 MLOAD SWAP1 DUP2 ADD PUSH1 0x40 MSTORE DUP1 SWAP3 SWAP2 SWAP1 DUP2 DUP2 MSTORE PUSH1 0x20 ADD DUP3 DUP1 SLOAD PUSH2 0x6C2 SWAP1 PUSH2 0x395B JUMP JUMPDEST DUP1 ISZERO PUSH2 0x70F JUMPI DUP1 PUSH1 0x1F LT PUSH2 0x6E4 JUMPI PUSH2 0x100 DUP1 DUP4 SLOAD DIV MUL DUP4 MSTORE SWAP2 PUSH1 0x20 ADD SWAP2 PUSH2 0x70F JUMP JUMPDEST DUP3 ADD SWAP2 SWAP1 PUSH1 0x0 MSTORE PUSH1 0x20 PUSH1 0x0 KECCAK256 SWAP1 JUMPDEST DUP2 SLOAD DUP2 MSTORE SWAP1 PUSH1 0x1 ADD SWAP1 PUSH1 0x20 ADD DUP1 DUP4 GT PUSH2 0x6F2 JUMPI DUP3 SWAP1 SUB PUSH1 0x1F AND DUP3 ADD SWAP2 JUMPDEST POP POP POP POP POP SWAP1 POP SWAP1 JUMP JUMPDEST PUSH1 0x0 PUSH2 0x724 DUP3 PUSH2 0x2623 JUMP JUMPDEST POP PUSH1 0x0 SWAP1 DUP2 MSTORE PUSH1 0x4 PUSH1 0x20 MSTORE PUSH1 0x40 SWAP1 KECCAK256 SLOAD PUSH1 0x1 PUSH1 0x1 PUSH1 0xA0 SHL SUB AND SWAP1 JUMP JUMPDEST PUSH1 0x0 PUSH2 0x74B DUP3 PUSH2 0x12C9 JUMP JUMPDEST SWAP1 POP DUP1 PUSH1 0x1 PUSH1 0x1 PUSH1 0xA0 SHL SUB AND DUP4 PUSH1 0x1 PUSH1 0x1 PUSH1 0xA0 SHL SUB AND EQ ISZERO PUSH2 0x7DA JUMPI PUSH1 0x40 MLOAD PUSH3 0x461BCD PUSH1 0xE5 SHL DUP2 MSTORE PUSH1 0x20 PUSH1 0x4 DUP3 ADD MSTORE PUSH1 0x21 PUSH1 0x24 DUP3 ADD MSTORE PUSH32 0x4552433732313A20617070726F76616C20746F2063757272656E74206F776E65 PUSH1 0x44 DUP3 ADD MSTORE PUSH32 0x7200000000000000000000000000000000000000000000000000000000000000 PUSH1 0x64 DUP3 ADD MSTORE PUSH1 0x84 ADD JUMPDEST PUSH1 0x40 MLOAD DUP1 SWAP2 SUB SWAP1 REVERT JUMPDEST CALLER PUSH1 0x1 PUSH1 0x1 PUSH1 0xA0 SHL SUB DUP3 AND EQ DUP1 PUSH2 0x7F6 JUMPI POP PUSH2 0x7F6 DUP2 CALLER PUSH2 0x596 JUMP JUMPDEST PUSH2 0x868 JUMPI PUSH1 0x40 MLOAD PUSH3 0x461BCD PUSH1 0xE5 SHL DUP2 MSTORE PUSH1 0x20 PUSH1 0x4 DUP3 ADD MSTORE PUSH1 0x3E PUSH1 0x24 DUP3 ADD MSTORE PUSH32 0x4552433732313A20617070726F76652063616C6C6572206973206E6F7420746F PUSH1 0x44 DUP3 ADD MSTORE PUSH32 0x6B656E206F776E6572206E6F7220617070726F76656420666F7220616C6C0000 PUSH1 0x64 DUP3 ADD MSTORE PUSH1 0x84 ADD PUSH2 0x7D1 JUMP JUMPDEST PUSH2 0x872 DUP4 DUP4 PUSH2 0x268A JUMP JUMPDEST POP POP POP JUMP JUMPDEST PUSH1 0x40 DUP1 MLOAD DUP1 DUP3 ADD DUP3 MSTORE PUSH1 0x6 DUP2 MSTORE PUSH6 0x3437B63232B9 PUSH1 0xD1 SHL PUSH1 0x20 SWAP2 DUP3 ADD MSTORE CALLER PUSH1 0x0 SWAP1 DUP2 MSTORE PUSH1 0xF SWAP1 SWAP2 MSTORE DUP2 SWAP1 KECCAK256 SWAP1 MLOAD PUSH1 0x60 SWAP2 PUSH32 0xF24C48DFB555EE1F6FB0327ECC23CC06563C8943ED6777D6AF6BA16C01787778 SWAP2 PUSH2 0x8D6 SWAP2 PUSH1 0x4 ADD SWAP1 PUSH2 0x35AC JUMP JUMPDEST PUSH1 0x40 MLOAD DUP1 SWAP2 SUB SWAP1 KECCAK256 EQ PUSH2 0x92B JUMPI PUSH1 0x40 MLOAD PUSH3 0x461BCD PUSH1 0xE5 SHL DUP2 MSTORE PUSH1 0x20 PUSH1 0x4 DUP3 ADD MSTORE PUSH1 0x17 PUSH1 0x24 DUP3 ADD MSTORE PUSH32 0x436C69656E74206973206E6F74206120686F6C6465722E000000000000000000 PUSH1 0x44 DUP3 ADD MSTORE PUSH1 0x64 ADD PUSH2 0x7D1 JUMP JUMPDEST PUSH1 0x14 DUP1 SLOAD DUP1 PUSH1 0x20 MUL PUSH1 0x20 ADD PUSH1 0x40 MLOAD SWAP1 DUP2 ADD PUSH1 0x40 MSTORE DUP1 SWAP3 SWAP2 SWAP1 DUP2 DUP2 MSTORE PUSH1 0x20 ADD PUSH1 0x0 SWAP1 JUMPDEST DUP3 DUP3 LT ISZERO PUSH2 0xAA3 JUMPI DUP4 DUP3 SWAP1 PUSH1 0x0 MSTORE PUSH1 0x20 PUSH1 0x0 KECCAK256 SWAP1 PUSH1 0x2 MUL ADD PUSH1 0x40 MLOAD DUP1 PUSH1 0x40 ADD PUSH1 0x40 MSTORE SWAP1 DUP2 PUSH1 0x0 DUP3 ADD DUP1 SLOAD PUSH2 0x980 SWAP1 PUSH2 0x395B JUMP JUMPDEST DUP1 PUSH1 0x1F ADD PUSH1 0x20 DUP1 SWAP2 DIV MUL PUSH1 0x20 ADD PUSH1 0x40 MLOAD SWAP1 DUP2 ADD PUSH1 0x40 MSTORE DUP1 SWAP3 SWAP2 SWAP1 DUP2 DUP2 MSTORE PUSH1 0x20 ADD DUP3 DUP1 SLOAD PUSH2 0x9AC SWAP1 PUSH2 0x395B JUMP JUMPDEST DUP1 ISZERO PUSH2 0x9F9 JUMPI DUP1 PUSH1 0x1F LT PUSH2 0x9CE JUMPI PUSH2 0x100 DUP1 DUP4 SLOAD DIV MUL DUP4 MSTORE SWAP2 PUSH1 0x20 ADD SWAP2 PUSH2 0x9F9 JUMP JUMPDEST DUP3 ADD SWAP2 SWAP1 PUSH1 0x0 MSTORE PUSH1 0x20 PUSH1 0x0 KECCAK256 SWAP1 JUMPDEST DUP2 SLOAD DUP2 MSTORE SWAP1 PUSH1 0x1 ADD SWAP1 PUSH1 0x20 ADD DUP1 DUP4 GT PUSH2 0x9DC JUMPI DUP3 SWAP1 SUB PUSH1 0x1F AND DUP3 ADD SWAP2 JUMPDEST POP POP POP POP POP DUP2 MSTORE PUSH1 0x20 ADD PUSH1 0x1 DUP3 ADD DUP1 SLOAD PUSH2 0xA12 SWAP1 PUSH2 0x395B JUMP JUMPDEST DUP1 PUSH1 0x1F ADD PUSH1 0x20 DUP1 SWAP2 DIV MUL PUSH1 0x20 ADD PUSH1 0x40 MLOAD SWAP1 DUP2 ADD PUSH1 0x40 MSTORE DUP1 SWAP3 SWAP2 SWAP1 DUP2 DUP2 MSTORE PUSH1 0x20 ADD DUP3 DUP1 SLOAD PUSH2 0xA3E SWAP1 PUSH2 0x395B JUMP JUMPDEST DUP1 ISZERO PUSH2 0xA8B JUMPI DUP1 PUSH1 0x1F LT PUSH2 0xA60 JUMPI PUSH2 0x100 DUP1 DUP4 SLOAD DIV MUL DUP4 MSTORE SWAP2 PUSH1 0x20 ADD SWAP2 PUSH2 0xA8B JUMP JUMPDEST DUP3 ADD SWAP2 SWAP1 PUSH1 0x0 MSTORE PUSH1 0x20 PUSH1 0x0 KECCAK256 SWAP1 JUMPDEST DUP2 SLOAD DUP2 MSTORE SWAP1 PUSH1 0x1 ADD SWAP1 PUSH1 0x20 ADD DUP1 DUP4 GT PUSH2 0xA6E JUMPI DUP3 SWAP1 SUB PUSH1 0x1F AND DUP3 ADD SWAP2 JUMPDEST POP POP POP POP POP DUP2 MSTORE POP POP DUP2 MSTORE PUSH1 0x20 ADD SWAP1 PUSH1 0x1 ADD SWAP1 PUSH2 0x94D JUMP JUMPDEST POP POP POP POP SWAP1 POP SWAP1 JUMP JUMPDEST PUSH2 0xAE7 PUSH1 0x40 MLOAD DUP1 PUSH1 0xA0 ADD PUSH1 0x40 MSTORE DUP1 PUSH1 0x60 DUP2 MSTORE PUSH1 0x20 ADD PUSH1 0x0 PUSH1 0x1 PUSH1 0x1 PUSH1 0xA0 SHL SUB AND DUP2 MSTORE PUSH1 0x20 ADD PUSH1 0x0 DUP2 MSTORE PUSH1 0x20 ADD PUSH1 0x0 DUP2 MSTORE PUSH1 0x20 ADD PUSH1 0x60 DUP2 MSTORE POP SWAP1 JUMP JUMPDEST CALLER PUSH1 0x0 SWAP1 DUP2 MSTORE PUSH1 0xF PUSH1 0x20 MSTORE PUSH1 0x40 SWAP1 KECCAK256 PUSH1 0x1 ADD SLOAD PUSH1 0x1 PUSH1 0x1 PUSH1 0xA0 SHL SUB AND ISZERO PUSH2 0xC8D JUMPI PUSH1 0xF PUSH1 0x0 CALLER JUMPDEST PUSH1 0x1 PUSH1 0x1 PUSH1 0xA0 SHL SUB AND PUSH1 0x1 PUSH1 0x1 PUSH1 0xA0 SHL SUB AND DUP2 MSTORE PUSH1 0x20 ADD SWAP1 DUP2 MSTORE PUSH1 0x20 ADD PUSH1 0x0 KECCAK256 PUSH1 0x40 MLOAD DUP1 PUSH1 0xA0 ADD PUSH1 0x40 MSTORE SWAP1 DUP2 PUSH1 0x0 DUP3 ADD DUP1 SLOAD PUSH2 0xB49 SWAP1 PUSH2 0x395B JUMP JUMPDEST DUP1 PUSH1 0x1F ADD PUSH1 0x20 DUP1 SWAP2 DIV MUL PUSH1 0x20 ADD PUSH1 0x40 MLOAD SWAP1 DUP2 ADD PUSH1 0x40 MSTORE DUP1 SWAP3 SWAP2 SWAP1 DUP2 DUP2 MSTORE PUSH1 0x20 ADD DUP3 DUP1 SLOAD PUSH2 0xB75 SWAP1 PUSH2 0x395B JUMP JUMPDEST DUP1 ISZERO PUSH2 0xBC2 JUMPI DUP1 PUSH1 0x1F LT PUSH2 0xB97 JUMPI PUSH2 0x100 DUP1 DUP4 SLOAD DIV MUL DUP4 MSTORE SWAP2 PUSH1 0x20 ADD SWAP2 PUSH2 0xBC2 JUMP JUMPDEST DUP3 ADD SWAP2 SWAP1 PUSH1 0x0 MSTORE PUSH1 0x20 PUSH1 0x0 KECCAK256 SWAP1 JUMPDEST DUP2 SLOAD DUP2 MSTORE SWAP1 PUSH1 0x1 ADD SWAP1 PUSH1 0x20 ADD DUP1 DUP4 GT PUSH2 0xBA5 JUMPI DUP3 SWAP1 SUB PUSH1 0x1F AND DUP3 ADD SWAP2 JUMPDEST POP POP POP SWAP2 DUP4 MSTORE POP POP PUSH1 0x1 DUP3 ADD SLOAD PUSH1 0x1 PUSH1 0x1 PUSH1 0xA0 SHL SUB AND PUSH1 0x20 DUP3 ADD MSTORE PUSH1 0x2 DUP3 ADD SLOAD PUSH1 0x40 DUP3 ADD MSTORE PUSH1 0x3 DUP3 ADD SLOAD PUSH1 0x60 DUP3 ADD MSTORE PUSH1 0x4 DUP3 ADD DUP1 SLOAD PUSH1 0x80 SWAP1 SWAP3 ADD SWAP2 PUSH2 0xC06 SWAP1 PUSH2 0x395B JUMP JUMPDEST DUP1 PUSH1 0x1F ADD PUSH1 0x20 DUP1 SWAP2 DIV MUL PUSH1 0x20 ADD PUSH1 0x40 MLOAD SWAP1 DUP2 ADD PUSH1 0x40 MSTORE DUP1 SWAP3 SWAP2 SWAP1 DUP2 DUP2 MSTORE PUSH1 0x20 ADD DUP3 DUP1 SLOAD PUSH2 0xC32 SWAP1 PUSH2 0x395B JUMP JUMPDEST DUP1 ISZERO PUSH2 0xC7F JUMPI DUP1 PUSH1 0x1F LT PUSH2 0xC54 JUMPI PUSH2 0x100 DUP1 DUP4 SLOAD DIV MUL DUP4 MSTORE SWAP2 PUSH1 0x20 ADD SWAP2 PUSH2 0xC7F JUMP JUMPDEST DUP3 ADD SWAP2 SWAP1 PUSH1 0x0 MSTORE PUSH1 0x20 PUSH1 0x0 KECCAK256 SWAP1 JUMPDEST DUP2 SLOAD DUP2 MSTORE SWAP1 PUSH1 0x1 ADD SWAP1 PUSH1 0x20 ADD DUP1 DUP4 GT PUSH2 0xC62 JUMPI DUP3 SWAP1 SUB PUSH1 0x1F AND DUP3 ADD SWAP2 JUMPDEST POP POP POP POP POP DUP2 MSTORE POP POP SWAP1 POP SWAP1 JUMP JUMPDEST CALLER PUSH1 0x0 SWAP1 DUP2 MSTORE PUSH1 0x10 PUSH1 0x20 MSTORE PUSH1 0x40 SWAP1 KECCAK256 PUSH1 0x1 ADD SLOAD PUSH1 0x1 PUSH1 0x1 PUSH1 0xA0 SHL SUB AND ISZERO PUSH2 0xCB8 JUMPI PUSH1 0x10 PUSH1 0x0 CALLER PUSH2 0xB0E JUMP JUMPDEST PUSH1 0x40 DUP1 MLOAD PUSH1 0xE0 DUP2 ADD SWAP1 SWAP2 MSTORE PUSH1 0x7 PUSH1 0xA0 DUP3 ADD SWAP1 DUP2 MSTORE PUSH32 0x7468656475646500000000000000000000000000000000000000000000000000 PUSH1 0xC0 DUP4 ADD MSTORE DUP2 MSTORE PUSH1 0x20 DUP2 ADD CALLER PUSH1 0x1 PUSH1 0x1 PUSH1 0xA0 SHL SUB AND DUP2 MSTORE PUSH1 0x20 ADD PUSH1 0x0 DUP2 MSTORE PUSH1 0x20 ADD PUSH1 0x0 DUP2 MSTORE PUSH1 0x20 ADD PUSH1 0x40 MLOAD DUP1 PUSH1 0x40 ADD PUSH1 0x40 MSTORE DUP1 PUSH1 0x5 DUP2 MSTORE PUSH1 0x20 ADD PUSH32 0x6775657374000000000000000000000000000000000000000000000000000000 DUP2 MSTORE POP DUP2 MSTORE POP SWAP1 POP SWAP1 JUMP JUMPDEST PUSH1 0x10 PUSH1 0x20 MSTORE PUSH1 0x0 SWAP1 DUP2 MSTORE PUSH1 0x40 SWAP1 KECCAK256 DUP1 SLOAD DUP2 SWAP1 PUSH2 0xD6E SWAP1 PUSH2 0x395B JUMP JUMPDEST DUP1 PUSH1 0x1F ADD PUSH1 0x20 DUP1 SWAP2 DIV MUL PUSH1 0x20 ADD PUSH1 0x40 MLOAD SWAP1 DUP2 ADD PUSH1 0x40 MSTORE DUP1 SWAP3 SWAP2 SWAP1 DUP2 DUP2 MSTORE PUSH1 0x20 ADD DUP3 DUP1 SLOAD PUSH2 0xD9A SWAP1 PUSH2 0x395B JUMP JUMPDEST DUP1 ISZERO PUSH2 0xDE7 JUMPI DUP1 PUSH1 0x1F LT PUSH2 0xDBC JUMPI PUSH2 0x100 DUP1 DUP4 SLOAD DIV MUL DUP4 MSTORE SWAP2 PUSH1 0x20 ADD SWAP2 PUSH2 0xDE7 JUMP JUMPDEST DUP3 ADD SWAP2 SWAP1 PUSH1 0x0 MSTORE PUSH1 0x20 PUSH1 0x0 KECCAK256 SWAP1 JUMPDEST DUP2 SLOAD DUP2 MSTORE SWAP1 PUSH1 0x1 ADD SWAP1 PUSH1 0x20 ADD DUP1 DUP4 GT PUSH2 0xDCA JUMPI DUP3 SWAP1 SUB PUSH1 0x1F AND DUP3 ADD SWAP2 JUMPDEST POP POP POP PUSH1 0x1 DUP5 ADD SLOAD PUSH1 0x2 DUP6 ADD SLOAD PUSH1 0x3 DUP7 ADD SLOAD PUSH1 0x4 DUP8 ADD DUP1 SLOAD SWAP7 SWAP8 PUSH1 0x1 PUSH1 0x1 PUSH1 0xA0 SHL SUB SWAP1 SWAP5 AND SWAP7 SWAP3 SWAP6 POP SWAP1 SWAP4 POP SWAP1 PUSH2 0xE1D SWAP1 PUSH2 0x395B JUMP JUMPDEST DUP1 PUSH1 0x1F ADD PUSH1 0x20 DUP1 SWAP2 DIV MUL PUSH1 0x20 ADD PUSH1 0x40 MLOAD SWAP1 DUP2 ADD PUSH1 0x40 MSTORE DUP1 SWAP3 SWAP2 SWAP1 DUP2 DUP2 MSTORE PUSH1 0x20 ADD DUP3 DUP1 SLOAD PUSH2 0xE49 SWAP1 PUSH2 0x395B JUMP JUMPDEST DUP1 ISZERO PUSH2 0xE96 JUMPI DUP1 PUSH1 0x1F LT PUSH2 0xE6B JUMPI PUSH2 0x100 DUP1 DUP4 SLOAD DIV MUL DUP4 MSTORE SWAP2 PUSH1 0x20 ADD SWAP2 PUSH2 0xE96 JUMP JUMPDEST DUP3 ADD SWAP2 SWAP1 PUSH1 0x0 MSTORE PUSH1 0x20 PUSH1 0x0 KECCAK256 SWAP1 JUMPDEST DUP2 SLOAD DUP2 MSTORE SWAP1 PUSH1 0x1 ADD SWAP1 PUSH1 0x20 ADD DUP1 DUP4 GT PUSH2 0xE79 JUMPI DUP3 SWAP1 SUB PUSH1 0x1F AND DUP3 ADD SWAP2 JUMPDEST POP POP POP POP POP SWAP1 POP DUP6 JUMP JUMPDEST PUSH2 0xEAA CALLER DUP3 PUSH2 0x26F8 JUMP JUMPDEST PUSH2 0xF1C JUMPI PUSH1 0x40 MLOAD PUSH3 0x461BCD PUSH1 0xE5 SHL DUP2 MSTORE PUSH1 0x20 PUSH1 0x4 DUP3 ADD MSTORE PUSH1 0x2E PUSH1 0x24 DUP3 ADD MSTORE PUSH32 0x4552433732313A2063616C6C6572206973206E6F7420746F6B656E206F776E65 PUSH1 0x44 DUP3 ADD MSTORE PUSH32 0x72206E6F7220617070726F766564000000000000000000000000000000000000 PUSH1 0x64 DUP3 ADD MSTORE PUSH1 0x84 ADD PUSH2 0x7D1 JUMP JUMPDEST PUSH2 0x872 DUP4 DUP4 DUP4 PUSH2 0x2777 JUMP JUMPDEST PUSH2 0xF2F PUSH2 0x2944 JUMP JUMPDEST PUSH1 0x1 PUSH1 0x1 PUSH1 0xA0 SHL SUB DUP4 AND PUSH1 0x0 SWAP1 DUP2 MSTORE PUSH1 0x11 PUSH1 0x20 SWAP1 DUP2 MSTORE PUSH1 0x40 DUP1 DUP4 KECCAK256 DUP2 MLOAD DUP1 DUP4 ADD SWAP1 SWAP3 MSTORE DUP5 DUP3 MSTORE DUP2 DUP4 ADD DUP7 SWAP1 MSTORE DUP1 SLOAD PUSH1 0x1 DUP2 ADD DUP3 SSTORE SWAP1 DUP5 MSTORE SWAP3 DUP3 SWAP1 KECCAK256 DUP2 MLOAD DUP1 MLOAD SWAP3 SWAP5 PUSH1 0x2 MUL SWAP1 SWAP2 ADD SWAP3 PUSH2 0xF86 SWAP3 DUP5 SWAP3 SWAP1 SWAP2 ADD SWAP1 PUSH2 0x2F78 JUMP JUMPDEST POP PUSH1 0x20 DUP3 DUP2 ADD MLOAD DUP1 MLOAD PUSH2 0xF9F SWAP3 PUSH1 0x1 DUP6 ADD SWAP3 ADD SWAP1 PUSH2 0x2F78 JUMP JUMPDEST POP POP POP POP POP POP JUMP JUMPDEST PUSH2 0xFAF PUSH2 0x2944 JUMP JUMPDEST PUSH1 0x40 DUP1 MLOAD DUP1 DUP3 ADD SWAP1 SWAP2 MSTORE DUP3 DUP2 MSTORE PUSH1 0x20 DUP1 DUP3 ADD DUP4 SWAP1 MSTORE PUSH1 0x14 DUP1 SLOAD PUSH1 0x1 DUP2 ADD DUP3 SSTORE PUSH1 0x0 SWAP2 SWAP1 SWAP2 MSTORE DUP3 MLOAD DUP1 MLOAD DUP5 SWAP4 PUSH1 0x2 SWAP1 SWAP4 MUL PUSH32 0xCE6D7B5282BD9A3661AE061FEED1DBDA4E52AB073B1F9285BE6E155D9C38D4EC ADD SWAP3 PUSH2 0xF86 SWAP3 DUP5 SWAP3 SWAP2 ADD SWAP1 PUSH2 0x2F78 JUMP JUMPDEST PUSH2 0x872 DUP4 DUP4 DUP4 PUSH1 0x40 MLOAD DUP1 PUSH1 0x20 ADD PUSH1 0x40 MSTORE DUP1 PUSH1 0x0 DUP2 MSTORE POP PUSH2 0x1EB0 JUMP JUMPDEST PUSH1 0x0 PUSH2 0x1035 PUSH2 0x2944 JUMP JUMPDEST PUSH7 0x8E1BC9BF040000 CALLVALUE LT ISZERO PUSH2 0x10B1 JUMPI PUSH1 0x40 MLOAD PUSH3 0x461BCD PUSH1 0xE5 SHL DUP2 MSTORE PUSH1 0x20 PUSH1 0x4 DUP3 ADD MSTORE PUSH1 0x24 DUP1 DUP3 ADD MSTORE PUSH32 0x54686973207472616E73616374696F6E20726571756972657320302E30342065 PUSH1 0x44 DUP3 ADD MSTORE PUSH32 0x7468657200000000000000000000000000000000000000000000000000000000 PUSH1 0x64 DUP3 ADD MSTORE PUSH1 0x84 ADD PUSH2 0x7D1 JUMP JUMPDEST PUSH1 0x64 PUSH1 0xA PUSH1 0x0 DUP3 DUP3 SLOAD PUSH2 0x10C4 SWAP2 SWAP1 PUSH2 0x38EC JUMP JUMPDEST SWAP1 SWAP2 SSTORE POP POP PUSH1 0x6 SLOAD PUSH1 0x1 PUSH1 0x1 PUSH1 0xA0 SHL SUB AND PUSH2 0x8FC CALLVALUE PUSH1 0x40 MLOAD DUP2 ISZERO SWAP1 SWAP3 MUL SWAP2 PUSH1 0x0 DUP2 DUP2 DUP2 DUP6 DUP9 DUP9 CALL SWAP4 POP POP POP POP ISZERO DUP1 ISZERO PUSH2 0x1101 JUMPI RETURNDATASIZE PUSH1 0x0 DUP1 RETURNDATACOPY RETURNDATASIZE PUSH1 0x0 REVERT JUMPDEST POP POP PUSH1 0xA SLOAD SWAP1 JUMP JUMPDEST PUSH1 0x60 PUSH1 0x12 DUP1 SLOAD DUP1 PUSH1 0x20 MUL PUSH1 0x20 ADD PUSH1 0x40 MLOAD SWAP1 DUP2 ADD PUSH1 0x40 MSTORE DUP1 SWAP3 SWAP2 SWAP1 DUP2 DUP2 MSTORE PUSH1 0x20 ADD PUSH1 0x0 SWAP1 JUMPDEST DUP3 DUP3 LT ISZERO PUSH2 0xAA3 JUMPI DUP4 DUP3 SWAP1 PUSH1 0x0 MSTORE PUSH1 0x20 PUSH1 0x0 KECCAK256 SWAP1 PUSH1 0x5 MUL ADD PUSH1 0x40 MLOAD DUP1 PUSH1 0xA0 ADD PUSH1 0x40 MSTORE SWAP1 DUP2 PUSH1 0x0 DUP3 ADD DUP1 SLOAD PUSH2 0x1160 SWAP1 PUSH2 0x395B JUMP JUMPDEST DUP1 PUSH1 0x1F ADD PUSH1 0x20 DUP1 SWAP2 DIV MUL PUSH1 0x20 ADD PUSH1 0x40 MLOAD SWAP1 DUP2 ADD PUSH1 0x40 MSTORE DUP1 SWAP3 SWAP2 SWAP1 DUP2 DUP2 MSTORE PUSH1 0x20 ADD DUP3 DUP1 SLOAD PUSH2 0x118C SWAP1 PUSH2 0x395B JUMP JUMPDEST DUP1 ISZERO PUSH2 0x11D9 JUMPI DUP1 PUSH1 0x1F LT PUSH2 0x11AE JUMPI PUSH2 0x100 DUP1 DUP4 SLOAD DIV MUL DUP4 MSTORE SWAP2 PUSH1 0x20 ADD SWAP2 PUSH2 0x11D9 JUMP JUMPDEST DUP3 ADD SWAP2 SWAP1 PUSH1 0x0 MSTORE PUSH1 0x20 PUSH1 0x0 KECCAK256 SWAP1 JUMPDEST DUP2 SLOAD DUP2 MSTORE SWAP1 PUSH1 0x1 ADD SWAP1 PUSH1 0x20 ADD DUP1 DUP4 GT PUSH2 0x11BC JUMPI DUP3 SWAP1 SUB PUSH1 0x1F AND DUP3 ADD SWAP2 JUMPDEST POP POP POP SWAP2 DUP4 MSTORE POP POP PUSH1 0x1 DUP3 ADD SLOAD PUSH1 0x1 PUSH1 0x1 PUSH1 0xA0 SHL SUB AND PUSH1 0x20 DUP3 ADD MSTORE PUSH1 0x2 DUP3 ADD SLOAD PUSH1 0x40 DUP3 ADD MSTORE PUSH1 0x3 DUP3 ADD SLOAD PUSH1 0x60 DUP3 ADD MSTORE PUSH1 0x4 DUP3 ADD DUP1 SLOAD PUSH1 0x80 SWAP1 SWAP3 ADD SWAP2 PUSH2 0x121D SWAP1 PUSH2 0x395B JUMP JUMPDEST DUP1 PUSH1 0x1F ADD PUSH1 0x20 DUP1 SWAP2 DIV MUL PUSH1 0x20 ADD PUSH1 0x40 MLOAD SWAP1 DUP2 ADD PUSH1 0x40 MSTORE DUP1 SWAP3 SWAP2 SWAP1 DUP2 DUP2 MSTORE PUSH1 0x20 ADD DUP3 DUP1 SLOAD PUSH2 0x1249 SWAP1 PUSH2 0x395B JUMP JUMPDEST DUP1 ISZERO PUSH2 0x1296 JUMPI DUP1 PUSH1 0x1F LT PUSH2 0x126B JUMPI PUSH2 0x100 DUP1 DUP4 SLOAD DIV MUL DUP4 MSTORE SWAP2 PUSH1 0x20 ADD SWAP2 PUSH2 0x1296 JUMP JUMPDEST DUP3 ADD SWAP2 SWAP1 PUSH1 0x0 MSTORE PUSH1 0x20 PUSH1 0x0 KECCAK256 SWAP1 JUMPDEST DUP2 SLOAD DUP2 MSTORE SWAP1 PUSH1 0x1 ADD SWAP1 PUSH1 0x20 ADD DUP1 DUP4 GT PUSH2 0x1279 JUMPI DUP3 SWAP1 SUB PUSH1 0x1F AND DUP3 ADD SWAP2 JUMPDEST POP POP POP POP POP DUP2 MSTORE POP POP DUP2 MSTORE PUSH1 0x20 ADD SWAP1 PUSH1 0x1 ADD SWAP1 PUSH2 0x112D JUMP JUMPDEST PUSH1 0xF PUSH1 0x20 MSTORE PUSH1 0x0 SWAP1 DUP2 MSTORE PUSH1 0x40 SWAP1 KECCAK256 DUP1 SLOAD DUP2 SWAP1 PUSH2 0xD6E SWAP1 PUSH2 0x395B JUMP JUMPDEST PUSH1 0x0 DUP2 DUP2 MSTORE PUSH1 0x2 PUSH1 0x20 MSTORE PUSH1 0x40 DUP2 KECCAK256 SLOAD PUSH1 0x1 PUSH1 0x1 PUSH1 0xA0 SHL SUB AND DUP1 PUSH2 0x681 JUMPI PUSH1 0x40 MLOAD PUSH3 0x461BCD PUSH1 0xE5 SHL DUP2 MSTORE PUSH1 0x20 PUSH1 0x4 DUP3 ADD MSTORE PUSH1 0x18 PUSH1 0x24 DUP3 ADD MSTORE PUSH32 0x4552433732313A20696E76616C696420746F6B656E2049440000000000000000 PUSH1 0x44 DUP3 ADD MSTORE PUSH1 0x64 ADD PUSH2 0x7D1 JUMP JUMPDEST PUSH1 0x0 PUSH1 0x1 PUSH1 0x1 PUSH1 0xA0 SHL SUB DUP3 AND PUSH2 0x13AC JUMPI PUSH1 0x40 MLOAD PUSH3 0x461BCD PUSH1 0xE5 SHL DUP2 MSTORE PUSH1 0x20 PUSH1 0x4 DUP3 ADD MSTORE PUSH1 0x29 PUSH1 0x24 DUP3 ADD MSTORE PUSH32 0x4552433732313A2061646472657373207A65726F206973206E6F742061207661 PUSH1 0x44 DUP3 ADD MSTORE PUSH32 0x6C6964206F776E65720000000000000000000000000000000000000000000000 PUSH1 0x64 DUP3 ADD MSTORE PUSH1 0x84 ADD PUSH2 0x7D1 JUMP JUMPDEST POP PUSH1 0x1 PUSH1 0x1 PUSH1 0xA0 SHL SUB AND PUSH1 0x0 SWAP1 DUP2 MSTORE PUSH1 0x3 PUSH1 0x20 MSTORE PUSH1 0x40 SWAP1 KECCAK256 SLOAD SWAP1 JUMP JUMPDEST PUSH1 0x60 PUSH1 0x1 DUP1 SLOAD PUSH2 0x696 SWAP1 PUSH2 0x395B JUMP JUMPDEST PUSH1 0x0 PUSH1 0x40 MLOAD DUP1 PUSH1 0xA0 ADD PUSH1 0x40 MSTORE DUP1 DUP4 DUP2 MSTORE PUSH1 0x20 ADD PUSH2 0x13F1 CALLER SWAP1 JUMP JUMPDEST PUSH1 0x1 PUSH1 0x1 PUSH1 0xA0 SHL SUB AND DUP2 MSTORE PUSH1 0x0 PUSH1 0x20 DUP1 DUP4 ADD DUP3 SWAP1 MSTORE PUSH1 0x40 DUP1 DUP5 ADD DUP4 SWAP1 MSTORE DUP1 MLOAD DUP1 DUP3 ADD SWAP1 SWAP2 MSTORE PUSH1 0x7 DUP2 MSTORE PUSH32 0x70656E64696E6700000000000000000000000000000000000000000000000000 DUP2 DUP4 ADD MSTORE PUSH1 0x60 SWAP1 SWAP4 ADD SWAP3 SWAP1 SWAP3 MSTORE PUSH1 0x12 DUP1 SLOAD PUSH1 0x1 DUP2 ADD DUP3 SSTORE SWAP2 MSTORE DUP3 MLOAD DUP1 MLOAD SWAP4 SWAP5 POP DUP5 SWAP4 PUSH1 0x5 SWAP1 SWAP3 MUL PUSH32 0xBB8A6A4669BA250D26CD7A459ECA9D215F8307E33AEBE50379BC5A3617EC3444 ADD SWAP3 PUSH2 0x1494 SWAP3 DUP5 SWAP3 SWAP1 SWAP2 ADD SWAP1 PUSH2 0x2F78 JUMP JUMPDEST POP PUSH1 0x20 DUP3 DUP2 ADD MLOAD PUSH1 0x1 DUP4 ADD DUP1 SLOAD PUSH1 0x1 PUSH1 0x1 PUSH1 0xA0 SHL SUB NOT AND PUSH1 0x1 PUSH1 0x1 PUSH1 0xA0 SHL SUB SWAP1 SWAP3 AND SWAP2 SWAP1 SWAP2 OR SWAP1 SSTORE PUSH1 0x40 DUP4 ADD MLOAD PUSH1 0x2 DUP4 ADD SSTORE PUSH1 0x60 DUP4 ADD MLOAD PUSH1 0x3 DUP4 ADD SSTORE PUSH1 0x80 DUP4 ADD MLOAD DUP1 MLOAD PUSH2 0x14E7 SWAP3 PUSH1 0x4 DUP6 ADD SWAP3 ADD SWAP1 PUSH2 0x2F78 JUMP JUMPDEST POP POP POP DUP1 PUSH1 0x10 PUSH1 0x0 PUSH2 0x14F6 CALLER SWAP1 JUMP JUMPDEST PUSH1 0x1 PUSH1 0x1 PUSH1 0xA0 SHL SUB AND DUP2 MSTORE PUSH1 0x20 DUP1 DUP3 ADD SWAP3 SWAP1 SWAP3 MSTORE PUSH1 0x40 ADD PUSH1 0x0 KECCAK256 DUP3 MLOAD DUP1 MLOAD SWAP2 SWAP3 PUSH2 0x1525 SWAP3 DUP5 SWAP3 SWAP1 SWAP2 ADD SWAP1 PUSH2 0x2F78 JUMP JUMPDEST POP PUSH1 0x20 DUP3 DUP2 ADD MLOAD PUSH1 0x1 DUP4 ADD DUP1 SLOAD PUSH1 0x1 PUSH1 0x1 PUSH1 0xA0 SHL SUB NOT AND PUSH1 0x1 PUSH1 0x1 PUSH1 0xA0 SHL SUB SWAP1 SWAP3 AND SWAP2 SWAP1 SWAP2 OR SWAP1 SSTORE PUSH1 0x40 DUP4 ADD MLOAD PUSH1 0x2 DUP4 ADD SSTORE PUSH1 0x60 DUP4 ADD MLOAD PUSH1 0x3 DUP4 ADD SSTORE PUSH1 0x80 DUP4 ADD MLOAD DUP1 MLOAD PUSH2 0x1578 SWAP3 PUSH1 0x4 DUP6 ADD SWAP3 ADD SWAP1 PUSH2 0x2F78 JUMP JUMPDEST POP POP PUSH1 0x40 MLOAD PUSH2 0x1589 SWAP2 POP DUP3 SWAP1 PUSH2 0x3677 JUMP JUMPDEST PUSH1 0x40 MLOAD SWAP1 DUP2 SWAP1 SUB DUP2 KECCAK256 SWAP1 PUSH32 0x23766829F2007BB634D622CE5A4BD72E6672B9079C3ECF18A9D1C800FE3D6C07 SWAP1 PUSH1 0x0 SWAP1 LOG2 POP POP JUMP JUMPDEST PUSH2 0x15C8 CALLER DUP4 DUP4 PUSH2 0x29A0 JUMP JUMPDEST POP POP JUMP JUMPDEST PUSH2 0x15D4 PUSH2 0x2944 JUMP JUMPDEST PUSH1 0x0 PUSH1 0x12 DUP4 DUP2 SLOAD DUP2 LT PUSH2 0x15E9 JUMPI PUSH2 0x15E9 PUSH2 0x3A07 JUMP JUMPDEST SWAP1 PUSH1 0x0 MSTORE PUSH1 0x20 PUSH1 0x0 KECCAK256 SWAP1 PUSH1 0x5 MUL ADD PUSH1 0x40 MLOAD DUP1 PUSH1 0xA0 ADD PUSH1 0x40 MSTORE SWAP1 DUP2 PUSH1 0x0 DUP3 ADD DUP1 SLOAD PUSH2 0x1612 SWAP1 PUSH2 0x395B JUMP JUMPDEST DUP1 PUSH1 0x1F ADD PUSH1 0x20 DUP1 SWAP2 DIV MUL PUSH1 0x20 ADD PUSH1 0x40 MLOAD SWAP1 DUP2 ADD PUSH1 0x40 MSTORE DUP1 SWAP3 SWAP2 SWAP1 DUP2 DUP2 MSTORE PUSH1 0x20 ADD DUP3 DUP1 SLOAD PUSH2 0x163E SWAP1 PUSH2 0x395B JUMP JUMPDEST DUP1 ISZERO PUSH2 0x168B JUMPI DUP1 PUSH1 0x1F LT PUSH2 0x1660 JUMPI PUSH2 0x100 DUP1 DUP4 SLOAD DIV MUL DUP4 MSTORE SWAP2 PUSH1 0x20 ADD SWAP2 PUSH2 0x168B JUMP JUMPDEST DUP3 ADD SWAP2 SWAP1 PUSH1 0x0 MSTORE PUSH1 0x20 PUSH1 0x0 KECCAK256 SWAP1 JUMPDEST DUP2 SLOAD DUP2 MSTORE SWAP1 PUSH1 0x1 ADD SWAP1 PUSH1 0x20 ADD DUP1 DUP4 GT PUSH2 0x166E JUMPI DUP3 SWAP1 SUB PUSH1 0x1F AND DUP3 ADD SWAP2 JUMPDEST POP POP POP SWAP2 DUP4 MSTORE POP POP PUSH1 0x1 DUP3 ADD SLOAD PUSH1 0x1 PUSH1 0x1 PUSH1 0xA0 SHL SUB AND PUSH1 0x20 DUP3 ADD MSTORE PUSH1 0x2 DUP3 ADD SLOAD PUSH1 0x40 DUP3 ADD MSTORE PUSH1 0x3 DUP3 ADD SLOAD PUSH1 0x60 DUP3 ADD MSTORE PUSH1 0x4 DUP3 ADD DUP1 SLOAD PUSH1 0x80 SWAP1 SWAP3 ADD SWAP2 PUSH2 0x16CF SWAP1 PUSH2 0x395B JUMP JUMPDEST DUP1 PUSH1 0x1F ADD PUSH1 0x20 DUP1 SWAP2 DIV MUL PUSH1 0x20 ADD PUSH1 0x40 MLOAD SWAP1 DUP2 ADD PUSH1 0x40 MSTORE DUP1 SWAP3 SWAP2 SWAP1 DUP2 DUP2 MSTORE PUSH1 0x20 ADD DUP3 DUP1 SLOAD PUSH2 0x16FB SWAP1 PUSH2 0x395B JUMP JUMPDEST DUP1 ISZERO PUSH2 0x1748 JUMPI DUP1 PUSH1 0x1F LT PUSH2 0x171D JUMPI PUSH2 0x100 DUP1 DUP4 SLOAD DIV MUL DUP4 MSTORE SWAP2 PUSH1 0x20 ADD SWAP2 PUSH2 0x1748 JUMP JUMPDEST DUP3 ADD SWAP2 SWAP1 PUSH1 0x0 MSTORE PUSH1 0x20 PUSH1 0x0 KECCAK256 SWAP1 JUMPDEST DUP2 SLOAD DUP2 MSTORE SWAP1 PUSH1 0x1 ADD SWAP1 PUSH1 0x20 ADD DUP1 DUP4 GT PUSH2 0x172B JUMPI DUP3 SWAP1 SUB PUSH1 0x1F AND DUP3 ADD SWAP2 JUMPDEST POP POP POP POP POP DUP2 MSTORE POP POP SWAP1 POP DUP2 ISZERO PUSH2 0x182B JUMPI PUSH1 0x40 DUP1 MLOAD DUP1 DUP3 ADD SWAP1 SWAP2 MSTORE PUSH1 0x8 DUP2 MSTORE PUSH8 0x185C1C1C9BDD9959 PUSH1 0xC2 SHL PUSH1 0x20 DUP1 DUP4 ADD SWAP2 SWAP1 SWAP2 MSTORE PUSH1 0x80 DUP4 ADD SWAP2 SWAP1 SWAP2 MSTORE PUSH1 0x13 DUP1 SLOAD PUSH1 0x1 DUP2 ADD DUP3 SSTORE PUSH1 0x0 SWAP2 SWAP1 SWAP2 MSTORE DUP3 MLOAD DUP1 MLOAD DUP5 SWAP4 PUSH1 0x5 SWAP1 SWAP4 MUL PUSH32 0x66DE8FFDA797E3DE9C05E8FC57B3BF0EC28A930D40B0D285D93C06501CF6A090 ADD SWAP3 PUSH2 0x17D0 SWAP3 DUP5 SWAP3 SWAP2 ADD SWAP1 PUSH2 0x2F78 JUMP JUMPDEST POP PUSH1 0x20 DUP3 DUP2 ADD MLOAD PUSH1 0x1 DUP4 ADD DUP1 SLOAD PUSH1 0x1 PUSH1 0x1 PUSH1 0xA0 SHL SUB NOT AND PUSH1 0x1 PUSH1 0x1 PUSH1 0xA0 SHL SUB SWAP1 SWAP3 AND SWAP2 SWAP1 SWAP2 OR SWAP1 SSTORE PUSH1 0x40 DUP4 ADD MLOAD PUSH1 0x2 DUP4 ADD SSTORE PUSH1 0x60 DUP4 ADD MLOAD PUSH1 0x3 DUP4 ADD SSTORE PUSH1 0x80 DUP4 ADD MLOAD DUP1 MLOAD PUSH2 0x1823 SWAP3 PUSH1 0x4 DUP6 ADD SWAP3 ADD SWAP1 PUSH2 0x2F78 JUMP JUMPDEST POP POP POP PUSH2 0x1865 JUMP JUMPDEST PUSH1 0x40 DUP1 MLOAD DUP1 DUP3 ADD SWAP1 SWAP2 MSTORE PUSH1 0x6 DUP2 MSTORE PUSH32 0x64656E6965640000000000000000000000000000000000000000000000000000 PUSH1 0x20 DUP3 ADD MSTORE PUSH1 0x80 DUP3 ADD MSTORE JUMPDEST PUSH1 0x20 DUP1 DUP3 ADD MLOAD PUSH1 0x1 PUSH1 0x1 PUSH1 0xA0 SHL SUB AND PUSH1 0x0 SWAP1 DUP2 MSTORE PUSH1 0xF DUP3 MSTORE PUSH1 0x40 SWAP1 KECCAK256 DUP3 MLOAD DUP1 MLOAD DUP5 SWAP4 PUSH2 0x1895 SWAP3 DUP5 SWAP3 SWAP2 ADD SWAP1 PUSH2 0x2F78 JUMP JUMPDEST POP PUSH1 0x20 DUP3 DUP2 ADD MLOAD PUSH1 0x1 DUP4 ADD DUP1 SLOAD PUSH1 0x1 PUSH1 0x1 PUSH1 0xA0 SHL SUB NOT AND PUSH1 0x1 PUSH1 0x1 PUSH1 0xA0 SHL SUB SWAP1 SWAP3 AND SWAP2 SWAP1 SWAP2 OR SWAP1 SSTORE PUSH1 0x40 DUP4 ADD MLOAD PUSH1 0x2 DUP4 ADD SSTORE PUSH1 0x60 DUP4 ADD MLOAD PUSH1 0x3 DUP4 ADD SSTORE PUSH1 0x80 DUP4 ADD MLOAD DUP1 MLOAD PUSH2 0x18E8 SWAP3 PUSH1 0x4 DUP6 ADD SWAP3 ADD SWAP1 PUSH2 0x2F78 JUMP JUMPDEST POP SWAP1 POP POP DUP2 ISZERO ISZERO DUP2 PUSH1 0x40 MLOAD PUSH2 0x18FD SWAP2 SWAP1 PUSH2 0x3677 JUMP JUMPDEST PUSH1 0x40 MLOAD SWAP1 DUP2 SWAP1 SUB DUP2 KECCAK256 SWAP1 PUSH32 0xFF4DF63477E7402DD0019181D8664C383223E7E2FB7D78EB4457E70615F656F3 SWAP1 PUSH1 0x0 SWAP1 LOG3 PUSH1 0x12 DUP1 SLOAD PUSH2 0x193D SWAP1 PUSH1 0x1 SWAP1 PUSH2 0x3918 JUMP JUMPDEST DUP2 SLOAD DUP2 LT PUSH2 0x194D JUMPI PUSH2 0x194D PUSH2 0x3A07 JUMP JUMPDEST SWAP1 PUSH1 0x0 MSTORE PUSH1 0x20 PUSH1 0x0 KECCAK256 SWAP1 PUSH1 0x5 MUL ADD PUSH1 0x12 DUP5 DUP2 SLOAD DUP2 LT PUSH2 0x196E JUMPI PUSH2 0x196E PUSH2 0x3A07 JUMP JUMPDEST SWAP1 PUSH1 0x0 MSTORE PUSH1 0x20 PUSH1 0x0 KECCAK256 SWAP1 PUSH1 0x5 MUL ADD PUSH1 0x0 DUP3 ADD DUP2 PUSH1 0x0 ADD SWAP1 DUP1 SLOAD PUSH2 0x1990 SWAP1 PUSH2 0x395B JUMP JUMPDEST PUSH2 0x199B SWAP3 SWAP2 SWAP1 PUSH2 0x2FFC JUMP JUMPDEST POP PUSH1 0x1 DUP3 DUP2 ADD SLOAD SWAP1 DUP3 ADD DUP1 SLOAD PUSH1 0x1 PUSH1 0x1 PUSH1 0xA0 SHL SUB NOT AND PUSH1 0x1 PUSH1 0x1 PUSH1 0xA0 SHL SUB SWAP1 SWAP3 AND SWAP2 SWAP1 SWAP2 OR SWAP1 SSTORE PUSH1 0x2 DUP1 DUP4 ADD SLOAD SWAP1 DUP3 ADD SSTORE PUSH1 0x3 DUP1 DUP4 ADD SLOAD SWAP1 DUP3 ADD SSTORE PUSH1 0x4 DUP1 DUP4 ADD DUP1 SLOAD SWAP2 DUP4 ADD SWAP2 PUSH2 0x19EA SWAP1 PUSH2 0x395B JUMP JUMPDEST PUSH2 0x19F5 SWAP3 SWAP2 SWAP1 PUSH2 0x2FFC JUMP JUMPDEST POP SWAP1 POP POP PUSH1 0x12 DUP1 SLOAD DUP1 PUSH2 0x1A0A JUMPI PUSH2 0x1A0A PUSH2 0x39F1 JUMP JUMPDEST PUSH1 0x0 DUP3 DUP2 MSTORE PUSH1 0x20 DUP2 KECCAK256 PUSH1 0x0 NOT SWAP1 SWAP3 ADD SWAP2 PUSH1 0x5 DUP4 MUL ADD SWAP1 PUSH2 0x1A2A DUP3 DUP3 PUSH2 0x3077 JUMP JUMPDEST PUSH1 0x1 DUP3 ADD DUP1 SLOAD PUSH1 0x1 PUSH1 0x1 PUSH1 0xA0 SHL SUB NOT AND SWAP1 SSTORE PUSH1 0x0 PUSH1 0x2 DUP4 ADD DUP2 SWAP1 SSTORE PUSH1 0x3 DUP4 ADD DUP2 SWAP1 SSTORE PUSH2 0x1A5A SWAP1 PUSH1 0x4 DUP5 ADD SWAP1 PUSH2 0x3077 JUMP JUMPDEST POP POP SWAP1 SSTORE POP POP POP JUMP JUMPDEST PUSH2 0x1AAC PUSH1 0x40 MLOAD DUP1 PUSH1 0xE0 ADD PUSH1 0x40 MSTORE DUP1 PUSH1 0x0 DUP2 MSTORE PUSH1 0x20 ADD PUSH1 0x0 PUSH1 0x1 PUSH1 0x1 PUSH1 0xA0 SHL SUB AND DUP2 MSTORE PUSH1 0x20 ADD PUSH1 0x60 DUP2 MSTORE PUSH1 0x20 ADD PUSH1 0x60 DUP2 MSTORE PUSH1 0x20 ADD PUSH1 0x0 DUP2 MSTORE PUSH1 0x20 ADD PUSH1 0x60 DUP2 MSTORE PUSH1 0x20 ADD PUSH1 0x60 DUP2 MSTORE POP SWAP1 JUMP JUMPDEST PUSH1 0x40 MLOAD DUP1 PUSH1 0xE0 ADD PUSH1 0x40 MSTORE DUP1 PUSH1 0x8 SLOAD DUP2 MSTORE PUSH1 0x20 ADD PUSH2 0x1AD1 PUSH1 0x7 SLOAD PUSH1 0x1 PUSH1 0x1 PUSH1 0xA0 SHL SUB AND SWAP1 JUMP JUMPDEST PUSH1 0x1 PUSH1 0x1 PUSH1 0xA0 SHL SUB AND DUP2 MSTORE PUSH1 0x20 ADD PUSH1 0xC DUP1 SLOAD PUSH2 0x1AEC SWAP1 PUSH2 0x395B JUMP JUMPDEST DUP1 PUSH1 0x1F ADD PUSH1 0x20 DUP1 SWAP2 DIV MUL PUSH1 0x20 ADD PUSH1 0x40 MLOAD SWAP1 DUP2 ADD PUSH1 0x40 MSTORE DUP1 SWAP3 SWAP2 SWAP1 DUP2 DUP2 MSTORE PUSH1 0x20 ADD DUP3 DUP1 SLOAD PUSH2 0x1B18 SWAP1 PUSH2 0x395B JUMP JUMPDEST DUP1 ISZERO PUSH2 0x1B65 JUMPI DUP1 PUSH1 0x1F LT PUSH2 0x1B3A JUMPI PUSH2 0x100 DUP1 DUP4 SLOAD DIV MUL DUP4 MSTORE SWAP2 PUSH1 0x20 ADD SWAP2 PUSH2 0x1B65 JUMP JUMPDEST DUP3 ADD SWAP2 SWAP1 PUSH1 0x0 MSTORE PUSH1 0x20 PUSH1 0x0 KECCAK256 SWAP1 JUMPDEST DUP2 SLOAD DUP2 MSTORE SWAP1 PUSH1 0x1 ADD SWAP1 PUSH1 0x20 ADD DUP1 DUP4 GT PUSH2 0x1B48 JUMPI DUP3 SWAP1 SUB PUSH1 0x1F AND DUP3 ADD SWAP2 JUMPDEST POP POP POP POP POP DUP2 MSTORE PUSH1 0x20 ADD PUSH2 0x1B79 PUSH1 0x0 PUSH2 0x1F3E JUMP JUMPDEST DUP2 MSTORE PUSH1 0x13 SLOAD PUSH1 0x20 DUP1 DUP4 ADD SWAP2 SWAP1 SWAP2 MSTORE PUSH1 0x14 DUP1 SLOAD PUSH1 0x40 DUP1 MLOAD DUP3 DUP6 MUL DUP2 ADD DUP6 ADD DUP3 MSTORE DUP3 DUP2 MSTORE SWAP5 ADD SWAP4 SWAP3 PUSH1 0x0 SWAP1 DUP5 ADD JUMPDEST DUP3 DUP3 LT ISZERO PUSH2 0x1CFB JUMPI DUP4 DUP3 SWAP1 PUSH1 0x0 MSTORE PUSH1 0x20 PUSH1 0x0 KECCAK256 SWAP1 PUSH1 0x2 MUL ADD PUSH1 0x40 MLOAD DUP1 PUSH1 0x40 ADD PUSH1 0x40 MSTORE SWAP1 DUP2 PUSH1 0x0 DUP3 ADD DUP1 SLOAD PUSH2 0x1BD8 SWAP1 PUSH2 0x395B JUMP JUMPDEST DUP1 PUSH1 0x1F ADD PUSH1 0x20 DUP1 SWAP2 DIV MUL PUSH1 0x20 ADD PUSH1 0x40 MLOAD SWAP1 DUP2 ADD PUSH1 0x40 MSTORE DUP1 SWAP3 SWAP2 SWAP1 DUP2 DUP2 MSTORE PUSH1 0x20 ADD DUP3 DUP1 SLOAD PUSH2 0x1C04 SWAP1 PUSH2 0x395B JUMP JUMPDEST DUP1 ISZERO PUSH2 0x1C51 JUMPI DUP1 PUSH1 0x1F LT PUSH2 0x1C26 JUMPI PUSH2 0x100 DUP1 DUP4 SLOAD DIV MUL DUP4 MSTORE SWAP2 PUSH1 0x20 ADD SWAP2 PUSH2 0x1C51 JUMP JUMPDEST DUP3 ADD SWAP2 SWAP1 PUSH1 0x0 MSTORE PUSH1 0x20 PUSH1 0x0 KECCAK256 SWAP1 JUMPDEST DUP2 SLOAD DUP2 MSTORE SWAP1 PUSH1 0x1 ADD SWAP1 PUSH1 0x20 ADD DUP1 DUP4 GT PUSH2 0x1C34 JUMPI DUP3 SWAP1 SUB PUSH1 0x1F AND DUP3 ADD SWAP2 JUMPDEST POP POP POP POP POP DUP2 MSTORE PUSH1 0x20 ADD PUSH1 0x1 DUP3 ADD DUP1 SLOAD PUSH2 0x1C6A SWAP1 PUSH2 0x395B JUMP JUMPDEST DUP1 PUSH1 0x1F ADD PUSH1 0x20 DUP1 SWAP2 DIV MUL PUSH1 0x20 ADD PUSH1 0x40 MLOAD SWAP1 DUP2 ADD PUSH1 0x40 MSTORE DUP1 SWAP3 SWAP2 SWAP1 DUP2 DUP2 MSTORE PUSH1 0x20 ADD DUP3 DUP1 SLOAD PUSH2 0x1C96 SWAP1 PUSH2 0x395B JUMP JUMPDEST DUP1 ISZERO PUSH2 0x1CE3 JUMPI DUP1 PUSH1 0x1F LT PUSH2 0x1CB8 JUMPI PUSH2 0x100 DUP1 DUP4 SLOAD DIV MUL DUP4 MSTORE SWAP2 PUSH1 0x20 ADD SWAP2 PUSH2 0x1CE3 JUMP JUMPDEST DUP3 ADD SWAP2 SWAP1 PUSH1 0x0 MSTORE PUSH1 0x20 PUSH1 0x0 KECCAK256 SWAP1 JUMPDEST DUP2 SLOAD DUP2 MSTORE SWAP1 PUSH1 0x1 ADD SWAP1 PUSH1 0x20 ADD DUP1 DUP4 GT PUSH2 0x1CC6 JUMPI DUP3 SWAP1 SUB PUSH1 0x1F AND DUP3 ADD SWAP2 JUMPDEST POP POP POP POP POP DUP2 MSTORE POP POP DUP2 MSTORE PUSH1 0x20 ADD SWAP1 PUSH1 0x1 ADD SWAP1 PUSH2 0x1BA5 JUMP JUMPDEST POP POP POP POP DUP2 MSTORE PUSH1 0x20 ADD PUSH1 0x11 PUSH1 0x0 PUSH2 0x1D0F CALLER SWAP1 JUMP JUMPDEST PUSH1 0x1 PUSH1 0x1 PUSH1 0xA0 SHL SUB AND PUSH1 0x1 PUSH1 0x1 PUSH1 0xA0 SHL SUB AND DUP2 MSTORE PUSH1 0x20 ADD SWAP1 DUP2 MSTORE PUSH1 0x20 ADD PUSH1 0x0 KECCAK256 DUP1 SLOAD DUP1 PUSH1 0x20 MUL PUSH1 0x20 ADD PUSH1 0x40 MLOAD SWAP1 DUP2 ADD PUSH1 0x40 MSTORE DUP1 SWAP3 SWAP2 SWAP1 DUP2 DUP2 MSTORE PUSH1 0x20 ADD PUSH1 0x0 SWAP1 JUMPDEST DUP3 DUP3 LT ISZERO PUSH2 0x1EA5 JUMPI DUP4 DUP3 SWAP1 PUSH1 0x0 MSTORE PUSH1 0x20 PUSH1 0x0 KECCAK256 SWAP1 PUSH1 0x2 MUL ADD PUSH1 0x40 MLOAD DUP1 PUSH1 0x40 ADD PUSH1 0x40 MSTORE SWAP1 DUP2 PUSH1 0x0 DUP3 ADD DUP1 SLOAD PUSH2 0x1D82 SWAP1 PUSH2 0x395B JUMP JUMPDEST DUP1 PUSH1 0x1F ADD PUSH1 0x20 DUP1 SWAP2 DIV MUL PUSH1 0x20 ADD PUSH1 0x40 MLOAD SWAP1 DUP2 ADD PUSH1 0x40 MSTORE DUP1 SWAP3 SWAP2 SWAP1 DUP2 DUP2 MSTORE PUSH1 0x20 ADD DUP3 DUP1 SLOAD PUSH2 0x1DAE SWAP1 PUSH2 0x395B JUMP JUMPDEST DUP1 ISZERO PUSH2 0x1DFB JUMPI DUP1 PUSH1 0x1F LT PUSH2 0x1DD0 JUMPI PUSH2 0x100 DUP1 DUP4 SLOAD DIV MUL DUP4 MSTORE SWAP2 PUSH1 0x20 ADD SWAP2 PUSH2 0x1DFB JUMP JUMPDEST DUP3 ADD SWAP2 SWAP1 PUSH1 0x0 MSTORE PUSH1 0x20 PUSH1 0x0 KECCAK256 SWAP1 JUMPDEST DUP2 SLOAD DUP2 MSTORE SWAP1 PUSH1 0x1 ADD SWAP1 PUSH1 0x20 ADD DUP1 DUP4 GT PUSH2 0x1DDE JUMPI DUP3 SWAP1 SUB PUSH1 0x1F AND DUP3 ADD SWAP2 JUMPDEST POP POP POP POP POP DUP2 MSTORE PUSH1 0x20 ADD PUSH1 0x1 DUP3 ADD DUP1 SLOAD PUSH2 0x1E14 SWAP1 PUSH2 0x395B JUMP JUMPDEST DUP1 PUSH1 0x1F ADD PUSH1 0x20 DUP1 SWAP2 DIV MUL PUSH1 0x20 ADD PUSH1 0x40 MLOAD SWAP1 DUP2 ADD PUSH1 0x40 MSTORE DUP1 SWAP3 SWAP2 SWAP1 DUP2 DUP2 MSTORE PUSH1 0x20 ADD DUP3 DUP1 SLOAD PUSH2 0x1E40 SWAP1 PUSH2 0x395B JUMP JUMPDEST DUP1 ISZERO PUSH2 0x1E8D JUMPI DUP1 PUSH1 0x1F LT PUSH2 0x1E62 JUMPI PUSH2 0x100 DUP1 DUP4 SLOAD DIV MUL DUP4 MSTORE SWAP2 PUSH1 0x20 ADD SWAP2 PUSH2 0x1E8D JUMP JUMPDEST DUP3 ADD SWAP2 SWAP1 PUSH1 0x0 MSTORE PUSH1 0x20 PUSH1 0x0 KECCAK256 SWAP1 JUMPDEST DUP2 SLOAD DUP2 MSTORE SWAP1 PUSH1 0x1 ADD SWAP1 PUSH1 0x20 ADD DUP1 DUP4 GT PUSH2 0x1E70 JUMPI DUP3 SWAP1 SUB PUSH1 0x1F AND DUP3 ADD SWAP2 JUMPDEST POP POP POP POP POP DUP2 MSTORE POP POP DUP2 MSTORE PUSH1 0x20 ADD SWAP1 PUSH1 0x1 ADD SWAP1 PUSH2 0x1D4F JUMP JUMPDEST POP POP POP SWAP2 MSTORE POP SWAP2 SWAP1 POP JUMP JUMPDEST PUSH2 0x1EBA CALLER DUP4 PUSH2 0x26F8 JUMP JUMPDEST PUSH2 0x1F2C JUMPI PUSH1 0x40 MLOAD PUSH3 0x461BCD PUSH1 0xE5 SHL DUP2 MSTORE PUSH1 0x20 PUSH1 0x4 DUP3 ADD MSTORE PUSH1 0x2E PUSH1 0x24 DUP3 ADD MSTORE PUSH32 0x4552433732313A2063616C6C6572206973206E6F7420746F6B656E206F776E65 PUSH1 0x44 DUP3 ADD MSTORE PUSH32 0x72206E6F7220617070726F766564000000000000000000000000000000000000 PUSH1 0x64 DUP3 ADD MSTORE PUSH1 0x84 ADD PUSH2 0x7D1 JUMP JUMPDEST PUSH2 0x1F38 DUP5 DUP5 DUP5 DUP5 PUSH2 0x2A6F JUMP JUMPDEST POP POP POP POP JUMP JUMPDEST PUSH1 0x0 DUP2 DUP2 MSTORE PUSH1 0x2 PUSH1 0x20 MSTORE PUSH1 0x40 SWAP1 KECCAK256 SLOAD PUSH1 0x60 SWAP1 PUSH1 0x1 PUSH1 0x1 PUSH1 0xA0 SHL SUB AND PUSH2 0x1FCB JUMPI PUSH1 0x40 MLOAD PUSH3 0x461BCD PUSH1 0xE5 SHL DUP2 MSTORE PUSH1 0x20 PUSH1 0x4 DUP3 ADD MSTORE PUSH1 0x2F PUSH1 0x24 DUP3 ADD MSTORE PUSH32 0x4552433732314D657461646174613A2055524920717565727920666F72206E6F PUSH1 0x44 DUP3 ADD MSTORE PUSH32 0x6E6578697374656E7420746F6B656E0000000000000000000000000000000000 PUSH1 0x64 DUP3 ADD MSTORE PUSH1 0x84 ADD PUSH2 0x7D1 JUMP JUMPDEST PUSH1 0x0 DUP3 DUP2 MSTORE PUSH1 0xD PUSH1 0x20 MSTORE PUSH1 0x40 DUP2 KECCAK256 DUP1 SLOAD PUSH2 0x1FE4 SWAP1 PUSH2 0x395B JUMP JUMPDEST DUP1 PUSH1 0x1F ADD PUSH1 0x20 DUP1 SWAP2 DIV MUL PUSH1 0x20 ADD PUSH1 0x40 MLOAD SWAP1 DUP2 ADD PUSH1 0x40 MSTORE DUP1 SWAP3 SWAP2 SWAP1 DUP2 DUP2 MSTORE PUSH1 0x20 ADD DUP3 DUP1 SLOAD PUSH2 0x2010 SWAP1 PUSH2 0x395B JUMP JUMPDEST DUP1 ISZERO PUSH2 0x205D JUMPI DUP1 PUSH1 0x1F LT PUSH2 0x2032 JUMPI PUSH2 0x100 DUP1 DUP4 SLOAD DIV MUL DUP4 MSTORE SWAP2 PUSH1 0x20 ADD SWAP2 PUSH2 0x205D JUMP JUMPDEST DUP3 ADD SWAP2 SWAP1 PUSH1 0x0 MSTORE PUSH1 0x20 PUSH1 0x0 KECCAK256 SWAP1 JUMPDEST DUP2 SLOAD DUP2 MSTORE SWAP1 PUSH1 0x1 ADD SWAP1 PUSH1 0x20 ADD DUP1 DUP4 GT PUSH2 0x2040 JUMPI DUP3 SWAP1 SUB PUSH1 0x1F AND DUP3 ADD SWAP2 JUMPDEST POP POP POP POP POP SWAP1 POP PUSH1 0x0 PUSH2 0x207B PUSH1 0x40 DUP1 MLOAD PUSH1 0x20 DUP2 ADD SWAP1 SWAP2 MSTORE PUSH1 0x0 DUP2 MSTORE SWAP1 JUMP JUMPDEST SWAP1 POP DUP1 MLOAD PUSH1 0x0 EQ ISZERO PUSH2 0x208E JUMPI POP SWAP3 SWAP2 POP POP JUMP JUMPDEST DUP2 MLOAD ISZERO PUSH2 0x20C0 JUMPI DUP1 DUP3 PUSH1 0x40 MLOAD PUSH1 0x20 ADD PUSH2 0x20A8 SWAP3 SWAP2 SWAP1 PUSH2 0x3648 JUMP JUMPDEST PUSH1 0x40 MLOAD PUSH1 0x20 DUP2 DUP4 SUB SUB DUP2 MSTORE SWAP1 PUSH1 0x40 MSTORE SWAP3 POP POP POP SWAP2 SWAP1 POP JUMP JUMPDEST DUP1 PUSH2 0x20CA DUP6 PUSH2 0x2AF8 JUMP JUMPDEST PUSH1 0x40 MLOAD PUSH1 0x20 ADD PUSH2 0x20A8 SWAP3 SWAP2 SWAP1 PUSH2 0x3648 JUMP JUMPDEST PUSH1 0xC DUP1 SLOAD PUSH2 0x20E8 SWAP1 PUSH2 0x395B JUMP JUMPDEST DUP1 PUSH1 0x1F ADD PUSH1 0x20 DUP1 SWAP2 DIV MUL PUSH1 0x20 ADD PUSH1 0x40 MLOAD SWAP1 DUP2 ADD PUSH1 0x40 MSTORE DUP1 SWAP3 SWAP2 SWAP1 DUP2 DUP2 MSTORE PUSH1 0x20 ADD DUP3 DUP1 SLOAD PUSH2 0x2114 SWAP1 PUSH2 0x395B JUMP JUMPDEST DUP1 ISZERO PUSH2 0x2161 JUMPI DUP1 PUSH1 0x1F LT PUSH2 0x2136 JUMPI PUSH2 0x100 DUP1 DUP4 SLOAD DIV MUL DUP4 MSTORE SWAP2 PUSH1 0x20 ADD SWAP2 PUSH2 0x2161 JUMP JUMPDEST DUP3 ADD SWAP2 SWAP1 PUSH1 0x0 MSTORE PUSH1 0x20 PUSH1 0x0 KECCAK256 SWAP1 JUMPDEST DUP2 SLOAD DUP2 MSTORE SWAP1 PUSH1 0x1 ADD SWAP1 PUSH1 0x20 ADD DUP1 DUP4 GT PUSH2 0x2144 JUMPI DUP3 SWAP1 SUB PUSH1 0x1F AND DUP3 ADD SWAP2 JUMPDEST POP POP POP POP POP DUP2 JUMP JUMPDEST PUSH1 0x64 PUSH1 0x8 SLOAD LT PUSH2 0x21E1 JUMPI PUSH1 0x40 MLOAD PUSH3 0x461BCD PUSH1 0xE5 SHL DUP2 MSTORE PUSH1 0x20 PUSH1 0x4 DUP3 ADD MSTORE PUSH1 0x21 PUSH1 0x24 DUP3 ADD MSTORE PUSH32 0x4D696E74206661696C65643A20546F6B656E732061726520736F6C64206F7574 PUSH1 0x44 DUP3 ADD MSTORE PUSH32 0x2E00000000000000000000000000000000000000000000000000000000000000 PUSH1 0x64 DUP3 ADD MSTORE PUSH1 0x84 ADD PUSH2 0x7D1 JUMP JUMPDEST PUSH1 0x1 PUSH1 0x1 PUSH1 0xA0 SHL SUB DUP3 AND PUSH1 0x0 SWAP1 DUP2 MSTORE PUSH1 0xF PUSH1 0x20 MSTORE PUSH1 0x40 SWAP1 KECCAK256 PUSH1 0x3 DUP2 ADD SLOAD PUSH1 0x2 SWAP1 SWAP2 ADD SLOAD LT PUSH2 0x2251 JUMPI PUSH1 0x40 MLOAD PUSH3 0x461BCD PUSH1 0xE5 SHL DUP2 MSTORE PUSH1 0x20 PUSH1 0x4 DUP3 ADD MSTORE PUSH1 0x18 PUSH1 0x24 DUP3 ADD MSTORE PUSH32 0x4D696E7420616C6C6F77616E63652065786365656465642E0000000000000000 PUSH1 0x44 DUP3 ADD MSTORE PUSH1 0x64 ADD PUSH2 0x7D1 JUMP JUMPDEST PUSH2 0x225D DUP3 PUSH1 0x8 SLOAD PUSH2 0x2C2A JUMP JUMPDEST PUSH2 0x2269 PUSH1 0x8 SLOAD DUP3 PUSH2 0x2D6C JUMP JUMPDEST PUSH1 0x1 PUSH1 0x1 PUSH1 0xA0 SHL SUB DUP3 AND PUSH1 0x0 SWAP1 DUP2 MSTORE PUSH1 0xE PUSH1 0x20 SWAP1 DUP2 MSTORE PUSH1 0x40 DUP3 KECCAK256 PUSH1 0x8 DUP1 SLOAD DUP3 SLOAD PUSH1 0x1 DUP2 ADD DUP5 SSTORE SWAP3 DUP6 MSTORE SWAP3 DUP5 KECCAK256 SWAP1 SWAP2 ADD SWAP2 SWAP1 SWAP2 SSTORE DUP1 SLOAD SWAP2 PUSH2 0x22A8 DUP4 PUSH2 0x3996 JUMP JUMPDEST SWAP1 SWAP2 SSTORE POP POP PUSH1 0x7 SLOAD PUSH1 0x1 PUSH1 0x1 PUSH1 0xA0 SHL SUB AND PUSH2 0x8FC CALLVALUE PUSH1 0x40 MLOAD DUP2 ISZERO SWAP1 SWAP3 MUL SWAP2 PUSH1 0x0 DUP2 DUP2 DUP2 DUP6 DUP9 DUP9 CALL SWAP4 POP POP POP POP ISZERO DUP1 ISZERO PUSH2 0x22E5 JUMPI RETURNDATASIZE PUSH1 0x0 DUP1 RETURNDATACOPY RETURNDATASIZE PUSH1 0x0 REVERT JUMPDEST POP CALLER PUSH1 0x0 SWAP1 DUP2 MSTORE PUSH1 0xF PUSH1 0x20 MSTORE PUSH1 0x40 DUP2 KECCAK256 PUSH1 0x2 ADD DUP1 SLOAD PUSH1 0x1 SWAP3 SWAP1 PUSH2 0x2309 SWAP1 DUP5 SWAP1 PUSH2 0x38EC JUMP JUMPDEST SWAP1 SWAP2 SSTORE POP POP POP POP JUMP JUMPDEST PUSH1 0x1 PUSH1 0x1 PUSH1 0xA0 SHL SUB DUP2 AND PUSH1 0x0 SWAP1 DUP2 MSTORE PUSH1 0xE PUSH1 0x20 SWAP1 DUP2 MSTORE PUSH1 0x40 SWAP2 DUP3 SWAP1 KECCAK256 DUP1 SLOAD DUP4 MLOAD DUP2 DUP5 MUL DUP2 ADD DUP5 ADD SWAP1 SWAP5 MSTORE DUP1 DUP5 MSTORE PUSH1 0x60 SWAP4 SWAP3 DUP4 ADD DUP3 DUP3 DUP1 ISZERO PUSH2 0x2372 JUMPI PUSH1 0x20 MUL DUP3 ADD SWAP2 SWAP1 PUSH1 0x0 MSTORE PUSH1 0x20 PUSH1 0x0 KECCAK256 SWAP1 JUMPDEST DUP2 SLOAD DUP2 MSTORE PUSH1 0x20 ADD SWAP1 PUSH1 0x1 ADD SWAP1 DUP1 DUP4 GT PUSH2 0x235E JUMPI JUMPDEST POP POP POP POP POP SWAP1 POP SWAP2 SWAP1 POP JUMP JUMPDEST PUSH1 0x40 DUP1 MLOAD DUP1 DUP3 ADD DUP3 MSTORE PUSH1 0x8 DUP2 MSTORE PUSH8 0x185C1C1C9BDD9959 PUSH1 0xC2 SHL PUSH1 0x20 SWAP2 DUP3 ADD MSTORE CALLER PUSH1 0x0 SWAP1 DUP2 MSTORE PUSH1 0xF SWAP1 SWAP2 MSTORE DUP2 SWAP1 KECCAK256 SWAP1 MLOAD PUSH32 0x2B29265FC125740AE6BBC5035AE7AF720B6932F4A3E44BA5AC02955C21CA9A05 SWAP2 PUSH2 0x23DE SWAP2 PUSH1 0x4 SWAP1 SWAP2 ADD SWAP1 PUSH2 0x35AC JUMP JUMPDEST PUSH1 0x40 MLOAD DUP1 SWAP2 SUB SWAP1 KECCAK256 EQ PUSH2 0x23F0 JUMPI PUSH1 0x0 DUP1 REVERT JUMPDEST CALLER PUSH1 0x0 DUP2 DUP2 MSTORE PUSH1 0xF PUSH1 0x20 MSTORE PUSH1 0x40 SWAP1 KECCAK256 PUSH1 0x5 PUSH1 0x3 SWAP1 SWAP2 ADD SSTORE PUSH2 0x2411 SWAP1 DUP3 PUSH2 0x2169 JUMP JUMPDEST PUSH1 0x40 DUP1 MLOAD DUP1 DUP3 ADD DUP3 MSTORE PUSH1 0x6 DUP2 MSTORE PUSH6 0x3437B63232B9 PUSH1 0xD1 SHL PUSH1 0x20 DUP1 DUP4 ADD SWAP2 DUP3 MSTORE CALLER PUSH1 0x0 SWAP1 DUP2 MSTORE PUSH1 0xF SWAP1 SWAP2 MSTORE SWAP3 SWAP1 SWAP3 KECCAK256 SWAP1 MLOAD PUSH2 0x2451 SWAP3 PUSH1 0x4 SWAP1 SWAP3 ADD SWAP2 SWAP1 PUSH2 0x2F78 JUMP JUMPDEST POP PUSH1 0x7 SLOAD PUSH1 0x1 PUSH1 0x1 PUSH1 0xA0 SHL SUB AND PUSH2 0x8FC CALLVALUE PUSH1 0x40 MLOAD DUP2 ISZERO SWAP1 SWAP3 MUL SWAP2 PUSH1 0x0 DUP2 DUP2 DUP2 DUP6 DUP9 DUP9 CALL SWAP4 POP POP POP POP ISZERO DUP1 ISZERO PUSH2 0x248A JUMPI RETURNDATASIZE PUSH1 0x0 DUP1 RETURNDATACOPY RETURNDATASIZE PUSH1 0x0 REVERT JUMPDEST POP PUSH1 0x5 PUSH1 0xB PUSH1 0x0 DUP3 DUP3 SLOAD PUSH2 0x249E SWAP2 SWAP1 PUSH2 0x38EC JUMP JUMPDEST SWAP1 SWAP2 SSTORE POP POP POP JUMP JUMPDEST PUSH1 0x0 PUSH2 0x24B0 PUSH2 0x2944 JUMP JUMPDEST PUSH1 0xA SLOAD PUSH1 0xB SLOAD LT PUSH2 0x2529 JUMPI PUSH1 0x40 MLOAD PUSH3 0x461BCD PUSH1 0xE5 SHL DUP2 MSTORE PUSH1 0x20 PUSH1 0x4 DUP3 ADD MSTORE PUSH1 0x2E PUSH1 0x24 DUP3 ADD MSTORE PUSH32 0x5468697320636F6E74726163742068617320726561636865642069742773206D PUSH1 0x44 DUP3 ADD MSTORE PUSH32 0x696E7420616C6C6F77616E63652E000000000000000000000000000000000000 PUSH1 0x64 DUP3 ADD MSTORE PUSH1 0x84 ADD PUSH2 0x7D1 JUMP JUMPDEST PUSH1 0x9 SLOAD CALLVALUE LT ISZERO PUSH2 0x257B JUMPI PUSH1 0x40 MLOAD PUSH3 0x461BCD PUSH1 0xE5 SHL DUP2 MSTORE PUSH1 0x20 PUSH1 0x4 DUP3 ADD MSTORE PUSH1 0x16 PUSH1 0x24 DUP3 ADD MSTORE PUSH32 0x4E6F7420656E6F7567682065746865722073656E742E00000000000000000000 PUSH1 0x44 DUP3 ADD MSTORE PUSH1 0x64 ADD PUSH2 0x7D1 JUMP JUMPDEST PUSH1 0x1 PUSH1 0x1 PUSH1 0xA0 SHL SUB DUP3 AND PUSH1 0x0 SWAP1 DUP2 MSTORE PUSH1 0xF PUSH1 0x20 MSTORE PUSH1 0x40 DUP2 KECCAK256 PUSH1 0x3 ADD DUP1 SLOAD PUSH1 0x5 SWAP3 SWAP1 PUSH2 0x25A7 SWAP1 DUP5 SWAP1 PUSH2 0x38EC JUMP JUMPDEST SWAP3 POP POP DUP2 SWAP1 SSTORE POP PUSH1 0x5 PUSH1 0xB PUSH1 0x0 DUP3 DUP3 SLOAD PUSH2 0x25C1 SWAP2 SWAP1 PUSH2 0x38EC JUMP JUMPDEST SWAP1 SWAP2 SSTORE POP POP PUSH1 0x7 SLOAD PUSH1 0x40 MLOAD PUSH1 0x1 PUSH1 0x1 PUSH1 0xA0 SHL SUB SWAP1 SWAP2 AND SWAP1 CALLVALUE DUP1 ISZERO PUSH2 0x8FC MUL SWAP2 PUSH1 0x0 DUP2 DUP2 DUP2 DUP6 DUP9 DUP9 CALL SWAP4 POP POP POP POP ISZERO DUP1 ISZERO PUSH2 0x25FF JUMPI RETURNDATASIZE PUSH1 0x0 DUP1 RETURNDATACOPY RETURNDATASIZE PUSH1 0x0 REVERT JUMPDEST POP POP PUSH1 0x1 PUSH1 0x1 PUSH1 0xA0 SHL SUB DUP2 AND PUSH1 0x0 SWAP1 DUP2 MSTORE PUSH1 0xF PUSH1 0x20 MSTORE PUSH1 0x40 SWAP1 KECCAK256 PUSH1 0x3 ADD SLOAD JUMPDEST SWAP2 SWAP1 POP JUMP JUMPDEST PUSH1 0x0 DUP2 DUP2 MSTORE PUSH1 0x2 PUSH1 0x20 MSTORE PUSH1 0x40 SWAP1 KECCAK256 SLOAD PUSH1 0x1 PUSH1 0x1 PUSH1 0xA0 SHL SUB AND PUSH2 0x2687 JUMPI PUSH1 0x40 MLOAD PUSH3 0x461BCD PUSH1 0xE5 SHL DUP2 MSTORE PUSH1 0x20 PUSH1 0x4 DUP3 ADD MSTORE PUSH1 0x18 PUSH1 0x24 DUP3 ADD MSTORE PUSH32 0x4552433732313A20696E76616C696420746F6B656E2049440000000000000000 PUSH1 0x44 DUP3 ADD MSTORE PUSH1 0x64 ADD PUSH2 0x7D1 JUMP JUMPDEST POP JUMP JUMPDEST PUSH1 0x0 DUP2 DUP2 MSTORE PUSH1 0x4 PUSH1 0x20 MSTORE PUSH1 0x40 SWAP1 KECCAK256 DUP1 SLOAD PUSH1 0x1 PUSH1 0x1 PUSH1 0xA0 SHL SUB NOT AND PUSH1 0x1 PUSH1 0x1 PUSH1 0xA0 SHL SUB DUP5 AND SWAP1 DUP2 OR SWAP1 SWAP2 SSTORE DUP2 SWAP1 PUSH2 0x26BF DUP3 PUSH2 0x12C9 JUMP JUMPDEST PUSH1 0x1 PUSH1 0x1 PUSH1 0xA0 SHL SUB AND PUSH32 0x8C5BE1E5EBEC7D5BD14F71427D1E84F3DD0314C0F7B2291E5B200AC8C7C3B925 PUSH1 0x40 MLOAD PUSH1 0x40 MLOAD DUP1 SWAP2 SUB SWAP1 LOG4 POP POP JUMP JUMPDEST PUSH1 0x0 DUP1 PUSH2 0x2704 DUP4 PUSH2 0x12C9 JUMP JUMPDEST SWAP1 POP DUP1 PUSH1 0x1 PUSH1 0x1 PUSH1 0xA0 SHL SUB AND DUP5 PUSH1 0x1 PUSH1 0x1 PUSH1 0xA0 SHL SUB AND EQ DUP1 PUSH2 0x274B JUMPI POP PUSH1 0x1 PUSH1 0x1 PUSH1 0xA0 SHL SUB DUP1 DUP3 AND PUSH1 0x0 SWAP1 DUP2 MSTORE PUSH1 0x5 PUSH1 0x20 SWAP1 DUP2 MSTORE PUSH1 0x40 DUP1 DUP4 KECCAK256 SWAP4 DUP9 AND DUP4 MSTORE SWAP3 SWAP1 MSTORE KECCAK256 SLOAD PUSH1 0xFF AND JUMPDEST DUP1 PUSH2 0x276F JUMPI POP DUP4 PUSH1 0x1 PUSH1 0x1 PUSH1 0xA0 SHL SUB AND PUSH2 0x2764 DUP5 PUSH2 0x719 JUMP JUMPDEST PUSH1 0x1 PUSH1 0x1 PUSH1 0xA0 SHL SUB AND EQ JUMPDEST SWAP5 SWAP4 POP POP POP POP JUMP JUMPDEST DUP3 PUSH1 0x1 PUSH1 0x1 PUSH1 0xA0 SHL SUB AND PUSH2 0x278A DUP3 PUSH2 0x12C9 JUMP JUMPDEST PUSH1 0x1 PUSH1 0x1 PUSH1 0xA0 SHL SUB AND EQ PUSH2 0x2806 JUMPI PUSH1 0x40 MLOAD PUSH3 0x461BCD PUSH1 0xE5 SHL DUP2 MSTORE PUSH1 0x20 PUSH1 0x4 DUP3 ADD MSTORE PUSH1 0x25 PUSH1 0x24 DUP3 ADD MSTORE PUSH32 0x4552433732313A207472616E736665722066726F6D20696E636F727265637420 PUSH1 0x44 DUP3 ADD MSTORE PUSH32 0x6F776E6572000000000000000000000000000000000000000000000000000000 PUSH1 0x64 DUP3 ADD MSTORE PUSH1 0x84 ADD PUSH2 0x7D1 JUMP JUMPDEST PUSH1 0x1 PUSH1 0x1 PUSH1 0xA0 SHL SUB DUP3 AND PUSH2 0x2881 JUMPI PUSH1 0x40 MLOAD PUSH3 0x461BCD PUSH1 0xE5 SHL DUP2 MSTORE PUSH1 0x20 PUSH1 0x4 DUP3 ADD MSTORE PUSH1 0x24 DUP1 DUP3 ADD MSTORE PUSH32 0x4552433732313A207472616E7366657220746F20746865207A65726F20616464 PUSH1 0x44 DUP3 ADD MSTORE PUSH32 0x7265737300000000000000000000000000000000000000000000000000000000 PUSH1 0x64 DUP3 ADD MSTORE PUSH1 0x84 ADD PUSH2 0x7D1 JUMP JUMPDEST PUSH2 0x288C PUSH1 0x0 DUP3 PUSH2 0x268A JUMP JUMPDEST PUSH1 0x1 PUSH1 0x1 PUSH1 0xA0 SHL SUB DUP4 AND PUSH1 0x0 SWAP1 DUP2 MSTORE PUSH1 0x3 PUSH1 0x20 MSTORE PUSH1 0x40 DUP2 KECCAK256 DUP1 SLOAD PUSH1 0x1 SWAP3 SWAP1 PUSH2 0x28B5 SWAP1 DUP5 SWAP1 PUSH2 0x3918 JUMP JUMPDEST SWAP1 SWAP2 SSTORE POP POP PUSH1 0x1 PUSH1 0x1 PUSH1 0xA0 SHL SUB DUP3 AND PUSH1 0x0 SWAP1 DUP2 MSTORE PUSH1 0x3 PUSH1 0x20 MSTORE PUSH1 0x40 DUP2 KECCAK256 DUP1 SLOAD PUSH1 0x1 SWAP3 SWAP1 PUSH2 0x28E3 SWAP1 DUP5 SWAP1 PUSH2 0x38EC JUMP JUMPDEST SWAP1 SWAP2 SSTORE POP POP PUSH1 0x0 DUP2 DUP2 MSTORE PUSH1 0x2 PUSH1 0x20 MSTORE PUSH1 0x40 DUP1 DUP3 KECCAK256 DUP1 SLOAD PUSH1 0x1 PUSH1 0x1 PUSH1 0xA0 SHL SUB NOT AND PUSH1 0x1 PUSH1 0x1 PUSH1 0xA0 SHL SUB DUP7 DUP2 AND SWAP2 DUP3 OR SWAP1 SWAP3 SSTORE SWAP2 MLOAD DUP5 SWAP4 SWAP2 DUP8 AND SWAP2 PUSH32 0xDDF252AD1BE2C89B69C2B068FC378DAA952BA7F163C4A11628F55A4DF523B3EF SWAP2 LOG4 POP POP POP JUMP JUMPDEST PUSH1 0x7 SLOAD PUSH1 0x1 PUSH1 0x1 PUSH1 0xA0 SHL SUB AND CALLER EQ PUSH2 0x299E JUMPI PUSH1 0x40 MLOAD PUSH3 0x461BCD PUSH1 0xE5 SHL DUP2 MSTORE PUSH1 0x20 PUSH1 0x4 DUP3 ADD DUP2 SWAP1 MSTORE PUSH1 0x24 DUP3 ADD MSTORE PUSH32 0x4F776E61626C653A2063616C6C6572206973206E6F7420746865206F776E6572 PUSH1 0x44 DUP3 ADD MSTORE PUSH1 0x64 ADD PUSH2 0x7D1 JUMP JUMPDEST JUMP JUMPDEST DUP2 PUSH1 0x1 PUSH1 0x1 PUSH1 0xA0 SHL SUB AND DUP4 PUSH1 0x1 PUSH1 0x1 PUSH1 0xA0 SHL SUB AND EQ ISZERO PUSH2 0x2A02 JUMPI PUSH1 0x40 MLOAD PUSH3 0x461BCD PUSH1 0xE5 SHL DUP2 MSTORE PUSH1 0x20 PUSH1 0x4 DUP3 ADD MSTORE PUSH1 0x19 PUSH1 0x24 DUP3 ADD MSTORE PUSH32 0x4552433732313A20617070726F766520746F2063616C6C657200000000000000 PUSH1 0x44 DUP3 ADD MSTORE PUSH1 0x64 ADD PUSH2 0x7D1 JUMP JUMPDEST PUSH1 0x1 PUSH1 0x1 PUSH1 0xA0 SHL SUB DUP4 DUP2 AND PUSH1 0x0 DUP2 DUP2 MSTORE PUSH1 0x5 PUSH1 0x20 SWAP1 DUP2 MSTORE PUSH1 0x40 DUP1 DUP4 KECCAK256 SWAP5 DUP8 AND DUP1 DUP5 MSTORE SWAP5 DUP3 MSTORE SWAP2 DUP3 SWAP1 KECCAK256 DUP1 SLOAD PUSH1 0xFF NOT AND DUP7 ISZERO ISZERO SWAP1 DUP2 OR SWAP1 SWAP2 SSTORE SWAP2 MLOAD SWAP2 DUP3 MSTORE PUSH32 0x17307EAB39AB6107E8899845AD3D59BD9653F200F220920489CA2B5937696C31 SWAP2 ADD PUSH1 0x40 MLOAD DUP1 SWAP2 SUB SWAP1 LOG3 POP POP POP JUMP JUMPDEST PUSH2 0x2A7A DUP5 DUP5 DUP5 PUSH2 0x2777 JUMP JUMPDEST PUSH2 0x2A86 DUP5 DUP5 DUP5 DUP5 PUSH2 0x2E15 JUMP JUMPDEST PUSH2 0x1F38 JUMPI PUSH1 0x40 MLOAD PUSH3 0x461BCD PUSH1 0xE5 SHL DUP2 MSTORE PUSH1 0x20 PUSH1 0x4 DUP3 ADD MSTORE PUSH1 0x32 PUSH1 0x24 DUP3 ADD MSTORE PUSH32 0x4552433732313A207472616E7366657220746F206E6F6E204552433732315265 PUSH1 0x44 DUP3 ADD MSTORE PUSH32 0x63656976657220696D706C656D656E7465720000000000000000000000000000 PUSH1 0x64 DUP3 ADD MSTORE PUSH1 0x84 ADD PUSH2 0x7D1 JUMP JUMPDEST PUSH1 0x60 DUP2 PUSH2 0x2B38 JUMPI POP POP PUSH1 0x40 DUP1 MLOAD DUP1 DUP3 ADD SWAP1 SWAP2 MSTORE PUSH1 0x1 DUP2 MSTORE PUSH32 0x3000000000000000000000000000000000000000000000000000000000000000 PUSH1 0x20 DUP3 ADD MSTORE SWAP1 JUMP JUMPDEST DUP2 PUSH1 0x0 JUMPDEST DUP2 ISZERO PUSH2 0x2B62 JUMPI DUP1 PUSH2 0x2B4C DUP2 PUSH2 0x3996 JUMP JUMPDEST SWAP2 POP PUSH2 0x2B5B SWAP1 POP PUSH1 0xA DUP4 PUSH2 0x3904 JUMP JUMPDEST SWAP2 POP PUSH2 0x2B3C JUMP JUMPDEST PUSH1 0x0 DUP2 PUSH8 0xFFFFFFFFFFFFFFFF DUP2 GT ISZERO PUSH2 0x2B7D JUMPI PUSH2 0x2B7D PUSH2 0x3A1D JUMP JUMPDEST PUSH1 0x40 MLOAD SWAP1 DUP1 DUP3 MSTORE DUP1 PUSH1 0x1F ADD PUSH1 0x1F NOT AND PUSH1 0x20 ADD DUP3 ADD PUSH1 0x40 MSTORE DUP1 ISZERO PUSH2 0x2BA7 JUMPI PUSH1 0x20 DUP3 ADD DUP2 DUP1 CALLDATASIZE DUP4 CALLDATACOPY ADD SWAP1 POP JUMPDEST POP SWAP1 POP JUMPDEST DUP5 ISZERO PUSH2 0x276F JUMPI PUSH2 0x2BBC PUSH1 0x1 DUP4 PUSH2 0x3918 JUMP JUMPDEST SWAP2 POP PUSH2 0x2BC9 PUSH1 0xA DUP7 PUSH2 0x39B1 JUMP JUMPDEST PUSH2 0x2BD4 SWAP1 PUSH1 0x30 PUSH2 0x38EC JUMP JUMPDEST PUSH1 0xF8 SHL DUP2 DUP4 DUP2 MLOAD DUP2 LT PUSH2 0x2BE9 JUMPI PUSH2 0x2BE9 PUSH2 0x3A07 JUMP JUMPDEST PUSH1 0x20 ADD ADD SWAP1 PUSH31 0xFFFFFFFFFFFFFFFFFFFFFFFFFFFFFFFFFFFFFFFFFFFFFFFFFFFFFFFFFFFFFF NOT AND SWAP1 DUP2 PUSH1 0x0 BYTE SWAP1 MSTORE8 POP PUSH2 0x2C23 PUSH1 0xA DUP7 PUSH2 0x3904 JUMP JUMPDEST SWAP5 POP PUSH2 0x2BAB JUMP JUMPDEST PUSH1 0x1 PUSH1 0x1 PUSH1 0xA0 SHL SUB DUP3 AND PUSH2 0x2C80 JUMPI PUSH1 0x40 MLOAD PUSH3 0x461BCD PUSH1 0xE5 SHL DUP2 MSTORE PUSH1 0x20 PUSH1 0x4 DUP3 ADD DUP2 SWAP1 MSTORE PUSH1 0x24 DUP3 ADD MSTORE PUSH32 0x4552433732313A206D696E7420746F20746865207A65726F2061646472657373 PUSH1 0x44 DUP3 ADD MSTORE PUSH1 0x64 ADD PUSH2 0x7D1 JUMP JUMPDEST PUSH1 0x0 DUP2 DUP2 MSTORE PUSH1 0x2 PUSH1 0x20 MSTORE PUSH1 0x40 SWAP1 KECCAK256 SLOAD PUSH1 0x1 PUSH1 0x1 PUSH1 0xA0 SHL SUB AND ISZERO PUSH2 0x2CE5 JUMPI PUSH1 0x40 MLOAD PUSH3 0x461BCD PUSH1 0xE5 SHL DUP2 MSTORE PUSH1 0x20 PUSH1 0x4 DUP3 ADD MSTORE PUSH1 0x1C PUSH1 0x24 DUP3 ADD MSTORE PUSH32 0x4552433732313A20746F6B656E20616C7265616479206D696E74656400000000 PUSH1 0x44 DUP3 ADD MSTORE PUSH1 0x64 ADD PUSH2 0x7D1 JUMP JUMPDEST PUSH1 0x1 PUSH1 0x1 PUSH1 0xA0 SHL SUB DUP3 AND PUSH1 0x0 SWAP1 DUP2 MSTORE PUSH1 0x3 PUSH1 0x20 MSTORE PUSH1 0x40 DUP2 KECCAK256 DUP1 SLOAD PUSH1 0x1 SWAP3 SWAP1 PUSH2 0x2D0E SWAP1 DUP5 SWAP1 PUSH2 0x38EC JUMP JUMPDEST SWAP1 SWAP2 SSTORE POP POP PUSH1 0x0 DUP2 DUP2 MSTORE PUSH1 0x2 PUSH1 0x20 MSTORE PUSH1 0x40 DUP1 DUP3 KECCAK256 DUP1 SLOAD PUSH1 0x1 PUSH1 0x1 PUSH1 0xA0 SHL SUB NOT AND PUSH1 0x1 PUSH1 0x1 PUSH1 0xA0 SHL SUB DUP7 AND SWAP1 DUP2 OR SWAP1 SWAP2 SSTORE SWAP1 MLOAD DUP4 SWAP3 SWAP1 PUSH32 0xDDF252AD1BE2C89B69C2B068FC378DAA952BA7F163C4A11628F55A4DF523B3EF SWAP1 DUP3 SWAP1 LOG4 POP POP JUMP JUMPDEST PUSH1 0x0 DUP3 DUP2 MSTORE PUSH1 0x2 PUSH1 0x20 MSTORE PUSH1 0x40 SWAP1 KECCAK256 SLOAD PUSH1 0x1 PUSH1 0x1 PUSH1 0xA0 SHL SUB AND PUSH2 0x2DF6 JUMPI PUSH1 0x40 MLOAD PUSH3 0x461BCD PUSH1 0xE5 SHL DUP2 MSTORE PUSH1 0x20 PUSH1 0x4 DUP3 ADD MSTORE PUSH1 0x2C PUSH1 0x24 DUP3 ADD MSTORE PUSH32 0x4552433732314D657461646174613A2055524920736574206F66206E6F6E6578 PUSH1 0x44 DUP3 ADD MSTORE PUSH32 0x697374656E7420746F6B656E0000000000000000000000000000000000000000 PUSH1 0x64 DUP3 ADD MSTORE PUSH1 0x84 ADD PUSH2 0x7D1 JUMP JUMPDEST PUSH1 0x0 DUP3 DUP2 MSTORE PUSH1 0xD PUSH1 0x20 SWAP1 DUP2 MSTORE PUSH1 0x40 SWAP1 SWAP2 KECCAK256 DUP3 MLOAD PUSH2 0x872 SWAP3 DUP5 ADD SWAP1 PUSH2 0x2F78 JUMP JUMPDEST PUSH1 0x0 PUSH1 0x1 PUSH1 0x1 PUSH1 0xA0 SHL SUB DUP5 AND EXTCODESIZE ISZERO PUSH2 0x2F6D JUMPI PUSH1 0x40 MLOAD PUSH4 0xA85BD01 PUSH1 0xE1 SHL DUP2 MSTORE PUSH1 0x1 PUSH1 0x1 PUSH1 0xA0 SHL SUB DUP6 AND SWAP1 PUSH4 0x150B7A02 SWAP1 PUSH2 0x2E59 SWAP1 CALLER SWAP1 DUP10 SWAP1 DUP9 SWAP1 DUP9 SWAP1 PUSH1 0x4 ADD PUSH2 0x36E8 JUMP JUMPDEST PUSH1 0x20 PUSH1 0x40 MLOAD DUP1 DUP4 SUB DUP2 PUSH1 0x0 DUP8 DUP1 EXTCODESIZE ISZERO DUP1 ISZERO PUSH2 0x2E73 JUMPI PUSH1 0x0 DUP1 REVERT JUMPDEST POP GAS CALL SWAP3 POP POP POP DUP1 ISZERO PUSH2 0x2EA3 JUMPI POP PUSH1 0x40 DUP1 MLOAD PUSH1 0x1F RETURNDATASIZE SWAP1 DUP2 ADD PUSH1 0x1F NOT AND DUP3 ADD SWAP1 SWAP3 MSTORE PUSH2 0x2EA0 SWAP2 DUP2 ADD SWAP1 PUSH2 0x33BF JUMP JUMPDEST PUSH1 0x1 JUMPDEST PUSH2 0x2F53 JUMPI RETURNDATASIZE DUP1 DUP1 ISZERO PUSH2 0x2ED1 JUMPI PUSH1 0x40 MLOAD SWAP2 POP PUSH1 0x1F NOT PUSH1 0x3F RETURNDATASIZE ADD AND DUP3 ADD PUSH1 0x40 MSTORE RETURNDATASIZE DUP3 MSTORE RETURNDATASIZE PUSH1 0x0 PUSH1 0x20 DUP5 ADD RETURNDATACOPY PUSH2 0x2ED6 JUMP JUMPDEST PUSH1 0x60 SWAP2 POP JUMPDEST POP DUP1 MLOAD PUSH2 0x2F4B JUMPI PUSH1 0x40 MLOAD PUSH3 0x461BCD PUSH1 0xE5 SHL DUP2 MSTORE PUSH1 0x20 PUSH1 0x4 DUP3 ADD MSTORE PUSH1 0x32 PUSH1 0x24 DUP3 ADD MSTORE PUSH32 0x4552433732313A207472616E7366657220746F206E6F6E204552433732315265 PUSH1 0x44 DUP3 ADD MSTORE PUSH32 0x63656976657220696D706C656D656E7465720000000000000000000000000000 PUSH1 0x64 DUP3 ADD MSTORE PUSH1 0x84 ADD PUSH2 0x7D1 JUMP JUMPDEST DUP1 MLOAD DUP2 PUSH1 0x20 ADD REVERT JUMPDEST PUSH1 0x1 PUSH1 0x1 PUSH1 0xE0 SHL SUB NOT AND PUSH4 0xA85BD01 PUSH1 0xE1 SHL EQ SWAP1 POP PUSH2 0x276F JUMP JUMPDEST POP PUSH1 0x1 SWAP5 SWAP4 POP POP POP POP JUMP JUMPDEST DUP3 DUP1 SLOAD PUSH2 0x2F84 SWAP1 PUSH2 0x395B JUMP JUMPDEST SWAP1 PUSH1 0x0 MSTORE PUSH1 0x20 PUSH1 0x0 KECCAK256 SWAP1 PUSH1 0x1F ADD PUSH1 0x20 SWAP1 DIV DUP2 ADD SWAP3 DUP3 PUSH2 0x2FA6 JUMPI PUSH1 0x0 DUP6 SSTORE PUSH2 0x2FEC JUMP JUMPDEST DUP3 PUSH1 0x1F LT PUSH2 0x2FBF JUMPI DUP1 MLOAD PUSH1 0xFF NOT AND DUP4 DUP1 ADD OR DUP6 SSTORE PUSH2 0x2FEC JUMP JUMPDEST DUP3 DUP1 ADD PUSH1 0x1 ADD DUP6 SSTORE DUP3 ISZERO PUSH2 0x2FEC JUMPI SWAP2 DUP3 ADD JUMPDEST DUP3 DUP2 GT ISZERO PUSH2 0x2FEC JUMPI DUP3 MLOAD DUP3 SSTORE SWAP2 PUSH1 0x20 ADD SWAP2 SWAP1 PUSH1 0x1 ADD SWAP1 PUSH2 0x2FD1 JUMP JUMPDEST POP PUSH2 0x2FF8 SWAP3 SWAP2 POP PUSH2 0x30AD JUMP JUMPDEST POP SWAP1 JUMP JUMPDEST DUP3 DUP1 SLOAD PUSH2 0x3008 SWAP1 PUSH2 0x395B JUMP JUMPDEST SWAP1 PUSH1 0x0 MSTORE PUSH1 0x20 PUSH1 0x0 KECCAK256 SWAP1 PUSH1 0x1F ADD PUSH1 0x20 SWAP1 DIV DUP2 ADD SWAP3 DUP3 PUSH2 0x302A JUMPI PUSH1 0x0 DUP6 SSTORE PUSH2 0x2FEC JUMP JUMPDEST DUP3 PUSH1 0x1F LT PUSH2 0x303B JUMPI DUP1 SLOAD DUP6 SSTORE PUSH2 0x2FEC JUMP JUMPDEST DUP3 DUP1 ADD PUSH1 0x1 ADD DUP6 SSTORE DUP3 ISZERO PUSH2 0x2FEC JUMPI PUSH1 0x0 MSTORE PUSH1 0x20 PUSH1 0x0 KECCAK256 SWAP2 PUSH1 0x1F ADD PUSH1 0x20 SWAP1 DIV DUP3 ADD JUMPDEST DUP3 DUP2 GT ISZERO PUSH2 0x2FEC JUMPI DUP3 SLOAD DUP3 SSTORE SWAP2 PUSH1 0x1 ADD SWAP2 SWAP1 PUSH1 0x1 ADD SWAP1 PUSH2 0x305C JUMP JUMPDEST POP DUP1 SLOAD PUSH2 0x3083 SWAP1 PUSH2 0x395B JUMP JUMPDEST PUSH1 0x0 DUP3 SSTORE DUP1 PUSH1 0x1F LT PUSH2 0x3093 JUMPI POP POP JUMP JUMPDEST PUSH1 0x1F ADD PUSH1 0x20 SWAP1 DIV SWAP1 PUSH1 0x0 MSTORE PUSH1 0x20 PUSH1 0x0 KECCAK256 SWAP1 DUP2 ADD SWAP1 PUSH2 0x2687 SWAP2 SWAP1 JUMPDEST JUMPDEST DUP1 DUP3 GT ISZERO PUSH2 0x2FF8 JUMPI PUSH1 0x0 DUP2 SSTORE PUSH1 0x1 ADD PUSH2 0x30AE JUMP JUMPDEST PUSH1 0x0 PUSH8 0xFFFFFFFFFFFFFFFF DUP1 DUP5 GT ISZERO PUSH2 0x30DD JUMPI PUSH2 0x30DD PUSH2 0x3A1D JUMP JUMPDEST PUSH1 0x40 MLOAD PUSH1 0x1F DUP6 ADD PUSH1 0x1F NOT SWAP1 DUP2 AND PUSH1 0x3F ADD AND DUP2 ADD SWAP1 DUP3 DUP3 GT DUP2 DUP4 LT OR ISZERO PUSH2 0x3105 JUMPI PUSH2 0x3105 PUSH2 0x3A1D JUMP JUMPDEST DUP2 PUSH1 0x40 MSTORE DUP1 SWAP4 POP DUP6 DUP2 MSTORE DUP7 DUP7 DUP7 ADD GT ISZERO PUSH2 0x311E JUMPI PUSH1 0x0 DUP1 REVERT JUMPDEST DUP6 DUP6 PUSH1 0x20 DUP4 ADD CALLDATACOPY PUSH1 0x0 PUSH1 0x20 DUP8 DUP4 ADD ADD MSTORE POP POP POP SWAP4 SWAP3 POP POP POP JUMP JUMPDEST DUP1 CALLDATALOAD PUSH1 0x1 PUSH1 0x1 PUSH1 0xA0 SHL SUB DUP2 AND DUP2 EQ PUSH2 0x261E JUMPI PUSH1 0x0 DUP1 REVERT JUMPDEST DUP1 CALLDATALOAD DUP1 ISZERO ISZERO DUP2 EQ PUSH2 0x261E JUMPI PUSH1 0x0 DUP1 REVERT JUMPDEST PUSH1 0x0 DUP3 PUSH1 0x1F DUP4 ADD SLT PUSH2 0x3170 JUMPI PUSH1 0x0 DUP1 REVERT JUMPDEST PUSH2 0x317F DUP4 DUP4 CALLDATALOAD PUSH1 0x20 DUP6 ADD PUSH2 0x30C2 JUMP JUMPDEST SWAP4 SWAP3 POP POP POP JUMP JUMPDEST PUSH1 0x0 PUSH1 0x20 DUP3 DUP5 SUB SLT ISZERO PUSH2 0x3198 JUMPI PUSH1 0x0 DUP1 REVERT JUMPDEST PUSH2 0x317F DUP3 PUSH2 0x3138 JUMP JUMPDEST PUSH1 0x0 DUP1 PUSH1 0x40 DUP4 DUP6 SUB SLT ISZERO PUSH2 0x31B4 JUMPI PUSH1 0x0 DUP1 REVERT JUMPDEST PUSH2 0x31BD DUP4 PUSH2 0x3138 JUMP JUMPDEST SWAP2 POP PUSH2 0x31CB PUSH1 0x20 DUP5 ADD PUSH2 0x3138 JUMP JUMPDEST SWAP1 POP SWAP3 POP SWAP3 SWAP1 POP JUMP JUMPDEST PUSH1 0x0 DUP1 PUSH1 0x0 PUSH1 0x60 DUP5 DUP7 SUB SLT ISZERO PUSH2 0x31E9 JUMPI PUSH1 0x0 DUP1 REVERT JUMPDEST PUSH2 0x31F2 DUP5 PUSH2 0x3138 JUMP JUMPDEST SWAP3 POP PUSH2 0x3200 PUSH1 0x20 DUP6 ADD PUSH2 0x3138 JUMP JUMPDEST SWAP2 POP PUSH1 0x40 DUP5 ADD CALLDATALOAD SWAP1 POP SWAP3 POP SWAP3 POP SWAP3 JUMP JUMPDEST PUSH1 0x0 DUP1 PUSH1 0x0 DUP1 PUSH1 0x80 DUP6 DUP8 SUB SLT ISZERO PUSH2 0x3226 JUMPI PUSH1 0x0 DUP1 REVERT JUMPDEST PUSH2 0x322F DUP6 PUSH2 0x3138 JUMP JUMPDEST SWAP4 POP PUSH2 0x323D PUSH1 0x20 DUP7 ADD PUSH2 0x3138 JUMP JUMPDEST SWAP3 POP PUSH1 0x40 DUP6 ADD CALLDATALOAD SWAP2 POP PUSH1 0x60 DUP6 ADD CALLDATALOAD PUSH8 0xFFFFFFFFFFFFFFFF DUP2 GT ISZERO PUSH2 0x3260 JUMPI PUSH1 0x0 DUP1 REVERT JUMPDEST DUP6 ADD PUSH1 0x1F DUP2 ADD DUP8 SGT PUSH2 0x3271 JUMPI PUSH1 0x0 DUP1 REVERT JUMPDEST PUSH2 0x3280 DUP8 DUP3 CALLDATALOAD PUSH1 0x20 DUP5 ADD PUSH2 0x30C2 JUMP JUMPDEST SWAP2 POP POP SWAP3 SWAP6 SWAP2 SWAP5 POP SWAP3 POP JUMP JUMPDEST PUSH1 0x0 DUP1 PUSH1 0x40 DUP4 DUP6 SUB SLT ISZERO PUSH2 0x329F JUMPI PUSH1 0x0 DUP1 REVERT JUMPDEST PUSH2 0x32A8 DUP4 PUSH2 0x3138 JUMP JUMPDEST SWAP2 POP PUSH2 0x31CB PUSH1 0x20 DUP5 ADD PUSH2 0x314F JUMP JUMPDEST PUSH1 0x0 DUP1 PUSH1 0x40 DUP4 DUP6 SUB SLT ISZERO PUSH2 0x32C9 JUMPI PUSH1 0x0 DUP1 REVERT JUMPDEST PUSH2 0x32D2 DUP4 PUSH2 0x3138 JUMP JUMPDEST SWAP2 POP PUSH1 0x20 DUP4 ADD CALLDATALOAD PUSH8 0xFFFFFFFFFFFFFFFF DUP2 GT ISZERO PUSH2 0x32EE JUMPI PUSH1 0x0 DUP1 REVERT JUMPDEST PUSH2 0x32FA DUP6 DUP3 DUP7 ADD PUSH2 0x315F JUMP JUMPDEST SWAP2 POP POP SWAP3 POP SWAP3 SWAP1 POP JUMP JUMPDEST PUSH1 0x0 DUP1 PUSH1 0x0 PUSH1 0x60 DUP5 DUP7 SUB SLT ISZERO PUSH2 0x3319 JUMPI PUSH1 0x0 DUP1 REVERT JUMPDEST PUSH2 0x3322 DUP5 PUSH2 0x3138 JUMP JUMPDEST SWAP3 POP PUSH1 0x20 DUP5 ADD CALLDATALOAD PUSH8 0xFFFFFFFFFFFFFFFF DUP1 DUP3 GT ISZERO PUSH2 0x333F JUMPI PUSH1 0x0 DUP1 REVERT JUMPDEST PUSH2 0x334B DUP8 DUP4 DUP9 ADD PUSH2 0x315F JUMP JUMPDEST SWAP4 POP PUSH1 0x40 DUP7 ADD CALLDATALOAD SWAP2 POP DUP1 DUP3 GT ISZERO PUSH2 0x3361 JUMPI PUSH1 0x0 DUP1 REVERT JUMPDEST POP PUSH2 0x336E DUP7 DUP3 DUP8 ADD PUSH2 0x315F JUMP JUMPDEST SWAP2 POP POP SWAP3 POP SWAP3 POP SWAP3 JUMP JUMPDEST PUSH1 0x0 DUP1 PUSH1 0x40 DUP4 DUP6 SUB SLT ISZERO PUSH2 0x338B JUMPI PUSH1 0x0 DUP1 REVERT JUMPDEST PUSH2 0x3394 DUP4 PUSH2 0x3138 JUMP JUMPDEST SWAP5 PUSH1 0x20 SWAP4 SWAP1 SWAP4 ADD CALLDATALOAD SWAP4 POP POP POP JUMP JUMPDEST PUSH1 0x0 PUSH1 0x20 DUP3 DUP5 SUB SLT ISZERO PUSH2 0x33B4 JUMPI PUSH1 0x0 DUP1 REVERT JUMPDEST DUP2 CALLDATALOAD PUSH2 0x317F DUP2 PUSH2 0x3A33 JUMP JUMPDEST PUSH1 0x0 PUSH1 0x20 DUP3 DUP5 SUB SLT ISZERO PUSH2 0x33D1 JUMPI PUSH1 0x0 DUP1 REVERT JUMPDEST DUP2 MLOAD PUSH2 0x317F DUP2 PUSH2 0x3A33 JUMP JUMPDEST PUSH1 0x0 PUSH1 0x20 DUP3 DUP5 SUB SLT ISZERO PUSH2 0x33EE JUMPI PUSH1 0x0 DUP1 REVERT JUMPDEST DUP2 CALLDATALOAD PUSH8 0xFFFFFFFFFFFFFFFF DUP2 GT ISZERO PUSH2 0x3405 JUMPI PUSH1 0x0 DUP1 REVERT JUMPDEST PUSH2 0x276F DUP5 DUP3 DUP6 ADD PUSH2 0x315F JUMP JUMPDEST PUSH1 0x0 DUP1 PUSH1 0x40 DUP4 DUP6 SUB SLT ISZERO PUSH2 0x3424 JUMPI PUSH1 0x0 DUP1 REVERT JUMPDEST DUP3 CALLDATALOAD PUSH8 0xFFFFFFFFFFFFFFFF DUP1 DUP3 GT ISZERO PUSH2 0x343C JUMPI PUSH1 0x0 DUP1 REVERT JUMPDEST PUSH2 0x3448 DUP7 DUP4 DUP8 ADD PUSH2 0x315F JUMP JUMPDEST SWAP4 POP PUSH1 0x20 DUP6 ADD CALLDATALOAD SWAP2 POP DUP1 DUP3 GT ISZERO PUSH2 0x345E JUMPI PUSH1 0x0 DUP1 REVERT JUMPDEST POP PUSH2 0x32FA DUP6 DUP3 DUP7 ADD PUSH2 0x315F JUMP JUMPDEST PUSH1 0x0 PUSH1 0x20 DUP3 DUP5 SUB SLT ISZERO PUSH2 0x347D JUMPI PUSH1 0x0 DUP1 REVERT JUMPDEST POP CALLDATALOAD SWAP2 SWAP1 POP JUMP JUMPDEST PUSH1 0x0 DUP1 PUSH1 0x40 DUP4 DUP6 SUB SLT ISZERO PUSH2 0x3497 JUMPI PUSH1 0x0 DUP1 REVERT JUMPDEST DUP3 CALLDATALOAD SWAP2 POP PUSH2 0x31CB PUSH1 0x20 DUP5 ADD PUSH2 0x314F JUMP JUMPDEST PUSH1 0x0 DUP2 MLOAD DUP1 DUP5 MSTORE PUSH1 0x20 DUP1 DUP6 ADD DUP1 DUP2 SWAP7 POP DUP4 PUSH1 0x5 SHL DUP2 ADD SWAP2 POP DUP3 DUP7 ADD PUSH1 0x0 JUMPDEST DUP6 DUP2 LT ISZERO PUSH2 0x3515 JUMPI DUP3 DUP5 SUB DUP10 MSTORE DUP2 MLOAD PUSH1 0x40 DUP2 MLOAD DUP2 DUP8 MSTORE PUSH2 0x34E7 DUP3 DUP9 ADD DUP3 PUSH2 0x3522 JUMP JUMPDEST SWAP2 POP POP DUP7 DUP3 ADD MLOAD SWAP2 POP DUP6 DUP2 SUB DUP8 DUP8 ADD MSTORE PUSH2 0x3501 DUP2 DUP4 PUSH2 0x3522 JUMP JUMPDEST SWAP11 DUP8 ADD SWAP11 SWAP6 POP POP POP SWAP1 DUP5 ADD SWAP1 PUSH1 0x1 ADD PUSH2 0x34C5 JUMP JUMPDEST POP SWAP2 SWAP8 SWAP7 POP POP POP POP POP POP POP JUMP JUMPDEST PUSH1 0x0 DUP2 MLOAD DUP1 DUP5 MSTORE PUSH2 0x353A DUP2 PUSH1 0x20 DUP7 ADD PUSH1 0x20 DUP7 ADD PUSH2 0x392F JUMP JUMPDEST PUSH1 0x1F ADD PUSH1 0x1F NOT AND SWAP3 SWAP1 SWAP3 ADD PUSH1 0x20 ADD SWAP3 SWAP2 POP POP JUMP JUMPDEST PUSH1 0x0 DUP2 MLOAD PUSH1 0xA0 DUP5 MSTORE PUSH2 0x3563 PUSH1 0xA0 DUP6 ADD DUP3 PUSH2 0x3522 JUMP JUMPDEST SWAP1 POP PUSH1 0x1 PUSH1 0x1 PUSH1 0xA0 SHL SUB PUSH1 0x20 DUP5 ADD MLOAD AND PUSH1 0x20 DUP6 ADD MSTORE PUSH1 0x40 DUP4 ADD MLOAD PUSH1 0x40 DUP6 ADD MSTORE PUSH1 0x60 DUP4 ADD MLOAD PUSH1 0x60 DUP6 ADD MSTORE PUSH1 0x80 DUP4 ADD MLOAD DUP5 DUP3 SUB PUSH1 0x80 DUP7 ADD MSTORE PUSH2 0x35A3 DUP3 DUP3 PUSH2 0x3522 JUMP JUMPDEST SWAP6 SWAP5 POP POP POP POP POP JUMP JUMPDEST PUSH1 0x0 DUP1 DUP4 SLOAD DUP2 PUSH1 0x1 DUP3 DUP2 SHR SWAP2 POP DUP1 DUP4 AND DUP1 PUSH2 0x35C8 JUMPI PUSH1 0x7F DUP4 AND SWAP3 POP JUMPDEST PUSH1 0x20 DUP1 DUP5 LT DUP3 EQ ISZERO PUSH2 0x35E8 JUMPI PUSH4 0x4E487B71 PUSH1 0xE0 SHL DUP7 MSTORE PUSH1 0x22 PUSH1 0x4 MSTORE PUSH1 0x24 DUP7 REVERT JUMPDEST DUP2 DUP1 ISZERO PUSH2 0x35FC JUMPI PUSH1 0x1 DUP2 EQ PUSH2 0x360D JUMPI PUSH2 0x363A JUMP JUMPDEST PUSH1 0xFF NOT DUP7 AND DUP10 MSTORE DUP5 DUP10 ADD SWAP7 POP PUSH2 0x363A JUMP JUMPDEST PUSH1 0x0 DUP11 DUP2 MSTORE PUSH1 0x20 SWAP1 KECCAK256 PUSH1 0x0 JUMPDEST DUP7 DUP2 LT ISZERO PUSH2 0x3632 JUMPI DUP2 SLOAD DUP12 DUP3 ADD MSTORE SWAP1 DUP6 ADD SWAP1 DUP4 ADD PUSH2 0x3619 JUMP JUMPDEST POP POP DUP5 DUP10 ADD SWAP7 POP JUMPDEST POP SWAP5 SWAP9 SWAP8 POP POP POP POP POP POP POP POP JUMP JUMPDEST PUSH1 0x0 DUP4 MLOAD PUSH2 0x365A DUP2 DUP5 PUSH1 0x20 DUP9 ADD PUSH2 0x392F JUMP JUMPDEST DUP4 MLOAD SWAP1 DUP4 ADD SWAP1 PUSH2 0x366E DUP2 DUP4 PUSH1 0x20 DUP9 ADD PUSH2 0x392F JUMP JUMPDEST ADD SWAP5 SWAP4 POP POP POP POP JUMP JUMPDEST PUSH1 0x0 DUP3 MLOAD DUP1 MLOAD PUSH2 0x368B DUP2 DUP6 PUSH1 0x20 DUP6 ADD PUSH2 0x392F JUMP JUMPDEST PUSH1 0x1F NOT SWAP2 POP DUP2 PUSH1 0x1F DUP3 ADD AND DUP5 ADD SWAP1 POP PUSH1 0x1 PUSH1 0x1 PUSH1 0xA0 SHL SUB PUSH1 0x20 DUP7 ADD MLOAD AND DUP2 MSTORE PUSH1 0x40 DUP6 ADD MLOAD PUSH1 0x20 DUP3 ADD MSTORE PUSH1 0x60 DUP6 ADD MLOAD PUSH1 0x40 DUP3 ADD MSTORE PUSH1 0x80 DUP6 ADD MLOAD DUP1 MLOAD PUSH2 0x36D6 DUP2 PUSH1 0x60 DUP6 ADD PUSH1 0x20 DUP6 ADD PUSH2 0x392F JUMP JUMPDEST PUSH1 0x1F ADD SWAP1 SWAP3 AND ADD PUSH1 0x60 ADD SWAP5 SWAP4 POP POP POP POP JUMP JUMPDEST PUSH1 0x0 PUSH1 0x1 PUSH1 0x1 PUSH1 0xA0 SHL SUB DUP1 DUP8 AND DUP4 MSTORE DUP1 DUP7 AND PUSH1 0x20 DUP5 ADD MSTORE POP DUP4 PUSH1 0x40 DUP4 ADD MSTORE PUSH1 0x80 PUSH1 0x60 DUP4 ADD MSTORE PUSH2 0x371A PUSH1 0x80 DUP4 ADD DUP5 PUSH2 0x3522 JUMP JUMPDEST SWAP7 SWAP6 POP POP POP POP POP POP JUMP JUMPDEST PUSH1 0x0 PUSH1 0x20 DUP1 DUP4 ADD DUP2 DUP5 MSTORE DUP1 DUP6 MLOAD DUP1 DUP4 MSTORE PUSH1 0x40 DUP7 ADD SWAP2 POP PUSH1 0x40 DUP2 PUSH1 0x5 SHL DUP8 ADD ADD SWAP3 POP DUP4 DUP8 ADD PUSH1 0x0 JUMPDEST DUP3 DUP2 LT ISZERO PUSH2 0x3779 JUMPI PUSH1 0x3F NOT DUP9 DUP7 SUB ADD DUP5 MSTORE PUSH2 0x3767 DUP6 DUP4 MLOAD PUSH2 0x354E JUMP JUMPDEST SWAP5 POP SWAP3 DUP6 ADD SWAP3 SWAP1 DUP6 ADD SWAP1 PUSH1 0x1 ADD PUSH2 0x374B JUMP JUMPDEST POP SWAP3 SWAP8 SWAP7 POP POP POP POP POP POP POP JUMP JUMPDEST PUSH1 0x20 DUP2 MSTORE PUSH1 0x0 PUSH2 0x317F PUSH1 0x20 DUP4 ADD DUP5 PUSH2 0x34A7 JUMP JUMPDEST PUSH1 0x20 DUP1 DUP3 MSTORE DUP3 MLOAD DUP3 DUP3 ADD DUP2 SWAP1 MSTORE PUSH1 0x0 SWAP2 SWAP1 DUP5 DUP3 ADD SWAP1 PUSH1 0x40 DUP6 ADD SWAP1 DUP5 JUMPDEST DUP2 DUP2 LT ISZERO PUSH2 0x37D1 JUMPI DUP4 MLOAD DUP4 MSTORE SWAP3 DUP5 ADD SWAP3 SWAP2 DUP5 ADD SWAP2 PUSH1 0x1 ADD PUSH2 0x37B5 JUMP JUMPDEST POP SWAP1 SWAP7 SWAP6 POP POP POP POP POP POP JUMP JUMPDEST PUSH1 0x20 DUP2 MSTORE PUSH1 0x0 PUSH2 0x317F PUSH1 0x20 DUP4 ADD DUP5 PUSH2 0x3522 JUMP JUMPDEST PUSH1 0xA0 DUP2 MSTORE PUSH1 0x0 PUSH2 0x3803 PUSH1 0xA0 DUP4 ADD DUP9 PUSH2 0x3522 JUMP JUMPDEST PUSH1 0x1 PUSH1 0x1 PUSH1 0xA0 SHL SUB DUP8 AND PUSH1 0x20 DUP5 ADD MSTORE DUP6 PUSH1 0x40 DUP5 ADD MSTORE DUP5 PUSH1 0x60 DUP5 ADD MSTORE DUP3 DUP2 SUB PUSH1 0x80 DUP5 ADD MSTORE PUSH2 0x3830 DUP2 DUP6 PUSH2 0x3522 JUMP JUMPDEST SWAP9 SWAP8 POP POP POP POP POP POP POP POP JUMP JUMPDEST PUSH1 0x20 DUP2 MSTORE PUSH1 0x0 PUSH2 0x317F PUSH1 0x20 DUP4 ADD DUP5 PUSH2 0x354E JUMP JUMPDEST PUSH1 0x20 DUP2 MSTORE DUP2 MLOAD PUSH1 0x20 DUP3 ADD MSTORE PUSH1 0x1 PUSH1 0x1 PUSH1 0xA0 SHL SUB PUSH1 0x20 DUP4 ADD MLOAD AND PUSH1 0x40 DUP3 ADD MSTORE PUSH1 0x0 PUSH1 0x40 DUP4 ADD MLOAD PUSH1 0xE0 PUSH1 0x60 DUP5 ADD MSTORE PUSH2 0x3889 PUSH2 0x100 DUP5 ADD DUP3 PUSH2 0x3522 JUMP JUMPDEST SWAP1 POP PUSH1 0x60 DUP5 ADD MLOAD PUSH1 0x1F NOT DUP1 DUP6 DUP5 SUB ADD PUSH1 0x80 DUP7 ADD MSTORE PUSH2 0x38A7 DUP4 DUP4 PUSH2 0x3522 JUMP JUMPDEST SWAP3 POP PUSH1 0x80 DUP7 ADD MLOAD PUSH1 0xA0 DUP7 ADD MSTORE PUSH1 0xA0 DUP7 ADD MLOAD SWAP2 POP DUP1 DUP6 DUP5 SUB ADD PUSH1 0xC0 DUP7 ADD MSTORE PUSH2 0x38CE DUP4 DUP4 PUSH2 0x34A7 JUMP JUMPDEST SWAP3 POP PUSH1 0xC0 DUP7 ADD MLOAD SWAP2 POP DUP1 DUP6 DUP5 SUB ADD PUSH1 0xE0 DUP7 ADD MSTORE POP PUSH2 0x35A3 DUP3 DUP3 PUSH2 0x34A7 JUMP JUMPDEST PUSH1 0x0 DUP3 NOT DUP3 GT ISZERO PUSH2 0x38FF JUMPI PUSH2 0x38FF PUSH2 0x39C5 JUMP JUMPDEST POP ADD SWAP1 JUMP JUMPDEST PUSH1 0x0 DUP3 PUSH2 0x3913 JUMPI PUSH2 0x3913 PUSH2 0x39DB JUMP JUMPDEST POP DIV SWAP1 JUMP JUMPDEST PUSH1 0x0 DUP3 DUP3 LT ISZERO PUSH2 0x392A JUMPI PUSH2 0x392A PUSH2 0x39C5 JUMP JUMPDEST POP SUB SWAP1 JUMP JUMPDEST PUSH1 0x0 JUMPDEST DUP4 DUP2 LT ISZERO PUSH2 0x394A JUMPI DUP2 DUP2 ADD MLOAD DUP4 DUP3 ADD MSTORE PUSH1 0x20 ADD PUSH2 0x3932 JUMP JUMPDEST DUP4 DUP2 GT ISZERO PUSH2 0x1F38 JUMPI POP POP PUSH1 0x0 SWAP2 ADD MSTORE JUMP JUMPDEST PUSH1 0x1 DUP2 DUP2 SHR SWAP1 DUP3 AND DUP1 PUSH2 0x396F JUMPI PUSH1 0x7F DUP3 AND SWAP2 POP JUMPDEST PUSH1 0x20 DUP3 LT DUP2 EQ ISZERO PUSH2 0x3990 JUMPI PUSH4 0x4E487B71 PUSH1 0xE0 SHL PUSH1 0x0 MSTORE PUSH1 0x22 PUSH1 0x4 MSTORE PUSH1 0x24 PUSH1 0x0 REVERT JUMPDEST POP SWAP2 SWAP1 POP JUMP JUMPDEST PUSH1 0x0 PUSH1 0x0 NOT DUP3 EQ ISZERO PUSH2 0x39AA JUMPI PUSH2 0x39AA PUSH2 0x39C5 JUMP JUMPDEST POP PUSH1 0x1 ADD SWAP1 JUMP JUMPDEST PUSH1 0x0 DUP3 PUSH2 0x39C0 JUMPI PUSH2 0x39C0 PUSH2 0x39DB JUMP JUMPDEST POP MOD SWAP1 JUMP JUMPDEST PUSH4 0x4E487B71 PUSH1 0xE0 SHL PUSH1 0x0 MSTORE PUSH1 0x11 PUSH1 0x4 MSTORE PUSH1 0x24 PUSH1 0x0 REVERT JUMPDEST PUSH4 0x4E487B71 PUSH1 0xE0 SHL PUSH1 0x0 MSTORE PUSH1 0x12 PUSH1 0x4 MSTORE PUSH1 0x24 PUSH1 0x0 REVERT JUMPDEST PUSH4 0x4E487B71 PUSH1 0xE0 SHL PUSH1 0x0 MSTORE PUSH1 0x31 PUSH1 0x4 MSTORE PUSH1 0x24 PUSH1 0x0 REVERT JUMPDEST PUSH4 0x4E487B71 PUSH1 0xE0 SHL PUSH1 0x0 MSTORE PUSH1 0x32 PUSH1 0x4 MSTORE PUSH1 0x24 PUSH1 0x0 REVERT JUMPDEST PUSH4 0x4E487B71 PUSH1 0xE0 SHL PUSH1 0x0 MSTORE PUSH1 0x41 PUSH1 0x4 MSTORE PUSH1 0x24 PUSH1 0x0 REVERT JUMPDEST PUSH1 0x1 PUSH1 0x1 PUSH1 0xE0 SHL SUB NOT DUP2 AND DUP2 EQ PUSH2 0x2687 JUMPI PUSH1 0x0 DUP1 REVERT INVALID LOG2 PUSH5 0x6970667358 0x22 SLT KECCAK256 0xC3 0x2F 0x5C 0xD0 PUSH22 0x2B0431FFE10CD873C5EFE637FA7238FF3830F1BB5921 SHL DUP4 KECCAK256 0xDF SUB PUSH5 0x736F6C6343 STOP ADDMOD SMOD STOP CALLER LOG2 PUSH5 0x6970667358 0x22 SLT KECCAK256 0xE 0x2D 0xA6 0xCB 0x4D 0xA9 SIGNEXTEND 0xDE 0xD0 PUSH13 0x7FC18693857DDECF653598C590 DIFFICULTY GAS PUSH32 0xC1345A2C430764736F6C63430008070033000000000000000000000000000000 "},"methodIdentifiers":{"deployTambora(string,string,uint256,string,address,string)":"4f8bd198","getContractAddress(string)":"04433bbc","getDeployedContracts()":"aa9a068f","getNames()":"cd838f0f","getOwnedContracts(address)":"e5d2f8e3","names(uint256)":"4622ab03"}}}}}