{"contracts/Tambora.sol":{"Tambora":{"abi":[{"inputs":[{"internalType":"address","name":"deployer","type":"address"},{"internalType":"string","name":"name","type":"string"},{"internalType":"string","name":"symbol","type":"string"},{"internalType":"uint256","name":"price_","type":"uint256"},{"internalType":"string","name":"contractType_","type":"string"},{"internalType":"address","name":"to_","type":"address"},{"internalType":"string","name":"uri_","type":"string"},{"internalType":"address","name":"factoryOwner_","type":"address"}],"stateMutability":"nonpayable","type":"constructor"},{"anonymous":false,"inputs":[{"indexed":true,"internalType":"address","name":"owner","type":"address"},{"indexed":true,"internalType":"address","name":"approved","type":"address"},{"indexed":true,"internalType":"uint256","name":"tokenId","type":"uint256"}],"name":"Approval","type":"event"},{"anonymous":false,"inputs":[{"indexed":true,"internalType":"address","name":"owner","type":"address"},{"indexed":true,"internalType":"address","name":"operator","type":"address"},{"indexed":false,"internalType":"bool","name":"approved","type":"bool"}],"name":"ApprovalForAll","type":"event"},{"anonymous":false,"inputs":[{"components":[{"internalType":"string","name":"name","type":"string"},{"internalType":"address","name":"addr","type":"address"}],"indexed":true,"internalType":"struct Tambora.Client","name":"clientData","type":"tuple"}],"name":"Request","type":"event"},{"anonymous":false,"inputs":[{"components":[{"internalType":"string","name":"name","type":"string"},{"internalType":"address","name":"addr","type":"address"}],"indexed":true,"internalType":"struct Tambora.Client","name":"clientData","type":"tuple"},{"indexed":true,"internalType":"bool","name":"res","type":"bool"}],"name":"Response","type":"event"},{"anonymous":false,"inputs":[{"indexed":true,"internalType":"address","name":"from","type":"address"},{"indexed":true,"internalType":"address","name":"to","type":"address"},{"indexed":true,"internalType":"uint256","name":"tokenId","type":"uint256"}],"name":"Transfer","type":"event"},{"inputs":[{"internalType":"string","name":"name_","type":"string"},{"internalType":"string","name":"uri_","type":"string"}],"name":"addFileLocation","outputs":[],"stateMutability":"nonpayable","type":"function"},{"inputs":[{"internalType":"string","name":"uri_","type":"string"},{"internalType":"string","name":"name_","type":"string"},{"internalType":"uint256","name":"mintId_","type":"uint256"}],"name":"addIndividualFile","outputs":[],"stateMutability":"nonpayable","type":"function"},{"inputs":[{"internalType":"uint256","name":"","type":"uint256"}],"name":"allTokens","outputs":[{"internalType":"uint256","name":"blockNumber","type":"uint256"},{"internalType":"uint256","name":"timeStamp","type":"uint256"},{"internalType":"string","name":"uri","type":"string"}],"stateMutability":"view","type":"function"},{"inputs":[{"internalType":"address","name":"to","type":"address"},{"internalType":"uint256","name":"tokenId","type":"uint256"}],"name":"approve","outputs":[],"stateMutability":"nonpayable","type":"function"},{"inputs":[{"internalType":"uint256","name":"index","type":"uint256"},{"internalType":"bool","name":"decision","type":"bool"}],"name":"approveOrDenyClient","outputs":[],"stateMutability":"nonpayable","type":"function"},{"inputs":[{"internalType":"address","name":"","type":"address"}],"name":"approvedName","outputs":[{"internalType":"string","name":"","type":"string"}],"stateMutability":"view","type":"function"},{"inputs":[{"internalType":"address","name":"owner","type":"address"}],"name":"balanceOf","outputs":[{"internalType":"uint256","name":"","type":"uint256"}],"stateMutability":"view","type":"function"},{"inputs":[],"name":"contractType","outputs":[{"internalType":"string","name":"","type":"string"}],"stateMutability":"view","type":"function"},{"inputs":[{"internalType":"string","name":"uri","type":"string"}],"name":"finalizeClient","outputs":[],"stateMutability":"payable","type":"function"},{"inputs":[{"internalType":"uint256","name":"tokenId","type":"uint256"}],"name":"getApproved","outputs":[{"internalType":"address","name":"","type":"address"}],"stateMutability":"view","type":"function"},{"inputs":[],"name":"getFileStore","outputs":[{"components":[{"internalType":"string","name":"name","type":"string"},{"internalType":"string","name":"uri","type":"string"}],"internalType":"struct Tambora.File[]","name":"","type":"tuple[]"}],"stateMutability":"view","type":"function"},{"inputs":[],"name":"getPendingClients","outputs":[{"components":[{"internalType":"string","name":"name","type":"string"},{"internalType":"address","name":"addr","type":"address"}],"internalType":"struct Tambora.Client[]","name":"","type":"tuple[]"}],"stateMutability":"view","type":"function"},{"inputs":[],"name":"getShowData","outputs":[{"components":[{"internalType":"uint256","name":"tokenId","type":"uint256"},{"internalType":"address","name":"manager","type":"address"},{"internalType":"string","name":"contractType","type":"string"},{"internalType":"string","name":"tokenURI","type":"string"},{"components":[{"internalType":"string","name":"name","type":"string"},{"internalType":"string","name":"uri","type":"string"}],"internalType":"struct Tambora.File[]","name":"fileStore","type":"tuple[]"},{"components":[{"internalType":"string","name":"name","type":"string"},{"internalType":"string","name":"uri","type":"string"}],"internalType":"struct Tambora.File[]","name":"individualFilestore","type":"tuple[]"}],"internalType":"struct Tambora.ShowData","name":"","type":"tuple"}],"stateMutability":"view","type":"function"},{"inputs":[{"internalType":"uint256","name":"mintId_","type":"uint256"}],"name":"increaseClientMintAllowance","outputs":[],"stateMutability":"payable","type":"function"},{"inputs":[],"name":"increaseContractMintAllowance","outputs":[],"stateMutability":"payable","type":"function"},{"inputs":[{"internalType":"address","name":"","type":"address"}],"name":"isApproved","outputs":[{"internalType":"bool","name":"","type":"bool"}],"stateMutability":"view","type":"function"},{"inputs":[{"internalType":"address","name":"owner","type":"address"},{"internalType":"address","name":"operator","type":"address"}],"name":"isApprovedForAll","outputs":[{"internalType":"bool","name":"","type":"bool"}],"stateMutability":"view","type":"function"},{"inputs":[{"internalType":"address","name":"","type":"address"}],"name":"isPending","outputs":[{"internalType":"bool","name":"","type":"bool"}],"stateMutability":"view","type":"function"},{"inputs":[{"internalType":"uint256","name":"","type":"uint256"}],"name":"memberTokens","outputs":[{"internalType":"uint256","name":"mintId","type":"uint256"},{"internalType":"uint256","name":"minted","type":"uint256"},{"internalType":"uint256","name":"mintAllowance","type":"uint256"}],"stateMutability":"view","type":"function"},{"inputs":[{"internalType":"address","name":"to_","type":"address"},{"internalType":"string","name":"uri","type":"string"},{"internalType":"uint256","name":"mintId_","type":"uint256"}],"name":"mint","outputs":[],"stateMutability":"payable","type":"function"},{"inputs":[],"name":"name","outputs":[{"internalType":"string","name":"","type":"string"}],"stateMutability":"view","type":"function"},{"inputs":[],"name":"owner","outputs":[{"internalType":"address","name":"","type":"address"}],"stateMutability":"view","type":"function"},{"inputs":[{"internalType":"uint256","name":"tokenId","type":"uint256"}],"name":"ownerOf","outputs":[{"internalType":"address","name":"","type":"address"}],"stateMutability":"view","type":"function"},{"inputs":[],"name":"price","outputs":[{"internalType":"uint256","name":"","type":"uint256"}],"stateMutability":"view","type":"function"},{"inputs":[{"internalType":"string","name":"name","type":"string"}],"name":"requestApproval","outputs":[],"stateMutability":"nonpayable","type":"function"},{"inputs":[{"internalType":"address","name":"from","type":"address"},{"internalType":"address","name":"to","type":"address"},{"internalType":"uint256","name":"tokenId","type":"uint256"}],"name":"safeTransferFrom","outputs":[],"stateMutability":"nonpayable","type":"function"},{"inputs":[{"internalType":"address","name":"from","type":"address"},{"internalType":"address","name":"to","type":"address"},{"internalType":"uint256","name":"tokenId","type":"uint256"},{"internalType":"bytes","name":"data","type":"bytes"}],"name":"safeTransferFrom","outputs":[],"stateMutability":"nonpayable","type":"function"},{"inputs":[{"internalType":"address","name":"operator","type":"address"},{"internalType":"bool","name":"approved","type":"bool"}],"name":"setApprovalForAll","outputs":[],"stateMutability":"nonpayable","type":"function"},{"inputs":[{"internalType":"bytes4","name":"interfaceId","type":"bytes4"}],"name":"supportsInterface","outputs":[{"internalType":"bool","name":"","type":"bool"}],"stateMutability":"view","type":"function"},{"inputs":[],"name":"symbol","outputs":[{"internalType":"string","name":"","type":"string"}],"stateMutability":"view","type":"function"},{"inputs":[{"internalType":"uint256","name":"index","type":"uint256"}],"name":"tokenByIndex","outputs":[{"internalType":"uint256","name":"","type":"uint256"}],"stateMutability":"view","type":"function"},{"inputs":[{"internalType":"address","name":"owner","type":"address"},{"internalType":"uint256","name":"index","type":"uint256"}],"name":"tokenOfOwnerByIndex","outputs":[{"internalType":"uint256","name":"","type":"uint256"}],"stateMutability":"view","type":"function"},{"inputs":[{"internalType":"uint256","name":"tokenId_","type":"uint256"}],"name":"tokenURI","outputs":[{"internalType":"string","name":"","type":"string"}],"stateMutability":"view","type":"function"},{"inputs":[],"name":"totalSupply","outputs":[{"internalType":"uint256","name":"","type":"uint256"}],"stateMutability":"view","type":"function"},{"inputs":[{"internalType":"address","name":"from","type":"address"},{"internalType":"address","name":"to","type":"address"},{"internalType":"uint256","name":"tokenId","type":"uint256"}],"name":"transferFrom","outputs":[],"stateMutability":"nonpayable","type":"function"}],"evm":{"bytecode":{"linkReferences":{},"object":"60806040523480156200001157600080fd5b5060405162004059380380620040598339810160408190526200003491620008b1565b8651879087906200004d90600090602085019062000737565b5080516200006390600190602084019062000737565b5050600b80546001600160a01b03808c166001600160a01b031992831617909255600a80549285169290911691909117905550600d8590558351620000b090601090602087019062000737565b50600a600f81905560408051606081018252600080825260016020808401918252938301948552818052601690935290517f0263c2b778d062355049effc2dece97bc6547ff8a88a3258daa512061c2153dd5590517f0263c2b778d062355049effc2dece97bc6547ff8a88a3258daa512061c2153de5590517f0263c2b778d062355049effc2dece97bc6547ff8a88a3258daa512061c2153df556200015890849062000220565b620001656000836200037a565b6001600c5560408051606081018252438152426020808301918252928201858152600080526017845282517fd840e16649f6b9a295d95876f4633d3a6b10b55e8162971cf78afd886d5ec89b90815591517fd840e16649f6b9a295d95876f4633d3a6b10b55e8162971cf78afd886d5ec89c55518051929391926200020e927fd840e16649f6b9a295d95876f4633d3a6b10b55e8162971cf78afd886d5ec89d92019062000737565b50905050505050505050505062000a77565b6001600160a01b0382166200027c5760405162461bcd60e51b815260206004820181905260248201527f4552433732313a206d696e7420746f20746865207a65726f206164647265737360448201526064015b60405180910390fd5b6000818152600260205260409020546001600160a01b031615620002e35760405162461bcd60e51b815260206004820152601c60248201527f4552433732313a20746f6b656e20616c7265616479206d696e74656400000000604482015260640162000273565b620002f1600083836200041b565b6001600160a01b03821660009081526003602052604081208054600192906200031c908490620009ad565b909155505060008181526002602052604080822080546001600160a01b0319166001600160a01b03861690811790915590518392907fddf252ad1be2c89b69c2b068fc378daa952ba7f163c4a11628f55a4df523b3ef908290a45050565b6000828152600260205260409020546001600160a01b0316620003f55760405162461bcd60e51b815260206004820152602c60248201527f4552433732314d657461646174613a2055524920736574206f66206e6f6e657860448201526b34b9ba32b73a103a37b5b2b760a11b606482015260840162000273565b60008281526011602090815260409091208251620004169284019062000737565b505050565b620004338383836200041660201b6200092c1760201c565b6001600160a01b03831662000491576200048b81600880546000838152600960205260408120829055600182018355919091527ff3f7a9fe364faab93b216da50a3214154f22a0a2b415b23a84c8169e8b636ee30155565b620004b7565b816001600160a01b0316836001600160a01b031614620004b757620004b78382620004f7565b6001600160a01b038216620004d1576200041681620005a4565b826001600160a01b0316826001600160a01b03161462000416576200041682826200065e565b600060016200051184620006af60201b620010781760201c565b6200051d9190620009c8565b60008381526007602052604090205490915080821462000571576001600160a01b03841660009081526006602090815260408083208584528252808320548484528184208190558352600790915290208190555b5060009182526007602090815260408084208490556001600160a01b039094168352600681528383209183525290812055565b600854600090620005b890600190620009c8565b60008381526009602052604081205460088054939450909284908110620005e357620005e362000a4b565b90600052602060002001549050806008838154811062000607576200060762000a4b565b600091825260208083209091019290925582815260099091526040808220849055858252812055600880548062000642576200064262000a35565b6001900381819060005260206000200160009055905550505050565b60006200067683620006af60201b620010781760201c565b6001600160a01b039093166000908152600660209081526040808320868452825280832085905593825260079052919091209190915550565b60006001600160a01b0382166200071b5760405162461bcd60e51b815260206004820152602960248201527f4552433732313a2061646472657373207a65726f206973206e6f7420612076616044820152683634b21037bbb732b960b91b606482015260840162000273565b506001600160a01b031660009081526003602052604090205490565b8280546200074590620009e2565b90600052602060002090601f016020900481019282620007695760008555620007b4565b82601f106200078457805160ff1916838001178555620007b4565b82800160010185558215620007b4579182015b82811115620007b457825182559160200191906001019062000797565b50620007c2929150620007c6565b5090565b5b80821115620007c25760008155600101620007c7565b80516001600160a01b0381168114620007f557600080fd5b919050565b600082601f8301126200080c57600080fd5b81516001600160401b038082111562000829576200082962000a61565b604051601f8301601f19908116603f0116810190828211818310171562000854576200085462000a61565b816040528381526020925086838588010111156200087157600080fd5b600091505b8382101562000895578582018301518183018401529082019062000876565b83821115620008a75760008385830101525b9695505050505050565b600080600080600080600080610100898b031215620008cf57600080fd5b620008da89620007dd565b60208a01519098506001600160401b0380821115620008f857600080fd5b620009068c838d01620007fa565b985060408b01519150808211156200091d57600080fd5b6200092b8c838d01620007fa565b975060608b0151965060808b01519150808211156200094957600080fd5b620009578c838d01620007fa565b95506200096760a08c01620007dd565b945060c08b01519150808211156200097e57600080fd5b506200098d8b828c01620007fa565b9250506200099e60e08a01620007dd565b90509295985092959890939650565b60008219821115620009c357620009c362000a1f565b500190565b600082821015620009dd57620009dd62000a1f565b500390565b600181811c90821680620009f757607f821691505b6020821081141562000a1957634e487b7160e01b600052602260045260246000fd5b50919050565b634e487b7160e01b600052601160045260246000fd5b634e487b7160e01b600052603160045260246000fd5b634e487b7160e01b600052603260045260246000fd5b634e487b7160e01b600052604160045260246000fd5b6135d28062000a876000396000f3fe6080604052600436106102345760003560e01c806370a0823111610138578063aeb20b94116100b0578063c87b56dd1161007f578063e985e9c511610064578063e985e9c51461068e578063eb58f0ec146106d7578063f9dc375f146106ea57600080fd5b8063c87b56dd14610659578063cb2ef6f71461067957600080fd5b8063aeb20b94146105ad578063af80a5be14610604578063b88d4fde14610626578063ba7aef431461064657600080fd5b806397a3334211610107578063a035b1fe116100ec578063a035b1fe14610557578063a22cb4651461056d578063a28039cd1461058d57600080fd5b806397a3334214610507578063a00745b61461052757600080fd5b806370a08231146104945780638da5cb5b146104b457806395d89b41146104d257806396761595146104e757600080fd5b80632f745c59116101cb5780635a9be11b1161019a578063634282af1161017f578063634282af146104155780636352211e14610444578063673448dd1461046457600080fd5b80635a9be11b146103eb5780635bf61cfe146103f357600080fd5b80632f745c591461036b5780634261917a1461038b57806342842e0e146103ab5780634f6ccce7146103cb57600080fd5b80630e37b4fd116102075780630e37b4fd146102ea57806318160ddd1461030c5780631fceaae01461032b57806323b872dd1461034b57600080fd5b806301ffc9a71461023957806306fdde031461026e578063081812fc14610290578063095ea7b3146102c8575b600080fd5b34801561024557600080fd5b50610259610254366004613029565b6106fd565b60405190151581526020015b60405180910390f35b34801561027a57600080fd5b50610283610741565b6040516102659190613372565b34801561029c57600080fd5b506102b06102ab366004613158565b6107d3565b6040516001600160a01b039091168152602001610265565b3480156102d457600080fd5b506102e86102e3366004612fff565b6107fa565b005b3480156102f657600080fd5b506102ff610931565b604051610265919061335f565b34801561031857600080fd5b506008545b604051908152602001610265565b34801561033757600080fd5b506102e86103463660046130fc565b610ac9565b34801561035757600080fd5b506102e8610366366004612ec6565b610b3f565b34801561037757600080fd5b5061031d610386366004612fff565b610bc6565b34801561039757600080fd5b506102e86103a6366004613098565b610c6e565b3480156103b757600080fd5b506102e86103c6366004612ec6565b610cd7565b3480156103d757600080fd5b5061031d6103e6366004613158565b610cf2565b6102e8610d96565b3480156103ff57600080fd5b50610408610e6d565b60405161026591906132e0565b34801561042157600080fd5b50610435610430366004613158565b610f68565b60405161026593929190613420565b34801561045057600080fd5b506102b061045f366004613158565b611013565b34801561047057600080fd5b5061025961047f366004612e78565b60136020526000908152604090205460ff1681565b3480156104a057600080fd5b5061031d6104af366004612e78565b611078565b3480156104c057600080fd5b50600b546001600160a01b03166102b0565b3480156104de57600080fd5b50610283611112565b3480156104f357600080fd5b506102e8610502366004613063565b611121565b34801561051357600080fd5b50610283610522366004612e78565b61122b565b34801561053357600080fd5b50610259610542366004612e78565b60126020526000908152604090205460ff1681565b34801561056357600080fd5b5061031d600d5481565b34801561057957600080fd5b506102e8610588366004612f7e565b6112c5565b34801561059957600080fd5b506102e86105a8366004613171565b6112d4565b3480156105b957600080fd5b506105e96105c8366004613158565b60166020526000908152604090208054600182015460029092015490919083565b60408051938452602084019290925290820152606001610265565b34801561061057600080fd5b50610619611562565b6040516102659190613385565b34801561063257600080fd5b506102e8610641366004612f02565b61198b565b6102e8610654366004612fa8565b611a19565b34801561066557600080fd5b50610283610674366004613158565b611bfd565b34801561068557600080fd5b50610283611d9a565b34801561069a57600080fd5b506102596106a9366004612e93565b6001600160a01b03918216600090815260056020908152604080832093909416825291909152205460ff1690565b6102e86106e5366004613158565b611da7565b6102e86106f8366004613063565b611e6c565b60006001600160e01b031982167f780e9d6300000000000000000000000000000000000000000000000000000000148061073b575061073b82611ff2565b92915050565b606060008054610750906134ae565b80601f016020809104026020016040519081016040528092919081815260200182805461077c906134ae565b80156107c95780601f1061079e576101008083540402835291602001916107c9565b820191906000526020600020905b8154815290600101906020018083116107ac57829003601f168201915b5050505050905090565b60006107de8261208d565b506000908152600460205260409020546001600160a01b031690565b600061080582611013565b9050806001600160a01b0316836001600160a01b031614156108945760405162461bcd60e51b815260206004820152602160248201527f4552433732313a20617070726f76616c20746f2063757272656e74206f776e6560448201527f720000000000000000000000000000000000000000000000000000000000000060648201526084015b60405180910390fd5b336001600160a01b03821614806108b057506108b081336106a9565b6109225760405162461bcd60e51b815260206004820152603e60248201527f4552433732313a20617070726f76652063616c6c6572206973206e6f7420746f60448201527f6b656e206f776e6572206e6f7220617070726f76656420666f7220616c6c0000606482015260840161088b565b61092c83836120f1565b505050565b6060600061093e33611078565b1161094857600080fd5b6019805480602002602001604051908101604052809291908181526020016000905b82821015610ac0578382906000526020600020906002020160405180604001604052908160008201805461099d906134ae565b80601f01602080910402602001604051908101604052809291908181526020018280546109c9906134ae565b8015610a165780601f106109eb57610100808354040283529160200191610a16565b820191906000526020600020905b8154815290600101906020018083116109f957829003601f168201915b50505050508152602001600182018054610a2f906134ae565b80601f0160208091040260200160405190810160405280929190818152602001828054610a5b906134ae565b8015610aa85780601f10610a7d57610100808354040283529160200191610aa8565b820191906000526020600020905b815481529060010190602001808311610a8b57829003601f168201915b5050505050815250508152602001906001019061096a565b50505050905090565b610ad161216c565b6000818152601560209081526040808320815180830190925285825281830187905280546001810182559084529282902081518051929460020290910192610b1e92849290910190612c65565b506020828101518051610b379260018501920190612c65565b505050505050565b610b4933826121c8565b610bbb5760405162461bcd60e51b815260206004820152602e60248201527f4552433732313a2063616c6c6572206973206e6f7420746f6b656e206f776e6560448201527f72206e6f7220617070726f766564000000000000000000000000000000000000606482015260840161088b565b61092c838383612247565b6000610bd183611078565b8210610c455760405162461bcd60e51b815260206004820152602b60248201527f455243373231456e756d657261626c653a206f776e657220696e646578206f7560448201527f74206f6620626f756e6473000000000000000000000000000000000000000000606482015260840161088b565b506001600160a01b03919091166000908152600660209081526040808320938352929052205490565b610c7661216c565b6040805180820190915282815260208082018390526019805460018101825560009190915282518051849360029093027f944998273e477b495144fb8794c914197f3ccb46be2900f4698fd0ef743c96950192610b1e928492910190612c65565b61092c8383836040518060200160405280600081525061198b565b6000610cfd60085490565b8210610d715760405162461bcd60e51b815260206004820152602c60248201527f455243373231456e756d657261626c653a20676c6f62616c20696e646578206f60448201527f7574206f6620626f756e64730000000000000000000000000000000000000000606482015260840161088b565b60088281548110610d8457610d8461355a565b90600052602060002001549050919050565b610d9e61216c565b668e1bc9bf040000341015610e1a5760405162461bcd60e51b8152602060048201526024808201527f54686973207472616e73616374696f6e20726571756972657320302e3034206560448201527f7468657200000000000000000000000000000000000000000000000000000000606482015260840161088b565b6064600e6000828254610e2d919061343f565b9091555050600a546001600160a01b03166108fc346040518115909202916000818181858888f19350505050158015610e6a573d6000803e3d6000fd5b50565b60606018805480602002602001604051908101604052809291908181526020016000905b82821015610ac05783829060005260206000209060020201604051806040016040529081600082018054610ec4906134ae565b80601f0160208091040260200160405190810160405280929190818152602001828054610ef0906134ae565b8015610f3d5780601f10610f1257610100808354040283529160200191610f3d565b820191906000526020600020905b815481529060010190602001808311610f2057829003601f168201915b50505091835250506001918201546001600160a01b0316602091820152918352929092019101610e91565b60176020526000908152604090208054600182015460028301805492939192610f90906134ae565b80601f0160208091040260200160405190810160405280929190818152602001828054610fbc906134ae565b80156110095780601f10610fde57610100808354040283529160200191611009565b820191906000526020600020905b815481529060010190602001808311610fec57829003601f168201915b5050505050905083565b6000818152600260205260408120546001600160a01b03168061073b5760405162461bcd60e51b815260206004820152601860248201527f4552433732313a20696e76616c696420746f6b656e2049440000000000000000604482015260640161088b565b60006001600160a01b0382166110f65760405162461bcd60e51b815260206004820152602960248201527f4552433732313a2061646472657373207a65726f206973206e6f74206120766160448201527f6c6964206f776e65720000000000000000000000000000000000000000000000606482015260840161088b565b506001600160a01b031660009081526003602052604090205490565b606060018054610750906134ae565b6000604051806040016040528083815260200161113b3390565b6001600160a01b031690526018805460018101825560009190915281518051929350839260029092027fb13d2d76d1f4b7be834882e410b3e3a8afaf69f83600ae24db354391d2378d2e019161119991839160209190910190612c65565b506020918201516001918201805473ffffffffffffffffffffffffffffffffffffffff19166001600160a01b039092169190911790553360009081526012909252604091829020805460ff19169091179055516111f790829061326a565b604051908190038120907f88db4a536f075851673fbcb81050ab51c0a709de0eef6aa0c872a927c0ade24c90600090a25050565b60146020526000908152604090208054611244906134ae565b80601f0160208091040260200160405190810160405280929190818152602001828054611270906134ae565b80156112bd5780601f10611292576101008083540402835291602001916112bd565b820191906000526020600020905b8154815290600101906020018083116112a057829003601f168201915b505050505081565b6112d033838361242c565b5050565b6112dc61216c565b6000601883815481106112f1576112f161355a565b906000526020600020906002020160405180604001604052908160008201805461131a906134ae565b80601f0160208091040260200160405190810160405280929190818152602001828054611346906134ae565b80156113935780601f1061136857610100808354040283529160200191611393565b820191906000526020600020905b81548152906001019060200180831161137657829003601f168201915b5050509183525050600191909101546001600160a01b03166020909101529050811561140557602080820180516001600160a01b039081166000908152601384526040808220805460ff191660011790558551935190921681526014845220815161140393919290910190612c65565b505b81151581604051611416919061326a565b604051908190038120907f5b5cc648c0cdb118eeb9957a32510510d658bb499f3d22585ddf52d84082956c90600090a3601880546114569060019061346b565b815481106114665761146661355a565b9060005260206000209060020201601884815481106114875761148761355a565b906000526020600020906002020160008201816000019080546114a9906134ae565b6114b4929190612ce9565b506001918201549101805473ffffffffffffffffffffffffffffffffffffffff19166001600160a01b0390921691909117905560188054806114f8576114f8613544565b600082815260208120600019909201916002830201906115188282612d64565b50600101805473ffffffffffffffffffffffffffffffffffffffff1916905590556020908101516001600160a01b03166000908152601290915260409020805460ff191690555050565b6115a46040518060c001604052806000815260200160006001600160a01b03168152602001606081526020016060815260200160608152602001606081525090565b6040518060c00160405280600c5481526020016115c9600b546001600160a01b031690565b6001600160a01b03168152602001601080546115e4906134ae565b80601f0160208091040260200160405190810160405280929190818152602001828054611610906134ae565b801561165d5780601f106116325761010080835404028352916020019161165d565b820191906000526020600020905b81548152906001019060200180831161164057829003601f168201915b505050505081526020016116716000611bfd565b81526020016019805480602002602001604051908101604052809291908181526020016000905b828210156117ee57838290600052602060002090600202016040518060400160405290816000820180546116cb906134ae565b80601f01602080910402602001604051908101604052809291908181526020018280546116f7906134ae565b80156117445780601f1061171957610100808354040283529160200191611744565b820191906000526020600020905b81548152906001019060200180831161172757829003601f168201915b5050505050815260200160018201805461175d906134ae565b80601f0160208091040260200160405190810160405280929190818152602001828054611789906134ae565b80156117d65780601f106117ab576101008083540402835291602001916117d6565b820191906000526020600020905b8154815290600101906020018083116117b957829003601f168201915b50505050508152505081526020019060010190611698565b50505050815260200160156000808152602001908152602001600020805480602002602001604051908101604052809291908181526020016000905b82821015611980578382906000526020600020906002020160405180604001604052908160008201805461185d906134ae565b80601f0160208091040260200160405190810160405280929190818152602001828054611889906134ae565b80156118d65780601f106118ab576101008083540402835291602001916118d6565b820191906000526020600020905b8154815290600101906020018083116118b957829003601f168201915b505050505081526020016001820180546118ef906134ae565b80601f016020809104026020016040519081016040528092919081815260200182805461191b906134ae565b80156119685780601f1061193d57610100808354040283529160200191611968565b820191906000526020600020905b81548152906001019060200180831161194b57829003601f168201915b5050505050815250508152602001906001019061182a565b505050915250919050565b61199533836121c8565b611a075760405162461bcd60e51b815260206004820152602e60248201527f4552433732313a2063616c6c6572206973206e6f7420746f6b656e206f776e6560448201527f72206e6f7220617070726f766564000000000000000000000000000000000000606482015260840161088b565b611a13848484846124fb565b50505050565b6064600c5410611a915760405162461bcd60e51b815260206004820152602160248201527f4d696e74206661696c65643a20546f6b656e732061726520736f6c64206f757460448201527f2e00000000000000000000000000000000000000000000000000000000000000606482015260840161088b565b33611a9b82611013565b6001600160a01b031614611aae57600080fd5b6000818152601660205260409020600281015460019091015410611b145760405162461bcd60e51b815260206004820152601860248201527f4d696e7420616c6c6f77616e63652065786365656465642e0000000000000000604482015260640161088b565b611b2083600c54612584565b611b2c600c54836126df565b60408051606081018252438152426020808301918252828401868152600c546000908152601783529490942083518155915160018301559251805192939192611b7b9260028501920190612c65565b5050600c805491506000611b8e836134e9565b9091555050600b546001600160a01b03166108fc346040518115909202916000818181858888f19350505050158015611bcb573d6000803e3d6000fd5b506001601660008381526020019081526020016000206001016000828254611bf3919061343f565b9091555050505050565b6000818152600260205260409020546060906001600160a01b0316611c8a5760405162461bcd60e51b815260206004820152602f60248201527f4552433732314d657461646174613a2055524920717565727920666f72206e6f60448201527f6e6578697374656e7420746f6b656e0000000000000000000000000000000000606482015260840161088b565b60008281526011602052604081208054611ca3906134ae565b80601f0160208091040260200160405190810160405280929190818152602001828054611ccf906134ae565b8015611d1c5780601f10611cf157610100808354040283529160200191611d1c565b820191906000526020600020905b815481529060010190602001808311611cff57829003601f168201915b505050505090506000611d3a60408051602081019091526000815290565b9050805160001415611d4d575092915050565b815115611d7f578082604051602001611d6792919061323b565b60405160208183030381529060405292505050919050565b80611d8985612788565b604051602001611d6792919061323b565b60108054611244906134ae565b611daf61216c565b600e54600f5410611e285760405162461bcd60e51b815260206004820152602e60248201527f5468697320636f6e74726163742068617320726561636865642069742773206d60448201527f696e7420616c6c6f77616e63652e000000000000000000000000000000000000606482015260840161088b565b6000818152601660205260408120600201805460059290611e4a90849061343f565b925050819055506005600f6000828254611e64919061343f565b909155505050565b3360009081526013602052604090205460ff16611ecb5760405162461bcd60e51b815260206004820152601d60248201527f436c69656e7420686173206e6f74206265656e20617070726f7665642e000000604482015260640161088b565b60408051606081018252600c548082526001602080840182815260058587019081526000948552601690925294909220925183559251928201929092559051600290910155611f1c33600c54612584565b611f28600c54826126df565b60408051606081018252438152426020808301918252828401858152600c546000908152601783529490942083518155915160018301559251805192939192611f779260028501920190612c65565b5050600c805491506000611f8a836134e9565b9091555050600b546001600160a01b03166108fc346040518115909202916000818181858888f19350505050158015611fc7573d6000803e3d6000fd5b50336000908152601360209081526040808320805460ff1916905560149091528120610e6a91612d64565b60006001600160e01b031982167f80ac58cd00000000000000000000000000000000000000000000000000000000148061205557506001600160e01b031982167f5b5e139f00000000000000000000000000000000000000000000000000000000145b8061073b57507f01ffc9a7000000000000000000000000000000000000000000000000000000006001600160e01b031983161461073b565b6000818152600260205260409020546001600160a01b0316610e6a5760405162461bcd60e51b815260206004820152601860248201527f4552433732313a20696e76616c696420746f6b656e2049440000000000000000604482015260640161088b565b6000818152600460205260409020805473ffffffffffffffffffffffffffffffffffffffff19166001600160a01b038416908117909155819061213382611013565b6001600160a01b03167f8c5be1e5ebec7d5bd14f71427d1e84f3dd0314c0f7b2291e5b200ac8c7c3b92560405160405180910390a45050565b600b546001600160a01b031633146121c65760405162461bcd60e51b815260206004820181905260248201527f4f776e61626c653a2063616c6c6572206973206e6f7420746865206f776e6572604482015260640161088b565b565b6000806121d483611013565b9050806001600160a01b0316846001600160a01b0316148061221b57506001600160a01b0380821660009081526005602090815260408083209388168352929052205460ff165b8061223f5750836001600160a01b0316612234846107d3565b6001600160a01b0316145b949350505050565b826001600160a01b031661225a82611013565b6001600160a01b0316146122d65760405162461bcd60e51b815260206004820152602560248201527f4552433732313a207472616e736665722066726f6d20696e636f72726563742060448201527f6f776e6572000000000000000000000000000000000000000000000000000000606482015260840161088b565b6001600160a01b0382166123515760405162461bcd60e51b8152602060048201526024808201527f4552433732313a207472616e7366657220746f20746865207a65726f2061646460448201527f7265737300000000000000000000000000000000000000000000000000000000606482015260840161088b565b61235c8383836128ba565b6123676000826120f1565b6001600160a01b038316600090815260036020526040812080546001929061239090849061346b565b90915550506001600160a01b03821660009081526003602052604081208054600192906123be90849061343f565b9091555050600081815260026020526040808220805473ffffffffffffffffffffffffffffffffffffffff19166001600160a01b0386811691821790925591518493918716917fddf252ad1be2c89b69c2b068fc378daa952ba7f163c4a11628f55a4df523b3ef91a4505050565b816001600160a01b0316836001600160a01b0316141561248e5760405162461bcd60e51b815260206004820152601960248201527f4552433732313a20617070726f766520746f2063616c6c657200000000000000604482015260640161088b565b6001600160a01b03838116600081815260056020908152604080832094871680845294825291829020805460ff191686151590811790915591519182527f17307eab39ab6107e8899845ad3d59bd9653f200f220920489ca2b5937696c31910160405180910390a3505050565b612506848484612247565b61251284848484612972565b611a135760405162461bcd60e51b815260206004820152603260248201527f4552433732313a207472616e7366657220746f206e6f6e20455243373231526560448201527f63656976657220696d706c656d656e7465720000000000000000000000000000606482015260840161088b565b6001600160a01b0382166125da5760405162461bcd60e51b815260206004820181905260248201527f4552433732313a206d696e7420746f20746865207a65726f2061646472657373604482015260640161088b565b6000818152600260205260409020546001600160a01b03161561263f5760405162461bcd60e51b815260206004820152601c60248201527f4552433732313a20746f6b656e20616c7265616479206d696e74656400000000604482015260640161088b565b61264b600083836128ba565b6001600160a01b038216600090815260036020526040812080546001929061267490849061343f565b9091555050600081815260026020526040808220805473ffffffffffffffffffffffffffffffffffffffff19166001600160a01b03861690811790915590518392907fddf252ad1be2c89b69c2b068fc378daa952ba7f163c4a11628f55a4df523b3ef908290a45050565b6000828152600260205260409020546001600160a01b03166127695760405162461bcd60e51b815260206004820152602c60248201527f4552433732314d657461646174613a2055524920736574206f66206e6f6e657860448201527f697374656e7420746f6b656e0000000000000000000000000000000000000000606482015260840161088b565b6000828152601160209081526040909120825161092c92840190612c65565b6060816127c857505060408051808201909152600181527f3000000000000000000000000000000000000000000000000000000000000000602082015290565b8160005b81156127f257806127dc816134e9565b91506127eb9050600a83613457565b91506127cc565b60008167ffffffffffffffff81111561280d5761280d613570565b6040519080825280601f01601f191660200182016040528015612837576020820181803683370190505b5090505b841561223f5761284c60018361346b565b9150612859600a86613504565b61286490603061343f565b60f81b8183815181106128795761287961355a565b60200101907effffffffffffffffffffffffffffffffffffffffffffffffffffffffffffff1916908160001a9053506128b3600a86613457565b945061283b565b6001600160a01b0383166129155761291081600880546000838152600960205260408120829055600182018355919091527ff3f7a9fe364faab93b216da50a3214154f22a0a2b415b23a84c8169e8b636ee30155565b612938565b816001600160a01b0316836001600160a01b031614612938576129388382612ad5565b6001600160a01b03821661294f5761092c81612b72565b826001600160a01b0316826001600160a01b03161461092c5761092c8282612c21565b60006001600160a01b0384163b15612aca57604051630a85bd0160e11b81526001600160a01b0385169063150b7a02906129b69033908990889088906004016132a4565b602060405180830381600087803b1580156129d057600080fd5b505af1925050508015612a00575060408051601f3d908101601f191682019092526129fd91810190613046565b60015b612ab0573d808015612a2e576040519150601f19603f3d011682016040523d82523d6000602084013e612a33565b606091505b508051612aa85760405162461bcd60e51b815260206004820152603260248201527f4552433732313a207472616e7366657220746f206e6f6e20455243373231526560448201527f63656976657220696d706c656d656e7465720000000000000000000000000000606482015260840161088b565b805181602001fd5b6001600160e01b031916630a85bd0160e11b14905061223f565b506001949350505050565b60006001612ae284611078565b612aec919061346b565b600083815260076020526040902054909150808214612b3f576001600160a01b03841660009081526006602090815260408083208584528252808320548484528184208190558352600790915290208190555b5060009182526007602090815260408084208490556001600160a01b039094168352600681528383209183525290812055565b600854600090612b849060019061346b565b60008381526009602052604081205460088054939450909284908110612bac57612bac61355a565b906000526020600020015490508060088381548110612bcd57612bcd61355a565b6000918252602080832090910192909255828152600990915260408082208490558582528120556008805480612c0557612c05613544565b6001900381819060005260206000200160009055905550505050565b6000612c2c83611078565b6001600160a01b039093166000908152600660209081526040808320868452825280832085905593825260079052919091209190915550565b828054612c71906134ae565b90600052602060002090601f016020900481019282612c935760008555612cd9565b82601f10612cac57805160ff1916838001178555612cd9565b82800160010185558215612cd9579182015b82811115612cd9578251825591602001919060010190612cbe565b50612ce5929150612d9a565b5090565b828054612cf5906134ae565b90600052602060002090601f016020900481019282612d175760008555612cd9565b82601f10612d285780548555612cd9565b82800160010185558215612cd957600052602060002091601f016020900482015b82811115612cd9578254825591600101919060010190612d49565b508054612d70906134ae565b6000825580601f10612d80575050565b601f016020900490600052602060002090810190610e6a91905b5b80821115612ce55760008155600101612d9b565b600067ffffffffffffffff80841115612dca57612dca613570565b604051601f8501601f19908116603f01168101908282118183101715612df257612df2613570565b81604052809350858152868686011115612e0b57600080fd5b858560208301376000602087830101525050509392505050565b80356001600160a01b0381168114612e3c57600080fd5b919050565b80358015158114612e3c57600080fd5b600082601f830112612e6257600080fd5b612e7183833560208501612daf565b9392505050565b600060208284031215612e8a57600080fd5b612e7182612e25565b60008060408385031215612ea657600080fd5b612eaf83612e25565b9150612ebd60208401612e25565b90509250929050565b600080600060608486031215612edb57600080fd5b612ee484612e25565b9250612ef260208501612e25565b9150604084013590509250925092565b60008060008060808587031215612f1857600080fd5b612f2185612e25565b9350612f2f60208601612e25565b925060408501359150606085013567ffffffffffffffff811115612f5257600080fd5b8501601f81018713612f6357600080fd5b612f7287823560208401612daf565b91505092959194509250565b60008060408385031215612f9157600080fd5b612f9a83612e25565b9150612ebd60208401612e41565b600080600060608486031215612fbd57600080fd5b612fc684612e25565b9250602084013567ffffffffffffffff811115612fe257600080fd5b612fee86828701612e51565b925050604084013590509250925092565b6000806040838503121561301257600080fd5b61301b83612e25565b946020939093013593505050565b60006020828403121561303b57600080fd5b8135612e7181613586565b60006020828403121561305857600080fd5b8151612e7181613586565b60006020828403121561307557600080fd5b813567ffffffffffffffff81111561308c57600080fd5b61223f84828501612e51565b600080604083850312156130ab57600080fd5b823567ffffffffffffffff808211156130c357600080fd5b6130cf86838701612e51565b935060208501359150808211156130e557600080fd5b506130f285828601612e51565b9150509250929050565b60008060006060848603121561311157600080fd5b833567ffffffffffffffff8082111561312957600080fd5b61313587838801612e51565b9450602086013591508082111561314b57600080fd5b50612fee86828701612e51565b60006020828403121561316a57600080fd5b5035919050565b6000806040838503121561318457600080fd5b82359150612ebd60208401612e41565b600081518084526020808501808196508360051b8101915082860160005b858110156132025782840389528151604081518187526131d48288018261320f565b915050868201519150858103878701526131ee818361320f565b9a87019a95505050908401906001016131b2565b5091979650505050505050565b60008151808452613227816020860160208601613482565b601f01601f19169290920160200192915050565b6000835161324d818460208801613482565b835190830190613261818360208801613482565b01949350505050565b60008251805161327e818560208501613482565b6020948501516001600160a01b0316601f91909101601f19169390930192835250500190565b60006001600160a01b038087168352808616602084015250836040830152608060608301526132d6608083018461320f565b9695505050505050565b60006020808301818452808551808352604092508286019150828160051b87010184880160005b8381101561335157888303603f190185528151805187855261332b8886018261320f565b918901516001600160a01b03169489019490945294870194925090860190600101613307565b509098975050505050505050565b602081526000612e716020830184613194565b602081526000612e71602083018461320f565b60208152815160208201526001600160a01b0360208301511660408201526000604083015160c060608401526133be60e084018261320f565b90506060840151601f19808584030160808601526133dc838361320f565b925060808601519150808584030160a08601526133f98383613194565b925060a08601519150808584030160c0860152506134178282613194565b95945050505050565b838152826020820152606060408201526000613417606083018461320f565b6000821982111561345257613452613518565b500190565b6000826134665761346661352e565b500490565b60008282101561347d5761347d613518565b500390565b60005b8381101561349d578181015183820152602001613485565b83811115611a135750506000910152565b600181811c908216806134c257607f821691505b602082108114156134e357634e487b7160e01b600052602260045260246000fd5b50919050565b60006000198214156134fd576134fd613518565b5060010190565b6000826135135761351361352e565b500690565b634e487b7160e01b600052601160045260246000fd5b634e487b7160e01b600052601260045260246000fd5b634e487b7160e01b600052603160045260246000fd5b634e487b7160e01b600052603260045260246000fd5b634e487b7160e01b600052604160045260246000fd5b6001600160e01b031981168114610e6a57600080fdfea26469706673582212208ef5e82be2e28f3b6c050ad3070d9887377156f24efe8224b857dfe48e477b9664736f6c63430008070033","opcodes":"PUSH1 0x80 PUSH1 0x40 MSTORE CALLVALUE DUP1 ISZERO PUSH3 0x11 JUMPI PUSH1 0x0 DUP1 REVERT JUMPDEST POP PUSH1 0x40 MLOAD PUSH3 0x4059 CODESIZE SUB DUP1 PUSH3 0x4059 DUP4 CODECOPY DUP2 ADD PUSH1 0x40 DUP2 SWAP1 MSTORE PUSH3 0x34 SWAP2 PUSH3 0x8B1 JUMP JUMPDEST DUP7 MLOAD DUP8 SWAP1 DUP8 SWAP1 PUSH3 0x4D SWAP1 PUSH1 0x0 SWAP1 PUSH1 0x20 DUP6 ADD SWAP1 PUSH3 0x737 JUMP JUMPDEST POP DUP1 MLOAD PUSH3 0x63 SWAP1 PUSH1 0x1 SWAP1 PUSH1 0x20 DUP5 ADD SWAP1 PUSH3 0x737 JUMP JUMPDEST POP POP PUSH1 0xB DUP1 SLOAD PUSH1 0x1 PUSH1 0x1 PUSH1 0xA0 SHL SUB DUP1 DUP13 AND PUSH1 0x1 PUSH1 0x1 PUSH1 0xA0 SHL SUB NOT SWAP3 DUP4 AND OR SWAP1 SWAP3 SSTORE PUSH1 0xA DUP1 SLOAD SWAP3 DUP6 AND SWAP3 SWAP1 SWAP2 AND SWAP2 SWAP1 SWAP2 OR SWAP1 SSTORE POP PUSH1 0xD DUP6 SWAP1 SSTORE DUP4 MLOAD PUSH3 0xB0 SWAP1 PUSH1 0x10 SWAP1 PUSH1 0x20 DUP8 ADD SWAP1 PUSH3 0x737 JUMP JUMPDEST POP PUSH1 0xA PUSH1 0xF DUP2 SWAP1 SSTORE PUSH1 0x40 DUP1 MLOAD PUSH1 0x60 DUP2 ADD DUP3 MSTORE PUSH1 0x0 DUP1 DUP3 MSTORE PUSH1 0x1 PUSH1 0x20 DUP1 DUP5 ADD SWAP2 DUP3 MSTORE SWAP4 DUP4 ADD SWAP5 DUP6 MSTORE DUP2 DUP1 MSTORE PUSH1 0x16 SWAP1 SWAP4 MSTORE SWAP1 MLOAD PUSH32 0x263C2B778D062355049EFFC2DECE97BC6547FF8A88A3258DAA512061C2153DD SSTORE SWAP1 MLOAD PUSH32 0x263C2B778D062355049EFFC2DECE97BC6547FF8A88A3258DAA512061C2153DE SSTORE SWAP1 MLOAD PUSH32 0x263C2B778D062355049EFFC2DECE97BC6547FF8A88A3258DAA512061C2153DF SSTORE PUSH3 0x158 SWAP1 DUP5 SWAP1 PUSH3 0x220 JUMP JUMPDEST PUSH3 0x165 PUSH1 0x0 DUP4 PUSH3 0x37A JUMP JUMPDEST PUSH1 0x1 PUSH1 0xC SSTORE PUSH1 0x40 DUP1 MLOAD PUSH1 0x60 DUP2 ADD DUP3 MSTORE NUMBER DUP2 MSTORE TIMESTAMP PUSH1 0x20 DUP1 DUP4 ADD SWAP2 DUP3 MSTORE SWAP3 DUP3 ADD DUP6 DUP2 MSTORE PUSH1 0x0 DUP1 MSTORE PUSH1 0x17 DUP5 MSTORE DUP3 MLOAD PUSH32 0xD840E16649F6B9A295D95876F4633D3A6B10B55E8162971CF78AFD886D5EC89B SWAP1 DUP2 SSTORE SWAP2 MLOAD PUSH32 0xD840E16649F6B9A295D95876F4633D3A6B10B55E8162971CF78AFD886D5EC89C SSTORE MLOAD DUP1 MLOAD SWAP3 SWAP4 SWAP2 SWAP3 PUSH3 0x20E SWAP3 PUSH32 0xD840E16649F6B9A295D95876F4633D3A6B10B55E8162971CF78AFD886D5EC89D SWAP3 ADD SWAP1 PUSH3 0x737 JUMP JUMPDEST POP SWAP1 POP POP POP POP POP POP POP POP POP POP PUSH3 0xA77 JUMP JUMPDEST PUSH1 0x1 PUSH1 0x1 PUSH1 0xA0 SHL SUB DUP3 AND PUSH3 0x27C JUMPI PUSH1 0x40 MLOAD PUSH3 0x461BCD PUSH1 0xE5 SHL DUP2 MSTORE PUSH1 0x20 PUSH1 0x4 DUP3 ADD DUP2 SWAP1 MSTORE PUSH1 0x24 DUP3 ADD MSTORE PUSH32 0x4552433732313A206D696E7420746F20746865207A65726F2061646472657373 PUSH1 0x44 DUP3 ADD MSTORE PUSH1 0x64 ADD JUMPDEST PUSH1 0x40 MLOAD DUP1 SWAP2 SUB SWAP1 REVERT JUMPDEST PUSH1 0x0 DUP2 DUP2 MSTORE PUSH1 0x2 PUSH1 0x20 MSTORE PUSH1 0x40 SWAP1 KECCAK256 SLOAD PUSH1 0x1 PUSH1 0x1 PUSH1 0xA0 SHL SUB AND ISZERO PUSH3 0x2E3 JUMPI PUSH1 0x40 MLOAD PUSH3 0x461BCD PUSH1 0xE5 SHL DUP2 MSTORE PUSH1 0x20 PUSH1 0x4 DUP3 ADD MSTORE PUSH1 0x1C PUSH1 0x24 DUP3 ADD MSTORE PUSH32 0x4552433732313A20746F6B656E20616C7265616479206D696E74656400000000 PUSH1 0x44 DUP3 ADD MSTORE PUSH1 0x64 ADD PUSH3 0x273 JUMP JUMPDEST PUSH3 0x2F1 PUSH1 0x0 DUP4 DUP4 PUSH3 0x41B JUMP JUMPDEST PUSH1 0x1 PUSH1 0x1 PUSH1 0xA0 SHL SUB DUP3 AND PUSH1 0x0 SWAP1 DUP2 MSTORE PUSH1 0x3 PUSH1 0x20 MSTORE PUSH1 0x40 DUP2 KECCAK256 DUP1 SLOAD PUSH1 0x1 SWAP3 SWAP1 PUSH3 0x31C SWAP1 DUP5 SWAP1 PUSH3 0x9AD JUMP JUMPDEST SWAP1 SWAP2 SSTORE POP POP PUSH1 0x0 DUP2 DUP2 MSTORE PUSH1 0x2 PUSH1 0x20 MSTORE PUSH1 0x40 DUP1 DUP3 KECCAK256 DUP1 SLOAD PUSH1 0x1 PUSH1 0x1 PUSH1 0xA0 SHL SUB NOT AND PUSH1 0x1 PUSH1 0x1 PUSH1 0xA0 SHL SUB DUP7 AND SWAP1 DUP2 OR SWAP1 SWAP2 SSTORE SWAP1 MLOAD DUP4 SWAP3 SWAP1 PUSH32 0xDDF252AD1BE2C89B69C2B068FC378DAA952BA7F163C4A11628F55A4DF523B3EF SWAP1 DUP3 SWAP1 LOG4 POP POP JUMP JUMPDEST PUSH1 0x0 DUP3 DUP2 MSTORE PUSH1 0x2 PUSH1 0x20 MSTORE PUSH1 0x40 SWAP1 KECCAK256 SLOAD PUSH1 0x1 PUSH1 0x1 PUSH1 0xA0 SHL SUB AND PUSH3 0x3F5 JUMPI PUSH1 0x40 MLOAD PUSH3 0x461BCD PUSH1 0xE5 SHL DUP2 MSTORE PUSH1 0x20 PUSH1 0x4 DUP3 ADD MSTORE PUSH1 0x2C PUSH1 0x24 DUP3 ADD MSTORE PUSH32 0x4552433732314D657461646174613A2055524920736574206F66206E6F6E6578 PUSH1 0x44 DUP3 ADD MSTORE PUSH12 0x34B9BA32B73A103A37B5B2B7 PUSH1 0xA1 SHL PUSH1 0x64 DUP3 ADD MSTORE PUSH1 0x84 ADD PUSH3 0x273 JUMP JUMPDEST PUSH1 0x0 DUP3 DUP2 MSTORE PUSH1 0x11 PUSH1 0x20 SWAP1 DUP2 MSTORE PUSH1 0x40 SWAP1 SWAP2 KECCAK256 DUP3 MLOAD PUSH3 0x416 SWAP3 DUP5 ADD SWAP1 PUSH3 0x737 JUMP JUMPDEST POP POP POP JUMP JUMPDEST PUSH3 0x433 DUP4 DUP4 DUP4 PUSH3 0x416 PUSH1 0x20 SHL PUSH3 0x92C OR PUSH1 0x20 SHR JUMP JUMPDEST PUSH1 0x1 PUSH1 0x1 PUSH1 0xA0 SHL SUB DUP4 AND PUSH3 0x491 JUMPI PUSH3 0x48B DUP2 PUSH1 0x8 DUP1 SLOAD PUSH1 0x0 DUP4 DUP2 MSTORE PUSH1 0x9 PUSH1 0x20 MSTORE PUSH1 0x40 DUP2 KECCAK256 DUP3 SWAP1 SSTORE PUSH1 0x1 DUP3 ADD DUP4 SSTORE SWAP2 SWAP1 SWAP2 MSTORE PUSH32 0xF3F7A9FE364FAAB93B216DA50A3214154F22A0A2B415B23A84C8169E8B636EE3 ADD SSTORE JUMP JUMPDEST PUSH3 0x4B7 JUMP JUMPDEST DUP2 PUSH1 0x1 PUSH1 0x1 PUSH1 0xA0 SHL SUB AND DUP4 PUSH1 0x1 PUSH1 0x1 PUSH1 0xA0 SHL SUB AND EQ PUSH3 0x4B7 JUMPI PUSH3 0x4B7 DUP4 DUP3 PUSH3 0x4F7 JUMP JUMPDEST PUSH1 0x1 PUSH1 0x1 PUSH1 0xA0 SHL SUB DUP3 AND PUSH3 0x4D1 JUMPI PUSH3 0x416 DUP2 PUSH3 0x5A4 JUMP JUMPDEST DUP3 PUSH1 0x1 PUSH1 0x1 PUSH1 0xA0 SHL SUB AND DUP3 PUSH1 0x1 PUSH1 0x1 PUSH1 0xA0 SHL SUB AND EQ PUSH3 0x416 JUMPI PUSH3 0x416 DUP3 DUP3 PUSH3 0x65E JUMP JUMPDEST PUSH1 0x0 PUSH1 0x1 PUSH3 0x511 DUP5 PUSH3 0x6AF PUSH1 0x20 SHL PUSH3 0x1078 OR PUSH1 0x20 SHR JUMP JUMPDEST PUSH3 0x51D SWAP2 SWAP1 PUSH3 0x9C8 JUMP JUMPDEST PUSH1 0x0 DUP4 DUP2 MSTORE PUSH1 0x7 PUSH1 0x20 MSTORE PUSH1 0x40 SWAP1 KECCAK256 SLOAD SWAP1 SWAP2 POP DUP1 DUP3 EQ PUSH3 0x571 JUMPI PUSH1 0x1 PUSH1 0x1 PUSH1 0xA0 SHL SUB DUP5 AND PUSH1 0x0 SWAP1 DUP2 MSTORE PUSH1 0x6 PUSH1 0x20 SWAP1 DUP2 MSTORE PUSH1 0x40 DUP1 DUP4 KECCAK256 DUP6 DUP5 MSTORE DUP3 MSTORE DUP1 DUP4 KECCAK256 SLOAD DUP5 DUP5 MSTORE DUP2 DUP5 KECCAK256 DUP2 SWAP1 SSTORE DUP4 MSTORE PUSH1 0x7 SWAP1 SWAP2 MSTORE SWAP1 KECCAK256 DUP2 SWAP1 SSTORE JUMPDEST POP PUSH1 0x0 SWAP2 DUP3 MSTORE PUSH1 0x7 PUSH1 0x20 SWAP1 DUP2 MSTORE PUSH1 0x40 DUP1 DUP5 KECCAK256 DUP5 SWAP1 SSTORE PUSH1 0x1 PUSH1 0x1 PUSH1 0xA0 SHL SUB SWAP1 SWAP5 AND DUP4 MSTORE PUSH1 0x6 DUP2 MSTORE DUP4 DUP4 KECCAK256 SWAP2 DUP4 MSTORE MSTORE SWAP1 DUP2 KECCAK256 SSTORE JUMP JUMPDEST PUSH1 0x8 SLOAD PUSH1 0x0 SWAP1 PUSH3 0x5B8 SWAP1 PUSH1 0x1 SWAP1 PUSH3 0x9C8 JUMP JUMPDEST PUSH1 0x0 DUP4 DUP2 MSTORE PUSH1 0x9 PUSH1 0x20 MSTORE PUSH1 0x40 DUP2 KECCAK256 SLOAD PUSH1 0x8 DUP1 SLOAD SWAP4 SWAP5 POP SWAP1 SWAP3 DUP5 SWAP1 DUP2 LT PUSH3 0x5E3 JUMPI PUSH3 0x5E3 PUSH3 0xA4B JUMP JUMPDEST SWAP1 PUSH1 0x0 MSTORE PUSH1 0x20 PUSH1 0x0 KECCAK256 ADD SLOAD SWAP1 POP DUP1 PUSH1 0x8 DUP4 DUP2 SLOAD DUP2 LT PUSH3 0x607 JUMPI PUSH3 0x607 PUSH3 0xA4B JUMP JUMPDEST PUSH1 0x0 SWAP2 DUP3 MSTORE PUSH1 0x20 DUP1 DUP4 KECCAK256 SWAP1 SWAP2 ADD SWAP3 SWAP1 SWAP3 SSTORE DUP3 DUP2 MSTORE PUSH1 0x9 SWAP1 SWAP2 MSTORE PUSH1 0x40 DUP1 DUP3 KECCAK256 DUP5 SWAP1 SSTORE DUP6 DUP3 MSTORE DUP2 KECCAK256 SSTORE PUSH1 0x8 DUP1 SLOAD DUP1 PUSH3 0x642 JUMPI PUSH3 0x642 PUSH3 0xA35 JUMP JUMPDEST PUSH1 0x1 SWAP1 SUB DUP2 DUP2 SWAP1 PUSH1 0x0 MSTORE PUSH1 0x20 PUSH1 0x0 KECCAK256 ADD PUSH1 0x0 SWAP1 SSTORE SWAP1 SSTORE POP POP POP POP JUMP JUMPDEST PUSH1 0x0 PUSH3 0x676 DUP4 PUSH3 0x6AF PUSH1 0x20 SHL PUSH3 0x1078 OR PUSH1 0x20 SHR JUMP JUMPDEST PUSH1 0x1 PUSH1 0x1 PUSH1 0xA0 SHL SUB SWAP1 SWAP4 AND PUSH1 0x0 SWAP1 DUP2 MSTORE PUSH1 0x6 PUSH1 0x20 SWAP1 DUP2 MSTORE PUSH1 0x40 DUP1 DUP4 KECCAK256 DUP7 DUP5 MSTORE DUP3 MSTORE DUP1 DUP4 KECCAK256 DUP6 SWAP1 SSTORE SWAP4 DUP3 MSTORE PUSH1 0x7 SWAP1 MSTORE SWAP2 SWAP1 SWAP2 KECCAK256 SWAP2 SWAP1 SWAP2 SSTORE POP JUMP JUMPDEST PUSH1 0x0 PUSH1 0x1 PUSH1 0x1 PUSH1 0xA0 SHL SUB DUP3 AND PUSH3 0x71B JUMPI PUSH1 0x40 MLOAD PUSH3 0x461BCD PUSH1 0xE5 SHL DUP2 MSTORE PUSH1 0x20 PUSH1 0x4 DUP3 ADD MSTORE PUSH1 0x29 PUSH1 0x24 DUP3 ADD MSTORE PUSH32 0x4552433732313A2061646472657373207A65726F206973206E6F742061207661 PUSH1 0x44 DUP3 ADD MSTORE PUSH9 0x3634B21037BBB732B9 PUSH1 0xB9 SHL PUSH1 0x64 DUP3 ADD MSTORE PUSH1 0x84 ADD PUSH3 0x273 JUMP JUMPDEST POP PUSH1 0x1 PUSH1 0x1 PUSH1 0xA0 SHL SUB AND PUSH1 0x0 SWAP1 DUP2 MSTORE PUSH1 0x3 PUSH1 0x20 MSTORE PUSH1 0x40 SWAP1 KECCAK256 SLOAD SWAP1 JUMP JUMPDEST DUP3 DUP1 SLOAD PUSH3 0x745 SWAP1 PUSH3 0x9E2 JUMP JUMPDEST SWAP1 PUSH1 0x0 MSTORE PUSH1 0x20 PUSH1 0x0 KECCAK256 SWAP1 PUSH1 0x1F ADD PUSH1 0x20 SWAP1 DIV DUP2 ADD SWAP3 DUP3 PUSH3 0x769 JUMPI PUSH1 0x0 DUP6 SSTORE PUSH3 0x7B4 JUMP JUMPDEST DUP3 PUSH1 0x1F LT PUSH3 0x784 JUMPI DUP1 MLOAD PUSH1 0xFF NOT AND DUP4 DUP1 ADD OR DUP6 SSTORE PUSH3 0x7B4 JUMP JUMPDEST DUP3 DUP1 ADD PUSH1 0x1 ADD DUP6 SSTORE DUP3 ISZERO PUSH3 0x7B4 JUMPI SWAP2 DUP3 ADD JUMPDEST DUP3 DUP2 GT ISZERO PUSH3 0x7B4 JUMPI DUP3 MLOAD DUP3 SSTORE SWAP2 PUSH1 0x20 ADD SWAP2 SWAP1 PUSH1 0x1 ADD SWAP1 PUSH3 0x797 JUMP JUMPDEST POP PUSH3 0x7C2 SWAP3 SWAP2 POP PUSH3 0x7C6 JUMP JUMPDEST POP SWAP1 JUMP JUMPDEST JUMPDEST DUP1 DUP3 GT ISZERO PUSH3 0x7C2 JUMPI PUSH1 0x0 DUP2 SSTORE PUSH1 0x1 ADD PUSH3 0x7C7 JUMP JUMPDEST DUP1 MLOAD PUSH1 0x1 PUSH1 0x1 PUSH1 0xA0 SHL SUB DUP2 AND DUP2 EQ PUSH3 0x7F5 JUMPI PUSH1 0x0 DUP1 REVERT JUMPDEST SWAP2 SWAP1 POP JUMP JUMPDEST PUSH1 0x0 DUP3 PUSH1 0x1F DUP4 ADD SLT PUSH3 0x80C JUMPI PUSH1 0x0 DUP1 REVERT JUMPDEST DUP2 MLOAD PUSH1 0x1 PUSH1 0x1 PUSH1 0x40 SHL SUB DUP1 DUP3 GT ISZERO PUSH3 0x829 JUMPI PUSH3 0x829 PUSH3 0xA61 JUMP JUMPDEST PUSH1 0x40 MLOAD PUSH1 0x1F DUP4 ADD PUSH1 0x1F NOT SWAP1 DUP2 AND PUSH1 0x3F ADD AND DUP2 ADD SWAP1 DUP3 DUP3 GT DUP2 DUP4 LT OR ISZERO PUSH3 0x854 JUMPI PUSH3 0x854 PUSH3 0xA61 JUMP JUMPDEST DUP2 PUSH1 0x40 MSTORE DUP4 DUP2 MSTORE PUSH1 0x20 SWAP3 POP DUP7 DUP4 DUP6 DUP9 ADD ADD GT ISZERO PUSH3 0x871 JUMPI PUSH1 0x0 DUP1 REVERT JUMPDEST PUSH1 0x0 SWAP2 POP JUMPDEST DUP4 DUP3 LT ISZERO PUSH3 0x895 JUMPI DUP6 DUP3 ADD DUP4 ADD MLOAD DUP2 DUP4 ADD DUP5 ADD MSTORE SWAP1 DUP3 ADD SWAP1 PUSH3 0x876 JUMP JUMPDEST DUP4 DUP3 GT ISZERO PUSH3 0x8A7 JUMPI PUSH1 0x0 DUP4 DUP6 DUP4 ADD ADD MSTORE JUMPDEST SWAP7 SWAP6 POP POP POP POP POP POP JUMP JUMPDEST PUSH1 0x0 DUP1 PUSH1 0x0 DUP1 PUSH1 0x0 DUP1 PUSH1 0x0 DUP1 PUSH2 0x100 DUP10 DUP12 SUB SLT ISZERO PUSH3 0x8CF JUMPI PUSH1 0x0 DUP1 REVERT JUMPDEST PUSH3 0x8DA DUP10 PUSH3 0x7DD JUMP JUMPDEST PUSH1 0x20 DUP11 ADD MLOAD SWAP1 SWAP9 POP PUSH1 0x1 PUSH1 0x1 PUSH1 0x40 SHL SUB DUP1 DUP3 GT ISZERO PUSH3 0x8F8 JUMPI PUSH1 0x0 DUP1 REVERT JUMPDEST PUSH3 0x906 DUP13 DUP4 DUP14 ADD PUSH3 0x7FA JUMP JUMPDEST SWAP9 POP PUSH1 0x40 DUP12 ADD MLOAD SWAP2 POP DUP1 DUP3 GT ISZERO PUSH3 0x91D JUMPI PUSH1 0x0 DUP1 REVERT JUMPDEST PUSH3 0x92B DUP13 DUP4 DUP14 ADD PUSH3 0x7FA JUMP JUMPDEST SWAP8 POP PUSH1 0x60 DUP12 ADD MLOAD SWAP7 POP PUSH1 0x80 DUP12 ADD MLOAD SWAP2 POP DUP1 DUP3 GT ISZERO PUSH3 0x949 JUMPI PUSH1 0x0 DUP1 REVERT JUMPDEST PUSH3 0x957 DUP13 DUP4 DUP14 ADD PUSH3 0x7FA JUMP JUMPDEST SWAP6 POP PUSH3 0x967 PUSH1 0xA0 DUP13 ADD PUSH3 0x7DD JUMP JUMPDEST SWAP5 POP PUSH1 0xC0 DUP12 ADD MLOAD SWAP2 POP DUP1 DUP3 GT ISZERO PUSH3 0x97E JUMPI PUSH1 0x0 DUP1 REVERT JUMPDEST POP PUSH3 0x98D DUP12 DUP3 DUP13 ADD PUSH3 0x7FA JUMP JUMPDEST SWAP3 POP POP PUSH3 0x99E PUSH1 0xE0 DUP11 ADD PUSH3 0x7DD JUMP JUMPDEST SWAP1 POP SWAP3 SWAP6 SWAP9 POP SWAP3 SWAP6 SWAP9 SWAP1 SWAP4 SWAP7 POP JUMP JUMPDEST PUSH1 0x0 DUP3 NOT DUP3 GT ISZERO PUSH3 0x9C3 JUMPI PUSH3 0x9C3 PUSH3 0xA1F JUMP JUMPDEST POP ADD SWAP1 JUMP JUMPDEST PUSH1 0x0 DUP3 DUP3 LT ISZERO PUSH3 0x9DD JUMPI PUSH3 0x9DD PUSH3 0xA1F JUMP JUMPDEST POP SUB SWAP1 JUMP JUMPDEST PUSH1 0x1 DUP2 DUP2 SHR SWAP1 DUP3 AND DUP1 PUSH3 0x9F7 JUMPI PUSH1 0x7F DUP3 AND SWAP2 POP JUMPDEST PUSH1 0x20 DUP3 LT DUP2 EQ ISZERO PUSH3 0xA19 JUMPI PUSH4 0x4E487B71 PUSH1 0xE0 SHL PUSH1 0x0 MSTORE PUSH1 0x22 PUSH1 0x4 MSTORE PUSH1 0x24 PUSH1 0x0 REVERT JUMPDEST POP SWAP2 SWAP1 POP JUMP JUMPDEST PUSH4 0x4E487B71 PUSH1 0xE0 SHL PUSH1 0x0 MSTORE PUSH1 0x11 PUSH1 0x4 MSTORE PUSH1 0x24 PUSH1 0x0 REVERT JUMPDEST PUSH4 0x4E487B71 PUSH1 0xE0 SHL PUSH1 0x0 MSTORE PUSH1 0x31 PUSH1 0x4 MSTORE PUSH1 0x24 PUSH1 0x0 REVERT JUMPDEST PUSH4 0x4E487B71 PUSH1 0xE0 SHL PUSH1 0x0 MSTORE PUSH1 0x32 PUSH1 0x4 MSTORE PUSH1 0x24 PUSH1 0x0 REVERT JUMPDEST PUSH4 0x4E487B71 PUSH1 0xE0 SHL PUSH1 0x0 MSTORE PUSH1 0x41 PUSH1 0x4 MSTORE PUSH1 0x24 PUSH1 0x0 REVERT JUMPDEST PUSH2 0x35D2 DUP1 PUSH3 0xA87 PUSH1 0x0 CODECOPY PUSH1 0x0 RETURN INVALID PUSH1 0x80 PUSH1 0x40 MSTORE PUSH1 0x4 CALLDATASIZE LT PUSH2 0x234 JUMPI PUSH1 0x0 CALLDATALOAD PUSH1 0xE0 SHR DUP1 PUSH4 0x70A08231 GT PUSH2 0x138 JUMPI DUP1 PUSH4 0xAEB20B94 GT PUSH2 0xB0 JUMPI DUP1 PUSH4 0xC87B56DD GT PUSH2 0x7F JUMPI DUP1 PUSH4 0xE985E9C5 GT PUSH2 0x64 JUMPI DUP1 PUSH4 0xE985E9C5 EQ PUSH2 0x68E JUMPI DUP1 PUSH4 0xEB58F0EC EQ PUSH2 0x6D7 JUMPI DUP1 PUSH4 0xF9DC375F EQ PUSH2 0x6EA JUMPI PUSH1 0x0 DUP1 REVERT JUMPDEST DUP1 PUSH4 0xC87B56DD EQ PUSH2 0x659 JUMPI DUP1 PUSH4 0xCB2EF6F7 EQ PUSH2 0x679 JUMPI PUSH1 0x0 DUP1 REVERT JUMPDEST DUP1 PUSH4 0xAEB20B94 EQ PUSH2 0x5AD JUMPI DUP1 PUSH4 0xAF80A5BE EQ PUSH2 0x604 JUMPI DUP1 PUSH4 0xB88D4FDE EQ PUSH2 0x626 JUMPI DUP1 PUSH4 0xBA7AEF43 EQ PUSH2 0x646 JUMPI PUSH1 0x0 DUP1 REVERT JUMPDEST DUP1 PUSH4 0x97A33342 GT PUSH2 0x107 JUMPI DUP1 PUSH4 0xA035B1FE GT PUSH2 0xEC JUMPI DUP1 PUSH4 0xA035B1FE EQ PUSH2 0x557 JUMPI DUP1 PUSH4 0xA22CB465 EQ PUSH2 0x56D JUMPI DUP1 PUSH4 0xA28039CD EQ PUSH2 0x58D JUMPI PUSH1 0x0 DUP1 REVERT JUMPDEST DUP1 PUSH4 0x97A33342 EQ PUSH2 0x507 JUMPI DUP1 PUSH4 0xA00745B6 EQ PUSH2 0x527 JUMPI PUSH1 0x0 DUP1 REVERT JUMPDEST DUP1 PUSH4 0x70A08231 EQ PUSH2 0x494 JUMPI DUP1 PUSH4 0x8DA5CB5B EQ PUSH2 0x4B4 JUMPI DUP1 PUSH4 0x95D89B41 EQ PUSH2 0x4D2 JUMPI DUP1 PUSH4 0x96761595 EQ PUSH2 0x4E7 JUMPI PUSH1 0x0 DUP1 REVERT JUMPDEST DUP1 PUSH4 0x2F745C59 GT PUSH2 0x1CB JUMPI DUP1 PUSH4 0x5A9BE11B GT PUSH2 0x19A JUMPI DUP1 PUSH4 0x634282AF GT PUSH2 0x17F JUMPI DUP1 PUSH4 0x634282AF EQ PUSH2 0x415 JUMPI DUP1 PUSH4 0x6352211E EQ PUSH2 0x444 JUMPI DUP1 PUSH4 0x673448DD EQ PUSH2 0x464 JUMPI PUSH1 0x0 DUP1 REVERT JUMPDEST DUP1 PUSH4 0x5A9BE11B EQ PUSH2 0x3EB JUMPI DUP1 PUSH4 0x5BF61CFE EQ PUSH2 0x3F3 JUMPI PUSH1 0x0 DUP1 REVERT JUMPDEST DUP1 PUSH4 0x2F745C59 EQ PUSH2 0x36B JUMPI DUP1 PUSH4 0x4261917A EQ PUSH2 0x38B JUMPI DUP1 PUSH4 0x42842E0E EQ PUSH2 0x3AB JUMPI DUP1 PUSH4 0x4F6CCCE7 EQ PUSH2 0x3CB JUMPI PUSH1 0x0 DUP1 REVERT JUMPDEST DUP1 PUSH4 0xE37B4FD GT PUSH2 0x207 JUMPI DUP1 PUSH4 0xE37B4FD EQ PUSH2 0x2EA JUMPI DUP1 PUSH4 0x18160DDD EQ PUSH2 0x30C JUMPI DUP1 PUSH4 0x1FCEAAE0 EQ PUSH2 0x32B JUMPI DUP1 PUSH4 0x23B872DD EQ PUSH2 0x34B JUMPI PUSH1 0x0 DUP1 REVERT JUMPDEST DUP1 PUSH4 0x1FFC9A7 EQ PUSH2 0x239 JUMPI DUP1 PUSH4 0x6FDDE03 EQ PUSH2 0x26E JUMPI DUP1 PUSH4 0x81812FC EQ PUSH2 0x290 JUMPI DUP1 PUSH4 0x95EA7B3 EQ PUSH2 0x2C8 JUMPI JUMPDEST PUSH1 0x0 DUP1 REVERT JUMPDEST CALLVALUE DUP1 ISZERO PUSH2 0x245 JUMPI PUSH1 0x0 DUP1 REVERT JUMPDEST POP PUSH2 0x259 PUSH2 0x254 CALLDATASIZE PUSH1 0x4 PUSH2 0x3029 JUMP JUMPDEST PUSH2 0x6FD JUMP JUMPDEST PUSH1 0x40 MLOAD SWAP1 ISZERO ISZERO DUP2 MSTORE PUSH1 0x20 ADD JUMPDEST PUSH1 0x40 MLOAD DUP1 SWAP2 SUB SWAP1 RETURN JUMPDEST CALLVALUE DUP1 ISZERO PUSH2 0x27A JUMPI PUSH1 0x0 DUP1 REVERT JUMPDEST POP PUSH2 0x283 PUSH2 0x741 JUMP JUMPDEST PUSH1 0x40 MLOAD PUSH2 0x265 SWAP2 SWAP1 PUSH2 0x3372 JUMP JUMPDEST CALLVALUE DUP1 ISZERO PUSH2 0x29C JUMPI PUSH1 0x0 DUP1 REVERT JUMPDEST POP PUSH2 0x2B0 PUSH2 0x2AB CALLDATASIZE PUSH1 0x4 PUSH2 0x3158 JUMP JUMPDEST PUSH2 0x7D3 JUMP JUMPDEST PUSH1 0x40 MLOAD PUSH1 0x1 PUSH1 0x1 PUSH1 0xA0 SHL SUB SWAP1 SWAP2 AND DUP2 MSTORE PUSH1 0x20 ADD PUSH2 0x265 JUMP JUMPDEST CALLVALUE DUP1 ISZERO PUSH2 0x2D4 JUMPI PUSH1 0x0 DUP1 REVERT JUMPDEST POP PUSH2 0x2E8 PUSH2 0x2E3 CALLDATASIZE PUSH1 0x4 PUSH2 0x2FFF JUMP JUMPDEST PUSH2 0x7FA JUMP JUMPDEST STOP JUMPDEST CALLVALUE DUP1 ISZERO PUSH2 0x2F6 JUMPI PUSH1 0x0 DUP1 REVERT JUMPDEST POP PUSH2 0x2FF PUSH2 0x931 JUMP JUMPDEST PUSH1 0x40 MLOAD PUSH2 0x265 SWAP2 SWAP1 PUSH2 0x335F JUMP JUMPDEST CALLVALUE DUP1 ISZERO PUSH2 0x318 JUMPI PUSH1 0x0 DUP1 REVERT JUMPDEST POP PUSH1 0x8 SLOAD JUMPDEST PUSH1 0x40 MLOAD SWAP1 DUP2 MSTORE PUSH1 0x20 ADD PUSH2 0x265 JUMP JUMPDEST CALLVALUE DUP1 ISZERO PUSH2 0x337 JUMPI PUSH1 0x0 DUP1 REVERT JUMPDEST POP PUSH2 0x2E8 PUSH2 0x346 CALLDATASIZE PUSH1 0x4 PUSH2 0x30FC JUMP JUMPDEST PUSH2 0xAC9 JUMP JUMPDEST CALLVALUE DUP1 ISZERO PUSH2 0x357 JUMPI PUSH1 0x0 DUP1 REVERT JUMPDEST POP PUSH2 0x2E8 PUSH2 0x366 CALLDATASIZE PUSH1 0x4 PUSH2 0x2EC6 JUMP JUMPDEST PUSH2 0xB3F JUMP JUMPDEST CALLVALUE DUP1 ISZERO PUSH2 0x377 JUMPI PUSH1 0x0 DUP1 REVERT JUMPDEST POP PUSH2 0x31D PUSH2 0x386 CALLDATASIZE PUSH1 0x4 PUSH2 0x2FFF JUMP JUMPDEST PUSH2 0xBC6 JUMP JUMPDEST CALLVALUE DUP1 ISZERO PUSH2 0x397 JUMPI PUSH1 0x0 DUP1 REVERT JUMPDEST POP PUSH2 0x2E8 PUSH2 0x3A6 CALLDATASIZE PUSH1 0x4 PUSH2 0x3098 JUMP JUMPDEST PUSH2 0xC6E JUMP JUMPDEST CALLVALUE DUP1 ISZERO PUSH2 0x3B7 JUMPI PUSH1 0x0 DUP1 REVERT JUMPDEST POP PUSH2 0x2E8 PUSH2 0x3C6 CALLDATASIZE PUSH1 0x4 PUSH2 0x2EC6 JUMP JUMPDEST PUSH2 0xCD7 JUMP JUMPDEST CALLVALUE DUP1 ISZERO PUSH2 0x3D7 JUMPI PUSH1 0x0 DUP1 REVERT JUMPDEST POP PUSH2 0x31D PUSH2 0x3E6 CALLDATASIZE PUSH1 0x4 PUSH2 0x3158 JUMP JUMPDEST PUSH2 0xCF2 JUMP JUMPDEST PUSH2 0x2E8 PUSH2 0xD96 JUMP JUMPDEST CALLVALUE DUP1 ISZERO PUSH2 0x3FF JUMPI PUSH1 0x0 DUP1 REVERT JUMPDEST POP PUSH2 0x408 PUSH2 0xE6D JUMP JUMPDEST PUSH1 0x40 MLOAD PUSH2 0x265 SWAP2 SWAP1 PUSH2 0x32E0 JUMP JUMPDEST CALLVALUE DUP1 ISZERO PUSH2 0x421 JUMPI PUSH1 0x0 DUP1 REVERT JUMPDEST POP PUSH2 0x435 PUSH2 0x430 CALLDATASIZE PUSH1 0x4 PUSH2 0x3158 JUMP JUMPDEST PUSH2 0xF68 JUMP JUMPDEST PUSH1 0x40 MLOAD PUSH2 0x265 SWAP4 SWAP3 SWAP2 SWAP1 PUSH2 0x3420 JUMP JUMPDEST CALLVALUE DUP1 ISZERO PUSH2 0x450 JUMPI PUSH1 0x0 DUP1 REVERT JUMPDEST POP PUSH2 0x2B0 PUSH2 0x45F CALLDATASIZE PUSH1 0x4 PUSH2 0x3158 JUMP JUMPDEST PUSH2 0x1013 JUMP JUMPDEST CALLVALUE DUP1 ISZERO PUSH2 0x470 JUMPI PUSH1 0x0 DUP1 REVERT JUMPDEST POP PUSH2 0x259 PUSH2 0x47F CALLDATASIZE PUSH1 0x4 PUSH2 0x2E78 JUMP JUMPDEST PUSH1 0x13 PUSH1 0x20 MSTORE PUSH1 0x0 SWAP1 DUP2 MSTORE PUSH1 0x40 SWAP1 KECCAK256 SLOAD PUSH1 0xFF AND DUP2 JUMP JUMPDEST CALLVALUE DUP1 ISZERO PUSH2 0x4A0 JUMPI PUSH1 0x0 DUP1 REVERT JUMPDEST POP PUSH2 0x31D PUSH2 0x4AF CALLDATASIZE PUSH1 0x4 PUSH2 0x2E78 JUMP JUMPDEST PUSH2 0x1078 JUMP JUMPDEST CALLVALUE DUP1 ISZERO PUSH2 0x4C0 JUMPI PUSH1 0x0 DUP1 REVERT JUMPDEST POP PUSH1 0xB SLOAD PUSH1 0x1 PUSH1 0x1 PUSH1 0xA0 SHL SUB AND PUSH2 0x2B0 JUMP JUMPDEST CALLVALUE DUP1 ISZERO PUSH2 0x4DE JUMPI PUSH1 0x0 DUP1 REVERT JUMPDEST POP PUSH2 0x283 PUSH2 0x1112 JUMP JUMPDEST CALLVALUE DUP1 ISZERO PUSH2 0x4F3 JUMPI PUSH1 0x0 DUP1 REVERT JUMPDEST POP PUSH2 0x2E8 PUSH2 0x502 CALLDATASIZE PUSH1 0x4 PUSH2 0x3063 JUMP JUMPDEST PUSH2 0x1121 JUMP JUMPDEST CALLVALUE DUP1 ISZERO PUSH2 0x513 JUMPI PUSH1 0x0 DUP1 REVERT JUMPDEST POP PUSH2 0x283 PUSH2 0x522 CALLDATASIZE PUSH1 0x4 PUSH2 0x2E78 JUMP JUMPDEST PUSH2 0x122B JUMP JUMPDEST CALLVALUE DUP1 ISZERO PUSH2 0x533 JUMPI PUSH1 0x0 DUP1 REVERT JUMPDEST POP PUSH2 0x259 PUSH2 0x542 CALLDATASIZE PUSH1 0x4 PUSH2 0x2E78 JUMP JUMPDEST PUSH1 0x12 PUSH1 0x20 MSTORE PUSH1 0x0 SWAP1 DUP2 MSTORE PUSH1 0x40 SWAP1 KECCAK256 SLOAD PUSH1 0xFF AND DUP2 JUMP JUMPDEST CALLVALUE DUP1 ISZERO PUSH2 0x563 JUMPI PUSH1 0x0 DUP1 REVERT JUMPDEST POP PUSH2 0x31D PUSH1 0xD SLOAD DUP2 JUMP JUMPDEST CALLVALUE DUP1 ISZERO PUSH2 0x579 JUMPI PUSH1 0x0 DUP1 REVERT JUMPDEST POP PUSH2 0x2E8 PUSH2 0x588 CALLDATASIZE PUSH1 0x4 PUSH2 0x2F7E JUMP JUMPDEST PUSH2 0x12C5 JUMP JUMPDEST CALLVALUE DUP1 ISZERO PUSH2 0x599 JUMPI PUSH1 0x0 DUP1 REVERT JUMPDEST POP PUSH2 0x2E8 PUSH2 0x5A8 CALLDATASIZE PUSH1 0x4 PUSH2 0x3171 JUMP JUMPDEST PUSH2 0x12D4 JUMP JUMPDEST CALLVALUE DUP1 ISZERO PUSH2 0x5B9 JUMPI PUSH1 0x0 DUP1 REVERT JUMPDEST POP PUSH2 0x5E9 PUSH2 0x5C8 CALLDATASIZE PUSH1 0x4 PUSH2 0x3158 JUMP JUMPDEST PUSH1 0x16 PUSH1 0x20 MSTORE PUSH1 0x0 SWAP1 DUP2 MSTORE PUSH1 0x40 SWAP1 KECCAK256 DUP1 SLOAD PUSH1 0x1 DUP3 ADD SLOAD PUSH1 0x2 SWAP1 SWAP3 ADD SLOAD SWAP1 SWAP2 SWAP1 DUP4 JUMP JUMPDEST PUSH1 0x40 DUP1 MLOAD SWAP4 DUP5 MSTORE PUSH1 0x20 DUP5 ADD SWAP3 SWAP1 SWAP3 MSTORE SWAP1 DUP3 ADD MSTORE PUSH1 0x60 ADD PUSH2 0x265 JUMP JUMPDEST CALLVALUE DUP1 ISZERO PUSH2 0x610 JUMPI PUSH1 0x0 DUP1 REVERT JUMPDEST POP PUSH2 0x619 PUSH2 0x1562 JUMP JUMPDEST PUSH1 0x40 MLOAD PUSH2 0x265 SWAP2 SWAP1 PUSH2 0x3385 JUMP JUMPDEST CALLVALUE DUP1 ISZERO PUSH2 0x632 JUMPI PUSH1 0x0 DUP1 REVERT JUMPDEST POP PUSH2 0x2E8 PUSH2 0x641 CALLDATASIZE PUSH1 0x4 PUSH2 0x2F02 JUMP JUMPDEST PUSH2 0x198B JUMP JUMPDEST PUSH2 0x2E8 PUSH2 0x654 CALLDATASIZE PUSH1 0x4 PUSH2 0x2FA8 JUMP JUMPDEST PUSH2 0x1A19 JUMP JUMPDEST CALLVALUE DUP1 ISZERO PUSH2 0x665 JUMPI PUSH1 0x0 DUP1 REVERT JUMPDEST POP PUSH2 0x283 PUSH2 0x674 CALLDATASIZE PUSH1 0x4 PUSH2 0x3158 JUMP JUMPDEST PUSH2 0x1BFD JUMP JUMPDEST CALLVALUE DUP1 ISZERO PUSH2 0x685 JUMPI PUSH1 0x0 DUP1 REVERT JUMPDEST POP PUSH2 0x283 PUSH2 0x1D9A JUMP JUMPDEST CALLVALUE DUP1 ISZERO PUSH2 0x69A JUMPI PUSH1 0x0 DUP1 REVERT JUMPDEST POP PUSH2 0x259 PUSH2 0x6A9 CALLDATASIZE PUSH1 0x4 PUSH2 0x2E93 JUMP JUMPDEST PUSH1 0x1 PUSH1 0x1 PUSH1 0xA0 SHL SUB SWAP2 DUP3 AND PUSH1 0x0 SWAP1 DUP2 MSTORE PUSH1 0x5 PUSH1 0x20 SWAP1 DUP2 MSTORE PUSH1 0x40 DUP1 DUP4 KECCAK256 SWAP4 SWAP1 SWAP5 AND DUP3 MSTORE SWAP2 SWAP1 SWAP2 MSTORE KECCAK256 SLOAD PUSH1 0xFF AND SWAP1 JUMP JUMPDEST PUSH2 0x2E8 PUSH2 0x6E5 CALLDATASIZE PUSH1 0x4 PUSH2 0x3158 JUMP JUMPDEST PUSH2 0x1DA7 JUMP JUMPDEST PUSH2 0x2E8 PUSH2 0x6F8 CALLDATASIZE PUSH1 0x4 PUSH2 0x3063 JUMP JUMPDEST PUSH2 0x1E6C JUMP JUMPDEST PUSH1 0x0 PUSH1 0x1 PUSH1 0x1 PUSH1 0xE0 SHL SUB NOT DUP3 AND PUSH32 0x780E9D6300000000000000000000000000000000000000000000000000000000 EQ DUP1 PUSH2 0x73B JUMPI POP PUSH2 0x73B DUP3 PUSH2 0x1FF2 JUMP JUMPDEST SWAP3 SWAP2 POP POP JUMP JUMPDEST PUSH1 0x60 PUSH1 0x0 DUP1 SLOAD PUSH2 0x750 SWAP1 PUSH2 0x34AE JUMP JUMPDEST DUP1 PUSH1 0x1F ADD PUSH1 0x20 DUP1 SWAP2 DIV MUL PUSH1 0x20 ADD PUSH1 0x40 MLOAD SWAP1 DUP2 ADD PUSH1 0x40 MSTORE DUP1 SWAP3 SWAP2 SWAP1 DUP2 DUP2 MSTORE PUSH1 0x20 ADD DUP3 DUP1 SLOAD PUSH2 0x77C SWAP1 PUSH2 0x34AE JUMP JUMPDEST DUP1 ISZERO PUSH2 0x7C9 JUMPI DUP1 PUSH1 0x1F LT PUSH2 0x79E JUMPI PUSH2 0x100 DUP1 DUP4 SLOAD DIV MUL DUP4 MSTORE SWAP2 PUSH1 0x20 ADD SWAP2 PUSH2 0x7C9 JUMP JUMPDEST DUP3 ADD SWAP2 SWAP1 PUSH1 0x0 MSTORE PUSH1 0x20 PUSH1 0x0 KECCAK256 SWAP1 JUMPDEST DUP2 SLOAD DUP2 MSTORE SWAP1 PUSH1 0x1 ADD SWAP1 PUSH1 0x20 ADD DUP1 DUP4 GT PUSH2 0x7AC JUMPI DUP3 SWAP1 SUB PUSH1 0x1F AND DUP3 ADD SWAP2 JUMPDEST POP POP POP POP POP SWAP1 POP SWAP1 JUMP JUMPDEST PUSH1 0x0 PUSH2 0x7DE DUP3 PUSH2 0x208D JUMP JUMPDEST POP PUSH1 0x0 SWAP1 DUP2 MSTORE PUSH1 0x4 PUSH1 0x20 MSTORE PUSH1 0x40 SWAP1 KECCAK256 SLOAD PUSH1 0x1 PUSH1 0x1 PUSH1 0xA0 SHL SUB AND SWAP1 JUMP JUMPDEST PUSH1 0x0 PUSH2 0x805 DUP3 PUSH2 0x1013 JUMP JUMPDEST SWAP1 POP DUP1 PUSH1 0x1 PUSH1 0x1 PUSH1 0xA0 SHL SUB AND DUP4 PUSH1 0x1 PUSH1 0x1 PUSH1 0xA0 SHL SUB AND EQ ISZERO PUSH2 0x894 JUMPI PUSH1 0x40 MLOAD PUSH3 0x461BCD PUSH1 0xE5 SHL DUP2 MSTORE PUSH1 0x20 PUSH1 0x4 DUP3 ADD MSTORE PUSH1 0x21 PUSH1 0x24 DUP3 ADD MSTORE PUSH32 0x4552433732313A20617070726F76616C20746F2063757272656E74206F776E65 PUSH1 0x44 DUP3 ADD MSTORE PUSH32 0x7200000000000000000000000000000000000000000000000000000000000000 PUSH1 0x64 DUP3 ADD MSTORE PUSH1 0x84 ADD JUMPDEST PUSH1 0x40 MLOAD DUP1 SWAP2 SUB SWAP1 REVERT JUMPDEST CALLER PUSH1 0x1 PUSH1 0x1 PUSH1 0xA0 SHL SUB DUP3 AND EQ DUP1 PUSH2 0x8B0 JUMPI POP PUSH2 0x8B0 DUP2 CALLER PUSH2 0x6A9 JUMP JUMPDEST PUSH2 0x922 JUMPI PUSH1 0x40 MLOAD PUSH3 0x461BCD PUSH1 0xE5 SHL DUP2 MSTORE PUSH1 0x20 PUSH1 0x4 DUP3 ADD MSTORE PUSH1 0x3E PUSH1 0x24 DUP3 ADD MSTORE PUSH32 0x4552433732313A20617070726F76652063616C6C6572206973206E6F7420746F PUSH1 0x44 DUP3 ADD MSTORE PUSH32 0x6B656E206F776E6572206E6F7220617070726F76656420666F7220616C6C0000 PUSH1 0x64 DUP3 ADD MSTORE PUSH1 0x84 ADD PUSH2 0x88B JUMP JUMPDEST PUSH2 0x92C DUP4 DUP4 PUSH2 0x20F1 JUMP JUMPDEST POP POP POP JUMP JUMPDEST PUSH1 0x60 PUSH1 0x0 PUSH2 0x93E CALLER PUSH2 0x1078 JUMP JUMPDEST GT PUSH2 0x948 JUMPI PUSH1 0x0 DUP1 REVERT JUMPDEST PUSH1 0x19 DUP1 SLOAD DUP1 PUSH1 0x20 MUL PUSH1 0x20 ADD PUSH1 0x40 MLOAD SWAP1 DUP2 ADD PUSH1 0x40 MSTORE DUP1 SWAP3 SWAP2 SWAP1 DUP2 DUP2 MSTORE PUSH1 0x20 ADD PUSH1 0x0 SWAP1 JUMPDEST DUP3 DUP3 LT ISZERO PUSH2 0xAC0 JUMPI DUP4 DUP3 SWAP1 PUSH1 0x0 MSTORE PUSH1 0x20 PUSH1 0x0 KECCAK256 SWAP1 PUSH1 0x2 MUL ADD PUSH1 0x40 MLOAD DUP1 PUSH1 0x40 ADD PUSH1 0x40 MSTORE SWAP1 DUP2 PUSH1 0x0 DUP3 ADD DUP1 SLOAD PUSH2 0x99D SWAP1 PUSH2 0x34AE JUMP JUMPDEST DUP1 PUSH1 0x1F ADD PUSH1 0x20 DUP1 SWAP2 DIV MUL PUSH1 0x20 ADD PUSH1 0x40 MLOAD SWAP1 DUP2 ADD PUSH1 0x40 MSTORE DUP1 SWAP3 SWAP2 SWAP1 DUP2 DUP2 MSTORE PUSH1 0x20 ADD DUP3 DUP1 SLOAD PUSH2 0x9C9 SWAP1 PUSH2 0x34AE JUMP JUMPDEST DUP1 ISZERO PUSH2 0xA16 JUMPI DUP1 PUSH1 0x1F LT PUSH2 0x9EB JUMPI PUSH2 0x100 DUP1 DUP4 SLOAD DIV MUL DUP4 MSTORE SWAP2 PUSH1 0x20 ADD SWAP2 PUSH2 0xA16 JUMP JUMPDEST DUP3 ADD SWAP2 SWAP1 PUSH1 0x0 MSTORE PUSH1 0x20 PUSH1 0x0 KECCAK256 SWAP1 JUMPDEST DUP2 SLOAD DUP2 MSTORE SWAP1 PUSH1 0x1 ADD SWAP1 PUSH1 0x20 ADD DUP1 DUP4 GT PUSH2 0x9F9 JUMPI DUP3 SWAP1 SUB PUSH1 0x1F AND DUP3 ADD SWAP2 JUMPDEST POP POP POP POP POP DUP2 MSTORE PUSH1 0x20 ADD PUSH1 0x1 DUP3 ADD DUP1 SLOAD PUSH2 0xA2F SWAP1 PUSH2 0x34AE JUMP JUMPDEST DUP1 PUSH1 0x1F ADD PUSH1 0x20 DUP1 SWAP2 DIV MUL PUSH1 0x20 ADD PUSH1 0x40 MLOAD SWAP1 DUP2 ADD PUSH1 0x40 MSTORE DUP1 SWAP3 SWAP2 SWAP1 DUP2 DUP2 MSTORE PUSH1 0x20 ADD DUP3 DUP1 SLOAD PUSH2 0xA5B SWAP1 PUSH2 0x34AE JUMP JUMPDEST DUP1 ISZERO PUSH2 0xAA8 JUMPI DUP1 PUSH1 0x1F LT PUSH2 0xA7D JUMPI PUSH2 0x100 DUP1 DUP4 SLOAD DIV MUL DUP4 MSTORE SWAP2 PUSH1 0x20 ADD SWAP2 PUSH2 0xAA8 JUMP JUMPDEST DUP3 ADD SWAP2 SWAP1 PUSH1 0x0 MSTORE PUSH1 0x20 PUSH1 0x0 KECCAK256 SWAP1 JUMPDEST DUP2 SLOAD DUP2 MSTORE SWAP1 PUSH1 0x1 ADD SWAP1 PUSH1 0x20 ADD DUP1 DUP4 GT PUSH2 0xA8B JUMPI DUP3 SWAP1 SUB PUSH1 0x1F AND DUP3 ADD SWAP2 JUMPDEST POP POP POP POP POP DUP2 MSTORE POP POP DUP2 MSTORE PUSH1 0x20 ADD SWAP1 PUSH1 0x1 ADD SWAP1 PUSH2 0x96A JUMP JUMPDEST POP POP POP POP SWAP1 POP SWAP1 JUMP JUMPDEST PUSH2 0xAD1 PUSH2 0x216C JUMP JUMPDEST PUSH1 0x0 DUP2 DUP2 MSTORE PUSH1 0x15 PUSH1 0x20 SWAP1 DUP2 MSTORE PUSH1 0x40 DUP1 DUP4 KECCAK256 DUP2 MLOAD DUP1 DUP4 ADD SWAP1 SWAP3 MSTORE DUP6 DUP3 MSTORE DUP2 DUP4 ADD DUP8 SWAP1 MSTORE DUP1 SLOAD PUSH1 0x1 DUP2 ADD DUP3 SSTORE SWAP1 DUP5 MSTORE SWAP3 DUP3 SWAP1 KECCAK256 DUP2 MLOAD DUP1 MLOAD SWAP3 SWAP5 PUSH1 0x2 MUL SWAP1 SWAP2 ADD SWAP3 PUSH2 0xB1E SWAP3 DUP5 SWAP3 SWAP1 SWAP2 ADD SWAP1 PUSH2 0x2C65 JUMP JUMPDEST POP PUSH1 0x20 DUP3 DUP2 ADD MLOAD DUP1 MLOAD PUSH2 0xB37 SWAP3 PUSH1 0x1 DUP6 ADD SWAP3 ADD SWAP1 PUSH2 0x2C65 JUMP JUMPDEST POP POP POP POP POP POP JUMP JUMPDEST PUSH2 0xB49 CALLER DUP3 PUSH2 0x21C8 JUMP JUMPDEST PUSH2 0xBBB JUMPI PUSH1 0x40 MLOAD PUSH3 0x461BCD PUSH1 0xE5 SHL DUP2 MSTORE PUSH1 0x20 PUSH1 0x4 DUP3 ADD MSTORE PUSH1 0x2E PUSH1 0x24 DUP3 ADD MSTORE PUSH32 0x4552433732313A2063616C6C6572206973206E6F7420746F6B656E206F776E65 PUSH1 0x44 DUP3 ADD MSTORE PUSH32 0x72206E6F7220617070726F766564000000000000000000000000000000000000 PUSH1 0x64 DUP3 ADD MSTORE PUSH1 0x84 ADD PUSH2 0x88B JUMP JUMPDEST PUSH2 0x92C DUP4 DUP4 DUP4 PUSH2 0x2247 JUMP JUMPDEST PUSH1 0x0 PUSH2 0xBD1 DUP4 PUSH2 0x1078 JUMP JUMPDEST DUP3 LT PUSH2 0xC45 JUMPI PUSH1 0x40 MLOAD PUSH3 0x461BCD PUSH1 0xE5 SHL DUP2 MSTORE PUSH1 0x20 PUSH1 0x4 DUP3 ADD MSTORE PUSH1 0x2B PUSH1 0x24 DUP3 ADD MSTORE PUSH32 0x455243373231456E756D657261626C653A206F776E657220696E646578206F75 PUSH1 0x44 DUP3 ADD MSTORE PUSH32 0x74206F6620626F756E6473000000000000000000000000000000000000000000 PUSH1 0x64 DUP3 ADD MSTORE PUSH1 0x84 ADD PUSH2 0x88B JUMP JUMPDEST POP PUSH1 0x1 PUSH1 0x1 PUSH1 0xA0 SHL SUB SWAP2 SWAP1 SWAP2 AND PUSH1 0x0 SWAP1 DUP2 MSTORE PUSH1 0x6 PUSH1 0x20 SWAP1 DUP2 MSTORE PUSH1 0x40 DUP1 DUP4 KECCAK256 SWAP4 DUP4 MSTORE SWAP3 SWAP1 MSTORE KECCAK256 SLOAD SWAP1 JUMP JUMPDEST PUSH2 0xC76 PUSH2 0x216C JUMP JUMPDEST PUSH1 0x40 DUP1 MLOAD DUP1 DUP3 ADD SWAP1 SWAP2 MSTORE DUP3 DUP2 MSTORE PUSH1 0x20 DUP1 DUP3 ADD DUP4 SWAP1 MSTORE PUSH1 0x19 DUP1 SLOAD PUSH1 0x1 DUP2 ADD DUP3 SSTORE PUSH1 0x0 SWAP2 SWAP1 SWAP2 MSTORE DUP3 MLOAD DUP1 MLOAD DUP5 SWAP4 PUSH1 0x2 SWAP1 SWAP4 MUL PUSH32 0x944998273E477B495144FB8794C914197F3CCB46BE2900F4698FD0EF743C9695 ADD SWAP3 PUSH2 0xB1E SWAP3 DUP5 SWAP3 SWAP2 ADD SWAP1 PUSH2 0x2C65 JUMP JUMPDEST PUSH2 0x92C DUP4 DUP4 DUP4 PUSH1 0x40 MLOAD DUP1 PUSH1 0x20 ADD PUSH1 0x40 MSTORE DUP1 PUSH1 0x0 DUP2 MSTORE POP PUSH2 0x198B JUMP JUMPDEST PUSH1 0x0 PUSH2 0xCFD PUSH1 0x8 SLOAD SWAP1 JUMP JUMPDEST DUP3 LT PUSH2 0xD71 JUMPI PUSH1 0x40 MLOAD PUSH3 0x461BCD PUSH1 0xE5 SHL DUP2 MSTORE PUSH1 0x20 PUSH1 0x4 DUP3 ADD MSTORE PUSH1 0x2C PUSH1 0x24 DUP3 ADD MSTORE PUSH32 0x455243373231456E756D657261626C653A20676C6F62616C20696E646578206F PUSH1 0x44 DUP3 ADD MSTORE PUSH32 0x7574206F6620626F756E64730000000000000000000000000000000000000000 PUSH1 0x64 DUP3 ADD MSTORE PUSH1 0x84 ADD PUSH2 0x88B JUMP JUMPDEST PUSH1 0x8 DUP3 DUP2 SLOAD DUP2 LT PUSH2 0xD84 JUMPI PUSH2 0xD84 PUSH2 0x355A JUMP JUMPDEST SWAP1 PUSH1 0x0 MSTORE PUSH1 0x20 PUSH1 0x0 KECCAK256 ADD SLOAD SWAP1 POP SWAP2 SWAP1 POP JUMP JUMPDEST PUSH2 0xD9E PUSH2 0x216C JUMP JUMPDEST PUSH7 0x8E1BC9BF040000 CALLVALUE LT ISZERO PUSH2 0xE1A JUMPI PUSH1 0x40 MLOAD PUSH3 0x461BCD PUSH1 0xE5 SHL DUP2 MSTORE PUSH1 0x20 PUSH1 0x4 DUP3 ADD MSTORE PUSH1 0x24 DUP1 DUP3 ADD MSTORE PUSH32 0x54686973207472616E73616374696F6E20726571756972657320302E30342065 PUSH1 0x44 DUP3 ADD MSTORE PUSH32 0x7468657200000000000000000000000000000000000000000000000000000000 PUSH1 0x64 DUP3 ADD MSTORE PUSH1 0x84 ADD PUSH2 0x88B JUMP JUMPDEST PUSH1 0x64 PUSH1 0xE PUSH1 0x0 DUP3 DUP3 SLOAD PUSH2 0xE2D SWAP2 SWAP1 PUSH2 0x343F JUMP JUMPDEST SWAP1 SWAP2 SSTORE POP POP PUSH1 0xA SLOAD PUSH1 0x1 PUSH1 0x1 PUSH1 0xA0 SHL SUB AND PUSH2 0x8FC CALLVALUE PUSH1 0x40 MLOAD DUP2 ISZERO SWAP1 SWAP3 MUL SWAP2 PUSH1 0x0 DUP2 DUP2 DUP2 DUP6 DUP9 DUP9 CALL SWAP4 POP POP POP POP ISZERO DUP1 ISZERO PUSH2 0xE6A JUMPI RETURNDATASIZE PUSH1 0x0 DUP1 RETURNDATACOPY RETURNDATASIZE PUSH1 0x0 REVERT JUMPDEST POP JUMP JUMPDEST PUSH1 0x60 PUSH1 0x18 DUP1 SLOAD DUP1 PUSH1 0x20 MUL PUSH1 0x20 ADD PUSH1 0x40 MLOAD SWAP1 DUP2 ADD PUSH1 0x40 MSTORE DUP1 SWAP3 SWAP2 SWAP1 DUP2 DUP2 MSTORE PUSH1 0x20 ADD PUSH1 0x0 SWAP1 JUMPDEST DUP3 DUP3 LT ISZERO PUSH2 0xAC0 JUMPI DUP4 DUP3 SWAP1 PUSH1 0x0 MSTORE PUSH1 0x20 PUSH1 0x0 KECCAK256 SWAP1 PUSH1 0x2 MUL ADD PUSH1 0x40 MLOAD DUP1 PUSH1 0x40 ADD PUSH1 0x40 MSTORE SWAP1 DUP2 PUSH1 0x0 DUP3 ADD DUP1 SLOAD PUSH2 0xEC4 SWAP1 PUSH2 0x34AE JUMP JUMPDEST DUP1 PUSH1 0x1F ADD PUSH1 0x20 DUP1 SWAP2 DIV MUL PUSH1 0x20 ADD PUSH1 0x40 MLOAD SWAP1 DUP2 ADD PUSH1 0x40 MSTORE DUP1 SWAP3 SWAP2 SWAP1 DUP2 DUP2 MSTORE PUSH1 0x20 ADD DUP3 DUP1 SLOAD PUSH2 0xEF0 SWAP1 PUSH2 0x34AE JUMP JUMPDEST DUP1 ISZERO PUSH2 0xF3D JUMPI DUP1 PUSH1 0x1F LT PUSH2 0xF12 JUMPI PUSH2 0x100 DUP1 DUP4 SLOAD DIV MUL DUP4 MSTORE SWAP2 PUSH1 0x20 ADD SWAP2 PUSH2 0xF3D JUMP JUMPDEST DUP3 ADD SWAP2 SWAP1 PUSH1 0x0 MSTORE PUSH1 0x20 PUSH1 0x0 KECCAK256 SWAP1 JUMPDEST DUP2 SLOAD DUP2 MSTORE SWAP1 PUSH1 0x1 ADD SWAP1 PUSH1 0x20 ADD DUP1 DUP4 GT PUSH2 0xF20 JUMPI DUP3 SWAP1 SUB PUSH1 0x1F AND DUP3 ADD SWAP2 JUMPDEST POP POP POP SWAP2 DUP4 MSTORE POP POP PUSH1 0x1 SWAP2 DUP3 ADD SLOAD PUSH1 0x1 PUSH1 0x1 PUSH1 0xA0 SHL SUB AND PUSH1 0x20 SWAP2 DUP3 ADD MSTORE SWAP2 DUP4 MSTORE SWAP3 SWAP1 SWAP3 ADD SWAP2 ADD PUSH2 0xE91 JUMP JUMPDEST PUSH1 0x17 PUSH1 0x20 MSTORE PUSH1 0x0 SWAP1 DUP2 MSTORE PUSH1 0x40 SWAP1 KECCAK256 DUP1 SLOAD PUSH1 0x1 DUP3 ADD SLOAD PUSH1 0x2 DUP4 ADD DUP1 SLOAD SWAP3 SWAP4 SWAP2 SWAP3 PUSH2 0xF90 SWAP1 PUSH2 0x34AE JUMP JUMPDEST DUP1 PUSH1 0x1F ADD PUSH1 0x20 DUP1 SWAP2 DIV MUL PUSH1 0x20 ADD PUSH1 0x40 MLOAD SWAP1 DUP2 ADD PUSH1 0x40 MSTORE DUP1 SWAP3 SWAP2 SWAP1 DUP2 DUP2 MSTORE PUSH1 0x20 ADD DUP3 DUP1 SLOAD PUSH2 0xFBC SWAP1 PUSH2 0x34AE JUMP JUMPDEST DUP1 ISZERO PUSH2 0x1009 JUMPI DUP1 PUSH1 0x1F LT PUSH2 0xFDE JUMPI PUSH2 0x100 DUP1 DUP4 SLOAD DIV MUL DUP4 MSTORE SWAP2 PUSH1 0x20 ADD SWAP2 PUSH2 0x1009 JUMP JUMPDEST DUP3 ADD SWAP2 SWAP1 PUSH1 0x0 MSTORE PUSH1 0x20 PUSH1 0x0 KECCAK256 SWAP1 JUMPDEST DUP2 SLOAD DUP2 MSTORE SWAP1 PUSH1 0x1 ADD SWAP1 PUSH1 0x20 ADD DUP1 DUP4 GT PUSH2 0xFEC JUMPI DUP3 SWAP1 SUB PUSH1 0x1F AND DUP3 ADD SWAP2 JUMPDEST POP POP POP POP POP SWAP1 POP DUP4 JUMP JUMPDEST PUSH1 0x0 DUP2 DUP2 MSTORE PUSH1 0x2 PUSH1 0x20 MSTORE PUSH1 0x40 DUP2 KECCAK256 SLOAD PUSH1 0x1 PUSH1 0x1 PUSH1 0xA0 SHL SUB AND DUP1 PUSH2 0x73B JUMPI PUSH1 0x40 MLOAD PUSH3 0x461BCD PUSH1 0xE5 SHL DUP2 MSTORE PUSH1 0x20 PUSH1 0x4 DUP3 ADD MSTORE PUSH1 0x18 PUSH1 0x24 DUP3 ADD MSTORE PUSH32 0x4552433732313A20696E76616C696420746F6B656E2049440000000000000000 PUSH1 0x44 DUP3 ADD MSTORE PUSH1 0x64 ADD PUSH2 0x88B JUMP JUMPDEST PUSH1 0x0 PUSH1 0x1 PUSH1 0x1 PUSH1 0xA0 SHL SUB DUP3 AND PUSH2 0x10F6 JUMPI PUSH1 0x40 MLOAD PUSH3 0x461BCD PUSH1 0xE5 SHL DUP2 MSTORE PUSH1 0x20 PUSH1 0x4 DUP3 ADD MSTORE PUSH1 0x29 PUSH1 0x24 DUP3 ADD MSTORE PUSH32 0x4552433732313A2061646472657373207A65726F206973206E6F742061207661 PUSH1 0x44 DUP3 ADD MSTORE PUSH32 0x6C6964206F776E65720000000000000000000000000000000000000000000000 PUSH1 0x64 DUP3 ADD MSTORE PUSH1 0x84 ADD PUSH2 0x88B JUMP JUMPDEST POP PUSH1 0x1 PUSH1 0x1 PUSH1 0xA0 SHL SUB AND PUSH1 0x0 SWAP1 DUP2 MSTORE PUSH1 0x3 PUSH1 0x20 MSTORE PUSH1 0x40 SWAP1 KECCAK256 SLOAD SWAP1 JUMP JUMPDEST PUSH1 0x60 PUSH1 0x1 DUP1 SLOAD PUSH2 0x750 SWAP1 PUSH2 0x34AE JUMP JUMPDEST PUSH1 0x0 PUSH1 0x40 MLOAD DUP1 PUSH1 0x40 ADD PUSH1 0x40 MSTORE DUP1 DUP4 DUP2 MSTORE PUSH1 0x20 ADD PUSH2 0x113B CALLER SWAP1 JUMP JUMPDEST PUSH1 0x1 PUSH1 0x1 PUSH1 0xA0 SHL SUB AND SWAP1 MSTORE PUSH1 0x18 DUP1 SLOAD PUSH1 0x1 DUP2 ADD DUP3 SSTORE PUSH1 0x0 SWAP2 SWAP1 SWAP2 MSTORE DUP2 MLOAD DUP1 MLOAD SWAP3 SWAP4 POP DUP4 SWAP3 PUSH1 0x2 SWAP1 SWAP3 MUL PUSH32 0xB13D2D76D1F4B7BE834882E410B3E3A8AFAF69F83600AE24DB354391D2378D2E ADD SWAP2 PUSH2 0x1199 SWAP2 DUP4 SWAP2 PUSH1 0x20 SWAP2 SWAP1 SWAP2 ADD SWAP1 PUSH2 0x2C65 JUMP JUMPDEST POP PUSH1 0x20 SWAP2 DUP3 ADD MLOAD PUSH1 0x1 SWAP2 DUP3 ADD DUP1 SLOAD PUSH20 0xFFFFFFFFFFFFFFFFFFFFFFFFFFFFFFFFFFFFFFFF NOT AND PUSH1 0x1 PUSH1 0x1 PUSH1 0xA0 SHL SUB SWAP1 SWAP3 AND SWAP2 SWAP1 SWAP2 OR SWAP1 SSTORE CALLER PUSH1 0x0 SWAP1 DUP2 MSTORE PUSH1 0x12 SWAP1 SWAP3 MSTORE PUSH1 0x40 SWAP2 DUP3 SWAP1 KECCAK256 DUP1 SLOAD PUSH1 0xFF NOT AND SWAP1 SWAP2 OR SWAP1 SSTORE MLOAD PUSH2 0x11F7 SWAP1 DUP3 SWAP1 PUSH2 0x326A JUMP JUMPDEST PUSH1 0x40 MLOAD SWAP1 DUP2 SWAP1 SUB DUP2 KECCAK256 SWAP1 PUSH32 0x88DB4A536F075851673FBCB81050AB51C0A709DE0EEF6AA0C872A927C0ADE24C SWAP1 PUSH1 0x0 SWAP1 LOG2 POP POP JUMP JUMPDEST PUSH1 0x14 PUSH1 0x20 MSTORE PUSH1 0x0 SWAP1 DUP2 MSTORE PUSH1 0x40 SWAP1 KECCAK256 DUP1 SLOAD PUSH2 0x1244 SWAP1 PUSH2 0x34AE JUMP JUMPDEST DUP1 PUSH1 0x1F ADD PUSH1 0x20 DUP1 SWAP2 DIV MUL PUSH1 0x20 ADD PUSH1 0x40 MLOAD SWAP1 DUP2 ADD PUSH1 0x40 MSTORE DUP1 SWAP3 SWAP2 SWAP1 DUP2 DUP2 MSTORE PUSH1 0x20 ADD DUP3 DUP1 SLOAD PUSH2 0x1270 SWAP1 PUSH2 0x34AE JUMP JUMPDEST DUP1 ISZERO PUSH2 0x12BD JUMPI DUP1 PUSH1 0x1F LT PUSH2 0x1292 JUMPI PUSH2 0x100 DUP1 DUP4 SLOAD DIV MUL DUP4 MSTORE SWAP2 PUSH1 0x20 ADD SWAP2 PUSH2 0x12BD JUMP JUMPDEST DUP3 ADD SWAP2 SWAP1 PUSH1 0x0 MSTORE PUSH1 0x20 PUSH1 0x0 KECCAK256 SWAP1 JUMPDEST DUP2 SLOAD DUP2 MSTORE SWAP1 PUSH1 0x1 ADD SWAP1 PUSH1 0x20 ADD DUP1 DUP4 GT PUSH2 0x12A0 JUMPI DUP3 SWAP1 SUB PUSH1 0x1F AND DUP3 ADD SWAP2 JUMPDEST POP POP POP POP POP DUP2 JUMP JUMPDEST PUSH2 0x12D0 CALLER DUP4 DUP4 PUSH2 0x242C JUMP JUMPDEST POP POP JUMP JUMPDEST PUSH2 0x12DC PUSH2 0x216C JUMP JUMPDEST PUSH1 0x0 PUSH1 0x18 DUP4 DUP2 SLOAD DUP2 LT PUSH2 0x12F1 JUMPI PUSH2 0x12F1 PUSH2 0x355A JUMP JUMPDEST SWAP1 PUSH1 0x0 MSTORE PUSH1 0x20 PUSH1 0x0 KECCAK256 SWAP1 PUSH1 0x2 MUL ADD PUSH1 0x40 MLOAD DUP1 PUSH1 0x40 ADD PUSH1 0x40 MSTORE SWAP1 DUP2 PUSH1 0x0 DUP3 ADD DUP1 SLOAD PUSH2 0x131A SWAP1 PUSH2 0x34AE JUMP JUMPDEST DUP1 PUSH1 0x1F ADD PUSH1 0x20 DUP1 SWAP2 DIV MUL PUSH1 0x20 ADD PUSH1 0x40 MLOAD SWAP1 DUP2 ADD PUSH1 0x40 MSTORE DUP1 SWAP3 SWAP2 SWAP1 DUP2 DUP2 MSTORE PUSH1 0x20 ADD DUP3 DUP1 SLOAD PUSH2 0x1346 SWAP1 PUSH2 0x34AE JUMP JUMPDEST DUP1 ISZERO PUSH2 0x1393 JUMPI DUP1 PUSH1 0x1F LT PUSH2 0x1368 JUMPI PUSH2 0x100 DUP1 DUP4 SLOAD DIV MUL DUP4 MSTORE SWAP2 PUSH1 0x20 ADD SWAP2 PUSH2 0x1393 JUMP JUMPDEST DUP3 ADD SWAP2 SWAP1 PUSH1 0x0 MSTORE PUSH1 0x20 PUSH1 0x0 KECCAK256 SWAP1 JUMPDEST DUP2 SLOAD DUP2 MSTORE SWAP1 PUSH1 0x1 ADD SWAP1 PUSH1 0x20 ADD DUP1 DUP4 GT PUSH2 0x1376 JUMPI DUP3 SWAP1 SUB PUSH1 0x1F AND DUP3 ADD SWAP2 JUMPDEST POP POP POP SWAP2 DUP4 MSTORE POP POP PUSH1 0x1 SWAP2 SWAP1 SWAP2 ADD SLOAD PUSH1 0x1 PUSH1 0x1 PUSH1 0xA0 SHL SUB AND PUSH1 0x20 SWAP1 SWAP2 ADD MSTORE SWAP1 POP DUP2 ISZERO PUSH2 0x1405 JUMPI PUSH1 0x20 DUP1 DUP3 ADD DUP1 MLOAD PUSH1 0x1 PUSH1 0x1 PUSH1 0xA0 SHL SUB SWAP1 DUP2 AND PUSH1 0x0 SWAP1 DUP2 MSTORE PUSH1 0x13 DUP5 MSTORE PUSH1 0x40 DUP1 DUP3 KECCAK256 DUP1 SLOAD PUSH1 0xFF NOT AND PUSH1 0x1 OR SWAP1 SSTORE DUP6 MLOAD SWAP4 MLOAD SWAP1 SWAP3 AND DUP2 MSTORE PUSH1 0x14 DUP5 MSTORE KECCAK256 DUP2 MLOAD PUSH2 0x1403 SWAP4 SWAP2 SWAP3 SWAP1 SWAP2 ADD SWAP1 PUSH2 0x2C65 JUMP JUMPDEST POP JUMPDEST DUP2 ISZERO ISZERO DUP2 PUSH1 0x40 MLOAD PUSH2 0x1416 SWAP2 SWAP1 PUSH2 0x326A JUMP JUMPDEST PUSH1 0x40 MLOAD SWAP1 DUP2 SWAP1 SUB DUP2 KECCAK256 SWAP1 PUSH32 0x5B5CC648C0CDB118EEB9957A32510510D658BB499F3D22585DDF52D84082956C SWAP1 PUSH1 0x0 SWAP1 LOG3 PUSH1 0x18 DUP1 SLOAD PUSH2 0x1456 SWAP1 PUSH1 0x1 SWAP1 PUSH2 0x346B JUMP JUMPDEST DUP2 SLOAD DUP2 LT PUSH2 0x1466 JUMPI PUSH2 0x1466 PUSH2 0x355A JUMP JUMPDEST SWAP1 PUSH1 0x0 MSTORE PUSH1 0x20 PUSH1 0x0 KECCAK256 SWAP1 PUSH1 0x2 MUL ADD PUSH1 0x18 DUP5 DUP2 SLOAD DUP2 LT PUSH2 0x1487 JUMPI PUSH2 0x1487 PUSH2 0x355A JUMP JUMPDEST SWAP1 PUSH1 0x0 MSTORE PUSH1 0x20 PUSH1 0x0 KECCAK256 SWAP1 PUSH1 0x2 MUL ADD PUSH1 0x0 DUP3 ADD DUP2 PUSH1 0x0 ADD SWAP1 DUP1 SLOAD PUSH2 0x14A9 SWAP1 PUSH2 0x34AE JUMP JUMPDEST PUSH2 0x14B4 SWAP3 SWAP2 SWAP1 PUSH2 0x2CE9 JUMP JUMPDEST POP PUSH1 0x1 SWAP2 DUP3 ADD SLOAD SWAP2 ADD DUP1 SLOAD PUSH20 0xFFFFFFFFFFFFFFFFFFFFFFFFFFFFFFFFFFFFFFFF NOT AND PUSH1 0x1 PUSH1 0x1 PUSH1 0xA0 SHL SUB SWAP1 SWAP3 AND SWAP2 SWAP1 SWAP2 OR SWAP1 SSTORE PUSH1 0x18 DUP1 SLOAD DUP1 PUSH2 0x14F8 JUMPI PUSH2 0x14F8 PUSH2 0x3544 JUMP JUMPDEST PUSH1 0x0 DUP3 DUP2 MSTORE PUSH1 0x20 DUP2 KECCAK256 PUSH1 0x0 NOT SWAP1 SWAP3 ADD SWAP2 PUSH1 0x2 DUP4 MUL ADD SWAP1 PUSH2 0x1518 DUP3 DUP3 PUSH2 0x2D64 JUMP JUMPDEST POP PUSH1 0x1 ADD DUP1 SLOAD PUSH20 0xFFFFFFFFFFFFFFFFFFFFFFFFFFFFFFFFFFFFFFFF NOT AND SWAP1 SSTORE SWAP1 SSTORE PUSH1 0x20 SWAP1 DUP2 ADD MLOAD PUSH1 0x1 PUSH1 0x1 PUSH1 0xA0 SHL SUB AND PUSH1 0x0 SWAP1 DUP2 MSTORE PUSH1 0x12 SWAP1 SWAP2 MSTORE PUSH1 0x40 SWAP1 KECCAK256 DUP1 SLOAD PUSH1 0xFF NOT AND SWAP1 SSTORE POP POP JUMP JUMPDEST PUSH2 0x15A4 PUSH1 0x40 MLOAD DUP1 PUSH1 0xC0 ADD PUSH1 0x40 MSTORE DUP1 PUSH1 0x0 DUP2 MSTORE PUSH1 0x20 ADD PUSH1 0x0 PUSH1 0x1 PUSH1 0x1 PUSH1 0xA0 SHL SUB AND DUP2 MSTORE PUSH1 0x20 ADD PUSH1 0x60 DUP2 MSTORE PUSH1 0x20 ADD PUSH1 0x60 DUP2 MSTORE PUSH1 0x20 ADD PUSH1 0x60 DUP2 MSTORE PUSH1 0x20 ADD PUSH1 0x60 DUP2 MSTORE POP SWAP1 JUMP JUMPDEST PUSH1 0x40 MLOAD DUP1 PUSH1 0xC0 ADD PUSH1 0x40 MSTORE DUP1 PUSH1 0xC SLOAD DUP2 MSTORE PUSH1 0x20 ADD PUSH2 0x15C9 PUSH1 0xB SLOAD PUSH1 0x1 PUSH1 0x1 PUSH1 0xA0 SHL SUB AND SWAP1 JUMP JUMPDEST PUSH1 0x1 PUSH1 0x1 PUSH1 0xA0 SHL SUB AND DUP2 MSTORE PUSH1 0x20 ADD PUSH1 0x10 DUP1 SLOAD PUSH2 0x15E4 SWAP1 PUSH2 0x34AE JUMP JUMPDEST DUP1 PUSH1 0x1F ADD PUSH1 0x20 DUP1 SWAP2 DIV MUL PUSH1 0x20 ADD PUSH1 0x40 MLOAD SWAP1 DUP2 ADD PUSH1 0x40 MSTORE DUP1 SWAP3 SWAP2 SWAP1 DUP2 DUP2 MSTORE PUSH1 0x20 ADD DUP3 DUP1 SLOAD PUSH2 0x1610 SWAP1 PUSH2 0x34AE JUMP JUMPDEST DUP1 ISZERO PUSH2 0x165D JUMPI DUP1 PUSH1 0x1F LT PUSH2 0x1632 JUMPI PUSH2 0x100 DUP1 DUP4 SLOAD DIV MUL DUP4 MSTORE SWAP2 PUSH1 0x20 ADD SWAP2 PUSH2 0x165D JUMP JUMPDEST DUP3 ADD SWAP2 SWAP1 PUSH1 0x0 MSTORE PUSH1 0x20 PUSH1 0x0 KECCAK256 SWAP1 JUMPDEST DUP2 SLOAD DUP2 MSTORE SWAP1 PUSH1 0x1 ADD SWAP1 PUSH1 0x20 ADD DUP1 DUP4 GT PUSH2 0x1640 JUMPI DUP3 SWAP1 SUB PUSH1 0x1F AND DUP3 ADD SWAP2 JUMPDEST POP POP POP POP POP DUP2 MSTORE PUSH1 0x20 ADD PUSH2 0x1671 PUSH1 0x0 PUSH2 0x1BFD JUMP JUMPDEST DUP2 MSTORE PUSH1 0x20 ADD PUSH1 0x19 DUP1 SLOAD DUP1 PUSH1 0x20 MUL PUSH1 0x20 ADD PUSH1 0x40 MLOAD SWAP1 DUP2 ADD PUSH1 0x40 MSTORE DUP1 SWAP3 SWAP2 SWAP1 DUP2 DUP2 MSTORE PUSH1 0x20 ADD PUSH1 0x0 SWAP1 JUMPDEST DUP3 DUP3 LT ISZERO PUSH2 0x17EE JUMPI DUP4 DUP3 SWAP1 PUSH1 0x0 MSTORE PUSH1 0x20 PUSH1 0x0 KECCAK256 SWAP1 PUSH1 0x2 MUL ADD PUSH1 0x40 MLOAD DUP1 PUSH1 0x40 ADD PUSH1 0x40 MSTORE SWAP1 DUP2 PUSH1 0x0 DUP3 ADD DUP1 SLOAD PUSH2 0x16CB SWAP1 PUSH2 0x34AE JUMP JUMPDEST DUP1 PUSH1 0x1F ADD PUSH1 0x20 DUP1 SWAP2 DIV MUL PUSH1 0x20 ADD PUSH1 0x40 MLOAD SWAP1 DUP2 ADD PUSH1 0x40 MSTORE DUP1 SWAP3 SWAP2 SWAP1 DUP2 DUP2 MSTORE PUSH1 0x20 ADD DUP3 DUP1 SLOAD PUSH2 0x16F7 SWAP1 PUSH2 0x34AE JUMP JUMPDEST DUP1 ISZERO PUSH2 0x1744 JUMPI DUP1 PUSH1 0x1F LT PUSH2 0x1719 JUMPI PUSH2 0x100 DUP1 DUP4 SLOAD DIV MUL DUP4 MSTORE SWAP2 PUSH1 0x20 ADD SWAP2 PUSH2 0x1744 JUMP JUMPDEST DUP3 ADD SWAP2 SWAP1 PUSH1 0x0 MSTORE PUSH1 0x20 PUSH1 0x0 KECCAK256 SWAP1 JUMPDEST DUP2 SLOAD DUP2 MSTORE SWAP1 PUSH1 0x1 ADD SWAP1 PUSH1 0x20 ADD DUP1 DUP4 GT PUSH2 0x1727 JUMPI DUP3 SWAP1 SUB PUSH1 0x1F AND DUP3 ADD SWAP2 JUMPDEST POP POP POP POP POP DUP2 MSTORE PUSH1 0x20 ADD PUSH1 0x1 DUP3 ADD DUP1 SLOAD PUSH2 0x175D SWAP1 PUSH2 0x34AE JUMP JUMPDEST DUP1 PUSH1 0x1F ADD PUSH1 0x20 DUP1 SWAP2 DIV MUL PUSH1 0x20 ADD PUSH1 0x40 MLOAD SWAP1 DUP2 ADD PUSH1 0x40 MSTORE DUP1 SWAP3 SWAP2 SWAP1 DUP2 DUP2 MSTORE PUSH1 0x20 ADD DUP3 DUP1 SLOAD PUSH2 0x1789 SWAP1 PUSH2 0x34AE JUMP JUMPDEST DUP1 ISZERO PUSH2 0x17D6 JUMPI DUP1 PUSH1 0x1F LT PUSH2 0x17AB JUMPI PUSH2 0x100 DUP1 DUP4 SLOAD DIV MUL DUP4 MSTORE SWAP2 PUSH1 0x20 ADD SWAP2 PUSH2 0x17D6 JUMP JUMPDEST DUP3 ADD SWAP2 SWAP1 PUSH1 0x0 MSTORE PUSH1 0x20 PUSH1 0x0 KECCAK256 SWAP1 JUMPDEST DUP2 SLOAD DUP2 MSTORE SWAP1 PUSH1 0x1 ADD SWAP1 PUSH1 0x20 ADD DUP1 DUP4 GT PUSH2 0x17B9 JUMPI DUP3 SWAP1 SUB PUSH1 0x1F AND DUP3 ADD SWAP2 JUMPDEST POP POP POP POP POP DUP2 MSTORE POP POP DUP2 MSTORE PUSH1 0x20 ADD SWAP1 PUSH1 0x1 ADD SWAP1 PUSH2 0x1698 JUMP JUMPDEST POP POP POP POP DUP2 MSTORE PUSH1 0x20 ADD PUSH1 0x15 PUSH1 0x0 DUP1 DUP2 MSTORE PUSH1 0x20 ADD SWAP1 DUP2 MSTORE PUSH1 0x20 ADD PUSH1 0x0 KECCAK256 DUP1 SLOAD DUP1 PUSH1 0x20 MUL PUSH1 0x20 ADD PUSH1 0x40 MLOAD SWAP1 DUP2 ADD PUSH1 0x40 MSTORE DUP1 SWAP3 SWAP2 SWAP1 DUP2 DUP2 MSTORE PUSH1 0x20 ADD PUSH1 0x0 SWAP1 JUMPDEST DUP3 DUP3 LT ISZERO PUSH2 0x1980 JUMPI DUP4 DUP3 SWAP1 PUSH1 0x0 MSTORE PUSH1 0x20 PUSH1 0x0 KECCAK256 SWAP1 PUSH1 0x2 MUL ADD PUSH1 0x40 MLOAD DUP1 PUSH1 0x40 ADD PUSH1 0x40 MSTORE SWAP1 DUP2 PUSH1 0x0 DUP3 ADD DUP1 SLOAD PUSH2 0x185D SWAP1 PUSH2 0x34AE JUMP JUMPDEST DUP1 PUSH1 0x1F ADD PUSH1 0x20 DUP1 SWAP2 DIV MUL PUSH1 0x20 ADD PUSH1 0x40 MLOAD SWAP1 DUP2 ADD PUSH1 0x40 MSTORE DUP1 SWAP3 SWAP2 SWAP1 DUP2 DUP2 MSTORE PUSH1 0x20 ADD DUP3 DUP1 SLOAD PUSH2 0x1889 SWAP1 PUSH2 0x34AE JUMP JUMPDEST DUP1 ISZERO PUSH2 0x18D6 JUMPI DUP1 PUSH1 0x1F LT PUSH2 0x18AB JUMPI PUSH2 0x100 DUP1 DUP4 SLOAD DIV MUL DUP4 MSTORE SWAP2 PUSH1 0x20 ADD SWAP2 PUSH2 0x18D6 JUMP JUMPDEST DUP3 ADD SWAP2 SWAP1 PUSH1 0x0 MSTORE PUSH1 0x20 PUSH1 0x0 KECCAK256 SWAP1 JUMPDEST DUP2 SLOAD DUP2 MSTORE SWAP1 PUSH1 0x1 ADD SWAP1 PUSH1 0x20 ADD DUP1 DUP4 GT PUSH2 0x18B9 JUMPI DUP3 SWAP1 SUB PUSH1 0x1F AND DUP3 ADD SWAP2 JUMPDEST POP POP POP POP POP DUP2 MSTORE PUSH1 0x20 ADD PUSH1 0x1 DUP3 ADD DUP1 SLOAD PUSH2 0x18EF SWAP1 PUSH2 0x34AE JUMP JUMPDEST DUP1 PUSH1 0x1F ADD PUSH1 0x20 DUP1 SWAP2 DIV MUL PUSH1 0x20 ADD PUSH1 0x40 MLOAD SWAP1 DUP2 ADD PUSH1 0x40 MSTORE DUP1 SWAP3 SWAP2 SWAP1 DUP2 DUP2 MSTORE PUSH1 0x20 ADD DUP3 DUP1 SLOAD PUSH2 0x191B SWAP1 PUSH2 0x34AE JUMP JUMPDEST DUP1 ISZERO PUSH2 0x1968 JUMPI DUP1 PUSH1 0x1F LT PUSH2 0x193D JUMPI PUSH2 0x100 DUP1 DUP4 SLOAD DIV MUL DUP4 MSTORE SWAP2 PUSH1 0x20 ADD SWAP2 PUSH2 0x1968 JUMP JUMPDEST DUP3 ADD SWAP2 SWAP1 PUSH1 0x0 MSTORE PUSH1 0x20 PUSH1 0x0 KECCAK256 SWAP1 JUMPDEST DUP2 SLOAD DUP2 MSTORE SWAP1 PUSH1 0x1 ADD SWAP1 PUSH1 0x20 ADD DUP1 DUP4 GT PUSH2 0x194B JUMPI DUP3 SWAP1 SUB PUSH1 0x1F AND DUP3 ADD SWAP2 JUMPDEST POP POP POP POP POP DUP2 MSTORE POP POP DUP2 MSTORE PUSH1 0x20 ADD SWAP1 PUSH1 0x1 ADD SWAP1 PUSH2 0x182A JUMP JUMPDEST POP POP POP SWAP2 MSTORE POP SWAP2 SWAP1 POP JUMP JUMPDEST PUSH2 0x1995 CALLER DUP4 PUSH2 0x21C8 JUMP JUMPDEST PUSH2 0x1A07 JUMPI PUSH1 0x40 MLOAD PUSH3 0x461BCD PUSH1 0xE5 SHL DUP2 MSTORE PUSH1 0x20 PUSH1 0x4 DUP3 ADD MSTORE PUSH1 0x2E PUSH1 0x24 DUP3 ADD MSTORE PUSH32 0x4552433732313A2063616C6C6572206973206E6F7420746F6B656E206F776E65 PUSH1 0x44 DUP3 ADD MSTORE PUSH32 0x72206E6F7220617070726F766564000000000000000000000000000000000000 PUSH1 0x64 DUP3 ADD MSTORE PUSH1 0x84 ADD PUSH2 0x88B JUMP JUMPDEST PUSH2 0x1A13 DUP5 DUP5 DUP5 DUP5 PUSH2 0x24FB JUMP JUMPDEST POP POP POP POP JUMP JUMPDEST PUSH1 0x64 PUSH1 0xC SLOAD LT PUSH2 0x1A91 JUMPI PUSH1 0x40 MLOAD PUSH3 0x461BCD PUSH1 0xE5 SHL DUP2 MSTORE PUSH1 0x20 PUSH1 0x4 DUP3 ADD MSTORE PUSH1 0x21 PUSH1 0x24 DUP3 ADD MSTORE PUSH32 0x4D696E74206661696C65643A20546F6B656E732061726520736F6C64206F7574 PUSH1 0x44 DUP3 ADD MSTORE PUSH32 0x2E00000000000000000000000000000000000000000000000000000000000000 PUSH1 0x64 DUP3 ADD MSTORE PUSH1 0x84 ADD PUSH2 0x88B JUMP JUMPDEST CALLER PUSH2 0x1A9B DUP3 PUSH2 0x1013 JUMP JUMPDEST PUSH1 0x1 PUSH1 0x1 PUSH1 0xA0 SHL SUB AND EQ PUSH2 0x1AAE JUMPI PUSH1 0x0 DUP1 REVERT JUMPDEST PUSH1 0x0 DUP2 DUP2 MSTORE PUSH1 0x16 PUSH1 0x20 MSTORE PUSH1 0x40 SWAP1 KECCAK256 PUSH1 0x2 DUP2 ADD SLOAD PUSH1 0x1 SWAP1 SWAP2 ADD SLOAD LT PUSH2 0x1B14 JUMPI PUSH1 0x40 MLOAD PUSH3 0x461BCD PUSH1 0xE5 SHL DUP2 MSTORE PUSH1 0x20 PUSH1 0x4 DUP3 ADD MSTORE PUSH1 0x18 PUSH1 0x24 DUP3 ADD MSTORE PUSH32 0x4D696E7420616C6C6F77616E63652065786365656465642E0000000000000000 PUSH1 0x44 DUP3 ADD MSTORE PUSH1 0x64 ADD PUSH2 0x88B JUMP JUMPDEST PUSH2 0x1B20 DUP4 PUSH1 0xC SLOAD PUSH2 0x2584 JUMP JUMPDEST PUSH2 0x1B2C PUSH1 0xC SLOAD DUP4 PUSH2 0x26DF JUMP JUMPDEST PUSH1 0x40 DUP1 MLOAD PUSH1 0x60 DUP2 ADD DUP3 MSTORE NUMBER DUP2 MSTORE TIMESTAMP PUSH1 0x20 DUP1 DUP4 ADD SWAP2 DUP3 MSTORE DUP3 DUP5 ADD DUP7 DUP2 MSTORE PUSH1 0xC SLOAD PUSH1 0x0 SWAP1 DUP2 MSTORE PUSH1 0x17 DUP4 MSTORE SWAP5 SWAP1 SWAP5 KECCAK256 DUP4 MLOAD DUP2 SSTORE SWAP2 MLOAD PUSH1 0x1 DUP4 ADD SSTORE SWAP3 MLOAD DUP1 MLOAD SWAP3 SWAP4 SWAP2 SWAP3 PUSH2 0x1B7B SWAP3 PUSH1 0x2 DUP6 ADD SWAP3 ADD SWAP1 PUSH2 0x2C65 JUMP JUMPDEST POP POP PUSH1 0xC DUP1 SLOAD SWAP2 POP PUSH1 0x0 PUSH2 0x1B8E DUP4 PUSH2 0x34E9 JUMP JUMPDEST SWAP1 SWAP2 SSTORE POP POP PUSH1 0xB SLOAD PUSH1 0x1 PUSH1 0x1 PUSH1 0xA0 SHL SUB AND PUSH2 0x8FC CALLVALUE PUSH1 0x40 MLOAD DUP2 ISZERO SWAP1 SWAP3 MUL SWAP2 PUSH1 0x0 DUP2 DUP2 DUP2 DUP6 DUP9 DUP9 CALL SWAP4 POP POP POP POP ISZERO DUP1 ISZERO PUSH2 0x1BCB JUMPI RETURNDATASIZE PUSH1 0x0 DUP1 RETURNDATACOPY RETURNDATASIZE PUSH1 0x0 REVERT JUMPDEST POP PUSH1 0x1 PUSH1 0x16 PUSH1 0x0 DUP4 DUP2 MSTORE PUSH1 0x20 ADD SWAP1 DUP2 MSTORE PUSH1 0x20 ADD PUSH1 0x0 KECCAK256 PUSH1 0x1 ADD PUSH1 0x0 DUP3 DUP3 SLOAD PUSH2 0x1BF3 SWAP2 SWAP1 PUSH2 0x343F JUMP JUMPDEST SWAP1 SWAP2 SSTORE POP POP POP POP POP JUMP JUMPDEST PUSH1 0x0 DUP2 DUP2 MSTORE PUSH1 0x2 PUSH1 0x20 MSTORE PUSH1 0x40 SWAP1 KECCAK256 SLOAD PUSH1 0x60 SWAP1 PUSH1 0x1 PUSH1 0x1 PUSH1 0xA0 SHL SUB AND PUSH2 0x1C8A JUMPI PUSH1 0x40 MLOAD PUSH3 0x461BCD PUSH1 0xE5 SHL DUP2 MSTORE PUSH1 0x20 PUSH1 0x4 DUP3 ADD MSTORE PUSH1 0x2F PUSH1 0x24 DUP3 ADD MSTORE PUSH32 0x4552433732314D657461646174613A2055524920717565727920666F72206E6F PUSH1 0x44 DUP3 ADD MSTORE PUSH32 0x6E6578697374656E7420746F6B656E0000000000000000000000000000000000 PUSH1 0x64 DUP3 ADD MSTORE PUSH1 0x84 ADD PUSH2 0x88B JUMP JUMPDEST PUSH1 0x0 DUP3 DUP2 MSTORE PUSH1 0x11 PUSH1 0x20 MSTORE PUSH1 0x40 DUP2 KECCAK256 DUP1 SLOAD PUSH2 0x1CA3 SWAP1 PUSH2 0x34AE JUMP JUMPDEST DUP1 PUSH1 0x1F ADD PUSH1 0x20 DUP1 SWAP2 DIV MUL PUSH1 0x20 ADD PUSH1 0x40 MLOAD SWAP1 DUP2 ADD PUSH1 0x40 MSTORE DUP1 SWAP3 SWAP2 SWAP1 DUP2 DUP2 MSTORE PUSH1 0x20 ADD DUP3 DUP1 SLOAD PUSH2 0x1CCF SWAP1 PUSH2 0x34AE JUMP JUMPDEST DUP1 ISZERO PUSH2 0x1D1C JUMPI DUP1 PUSH1 0x1F LT PUSH2 0x1CF1 JUMPI PUSH2 0x100 DUP1 DUP4 SLOAD DIV MUL DUP4 MSTORE SWAP2 PUSH1 0x20 ADD SWAP2 PUSH2 0x1D1C JUMP JUMPDEST DUP3 ADD SWAP2 SWAP1 PUSH1 0x0 MSTORE PUSH1 0x20 PUSH1 0x0 KECCAK256 SWAP1 JUMPDEST DUP2 SLOAD DUP2 MSTORE SWAP1 PUSH1 0x1 ADD SWAP1 PUSH1 0x20 ADD DUP1 DUP4 GT PUSH2 0x1CFF JUMPI DUP3 SWAP1 SUB PUSH1 0x1F AND DUP3 ADD SWAP2 JUMPDEST POP POP POP POP POP SWAP1 POP PUSH1 0x0 PUSH2 0x1D3A PUSH1 0x40 DUP1 MLOAD PUSH1 0x20 DUP2 ADD SWAP1 SWAP2 MSTORE PUSH1 0x0 DUP2 MSTORE SWAP1 JUMP JUMPDEST SWAP1 POP DUP1 MLOAD PUSH1 0x0 EQ ISZERO PUSH2 0x1D4D JUMPI POP SWAP3 SWAP2 POP POP JUMP JUMPDEST DUP2 MLOAD ISZERO PUSH2 0x1D7F JUMPI DUP1 DUP3 PUSH1 0x40 MLOAD PUSH1 0x20 ADD PUSH2 0x1D67 SWAP3 SWAP2 SWAP1 PUSH2 0x323B JUMP JUMPDEST PUSH1 0x40 MLOAD PUSH1 0x20 DUP2 DUP4 SUB SUB DUP2 MSTORE SWAP1 PUSH1 0x40 MSTORE SWAP3 POP POP POP SWAP2 SWAP1 POP JUMP JUMPDEST DUP1 PUSH2 0x1D89 DUP6 PUSH2 0x2788 JUMP JUMPDEST PUSH1 0x40 MLOAD PUSH1 0x20 ADD PUSH2 0x1D67 SWAP3 SWAP2 SWAP1 PUSH2 0x323B JUMP JUMPDEST PUSH1 0x10 DUP1 SLOAD PUSH2 0x1244 SWAP1 PUSH2 0x34AE JUMP JUMPDEST PUSH2 0x1DAF PUSH2 0x216C JUMP JUMPDEST PUSH1 0xE SLOAD PUSH1 0xF SLOAD LT PUSH2 0x1E28 JUMPI PUSH1 0x40 MLOAD PUSH3 0x461BCD PUSH1 0xE5 SHL DUP2 MSTORE PUSH1 0x20 PUSH1 0x4 DUP3 ADD MSTORE PUSH1 0x2E PUSH1 0x24 DUP3 ADD MSTORE PUSH32 0x5468697320636F6E74726163742068617320726561636865642069742773206D PUSH1 0x44 DUP3 ADD MSTORE PUSH32 0x696E7420616C6C6F77616E63652E000000000000000000000000000000000000 PUSH1 0x64 DUP3 ADD MSTORE PUSH1 0x84 ADD PUSH2 0x88B JUMP JUMPDEST PUSH1 0x0 DUP2 DUP2 MSTORE PUSH1 0x16 PUSH1 0x20 MSTORE PUSH1 0x40 DUP2 KECCAK256 PUSH1 0x2 ADD DUP1 SLOAD PUSH1 0x5 SWAP3 SWAP1 PUSH2 0x1E4A SWAP1 DUP5 SWAP1 PUSH2 0x343F JUMP JUMPDEST SWAP3 POP POP DUP2 SWAP1 SSTORE POP PUSH1 0x5 PUSH1 0xF PUSH1 0x0 DUP3 DUP3 SLOAD PUSH2 0x1E64 SWAP2 SWAP1 PUSH2 0x343F JUMP JUMPDEST SWAP1 SWAP2 SSTORE POP POP POP JUMP JUMPDEST CALLER PUSH1 0x0 SWAP1 DUP2 MSTORE PUSH1 0x13 PUSH1 0x20 MSTORE PUSH1 0x40 SWAP1 KECCAK256 SLOAD PUSH1 0xFF AND PUSH2 0x1ECB JUMPI PUSH1 0x40 MLOAD PUSH3 0x461BCD PUSH1 0xE5 SHL DUP2 MSTORE PUSH1 0x20 PUSH1 0x4 DUP3 ADD MSTORE PUSH1 0x1D PUSH1 0x24 DUP3 ADD MSTORE PUSH32 0x436C69656E7420686173206E6F74206265656E20617070726F7665642E000000 PUSH1 0x44 DUP3 ADD MSTORE PUSH1 0x64 ADD PUSH2 0x88B JUMP JUMPDEST PUSH1 0x40 DUP1 MLOAD PUSH1 0x60 DUP2 ADD DUP3 MSTORE PUSH1 0xC SLOAD DUP1 DUP3 MSTORE PUSH1 0x1 PUSH1 0x20 DUP1 DUP5 ADD DUP3 DUP2 MSTORE PUSH1 0x5 DUP6 DUP8 ADD SWAP1 DUP2 MSTORE PUSH1 0x0 SWAP5 DUP6 MSTORE PUSH1 0x16 SWAP1 SWAP3 MSTORE SWAP5 SWAP1 SWAP3 KECCAK256 SWAP3 MLOAD DUP4 SSTORE SWAP3 MLOAD SWAP3 DUP3 ADD SWAP3 SWAP1 SWAP3 SSTORE SWAP1 MLOAD PUSH1 0x2 SWAP1 SWAP2 ADD SSTORE PUSH2 0x1F1C CALLER PUSH1 0xC SLOAD PUSH2 0x2584 JUMP JUMPDEST PUSH2 0x1F28 PUSH1 0xC SLOAD DUP3 PUSH2 0x26DF JUMP JUMPDEST PUSH1 0x40 DUP1 MLOAD PUSH1 0x60 DUP2 ADD DUP3 MSTORE NUMBER DUP2 MSTORE TIMESTAMP PUSH1 0x20 DUP1 DUP4 ADD SWAP2 DUP3 MSTORE DUP3 DUP5 ADD DUP6 DUP2 MSTORE PUSH1 0xC SLOAD PUSH1 0x0 SWAP1 DUP2 MSTORE PUSH1 0x17 DUP4 MSTORE SWAP5 SWAP1 SWAP5 KECCAK256 DUP4 MLOAD DUP2 SSTORE SWAP2 MLOAD PUSH1 0x1 DUP4 ADD SSTORE SWAP3 MLOAD DUP1 MLOAD SWAP3 SWAP4 SWAP2 SWAP3 PUSH2 0x1F77 SWAP3 PUSH1 0x2 DUP6 ADD SWAP3 ADD SWAP1 PUSH2 0x2C65 JUMP JUMPDEST POP POP PUSH1 0xC DUP1 SLOAD SWAP2 POP PUSH1 0x0 PUSH2 0x1F8A DUP4 PUSH2 0x34E9 JUMP JUMPDEST SWAP1 SWAP2 SSTORE POP POP PUSH1 0xB SLOAD PUSH1 0x1 PUSH1 0x1 PUSH1 0xA0 SHL SUB AND PUSH2 0x8FC CALLVALUE PUSH1 0x40 MLOAD DUP2 ISZERO SWAP1 SWAP3 MUL SWAP2 PUSH1 0x0 DUP2 DUP2 DUP2 DUP6 DUP9 DUP9 CALL SWAP4 POP POP POP POP ISZERO DUP1 ISZERO PUSH2 0x1FC7 JUMPI RETURNDATASIZE PUSH1 0x0 DUP1 RETURNDATACOPY RETURNDATASIZE PUSH1 0x0 REVERT JUMPDEST POP CALLER PUSH1 0x0 SWAP1 DUP2 MSTORE PUSH1 0x13 PUSH1 0x20 SWAP1 DUP2 MSTORE PUSH1 0x40 DUP1 DUP4 KECCAK256 DUP1 SLOAD PUSH1 0xFF NOT AND SWAP1 SSTORE PUSH1 0x14 SWAP1 SWAP2 MSTORE DUP2 KECCAK256 PUSH2 0xE6A SWAP2 PUSH2 0x2D64 JUMP JUMPDEST PUSH1 0x0 PUSH1 0x1 PUSH1 0x1 PUSH1 0xE0 SHL SUB NOT DUP3 AND PUSH32 0x80AC58CD00000000000000000000000000000000000000000000000000000000 EQ DUP1 PUSH2 0x2055 JUMPI POP PUSH1 0x1 PUSH1 0x1 PUSH1 0xE0 SHL SUB NOT DUP3 AND PUSH32 0x5B5E139F00000000000000000000000000000000000000000000000000000000 EQ JUMPDEST DUP1 PUSH2 0x73B JUMPI POP PUSH32 0x1FFC9A700000000000000000000000000000000000000000000000000000000 PUSH1 0x1 PUSH1 0x1 PUSH1 0xE0 SHL SUB NOT DUP4 AND EQ PUSH2 0x73B JUMP JUMPDEST PUSH1 0x0 DUP2 DUP2 MSTORE PUSH1 0x2 PUSH1 0x20 MSTORE PUSH1 0x40 SWAP1 KECCAK256 SLOAD PUSH1 0x1 PUSH1 0x1 PUSH1 0xA0 SHL SUB AND PUSH2 0xE6A JUMPI PUSH1 0x40 MLOAD PUSH3 0x461BCD PUSH1 0xE5 SHL DUP2 MSTORE PUSH1 0x20 PUSH1 0x4 DUP3 ADD MSTORE PUSH1 0x18 PUSH1 0x24 DUP3 ADD MSTORE PUSH32 0x4552433732313A20696E76616C696420746F6B656E2049440000000000000000 PUSH1 0x44 DUP3 ADD MSTORE PUSH1 0x64 ADD PUSH2 0x88B JUMP JUMPDEST PUSH1 0x0 DUP2 DUP2 MSTORE PUSH1 0x4 PUSH1 0x20 MSTORE PUSH1 0x40 SWAP1 KECCAK256 DUP1 SLOAD PUSH20 0xFFFFFFFFFFFFFFFFFFFFFFFFFFFFFFFFFFFFFFFF NOT AND PUSH1 0x1 PUSH1 0x1 PUSH1 0xA0 SHL SUB DUP5 AND SWAP1 DUP2 OR SWAP1 SWAP2 SSTORE DUP2 SWAP1 PUSH2 0x2133 DUP3 PUSH2 0x1013 JUMP JUMPDEST PUSH1 0x1 PUSH1 0x1 PUSH1 0xA0 SHL SUB AND PUSH32 0x8C5BE1E5EBEC7D5BD14F71427D1E84F3DD0314C0F7B2291E5B200AC8C7C3B925 PUSH1 0x40 MLOAD PUSH1 0x40 MLOAD DUP1 SWAP2 SUB SWAP1 LOG4 POP POP JUMP JUMPDEST PUSH1 0xB SLOAD PUSH1 0x1 PUSH1 0x1 PUSH1 0xA0 SHL SUB AND CALLER EQ PUSH2 0x21C6 JUMPI PUSH1 0x40 MLOAD PUSH3 0x461BCD PUSH1 0xE5 SHL DUP2 MSTORE PUSH1 0x20 PUSH1 0x4 DUP3 ADD DUP2 SWAP1 MSTORE PUSH1 0x24 DUP3 ADD MSTORE PUSH32 0x4F776E61626C653A2063616C6C6572206973206E6F7420746865206F776E6572 PUSH1 0x44 DUP3 ADD MSTORE PUSH1 0x64 ADD PUSH2 0x88B JUMP JUMPDEST JUMP JUMPDEST PUSH1 0x0 DUP1 PUSH2 0x21D4 DUP4 PUSH2 0x1013 JUMP JUMPDEST SWAP1 POP DUP1 PUSH1 0x1 PUSH1 0x1 PUSH1 0xA0 SHL SUB AND DUP5 PUSH1 0x1 PUSH1 0x1 PUSH1 0xA0 SHL SUB AND EQ DUP1 PUSH2 0x221B JUMPI POP PUSH1 0x1 PUSH1 0x1 PUSH1 0xA0 SHL SUB DUP1 DUP3 AND PUSH1 0x0 SWAP1 DUP2 MSTORE PUSH1 0x5 PUSH1 0x20 SWAP1 DUP2 MSTORE PUSH1 0x40 DUP1 DUP4 KECCAK256 SWAP4 DUP9 AND DUP4 MSTORE SWAP3 SWAP1 MSTORE KECCAK256 SLOAD PUSH1 0xFF AND JUMPDEST DUP1 PUSH2 0x223F JUMPI POP DUP4 PUSH1 0x1 PUSH1 0x1 PUSH1 0xA0 SHL SUB AND PUSH2 0x2234 DUP5 PUSH2 0x7D3 JUMP JUMPDEST PUSH1 0x1 PUSH1 0x1 PUSH1 0xA0 SHL SUB AND EQ JUMPDEST SWAP5 SWAP4 POP POP POP POP JUMP JUMPDEST DUP3 PUSH1 0x1 PUSH1 0x1 PUSH1 0xA0 SHL SUB AND PUSH2 0x225A DUP3 PUSH2 0x1013 JUMP JUMPDEST PUSH1 0x1 PUSH1 0x1 PUSH1 0xA0 SHL SUB AND EQ PUSH2 0x22D6 JUMPI PUSH1 0x40 MLOAD PUSH3 0x461BCD PUSH1 0xE5 SHL DUP2 MSTORE PUSH1 0x20 PUSH1 0x4 DUP3 ADD MSTORE PUSH1 0x25 PUSH1 0x24 DUP3 ADD MSTORE PUSH32 0x4552433732313A207472616E736665722066726F6D20696E636F727265637420 PUSH1 0x44 DUP3 ADD MSTORE PUSH32 0x6F776E6572000000000000000000000000000000000000000000000000000000 PUSH1 0x64 DUP3 ADD MSTORE PUSH1 0x84 ADD PUSH2 0x88B JUMP JUMPDEST PUSH1 0x1 PUSH1 0x1 PUSH1 0xA0 SHL SUB DUP3 AND PUSH2 0x2351 JUMPI PUSH1 0x40 MLOAD PUSH3 0x461BCD PUSH1 0xE5 SHL DUP2 MSTORE PUSH1 0x20 PUSH1 0x4 DUP3 ADD MSTORE PUSH1 0x24 DUP1 DUP3 ADD MSTORE PUSH32 0x4552433732313A207472616E7366657220746F20746865207A65726F20616464 PUSH1 0x44 DUP3 ADD MSTORE PUSH32 0x7265737300000000000000000000000000000000000000000000000000000000 PUSH1 0x64 DUP3 ADD MSTORE PUSH1 0x84 ADD PUSH2 0x88B JUMP JUMPDEST PUSH2 0x235C DUP4 DUP4 DUP4 PUSH2 0x28BA JUMP JUMPDEST PUSH2 0x2367 PUSH1 0x0 DUP3 PUSH2 0x20F1 JUMP JUMPDEST PUSH1 0x1 PUSH1 0x1 PUSH1 0xA0 SHL SUB DUP4 AND PUSH1 0x0 SWAP1 DUP2 MSTORE PUSH1 0x3 PUSH1 0x20 MSTORE PUSH1 0x40 DUP2 KECCAK256 DUP1 SLOAD PUSH1 0x1 SWAP3 SWAP1 PUSH2 0x2390 SWAP1 DUP5 SWAP1 PUSH2 0x346B JUMP JUMPDEST SWAP1 SWAP2 SSTORE POP POP PUSH1 0x1 PUSH1 0x1 PUSH1 0xA0 SHL SUB DUP3 AND PUSH1 0x0 SWAP1 DUP2 MSTORE PUSH1 0x3 PUSH1 0x20 MSTORE PUSH1 0x40 DUP2 KECCAK256 DUP1 SLOAD PUSH1 0x1 SWAP3 SWAP1 PUSH2 0x23BE SWAP1 DUP5 SWAP1 PUSH2 0x343F JUMP JUMPDEST SWAP1 SWAP2 SSTORE POP POP PUSH1 0x0 DUP2 DUP2 MSTORE PUSH1 0x2 PUSH1 0x20 MSTORE PUSH1 0x40 DUP1 DUP3 KECCAK256 DUP1 SLOAD PUSH20 0xFFFFFFFFFFFFFFFFFFFFFFFFFFFFFFFFFFFFFFFF NOT AND PUSH1 0x1 PUSH1 0x1 PUSH1 0xA0 SHL SUB DUP7 DUP2 AND SWAP2 DUP3 OR SWAP1 SWAP3 SSTORE SWAP2 MLOAD DUP5 SWAP4 SWAP2 DUP8 AND SWAP2 PUSH32 0xDDF252AD1BE2C89B69C2B068FC378DAA952BA7F163C4A11628F55A4DF523B3EF SWAP2 LOG4 POP POP POP JUMP JUMPDEST DUP2 PUSH1 0x1 PUSH1 0x1 PUSH1 0xA0 SHL SUB AND DUP4 PUSH1 0x1 PUSH1 0x1 PUSH1 0xA0 SHL SUB AND EQ ISZERO PUSH2 0x248E JUMPI PUSH1 0x40 MLOAD PUSH3 0x461BCD PUSH1 0xE5 SHL DUP2 MSTORE PUSH1 0x20 PUSH1 0x4 DUP3 ADD MSTORE PUSH1 0x19 PUSH1 0x24 DUP3 ADD MSTORE PUSH32 0x4552433732313A20617070726F766520746F2063616C6C657200000000000000 PUSH1 0x44 DUP3 ADD MSTORE PUSH1 0x64 ADD PUSH2 0x88B JUMP JUMPDEST PUSH1 0x1 PUSH1 0x1 PUSH1 0xA0 SHL SUB DUP4 DUP2 AND PUSH1 0x0 DUP2 DUP2 MSTORE PUSH1 0x5 PUSH1 0x20 SWAP1 DUP2 MSTORE PUSH1 0x40 DUP1 DUP4 KECCAK256 SWAP5 DUP8 AND DUP1 DUP5 MSTORE SWAP5 DUP3 MSTORE SWAP2 DUP3 SWAP1 KECCAK256 DUP1 SLOAD PUSH1 0xFF NOT AND DUP7 ISZERO ISZERO SWAP1 DUP2 OR SWAP1 SWAP2 SSTORE SWAP2 MLOAD SWAP2 DUP3 MSTORE PUSH32 0x17307EAB39AB6107E8899845AD3D59BD9653F200F220920489CA2B5937696C31 SWAP2 ADD PUSH1 0x40 MLOAD DUP1 SWAP2 SUB SWAP1 LOG3 POP POP POP JUMP JUMPDEST PUSH2 0x2506 DUP5 DUP5 DUP5 PUSH2 0x2247 JUMP JUMPDEST PUSH2 0x2512 DUP5 DUP5 DUP5 DUP5 PUSH2 0x2972 JUMP JUMPDEST PUSH2 0x1A13 JUMPI PUSH1 0x40 MLOAD PUSH3 0x461BCD PUSH1 0xE5 SHL DUP2 MSTORE PUSH1 0x20 PUSH1 0x4 DUP3 ADD MSTORE PUSH1 0x32 PUSH1 0x24 DUP3 ADD MSTORE PUSH32 0x4552433732313A207472616E7366657220746F206E6F6E204552433732315265 PUSH1 0x44 DUP3 ADD MSTORE PUSH32 0x63656976657220696D706C656D656E7465720000000000000000000000000000 PUSH1 0x64 DUP3 ADD MSTORE PUSH1 0x84 ADD PUSH2 0x88B JUMP JUMPDEST PUSH1 0x1 PUSH1 0x1 PUSH1 0xA0 SHL SUB DUP3 AND PUSH2 0x25DA JUMPI PUSH1 0x40 MLOAD PUSH3 0x461BCD PUSH1 0xE5 SHL DUP2 MSTORE PUSH1 0x20 PUSH1 0x4 DUP3 ADD DUP2 SWAP1 MSTORE PUSH1 0x24 DUP3 ADD MSTORE PUSH32 0x4552433732313A206D696E7420746F20746865207A65726F2061646472657373 PUSH1 0x44 DUP3 ADD MSTORE PUSH1 0x64 ADD PUSH2 0x88B JUMP JUMPDEST PUSH1 0x0 DUP2 DUP2 MSTORE PUSH1 0x2 PUSH1 0x20 MSTORE PUSH1 0x40 SWAP1 KECCAK256 SLOAD PUSH1 0x1 PUSH1 0x1 PUSH1 0xA0 SHL SUB AND ISZERO PUSH2 0x263F JUMPI PUSH1 0x40 MLOAD PUSH3 0x461BCD PUSH1 0xE5 SHL DUP2 MSTORE PUSH1 0x20 PUSH1 0x4 DUP3 ADD MSTORE PUSH1 0x1C PUSH1 0x24 DUP3 ADD MSTORE PUSH32 0x4552433732313A20746F6B656E20616C7265616479206D696E74656400000000 PUSH1 0x44 DUP3 ADD MSTORE PUSH1 0x64 ADD PUSH2 0x88B JUMP JUMPDEST PUSH2 0x264B PUSH1 0x0 DUP4 DUP4 PUSH2 0x28BA JUMP JUMPDEST PUSH1 0x1 PUSH1 0x1 PUSH1 0xA0 SHL SUB DUP3 AND PUSH1 0x0 SWAP1 DUP2 MSTORE PUSH1 0x3 PUSH1 0x20 MSTORE PUSH1 0x40 DUP2 KECCAK256 DUP1 SLOAD PUSH1 0x1 SWAP3 SWAP1 PUSH2 0x2674 SWAP1 DUP5 SWAP1 PUSH2 0x343F JUMP JUMPDEST SWAP1 SWAP2 SSTORE POP POP PUSH1 0x0 DUP2 DUP2 MSTORE PUSH1 0x2 PUSH1 0x20 MSTORE PUSH1 0x40 DUP1 DUP3 KECCAK256 DUP1 SLOAD PUSH20 0xFFFFFFFFFFFFFFFFFFFFFFFFFFFFFFFFFFFFFFFF NOT AND PUSH1 0x1 PUSH1 0x1 PUSH1 0xA0 SHL SUB DUP7 AND SWAP1 DUP2 OR SWAP1 SWAP2 SSTORE SWAP1 MLOAD DUP4 SWAP3 SWAP1 PUSH32 0xDDF252AD1BE2C89B69C2B068FC378DAA952BA7F163C4A11628F55A4DF523B3EF SWAP1 DUP3 SWAP1 LOG4 POP POP JUMP JUMPDEST PUSH1 0x0 DUP3 DUP2 MSTORE PUSH1 0x2 PUSH1 0x20 MSTORE PUSH1 0x40 SWAP1 KECCAK256 SLOAD PUSH1 0x1 PUSH1 0x1 PUSH1 0xA0 SHL SUB AND PUSH2 0x2769 JUMPI PUSH1 0x40 MLOAD PUSH3 0x461BCD PUSH1 0xE5 SHL DUP2 MSTORE PUSH1 0x20 PUSH1 0x4 DUP3 ADD MSTORE PUSH1 0x2C PUSH1 0x24 DUP3 ADD MSTORE PUSH32 0x4552433732314D657461646174613A2055524920736574206F66206E6F6E6578 PUSH1 0x44 DUP3 ADD MSTORE PUSH32 0x697374656E7420746F6B656E0000000000000000000000000000000000000000 PUSH1 0x64 DUP3 ADD MSTORE PUSH1 0x84 ADD PUSH2 0x88B JUMP JUMPDEST PUSH1 0x0 DUP3 DUP2 MSTORE PUSH1 0x11 PUSH1 0x20 SWAP1 DUP2 MSTORE PUSH1 0x40 SWAP1 SWAP2 KECCAK256 DUP3 MLOAD PUSH2 0x92C SWAP3 DUP5 ADD SWAP1 PUSH2 0x2C65 JUMP JUMPDEST PUSH1 0x60 DUP2 PUSH2 0x27C8 JUMPI POP POP PUSH1 0x40 DUP1 MLOAD DUP1 DUP3 ADD SWAP1 SWAP2 MSTORE PUSH1 0x1 DUP2 MSTORE PUSH32 0x3000000000000000000000000000000000000000000000000000000000000000 PUSH1 0x20 DUP3 ADD MSTORE SWAP1 JUMP JUMPDEST DUP2 PUSH1 0x0 JUMPDEST DUP2 ISZERO PUSH2 0x27F2 JUMPI DUP1 PUSH2 0x27DC DUP2 PUSH2 0x34E9 JUMP JUMPDEST SWAP2 POP PUSH2 0x27EB SWAP1 POP PUSH1 0xA DUP4 PUSH2 0x3457 JUMP JUMPDEST SWAP2 POP PUSH2 0x27CC JUMP JUMPDEST PUSH1 0x0 DUP2 PUSH8 0xFFFFFFFFFFFFFFFF DUP2 GT ISZERO PUSH2 0x280D JUMPI PUSH2 0x280D PUSH2 0x3570 JUMP JUMPDEST PUSH1 0x40 MLOAD SWAP1 DUP1 DUP3 MSTORE DUP1 PUSH1 0x1F ADD PUSH1 0x1F NOT AND PUSH1 0x20 ADD DUP3 ADD PUSH1 0x40 MSTORE DUP1 ISZERO PUSH2 0x2837 JUMPI PUSH1 0x20 DUP3 ADD DUP2 DUP1 CALLDATASIZE DUP4 CALLDATACOPY ADD SWAP1 POP JUMPDEST POP SWAP1 POP JUMPDEST DUP5 ISZERO PUSH2 0x223F JUMPI PUSH2 0x284C PUSH1 0x1 DUP4 PUSH2 0x346B JUMP JUMPDEST SWAP2 POP PUSH2 0x2859 PUSH1 0xA DUP7 PUSH2 0x3504 JUMP JUMPDEST PUSH2 0x2864 SWAP1 PUSH1 0x30 PUSH2 0x343F JUMP JUMPDEST PUSH1 0xF8 SHL DUP2 DUP4 DUP2 MLOAD DUP2 LT PUSH2 0x2879 JUMPI PUSH2 0x2879 PUSH2 0x355A JUMP JUMPDEST PUSH1 0x20 ADD ADD SWAP1 PUSH31 0xFFFFFFFFFFFFFFFFFFFFFFFFFFFFFFFFFFFFFFFFFFFFFFFFFFFFFFFFFFFFFF NOT AND SWAP1 DUP2 PUSH1 0x0 BYTE SWAP1 MSTORE8 POP PUSH2 0x28B3 PUSH1 0xA DUP7 PUSH2 0x3457 JUMP JUMPDEST SWAP5 POP PUSH2 0x283B JUMP JUMPDEST PUSH1 0x1 PUSH1 0x1 PUSH1 0xA0 SHL SUB DUP4 AND PUSH2 0x2915 JUMPI PUSH2 0x2910 DUP2 PUSH1 0x8 DUP1 SLOAD PUSH1 0x0 DUP4 DUP2 MSTORE PUSH1 0x9 PUSH1 0x20 MSTORE PUSH1 0x40 DUP2 KECCAK256 DUP3 SWAP1 SSTORE PUSH1 0x1 DUP3 ADD DUP4 SSTORE SWAP2 SWAP1 SWAP2 MSTORE PUSH32 0xF3F7A9FE364FAAB93B216DA50A3214154F22A0A2B415B23A84C8169E8B636EE3 ADD SSTORE JUMP JUMPDEST PUSH2 0x2938 JUMP JUMPDEST DUP2 PUSH1 0x1 PUSH1 0x1 PUSH1 0xA0 SHL SUB AND DUP4 PUSH1 0x1 PUSH1 0x1 PUSH1 0xA0 SHL SUB AND EQ PUSH2 0x2938 JUMPI PUSH2 0x2938 DUP4 DUP3 PUSH2 0x2AD5 JUMP JUMPDEST PUSH1 0x1 PUSH1 0x1 PUSH1 0xA0 SHL SUB DUP3 AND PUSH2 0x294F JUMPI PUSH2 0x92C DUP2 PUSH2 0x2B72 JUMP JUMPDEST DUP3 PUSH1 0x1 PUSH1 0x1 PUSH1 0xA0 SHL SUB AND DUP3 PUSH1 0x1 PUSH1 0x1 PUSH1 0xA0 SHL SUB AND EQ PUSH2 0x92C JUMPI PUSH2 0x92C DUP3 DUP3 PUSH2 0x2C21 JUMP JUMPDEST PUSH1 0x0 PUSH1 0x1 PUSH1 0x1 PUSH1 0xA0 SHL SUB DUP5 AND EXTCODESIZE ISZERO PUSH2 0x2ACA JUMPI PUSH1 0x40 MLOAD PUSH4 0xA85BD01 PUSH1 0xE1 SHL DUP2 MSTORE PUSH1 0x1 PUSH1 0x1 PUSH1 0xA0 SHL SUB DUP6 AND SWAP1 PUSH4 0x150B7A02 SWAP1 PUSH2 0x29B6 SWAP1 CALLER SWAP1 DUP10 SWAP1 DUP9 SWAP1 DUP9 SWAP1 PUSH1 0x4 ADD PUSH2 0x32A4 JUMP JUMPDEST PUSH1 0x20 PUSH1 0x40 MLOAD DUP1 DUP4 SUB DUP2 PUSH1 0x0 DUP8 DUP1 EXTCODESIZE ISZERO DUP1 ISZERO PUSH2 0x29D0 JUMPI PUSH1 0x0 DUP1 REVERT JUMPDEST POP GAS CALL SWAP3 POP POP POP DUP1 ISZERO PUSH2 0x2A00 JUMPI POP PUSH1 0x40 DUP1 MLOAD PUSH1 0x1F RETURNDATASIZE SWAP1 DUP2 ADD PUSH1 0x1F NOT AND DUP3 ADD SWAP1 SWAP3 MSTORE PUSH2 0x29FD SWAP2 DUP2 ADD SWAP1 PUSH2 0x3046 JUMP JUMPDEST PUSH1 0x1 JUMPDEST PUSH2 0x2AB0 JUMPI RETURNDATASIZE DUP1 DUP1 ISZERO PUSH2 0x2A2E JUMPI PUSH1 0x40 MLOAD SWAP2 POP PUSH1 0x1F NOT PUSH1 0x3F RETURNDATASIZE ADD AND DUP3 ADD PUSH1 0x40 MSTORE RETURNDATASIZE DUP3 MSTORE RETURNDATASIZE PUSH1 0x0 PUSH1 0x20 DUP5 ADD RETURNDATACOPY PUSH2 0x2A33 JUMP JUMPDEST PUSH1 0x60 SWAP2 POP JUMPDEST POP DUP1 MLOAD PUSH2 0x2AA8 JUMPI PUSH1 0x40 MLOAD PUSH3 0x461BCD PUSH1 0xE5 SHL DUP2 MSTORE PUSH1 0x20 PUSH1 0x4 DUP3 ADD MSTORE PUSH1 0x32 PUSH1 0x24 DUP3 ADD MSTORE PUSH32 0x4552433732313A207472616E7366657220746F206E6F6E204552433732315265 PUSH1 0x44 DUP3 ADD MSTORE PUSH32 0x63656976657220696D706C656D656E7465720000000000000000000000000000 PUSH1 0x64 DUP3 ADD MSTORE PUSH1 0x84 ADD PUSH2 0x88B JUMP JUMPDEST DUP1 MLOAD DUP2 PUSH1 0x20 ADD REVERT JUMPDEST PUSH1 0x1 PUSH1 0x1 PUSH1 0xE0 SHL SUB NOT AND PUSH4 0xA85BD01 PUSH1 0xE1 SHL EQ SWAP1 POP PUSH2 0x223F JUMP JUMPDEST POP PUSH1 0x1 SWAP5 SWAP4 POP POP POP POP JUMP JUMPDEST PUSH1 0x0 PUSH1 0x1 PUSH2 0x2AE2 DUP5 PUSH2 0x1078 JUMP JUMPDEST PUSH2 0x2AEC SWAP2 SWAP1 PUSH2 0x346B JUMP JUMPDEST PUSH1 0x0 DUP4 DUP2 MSTORE PUSH1 0x7 PUSH1 0x20 MSTORE PUSH1 0x40 SWAP1 KECCAK256 SLOAD SWAP1 SWAP2 POP DUP1 DUP3 EQ PUSH2 0x2B3F JUMPI PUSH1 0x1 PUSH1 0x1 PUSH1 0xA0 SHL SUB DUP5 AND PUSH1 0x0 SWAP1 DUP2 MSTORE PUSH1 0x6 PUSH1 0x20 SWAP1 DUP2 MSTORE PUSH1 0x40 DUP1 DUP4 KECCAK256 DUP6 DUP5 MSTORE DUP3 MSTORE DUP1 DUP4 KECCAK256 SLOAD DUP5 DUP5 MSTORE DUP2 DUP5 KECCAK256 DUP2 SWAP1 SSTORE DUP4 MSTORE PUSH1 0x7 SWAP1 SWAP2 MSTORE SWAP1 KECCAK256 DUP2 SWAP1 SSTORE JUMPDEST POP PUSH1 0x0 SWAP2 DUP3 MSTORE PUSH1 0x7 PUSH1 0x20 SWAP1 DUP2 MSTORE PUSH1 0x40 DUP1 DUP5 KECCAK256 DUP5 SWAP1 SSTORE PUSH1 0x1 PUSH1 0x1 PUSH1 0xA0 SHL SUB SWAP1 SWAP5 AND DUP4 MSTORE PUSH1 0x6 DUP2 MSTORE DUP4 DUP4 KECCAK256 SWAP2 DUP4 MSTORE MSTORE SWAP1 DUP2 KECCAK256 SSTORE JUMP JUMPDEST PUSH1 0x8 SLOAD PUSH1 0x0 SWAP1 PUSH2 0x2B84 SWAP1 PUSH1 0x1 SWAP1 PUSH2 0x346B JUMP JUMPDEST PUSH1 0x0 DUP4 DUP2 MSTORE PUSH1 0x9 PUSH1 0x20 MSTORE PUSH1 0x40 DUP2 KECCAK256 SLOAD PUSH1 0x8 DUP1 SLOAD SWAP4 SWAP5 POP SWAP1 SWAP3 DUP5 SWAP1 DUP2 LT PUSH2 0x2BAC JUMPI PUSH2 0x2BAC PUSH2 0x355A JUMP JUMPDEST SWAP1 PUSH1 0x0 MSTORE PUSH1 0x20 PUSH1 0x0 KECCAK256 ADD SLOAD SWAP1 POP DUP1 PUSH1 0x8 DUP4 DUP2 SLOAD DUP2 LT PUSH2 0x2BCD JUMPI PUSH2 0x2BCD PUSH2 0x355A JUMP JUMPDEST PUSH1 0x0 SWAP2 DUP3 MSTORE PUSH1 0x20 DUP1 DUP4 KECCAK256 SWAP1 SWAP2 ADD SWAP3 SWAP1 SWAP3 SSTORE DUP3 DUP2 MSTORE PUSH1 0x9 SWAP1 SWAP2 MSTORE PUSH1 0x40 DUP1 DUP3 KECCAK256 DUP5 SWAP1 SSTORE DUP6 DUP3 MSTORE DUP2 KECCAK256 SSTORE PUSH1 0x8 DUP1 SLOAD DUP1 PUSH2 0x2C05 JUMPI PUSH2 0x2C05 PUSH2 0x3544 JUMP JUMPDEST PUSH1 0x1 SWAP1 SUB DUP2 DUP2 SWAP1 PUSH1 0x0 MSTORE PUSH1 0x20 PUSH1 0x0 KECCAK256 ADD PUSH1 0x0 SWAP1 SSTORE SWAP1 SSTORE POP POP POP POP JUMP JUMPDEST PUSH1 0x0 PUSH2 0x2C2C DUP4 PUSH2 0x1078 JUMP JUMPDEST PUSH1 0x1 PUSH1 0x1 PUSH1 0xA0 SHL SUB SWAP1 SWAP4 AND PUSH1 0x0 SWAP1 DUP2 MSTORE PUSH1 0x6 PUSH1 0x20 SWAP1 DUP2 MSTORE PUSH1 0x40 DUP1 DUP4 KECCAK256 DUP7 DUP5 MSTORE DUP3 MSTORE DUP1 DUP4 KECCAK256 DUP6 SWAP1 SSTORE SWAP4 DUP3 MSTORE PUSH1 0x7 SWAP1 MSTORE SWAP2 SWAP1 SWAP2 KECCAK256 SWAP2 SWAP1 SWAP2 SSTORE POP JUMP JUMPDEST DUP3 DUP1 SLOAD PUSH2 0x2C71 SWAP1 PUSH2 0x34AE JUMP JUMPDEST SWAP1 PUSH1 0x0 MSTORE PUSH1 0x20 PUSH1 0x0 KECCAK256 SWAP1 PUSH1 0x1F ADD PUSH1 0x20 SWAP1 DIV DUP2 ADD SWAP3 DUP3 PUSH2 0x2C93 JUMPI PUSH1 0x0 DUP6 SSTORE PUSH2 0x2CD9 JUMP JUMPDEST DUP3 PUSH1 0x1F LT PUSH2 0x2CAC JUMPI DUP1 MLOAD PUSH1 0xFF NOT AND DUP4 DUP1 ADD OR DUP6 SSTORE PUSH2 0x2CD9 JUMP JUMPDEST DUP3 DUP1 ADD PUSH1 0x1 ADD DUP6 SSTORE DUP3 ISZERO PUSH2 0x2CD9 JUMPI SWAP2 DUP3 ADD JUMPDEST DUP3 DUP2 GT ISZERO PUSH2 0x2CD9 JUMPI DUP3 MLOAD DUP3 SSTORE SWAP2 PUSH1 0x20 ADD SWAP2 SWAP1 PUSH1 0x1 ADD SWAP1 PUSH2 0x2CBE JUMP JUMPDEST POP PUSH2 0x2CE5 SWAP3 SWAP2 POP PUSH2 0x2D9A JUMP JUMPDEST POP SWAP1 JUMP JUMPDEST DUP3 DUP1 SLOAD PUSH2 0x2CF5 SWAP1 PUSH2 0x34AE JUMP JUMPDEST SWAP1 PUSH1 0x0 MSTORE PUSH1 0x20 PUSH1 0x0 KECCAK256 SWAP1 PUSH1 0x1F ADD PUSH1 0x20 SWAP1 DIV DUP2 ADD SWAP3 DUP3 PUSH2 0x2D17 JUMPI PUSH1 0x0 DUP6 SSTORE PUSH2 0x2CD9 JUMP JUMPDEST DUP3 PUSH1 0x1F LT PUSH2 0x2D28 JUMPI DUP1 SLOAD DUP6 SSTORE PUSH2 0x2CD9 JUMP JUMPDEST DUP3 DUP1 ADD PUSH1 0x1 ADD DUP6 SSTORE DUP3 ISZERO PUSH2 0x2CD9 JUMPI PUSH1 0x0 MSTORE PUSH1 0x20 PUSH1 0x0 KECCAK256 SWAP2 PUSH1 0x1F ADD PUSH1 0x20 SWAP1 DIV DUP3 ADD JUMPDEST DUP3 DUP2 GT ISZERO PUSH2 0x2CD9 JUMPI DUP3 SLOAD DUP3 SSTORE SWAP2 PUSH1 0x1 ADD SWAP2 SWAP1 PUSH1 0x1 ADD SWAP1 PUSH2 0x2D49 JUMP JUMPDEST POP DUP1 SLOAD PUSH2 0x2D70 SWAP1 PUSH2 0x34AE JUMP JUMPDEST PUSH1 0x0 DUP3 SSTORE DUP1 PUSH1 0x1F LT PUSH2 0x2D80 JUMPI POP POP JUMP JUMPDEST PUSH1 0x1F ADD PUSH1 0x20 SWAP1 DIV SWAP1 PUSH1 0x0 MSTORE PUSH1 0x20 PUSH1 0x0 KECCAK256 SWAP1 DUP2 ADD SWAP1 PUSH2 0xE6A SWAP2 SWAP1 JUMPDEST JUMPDEST DUP1 DUP3 GT ISZERO PUSH2 0x2CE5 JUMPI PUSH1 0x0 DUP2 SSTORE PUSH1 0x1 ADD PUSH2 0x2D9B JUMP JUMPDEST PUSH1 0x0 PUSH8 0xFFFFFFFFFFFFFFFF DUP1 DUP5 GT ISZERO PUSH2 0x2DCA JUMPI PUSH2 0x2DCA PUSH2 0x3570 JUMP JUMPDEST PUSH1 0x40 MLOAD PUSH1 0x1F DUP6 ADD PUSH1 0x1F NOT SWAP1 DUP2 AND PUSH1 0x3F ADD AND DUP2 ADD SWAP1 DUP3 DUP3 GT DUP2 DUP4 LT OR ISZERO PUSH2 0x2DF2 JUMPI PUSH2 0x2DF2 PUSH2 0x3570 JUMP JUMPDEST DUP2 PUSH1 0x40 MSTORE DUP1 SWAP4 POP DUP6 DUP2 MSTORE DUP7 DUP7 DUP7 ADD GT ISZERO PUSH2 0x2E0B JUMPI PUSH1 0x0 DUP1 REVERT JUMPDEST DUP6 DUP6 PUSH1 0x20 DUP4 ADD CALLDATACOPY PUSH1 0x0 PUSH1 0x20 DUP8 DUP4 ADD ADD MSTORE POP POP POP SWAP4 SWAP3 POP POP POP JUMP JUMPDEST DUP1 CALLDATALOAD PUSH1 0x1 PUSH1 0x1 PUSH1 0xA0 SHL SUB DUP2 AND DUP2 EQ PUSH2 0x2E3C JUMPI PUSH1 0x0 DUP1 REVERT JUMPDEST SWAP2 SWAP1 POP JUMP JUMPDEST DUP1 CALLDATALOAD DUP1 ISZERO ISZERO DUP2 EQ PUSH2 0x2E3C JUMPI PUSH1 0x0 DUP1 REVERT JUMPDEST PUSH1 0x0 DUP3 PUSH1 0x1F DUP4 ADD SLT PUSH2 0x2E62 JUMPI PUSH1 0x0 DUP1 REVERT JUMPDEST PUSH2 0x2E71 DUP4 DUP4 CALLDATALOAD PUSH1 0x20 DUP6 ADD PUSH2 0x2DAF JUMP JUMPDEST SWAP4 SWAP3 POP POP POP JUMP JUMPDEST PUSH1 0x0 PUSH1 0x20 DUP3 DUP5 SUB SLT ISZERO PUSH2 0x2E8A JUMPI PUSH1 0x0 DUP1 REVERT JUMPDEST PUSH2 0x2E71 DUP3 PUSH2 0x2E25 JUMP JUMPDEST PUSH1 0x0 DUP1 PUSH1 0x40 DUP4 DUP6 SUB SLT ISZERO PUSH2 0x2EA6 JUMPI PUSH1 0x0 DUP1 REVERT JUMPDEST PUSH2 0x2EAF DUP4 PUSH2 0x2E25 JUMP JUMPDEST SWAP2 POP PUSH2 0x2EBD PUSH1 0x20 DUP5 ADD PUSH2 0x2E25 JUMP JUMPDEST SWAP1 POP SWAP3 POP SWAP3 SWAP1 POP JUMP JUMPDEST PUSH1 0x0 DUP1 PUSH1 0x0 PUSH1 0x60 DUP5 DUP7 SUB SLT ISZERO PUSH2 0x2EDB JUMPI PUSH1 0x0 DUP1 REVERT JUMPDEST PUSH2 0x2EE4 DUP5 PUSH2 0x2E25 JUMP JUMPDEST SWAP3 POP PUSH2 0x2EF2 PUSH1 0x20 DUP6 ADD PUSH2 0x2E25 JUMP JUMPDEST SWAP2 POP PUSH1 0x40 DUP5 ADD CALLDATALOAD SWAP1 POP SWAP3 POP SWAP3 POP SWAP3 JUMP JUMPDEST PUSH1 0x0 DUP1 PUSH1 0x0 DUP1 PUSH1 0x80 DUP6 DUP8 SUB SLT ISZERO PUSH2 0x2F18 JUMPI PUSH1 0x0 DUP1 REVERT JUMPDEST PUSH2 0x2F21 DUP6 PUSH2 0x2E25 JUMP JUMPDEST SWAP4 POP PUSH2 0x2F2F PUSH1 0x20 DUP7 ADD PUSH2 0x2E25 JUMP JUMPDEST SWAP3 POP PUSH1 0x40 DUP6 ADD CALLDATALOAD SWAP2 POP PUSH1 0x60 DUP6 ADD CALLDATALOAD PUSH8 0xFFFFFFFFFFFFFFFF DUP2 GT ISZERO PUSH2 0x2F52 JUMPI PUSH1 0x0 DUP1 REVERT JUMPDEST DUP6 ADD PUSH1 0x1F DUP2 ADD DUP8 SGT PUSH2 0x2F63 JUMPI PUSH1 0x0 DUP1 REVERT JUMPDEST PUSH2 0x2F72 DUP8 DUP3 CALLDATALOAD PUSH1 0x20 DUP5 ADD PUSH2 0x2DAF JUMP JUMPDEST SWAP2 POP POP SWAP3 SWAP6 SWAP2 SWAP5 POP SWAP3 POP JUMP JUMPDEST PUSH1 0x0 DUP1 PUSH1 0x40 DUP4 DUP6 SUB SLT ISZERO PUSH2 0x2F91 JUMPI PUSH1 0x0 DUP1 REVERT JUMPDEST PUSH2 0x2F9A DUP4 PUSH2 0x2E25 JUMP JUMPDEST SWAP2 POP PUSH2 0x2EBD PUSH1 0x20 DUP5 ADD PUSH2 0x2E41 JUMP JUMPDEST PUSH1 0x0 DUP1 PUSH1 0x0 PUSH1 0x60 DUP5 DUP7 SUB SLT ISZERO PUSH2 0x2FBD JUMPI PUSH1 0x0 DUP1 REVERT JUMPDEST PUSH2 0x2FC6 DUP5 PUSH2 0x2E25 JUMP JUMPDEST SWAP3 POP PUSH1 0x20 DUP5 ADD CALLDATALOAD PUSH8 0xFFFFFFFFFFFFFFFF DUP2 GT ISZERO PUSH2 0x2FE2 JUMPI PUSH1 0x0 DUP1 REVERT JUMPDEST PUSH2 0x2FEE DUP7 DUP3 DUP8 ADD PUSH2 0x2E51 JUMP JUMPDEST SWAP3 POP POP PUSH1 0x40 DUP5 ADD CALLDATALOAD SWAP1 POP SWAP3 POP SWAP3 POP SWAP3 JUMP JUMPDEST PUSH1 0x0 DUP1 PUSH1 0x40 DUP4 DUP6 SUB SLT ISZERO PUSH2 0x3012 JUMPI PUSH1 0x0 DUP1 REVERT JUMPDEST PUSH2 0x301B DUP4 PUSH2 0x2E25 JUMP JUMPDEST SWAP5 PUSH1 0x20 SWAP4 SWAP1 SWAP4 ADD CALLDATALOAD SWAP4 POP POP POP JUMP JUMPDEST PUSH1 0x0 PUSH1 0x20 DUP3 DUP5 SUB SLT ISZERO PUSH2 0x303B JUMPI PUSH1 0x0 DUP1 REVERT JUMPDEST DUP2 CALLDATALOAD PUSH2 0x2E71 DUP2 PUSH2 0x3586 JUMP JUMPDEST PUSH1 0x0 PUSH1 0x20 DUP3 DUP5 SUB SLT ISZERO PUSH2 0x3058 JUMPI PUSH1 0x0 DUP1 REVERT JUMPDEST DUP2 MLOAD PUSH2 0x2E71 DUP2 PUSH2 0x3586 JUMP JUMPDEST PUSH1 0x0 PUSH1 0x20 DUP3 DUP5 SUB SLT ISZERO PUSH2 0x3075 JUMPI PUSH1 0x0 DUP1 REVERT JUMPDEST DUP2 CALLDATALOAD PUSH8 0xFFFFFFFFFFFFFFFF DUP2 GT ISZERO PUSH2 0x308C JUMPI PUSH1 0x0 DUP1 REVERT JUMPDEST PUSH2 0x223F DUP5 DUP3 DUP6 ADD PUSH2 0x2E51 JUMP JUMPDEST PUSH1 0x0 DUP1 PUSH1 0x40 DUP4 DUP6 SUB SLT ISZERO PUSH2 0x30AB JUMPI PUSH1 0x0 DUP1 REVERT JUMPDEST DUP3 CALLDATALOAD PUSH8 0xFFFFFFFFFFFFFFFF DUP1 DUP3 GT ISZERO PUSH2 0x30C3 JUMPI PUSH1 0x0 DUP1 REVERT JUMPDEST PUSH2 0x30CF DUP7 DUP4 DUP8 ADD PUSH2 0x2E51 JUMP JUMPDEST SWAP4 POP PUSH1 0x20 DUP6 ADD CALLDATALOAD SWAP2 POP DUP1 DUP3 GT ISZERO PUSH2 0x30E5 JUMPI PUSH1 0x0 DUP1 REVERT JUMPDEST POP PUSH2 0x30F2 DUP6 DUP3 DUP7 ADD PUSH2 0x2E51 JUMP JUMPDEST SWAP2 POP POP SWAP3 POP SWAP3 SWAP1 POP JUMP JUMPDEST PUSH1 0x0 DUP1 PUSH1 0x0 PUSH1 0x60 DUP5 DUP7 SUB SLT ISZERO PUSH2 0x3111 JUMPI PUSH1 0x0 DUP1 REVERT JUMPDEST DUP4 CALLDATALOAD PUSH8 0xFFFFFFFFFFFFFFFF DUP1 DUP3 GT ISZERO PUSH2 0x3129 JUMPI PUSH1 0x0 DUP1 REVERT JUMPDEST PUSH2 0x3135 DUP8 DUP4 DUP9 ADD PUSH2 0x2E51 JUMP JUMPDEST SWAP5 POP PUSH1 0x20 DUP7 ADD CALLDATALOAD SWAP2 POP DUP1 DUP3 GT ISZERO PUSH2 0x314B JUMPI PUSH1 0x0 DUP1 REVERT JUMPDEST POP PUSH2 0x2FEE DUP7 DUP3 DUP8 ADD PUSH2 0x2E51 JUMP JUMPDEST PUSH1 0x0 PUSH1 0x20 DUP3 DUP5 SUB SLT ISZERO PUSH2 0x316A JUMPI PUSH1 0x0 DUP1 REVERT JUMPDEST POP CALLDATALOAD SWAP2 SWAP1 POP JUMP JUMPDEST PUSH1 0x0 DUP1 PUSH1 0x40 DUP4 DUP6 SUB SLT ISZERO PUSH2 0x3184 JUMPI PUSH1 0x0 DUP1 REVERT JUMPDEST DUP3 CALLDATALOAD SWAP2 POP PUSH2 0x2EBD PUSH1 0x20 DUP5 ADD PUSH2 0x2E41 JUMP JUMPDEST PUSH1 0x0 DUP2 MLOAD DUP1 DUP5 MSTORE PUSH1 0x20 DUP1 DUP6 ADD DUP1 DUP2 SWAP7 POP DUP4 PUSH1 0x5 SHL DUP2 ADD SWAP2 POP DUP3 DUP7 ADD PUSH1 0x0 JUMPDEST DUP6 DUP2 LT ISZERO PUSH2 0x3202 JUMPI DUP3 DUP5 SUB DUP10 MSTORE DUP2 MLOAD PUSH1 0x40 DUP2 MLOAD DUP2 DUP8 MSTORE PUSH2 0x31D4 DUP3 DUP9 ADD DUP3 PUSH2 0x320F JUMP JUMPDEST SWAP2 POP POP DUP7 DUP3 ADD MLOAD SWAP2 POP DUP6 DUP2 SUB DUP8 DUP8 ADD MSTORE PUSH2 0x31EE DUP2 DUP4 PUSH2 0x320F JUMP JUMPDEST SWAP11 DUP8 ADD SWAP11 SWAP6 POP POP POP SWAP1 DUP5 ADD SWAP1 PUSH1 0x1 ADD PUSH2 0x31B2 JUMP JUMPDEST POP SWAP2 SWAP8 SWAP7 POP POP POP POP POP POP POP JUMP JUMPDEST PUSH1 0x0 DUP2 MLOAD DUP1 DUP5 MSTORE PUSH2 0x3227 DUP2 PUSH1 0x20 DUP7 ADD PUSH1 0x20 DUP7 ADD PUSH2 0x3482 JUMP JUMPDEST PUSH1 0x1F ADD PUSH1 0x1F NOT AND SWAP3 SWAP1 SWAP3 ADD PUSH1 0x20 ADD SWAP3 SWAP2 POP POP JUMP JUMPDEST PUSH1 0x0 DUP4 MLOAD PUSH2 0x324D DUP2 DUP5 PUSH1 0x20 DUP9 ADD PUSH2 0x3482 JUMP JUMPDEST DUP4 MLOAD SWAP1 DUP4 ADD SWAP1 PUSH2 0x3261 DUP2 DUP4 PUSH1 0x20 DUP9 ADD PUSH2 0x3482 JUMP JUMPDEST ADD SWAP5 SWAP4 POP POP POP POP JUMP JUMPDEST PUSH1 0x0 DUP3 MLOAD DUP1 MLOAD PUSH2 0x327E DUP2 DUP6 PUSH1 0x20 DUP6 ADD PUSH2 0x3482 JUMP JUMPDEST PUSH1 0x20 SWAP5 DUP6 ADD MLOAD PUSH1 0x1 PUSH1 0x1 PUSH1 0xA0 SHL SUB AND PUSH1 0x1F SWAP2 SWAP1 SWAP2 ADD PUSH1 0x1F NOT AND SWAP4 SWAP1 SWAP4 ADD SWAP3 DUP4 MSTORE POP POP ADD SWAP1 JUMP JUMPDEST PUSH1 0x0 PUSH1 0x1 PUSH1 0x1 PUSH1 0xA0 SHL SUB DUP1 DUP8 AND DUP4 MSTORE DUP1 DUP7 AND PUSH1 0x20 DUP5 ADD MSTORE POP DUP4 PUSH1 0x40 DUP4 ADD MSTORE PUSH1 0x80 PUSH1 0x60 DUP4 ADD MSTORE PUSH2 0x32D6 PUSH1 0x80 DUP4 ADD DUP5 PUSH2 0x320F JUMP JUMPDEST SWAP7 SWAP6 POP POP POP POP POP POP JUMP JUMPDEST PUSH1 0x0 PUSH1 0x20 DUP1 DUP4 ADD DUP2 DUP5 MSTORE DUP1 DUP6 MLOAD DUP1 DUP4 MSTORE PUSH1 0x40 SWAP3 POP DUP3 DUP7 ADD SWAP2 POP DUP3 DUP2 PUSH1 0x5 SHL DUP8 ADD ADD DUP5 DUP9 ADD PUSH1 0x0 JUMPDEST DUP4 DUP2 LT ISZERO PUSH2 0x3351 JUMPI DUP9 DUP4 SUB PUSH1 0x3F NOT ADD DUP6 MSTORE DUP2 MLOAD DUP1 MLOAD DUP8 DUP6 MSTORE PUSH2 0x332B DUP9 DUP7 ADD DUP3 PUSH2 0x320F JUMP JUMPDEST SWAP2 DUP10 ADD MLOAD PUSH1 0x1 PUSH1 0x1 PUSH1 0xA0 SHL SUB AND SWAP5 DUP10 ADD SWAP5 SWAP1 SWAP5 MSTORE SWAP5 DUP8 ADD SWAP5 SWAP3 POP SWAP1 DUP7 ADD SWAP1 PUSH1 0x1 ADD PUSH2 0x3307 JUMP JUMPDEST POP SWAP1 SWAP9 SWAP8 POP POP POP POP POP POP POP POP JUMP JUMPDEST PUSH1 0x20 DUP2 MSTORE PUSH1 0x0 PUSH2 0x2E71 PUSH1 0x20 DUP4 ADD DUP5 PUSH2 0x3194 JUMP JUMPDEST PUSH1 0x20 DUP2 MSTORE PUSH1 0x0 PUSH2 0x2E71 PUSH1 0x20 DUP4 ADD DUP5 PUSH2 0x320F JUMP JUMPDEST PUSH1 0x20 DUP2 MSTORE DUP2 MLOAD PUSH1 0x20 DUP3 ADD MSTORE PUSH1 0x1 PUSH1 0x1 PUSH1 0xA0 SHL SUB PUSH1 0x20 DUP4 ADD MLOAD AND PUSH1 0x40 DUP3 ADD MSTORE PUSH1 0x0 PUSH1 0x40 DUP4 ADD MLOAD PUSH1 0xC0 PUSH1 0x60 DUP5 ADD MSTORE PUSH2 0x33BE PUSH1 0xE0 DUP5 ADD DUP3 PUSH2 0x320F JUMP JUMPDEST SWAP1 POP PUSH1 0x60 DUP5 ADD MLOAD PUSH1 0x1F NOT DUP1 DUP6 DUP5 SUB ADD PUSH1 0x80 DUP7 ADD MSTORE PUSH2 0x33DC DUP4 DUP4 PUSH2 0x320F JUMP JUMPDEST SWAP3 POP PUSH1 0x80 DUP7 ADD MLOAD SWAP2 POP DUP1 DUP6 DUP5 SUB ADD PUSH1 0xA0 DUP7 ADD MSTORE PUSH2 0x33F9 DUP4 DUP4 PUSH2 0x3194 JUMP JUMPDEST SWAP3 POP PUSH1 0xA0 DUP7 ADD MLOAD SWAP2 POP DUP1 DUP6 DUP5 SUB ADD PUSH1 0xC0 DUP7 ADD MSTORE POP PUSH2 0x3417 DUP3 DUP3 PUSH2 0x3194 JUMP JUMPDEST SWAP6 SWAP5 POP POP POP POP POP JUMP JUMPDEST DUP4 DUP2 MSTORE DUP3 PUSH1 0x20 DUP3 ADD MSTORE PUSH1 0x60 PUSH1 0x40 DUP3 ADD MSTORE PUSH1 0x0 PUSH2 0x3417 PUSH1 0x60 DUP4 ADD DUP5 PUSH2 0x320F JUMP JUMPDEST PUSH1 0x0 DUP3 NOT DUP3 GT ISZERO PUSH2 0x3452 JUMPI PUSH2 0x3452 PUSH2 0x3518 JUMP JUMPDEST POP ADD SWAP1 JUMP JUMPDEST PUSH1 0x0 DUP3 PUSH2 0x3466 JUMPI PUSH2 0x3466 PUSH2 0x352E JUMP JUMPDEST POP DIV SWAP1 JUMP JUMPDEST PUSH1 0x0 DUP3 DUP3 LT ISZERO PUSH2 0x347D JUMPI PUSH2 0x347D PUSH2 0x3518 JUMP JUMPDEST POP SUB SWAP1 JUMP JUMPDEST PUSH1 0x0 JUMPDEST DUP4 DUP2 LT ISZERO PUSH2 0x349D JUMPI DUP2 DUP2 ADD MLOAD DUP4 DUP3 ADD MSTORE PUSH1 0x20 ADD PUSH2 0x3485 JUMP JUMPDEST DUP4 DUP2 GT ISZERO PUSH2 0x1A13 JUMPI POP POP PUSH1 0x0 SWAP2 ADD MSTORE JUMP JUMPDEST PUSH1 0x1 DUP2 DUP2 SHR SWAP1 DUP3 AND DUP1 PUSH2 0x34C2 JUMPI PUSH1 0x7F DUP3 AND SWAP2 POP JUMPDEST PUSH1 0x20 DUP3 LT DUP2 EQ ISZERO PUSH2 0x34E3 JUMPI PUSH4 0x4E487B71 PUSH1 0xE0 SHL PUSH1 0x0 MSTORE PUSH1 0x22 PUSH1 0x4 MSTORE PUSH1 0x24 PUSH1 0x0 REVERT JUMPDEST POP SWAP2 SWAP1 POP JUMP JUMPDEST PUSH1 0x0 PUSH1 0x0 NOT DUP3 EQ ISZERO PUSH2 0x34FD JUMPI PUSH2 0x34FD PUSH2 0x3518 JUMP JUMPDEST POP PUSH1 0x1 ADD SWAP1 JUMP JUMPDEST PUSH1 0x0 DUP3 PUSH2 0x3513 JUMPI PUSH2 0x3513 PUSH2 0x352E JUMP JUMPDEST POP MOD SWAP1 JUMP JUMPDEST PUSH4 0x4E487B71 PUSH1 0xE0 SHL PUSH1 0x0 MSTORE PUSH1 0x11 PUSH1 0x4 MSTORE PUSH1 0x24 PUSH1 0x0 REVERT JUMPDEST PUSH4 0x4E487B71 PUSH1 0xE0 SHL PUSH1 0x0 MSTORE PUSH1 0x12 PUSH1 0x4 MSTORE PUSH1 0x24 PUSH1 0x0 REVERT JUMPDEST PUSH4 0x4E487B71 PUSH1 0xE0 SHL PUSH1 0x0 MSTORE PUSH1 0x31 PUSH1 0x4 MSTORE PUSH1 0x24 PUSH1 0x0 REVERT JUMPDEST PUSH4 0x4E487B71 PUSH1 0xE0 SHL PUSH1 0x0 MSTORE PUSH1 0x32 PUSH1 0x4 MSTORE PUSH1 0x24 PUSH1 0x0 REVERT JUMPDEST PUSH4 0x4E487B71 PUSH1 0xE0 SHL PUSH1 0x0 MSTORE PUSH1 0x41 PUSH1 0x4 MSTORE PUSH1 0x24 PUSH1 0x0 REVERT JUMPDEST PUSH1 0x1 PUSH1 0x1 PUSH1 0xE0 SHL SUB NOT DUP2 AND DUP2 EQ PUSH2 0xE6A JUMPI PUSH1 0x0 DUP1 REVERT INVALID LOG2 PUSH5 0x6970667358 0x22 SLT KECCAK256 DUP15 CREATE2 0xE8 0x2B 0xE2 0xE2 DUP16 EXTCODESIZE PUSH13 0x50AD3070D9887377156F24EFE DUP3 0x24 0xB8 JUMPI 0xDF 0xE4 DUP15 SELFBALANCE PUSH28 0x9664736F6C6343000807003300000000000000000000000000000000 "},"methodIdentifiers":{"addFileLocation(string,string)":"4261917a","addIndividualFile(string,string,uint256)":"1fceaae0","allTokens(uint256)":"634282af","approve(address,uint256)":"095ea7b3","approveOrDenyClient(uint256,bool)":"a28039cd","approvedName(address)":"97a33342","balanceOf(address)":"70a08231","contractType()":"cb2ef6f7","finalizeClient(string)":"f9dc375f","getApproved(uint256)":"081812fc","getFileStore()":"0e37b4fd","getPendingClients()":"5bf61cfe","getShowData()":"af80a5be","increaseClientMintAllowance(uint256)":"eb58f0ec","increaseContractMintAllowance()":"5a9be11b","isApproved(address)":"673448dd","isApprovedForAll(address,address)":"e985e9c5","isPending(address)":"a00745b6","memberTokens(uint256)":"aeb20b94","mint(address,string,uint256)":"ba7aef43","name()":"06fdde03","owner()":"8da5cb5b","ownerOf(uint256)":"6352211e","price()":"a035b1fe","requestApproval(string)":"96761595","safeTransferFrom(address,address,uint256)":"42842e0e","safeTransferFrom(address,address,uint256,bytes)":"b88d4fde","setApprovalForAll(address,bool)":"a22cb465","supportsInterface(bytes4)":"01ffc9a7","symbol()":"95d89b41","tokenByIndex(uint256)":"4f6ccce7","tokenOfOwnerByIndex(address,uint256)":"2f745c59","tokenURI(uint256)":"c87b56dd","totalSupply()":"18160ddd","transferFrom(address,address,uint256)":"23b872dd"}}}}}