{
  "_format": "hh-sol-artifact-1",
  "contractName": "Tambora",
  "sourceName": "contracts/Tambora.sol",
  "abi": [
    {
      "inputs": [
        {
          "internalType": "address",
          "name": "deployer",
          "type": "address"
        },
        {
          "internalType": "string",
          "name": "name",
          "type": "string"
        },
        {
          "internalType": "string",
          "name": "symbol",
          "type": "string"
        },
        {
          "internalType": "uint256",
          "name": "price_",
          "type": "uint256"
        },
        {
          "internalType": "string",
          "name": "contractType_",
          "type": "string"
        },
        {
          "internalType": "address",
          "name": "to_",
          "type": "address"
        },
        {
          "internalType": "string",
          "name": "uri_",
          "type": "string"
        },
        {
          "internalType": "address",
          "name": "factoryOwner_",
          "type": "address"
        }
      ],
      "stateMutability": "nonpayable",
      "type": "constructor"
    },
    {
      "anonymous": false,
      "inputs": [
        {
          "indexed": true,
          "internalType": "address",
          "name": "owner",
          "type": "address"
        },
        {
          "indexed": true,
          "internalType": "address",
          "name": "approved",
          "type": "address"
        },
        {
          "indexed": true,
          "internalType": "uint256",
          "name": "tokenId",
          "type": "uint256"
        }
      ],
      "name": "Approval",
      "type": "event"
    },
    {
      "anonymous": false,
      "inputs": [
        {
          "indexed": true,
          "internalType": "address",
          "name": "owner",
          "type": "address"
        },
        {
          "indexed": true,
          "internalType": "address",
          "name": "operator",
          "type": "address"
        },
        {
          "indexed": false,
          "internalType": "bool",
          "name": "approved",
          "type": "bool"
        }
      ],
      "name": "ApprovalForAll",
      "type": "event"
    },
    {
      "anonymous": false,
      "inputs": [
        {
          "components": [
            {
              "internalType": "string",
              "name": "name",
              "type": "string"
            },
            {
              "internalType": "address",
              "name": "addr",
              "type": "address"
            }
          ],
          "indexed": true,
          "internalType": "struct Tambora.Client",
          "name": "clientData",
          "type": "tuple"
        }
      ],
      "name": "Request",
      "type": "event"
    },
    {
      "anonymous": false,
      "inputs": [
        {
          "components": [
            {
              "internalType": "string",
              "name": "name",
              "type": "string"
            },
            {
              "internalType": "address",
              "name": "addr",
              "type": "address"
            }
          ],
          "indexed": true,
          "internalType": "struct Tambora.Client",
          "name": "clientData",
          "type": "tuple"
        },
        {
          "indexed": true,
          "internalType": "bool",
          "name": "res",
          "type": "bool"
        }
      ],
      "name": "Response",
      "type": "event"
    },
    {
      "anonymous": false,
      "inputs": [
        {
          "indexed": true,
          "internalType": "address",
          "name": "from",
          "type": "address"
        },
        {
          "indexed": true,
          "internalType": "address",
          "name": "to",
          "type": "address"
        },
        {
          "indexed": true,
          "internalType": "uint256",
          "name": "tokenId",
          "type": "uint256"
        }
      ],
      "name": "Transfer",
      "type": "event"
    },
    {
      "inputs": [
        {
          "internalType": "string",
          "name": "name_",
          "type": "string"
        },
        {
          "internalType": "string",
          "name": "uri_",
          "type": "string"
        }
      ],
      "name": "addFileLocation",
      "outputs": [],
      "stateMutability": "nonpayable",
      "type": "function"
    },
    {
      "inputs": [
        {
          "internalType": "string",
          "name": "uri_",
          "type": "string"
        },
        {
          "internalType": "string",
          "name": "name_",
          "type": "string"
        },
        {
          "internalType": "uint256",
          "name": "mintId_",
          "type": "uint256"
        }
      ],
      "name": "addIndividualFile",
      "outputs": [],
      "stateMutability": "nonpayable",
      "type": "function"
    },
    {
      "inputs": [
        {
          "internalType": "uint256",
          "name": "",
          "type": "uint256"
        }
      ],
      "name": "allTokens",
      "outputs": [
        {
          "internalType": "uint256",
          "name": "blockNumber",
          "type": "uint256"
        },
        {
          "internalType": "uint256",
          "name": "timeStamp",
          "type": "uint256"
        },
        {
          "internalType": "string",
          "name": "uri",
          "type": "string"
        }
      ],
      "stateMutability": "view",
      "type": "function"
    },
    {
      "inputs": [
        {
          "internalType": "address",
          "name": "to",
          "type": "address"
        },
        {
          "internalType": "uint256",
          "name": "tokenId",
          "type": "uint256"
        }
      ],
      "name": "approve",
      "outputs": [],
      "stateMutability": "nonpayable",
      "type": "function"
    },
    {
      "inputs": [
        {
          "internalType": "uint256",
          "name": "index",
          "type": "uint256"
        },
        {
          "internalType": "bool",
          "name": "decision",
          "type": "bool"
        }
      ],
      "name": "approveOrDenyClient",
      "outputs": [],
      "stateMutability": "nonpayable",
      "type": "function"
    },
    {
      "inputs": [
        {
          "internalType": "address",
          "name": "",
          "type": "address"
        }
      ],
      "name": "approvedName",
      "outputs": [
        {
          "internalType": "string",
          "name": "",
          "type": "string"
        }
      ],
      "stateMutability": "view",
      "type": "function"
    },
    {
      "inputs": [
        {
          "internalType": "address",
          "name": "owner",
          "type": "address"
        }
      ],
      "name": "balanceOf",
      "outputs": [
        {
          "internalType": "uint256",
          "name": "",
          "type": "uint256"
        }
      ],
      "stateMutability": "view",
      "type": "function"
    },
    {
      "inputs": [],
      "name": "contractType",
      "outputs": [
        {
          "internalType": "string",
          "name": "",
          "type": "string"
        }
      ],
      "stateMutability": "view",
      "type": "function"
    },
    {
      "inputs": [
        {
          "internalType": "string",
          "name": "uri",
          "type": "string"
        }
      ],
      "name": "finalizeClient",
      "outputs": [],
      "stateMutability": "payable",
      "type": "function"
    },
    {
      "inputs": [
        {
          "internalType": "uint256",
          "name": "tokenId",
          "type": "uint256"
        }
      ],
      "name": "getApproved",
      "outputs": [
        {
          "internalType": "address",
          "name": "",
          "type": "address"
        }
      ],
      "stateMutability": "view",
      "type": "function"
    },
    {
      "inputs": [],
      "name": "getFileStore",
      "outputs": [
        {
          "components": [
            {
              "internalType": "string",
              "name": "name",
              "type": "string"
            },
            {
              "internalType": "string",
              "name": "uri",
              "type": "string"
            }
          ],
          "internalType": "struct Tambora.File[]",
          "name": "",
          "type": "tuple[]"
        }
      ],
      "stateMutability": "view",
      "type": "function"
    },
    {
      "inputs": [
        {
          "internalType": "uint256",
          "name": "id_",
          "type": "uint256"
        }
      ],
      "name": "getIndividualFiles",
      "outputs": [
        {
          "components": [
            {
              "internalType": "string",
              "name": "name",
              "type": "string"
            },
            {
              "internalType": "string",
              "name": "uri",
              "type": "string"
            }
          ],
          "internalType": "struct Tambora.File[]",
          "name": "",
          "type": "tuple[]"
        }
      ],
      "stateMutability": "view",
      "type": "function"
    },
    {
      "inputs": [],
      "name": "getPendingClients",
      "outputs": [
        {
          "components": [
            {
              "internalType": "string",
              "name": "name",
              "type": "string"
            },
            {
              "internalType": "address",
              "name": "addr",
              "type": "address"
            }
          ],
          "internalType": "struct Tambora.Client[]",
          "name": "",
          "type": "tuple[]"
        }
      ],
      "stateMutability": "view",
      "type": "function"
    },
    {
      "inputs": [],
      "name": "getShowData",
      "outputs": [
        {
          "components": [
            {
              "internalType": "uint256",
              "name": "tokenId",
              "type": "uint256"
            },
            {
              "internalType": "address",
              "name": "manager",
              "type": "address"
            },
            {
              "internalType": "string",
              "name": "contractType",
              "type": "string"
            },
            {
              "internalType": "string",
              "name": "tokenURI",
              "type": "string"
            },
            {
              "components": [
                {
                  "internalType": "string",
                  "name": "name",
                  "type": "string"
                },
                {
                  "internalType": "string",
                  "name": "uri",
                  "type": "string"
                }
              ],
              "internalType": "struct Tambora.File[]",
              "name": "fileStore",
              "type": "tuple[]"
            },
            {
              "components": [
                {
                  "internalType": "string",
                  "name": "name",
                  "type": "string"
                },
                {
                  "internalType": "string",
                  "name": "uri",
                  "type": "string"
                }
              ],
              "internalType": "struct Tambora.File[]",
              "name": "individualFilestore",
              "type": "tuple[]"
            }
          ],
          "internalType": "struct Tambora.ShowData",
          "name": "",
          "type": "tuple"
        }
      ],
      "stateMutability": "view",
      "type": "function"
    },
    {
      "inputs": [
        {
          "internalType": "uint256",
          "name": "mintId_",
          "type": "uint256"
        }
      ],
      "name": "increaseClientMintAllowance",
      "outputs": [],
      "stateMutability": "payable",
      "type": "function"
    },
    {
      "inputs": [],
      "name": "increaseContractMintAllowance",
      "outputs": [],
      "stateMutability": "payable",
      "type": "function"
    },
    {
      "inputs": [
        {
          "internalType": "address",
          "name": "",
          "type": "address"
        }
      ],
      "name": "isApproved",
      "outputs": [
        {
          "internalType": "bool",
          "name": "",
          "type": "bool"
        }
      ],
      "stateMutability": "view",
      "type": "function"
    },
    {
      "inputs": [
        {
          "internalType": "address",
          "name": "owner",
          "type": "address"
        },
        {
          "internalType": "address",
          "name": "operator",
          "type": "address"
        }
      ],
      "name": "isApprovedForAll",
      "outputs": [
        {
          "internalType": "bool",
          "name": "",
          "type": "bool"
        }
      ],
      "stateMutability": "view",
      "type": "function"
    },
    {
      "inputs": [
        {
          "internalType": "address",
          "name": "",
          "type": "address"
        }
      ],
      "name": "isPending",
      "outputs": [
        {
          "internalType": "bool",
          "name": "",
          "type": "bool"
        }
      ],
      "stateMutability": "view",
      "type": "function"
    },
    {
      "inputs": [
        {
          "internalType": "uint256",
          "name": "",
          "type": "uint256"
        }
      ],
      "name": "memberTokens",
      "outputs": [
        {
          "internalType": "uint256",
          "name": "mintId",
          "type": "uint256"
        },
        {
          "internalType": "uint256",
          "name": "minted",
          "type": "uint256"
        },
        {
          "internalType": "uint256",
          "name": "mintAllowance",
          "type": "uint256"
        }
      ],
      "stateMutability": "view",
      "type": "function"
    },
    {
      "inputs": [
        {
          "internalType": "address",
          "name": "to_",
          "type": "address"
        },
        {
          "internalType": "string",
          "name": "uri",
          "type": "string"
        },
        {
          "internalType": "uint256",
          "name": "mintId_",
          "type": "uint256"
        }
      ],
      "name": "mint",
      "outputs": [],
      "stateMutability": "payable",
      "type": "function"
    },
    {
      "inputs": [],
      "name": "name",
      "outputs": [
        {
          "internalType": "string",
          "name": "",
          "type": "string"
        }
      ],
      "stateMutability": "view",
      "type": "function"
    },
    {
      "inputs": [],
      "name": "owner",
      "outputs": [
        {
          "internalType": "address",
          "name": "",
          "type": "address"
        }
      ],
      "stateMutability": "view",
      "type": "function"
    },
    {
      "inputs": [
        {
          "internalType": "uint256",
          "name": "tokenId",
          "type": "uint256"
        }
      ],
      "name": "ownerOf",
      "outputs": [
        {
          "internalType": "address",
          "name": "",
          "type": "address"
        }
      ],
      "stateMutability": "view",
      "type": "function"
    },
    {
      "inputs": [],
      "name": "price",
      "outputs": [
        {
          "internalType": "uint256",
          "name": "",
          "type": "uint256"
        }
      ],
      "stateMutability": "view",
      "type": "function"
    },
    {
      "inputs": [
        {
          "internalType": "string",
          "name": "name",
          "type": "string"
        }
      ],
      "name": "requestApproval",
      "outputs": [],
      "stateMutability": "nonpayable",
      "type": "function"
    },
    {
      "inputs": [
        {
          "internalType": "address",
          "name": "from",
          "type": "address"
        },
        {
          "internalType": "address",
          "name": "to",
          "type": "address"
        },
        {
          "internalType": "uint256",
          "name": "tokenId",
          "type": "uint256"
        }
      ],
      "name": "safeTransferFrom",
      "outputs": [],
      "stateMutability": "nonpayable",
      "type": "function"
    },
    {
      "inputs": [
        {
          "internalType": "address",
          "name": "from",
          "type": "address"
        },
        {
          "internalType": "address",
          "name": "to",
          "type": "address"
        },
        {
          "internalType": "uint256",
          "name": "tokenId",
          "type": "uint256"
        },
        {
          "internalType": "bytes",
          "name": "data",
          "type": "bytes"
        }
      ],
      "name": "safeTransferFrom",
      "outputs": [],
      "stateMutability": "nonpayable",
      "type": "function"
    },
    {
      "inputs": [
        {
          "internalType": "address",
          "name": "operator",
          "type": "address"
        },
        {
          "internalType": "bool",
          "name": "approved",
          "type": "bool"
        }
      ],
      "name": "setApprovalForAll",
      "outputs": [],
      "stateMutability": "nonpayable",
      "type": "function"
    },
    {
      "inputs": [
        {
          "internalType": "bytes4",
          "name": "interfaceId",
          "type": "bytes4"
        }
      ],
      "name": "supportsInterface",
      "outputs": [
        {
          "internalType": "bool",
          "name": "",
          "type": "bool"
        }
      ],
      "stateMutability": "view",
      "type": "function"
    },
    {
      "inputs": [],
      "name": "symbol",
      "outputs": [
        {
          "internalType": "string",
          "name": "",
          "type": "string"
        }
      ],
      "stateMutability": "view",
      "type": "function"
    },
    {
      "inputs": [
        {
          "internalType": "uint256",
          "name": "index",
          "type": "uint256"
        }
      ],
      "name": "tokenByIndex",
      "outputs": [
        {
          "internalType": "uint256",
          "name": "",
          "type": "uint256"
        }
      ],
      "stateMutability": "view",
      "type": "function"
    },
    {
      "inputs": [
        {
          "internalType": "address",
          "name": "owner",
          "type": "address"
        },
        {
          "internalType": "uint256",
          "name": "index",
          "type": "uint256"
        }
      ],
      "name": "tokenOfOwnerByIndex",
      "outputs": [
        {
          "internalType": "uint256",
          "name": "",
          "type": "uint256"
        }
      ],
      "stateMutability": "view",
      "type": "function"
    },
    {
      "inputs": [
        {
          "internalType": "uint256",
          "name": "tokenId_",
          "type": "uint256"
        }
      ],
      "name": "tokenURI",
      "outputs": [
        {
          "internalType": "string",
          "name": "",
          "type": "string"
        }
      ],
      "stateMutability": "view",
      "type": "function"
    },
    {
      "inputs": [],
      "name": "totalSupply",
      "outputs": [
        {
          "internalType": "uint256",
          "name": "",
          "type": "uint256"
        }
      ],
      "stateMutability": "view",
      "type": "function"
    },
    {
      "inputs": [
        {
          "internalType": "address",
          "name": "from",
          "type": "address"
        },
        {
          "internalType": "address",
          "name": "to",
          "type": "address"
        },
        {
          "internalType": "uint256",
          "name": "tokenId",
          "type": "uint256"
        }
      ],
      "name": "transferFrom",
      "outputs": [],
      "stateMutability": "nonpayable",
      "type": "function"
    }
  ],
  "bytecode": "0x60806040523480156200001157600080fd5b5060405162004235380380620042358339810160408190526200003491620008b1565b8651879087906200004d90600090602085019062000737565b5080516200006390600190602084019062000737565b5050600b80546001600160a01b03808c166001600160a01b031992831617909255600a80549285169290911691909117905550600d8590558351620000b090601090602087019062000737565b50600a600f81905560408051606081018252600080825260016020808401918252938301948552818052601690935290517f0263c2b778d062355049effc2dece97bc6547ff8a88a3258daa512061c2153dd5590517f0263c2b778d062355049effc2dece97bc6547ff8a88a3258daa512061c2153de5590517f0263c2b778d062355049effc2dece97bc6547ff8a88a3258daa512061c2153df556200015890849062000220565b620001656000836200037a565b6001600c5560408051606081018252438152426020808301918252928201858152600080526017845282517fd840e16649f6b9a295d95876f4633d3a6b10b55e8162971cf78afd886d5ec89b90815591517fd840e16649f6b9a295d95876f4633d3a6b10b55e8162971cf78afd886d5ec89c55518051929391926200020e927fd840e16649f6b9a295d95876f4633d3a6b10b55e8162971cf78afd886d5ec89d92019062000737565b50905050505050505050505062000a77565b6001600160a01b0382166200027c5760405162461bcd60e51b815260206004820181905260248201527f4552433732313a206d696e7420746f20746865207a65726f206164647265737360448201526064015b60405180910390fd5b6000818152600260205260409020546001600160a01b031615620002e35760405162461bcd60e51b815260206004820152601c60248201527f4552433732313a20746f6b656e20616c7265616479206d696e74656400000000604482015260640162000273565b620002f1600083836200041b565b6001600160a01b03821660009081526003602052604081208054600192906200031c908490620009ad565b909155505060008181526002602052604080822080546001600160a01b0319166001600160a01b03861690811790915590518392907fddf252ad1be2c89b69c2b068fc378daa952ba7f163c4a11628f55a4df523b3ef908290a45050565b6000828152600260205260409020546001600160a01b0316620003f55760405162461bcd60e51b815260206004820152602c60248201527f4552433732314d657461646174613a2055524920736574206f66206e6f6e657860448201526b34b9ba32b73a103a37b5b2b760a11b606482015260840162000273565b60008281526011602090815260409091208251620004169284019062000737565b505050565b620004338383836200041660201b620009671760201c565b6001600160a01b03831662000491576200048b81600880546000838152600960205260408120829055600182018355919091527ff3f7a9fe364faab93b216da50a3214154f22a0a2b415b23a84c8169e8b636ee30155565b620004b7565b816001600160a01b0316836001600160a01b031614620004b757620004b78382620004f7565b6001600160a01b038216620004d1576200041681620005a4565b826001600160a01b0316826001600160a01b03161462000416576200041682826200065e565b600060016200051184620006af60201b620010b31760201c565b6200051d9190620009c8565b60008381526007602052604090205490915080821462000571576001600160a01b03841660009081526006602090815260408083208584528252808320548484528184208190558352600790915290208190555b5060009182526007602090815260408084208490556001600160a01b039094168352600681528383209183525290812055565b600854600090620005b890600190620009c8565b60008381526009602052604081205460088054939450909284908110620005e357620005e362000a4b565b90600052602060002001549050806008838154811062000607576200060762000a4b565b600091825260208083209091019290925582815260099091526040808220849055858252812055600880548062000642576200064262000a35565b6001900381819060005260206000200160009055905550505050565b60006200067683620006af60201b620010b31760201c565b6001600160a01b039093166000908152600660209081526040808320868452825280832085905593825260079052919091209190915550565b60006001600160a01b0382166200071b5760405162461bcd60e51b815260206004820152602960248201527f4552433732313a2061646472657373207a65726f206973206e6f7420612076616044820152683634b21037bbb732b960b91b606482015260840162000273565b506001600160a01b031660009081526003602052604090205490565b8280546200074590620009e2565b90600052602060002090601f016020900481019282620007695760008555620007b4565b82601f106200078457805160ff1916838001178555620007b4565b82800160010185558215620007b4579182015b82811115620007b457825182559160200191906001019062000797565b50620007c2929150620007c6565b5090565b5b80821115620007c25760008155600101620007c7565b80516001600160a01b0381168114620007f557600080fd5b919050565b600082601f8301126200080c57600080fd5b81516001600160401b038082111562000829576200082962000a61565b604051601f8301601f19908116603f0116810190828211818310171562000854576200085462000a61565b816040528381526020925086838588010111156200087157600080fd5b600091505b8382101562000895578582018301518183018401529082019062000876565b83821115620008a75760008385830101525b9695505050505050565b600080600080600080600080610100898b031215620008cf57600080fd5b620008da89620007dd565b60208a01519098506001600160401b0380821115620008f857600080fd5b620009068c838d01620007fa565b985060408b01519150808211156200091d57600080fd5b6200092b8c838d01620007fa565b975060608b0151965060808b01519150808211156200094957600080fd5b620009578c838d01620007fa565b95506200096760a08c01620007dd565b945060c08b01519150808211156200097e57600080fd5b506200098d8b828c01620007fa565b9250506200099e60e08a01620007dd565b90509295985092959890939650565b60008219821115620009c357620009c362000a1f565b500190565b600082821015620009dd57620009dd62000a1f565b500390565b600181811c90821680620009f757607f821691505b6020821081141562000a1957634e487b7160e01b600052602260045260246000fd5b50919050565b634e487b7160e01b600052601160045260246000fd5b634e487b7160e01b600052603160045260246000fd5b634e487b7160e01b600052603260045260246000fd5b634e487b7160e01b600052604160045260246000fd5b6137ae8062000a876000396000f3fe60806040526004361061024f5760003560e01c80638da5cb5b11610138578063af80a5be116100b0578063cb2ef6f71161007f578063eb4297f611610064578063eb4297f6146106f2578063eb58f0ec14610712578063f9dc375f1461072557600080fd5b8063cb2ef6f714610694578063e985e9c5146106a957600080fd5b8063af80a5be1461061f578063b88d4fde14610641578063ba7aef4314610661578063c87b56dd1461067457600080fd5b8063a00745b611610107578063a22cb465116100ec578063a22cb46514610588578063a28039cd146105a8578063aeb20b94146105c857600080fd5b8063a00745b614610542578063a035b1fe1461057257600080fd5b80638da5cb5b146104cf57806395d89b41146104ed578063967615951461050257806397a333421461052257600080fd5b80634261917a116101cb5780635bf61cfe1161019a5780636352211e1161017f5780636352211e1461045f578063673448dd1461047f57806370a08231146104af57600080fd5b80635bf61cfe1461040e578063634282af1461043057600080fd5b80634261917a146103a657806342842e0e146103c65780634f6ccce7146103e65780635a9be11b1461040657600080fd5b80630e37b4fd116102225780631fceaae0116102075780631fceaae01461034657806323b872dd146103665780632f745c591461038657600080fd5b80630e37b4fd1461030557806318160ddd1461032757600080fd5b806301ffc9a71461025457806306fdde0314610289578063081812fc146102ab578063095ea7b3146102e3575b600080fd5b34801561026057600080fd5b5061027461026f366004613205565b610738565b60405190151581526020015b60405180910390f35b34801561029557600080fd5b5061029e61077c565b604051610280919061354e565b3480156102b757600080fd5b506102cb6102c6366004613334565b61080e565b6040516001600160a01b039091168152602001610280565b3480156102ef57600080fd5b506103036102fe3660046131db565b610835565b005b34801561031157600080fd5b5061031a61096c565b604051610280919061353b565b34801561033357600080fd5b506008545b604051908152602001610280565b34801561035257600080fd5b506103036103613660046132d8565b610b04565b34801561037257600080fd5b506103036103813660046130a2565b610b7a565b34801561039257600080fd5b506103386103a13660046131db565b610c01565b3480156103b257600080fd5b506103036103c1366004613274565b610ca9565b3480156103d257600080fd5b506103036103e13660046130a2565b610d12565b3480156103f257600080fd5b50610338610401366004613334565b610d2d565b610303610dd1565b34801561041a57600080fd5b50610423610ea8565b60405161028091906134bc565b34801561043c57600080fd5b5061045061044b366004613334565b610fa3565b604051610280939291906135fc565b34801561046b57600080fd5b506102cb61047a366004613334565b61104e565b34801561048b57600080fd5b5061027461049a366004613054565b60136020526000908152604090205460ff1681565b3480156104bb57600080fd5b506103386104ca366004613054565b6110b3565b3480156104db57600080fd5b50600b546001600160a01b03166102cb565b3480156104f957600080fd5b5061029e61114d565b34801561050e57600080fd5b5061030361051d36600461323f565b61115c565b34801561052e57600080fd5b5061029e61053d366004613054565b611266565b34801561054e57600080fd5b5061027461055d366004613054565b60126020526000908152604090205460ff1681565b34801561057e57600080fd5b50610338600d5481565b34801561059457600080fd5b506103036105a336600461315a565b611300565b3480156105b457600080fd5b506103036105c336600461334d565b61130f565b3480156105d457600080fd5b506106046105e3366004613334565b60166020526000908152604090208054600182015460029092015490919083565b60408051938452602084019290925290820152606001610280565b34801561062b57600080fd5b5061063461159d565b6040516102809190613561565b34801561064d57600080fd5b5061030361065c3660046130de565b6119c6565b61030361066f366004613184565b611a54565b34801561068057600080fd5b5061029e61068f366004613334565b611c38565b3480156106a057600080fd5b5061029e611dd5565b3480156106b557600080fd5b506102746106c436600461306f565b6001600160a01b03918216600090815260056020908152604080832093909416825291909152205460ff1690565b3480156106fe57600080fd5b5061031a61070d366004613334565b611de2565b610303610720366004613334565b611f83565b61030361073336600461323f565b612048565b60006001600160e01b031982167f780e9d630000000000000000000000000000000000000000000000000000000014806107765750610776826121ce565b92915050565b60606000805461078b9061368a565b80601f01602080910402602001604051908101604052809291908181526020018280546107b79061368a565b80156108045780601f106107d957610100808354040283529160200191610804565b820191906000526020600020905b8154815290600101906020018083116107e757829003601f168201915b5050505050905090565b600061081982612269565b506000908152600460205260409020546001600160a01b031690565b60006108408261104e565b9050806001600160a01b0316836001600160a01b031614156108cf5760405162461bcd60e51b815260206004820152602160248201527f4552433732313a20617070726f76616c20746f2063757272656e74206f776e6560448201527f720000000000000000000000000000000000000000000000000000000000000060648201526084015b60405180910390fd5b336001600160a01b03821614806108eb57506108eb81336106c4565b61095d5760405162461bcd60e51b815260206004820152603e60248201527f4552433732313a20617070726f76652063616c6c6572206973206e6f7420746f60448201527f6b656e206f776e6572206e6f7220617070726f76656420666f7220616c6c000060648201526084016108c6565b61096783836122cd565b505050565b60606000610979336110b3565b1161098357600080fd5b6019805480602002602001604051908101604052809291908181526020016000905b82821015610afb57838290600052602060002090600202016040518060400160405290816000820180546109d89061368a565b80601f0160208091040260200160405190810160405280929190818152602001828054610a049061368a565b8015610a515780601f10610a2657610100808354040283529160200191610a51565b820191906000526020600020905b815481529060010190602001808311610a3457829003601f168201915b50505050508152602001600182018054610a6a9061368a565b80601f0160208091040260200160405190810160405280929190818152602001828054610a969061368a565b8015610ae35780601f10610ab857610100808354040283529160200191610ae3565b820191906000526020600020905b815481529060010190602001808311610ac657829003601f168201915b505050505081525050815260200190600101906109a5565b50505050905090565b610b0c612348565b6000818152601560209081526040808320815180830190925285825281830187905280546001810182559084529282902081518051929460020290910192610b5992849290910190612e41565b506020828101518051610b729260018501920190612e41565b505050505050565b610b8433826123a4565b610bf65760405162461bcd60e51b815260206004820152602e60248201527f4552433732313a2063616c6c6572206973206e6f7420746f6b656e206f776e6560448201527f72206e6f7220617070726f76656400000000000000000000000000000000000060648201526084016108c6565b610967838383612423565b6000610c0c836110b3565b8210610c805760405162461bcd60e51b815260206004820152602b60248201527f455243373231456e756d657261626c653a206f776e657220696e646578206f7560448201527f74206f6620626f756e647300000000000000000000000000000000000000000060648201526084016108c6565b506001600160a01b03919091166000908152600660209081526040808320938352929052205490565b610cb1612348565b6040805180820190915282815260208082018390526019805460018101825560009190915282518051849360029093027f944998273e477b495144fb8794c914197f3ccb46be2900f4698fd0ef743c96950192610b59928492910190612e41565b610967838383604051806020016040528060008152506119c6565b6000610d3860085490565b8210610dac5760405162461bcd60e51b815260206004820152602c60248201527f455243373231456e756d657261626c653a20676c6f62616c20696e646578206f60448201527f7574206f6620626f756e6473000000000000000000000000000000000000000060648201526084016108c6565b60088281548110610dbf57610dbf613736565b90600052602060002001549050919050565b610dd9612348565b668e1bc9bf040000341015610e555760405162461bcd60e51b8152602060048201526024808201527f54686973207472616e73616374696f6e20726571756972657320302e3034206560448201527f746865720000000000000000000000000000000000000000000000000000000060648201526084016108c6565b6064600e6000828254610e68919061361b565b9091555050600a546001600160a01b03166108fc346040518115909202916000818181858888f19350505050158015610ea5573d6000803e3d6000fd5b50565b60606018805480602002602001604051908101604052809291908181526020016000905b82821015610afb5783829060005260206000209060020201604051806040016040529081600082018054610eff9061368a565b80601f0160208091040260200160405190810160405280929190818152602001828054610f2b9061368a565b8015610f785780601f10610f4d57610100808354040283529160200191610f78565b820191906000526020600020905b815481529060010190602001808311610f5b57829003601f168201915b50505091835250506001918201546001600160a01b0316602091820152918352929092019101610ecc565b60176020526000908152604090208054600182015460028301805492939192610fcb9061368a565b80601f0160208091040260200160405190810160405280929190818152602001828054610ff79061368a565b80156110445780601f1061101957610100808354040283529160200191611044565b820191906000526020600020905b81548152906001019060200180831161102757829003601f168201915b5050505050905083565b6000818152600260205260408120546001600160a01b0316806107765760405162461bcd60e51b815260206004820152601860248201527f4552433732313a20696e76616c696420746f6b656e204944000000000000000060448201526064016108c6565b60006001600160a01b0382166111315760405162461bcd60e51b815260206004820152602960248201527f4552433732313a2061646472657373207a65726f206973206e6f74206120766160448201527f6c6964206f776e6572000000000000000000000000000000000000000000000060648201526084016108c6565b506001600160a01b031660009081526003602052604090205490565b60606001805461078b9061368a565b600060405180604001604052808381526020016111763390565b6001600160a01b031690526018805460018101825560009190915281518051929350839260029092027fb13d2d76d1f4b7be834882e410b3e3a8afaf69f83600ae24db354391d2378d2e01916111d491839160209190910190612e41565b506020918201516001918201805473ffffffffffffffffffffffffffffffffffffffff19166001600160a01b039092169190911790553360009081526012909252604091829020805460ff1916909117905551611232908290613446565b604051908190038120907f88db4a536f075851673fbcb81050ab51c0a709de0eef6aa0c872a927c0ade24c90600090a25050565b6014602052600090815260409020805461127f9061368a565b80601f01602080910402602001604051908101604052809291908181526020018280546112ab9061368a565b80156112f85780601f106112cd576101008083540402835291602001916112f8565b820191906000526020600020905b8154815290600101906020018083116112db57829003601f168201915b505050505081565b61130b338383612608565b5050565b611317612348565b60006018838154811061132c5761132c613736565b90600052602060002090600202016040518060400160405290816000820180546113559061368a565b80601f01602080910402602001604051908101604052809291908181526020018280546113819061368a565b80156113ce5780601f106113a3576101008083540402835291602001916113ce565b820191906000526020600020905b8154815290600101906020018083116113b157829003601f168201915b5050509183525050600191909101546001600160a01b03166020909101529050811561144057602080820180516001600160a01b039081166000908152601384526040808220805460ff191660011790558551935190921681526014845220815161143e93919290910190612e41565b505b811515816040516114519190613446565b604051908190038120907f5b5cc648c0cdb118eeb9957a32510510d658bb499f3d22585ddf52d84082956c90600090a36018805461149190600190613647565b815481106114a1576114a1613736565b9060005260206000209060020201601884815481106114c2576114c2613736565b906000526020600020906002020160008201816000019080546114e49061368a565b6114ef929190612ec5565b506001918201549101805473ffffffffffffffffffffffffffffffffffffffff19166001600160a01b03909216919091179055601880548061153357611533613720565b600082815260208120600019909201916002830201906115538282612f40565b50600101805473ffffffffffffffffffffffffffffffffffffffff1916905590556020908101516001600160a01b03166000908152601290915260409020805460ff191690555050565b6115df6040518060c001604052806000815260200160006001600160a01b03168152602001606081526020016060815260200160608152602001606081525090565b6040518060c00160405280600c548152602001611604600b546001600160a01b031690565b6001600160a01b031681526020016010805461161f9061368a565b80601f016020809104026020016040519081016040528092919081815260200182805461164b9061368a565b80156116985780601f1061166d57610100808354040283529160200191611698565b820191906000526020600020905b81548152906001019060200180831161167b57829003601f168201915b505050505081526020016116ac6000611c38565b81526020016019805480602002602001604051908101604052809291908181526020016000905b8282101561182957838290600052602060002090600202016040518060400160405290816000820180546117069061368a565b80601f01602080910402602001604051908101604052809291908181526020018280546117329061368a565b801561177f5780601f106117545761010080835404028352916020019161177f565b820191906000526020600020905b81548152906001019060200180831161176257829003601f168201915b505050505081526020016001820180546117989061368a565b80601f01602080910402602001604051908101604052809291908181526020018280546117c49061368a565b80156118115780601f106117e657610100808354040283529160200191611811565b820191906000526020600020905b8154815290600101906020018083116117f457829003601f168201915b505050505081525050815260200190600101906116d3565b50505050815260200160156000808152602001908152602001600020805480602002602001604051908101604052809291908181526020016000905b828210156119bb57838290600052602060002090600202016040518060400160405290816000820180546118989061368a565b80601f01602080910402602001604051908101604052809291908181526020018280546118c49061368a565b80156119115780601f106118e657610100808354040283529160200191611911565b820191906000526020600020905b8154815290600101906020018083116118f457829003601f168201915b5050505050815260200160018201805461192a9061368a565b80601f01602080910402602001604051908101604052809291908181526020018280546119569061368a565b80156119a35780601f10611978576101008083540402835291602001916119a3565b820191906000526020600020905b81548152906001019060200180831161198657829003601f168201915b50505050508152505081526020019060010190611865565b505050915250919050565b6119d033836123a4565b611a425760405162461bcd60e51b815260206004820152602e60248201527f4552433732313a2063616c6c6572206973206e6f7420746f6b656e206f776e6560448201527f72206e6f7220617070726f76656400000000000000000000000000000000000060648201526084016108c6565b611a4e848484846126d7565b50505050565b6064600c5410611acc5760405162461bcd60e51b815260206004820152602160248201527f4d696e74206661696c65643a20546f6b656e732061726520736f6c64206f757460448201527f2e0000000000000000000000000000000000000000000000000000000000000060648201526084016108c6565b33611ad68261104e565b6001600160a01b031614611ae957600080fd5b6000818152601660205260409020600281015460019091015410611b4f5760405162461bcd60e51b815260206004820152601860248201527f4d696e7420616c6c6f77616e63652065786365656465642e000000000000000060448201526064016108c6565b611b5b83600c54612760565b611b67600c54836128bb565b60408051606081018252438152426020808301918252828401868152600c546000908152601783529490942083518155915160018301559251805192939192611bb69260028501920190612e41565b5050600c805491506000611bc9836136c5565b9091555050600b546001600160a01b03166108fc346040518115909202916000818181858888f19350505050158015611c06573d6000803e3d6000fd5b506001601660008381526020019081526020016000206001016000828254611c2e919061361b565b9091555050505050565b6000818152600260205260409020546060906001600160a01b0316611cc55760405162461bcd60e51b815260206004820152602f60248201527f4552433732314d657461646174613a2055524920717565727920666f72206e6f60448201527f6e6578697374656e7420746f6b656e000000000000000000000000000000000060648201526084016108c6565b60008281526011602052604081208054611cde9061368a565b80601f0160208091040260200160405190810160405280929190818152602001828054611d0a9061368a565b8015611d575780601f10611d2c57610100808354040283529160200191611d57565b820191906000526020600020905b815481529060010190602001808311611d3a57829003601f168201915b505050505090506000611d7560408051602081019091526000815290565b9050805160001415611d88575092915050565b815115611dba578082604051602001611da2929190613417565b60405160208183030381529060405292505050919050565b80611dc485612964565b604051602001611da2929190613417565b6010805461127f9061368a565b60606000611def336110b3565b11611df957600080fd5b600082815260156020908152604080832080548251818502810185019093528083529193909284015b82821015611f785783829060005260206000209060020201604051806040016040529081600082018054611e559061368a565b80601f0160208091040260200160405190810160405280929190818152602001828054611e819061368a565b8015611ece5780601f10611ea357610100808354040283529160200191611ece565b820191906000526020600020905b815481529060010190602001808311611eb157829003601f168201915b50505050508152602001600182018054611ee79061368a565b80601f0160208091040260200160405190810160405280929190818152602001828054611f139061368a565b8015611f605780601f10611f3557610100808354040283529160200191611f60565b820191906000526020600020905b815481529060010190602001808311611f4357829003601f168201915b50505050508152505081526020019060010190611e22565b505050509050919050565b611f8b612348565b600e54600f54106120045760405162461bcd60e51b815260206004820152602e60248201527f5468697320636f6e74726163742068617320726561636865642069742773206d60448201527f696e7420616c6c6f77616e63652e00000000000000000000000000000000000060648201526084016108c6565b600081815260166020526040812060020180546005929061202690849061361b565b925050819055506005600f6000828254612040919061361b565b909155505050565b3360009081526013602052604090205460ff166120a75760405162461bcd60e51b815260206004820152601d60248201527f436c69656e7420686173206e6f74206265656e20617070726f7665642e00000060448201526064016108c6565b60408051606081018252600c5480825260016020808401828152600585870190815260009485526016909252949092209251835592519282019290925590516002909101556120f833600c54612760565b612104600c54826128bb565b60408051606081018252438152426020808301918252828401858152600c5460009081526017835294909420835181559151600183015592518051929391926121539260028501920190612e41565b5050600c805491506000612166836136c5565b9091555050600b546001600160a01b03166108fc346040518115909202916000818181858888f193505050501580156121a3573d6000803e3d6000fd5b50336000908152601360209081526040808320805460ff1916905560149091528120610ea591612f40565b60006001600160e01b031982167f80ac58cd00000000000000000000000000000000000000000000000000000000148061223157506001600160e01b031982167f5b5e139f00000000000000000000000000000000000000000000000000000000145b8061077657507f01ffc9a7000000000000000000000000000000000000000000000000000000006001600160e01b0319831614610776565b6000818152600260205260409020546001600160a01b0316610ea55760405162461bcd60e51b815260206004820152601860248201527f4552433732313a20696e76616c696420746f6b656e204944000000000000000060448201526064016108c6565b6000818152600460205260409020805473ffffffffffffffffffffffffffffffffffffffff19166001600160a01b038416908117909155819061230f8261104e565b6001600160a01b03167f8c5be1e5ebec7d5bd14f71427d1e84f3dd0314c0f7b2291e5b200ac8c7c3b92560405160405180910390a45050565b600b546001600160a01b031633146123a25760405162461bcd60e51b815260206004820181905260248201527f4f776e61626c653a2063616c6c6572206973206e6f7420746865206f776e657260448201526064016108c6565b565b6000806123b08361104e565b9050806001600160a01b0316846001600160a01b031614806123f757506001600160a01b0380821660009081526005602090815260408083209388168352929052205460ff165b8061241b5750836001600160a01b03166124108461080e565b6001600160a01b0316145b949350505050565b826001600160a01b03166124368261104e565b6001600160a01b0316146124b25760405162461bcd60e51b815260206004820152602560248201527f4552433732313a207472616e736665722066726f6d20696e636f72726563742060448201527f6f776e657200000000000000000000000000000000000000000000000000000060648201526084016108c6565b6001600160a01b03821661252d5760405162461bcd60e51b8152602060048201526024808201527f4552433732313a207472616e7366657220746f20746865207a65726f2061646460448201527f726573730000000000000000000000000000000000000000000000000000000060648201526084016108c6565b612538838383612a96565b6125436000826122cd565b6001600160a01b038316600090815260036020526040812080546001929061256c908490613647565b90915550506001600160a01b038216600090815260036020526040812080546001929061259a90849061361b565b9091555050600081815260026020526040808220805473ffffffffffffffffffffffffffffffffffffffff19166001600160a01b0386811691821790925591518493918716917fddf252ad1be2c89b69c2b068fc378daa952ba7f163c4a11628f55a4df523b3ef91a4505050565b816001600160a01b0316836001600160a01b0316141561266a5760405162461bcd60e51b815260206004820152601960248201527f4552433732313a20617070726f766520746f2063616c6c65720000000000000060448201526064016108c6565b6001600160a01b03838116600081815260056020908152604080832094871680845294825291829020805460ff191686151590811790915591519182527f17307eab39ab6107e8899845ad3d59bd9653f200f220920489ca2b5937696c31910160405180910390a3505050565b6126e2848484612423565b6126ee84848484612b4e565b611a4e5760405162461bcd60e51b815260206004820152603260248201527f4552433732313a207472616e7366657220746f206e6f6e20455243373231526560448201527f63656976657220696d706c656d656e746572000000000000000000000000000060648201526084016108c6565b6001600160a01b0382166127b65760405162461bcd60e51b815260206004820181905260248201527f4552433732313a206d696e7420746f20746865207a65726f206164647265737360448201526064016108c6565b6000818152600260205260409020546001600160a01b03161561281b5760405162461bcd60e51b815260206004820152601c60248201527f4552433732313a20746f6b656e20616c7265616479206d696e7465640000000060448201526064016108c6565b61282760008383612a96565b6001600160a01b038216600090815260036020526040812080546001929061285090849061361b565b9091555050600081815260026020526040808220805473ffffffffffffffffffffffffffffffffffffffff19166001600160a01b03861690811790915590518392907fddf252ad1be2c89b69c2b068fc378daa952ba7f163c4a11628f55a4df523b3ef908290a45050565b6000828152600260205260409020546001600160a01b03166129455760405162461bcd60e51b815260206004820152602c60248201527f4552433732314d657461646174613a2055524920736574206f66206e6f6e657860448201527f697374656e7420746f6b656e000000000000000000000000000000000000000060648201526084016108c6565b6000828152601160209081526040909120825161096792840190612e41565b6060816129a457505060408051808201909152600181527f3000000000000000000000000000000000000000000000000000000000000000602082015290565b8160005b81156129ce57806129b8816136c5565b91506129c79050600a83613633565b91506129a8565b60008167ffffffffffffffff8111156129e9576129e961374c565b6040519080825280601f01601f191660200182016040528015612a13576020820181803683370190505b5090505b841561241b57612a28600183613647565b9150612a35600a866136e0565b612a4090603061361b565b60f81b818381518110612a5557612a55613736565b60200101907effffffffffffffffffffffffffffffffffffffffffffffffffffffffffffff1916908160001a905350612a8f600a86613633565b9450612a17565b6001600160a01b038316612af157612aec81600880546000838152600960205260408120829055600182018355919091527ff3f7a9fe364faab93b216da50a3214154f22a0a2b415b23a84c8169e8b636ee30155565b612b14565b816001600160a01b0316836001600160a01b031614612b1457612b148382612cb1565b6001600160a01b038216612b2b5761096781612d4e565b826001600160a01b0316826001600160a01b031614610967576109678282612dfd565b60006001600160a01b0384163b15612ca657604051630a85bd0160e11b81526001600160a01b0385169063150b7a0290612b92903390899088908890600401613480565b602060405180830381600087803b158015612bac57600080fd5b505af1925050508015612bdc575060408051601f3d908101601f19168201909252612bd991810190613222565b60015b612c8c573d808015612c0a576040519150601f19603f3d011682016040523d82523d6000602084013e612c0f565b606091505b508051612c845760405162461bcd60e51b815260206004820152603260248201527f4552433732313a207472616e7366657220746f206e6f6e20455243373231526560448201527f63656976657220696d706c656d656e746572000000000000000000000000000060648201526084016108c6565b805181602001fd5b6001600160e01b031916630a85bd0160e11b14905061241b565b506001949350505050565b60006001612cbe846110b3565b612cc89190613647565b600083815260076020526040902054909150808214612d1b576001600160a01b03841660009081526006602090815260408083208584528252808320548484528184208190558352600790915290208190555b5060009182526007602090815260408084208490556001600160a01b039094168352600681528383209183525290812055565b600854600090612d6090600190613647565b60008381526009602052604081205460088054939450909284908110612d8857612d88613736565b906000526020600020015490508060088381548110612da957612da9613736565b6000918252602080832090910192909255828152600990915260408082208490558582528120556008805480612de157612de1613720565b6001900381819060005260206000200160009055905550505050565b6000612e08836110b3565b6001600160a01b039093166000908152600660209081526040808320868452825280832085905593825260079052919091209190915550565b828054612e4d9061368a565b90600052602060002090601f016020900481019282612e6f5760008555612eb5565b82601f10612e8857805160ff1916838001178555612eb5565b82800160010185558215612eb5579182015b82811115612eb5578251825591602001919060010190612e9a565b50612ec1929150612f76565b5090565b828054612ed19061368a565b90600052602060002090601f016020900481019282612ef35760008555612eb5565b82601f10612f045780548555612eb5565b82800160010185558215612eb557600052602060002091601f016020900482015b82811115612eb5578254825591600101919060010190612f25565b508054612f4c9061368a565b6000825580601f10612f5c575050565b601f016020900490600052602060002090810190610ea591905b5b80821115612ec15760008155600101612f77565b600067ffffffffffffffff80841115612fa657612fa661374c565b604051601f8501601f19908116603f01168101908282118183101715612fce57612fce61374c565b81604052809350858152868686011115612fe757600080fd5b858560208301376000602087830101525050509392505050565b80356001600160a01b038116811461301857600080fd5b919050565b8035801515811461301857600080fd5b600082601f83011261303e57600080fd5b61304d83833560208501612f8b565b9392505050565b60006020828403121561306657600080fd5b61304d82613001565b6000806040838503121561308257600080fd5b61308b83613001565b915061309960208401613001565b90509250929050565b6000806000606084860312156130b757600080fd5b6130c084613001565b92506130ce60208501613001565b9150604084013590509250925092565b600080600080608085870312156130f457600080fd5b6130fd85613001565b935061310b60208601613001565b925060408501359150606085013567ffffffffffffffff81111561312e57600080fd5b8501601f8101871361313f57600080fd5b61314e87823560208401612f8b565b91505092959194509250565b6000806040838503121561316d57600080fd5b61317683613001565b91506130996020840161301d565b60008060006060848603121561319957600080fd5b6131a284613001565b9250602084013567ffffffffffffffff8111156131be57600080fd5b6131ca8682870161302d565b925050604084013590509250925092565b600080604083850312156131ee57600080fd5b6131f783613001565b946020939093013593505050565b60006020828403121561321757600080fd5b813561304d81613762565b60006020828403121561323457600080fd5b815161304d81613762565b60006020828403121561325157600080fd5b813567ffffffffffffffff81111561326857600080fd5b61241b8482850161302d565b6000806040838503121561328757600080fd5b823567ffffffffffffffff8082111561329f57600080fd5b6132ab8683870161302d565b935060208501359150808211156132c157600080fd5b506132ce8582860161302d565b9150509250929050565b6000806000606084860312156132ed57600080fd5b833567ffffffffffffffff8082111561330557600080fd5b6133118783880161302d565b9450602086013591508082111561332757600080fd5b506131ca8682870161302d565b60006020828403121561334657600080fd5b5035919050565b6000806040838503121561336057600080fd5b823591506130996020840161301d565b600081518084526020808501808196508360051b8101915082860160005b858110156133de5782840389528151604081518187526133b0828801826133eb565b915050868201519150858103878701526133ca81836133eb565b9a87019a955050509084019060010161338e565b5091979650505050505050565b6000815180845261340381602086016020860161365e565b601f01601f19169290920160200192915050565b6000835161342981846020880161365e565b83519083019061343d81836020880161365e565b01949350505050565b60008251805161345a81856020850161365e565b6020948501516001600160a01b0316601f91909101601f19169390930192835250500190565b60006001600160a01b038087168352808616602084015250836040830152608060608301526134b260808301846133eb565b9695505050505050565b60006020808301818452808551808352604092508286019150828160051b87010184880160005b8381101561352d57888303603f1901855281518051878552613507888601826133eb565b918901516001600160a01b031694890194909452948701949250908601906001016134e3565b509098975050505050505050565b60208152600061304d6020830184613370565b60208152600061304d60208301846133eb565b60208152815160208201526001600160a01b0360208301511660408201526000604083015160c0606084015261359a60e08401826133eb565b90506060840151601f19808584030160808601526135b883836133eb565b925060808601519150808584030160a08601526135d58383613370565b925060a08601519150808584030160c0860152506135f38282613370565b95945050505050565b8381528260208201526060604082015260006135f360608301846133eb565b6000821982111561362e5761362e6136f4565b500190565b6000826136425761364261370a565b500490565b600082821015613659576136596136f4565b500390565b60005b83811015613679578181015183820152602001613661565b83811115611a4e5750506000910152565b600181811c9082168061369e57607f821691505b602082108114156136bf57634e487b7160e01b600052602260045260246000fd5b50919050565b60006000198214156136d9576136d96136f4565b5060010190565b6000826136ef576136ef61370a565b500690565b634e487b7160e01b600052601160045260246000fd5b634e487b7160e01b600052601260045260246000fd5b634e487b7160e01b600052603160045260246000fd5b634e487b7160e01b600052603260045260246000fd5b634e487b7160e01b600052604160045260246000fd5b6001600160e01b031981168114610ea557600080fdfea2646970667358221220e653369b56b54e08ffe2108a3c8a105523e15d5ec0032d2423d6181e3cbc6a2764736f6c63430008070033",
  "linkReferences": {},
  "deployedLinkReferences": {}
}