{
  "_format": "hh-sol-artifact-1",
  "contractName": "Tambora",
  "sourceName": "contracts/Tambora.sol",
  "abi": [
    {
      "inputs": [
        {
          "internalType": "address",
          "name": "deployer",
          "type": "address"
        },
        {
          "internalType": "string",
          "name": "name",
          "type": "string"
        },
        {
          "internalType": "string",
          "name": "symbol",
          "type": "string"
        },
        {
          "internalType": "uint256",
          "name": "price_",
          "type": "uint256"
        },
        {
          "internalType": "string",
          "name": "contractType_",
          "type": "string"
        },
        {
          "internalType": "address",
          "name": "to_",
          "type": "address"
        },
        {
          "internalType": "string",
          "name": "uri_",
          "type": "string"
        },
        {
          "internalType": "address",
          "name": "factoryOwner_",
          "type": "address"
        }
      ],
      "stateMutability": "nonpayable",
      "type": "constructor"
    },
    {
      "anonymous": false,
      "inputs": [
        {
          "indexed": true,
          "internalType": "address",
          "name": "owner",
          "type": "address"
        },
        {
          "indexed": true,
          "internalType": "address",
          "name": "approved",
          "type": "address"
        },
        {
          "indexed": true,
          "internalType": "uint256",
          "name": "tokenId",
          "type": "uint256"
        }
      ],
      "name": "Approval",
      "type": "event"
    },
    {
      "anonymous": false,
      "inputs": [
        {
          "indexed": true,
          "internalType": "address",
          "name": "owner",
          "type": "address"
        },
        {
          "indexed": true,
          "internalType": "address",
          "name": "operator",
          "type": "address"
        },
        {
          "indexed": false,
          "internalType": "bool",
          "name": "approved",
          "type": "bool"
        }
      ],
      "name": "ApprovalForAll",
      "type": "event"
    },
    {
      "anonymous": false,
      "inputs": [
        {
          "components": [
            {
              "internalType": "string",
              "name": "name",
              "type": "string"
            },
            {
              "internalType": "address",
              "name": "addr",
              "type": "address"
            }
          ],
          "indexed": true,
          "internalType": "struct Tambora.Client",
          "name": "clientData",
          "type": "tuple"
        }
      ],
      "name": "Request",
      "type": "event"
    },
    {
      "anonymous": false,
      "inputs": [
        {
          "components": [
            {
              "internalType": "string",
              "name": "name",
              "type": "string"
            },
            {
              "internalType": "address",
              "name": "addr",
              "type": "address"
            }
          ],
          "indexed": true,
          "internalType": "struct Tambora.Client",
          "name": "clientData",
          "type": "tuple"
        },
        {
          "indexed": true,
          "internalType": "bool",
          "name": "res",
          "type": "bool"
        }
      ],
      "name": "Response",
      "type": "event"
    },
    {
      "anonymous": false,
      "inputs": [
        {
          "indexed": true,
          "internalType": "address",
          "name": "from",
          "type": "address"
        },
        {
          "indexed": true,
          "internalType": "address",
          "name": "to",
          "type": "address"
        },
        {
          "indexed": true,
          "internalType": "uint256",
          "name": "tokenId",
          "type": "uint256"
        }
      ],
      "name": "Transfer",
      "type": "event"
    },
    {
      "inputs": [
        {
          "internalType": "string",
          "name": "name_",
          "type": "string"
        },
        {
          "internalType": "string",
          "name": "uri_",
          "type": "string"
        }
      ],
      "name": "addFileLocation",
      "outputs": [],
      "stateMutability": "nonpayable",
      "type": "function"
    },
    {
      "inputs": [
        {
          "internalType": "string",
          "name": "uri_",
          "type": "string"
        },
        {
          "internalType": "string",
          "name": "name_",
          "type": "string"
        },
        {
          "internalType": "uint256",
          "name": "mintId_",
          "type": "uint256"
        }
      ],
      "name": "addIndividualFile",
      "outputs": [],
      "stateMutability": "nonpayable",
      "type": "function"
    },
    {
      "inputs": [
        {
          "internalType": "address",
          "name": "requester_",
          "type": "address"
        },
        {
          "internalType": "uint256",
          "name": "mintId_",
          "type": "uint256"
        },
        {
          "internalType": "string",
          "name": "uri_",
          "type": "string"
        },
        {
          "internalType": "string",
          "name": "name_",
          "type": "string"
        }
      ],
      "name": "addRequestedFiles",
      "outputs": [],
      "stateMutability": "nonpayable",
      "type": "function"
    },
    {
      "inputs": [
        {
          "internalType": "address",
          "name": "to",
          "type": "address"
        },
        {
          "internalType": "uint256",
          "name": "tokenId",
          "type": "uint256"
        }
      ],
      "name": "approve",
      "outputs": [],
      "stateMutability": "nonpayable",
      "type": "function"
    },
    {
      "inputs": [
        {
          "internalType": "uint256",
          "name": "index",
          "type": "uint256"
        },
        {
          "internalType": "bool",
          "name": "decision",
          "type": "bool"
        }
      ],
      "name": "approveOrDenyClient",
      "outputs": [],
      "stateMutability": "nonpayable",
      "type": "function"
    },
    {
      "inputs": [
        {
          "internalType": "address",
          "name": "",
          "type": "address"
        }
      ],
      "name": "approvedName",
      "outputs": [
        {
          "internalType": "string",
          "name": "",
          "type": "string"
        }
      ],
      "stateMutability": "view",
      "type": "function"
    },
    {
      "inputs": [
        {
          "internalType": "address",
          "name": "owner",
          "type": "address"
        }
      ],
      "name": "balanceOf",
      "outputs": [
        {
          "internalType": "uint256",
          "name": "",
          "type": "uint256"
        }
      ],
      "stateMutability": "view",
      "type": "function"
    },
    {
      "inputs": [],
      "name": "contractType",
      "outputs": [
        {
          "internalType": "string",
          "name": "",
          "type": "string"
        }
      ],
      "stateMutability": "view",
      "type": "function"
    },
    {
      "inputs": [
        {
          "internalType": "string",
          "name": "uri",
          "type": "string"
        }
      ],
      "name": "finalizeClient",
      "outputs": [],
      "stateMutability": "payable",
      "type": "function"
    },
    {
      "inputs": [
        {
          "internalType": "uint256",
          "name": "tokenId",
          "type": "uint256"
        }
      ],
      "name": "getApproved",
      "outputs": [
        {
          "internalType": "address",
          "name": "",
          "type": "address"
        }
      ],
      "stateMutability": "view",
      "type": "function"
    },
    {
      "inputs": [],
      "name": "getFileStore",
      "outputs": [
        {
          "components": [
            {
              "internalType": "string",
              "name": "name",
              "type": "string"
            },
            {
              "internalType": "string",
              "name": "uri",
              "type": "string"
            }
          ],
          "internalType": "struct Tambora.File[]",
          "name": "",
          "type": "tuple[]"
        }
      ],
      "stateMutability": "view",
      "type": "function"
    },
    {
      "inputs": [
        {
          "internalType": "uint256",
          "name": "id_",
          "type": "uint256"
        }
      ],
      "name": "getIndividualFiles",
      "outputs": [
        {
          "components": [
            {
              "internalType": "string",
              "name": "name",
              "type": "string"
            },
            {
              "internalType": "string",
              "name": "uri",
              "type": "string"
            }
          ],
          "internalType": "struct Tambora.File[]",
          "name": "",
          "type": "tuple[]"
        }
      ],
      "stateMutability": "view",
      "type": "function"
    },
    {
      "inputs": [],
      "name": "getPendingClients",
      "outputs": [
        {
          "components": [
            {
              "internalType": "string",
              "name": "name",
              "type": "string"
            },
            {
              "internalType": "address",
              "name": "addr",
              "type": "address"
            }
          ],
          "internalType": "struct Tambora.Client[]",
          "name": "",
          "type": "tuple[]"
        }
      ],
      "stateMutability": "view",
      "type": "function"
    },
    {
      "inputs": [],
      "name": "getRequestedFiles",
      "outputs": [
        {
          "components": [
            {
              "internalType": "string",
              "name": "name",
              "type": "string"
            },
            {
              "internalType": "string",
              "name": "uri",
              "type": "string"
            }
          ],
          "internalType": "struct Tambora.File[]",
          "name": "",
          "type": "tuple[]"
        }
      ],
      "stateMutability": "view",
      "type": "function"
    },
    {
      "inputs": [],
      "name": "getShowData",
      "outputs": [
        {
          "components": [
            {
              "internalType": "uint256",
              "name": "tokenId",
              "type": "uint256"
            },
            {
              "internalType": "address",
              "name": "manager",
              "type": "address"
            },
            {
              "internalType": "string",
              "name": "contractType",
              "type": "string"
            },
            {
              "internalType": "string",
              "name": "tokenURI",
              "type": "string"
            },
            {
              "components": [
                {
                  "internalType": "string",
                  "name": "name",
                  "type": "string"
                },
                {
                  "internalType": "string",
                  "name": "uri",
                  "type": "string"
                }
              ],
              "internalType": "struct Tambora.File[]",
              "name": "fileStore",
              "type": "tuple[]"
            },
            {
              "components": [
                {
                  "internalType": "string",
                  "name": "name",
                  "type": "string"
                },
                {
                  "internalType": "string",
                  "name": "uri",
                  "type": "string"
                }
              ],
              "internalType": "struct Tambora.File[]",
              "name": "individualFilestore",
              "type": "tuple[]"
            }
          ],
          "internalType": "struct Tambora.ShowData",
          "name": "",
          "type": "tuple"
        }
      ],
      "stateMutability": "view",
      "type": "function"
    },
    {
      "inputs": [
        {
          "internalType": "uint256",
          "name": "id_",
          "type": "uint256"
        }
      ],
      "name": "getTokenData",
      "outputs": [
        {
          "components": [
            {
              "internalType": "uint256",
              "name": "blockNumber",
              "type": "uint256"
            },
            {
              "internalType": "uint256",
              "name": "timeStamp",
              "type": "uint256"
            },
            {
              "internalType": "string",
              "name": "uri",
              "type": "string"
            }
          ],
          "internalType": "struct Tambora.Token",
          "name": "",
          "type": "tuple"
        }
      ],
      "stateMutability": "view",
      "type": "function"
    },
    {
      "inputs": [
        {
          "internalType": "uint256",
          "name": "mintId_",
          "type": "uint256"
        }
      ],
      "name": "increaseClientMintAllowance",
      "outputs": [],
      "stateMutability": "payable",
      "type": "function"
    },
    {
      "inputs": [],
      "name": "increaseContractMintAllowance",
      "outputs": [],
      "stateMutability": "payable",
      "type": "function"
    },
    {
      "inputs": [
        {
          "internalType": "address",
          "name": "",
          "type": "address"
        }
      ],
      "name": "isApproved",
      "outputs": [
        {
          "internalType": "bool",
          "name": "",
          "type": "bool"
        }
      ],
      "stateMutability": "view",
      "type": "function"
    },
    {
      "inputs": [
        {
          "internalType": "address",
          "name": "owner",
          "type": "address"
        },
        {
          "internalType": "address",
          "name": "operator",
          "type": "address"
        }
      ],
      "name": "isApprovedForAll",
      "outputs": [
        {
          "internalType": "bool",
          "name": "",
          "type": "bool"
        }
      ],
      "stateMutability": "view",
      "type": "function"
    },
    {
      "inputs": [
        {
          "internalType": "address",
          "name": "",
          "type": "address"
        }
      ],
      "name": "isPending",
      "outputs": [
        {
          "internalType": "bool",
          "name": "",
          "type": "bool"
        }
      ],
      "stateMutability": "view",
      "type": "function"
    },
    {
      "inputs": [
        {
          "internalType": "uint256",
          "name": "",
          "type": "uint256"
        }
      ],
      "name": "memberTokens",
      "outputs": [
        {
          "internalType": "uint256",
          "name": "mintId",
          "type": "uint256"
        },
        {
          "internalType": "uint256",
          "name": "minted",
          "type": "uint256"
        },
        {
          "internalType": "uint256",
          "name": "mintAllowance",
          "type": "uint256"
        }
      ],
      "stateMutability": "view",
      "type": "function"
    },
    {
      "inputs": [
        {
          "internalType": "address",
          "name": "to_",
          "type": "address"
        },
        {
          "internalType": "string",
          "name": "uri",
          "type": "string"
        },
        {
          "internalType": "uint256",
          "name": "mintId_",
          "type": "uint256"
        }
      ],
      "name": "mint",
      "outputs": [],
      "stateMutability": "payable",
      "type": "function"
    },
    {
      "inputs": [],
      "name": "name",
      "outputs": [
        {
          "internalType": "string",
          "name": "",
          "type": "string"
        }
      ],
      "stateMutability": "view",
      "type": "function"
    },
    {
      "inputs": [],
      "name": "owner",
      "outputs": [
        {
          "internalType": "address",
          "name": "",
          "type": "address"
        }
      ],
      "stateMutability": "view",
      "type": "function"
    },
    {
      "inputs": [
        {
          "internalType": "uint256",
          "name": "tokenId",
          "type": "uint256"
        }
      ],
      "name": "ownerOf",
      "outputs": [
        {
          "internalType": "address",
          "name": "",
          "type": "address"
        }
      ],
      "stateMutability": "view",
      "type": "function"
    },
    {
      "inputs": [],
      "name": "price",
      "outputs": [
        {
          "internalType": "uint256",
          "name": "",
          "type": "uint256"
        }
      ],
      "stateMutability": "view",
      "type": "function"
    },
    {
      "inputs": [
        {
          "internalType": "string",
          "name": "name",
          "type": "string"
        }
      ],
      "name": "requestApproval",
      "outputs": [],
      "stateMutability": "nonpayable",
      "type": "function"
    },
    {
      "inputs": [
        {
          "internalType": "address",
          "name": "from",
          "type": "address"
        },
        {
          "internalType": "address",
          "name": "to",
          "type": "address"
        },
        {
          "internalType": "uint256",
          "name": "tokenId",
          "type": "uint256"
        }
      ],
      "name": "safeTransferFrom",
      "outputs": [],
      "stateMutability": "nonpayable",
      "type": "function"
    },
    {
      "inputs": [
        {
          "internalType": "address",
          "name": "from",
          "type": "address"
        },
        {
          "internalType": "address",
          "name": "to",
          "type": "address"
        },
        {
          "internalType": "uint256",
          "name": "tokenId",
          "type": "uint256"
        },
        {
          "internalType": "bytes",
          "name": "data",
          "type": "bytes"
        }
      ],
      "name": "safeTransferFrom",
      "outputs": [],
      "stateMutability": "nonpayable",
      "type": "function"
    },
    {
      "inputs": [
        {
          "internalType": "address",
          "name": "operator",
          "type": "address"
        },
        {
          "internalType": "bool",
          "name": "approved",
          "type": "bool"
        }
      ],
      "name": "setApprovalForAll",
      "outputs": [],
      "stateMutability": "nonpayable",
      "type": "function"
    },
    {
      "inputs": [
        {
          "internalType": "bytes4",
          "name": "interfaceId",
          "type": "bytes4"
        }
      ],
      "name": "supportsInterface",
      "outputs": [
        {
          "internalType": "bool",
          "name": "",
          "type": "bool"
        }
      ],
      "stateMutability": "view",
      "type": "function"
    },
    {
      "inputs": [],
      "name": "symbol",
      "outputs": [
        {
          "internalType": "string",
          "name": "",
          "type": "string"
        }
      ],
      "stateMutability": "view",
      "type": "function"
    },
    {
      "inputs": [
        {
          "internalType": "uint256",
          "name": "index",
          "type": "uint256"
        }
      ],
      "name": "tokenByIndex",
      "outputs": [
        {
          "internalType": "uint256",
          "name": "",
          "type": "uint256"
        }
      ],
      "stateMutability": "view",
      "type": "function"
    },
    {
      "inputs": [
        {
          "internalType": "address",
          "name": "owner",
          "type": "address"
        },
        {
          "internalType": "uint256",
          "name": "index",
          "type": "uint256"
        }
      ],
      "name": "tokenOfOwnerByIndex",
      "outputs": [
        {
          "internalType": "uint256",
          "name": "",
          "type": "uint256"
        }
      ],
      "stateMutability": "view",
      "type": "function"
    },
    {
      "inputs": [
        {
          "internalType": "uint256",
          "name": "tokenId_",
          "type": "uint256"
        }
      ],
      "name": "tokenURI",
      "outputs": [
        {
          "internalType": "string",
          "name": "",
          "type": "string"
        }
      ],
      "stateMutability": "view",
      "type": "function"
    },
    {
      "inputs": [],
      "name": "totalSupply",
      "outputs": [
        {
          "internalType": "uint256",
          "name": "",
          "type": "uint256"
        }
      ],
      "stateMutability": "view",
      "type": "function"
    },
    {
      "inputs": [
        {
          "internalType": "address",
          "name": "from",
          "type": "address"
        },
        {
          "internalType": "address",
          "name": "to",
          "type": "address"
        },
        {
          "internalType": "uint256",
          "name": "tokenId",
          "type": "uint256"
        }
      ],
      "name": "transferFrom",
      "outputs": [],
      "stateMutability": "nonpayable",
      "type": "function"
    }
  ],
  "bytecode": "0x60806040523480156200001157600080fd5b5060405162004700380380620047008339810160408190526200003491620008b1565b8651879087906200004d90600090602085019062000737565b5080516200006390600190602084019062000737565b5050600b80546001600160a01b03808c166001600160a01b031992831617909255600a80549285169290911691909117905550600d8590558351620000b090601090602087019062000737565b50600a600f81905560408051606081018252600080825260016020808401918252938301948552818052601690935290517f0263c2b778d062355049effc2dece97bc6547ff8a88a3258daa512061c2153dd5590517f0263c2b778d062355049effc2dece97bc6547ff8a88a3258daa512061c2153de5590517f0263c2b778d062355049effc2dece97bc6547ff8a88a3258daa512061c2153df556200015890849062000220565b620001656000836200037a565b6001600c5560408051606081018252438152426020808301918252928201858152600080526017845282517fd840e16649f6b9a295d95876f4633d3a6b10b55e8162971cf78afd886d5ec89b90815591517fd840e16649f6b9a295d95876f4633d3a6b10b55e8162971cf78afd886d5ec89c55518051929391926200020e927fd840e16649f6b9a295d95876f4633d3a6b10b55e8162971cf78afd886d5ec89d92019062000737565b50905050505050505050505062000a77565b6001600160a01b0382166200027c5760405162461bcd60e51b815260206004820181905260248201527f4552433732313a206d696e7420746f20746865207a65726f206164647265737360448201526064015b60405180910390fd5b6000818152600260205260409020546001600160a01b031615620002e35760405162461bcd60e51b815260206004820152601c60248201527f4552433732313a20746f6b656e20616c7265616479206d696e74656400000000604482015260640162000273565b620002f1600083836200041b565b6001600160a01b03821660009081526003602052604081208054600192906200031c908490620009ad565b909155505060008181526002602052604080822080546001600160a01b0319166001600160a01b03861690811790915590518392907fddf252ad1be2c89b69c2b068fc378daa952ba7f163c4a11628f55a4df523b3ef908290a45050565b6000828152600260205260409020546001600160a01b0316620003f55760405162461bcd60e51b815260206004820152602c60248201527f4552433732314d657461646174613a2055524920736574206f66206e6f6e657860448201526b34b9ba32b73a103a37b5b2b760a11b606482015260840162000273565b60008281526011602090815260409091208251620004169284019062000737565b505050565b620004338383836200041660201b620009d01760201c565b6001600160a01b03831662000491576200048b81600880546000838152600960205260408120829055600182018355919091527ff3f7a9fe364faab93b216da50a3214154f22a0a2b415b23a84c8169e8b636ee30155565b620004b7565b816001600160a01b0316836001600160a01b031614620004b757620004b78382620004f7565b6001600160a01b038216620004d1576200041681620005a4565b826001600160a01b0316826001600160a01b03161462000416576200041682826200065e565b600060016200051184620006af60201b6200114a1760201c565b6200051d9190620009c8565b60008381526007602052604090205490915080821462000571576001600160a01b03841660009081526006602090815260408083208584528252808320548484528184208190558352600790915290208190555b5060009182526007602090815260408084208490556001600160a01b039094168352600681528383209183525290812055565b600854600090620005b890600190620009c8565b60008381526009602052604081205460088054939450909284908110620005e357620005e362000a4b565b90600052602060002001549050806008838154811062000607576200060762000a4b565b600091825260208083209091019290925582815260099091526040808220849055858252812055600880548062000642576200064262000a35565b6001900381819060005260206000200160009055905550505050565b60006200067683620006af60201b6200114a1760201c565b6001600160a01b039093166000908152600660209081526040808320868452825280832085905593825260079052919091209190915550565b60006001600160a01b0382166200071b5760405162461bcd60e51b815260206004820152602960248201527f4552433732313a2061646472657373207a65726f206973206e6f7420612076616044820152683634b21037bbb732b960b91b606482015260840162000273565b506001600160a01b031660009081526003602052604090205490565b8280546200074590620009e2565b90600052602060002090601f016020900481019282620007695760008555620007b4565b82601f106200078457805160ff1916838001178555620007b4565b82800160010185558215620007b4579182015b82811115620007b457825182559160200191906001019062000797565b50620007c2929150620007c6565b5090565b5b80821115620007c25760008155600101620007c7565b80516001600160a01b0381168114620007f557600080fd5b919050565b600082601f8301126200080c57600080fd5b81516001600160401b038082111562000829576200082962000a61565b604051601f8301601f19908116603f0116810190828211818310171562000854576200085462000a61565b816040528381526020925086838588010111156200087157600080fd5b600091505b8382101562000895578582018301518183018401529082019062000876565b83821115620008a75760008385830101525b9695505050505050565b600080600080600080600080610100898b031215620008cf57600080fd5b620008da89620007dd565b60208a01519098506001600160401b0380821115620008f857600080fd5b620009068c838d01620007fa565b985060408b01519150808211156200091d57600080fd5b6200092b8c838d01620007fa565b975060608b0151965060808b01519150808211156200094957600080fd5b620009578c838d01620007fa565b95506200096760a08c01620007dd565b945060c08b01519150808211156200097e57600080fd5b506200098d8b828c01620007fa565b9250506200099e60e08a01620007dd565b90509295985092959890939650565b60008219821115620009c357620009c362000a1f565b500190565b600082821015620009dd57620009dd62000a1f565b500390565b600181811c90821680620009f757607f821691505b6020821081141562000a1957634e487b7160e01b600052602260045260246000fd5b50919050565b634e487b7160e01b600052601160045260246000fd5b634e487b7160e01b600052603160045260246000fd5b634e487b7160e01b600052603260045260246000fd5b634e487b7160e01b600052604160045260246000fd5b613c798062000a876000396000f3fe6080604052600436106102855760003560e01c806393d34de911610153578063af80a5be116100cb578063cb2ef6f71161007f578063eb4297f611610064578063eb4297f61461075b578063eb58f0ec1461077b578063f9dc375f1461078e57600080fd5b8063cb2ef6f7146106fd578063e985e9c51461071257600080fd5b8063b88d4fde116100b0578063b88d4fde146106aa578063ba7aef43146106ca578063c87b56dd146106dd57600080fd5b8063af80a5be1461065b578063b09afec11461067d57600080fd5b8063a00745b611610122578063a22cb46511610107578063a22cb465146105c4578063a28039cd146105e4578063aeb20b941461060457600080fd5b8063a00745b61461057e578063a035b1fe146105ae57600080fd5b806393d34de91461051457806395d89b4114610529578063967615951461053e57806397a333421461055e57600080fd5b80632f745c59116102015780635bf61cfe116101b5578063673448dd1161019a578063673448dd146104a657806370a08231146104d65780638da5cb5b146104f657600080fd5b80635bf61cfe146104645780636352211e1461048657600080fd5b806342842e0e116101e657806342842e0e1461041c5780634f6ccce71461043c5780635a9be11b1461045c57600080fd5b80632f745c59146103dc5780634261917a146103fc57600080fd5b80630e37b4fd116102585780631fceaae01161023d5780631fceaae01461037c57806323b872dd1461039c5780632b8fd8bd146103bc57600080fd5b80630e37b4fd1461033b57806318160ddd1461035d57600080fd5b806301ffc9a71461028a57806306fdde03146102bf578063081812fc146102e1578063095ea7b314610319575b600080fd5b34801561029657600080fd5b506102aa6102a53660046136bd565b6107a1565b60405190151581526020015b60405180910390f35b3480156102cb57600080fd5b506102d46107e5565b6040516102b69190613a09565b3480156102ed57600080fd5b506103016102fc3660046137ec565b610877565b6040516001600160a01b0390911681526020016102b6565b34801561032557600080fd5b50610339610334366004613621565b61089e565b005b34801561034757600080fd5b506103506109d5565b6040516102b691906139f6565b34801561036957600080fd5b506008545b6040519081526020016102b6565b34801561038857600080fd5b50610339610397366004613790565b610b6d565b3480156103a857600080fd5b506103396103b73660046134e8565b610be3565b3480156103c857600080fd5b506103396103d736600461364b565b610c6a565b3480156103e857600080fd5b5061036e6103f7366004613621565b610d43565b34801561040857600080fd5b5061033961041736600461372c565b610deb565b34801561042857600080fd5b506103396104373660046134e8565b610e54565b34801561044857600080fd5b5061036e6104573660046137ec565b610e6f565b610339610f13565b34801561047057600080fd5b50610479610fea565b6040516102b69190613977565b34801561049257600080fd5b506103016104a13660046137ec565b6110e5565b3480156104b257600080fd5b506102aa6104c136600461349a565b60136020526000908152604090205460ff1681565b3480156104e257600080fd5b5061036e6104f136600461349a565b61114a565b34801561050257600080fd5b50600b546001600160a01b0316610301565b34801561052057600080fd5b506103506111e4565b34801561053557600080fd5b506102d46113e9565b34801561054a57600080fd5b506103396105593660046136f7565b6113f8565b34801561056a57600080fd5b506102d461057936600461349a565b611502565b34801561058a57600080fd5b506102aa61059936600461349a565b60126020526000908152604090205460ff1681565b3480156105ba57600080fd5b5061036e600d5481565b3480156105d057600080fd5b506103396105df3660046135a0565b61159c565b3480156105f057600080fd5b506103396105ff366004613805565b6115ab565b34801561061057600080fd5b5061064061061f3660046137ec565b60166020526000908152604090208054600182015460029092015490919083565b604080519384526020840192909252908201526060016102b6565b34801561066757600080fd5b50610670611839565b6040516102b69190613a1c565b34801561068957600080fd5b5061069d6106983660046137ec565b611c62565b6040516102b69190613ab7565b3480156106b657600080fd5b506103396106c5366004613524565b611d51565b6103396106d83660046135ca565b611ddf565b3480156106e957600080fd5b506102d46106f83660046137ec565b61203b565b34801561070957600080fd5b506102d46121d8565b34801561071e57600080fd5b506102aa61072d3660046134b5565b6001600160a01b03918216600090815260056020908152604080832093909416825291909152205460ff1690565b34801561076757600080fd5b506103506107763660046137ec565b6121e5565b6103396107893660046137ec565b6123c9565b61033961079c3660046136f7565b61248e565b60006001600160e01b031982167f780e9d630000000000000000000000000000000000000000000000000000000014806107df57506107df82612614565b92915050565b6060600080546107f490613b55565b80601f016020809104026020016040519081016040528092919081815260200182805461082090613b55565b801561086d5780601f106108425761010080835404028352916020019161086d565b820191906000526020600020905b81548152906001019060200180831161085057829003601f168201915b5050505050905090565b6000610882826126af565b506000908152600460205260409020546001600160a01b031690565b60006108a9826110e5565b9050806001600160a01b0316836001600160a01b031614156109385760405162461bcd60e51b815260206004820152602160248201527f4552433732313a20617070726f76616c20746f2063757272656e74206f776e6560448201527f720000000000000000000000000000000000000000000000000000000000000060648201526084015b60405180910390fd5b336001600160a01b03821614806109545750610954813361072d565b6109c65760405162461bcd60e51b815260206004820152603e60248201527f4552433732313a20617070726f76652063616c6c6572206973206e6f7420746f60448201527f6b656e206f776e6572206e6f7220617070726f76656420666f7220616c6c0000606482015260840161092f565b6109d08383612713565b505050565b606060006109e23361114a565b116109ec57600080fd5b601a805480602002602001604051908101604052809291908181526020016000905b82821015610b645783829060005260206000209060020201604051806040016040529081600082018054610a4190613b55565b80601f0160208091040260200160405190810160405280929190818152602001828054610a6d90613b55565b8015610aba5780601f10610a8f57610100808354040283529160200191610aba565b820191906000526020600020905b815481529060010190602001808311610a9d57829003601f168201915b50505050508152602001600182018054610ad390613b55565b80601f0160208091040260200160405190810160405280929190818152602001828054610aff90613b55565b8015610b4c5780601f10610b2157610100808354040283529160200191610b4c565b820191906000526020600020905b815481529060010190602001808311610b2f57829003601f168201915b50505050508152505081526020019060010190610a0e565b50505050905090565b610b7561278e565b6000818152601560209081526040808320815180830190925285825281830187905280546001810182559084529282902081518051929460020290910192610bc292849290910190613287565b506020828101518051610bdb9260018501920190613287565b505050505050565b610bed33826127ea565b610c5f5760405162461bcd60e51b815260206004820152602e60248201527f4552433732313a2063616c6c6572206973206e6f7420746f6b656e206f776e6560448201527f72206e6f7220617070726f766564000000000000000000000000000000000000606482015260840161092f565b6109d0838383612869565b33610c74846110e5565b6001600160a01b031614610cca5760405162461bcd60e51b815260206004820152601e60248201527f596f75206d757374206265206120636f6e7472616374206d656d6265722e0000604482015260640161092f565b6001600160a01b0384166000908152601860209081526040808320815180830190925284825281830186905280546001810182559084529282902081518051929460020290910192610d2192849290910190613287565b506020828101518051610d3a9260018501920190613287565b50505050505050565b6000610d4e8361114a565b8210610dc25760405162461bcd60e51b815260206004820152602b60248201527f455243373231456e756d657261626c653a206f776e657220696e646578206f7560448201527f74206f6620626f756e6473000000000000000000000000000000000000000000606482015260840161092f565b506001600160a01b03919091166000908152600660209081526040808320938352929052205490565b610df361278e565b604080518082019091528281526020808201839052601a805460018101825560009190915282518051849360029093027f057c384a7d1c54f3a1b2e5e67b2617b8224fdfd1ea7234eea573a6ff665ff63e0192610bc2928492910190613287565b6109d083838360405180602001604052806000815250611d51565b6000610e7a60085490565b8210610eee5760405162461bcd60e51b815260206004820152602c60248201527f455243373231456e756d657261626c653a20676c6f62616c20696e646578206f60448201527f7574206f6620626f756e64730000000000000000000000000000000000000000606482015260840161092f565b60088281548110610f0157610f01613c01565b90600052602060002001549050919050565b610f1b61278e565b668e1bc9bf040000341015610f975760405162461bcd60e51b8152602060048201526024808201527f54686973207472616e73616374696f6e20726571756972657320302e3034206560448201527f7468657200000000000000000000000000000000000000000000000000000000606482015260840161092f565b6064600e6000828254610faa9190613ae6565b9091555050600a546001600160a01b03166108fc346040518115909202916000818181858888f19350505050158015610fe7573d6000803e3d6000fd5b50565b60606019805480602002602001604051908101604052809291908181526020016000905b82821015610b64578382906000526020600020906002020160405180604001604052908160008201805461104190613b55565b80601f016020809104026020016040519081016040528092919081815260200182805461106d90613b55565b80156110ba5780601f1061108f576101008083540402835291602001916110ba565b820191906000526020600020905b81548152906001019060200180831161109d57829003601f168201915b50505091835250506001918201546001600160a01b031660209182015291835292909201910161100e565b6000818152600260205260408120546001600160a01b0316806107df5760405162461bcd60e51b815260206004820152601860248201527f4552433732313a20696e76616c696420746f6b656e2049440000000000000000604482015260640161092f565b60006001600160a01b0382166111c85760405162461bcd60e51b815260206004820152602960248201527f4552433732313a2061646472657373207a65726f206973206e6f74206120766160448201527f6c6964206f776e65720000000000000000000000000000000000000000000000606482015260840161092f565b506001600160a01b031660009081526003602052604090205490565b336000908152601860205260409020546060906112695760405162461bcd60e51b815260206004820152603460248201527f596f752068617665206e6f74206265656e20617070726f76656420666f72207460448201527f68652072657175657374656420616374696f6e2e000000000000000000000000606482015260840161092f565b33600090815260186020908152604080832080548251818502810185019093528083529193909284015b82821015610b6457838290600052602060002090600202016040518060400160405290816000820180546112c690613b55565b80601f01602080910402602001604051908101604052809291908181526020018280546112f290613b55565b801561133f5780601f106113145761010080835404028352916020019161133f565b820191906000526020600020905b81548152906001019060200180831161132257829003601f168201915b5050505050815260200160018201805461135890613b55565b80601f016020809104026020016040519081016040528092919081815260200182805461138490613b55565b80156113d15780601f106113a6576101008083540402835291602001916113d1565b820191906000526020600020905b8154815290600101906020018083116113b457829003601f168201915b50505050508152505081526020019060010190611293565b6060600180546107f490613b55565b600060405180604001604052808381526020016114123390565b6001600160a01b031690526019805460018101825560009190915281518051929350839260029092027f944998273e477b495144fb8794c914197f3ccb46be2900f4698fd0ef743c9695019161147091839160209190910190613287565b506020918201516001918201805473ffffffffffffffffffffffffffffffffffffffff19166001600160a01b039092169190911790553360009081526012909252604091829020805460ff19169091179055516114ce908290613901565b604051908190038120907f88db4a536f075851673fbcb81050ab51c0a709de0eef6aa0c872a927c0ade24c90600090a25050565b6014602052600090815260409020805461151b90613b55565b80601f016020809104026020016040519081016040528092919081815260200182805461154790613b55565b80156115945780601f1061156957610100808354040283529160200191611594565b820191906000526020600020905b81548152906001019060200180831161157757829003601f168201915b505050505081565b6115a7338383612a4e565b5050565b6115b361278e565b6000601983815481106115c8576115c8613c01565b90600052602060002090600202016040518060400160405290816000820180546115f190613b55565b80601f016020809104026020016040519081016040528092919081815260200182805461161d90613b55565b801561166a5780601f1061163f5761010080835404028352916020019161166a565b820191906000526020600020905b81548152906001019060200180831161164d57829003601f168201915b5050509183525050600191909101546001600160a01b0316602090910152905081156116dc57602080820180516001600160a01b039081166000908152601384526040808220805460ff19166001179055855193519092168152601484522081516116da93919290910190613287565b505b811515816040516116ed9190613901565b604051908190038120907f5b5cc648c0cdb118eeb9957a32510510d658bb499f3d22585ddf52d84082956c90600090a36019805461172d90600190613b12565b8154811061173d5761173d613c01565b90600052602060002090600202016019848154811061175e5761175e613c01565b9060005260206000209060020201600082018160000190805461178090613b55565b61178b92919061330b565b506001918201549101805473ffffffffffffffffffffffffffffffffffffffff19166001600160a01b0390921691909117905560198054806117cf576117cf613beb565b600082815260208120600019909201916002830201906117ef8282613386565b50600101805473ffffffffffffffffffffffffffffffffffffffff1916905590556020908101516001600160a01b03166000908152601290915260409020805460ff191690555050565b61187b6040518060c001604052806000815260200160006001600160a01b03168152602001606081526020016060815260200160608152602001606081525090565b6040518060c00160405280600c5481526020016118a0600b546001600160a01b031690565b6001600160a01b03168152602001601080546118bb90613b55565b80601f01602080910402602001604051908101604052809291908181526020018280546118e790613b55565b80156119345780601f1061190957610100808354040283529160200191611934565b820191906000526020600020905b81548152906001019060200180831161191757829003601f168201915b50505050508152602001611948600061203b565b8152602001601a805480602002602001604051908101604052809291908181526020016000905b82821015611ac557838290600052602060002090600202016040518060400160405290816000820180546119a290613b55565b80601f01602080910402602001604051908101604052809291908181526020018280546119ce90613b55565b8015611a1b5780601f106119f057610100808354040283529160200191611a1b565b820191906000526020600020905b8154815290600101906020018083116119fe57829003601f168201915b50505050508152602001600182018054611a3490613b55565b80601f0160208091040260200160405190810160405280929190818152602001828054611a6090613b55565b8015611aad5780601f10611a8257610100808354040283529160200191611aad565b820191906000526020600020905b815481529060010190602001808311611a9057829003601f168201915b5050505050815250508152602001906001019061196f565b50505050815260200160156000808152602001908152602001600020805480602002602001604051908101604052809291908181526020016000905b82821015611c575783829060005260206000209060020201604051806040016040529081600082018054611b3490613b55565b80601f0160208091040260200160405190810160405280929190818152602001828054611b6090613b55565b8015611bad5780601f10611b8257610100808354040283529160200191611bad565b820191906000526020600020905b815481529060010190602001808311611b9057829003601f168201915b50505050508152602001600182018054611bc690613b55565b80601f0160208091040260200160405190810160405280929190818152602001828054611bf290613b55565b8015611c3f5780601f10611c1457610100808354040283529160200191611c3f565b820191906000526020600020905b815481529060010190602001808311611c2257829003601f168201915b50505050508152505081526020019060010190611b01565b505050915250919050565b611c8660405180606001604052806000815260200160008152602001606081525090565b601760008381526020019081526020016000206040518060600160405290816000820154815260200160018201548152602001600282018054611cc890613b55565b80601f0160208091040260200160405190810160405280929190818152602001828054611cf490613b55565b8015611d415780601f10611d1657610100808354040283529160200191611d41565b820191906000526020600020905b815481529060010190602001808311611d2457829003601f168201915b5050505050815250509050919050565b611d5b33836127ea565b611dcd5760405162461bcd60e51b815260206004820152602e60248201527f4552433732313a2063616c6c6572206973206e6f7420746f6b656e206f776e6560448201527f72206e6f7220617070726f766564000000000000000000000000000000000000606482015260840161092f565b611dd984848484612b1d565b50505050565b600d54341015611e575760405162461bcd60e51b815260206004820152603160248201527f4d696e74206661696c65643a2056616c7565206f66206d65737361676520697360448201527f206c657373207468616e2070726963652e000000000000000000000000000000606482015260840161092f565b6064600c5410611ecf5760405162461bcd60e51b815260206004820152602160248201527f4d696e74206661696c65643a20546f6b656e732061726520736f6c64206f757460448201527f2e00000000000000000000000000000000000000000000000000000000000000606482015260840161092f565b33611ed9826110e5565b6001600160a01b031614611eec57600080fd5b6000818152601660205260409020600281015460019091015410611f525760405162461bcd60e51b815260206004820152601860248201527f4d696e7420616c6c6f77616e63652065786365656465642e0000000000000000604482015260640161092f565b611f5e83600c54612ba6565b611f6a600c5483612d01565b60408051606081018252438152426020808301918252828401868152600c546000908152601783529490942083518155915160018301559251805192939192611fb99260028501920190613287565b5050600c805491506000611fcc83613b90565b9091555050600b546001600160a01b03166108fc346040518115909202916000818181858888f19350505050158015612009573d6000803e3d6000fd5b5060016016600083815260200190815260200160002060010160008282546120319190613ae6565b9091555050505050565b6000818152600260205260409020546060906001600160a01b03166120c85760405162461bcd60e51b815260206004820152602f60248201527f4552433732314d657461646174613a2055524920717565727920666f72206e6f60448201527f6e6578697374656e7420746f6b656e0000000000000000000000000000000000606482015260840161092f565b600082815260116020526040812080546120e190613b55565b80601f016020809104026020016040519081016040528092919081815260200182805461210d90613b55565b801561215a5780601f1061212f5761010080835404028352916020019161215a565b820191906000526020600020905b81548152906001019060200180831161213d57829003601f168201915b50505050509050600061217860408051602081019091526000815290565b905080516000141561218b575092915050565b8151156121bd5780826040516020016121a59291906138d2565b60405160208183030381529060405292505050919050565b806121c785612daa565b6040516020016121a59291906138d2565b6010805461151b90613b55565b606060006121f23361114a565b1161223f5760405162461bcd60e51b815260206004820152601b60248201527f596f75206d757374206265206120746f6b656e20686f6c6465722e0000000000604482015260640161092f565b600082815260156020908152604080832080548251818502810185019093528083529193909284015b828210156123be578382906000526020600020906002020160405180604001604052908160008201805461229b90613b55565b80601f01602080910402602001604051908101604052809291908181526020018280546122c790613b55565b80156123145780601f106122e957610100808354040283529160200191612314565b820191906000526020600020905b8154815290600101906020018083116122f757829003601f168201915b5050505050815260200160018201805461232d90613b55565b80601f016020809104026020016040519081016040528092919081815260200182805461235990613b55565b80156123a65780601f1061237b576101008083540402835291602001916123a6565b820191906000526020600020905b81548152906001019060200180831161238957829003601f168201915b50505050508152505081526020019060010190612268565b505050509050919050565b6123d161278e565b600e54600f541061244a5760405162461bcd60e51b815260206004820152602e60248201527f5468697320636f6e74726163742068617320726561636865642069742773206d60448201527f696e7420616c6c6f77616e63652e000000000000000000000000000000000000606482015260840161092f565b600081815260166020526040812060020180546005929061246c908490613ae6565b925050819055506005600f60008282546124869190613ae6565b909155505050565b3360009081526013602052604090205460ff166124ed5760405162461bcd60e51b815260206004820152601d60248201527f436c69656e7420686173206e6f74206265656e20617070726f7665642e000000604482015260640161092f565b60408051606081018252600c54808252600160208084018281526005858701908152600094855260169092529490922092518355925192820192909255905160029091015561253e33600c54612ba6565b61254a600c5482612d01565b60408051606081018252438152426020808301918252828401858152600c5460009081526017835294909420835181559151600183015592518051929391926125999260028501920190613287565b5050600c8054915060006125ac83613b90565b9091555050600b546001600160a01b03166108fc346040518115909202916000818181858888f193505050501580156125e9573d6000803e3d6000fd5b50336000908152601360209081526040808320805460ff1916905560149091528120610fe791613386565b60006001600160e01b031982167f80ac58cd00000000000000000000000000000000000000000000000000000000148061267757506001600160e01b031982167f5b5e139f00000000000000000000000000000000000000000000000000000000145b806107df57507f01ffc9a7000000000000000000000000000000000000000000000000000000006001600160e01b03198316146107df565b6000818152600260205260409020546001600160a01b0316610fe75760405162461bcd60e51b815260206004820152601860248201527f4552433732313a20696e76616c696420746f6b656e2049440000000000000000604482015260640161092f565b6000818152600460205260409020805473ffffffffffffffffffffffffffffffffffffffff19166001600160a01b0384169081179091558190612755826110e5565b6001600160a01b03167f8c5be1e5ebec7d5bd14f71427d1e84f3dd0314c0f7b2291e5b200ac8c7c3b92560405160405180910390a45050565b600b546001600160a01b031633146127e85760405162461bcd60e51b815260206004820181905260248201527f4f776e61626c653a2063616c6c6572206973206e6f7420746865206f776e6572604482015260640161092f565b565b6000806127f6836110e5565b9050806001600160a01b0316846001600160a01b0316148061283d57506001600160a01b0380821660009081526005602090815260408083209388168352929052205460ff165b806128615750836001600160a01b031661285684610877565b6001600160a01b0316145b949350505050565b826001600160a01b031661287c826110e5565b6001600160a01b0316146128f85760405162461bcd60e51b815260206004820152602560248201527f4552433732313a207472616e736665722066726f6d20696e636f72726563742060448201527f6f776e6572000000000000000000000000000000000000000000000000000000606482015260840161092f565b6001600160a01b0382166129735760405162461bcd60e51b8152602060048201526024808201527f4552433732313a207472616e7366657220746f20746865207a65726f2061646460448201527f7265737300000000000000000000000000000000000000000000000000000000606482015260840161092f565b61297e838383612edc565b612989600082612713565b6001600160a01b03831660009081526003602052604081208054600192906129b2908490613b12565b90915550506001600160a01b03821660009081526003602052604081208054600192906129e0908490613ae6565b9091555050600081815260026020526040808220805473ffffffffffffffffffffffffffffffffffffffff19166001600160a01b0386811691821790925591518493918716917fddf252ad1be2c89b69c2b068fc378daa952ba7f163c4a11628f55a4df523b3ef91a4505050565b816001600160a01b0316836001600160a01b03161415612ab05760405162461bcd60e51b815260206004820152601960248201527f4552433732313a20617070726f766520746f2063616c6c657200000000000000604482015260640161092f565b6001600160a01b03838116600081815260056020908152604080832094871680845294825291829020805460ff191686151590811790915591519182527f17307eab39ab6107e8899845ad3d59bd9653f200f220920489ca2b5937696c31910160405180910390a3505050565b612b28848484612869565b612b3484848484612f94565b611dd95760405162461bcd60e51b815260206004820152603260248201527f4552433732313a207472616e7366657220746f206e6f6e20455243373231526560448201527f63656976657220696d706c656d656e7465720000000000000000000000000000606482015260840161092f565b6001600160a01b038216612bfc5760405162461bcd60e51b815260206004820181905260248201527f4552433732313a206d696e7420746f20746865207a65726f2061646472657373604482015260640161092f565b6000818152600260205260409020546001600160a01b031615612c615760405162461bcd60e51b815260206004820152601c60248201527f4552433732313a20746f6b656e20616c7265616479206d696e74656400000000604482015260640161092f565b612c6d60008383612edc565b6001600160a01b0382166000908152600360205260408120805460019290612c96908490613ae6565b9091555050600081815260026020526040808220805473ffffffffffffffffffffffffffffffffffffffff19166001600160a01b03861690811790915590518392907fddf252ad1be2c89b69c2b068fc378daa952ba7f163c4a11628f55a4df523b3ef908290a45050565b6000828152600260205260409020546001600160a01b0316612d8b5760405162461bcd60e51b815260206004820152602c60248201527f4552433732314d657461646174613a2055524920736574206f66206e6f6e657860448201527f697374656e7420746f6b656e0000000000000000000000000000000000000000606482015260840161092f565b600082815260116020908152604090912082516109d092840190613287565b606081612dea57505060408051808201909152600181527f3000000000000000000000000000000000000000000000000000000000000000602082015290565b8160005b8115612e145780612dfe81613b90565b9150612e0d9050600a83613afe565b9150612dee565b60008167ffffffffffffffff811115612e2f57612e2f613c17565b6040519080825280601f01601f191660200182016040528015612e59576020820181803683370190505b5090505b841561286157612e6e600183613b12565b9150612e7b600a86613bab565b612e86906030613ae6565b60f81b818381518110612e9b57612e9b613c01565b60200101907effffffffffffffffffffffffffffffffffffffffffffffffffffffffffffff1916908160001a905350612ed5600a86613afe565b9450612e5d565b6001600160a01b038316612f3757612f3281600880546000838152600960205260408120829055600182018355919091527ff3f7a9fe364faab93b216da50a3214154f22a0a2b415b23a84c8169e8b636ee30155565b612f5a565b816001600160a01b0316836001600160a01b031614612f5a57612f5a83826130f7565b6001600160a01b038216612f71576109d081613194565b826001600160a01b0316826001600160a01b0316146109d0576109d08282613243565b60006001600160a01b0384163b156130ec57604051630a85bd0160e11b81526001600160a01b0385169063150b7a0290612fd890339089908890889060040161393b565b602060405180830381600087803b158015612ff257600080fd5b505af1925050508015613022575060408051601f3d908101601f1916820190925261301f918101906136da565b60015b6130d2573d808015613050576040519150601f19603f3d011682016040523d82523d6000602084013e613055565b606091505b5080516130ca5760405162461bcd60e51b815260206004820152603260248201527f4552433732313a207472616e7366657220746f206e6f6e20455243373231526560448201527f63656976657220696d706c656d656e7465720000000000000000000000000000606482015260840161092f565b805181602001fd5b6001600160e01b031916630a85bd0160e11b149050612861565b506001949350505050565b600060016131048461114a565b61310e9190613b12565b600083815260076020526040902054909150808214613161576001600160a01b03841660009081526006602090815260408083208584528252808320548484528184208190558352600790915290208190555b5060009182526007602090815260408084208490556001600160a01b039094168352600681528383209183525290812055565b6008546000906131a690600190613b12565b600083815260096020526040812054600880549394509092849081106131ce576131ce613c01565b9060005260206000200154905080600883815481106131ef576131ef613c01565b600091825260208083209091019290925582815260099091526040808220849055858252812055600880548061322757613227613beb565b6001900381819060005260206000200160009055905550505050565b600061324e8361114a565b6001600160a01b039093166000908152600660209081526040808320868452825280832085905593825260079052919091209190915550565b82805461329390613b55565b90600052602060002090601f0160209004810192826132b557600085556132fb565b82601f106132ce57805160ff19168380011785556132fb565b828001600101855582156132fb579182015b828111156132fb5782518255916020019190600101906132e0565b506133079291506133bc565b5090565b82805461331790613b55565b90600052602060002090601f01602090048101928261333957600085556132fb565b82601f1061334a57805485556132fb565b828001600101855582156132fb57600052602060002091601f016020900482015b828111156132fb57825482559160010191906001019061336b565b50805461339290613b55565b6000825580601f106133a2575050565b601f016020900490600052602060002090810190610fe791905b5b8082111561330757600081556001016133bd565b600067ffffffffffffffff808411156133ec576133ec613c17565b604051601f8501601f19908116603f0116810190828211818310171561341457613414613c17565b8160405280935085815286868601111561342d57600080fd5b858560208301376000602087830101525050509392505050565b80356001600160a01b038116811461345e57600080fd5b919050565b8035801515811461345e57600080fd5b600082601f83011261348457600080fd5b613493838335602085016133d1565b9392505050565b6000602082840312156134ac57600080fd5b61349382613447565b600080604083850312156134c857600080fd5b6134d183613447565b91506134df60208401613447565b90509250929050565b6000806000606084860312156134fd57600080fd5b61350684613447565b925061351460208501613447565b9150604084013590509250925092565b6000806000806080858703121561353a57600080fd5b61354385613447565b935061355160208601613447565b925060408501359150606085013567ffffffffffffffff81111561357457600080fd5b8501601f8101871361358557600080fd5b613594878235602084016133d1565b91505092959194509250565b600080604083850312156135b357600080fd5b6135bc83613447565b91506134df60208401613463565b6000806000606084860312156135df57600080fd5b6135e884613447565b9250602084013567ffffffffffffffff81111561360457600080fd5b61361086828701613473565b925050604084013590509250925092565b6000806040838503121561363457600080fd5b61363d83613447565b946020939093013593505050565b6000806000806080858703121561366157600080fd5b61366a85613447565b935060208501359250604085013567ffffffffffffffff8082111561368e57600080fd5b61369a88838901613473565b935060608701359150808211156136b057600080fd5b5061359487828801613473565b6000602082840312156136cf57600080fd5b813561349381613c2d565b6000602082840312156136ec57600080fd5b815161349381613c2d565b60006020828403121561370957600080fd5b813567ffffffffffffffff81111561372057600080fd5b61286184828501613473565b6000806040838503121561373f57600080fd5b823567ffffffffffffffff8082111561375757600080fd5b61376386838701613473565b9350602085013591508082111561377957600080fd5b5061378685828601613473565b9150509250929050565b6000806000606084860312156137a557600080fd5b833567ffffffffffffffff808211156137bd57600080fd5b6137c987838801613473565b945060208601359150808211156137df57600080fd5b5061361086828701613473565b6000602082840312156137fe57600080fd5b5035919050565b6000806040838503121561381857600080fd5b823591506134df60208401613463565b600082825180855260208086019550808260051b84010181860160005b8481101561389957601f1986840301895281516040815181865261386b828701826138a6565b9150508582015191508481038686015261388581836138a6565b9a86019a9450505090830190600101613845565b5090979650505050505050565b600081518084526138be816020860160208601613b29565b601f01601f19169290920160200192915050565b600083516138e4818460208801613b29565b8351908301906138f8818360208801613b29565b01949350505050565b600082518051613915818560208501613b29565b6020948501516001600160a01b0316601f91909101601f19169390930192835250500190565b60006001600160a01b0380871683528086166020840152508360408301526080606083015261396d60808301846138a6565b9695505050505050565b60006020808301818452808551808352604092508286019150828160051b87010184880160005b838110156139e857888303603f19018552815180518785526139c2888601826138a6565b918901516001600160a01b0316948901949094529487019492509086019060010161399e565b509098975050505050505050565b6020815260006134936020830184613828565b60208152600061349360208301846138a6565b60208152815160208201526001600160a01b0360208301511660408201526000604083015160c06060840152613a5560e08401826138a6565b90506060840151601f1980858403016080860152613a7383836138a6565b925060808601519150808584030160a0860152613a908383613828565b925060a08601519150808584030160c086015250613aae8282613828565b95945050505050565b6020815281516020820152602082015160408201526000604083015160608084015261286160808401826138a6565b60008219821115613af957613af9613bbf565b500190565b600082613b0d57613b0d613bd5565b500490565b600082821015613b2457613b24613bbf565b500390565b60005b83811015613b44578181015183820152602001613b2c565b83811115611dd95750506000910152565b600181811c90821680613b6957607f821691505b60208210811415613b8a57634e487b7160e01b600052602260045260246000fd5b50919050565b6000600019821415613ba457613ba4613bbf565b5060010190565b600082613bba57613bba613bd5565b500690565b634e487b7160e01b600052601160045260246000fd5b634e487b7160e01b600052601260045260246000fd5b634e487b7160e01b600052603160045260246000fd5b634e487b7160e01b600052603260045260246000fd5b634e487b7160e01b600052604160045260246000fd5b6001600160e01b031981168114610fe757600080fdfea26469706673582212204b6d7d7a54a2bce059f5f5d9e014aa87f20c7ee11282b552c9e0aa7cb47a704c64736f6c63430008070033",
  "linkReferences": {},
  "deployedLinkReferences": {}
}