{
  "_format": "hh-sol-artifact-1",
  "contractName": "Tambora",
  "sourceName": "contracts/Tambora.sol",
  "abi": [
    {
      "inputs": [
        {
          "internalType": "address",
          "name": "deployer",
          "type": "address"
        },
        {
          "internalType": "string",
          "name": "name",
          "type": "string"
        },
        {
          "internalType": "string",
          "name": "symbol",
          "type": "string"
        },
        {
          "internalType": "uint256",
          "name": "price_",
          "type": "uint256"
        },
        {
          "internalType": "string",
          "name": "contractType_",
          "type": "string"
        },
        {
          "internalType": "address",
          "name": "to_",
          "type": "address"
        },
        {
          "internalType": "string",
          "name": "uri_",
          "type": "string"
        },
        {
          "internalType": "address",
          "name": "factoryOwner_",
          "type": "address"
        }
      ],
      "stateMutability": "nonpayable",
      "type": "constructor"
    },
    {
      "anonymous": false,
      "inputs": [
        {
          "indexed": true,
          "internalType": "address",
          "name": "owner",
          "type": "address"
        },
        {
          "indexed": true,
          "internalType": "address",
          "name": "approved",
          "type": "address"
        },
        {
          "indexed": true,
          "internalType": "uint256",
          "name": "tokenId",
          "type": "uint256"
        }
      ],
      "name": "Approval",
      "type": "event"
    },
    {
      "anonymous": false,
      "inputs": [
        {
          "indexed": true,
          "internalType": "address",
          "name": "owner",
          "type": "address"
        },
        {
          "indexed": true,
          "internalType": "address",
          "name": "operator",
          "type": "address"
        },
        {
          "indexed": false,
          "internalType": "bool",
          "name": "approved",
          "type": "bool"
        }
      ],
      "name": "ApprovalForAll",
      "type": "event"
    },
    {
      "anonymous": false,
      "inputs": [
        {
          "components": [
            {
              "internalType": "string",
              "name": "name",
              "type": "string"
            },
            {
              "internalType": "address",
              "name": "addr",
              "type": "address"
            }
          ],
          "indexed": true,
          "internalType": "struct Tambora.Client",
          "name": "clientData",
          "type": "tuple"
        }
      ],
      "name": "Request",
      "type": "event"
    },
    {
      "anonymous": false,
      "inputs": [
        {
          "components": [
            {
              "internalType": "string",
              "name": "name",
              "type": "string"
            },
            {
              "internalType": "address",
              "name": "addr",
              "type": "address"
            }
          ],
          "indexed": true,
          "internalType": "struct Tambora.Client",
          "name": "clientData",
          "type": "tuple"
        },
        {
          "indexed": true,
          "internalType": "bool",
          "name": "res",
          "type": "bool"
        }
      ],
      "name": "Response",
      "type": "event"
    },
    {
      "anonymous": false,
      "inputs": [
        {
          "indexed": true,
          "internalType": "address",
          "name": "from",
          "type": "address"
        },
        {
          "indexed": true,
          "internalType": "address",
          "name": "to",
          "type": "address"
        },
        {
          "indexed": true,
          "internalType": "uint256",
          "name": "tokenId",
          "type": "uint256"
        }
      ],
      "name": "Transfer",
      "type": "event"
    },
    {
      "inputs": [
        {
          "internalType": "string",
          "name": "name_",
          "type": "string"
        },
        {
          "internalType": "string",
          "name": "uri_",
          "type": "string"
        }
      ],
      "name": "addFileLocation",
      "outputs": [],
      "stateMutability": "nonpayable",
      "type": "function"
    },
    {
      "inputs": [
        {
          "internalType": "string",
          "name": "uri_",
          "type": "string"
        },
        {
          "internalType": "string",
          "name": "name_",
          "type": "string"
        },
        {
          "internalType": "uint256",
          "name": "mintId_",
          "type": "uint256"
        }
      ],
      "name": "addIndividualFile",
      "outputs": [],
      "stateMutability": "nonpayable",
      "type": "function"
    },
    {
      "inputs": [
        {
          "internalType": "uint256",
          "name": "",
          "type": "uint256"
        }
      ],
      "name": "allTokens",
      "outputs": [
        {
          "internalType": "uint256",
          "name": "blockNumber",
          "type": "uint256"
        },
        {
          "internalType": "uint256",
          "name": "timeStamp",
          "type": "uint256"
        },
        {
          "internalType": "string",
          "name": "uri",
          "type": "string"
        }
      ],
      "stateMutability": "view",
      "type": "function"
    },
    {
      "inputs": [
        {
          "internalType": "address",
          "name": "to",
          "type": "address"
        },
        {
          "internalType": "uint256",
          "name": "tokenId",
          "type": "uint256"
        }
      ],
      "name": "approve",
      "outputs": [],
      "stateMutability": "nonpayable",
      "type": "function"
    },
    {
      "inputs": [
        {
          "internalType": "uint256",
          "name": "index",
          "type": "uint256"
        },
        {
          "internalType": "bool",
          "name": "decision",
          "type": "bool"
        }
      ],
      "name": "approveOrDenyClient",
      "outputs": [],
      "stateMutability": "nonpayable",
      "type": "function"
    },
    {
      "inputs": [
        {
          "internalType": "address",
          "name": "",
          "type": "address"
        }
      ],
      "name": "approvedName",
      "outputs": [
        {
          "internalType": "string",
          "name": "",
          "type": "string"
        }
      ],
      "stateMutability": "view",
      "type": "function"
    },
    {
      "inputs": [
        {
          "internalType": "address",
          "name": "owner",
          "type": "address"
        }
      ],
      "name": "balanceOf",
      "outputs": [
        {
          "internalType": "uint256",
          "name": "",
          "type": "uint256"
        }
      ],
      "stateMutability": "view",
      "type": "function"
    },
    {
      "inputs": [],
      "name": "contractType",
      "outputs": [
        {
          "internalType": "string",
          "name": "",
          "type": "string"
        }
      ],
      "stateMutability": "view",
      "type": "function"
    },
    {
      "inputs": [
        {
          "internalType": "string",
          "name": "uri",
          "type": "string"
        }
      ],
      "name": "finalizeClient",
      "outputs": [],
      "stateMutability": "payable",
      "type": "function"
    },
    {
      "inputs": [
        {
          "internalType": "uint256",
          "name": "tokenId",
          "type": "uint256"
        }
      ],
      "name": "getApproved",
      "outputs": [
        {
          "internalType": "address",
          "name": "",
          "type": "address"
        }
      ],
      "stateMutability": "view",
      "type": "function"
    },
    {
      "inputs": [],
      "name": "getFileStore",
      "outputs": [
        {
          "components": [
            {
              "internalType": "string",
              "name": "name",
              "type": "string"
            },
            {
              "internalType": "string",
              "name": "uri",
              "type": "string"
            }
          ],
          "internalType": "struct Tambora.File[]",
          "name": "",
          "type": "tuple[]"
        }
      ],
      "stateMutability": "view",
      "type": "function"
    },
    {
      "inputs": [],
      "name": "getPendingClients",
      "outputs": [
        {
          "components": [
            {
              "internalType": "string",
              "name": "name",
              "type": "string"
            },
            {
              "internalType": "address",
              "name": "addr",
              "type": "address"
            }
          ],
          "internalType": "struct Tambora.Client[]",
          "name": "",
          "type": "tuple[]"
        }
      ],
      "stateMutability": "view",
      "type": "function"
    },
    {
      "inputs": [],
      "name": "getShowData",
      "outputs": [
        {
          "components": [
            {
              "internalType": "uint256",
              "name": "tokenId",
              "type": "uint256"
            },
            {
              "internalType": "address",
              "name": "manager",
              "type": "address"
            },
            {
              "internalType": "string",
              "name": "contractType",
              "type": "string"
            },
            {
              "internalType": "string",
              "name": "tokenURI",
              "type": "string"
            },
            {
              "components": [
                {
                  "internalType": "string",
                  "name": "name",
                  "type": "string"
                },
                {
                  "internalType": "string",
                  "name": "uri",
                  "type": "string"
                }
              ],
              "internalType": "struct Tambora.File[]",
              "name": "fileStore",
              "type": "tuple[]"
            },
            {
              "components": [
                {
                  "internalType": "string",
                  "name": "name",
                  "type": "string"
                },
                {
                  "internalType": "string",
                  "name": "uri",
                  "type": "string"
                }
              ],
              "internalType": "struct Tambora.File[]",
              "name": "individualFilestore",
              "type": "tuple[]"
            }
          ],
          "internalType": "struct Tambora.ShowData",
          "name": "",
          "type": "tuple"
        }
      ],
      "stateMutability": "view",
      "type": "function"
    },
    {
      "inputs": [
        {
          "internalType": "uint256",
          "name": "mintId_",
          "type": "uint256"
        }
      ],
      "name": "increaseClientMintAllowance",
      "outputs": [],
      "stateMutability": "payable",
      "type": "function"
    },
    {
      "inputs": [],
      "name": "increaseContractMintAllowance",
      "outputs": [],
      "stateMutability": "payable",
      "type": "function"
    },
    {
      "inputs": [
        {
          "internalType": "address",
          "name": "",
          "type": "address"
        }
      ],
      "name": "isApproved",
      "outputs": [
        {
          "internalType": "bool",
          "name": "",
          "type": "bool"
        }
      ],
      "stateMutability": "view",
      "type": "function"
    },
    {
      "inputs": [
        {
          "internalType": "address",
          "name": "owner",
          "type": "address"
        },
        {
          "internalType": "address",
          "name": "operator",
          "type": "address"
        }
      ],
      "name": "isApprovedForAll",
      "outputs": [
        {
          "internalType": "bool",
          "name": "",
          "type": "bool"
        }
      ],
      "stateMutability": "view",
      "type": "function"
    },
    {
      "inputs": [
        {
          "internalType": "address",
          "name": "",
          "type": "address"
        }
      ],
      "name": "isPending",
      "outputs": [
        {
          "internalType": "bool",
          "name": "",
          "type": "bool"
        }
      ],
      "stateMutability": "view",
      "type": "function"
    },
    {
      "inputs": [
        {
          "internalType": "uint256",
          "name": "",
          "type": "uint256"
        }
      ],
      "name": "memberTokens",
      "outputs": [
        {
          "internalType": "uint256",
          "name": "mintId",
          "type": "uint256"
        },
        {
          "internalType": "uint256",
          "name": "minted",
          "type": "uint256"
        },
        {
          "internalType": "uint256",
          "name": "mintAllowance",
          "type": "uint256"
        }
      ],
      "stateMutability": "view",
      "type": "function"
    },
    {
      "inputs": [
        {
          "internalType": "address",
          "name": "to_",
          "type": "address"
        },
        {
          "internalType": "string",
          "name": "uri",
          "type": "string"
        },
        {
          "internalType": "uint256",
          "name": "mintId_",
          "type": "uint256"
        }
      ],
      "name": "mint",
      "outputs": [],
      "stateMutability": "payable",
      "type": "function"
    },
    {
      "inputs": [],
      "name": "name",
      "outputs": [
        {
          "internalType": "string",
          "name": "",
          "type": "string"
        }
      ],
      "stateMutability": "view",
      "type": "function"
    },
    {
      "inputs": [],
      "name": "owner",
      "outputs": [
        {
          "internalType": "address",
          "name": "",
          "type": "address"
        }
      ],
      "stateMutability": "view",
      "type": "function"
    },
    {
      "inputs": [
        {
          "internalType": "uint256",
          "name": "tokenId",
          "type": "uint256"
        }
      ],
      "name": "ownerOf",
      "outputs": [
        {
          "internalType": "address",
          "name": "",
          "type": "address"
        }
      ],
      "stateMutability": "view",
      "type": "function"
    },
    {
      "inputs": [],
      "name": "price",
      "outputs": [
        {
          "internalType": "uint256",
          "name": "",
          "type": "uint256"
        }
      ],
      "stateMutability": "view",
      "type": "function"
    },
    {
      "inputs": [
        {
          "internalType": "string",
          "name": "name",
          "type": "string"
        }
      ],
      "name": "requestApproval",
      "outputs": [],
      "stateMutability": "nonpayable",
      "type": "function"
    },
    {
      "inputs": [
        {
          "internalType": "address",
          "name": "from",
          "type": "address"
        },
        {
          "internalType": "address",
          "name": "to",
          "type": "address"
        },
        {
          "internalType": "uint256",
          "name": "tokenId",
          "type": "uint256"
        }
      ],
      "name": "safeTransferFrom",
      "outputs": [],
      "stateMutability": "nonpayable",
      "type": "function"
    },
    {
      "inputs": [
        {
          "internalType": "address",
          "name": "from",
          "type": "address"
        },
        {
          "internalType": "address",
          "name": "to",
          "type": "address"
        },
        {
          "internalType": "uint256",
          "name": "tokenId",
          "type": "uint256"
        },
        {
          "internalType": "bytes",
          "name": "data",
          "type": "bytes"
        }
      ],
      "name": "safeTransferFrom",
      "outputs": [],
      "stateMutability": "nonpayable",
      "type": "function"
    },
    {
      "inputs": [
        {
          "internalType": "address",
          "name": "operator",
          "type": "address"
        },
        {
          "internalType": "bool",
          "name": "approved",
          "type": "bool"
        }
      ],
      "name": "setApprovalForAll",
      "outputs": [],
      "stateMutability": "nonpayable",
      "type": "function"
    },
    {
      "inputs": [
        {
          "internalType": "bytes4",
          "name": "interfaceId",
          "type": "bytes4"
        }
      ],
      "name": "supportsInterface",
      "outputs": [
        {
          "internalType": "bool",
          "name": "",
          "type": "bool"
        }
      ],
      "stateMutability": "view",
      "type": "function"
    },
    {
      "inputs": [],
      "name": "symbol",
      "outputs": [
        {
          "internalType": "string",
          "name": "",
          "type": "string"
        }
      ],
      "stateMutability": "view",
      "type": "function"
    },
    {
      "inputs": [
        {
          "internalType": "uint256",
          "name": "index",
          "type": "uint256"
        }
      ],
      "name": "tokenByIndex",
      "outputs": [
        {
          "internalType": "uint256",
          "name": "",
          "type": "uint256"
        }
      ],
      "stateMutability": "view",
      "type": "function"
    },
    {
      "inputs": [
        {
          "internalType": "address",
          "name": "owner",
          "type": "address"
        },
        {
          "internalType": "uint256",
          "name": "index",
          "type": "uint256"
        }
      ],
      "name": "tokenOfOwnerByIndex",
      "outputs": [
        {
          "internalType": "uint256",
          "name": "",
          "type": "uint256"
        }
      ],
      "stateMutability": "view",
      "type": "function"
    },
    {
      "inputs": [
        {
          "internalType": "uint256",
          "name": "tokenId_",
          "type": "uint256"
        }
      ],
      "name": "tokenURI",
      "outputs": [
        {
          "internalType": "string",
          "name": "",
          "type": "string"
        }
      ],
      "stateMutability": "view",
      "type": "function"
    },
    {
      "inputs": [],
      "name": "totalSupply",
      "outputs": [
        {
          "internalType": "uint256",
          "name": "",
          "type": "uint256"
        }
      ],
      "stateMutability": "view",
      "type": "function"
    },
    {
      "inputs": [
        {
          "internalType": "address",
          "name": "from",
          "type": "address"
        },
        {
          "internalType": "address",
          "name": "to",
          "type": "address"
        },
        {
          "internalType": "uint256",
          "name": "tokenId",
          "type": "uint256"
        }
      ],
      "name": "transferFrom",
      "outputs": [],
      "stateMutability": "nonpayable",
      "type": "function"
    }
  ],
  "bytecode": "0x60806040523480156200001157600080fd5b5060405162004059380380620040598339810160408190526200003491620008b1565b8651879087906200004d90600090602085019062000737565b5080516200006390600190602084019062000737565b5050600b80546001600160a01b03808c166001600160a01b031992831617909255600a80549285169290911691909117905550600d8590558351620000b090601090602087019062000737565b50600a600f81905560408051606081018252600080825260016020808401918252938301948552818052601690935290517f0263c2b778d062355049effc2dece97bc6547ff8a88a3258daa512061c2153dd5590517f0263c2b778d062355049effc2dece97bc6547ff8a88a3258daa512061c2153de5590517f0263c2b778d062355049effc2dece97bc6547ff8a88a3258daa512061c2153df556200015890849062000220565b620001656000836200037a565b6001600c5560408051606081018252438152426020808301918252928201858152600080526017845282517fd840e16649f6b9a295d95876f4633d3a6b10b55e8162971cf78afd886d5ec89b90815591517fd840e16649f6b9a295d95876f4633d3a6b10b55e8162971cf78afd886d5ec89c55518051929391926200020e927fd840e16649f6b9a295d95876f4633d3a6b10b55e8162971cf78afd886d5ec89d92019062000737565b50905050505050505050505062000a77565b6001600160a01b0382166200027c5760405162461bcd60e51b815260206004820181905260248201527f4552433732313a206d696e7420746f20746865207a65726f206164647265737360448201526064015b60405180910390fd5b6000818152600260205260409020546001600160a01b031615620002e35760405162461bcd60e51b815260206004820152601c60248201527f4552433732313a20746f6b656e20616c7265616479206d696e74656400000000604482015260640162000273565b620002f1600083836200041b565b6001600160a01b03821660009081526003602052604081208054600192906200031c908490620009ad565b909155505060008181526002602052604080822080546001600160a01b0319166001600160a01b03861690811790915590518392907fddf252ad1be2c89b69c2b068fc378daa952ba7f163c4a11628f55a4df523b3ef908290a45050565b6000828152600260205260409020546001600160a01b0316620003f55760405162461bcd60e51b815260206004820152602c60248201527f4552433732314d657461646174613a2055524920736574206f66206e6f6e657860448201526b34b9ba32b73a103a37b5b2b760a11b606482015260840162000273565b60008281526011602090815260409091208251620004169284019062000737565b505050565b620004338383836200041660201b6200092c1760201c565b6001600160a01b03831662000491576200048b81600880546000838152600960205260408120829055600182018355919091527ff3f7a9fe364faab93b216da50a3214154f22a0a2b415b23a84c8169e8b636ee30155565b620004b7565b816001600160a01b0316836001600160a01b031614620004b757620004b78382620004f7565b6001600160a01b038216620004d1576200041681620005a4565b826001600160a01b0316826001600160a01b03161462000416576200041682826200065e565b600060016200051184620006af60201b620010781760201c565b6200051d9190620009c8565b60008381526007602052604090205490915080821462000571576001600160a01b03841660009081526006602090815260408083208584528252808320548484528184208190558352600790915290208190555b5060009182526007602090815260408084208490556001600160a01b039094168352600681528383209183525290812055565b600854600090620005b890600190620009c8565b60008381526009602052604081205460088054939450909284908110620005e357620005e362000a4b565b90600052602060002001549050806008838154811062000607576200060762000a4b565b600091825260208083209091019290925582815260099091526040808220849055858252812055600880548062000642576200064262000a35565b6001900381819060005260206000200160009055905550505050565b60006200067683620006af60201b620010781760201c565b6001600160a01b039093166000908152600660209081526040808320868452825280832085905593825260079052919091209190915550565b60006001600160a01b0382166200071b5760405162461bcd60e51b815260206004820152602960248201527f4552433732313a2061646472657373207a65726f206973206e6f7420612076616044820152683634b21037bbb732b960b91b606482015260840162000273565b506001600160a01b031660009081526003602052604090205490565b8280546200074590620009e2565b90600052602060002090601f016020900481019282620007695760008555620007b4565b82601f106200078457805160ff1916838001178555620007b4565b82800160010185558215620007b4579182015b82811115620007b457825182559160200191906001019062000797565b50620007c2929150620007c6565b5090565b5b80821115620007c25760008155600101620007c7565b80516001600160a01b0381168114620007f557600080fd5b919050565b600082601f8301126200080c57600080fd5b81516001600160401b038082111562000829576200082962000a61565b604051601f8301601f19908116603f0116810190828211818310171562000854576200085462000a61565b816040528381526020925086838588010111156200087157600080fd5b600091505b8382101562000895578582018301518183018401529082019062000876565b83821115620008a75760008385830101525b9695505050505050565b600080600080600080600080610100898b031215620008cf57600080fd5b620008da89620007dd565b60208a01519098506001600160401b0380821115620008f857600080fd5b620009068c838d01620007fa565b985060408b01519150808211156200091d57600080fd5b6200092b8c838d01620007fa565b975060608b0151965060808b01519150808211156200094957600080fd5b620009578c838d01620007fa565b95506200096760a08c01620007dd565b945060c08b01519150808211156200097e57600080fd5b506200098d8b828c01620007fa565b9250506200099e60e08a01620007dd565b90509295985092959890939650565b60008219821115620009c357620009c362000a1f565b500190565b600082821015620009dd57620009dd62000a1f565b500390565b600181811c90821680620009f757607f821691505b6020821081141562000a1957634e487b7160e01b600052602260045260246000fd5b50919050565b634e487b7160e01b600052601160045260246000fd5b634e487b7160e01b600052603160045260246000fd5b634e487b7160e01b600052603260045260246000fd5b634e487b7160e01b600052604160045260246000fd5b6135d28062000a876000396000f3fe6080604052600436106102345760003560e01c806370a0823111610138578063aeb20b94116100b0578063c87b56dd1161007f578063e985e9c511610064578063e985e9c51461068e578063eb58f0ec146106d7578063f9dc375f146106ea57600080fd5b8063c87b56dd14610659578063cb2ef6f71461067957600080fd5b8063aeb20b94146105ad578063af80a5be14610604578063b88d4fde14610626578063ba7aef431461064657600080fd5b806397a3334211610107578063a035b1fe116100ec578063a035b1fe14610557578063a22cb4651461056d578063a28039cd1461058d57600080fd5b806397a3334214610507578063a00745b61461052757600080fd5b806370a08231146104945780638da5cb5b146104b457806395d89b41146104d257806396761595146104e757600080fd5b80632f745c59116101cb5780635a9be11b1161019a578063634282af1161017f578063634282af146104155780636352211e14610444578063673448dd1461046457600080fd5b80635a9be11b146103eb5780635bf61cfe146103f357600080fd5b80632f745c591461036b5780634261917a1461038b57806342842e0e146103ab5780634f6ccce7146103cb57600080fd5b80630e37b4fd116102075780630e37b4fd146102ea57806318160ddd1461030c5780631fceaae01461032b57806323b872dd1461034b57600080fd5b806301ffc9a71461023957806306fdde031461026e578063081812fc14610290578063095ea7b3146102c8575b600080fd5b34801561024557600080fd5b50610259610254366004613029565b6106fd565b60405190151581526020015b60405180910390f35b34801561027a57600080fd5b50610283610741565b6040516102659190613372565b34801561029c57600080fd5b506102b06102ab366004613158565b6107d3565b6040516001600160a01b039091168152602001610265565b3480156102d457600080fd5b506102e86102e3366004612fff565b6107fa565b005b3480156102f657600080fd5b506102ff610931565b604051610265919061335f565b34801561031857600080fd5b506008545b604051908152602001610265565b34801561033757600080fd5b506102e86103463660046130fc565b610ac9565b34801561035757600080fd5b506102e8610366366004612ec6565b610b3f565b34801561037757600080fd5b5061031d610386366004612fff565b610bc6565b34801561039757600080fd5b506102e86103a6366004613098565b610c6e565b3480156103b757600080fd5b506102e86103c6366004612ec6565b610cd7565b3480156103d757600080fd5b5061031d6103e6366004613158565b610cf2565b6102e8610d96565b3480156103ff57600080fd5b50610408610e6d565b60405161026591906132e0565b34801561042157600080fd5b50610435610430366004613158565b610f68565b60405161026593929190613420565b34801561045057600080fd5b506102b061045f366004613158565b611013565b34801561047057600080fd5b5061025961047f366004612e78565b60136020526000908152604090205460ff1681565b3480156104a057600080fd5b5061031d6104af366004612e78565b611078565b3480156104c057600080fd5b50600b546001600160a01b03166102b0565b3480156104de57600080fd5b50610283611112565b3480156104f357600080fd5b506102e8610502366004613063565b611121565b34801561051357600080fd5b50610283610522366004612e78565b61122b565b34801561053357600080fd5b50610259610542366004612e78565b60126020526000908152604090205460ff1681565b34801561056357600080fd5b5061031d600d5481565b34801561057957600080fd5b506102e8610588366004612f7e565b6112c5565b34801561059957600080fd5b506102e86105a8366004613171565b6112d4565b3480156105b957600080fd5b506105e96105c8366004613158565b60166020526000908152604090208054600182015460029092015490919083565b60408051938452602084019290925290820152606001610265565b34801561061057600080fd5b50610619611562565b6040516102659190613385565b34801561063257600080fd5b506102e8610641366004612f02565b61198b565b6102e8610654366004612fa8565b611a19565b34801561066557600080fd5b50610283610674366004613158565b611bfd565b34801561068557600080fd5b50610283611d9a565b34801561069a57600080fd5b506102596106a9366004612e93565b6001600160a01b03918216600090815260056020908152604080832093909416825291909152205460ff1690565b6102e86106e5366004613158565b611da7565b6102e86106f8366004613063565b611e6c565b60006001600160e01b031982167f780e9d6300000000000000000000000000000000000000000000000000000000148061073b575061073b82611ff2565b92915050565b606060008054610750906134ae565b80601f016020809104026020016040519081016040528092919081815260200182805461077c906134ae565b80156107c95780601f1061079e576101008083540402835291602001916107c9565b820191906000526020600020905b8154815290600101906020018083116107ac57829003601f168201915b5050505050905090565b60006107de8261208d565b506000908152600460205260409020546001600160a01b031690565b600061080582611013565b9050806001600160a01b0316836001600160a01b031614156108945760405162461bcd60e51b815260206004820152602160248201527f4552433732313a20617070726f76616c20746f2063757272656e74206f776e6560448201527f720000000000000000000000000000000000000000000000000000000000000060648201526084015b60405180910390fd5b336001600160a01b03821614806108b057506108b081336106a9565b6109225760405162461bcd60e51b815260206004820152603e60248201527f4552433732313a20617070726f76652063616c6c6572206973206e6f7420746f60448201527f6b656e206f776e6572206e6f7220617070726f76656420666f7220616c6c0000606482015260840161088b565b61092c83836120f1565b505050565b6060600061093e33611078565b1161094857600080fd5b6019805480602002602001604051908101604052809291908181526020016000905b82821015610ac0578382906000526020600020906002020160405180604001604052908160008201805461099d906134ae565b80601f01602080910402602001604051908101604052809291908181526020018280546109c9906134ae565b8015610a165780601f106109eb57610100808354040283529160200191610a16565b820191906000526020600020905b8154815290600101906020018083116109f957829003601f168201915b50505050508152602001600182018054610a2f906134ae565b80601f0160208091040260200160405190810160405280929190818152602001828054610a5b906134ae565b8015610aa85780601f10610a7d57610100808354040283529160200191610aa8565b820191906000526020600020905b815481529060010190602001808311610a8b57829003601f168201915b5050505050815250508152602001906001019061096a565b50505050905090565b610ad161216c565b6000818152601560209081526040808320815180830190925285825281830187905280546001810182559084529282902081518051929460020290910192610b1e92849290910190612c65565b506020828101518051610b379260018501920190612c65565b505050505050565b610b4933826121c8565b610bbb5760405162461bcd60e51b815260206004820152602e60248201527f4552433732313a2063616c6c6572206973206e6f7420746f6b656e206f776e6560448201527f72206e6f7220617070726f766564000000000000000000000000000000000000606482015260840161088b565b61092c838383612247565b6000610bd183611078565b8210610c455760405162461bcd60e51b815260206004820152602b60248201527f455243373231456e756d657261626c653a206f776e657220696e646578206f7560448201527f74206f6620626f756e6473000000000000000000000000000000000000000000606482015260840161088b565b506001600160a01b03919091166000908152600660209081526040808320938352929052205490565b610c7661216c565b6040805180820190915282815260208082018390526019805460018101825560009190915282518051849360029093027f944998273e477b495144fb8794c914197f3ccb46be2900f4698fd0ef743c96950192610b1e928492910190612c65565b61092c8383836040518060200160405280600081525061198b565b6000610cfd60085490565b8210610d715760405162461bcd60e51b815260206004820152602c60248201527f455243373231456e756d657261626c653a20676c6f62616c20696e646578206f60448201527f7574206f6620626f756e64730000000000000000000000000000000000000000606482015260840161088b565b60088281548110610d8457610d8461355a565b90600052602060002001549050919050565b610d9e61216c565b668e1bc9bf040000341015610e1a5760405162461bcd60e51b8152602060048201526024808201527f54686973207472616e73616374696f6e20726571756972657320302e3034206560448201527f7468657200000000000000000000000000000000000000000000000000000000606482015260840161088b565b6064600e6000828254610e2d919061343f565b9091555050600a546001600160a01b03166108fc346040518115909202916000818181858888f19350505050158015610e6a573d6000803e3d6000fd5b50565b60606018805480602002602001604051908101604052809291908181526020016000905b82821015610ac05783829060005260206000209060020201604051806040016040529081600082018054610ec4906134ae565b80601f0160208091040260200160405190810160405280929190818152602001828054610ef0906134ae565b8015610f3d5780601f10610f1257610100808354040283529160200191610f3d565b820191906000526020600020905b815481529060010190602001808311610f2057829003601f168201915b50505091835250506001918201546001600160a01b0316602091820152918352929092019101610e91565b60176020526000908152604090208054600182015460028301805492939192610f90906134ae565b80601f0160208091040260200160405190810160405280929190818152602001828054610fbc906134ae565b80156110095780601f10610fde57610100808354040283529160200191611009565b820191906000526020600020905b815481529060010190602001808311610fec57829003601f168201915b5050505050905083565b6000818152600260205260408120546001600160a01b03168061073b5760405162461bcd60e51b815260206004820152601860248201527f4552433732313a20696e76616c696420746f6b656e2049440000000000000000604482015260640161088b565b60006001600160a01b0382166110f65760405162461bcd60e51b815260206004820152602960248201527f4552433732313a2061646472657373207a65726f206973206e6f74206120766160448201527f6c6964206f776e65720000000000000000000000000000000000000000000000606482015260840161088b565b506001600160a01b031660009081526003602052604090205490565b606060018054610750906134ae565b6000604051806040016040528083815260200161113b3390565b6001600160a01b031690526018805460018101825560009190915281518051929350839260029092027fb13d2d76d1f4b7be834882e410b3e3a8afaf69f83600ae24db354391d2378d2e019161119991839160209190910190612c65565b506020918201516001918201805473ffffffffffffffffffffffffffffffffffffffff19166001600160a01b039092169190911790553360009081526012909252604091829020805460ff19169091179055516111f790829061326a565b604051908190038120907f88db4a536f075851673fbcb81050ab51c0a709de0eef6aa0c872a927c0ade24c90600090a25050565b60146020526000908152604090208054611244906134ae565b80601f0160208091040260200160405190810160405280929190818152602001828054611270906134ae565b80156112bd5780601f10611292576101008083540402835291602001916112bd565b820191906000526020600020905b8154815290600101906020018083116112a057829003601f168201915b505050505081565b6112d033838361242c565b5050565b6112dc61216c565b6000601883815481106112f1576112f161355a565b906000526020600020906002020160405180604001604052908160008201805461131a906134ae565b80601f0160208091040260200160405190810160405280929190818152602001828054611346906134ae565b80156113935780601f1061136857610100808354040283529160200191611393565b820191906000526020600020905b81548152906001019060200180831161137657829003601f168201915b5050509183525050600191909101546001600160a01b03166020909101529050811561140557602080820180516001600160a01b039081166000908152601384526040808220805460ff191660011790558551935190921681526014845220815161140393919290910190612c65565b505b81151581604051611416919061326a565b604051908190038120907f5b5cc648c0cdb118eeb9957a32510510d658bb499f3d22585ddf52d84082956c90600090a3601880546114569060019061346b565b815481106114665761146661355a565b9060005260206000209060020201601884815481106114875761148761355a565b906000526020600020906002020160008201816000019080546114a9906134ae565b6114b4929190612ce9565b506001918201549101805473ffffffffffffffffffffffffffffffffffffffff19166001600160a01b0390921691909117905560188054806114f8576114f8613544565b600082815260208120600019909201916002830201906115188282612d64565b50600101805473ffffffffffffffffffffffffffffffffffffffff1916905590556020908101516001600160a01b03166000908152601290915260409020805460ff191690555050565b6115a46040518060c001604052806000815260200160006001600160a01b03168152602001606081526020016060815260200160608152602001606081525090565b6040518060c00160405280600c5481526020016115c9600b546001600160a01b031690565b6001600160a01b03168152602001601080546115e4906134ae565b80601f0160208091040260200160405190810160405280929190818152602001828054611610906134ae565b801561165d5780601f106116325761010080835404028352916020019161165d565b820191906000526020600020905b81548152906001019060200180831161164057829003601f168201915b505050505081526020016116716000611bfd565b81526020016019805480602002602001604051908101604052809291908181526020016000905b828210156117ee57838290600052602060002090600202016040518060400160405290816000820180546116cb906134ae565b80601f01602080910402602001604051908101604052809291908181526020018280546116f7906134ae565b80156117445780601f1061171957610100808354040283529160200191611744565b820191906000526020600020905b81548152906001019060200180831161172757829003601f168201915b5050505050815260200160018201805461175d906134ae565b80601f0160208091040260200160405190810160405280929190818152602001828054611789906134ae565b80156117d65780601f106117ab576101008083540402835291602001916117d6565b820191906000526020600020905b8154815290600101906020018083116117b957829003601f168201915b50505050508152505081526020019060010190611698565b50505050815260200160156000808152602001908152602001600020805480602002602001604051908101604052809291908181526020016000905b82821015611980578382906000526020600020906002020160405180604001604052908160008201805461185d906134ae565b80601f0160208091040260200160405190810160405280929190818152602001828054611889906134ae565b80156118d65780601f106118ab576101008083540402835291602001916118d6565b820191906000526020600020905b8154815290600101906020018083116118b957829003601f168201915b505050505081526020016001820180546118ef906134ae565b80601f016020809104026020016040519081016040528092919081815260200182805461191b906134ae565b80156119685780601f1061193d57610100808354040283529160200191611968565b820191906000526020600020905b81548152906001019060200180831161194b57829003601f168201915b5050505050815250508152602001906001019061182a565b505050915250919050565b61199533836121c8565b611a075760405162461bcd60e51b815260206004820152602e60248201527f4552433732313a2063616c6c6572206973206e6f7420746f6b656e206f776e6560448201527f72206e6f7220617070726f766564000000000000000000000000000000000000606482015260840161088b565b611a13848484846124fb565b50505050565b6064600c5410611a915760405162461bcd60e51b815260206004820152602160248201527f4d696e74206661696c65643a20546f6b656e732061726520736f6c64206f757460448201527f2e00000000000000000000000000000000000000000000000000000000000000606482015260840161088b565b33611a9b82611013565b6001600160a01b031614611aae57600080fd5b6000818152601660205260409020600281015460019091015410611b145760405162461bcd60e51b815260206004820152601860248201527f4d696e7420616c6c6f77616e63652065786365656465642e0000000000000000604482015260640161088b565b611b2083600c54612584565b611b2c600c54836126df565b60408051606081018252438152426020808301918252828401868152600c546000908152601783529490942083518155915160018301559251805192939192611b7b9260028501920190612c65565b5050600c805491506000611b8e836134e9565b9091555050600b546001600160a01b03166108fc346040518115909202916000818181858888f19350505050158015611bcb573d6000803e3d6000fd5b506001601660008381526020019081526020016000206001016000828254611bf3919061343f565b9091555050505050565b6000818152600260205260409020546060906001600160a01b0316611c8a5760405162461bcd60e51b815260206004820152602f60248201527f4552433732314d657461646174613a2055524920717565727920666f72206e6f60448201527f6e6578697374656e7420746f6b656e0000000000000000000000000000000000606482015260840161088b565b60008281526011602052604081208054611ca3906134ae565b80601f0160208091040260200160405190810160405280929190818152602001828054611ccf906134ae565b8015611d1c5780601f10611cf157610100808354040283529160200191611d1c565b820191906000526020600020905b815481529060010190602001808311611cff57829003601f168201915b505050505090506000611d3a60408051602081019091526000815290565b9050805160001415611d4d575092915050565b815115611d7f578082604051602001611d6792919061323b565b60405160208183030381529060405292505050919050565b80611d8985612788565b604051602001611d6792919061323b565b60108054611244906134ae565b611daf61216c565b600e54600f5410611e285760405162461bcd60e51b815260206004820152602e60248201527f5468697320636f6e74726163742068617320726561636865642069742773206d60448201527f696e7420616c6c6f77616e63652e000000000000000000000000000000000000606482015260840161088b565b6000818152601660205260408120600201805460059290611e4a90849061343f565b925050819055506005600f6000828254611e64919061343f565b909155505050565b3360009081526013602052604090205460ff16611ecb5760405162461bcd60e51b815260206004820152601d60248201527f436c69656e7420686173206e6f74206265656e20617070726f7665642e000000604482015260640161088b565b60408051606081018252600c548082526001602080840182815260058587019081526000948552601690925294909220925183559251928201929092559051600290910155611f1c33600c54612584565b611f28600c54826126df565b60408051606081018252438152426020808301918252828401858152600c546000908152601783529490942083518155915160018301559251805192939192611f779260028501920190612c65565b5050600c805491506000611f8a836134e9565b9091555050600b546001600160a01b03166108fc346040518115909202916000818181858888f19350505050158015611fc7573d6000803e3d6000fd5b50336000908152601360209081526040808320805460ff1916905560149091528120610e6a91612d64565b60006001600160e01b031982167f80ac58cd00000000000000000000000000000000000000000000000000000000148061205557506001600160e01b031982167f5b5e139f00000000000000000000000000000000000000000000000000000000145b8061073b57507f01ffc9a7000000000000000000000000000000000000000000000000000000006001600160e01b031983161461073b565b6000818152600260205260409020546001600160a01b0316610e6a5760405162461bcd60e51b815260206004820152601860248201527f4552433732313a20696e76616c696420746f6b656e2049440000000000000000604482015260640161088b565b6000818152600460205260409020805473ffffffffffffffffffffffffffffffffffffffff19166001600160a01b038416908117909155819061213382611013565b6001600160a01b03167f8c5be1e5ebec7d5bd14f71427d1e84f3dd0314c0f7b2291e5b200ac8c7c3b92560405160405180910390a45050565b600b546001600160a01b031633146121c65760405162461bcd60e51b815260206004820181905260248201527f4f776e61626c653a2063616c6c6572206973206e6f7420746865206f776e6572604482015260640161088b565b565b6000806121d483611013565b9050806001600160a01b0316846001600160a01b0316148061221b57506001600160a01b0380821660009081526005602090815260408083209388168352929052205460ff165b8061223f5750836001600160a01b0316612234846107d3565b6001600160a01b0316145b949350505050565b826001600160a01b031661225a82611013565b6001600160a01b0316146122d65760405162461bcd60e51b815260206004820152602560248201527f4552433732313a207472616e736665722066726f6d20696e636f72726563742060448201527f6f776e6572000000000000000000000000000000000000000000000000000000606482015260840161088b565b6001600160a01b0382166123515760405162461bcd60e51b8152602060048201526024808201527f4552433732313a207472616e7366657220746f20746865207a65726f2061646460448201527f7265737300000000000000000000000000000000000000000000000000000000606482015260840161088b565b61235c8383836128ba565b6123676000826120f1565b6001600160a01b038316600090815260036020526040812080546001929061239090849061346b565b90915550506001600160a01b03821660009081526003602052604081208054600192906123be90849061343f565b9091555050600081815260026020526040808220805473ffffffffffffffffffffffffffffffffffffffff19166001600160a01b0386811691821790925591518493918716917fddf252ad1be2c89b69c2b068fc378daa952ba7f163c4a11628f55a4df523b3ef91a4505050565b816001600160a01b0316836001600160a01b0316141561248e5760405162461bcd60e51b815260206004820152601960248201527f4552433732313a20617070726f766520746f2063616c6c657200000000000000604482015260640161088b565b6001600160a01b03838116600081815260056020908152604080832094871680845294825291829020805460ff191686151590811790915591519182527f17307eab39ab6107e8899845ad3d59bd9653f200f220920489ca2b5937696c31910160405180910390a3505050565b612506848484612247565b61251284848484612972565b611a135760405162461bcd60e51b815260206004820152603260248201527f4552433732313a207472616e7366657220746f206e6f6e20455243373231526560448201527f63656976657220696d706c656d656e7465720000000000000000000000000000606482015260840161088b565b6001600160a01b0382166125da5760405162461bcd60e51b815260206004820181905260248201527f4552433732313a206d696e7420746f20746865207a65726f2061646472657373604482015260640161088b565b6000818152600260205260409020546001600160a01b03161561263f5760405162461bcd60e51b815260206004820152601c60248201527f4552433732313a20746f6b656e20616c7265616479206d696e74656400000000604482015260640161088b565b61264b600083836128ba565b6001600160a01b038216600090815260036020526040812080546001929061267490849061343f565b9091555050600081815260026020526040808220805473ffffffffffffffffffffffffffffffffffffffff19166001600160a01b03861690811790915590518392907fddf252ad1be2c89b69c2b068fc378daa952ba7f163c4a11628f55a4df523b3ef908290a45050565b6000828152600260205260409020546001600160a01b03166127695760405162461bcd60e51b815260206004820152602c60248201527f4552433732314d657461646174613a2055524920736574206f66206e6f6e657860448201527f697374656e7420746f6b656e0000000000000000000000000000000000000000606482015260840161088b565b6000828152601160209081526040909120825161092c92840190612c65565b6060816127c857505060408051808201909152600181527f3000000000000000000000000000000000000000000000000000000000000000602082015290565b8160005b81156127f257806127dc816134e9565b91506127eb9050600a83613457565b91506127cc565b60008167ffffffffffffffff81111561280d5761280d613570565b6040519080825280601f01601f191660200182016040528015612837576020820181803683370190505b5090505b841561223f5761284c60018361346b565b9150612859600a86613504565b61286490603061343f565b60f81b8183815181106128795761287961355a565b60200101907effffffffffffffffffffffffffffffffffffffffffffffffffffffffffffff1916908160001a9053506128b3600a86613457565b945061283b565b6001600160a01b0383166129155761291081600880546000838152600960205260408120829055600182018355919091527ff3f7a9fe364faab93b216da50a3214154f22a0a2b415b23a84c8169e8b636ee30155565b612938565b816001600160a01b0316836001600160a01b031614612938576129388382612ad5565b6001600160a01b03821661294f5761092c81612b72565b826001600160a01b0316826001600160a01b03161461092c5761092c8282612c21565b60006001600160a01b0384163b15612aca57604051630a85bd0160e11b81526001600160a01b0385169063150b7a02906129b69033908990889088906004016132a4565b602060405180830381600087803b1580156129d057600080fd5b505af1925050508015612a00575060408051601f3d908101601f191682019092526129fd91810190613046565b60015b612ab0573d808015612a2e576040519150601f19603f3d011682016040523d82523d6000602084013e612a33565b606091505b508051612aa85760405162461bcd60e51b815260206004820152603260248201527f4552433732313a207472616e7366657220746f206e6f6e20455243373231526560448201527f63656976657220696d706c656d656e7465720000000000000000000000000000606482015260840161088b565b805181602001fd5b6001600160e01b031916630a85bd0160e11b14905061223f565b506001949350505050565b60006001612ae284611078565b612aec919061346b565b600083815260076020526040902054909150808214612b3f576001600160a01b03841660009081526006602090815260408083208584528252808320548484528184208190558352600790915290208190555b5060009182526007602090815260408084208490556001600160a01b039094168352600681528383209183525290812055565b600854600090612b849060019061346b565b60008381526009602052604081205460088054939450909284908110612bac57612bac61355a565b906000526020600020015490508060088381548110612bcd57612bcd61355a565b6000918252602080832090910192909255828152600990915260408082208490558582528120556008805480612c0557612c05613544565b6001900381819060005260206000200160009055905550505050565b6000612c2c83611078565b6001600160a01b039093166000908152600660209081526040808320868452825280832085905593825260079052919091209190915550565b828054612c71906134ae565b90600052602060002090601f016020900481019282612c935760008555612cd9565b82601f10612cac57805160ff1916838001178555612cd9565b82800160010185558215612cd9579182015b82811115612cd9578251825591602001919060010190612cbe565b50612ce5929150612d9a565b5090565b828054612cf5906134ae565b90600052602060002090601f016020900481019282612d175760008555612cd9565b82601f10612d285780548555612cd9565b82800160010185558215612cd957600052602060002091601f016020900482015b82811115612cd9578254825591600101919060010190612d49565b508054612d70906134ae565b6000825580601f10612d80575050565b601f016020900490600052602060002090810190610e6a91905b5b80821115612ce55760008155600101612d9b565b600067ffffffffffffffff80841115612dca57612dca613570565b604051601f8501601f19908116603f01168101908282118183101715612df257612df2613570565b81604052809350858152868686011115612e0b57600080fd5b858560208301376000602087830101525050509392505050565b80356001600160a01b0381168114612e3c57600080fd5b919050565b80358015158114612e3c57600080fd5b600082601f830112612e6257600080fd5b612e7183833560208501612daf565b9392505050565b600060208284031215612e8a57600080fd5b612e7182612e25565b60008060408385031215612ea657600080fd5b612eaf83612e25565b9150612ebd60208401612e25565b90509250929050565b600080600060608486031215612edb57600080fd5b612ee484612e25565b9250612ef260208501612e25565b9150604084013590509250925092565b60008060008060808587031215612f1857600080fd5b612f2185612e25565b9350612f2f60208601612e25565b925060408501359150606085013567ffffffffffffffff811115612f5257600080fd5b8501601f81018713612f6357600080fd5b612f7287823560208401612daf565b91505092959194509250565b60008060408385031215612f9157600080fd5b612f9a83612e25565b9150612ebd60208401612e41565b600080600060608486031215612fbd57600080fd5b612fc684612e25565b9250602084013567ffffffffffffffff811115612fe257600080fd5b612fee86828701612e51565b925050604084013590509250925092565b6000806040838503121561301257600080fd5b61301b83612e25565b946020939093013593505050565b60006020828403121561303b57600080fd5b8135612e7181613586565b60006020828403121561305857600080fd5b8151612e7181613586565b60006020828403121561307557600080fd5b813567ffffffffffffffff81111561308c57600080fd5b61223f84828501612e51565b600080604083850312156130ab57600080fd5b823567ffffffffffffffff808211156130c357600080fd5b6130cf86838701612e51565b935060208501359150808211156130e557600080fd5b506130f285828601612e51565b9150509250929050565b60008060006060848603121561311157600080fd5b833567ffffffffffffffff8082111561312957600080fd5b61313587838801612e51565b9450602086013591508082111561314b57600080fd5b50612fee86828701612e51565b60006020828403121561316a57600080fd5b5035919050565b6000806040838503121561318457600080fd5b82359150612ebd60208401612e41565b600081518084526020808501808196508360051b8101915082860160005b858110156132025782840389528151604081518187526131d48288018261320f565b915050868201519150858103878701526131ee818361320f565b9a87019a95505050908401906001016131b2565b5091979650505050505050565b60008151808452613227816020860160208601613482565b601f01601f19169290920160200192915050565b6000835161324d818460208801613482565b835190830190613261818360208801613482565b01949350505050565b60008251805161327e818560208501613482565b6020948501516001600160a01b0316601f91909101601f19169390930192835250500190565b60006001600160a01b038087168352808616602084015250836040830152608060608301526132d6608083018461320f565b9695505050505050565b60006020808301818452808551808352604092508286019150828160051b87010184880160005b8381101561335157888303603f190185528151805187855261332b8886018261320f565b918901516001600160a01b03169489019490945294870194925090860190600101613307565b509098975050505050505050565b602081526000612e716020830184613194565b602081526000612e71602083018461320f565b60208152815160208201526001600160a01b0360208301511660408201526000604083015160c060608401526133be60e084018261320f565b90506060840151601f19808584030160808601526133dc838361320f565b925060808601519150808584030160a08601526133f98383613194565b925060a08601519150808584030160c0860152506134178282613194565b95945050505050565b838152826020820152606060408201526000613417606083018461320f565b6000821982111561345257613452613518565b500190565b6000826134665761346661352e565b500490565b60008282101561347d5761347d613518565b500390565b60005b8381101561349d578181015183820152602001613485565b83811115611a135750506000910152565b600181811c908216806134c257607f821691505b602082108114156134e357634e487b7160e01b600052602260045260246000fd5b50919050565b60006000198214156134fd576134fd613518565b5060010190565b6000826135135761351361352e565b500690565b634e487b7160e01b600052601160045260246000fd5b634e487b7160e01b600052601260045260246000fd5b634e487b7160e01b600052603160045260246000fd5b634e487b7160e01b600052603260045260246000fd5b634e487b7160e01b600052604160045260246000fd5b6001600160e01b031981168114610e6a57600080fdfea26469706673582212208ef5e82be2e28f3b6c050ad3070d9887377156f24efe8224b857dfe48e477b9664736f6c63430008070033",
  "linkReferences": {},
  "deployedLinkReferences": {}
}