{
  "_format": "hh-sol-artifact-1",
  "contractName": "Tambora",
  "sourceName": "contracts/Tambora.sol",
  "abi": [
    {
      "inputs": [
        {
          "internalType": "address",
          "name": "deployer",
          "type": "address"
        },
        {
          "internalType": "string",
          "name": "name",
          "type": "string"
        },
        {
          "internalType": "string",
          "name": "symbol",
          "type": "string"
        },
        {
          "internalType": "uint256",
          "name": "price_",
          "type": "uint256"
        },
        {
          "internalType": "string",
          "name": "contractType_",
          "type": "string"
        },
        {
          "internalType": "address",
          "name": "to_",
          "type": "address"
        },
        {
          "internalType": "string",
          "name": "uri_",
          "type": "string"
        },
        {
          "internalType": "address",
          "name": "factoryOwner_",
          "type": "address"
        },
        {
          "internalType": "uint256",
          "name": "mintFee_",
          "type": "uint256"
        },
        {
          "internalType": "uint256",
          "name": "contractFee_",
          "type": "uint256"
        }
      ],
      "stateMutability": "nonpayable",
      "type": "constructor"
    },
    {
      "anonymous": false,
      "inputs": [
        {
          "indexed": true,
          "internalType": "address",
          "name": "owner",
          "type": "address"
        },
        {
          "indexed": true,
          "internalType": "address",
          "name": "approved",
          "type": "address"
        },
        {
          "indexed": true,
          "internalType": "uint256",
          "name": "tokenId",
          "type": "uint256"
        }
      ],
      "name": "Approval",
      "type": "event"
    },
    {
      "anonymous": false,
      "inputs": [
        {
          "indexed": true,
          "internalType": "address",
          "name": "owner",
          "type": "address"
        },
        {
          "indexed": true,
          "internalType": "address",
          "name": "operator",
          "type": "address"
        },
        {
          "indexed": false,
          "internalType": "bool",
          "name": "approved",
          "type": "bool"
        }
      ],
      "name": "ApprovalForAll",
      "type": "event"
    },
    {
      "anonymous": false,
      "inputs": [
        {
          "indexed": true,
          "internalType": "string",
          "name": "name",
          "type": "string"
        }
      ],
      "name": "FileAdded",
      "type": "event"
    },
    {
      "anonymous": false,
      "inputs": [
        {
          "indexed": true,
          "internalType": "string",
          "name": "name",
          "type": "string"
        },
        {
          "indexed": true,
          "internalType": "address",
          "name": "addr",
          "type": "address"
        }
      ],
      "name": "Request",
      "type": "event"
    },
    {
      "anonymous": false,
      "inputs": [
        {
          "indexed": true,
          "internalType": "string",
          "name": "name",
          "type": "string"
        },
        {
          "indexed": true,
          "internalType": "address",
          "name": "addr",
          "type": "address"
        },
        {
          "indexed": true,
          "internalType": "bool",
          "name": "res",
          "type": "bool"
        }
      ],
      "name": "Response",
      "type": "event"
    },
    {
      "anonymous": false,
      "inputs": [
        {
          "indexed": true,
          "internalType": "address",
          "name": "from",
          "type": "address"
        },
        {
          "indexed": true,
          "internalType": "address",
          "name": "to",
          "type": "address"
        },
        {
          "indexed": true,
          "internalType": "uint256",
          "name": "tokenId",
          "type": "uint256"
        }
      ],
      "name": "Transfer",
      "type": "event"
    },
    {
      "inputs": [
        {
          "internalType": "string",
          "name": "name_",
          "type": "string"
        },
        {
          "internalType": "string",
          "name": "uri_",
          "type": "string"
        }
      ],
      "name": "addFileLocation",
      "outputs": [],
      "stateMutability": "nonpayable",
      "type": "function"
    },
    {
      "inputs": [],
      "name": "allottedAmount",
      "outputs": [
        {
          "internalType": "uint256",
          "name": "",
          "type": "uint256"
        }
      ],
      "stateMutability": "view",
      "type": "function"
    },
    {
      "inputs": [
        {
          "internalType": "address",
          "name": "to",
          "type": "address"
        },
        {
          "internalType": "uint256",
          "name": "tokenId",
          "type": "uint256"
        }
      ],
      "name": "approve",
      "outputs": [],
      "stateMutability": "nonpayable",
      "type": "function"
    },
    {
      "inputs": [
        {
          "internalType": "uint256",
          "name": "index_",
          "type": "uint256"
        }
      ],
      "name": "approveMintIncrease",
      "outputs": [],
      "stateMutability": "nonpayable",
      "type": "function"
    },
    {
      "inputs": [
        {
          "internalType": "uint256",
          "name": "index",
          "type": "uint256"
        },
        {
          "internalType": "bool",
          "name": "decision",
          "type": "bool"
        }
      ],
      "name": "approveOrDenyClient",
      "outputs": [],
      "stateMutability": "nonpayable",
      "type": "function"
    },
    {
      "inputs": [
        {
          "internalType": "address",
          "name": "",
          "type": "address"
        }
      ],
      "name": "approvedName",
      "outputs": [
        {
          "internalType": "string",
          "name": "",
          "type": "string"
        }
      ],
      "stateMutability": "view",
      "type": "function"
    },
    {
      "inputs": [
        {
          "internalType": "address",
          "name": "owner",
          "type": "address"
        }
      ],
      "name": "balanceOf",
      "outputs": [
        {
          "internalType": "uint256",
          "name": "",
          "type": "uint256"
        }
      ],
      "stateMutability": "view",
      "type": "function"
    },
    {
      "inputs": [],
      "name": "contractFee",
      "outputs": [
        {
          "internalType": "uint256",
          "name": "",
          "type": "uint256"
        }
      ],
      "stateMutability": "view",
      "type": "function"
    },
    {
      "inputs": [],
      "name": "contractType",
      "outputs": [
        {
          "internalType": "string",
          "name": "",
          "type": "string"
        }
      ],
      "stateMutability": "view",
      "type": "function"
    },
    {
      "inputs": [
        {
          "internalType": "uint256",
          "name": "index_",
          "type": "uint256"
        }
      ],
      "name": "denyMintIncrease",
      "outputs": [],
      "stateMutability": "nonpayable",
      "type": "function"
    },
    {
      "inputs": [
        {
          "internalType": "string",
          "name": "uri",
          "type": "string"
        }
      ],
      "name": "finalizeClient",
      "outputs": [],
      "stateMutability": "payable",
      "type": "function"
    },
    {
      "inputs": [
        {
          "internalType": "uint256",
          "name": "mintId_",
          "type": "uint256"
        }
      ],
      "name": "finalizeMintIncrease",
      "outputs": [],
      "stateMutability": "payable",
      "type": "function"
    },
    {
      "inputs": [
        {
          "internalType": "uint256",
          "name": "tokenId",
          "type": "uint256"
        }
      ],
      "name": "getApproved",
      "outputs": [
        {
          "internalType": "address",
          "name": "",
          "type": "address"
        }
      ],
      "stateMutability": "view",
      "type": "function"
    },
    {
      "inputs": [],
      "name": "getFileStore",
      "outputs": [
        {
          "components": [
            {
              "internalType": "string",
              "name": "name",
              "type": "string"
            },
            {
              "internalType": "string",
              "name": "uri",
              "type": "string"
            }
          ],
          "internalType": "struct Tambora.File[]",
          "name": "",
          "type": "tuple[]"
        }
      ],
      "stateMutability": "view",
      "type": "function"
    },
    {
      "inputs": [],
      "name": "getMintRequests",
      "outputs": [
        {
          "components": [
            {
              "internalType": "string",
              "name": "name",
              "type": "string"
            },
            {
              "internalType": "address",
              "name": "addr",
              "type": "address"
            }
          ],
          "internalType": "struct Tambora.Client[]",
          "name": "",
          "type": "tuple[]"
        }
      ],
      "stateMutability": "view",
      "type": "function"
    },
    {
      "inputs": [],
      "name": "getPendingClients",
      "outputs": [
        {
          "components": [
            {
              "internalType": "string",
              "name": "name",
              "type": "string"
            },
            {
              "internalType": "address",
              "name": "addr",
              "type": "address"
            }
          ],
          "internalType": "struct Tambora.Client[]",
          "name": "",
          "type": "tuple[]"
        }
      ],
      "stateMutability": "view",
      "type": "function"
    },
    {
      "inputs": [],
      "name": "getShowData",
      "outputs": [
        {
          "components": [
            {
              "internalType": "uint256",
              "name": "tokenId",
              "type": "uint256"
            },
            {
              "internalType": "address",
              "name": "manager",
              "type": "address"
            },
            {
              "internalType": "string",
              "name": "contractType",
              "type": "string"
            },
            {
              "internalType": "string",
              "name": "tokenURI",
              "type": "string"
            },
            {
              "components": [
                {
                  "internalType": "string",
                  "name": "name",
                  "type": "string"
                },
                {
                  "internalType": "string",
                  "name": "uri",
                  "type": "string"
                }
              ],
              "internalType": "struct Tambora.File[]",
              "name": "fileStore",
              "type": "tuple[]"
            },
            {
              "components": [
                {
                  "internalType": "uint256",
                  "name": "blockNumber",
                  "type": "uint256"
                },
                {
                  "internalType": "uint256",
                  "name": "timeStamp",
                  "type": "uint256"
                },
                {
                  "internalType": "string",
                  "name": "uri",
                  "type": "string"
                }
              ],
              "internalType": "struct Tambora.Token",
              "name": "tokenData",
              "type": "tuple"
            },
            {
              "internalType": "uint256",
              "name": "price",
              "type": "uint256"
            }
          ],
          "internalType": "struct Tambora.ShowData",
          "name": "",
          "type": "tuple"
        }
      ],
      "stateMutability": "view",
      "type": "function"
    },
    {
      "inputs": [
        {
          "internalType": "uint256",
          "name": "id_",
          "type": "uint256"
        }
      ],
      "name": "getTokenData",
      "outputs": [
        {
          "components": [
            {
              "internalType": "uint256",
              "name": "blockNumber",
              "type": "uint256"
            },
            {
              "internalType": "uint256",
              "name": "timeStamp",
              "type": "uint256"
            },
            {
              "internalType": "string",
              "name": "uri",
              "type": "string"
            }
          ],
          "internalType": "struct Tambora.Token",
          "name": "",
          "type": "tuple"
        }
      ],
      "stateMutability": "view",
      "type": "function"
    },
    {
      "inputs": [
        {
          "internalType": "address",
          "name": "addr_",
          "type": "address"
        }
      ],
      "name": "getUserData",
      "outputs": [
        {
          "components": [
            {
              "internalType": "uint256",
              "name": "balance",
              "type": "uint256"
            },
            {
              "internalType": "bool",
              "name": "pending",
              "type": "bool"
            },
            {
              "internalType": "bool",
              "name": "approved",
              "type": "bool"
            },
            {
              "internalType": "string",
              "name": "name",
              "type": "string"
            }
          ],
          "internalType": "struct Tambora.User",
          "name": "",
          "type": "tuple"
        }
      ],
      "stateMutability": "view",
      "type": "function"
    },
    {
      "inputs": [],
      "name": "increaseContractMintAllowance",
      "outputs": [],
      "stateMutability": "payable",
      "type": "function"
    },
    {
      "inputs": [
        {
          "internalType": "address",
          "name": "",
          "type": "address"
        }
      ],
      "name": "isApproved",
      "outputs": [
        {
          "internalType": "bool",
          "name": "",
          "type": "bool"
        }
      ],
      "stateMutability": "view",
      "type": "function"
    },
    {
      "inputs": [
        {
          "internalType": "address",
          "name": "owner",
          "type": "address"
        },
        {
          "internalType": "address",
          "name": "operator",
          "type": "address"
        }
      ],
      "name": "isApprovedForAll",
      "outputs": [
        {
          "internalType": "bool",
          "name": "",
          "type": "bool"
        }
      ],
      "stateMutability": "view",
      "type": "function"
    },
    {
      "inputs": [
        {
          "internalType": "address",
          "name": "",
          "type": "address"
        }
      ],
      "name": "isPending",
      "outputs": [
        {
          "internalType": "bool",
          "name": "",
          "type": "bool"
        }
      ],
      "stateMutability": "view",
      "type": "function"
    },
    {
      "inputs": [
        {
          "internalType": "uint256",
          "name": "",
          "type": "uint256"
        }
      ],
      "name": "memberTokens",
      "outputs": [
        {
          "internalType": "uint256",
          "name": "mintId",
          "type": "uint256"
        },
        {
          "internalType": "uint256",
          "name": "minted",
          "type": "uint256"
        },
        {
          "internalType": "uint256",
          "name": "mintAllowance",
          "type": "uint256"
        }
      ],
      "stateMutability": "view",
      "type": "function"
    },
    {
      "inputs": [
        {
          "internalType": "address",
          "name": "to_",
          "type": "address"
        },
        {
          "internalType": "string",
          "name": "uri",
          "type": "string"
        },
        {
          "internalType": "uint256",
          "name": "mintId_",
          "type": "uint256"
        }
      ],
      "name": "mint",
      "outputs": [],
      "stateMutability": "payable",
      "type": "function"
    },
    {
      "inputs": [],
      "name": "mintAllowance",
      "outputs": [
        {
          "internalType": "uint256",
          "name": "",
          "type": "uint256"
        }
      ],
      "stateMutability": "view",
      "type": "function"
    },
    {
      "inputs": [],
      "name": "mintFee",
      "outputs": [
        {
          "internalType": "uint256",
          "name": "",
          "type": "uint256"
        }
      ],
      "stateMutability": "view",
      "type": "function"
    },
    {
      "inputs": [],
      "name": "name",
      "outputs": [
        {
          "internalType": "string",
          "name": "",
          "type": "string"
        }
      ],
      "stateMutability": "view",
      "type": "function"
    },
    {
      "inputs": [],
      "name": "owner",
      "outputs": [
        {
          "internalType": "address payable",
          "name": "",
          "type": "address"
        }
      ],
      "stateMutability": "view",
      "type": "function"
    },
    {
      "inputs": [
        {
          "internalType": "uint256",
          "name": "tokenId",
          "type": "uint256"
        }
      ],
      "name": "ownerOf",
      "outputs": [
        {
          "internalType": "address",
          "name": "",
          "type": "address"
        }
      ],
      "stateMutability": "view",
      "type": "function"
    },
    {
      "inputs": [],
      "name": "price",
      "outputs": [
        {
          "internalType": "uint256",
          "name": "",
          "type": "uint256"
        }
      ],
      "stateMutability": "view",
      "type": "function"
    },
    {
      "inputs": [
        {
          "internalType": "string",
          "name": "name",
          "type": "string"
        }
      ],
      "name": "requestApproval",
      "outputs": [],
      "stateMutability": "nonpayable",
      "type": "function"
    },
    {
      "inputs": [
        {
          "internalType": "uint256",
          "name": "mintId_",
          "type": "uint256"
        },
        {
          "internalType": "string",
          "name": "name_",
          "type": "string"
        }
      ],
      "name": "requestMintIncrease",
      "outputs": [],
      "stateMutability": "nonpayable",
      "type": "function"
    },
    {
      "inputs": [
        {
          "internalType": "address",
          "name": "from",
          "type": "address"
        },
        {
          "internalType": "address",
          "name": "to",
          "type": "address"
        },
        {
          "internalType": "uint256",
          "name": "tokenId",
          "type": "uint256"
        }
      ],
      "name": "safeTransferFrom",
      "outputs": [],
      "stateMutability": "nonpayable",
      "type": "function"
    },
    {
      "inputs": [
        {
          "internalType": "address",
          "name": "from",
          "type": "address"
        },
        {
          "internalType": "address",
          "name": "to",
          "type": "address"
        },
        {
          "internalType": "uint256",
          "name": "tokenId",
          "type": "uint256"
        },
        {
          "internalType": "bytes",
          "name": "data",
          "type": "bytes"
        }
      ],
      "name": "safeTransferFrom",
      "outputs": [],
      "stateMutability": "nonpayable",
      "type": "function"
    },
    {
      "inputs": [
        {
          "internalType": "address",
          "name": "operator",
          "type": "address"
        },
        {
          "internalType": "bool",
          "name": "approved",
          "type": "bool"
        }
      ],
      "name": "setApprovalForAll",
      "outputs": [],
      "stateMutability": "nonpayable",
      "type": "function"
    },
    {
      "inputs": [
        {
          "internalType": "bytes4",
          "name": "interfaceId",
          "type": "bytes4"
        }
      ],
      "name": "supportsInterface",
      "outputs": [
        {
          "internalType": "bool",
          "name": "",
          "type": "bool"
        }
      ],
      "stateMutability": "view",
      "type": "function"
    },
    {
      "inputs": [],
      "name": "symbol",
      "outputs": [
        {
          "internalType": "string",
          "name": "",
          "type": "string"
        }
      ],
      "stateMutability": "view",
      "type": "function"
    },
    {
      "inputs": [
        {
          "internalType": "uint256",
          "name": "index",
          "type": "uint256"
        }
      ],
      "name": "tokenByIndex",
      "outputs": [
        {
          "internalType": "uint256",
          "name": "",
          "type": "uint256"
        }
      ],
      "stateMutability": "view",
      "type": "function"
    },
    {
      "inputs": [
        {
          "internalType": "address",
          "name": "owner",
          "type": "address"
        },
        {
          "internalType": "uint256",
          "name": "index",
          "type": "uint256"
        }
      ],
      "name": "tokenOfOwnerByIndex",
      "outputs": [
        {
          "internalType": "uint256",
          "name": "",
          "type": "uint256"
        }
      ],
      "stateMutability": "view",
      "type": "function"
    },
    {
      "inputs": [
        {
          "internalType": "uint256",
          "name": "tokenId_",
          "type": "uint256"
        }
      ],
      "name": "tokenURI",
      "outputs": [
        {
          "internalType": "string",
          "name": "",
          "type": "string"
        }
      ],
      "stateMutability": "view",
      "type": "function"
    },
    {
      "inputs": [],
      "name": "totalCost",
      "outputs": [
        {
          "internalType": "uint256",
          "name": "",
          "type": "uint256"
        }
      ],
      "stateMutability": "view",
      "type": "function"
    },
    {
      "inputs": [],
      "name": "totalSupply",
      "outputs": [
        {
          "internalType": "uint256",
          "name": "",
          "type": "uint256"
        }
      ],
      "stateMutability": "view",
      "type": "function"
    },
    {
      "inputs": [
        {
          "internalType": "address",
          "name": "from",
          "type": "address"
        },
        {
          "internalType": "address",
          "name": "to",
          "type": "address"
        },
        {
          "internalType": "uint256",
          "name": "tokenId",
          "type": "uint256"
        }
      ],
      "name": "transferFrom",
      "outputs": [],
      "stateMutability": "nonpayable",
      "type": "function"
    },
    {
      "inputs": [],
      "name": "version",
      "outputs": [
        {
          "internalType": "string",
          "name": "",
          "type": "string"
        }
      ],
      "stateMutability": "view",
      "type": "function"
    }
  ],
  "bytecode": "0x60806040523480156200001157600080fd5b50604051620046ec380380620046ec8339810160408190526200003491620009d7565b8851899089906200004d9060009060208501906200085d565b508051620000639060019060208401906200085d565b5050600b80546001600160a01b03808e166001600160a01b031992831617909255600a80549287169290911691909117905550600f879055600c829055620000ac828862000ae8565b601055600d8190558551620000c99060139060208901906200085d565b50600a6012819055605a60115560408051606081018252600080825260016020808401918252938301948552818052601990935290517fd2ac945fcc0096878c763e37d6929b78378c1a2defabde8ba7ee5ed1d6e7a5b25590517fd2ac945fcc0096878c763e37d6929b78378c1a2defabde8ba7ee5ed1d6e7a5b35590517fd2ac945fcc0096878c763e37d6929b78378c1a2defabde8ba7ee5ed1d6e7a5b455620001769086906200026d565b6200018360008562000412565b6001600e556040805160608101825243815242602080830191825292820187815260008052601a845282517fb75ecc04ed35f89790e98640e901bda41eceff0cb896cf2765fb69768025375090815591517fb75ecc04ed35f89790e98640e901bda41eceff0cb896cf2765fb69768025375155518051929391926200022c927fb75ecc04ed35f89790e98640e901bda41eceff0cb896cf2765fb6976802537529201906200085d565b5050604080518082019091526003808252620312e360ec1b60209092019182526200025c9250601491906200085d565b505050505050505050505062000bb2565b6001600160a01b038216620002c95760405162461bcd60e51b815260206004820181905260248201527f4552433732313a206d696e7420746f20746865207a65726f206164647265737360448201526064015b60405180910390fd5b6000818152600260205260409020546001600160a01b031615620003305760405162461bcd60e51b815260206004820152601c60248201527f4552433732313a20746f6b656e20616c7265616479206d696e746564000000006044820152606401620002c0565b62000340600083836001620004b3565b6000818152600260205260409020546001600160a01b031615620003a75760405162461bcd60e51b815260206004820152601c60248201527f4552433732313a20746f6b656e20616c7265616479206d696e746564000000006044820152606401620002c0565b6001600160a01b038216600081815260036020908152604080832080546001019055848352600290915280822080546001600160a01b0319168417905551839291907fddf252ad1be2c89b69c2b068fc378daa952ba7f163c4a11628f55a4df523b3ef908290a45050565b6000828152600260205260409020546001600160a01b03166200048d5760405162461bcd60e51b815260206004820152602c60248201527f4552433732314d657461646174613a2055524920736574206f66206e6f6e657860448201526b34b9ba32b73a103a37b5b2b760a11b6064820152608401620002c0565b60008281526015602090815260409091208251620004ae928401906200085d565b505050565b620004cc848484846200061760201b62001a721760201c565b6001811115620005455760405162461bcd60e51b815260206004820152603560248201527f455243373231456e756d657261626c653a20636f6e736563757469766520747260448201527f616e7366657273206e6f7420737570706f7274656400000000000000000000006064820152608401620002c0565b816001600160a01b038516620005a4576200059e81600880546000838152600960205260408120829055600182018355919091527ff3f7a9fe364faab93b216da50a3214154f22a0a2b415b23a84c8169e8b636ee30155565b620005ca565b836001600160a01b0316856001600160a01b031614620005ca57620005ca85826200061d565b6001600160a01b038416620005ea57620005e481620006ca565b62000610565b846001600160a01b0316846001600160a01b031614620006105762000610848262000784565b5050505050565b50505050565b600060016200063784620007d560201b620011b01760201c565b62000643919062000b03565b60008381526007602052604090205490915080821462000697576001600160a01b03841660009081526006602090815260408083208584528252808320548484528184208190558352600790915290208190555b5060009182526007602090815260408084208490556001600160a01b039094168352600681528383209183525290812055565b600854600090620006de9060019062000b03565b6000838152600960205260408120546008805493945090928490811062000709576200070962000b86565b9060005260206000200154905080600883815481106200072d576200072d62000b86565b600091825260208083209091019290925582815260099091526040808220849055858252812055600880548062000768576200076862000b70565b6001900381819060005260206000200160009055905550505050565b60006200079c83620007d560201b620011b01760201c565b6001600160a01b039093166000908152600660209081526040808320868452825280832085905593825260079052919091209190915550565b60006001600160a01b038216620008415760405162461bcd60e51b815260206004820152602960248201527f4552433732313a2061646472657373207a65726f206973206e6f7420612076616044820152683634b21037bbb732b960b91b6064820152608401620002c0565b506001600160a01b031660009081526003602052604090205490565b8280546200086b9062000b1d565b90600052602060002090601f0160209004810192826200088f5760008555620008da565b82601f10620008aa57805160ff1916838001178555620008da565b82800160010185558215620008da579182015b82811115620008da578251825591602001919060010190620008bd565b50620008e8929150620008ec565b5090565b5b80821115620008e85760008155600101620008ed565b80516001600160a01b03811681146200091b57600080fd5b919050565b600082601f8301126200093257600080fd5b81516001600160401b03808211156200094f576200094f62000b9c565b604051601f8301601f19908116603f011681019082821181831017156200097a576200097a62000b9c565b816040528381526020925086838588010111156200099757600080fd5b600091505b83821015620009bb57858201830151818301840152908201906200099c565b83821115620009cd5760008385830101525b9695505050505050565b6000806000806000806000806000806101408b8d031215620009f857600080fd5b62000a038b62000903565b60208c0151909a506001600160401b038082111562000a2157600080fd5b62000a2f8e838f0162000920565b9a5060408d015191508082111562000a4657600080fd5b62000a548e838f0162000920565b995060608d0151985060808d015191508082111562000a7257600080fd5b62000a808e838f0162000920565b975062000a9060a08e0162000903565b965060c08d015191508082111562000aa757600080fd5b5062000ab68d828e0162000920565b94505062000ac760e08c0162000903565b92506101008b015191506101208b015190509295989b9194979a5092959850565b6000821982111562000afe5762000afe62000b5a565b500190565b60008282101562000b185762000b1862000b5a565b500390565b600181811c9082168062000b3257607f821691505b6020821081141562000b5457634e487b7160e01b600052602260045260246000fd5b50919050565b634e487b7160e01b600052601160045260246000fd5b634e487b7160e01b600052603160045260246000fd5b634e487b7160e01b600052603260045260246000fd5b634e487b7160e01b600052604160045260246000fd5b613b2a8062000bc26000396000f3fe6080604052600436106102725760003560e01c80638da5cb5b1161014f578063b09afec1116100c1578063d431a2481161007a578063d431a24814610773578063e985e9c514610786578063eb9ce163146107cf578063f9dc375f146107e4578063ffc9896b146107f7578063ffe644341461082457600080fd5b8063b09afec1146106c8578063b88d4fde146106f5578063ba7aef4314610715578063c87b56dd14610728578063cb2ef6f714610748578063d41977cd1461075d57600080fd5b8063a035b1fe11610113578063a035b1fe146105d9578063a22cb465146105ef578063a28039cd1461060f578063a91845821461062f578063aeb20b941461064f578063af80a5be146106a657600080fd5b80638da5cb5b1461053457806395d89b4114610554578063967615951461056957806397a3334214610589578063a00745b6146105a957600080fd5b80633c084fa5116101e857806354fd4d50116101ac57806354fd4d50146104855780635a9be11b1461049a5780635bf61cfe146104a25780636352211e146104c4578063673448dd146104e457806370a082311461051457600080fd5b80633c084fa5146103ef5780633c5e6c971461040f5780634261917a1461042557806342842e0e146104455780634f6ccce71461046557600080fd5b806313966db51161023a57806313966db51461034a57806318160ddd1461036e5780632291e3881461038357806323b872dd146103995780632f745c59146103b9578063396876bd146103d957600080fd5b806301ffc9a71461027757806306fdde03146102ac578063081812fc146102ce578063095ea7b3146103065780630e37b4fd14610328575b600080fd5b34801561028357600080fd5b506102976102923660046134af565b610844565b60405190151581526020015b60405180910390f35b3480156102b857600080fd5b506102c161086f565b6040516102a391906137e5565b3480156102da57600080fd5b506102ee6102e9366004613582565b610901565b6040516001600160a01b0390911681526020016102a3565b34801561031257600080fd5b50610326610321366004613485565b610928565b005b34801561033457600080fd5b5061033d610a43565b6040516102a391906137d2565b34801561035657600080fd5b50610360600c5481565b6040519081526020016102a3565b34801561037a57600080fd5b50600854610360565b34801561038f57600080fd5b5061036060125481565b3480156103a557600080fd5b506103266103b436600461334c565b610bdb565b3480156103c557600080fd5b506103606103d4366004613485565b610c0c565b3480156103e557600080fd5b5061036060115481565b3480156103fb57600080fd5b5061032661040a3660046135be565b610ca2565b34801561041b57600080fd5b5061036060105481565b34801561043157600080fd5b5061032661044036600461351e565b610dae565b34801561045157600080fd5b5061032661046036600461334c565b610e76565b34801561047157600080fd5b50610360610480366004613582565b610e91565b34801561049157600080fd5b506102c1610f24565b610326610fb2565b3480156104ae57600080fd5b506104b7611055565b6040516102a39190613753565b3480156104d057600080fd5b506102ee6104df366004613582565b611150565b3480156104f057600080fd5b506102976104ff3660046132fe565b60176020526000908152604090205460ff1681565b34801561052057600080fd5b5061036061052f3660046132fe565b6111b0565b34801561054057600080fd5b50600b546102ee906001600160a01b031681565b34801561056057600080fd5b506102c1611236565b34801561057557600080fd5b506103266105843660046134e9565b611245565b34801561059557600080fd5b506102c16105a43660046132fe565b611344565b3480156105b557600080fd5b506102976105c43660046132fe565b60166020526000908152604090205460ff1681565b3480156105e557600080fd5b50610360600f5481565b3480156105fb57600080fd5b5061032661060a366004613404565b61135d565b34801561061b57600080fd5b5061032661062a36600461359b565b61136c565b34801561063b57600080fd5b5061032661064a366004613582565b6115fe565b34801561065b57600080fd5b5061068b61066a366004613582565b60196020526000908152604090208054600182015460029092015490919083565b604080519384526020840192909252908201526060016102a3565b3480156106b257600080fd5b506106bb6116e2565b6040516102a391906138dc565b3480156106d457600080fd5b506106e86106e3366004613582565b611951565b6040516102a39190613985565b34801561070157600080fd5b50610326610710366004613388565b611a40565b61032661072336600461342e565b611a78565b34801561073457600080fd5b506102c1610743366004613582565b611d15565b34801561075457600080fd5b506102c1611ea4565b34801561076957600080fd5b50610360600d5481565b610326610781366004613582565b611eb1565b34801561079257600080fd5b506102976107a1366004613319565b6001600160a01b03918216600090815260056020908152604080832093909416825291909152205460ff1690565b3480156107db57600080fd5b506104b7611faf565b6103266107f23660046134e9565b6120b2565b34801561080357600080fd5b506108176108123660046132fe565b612260565b6040516102a39190613998565b34801561083057600080fd5b5061032661083f366004613582565b612377565b60006001600160e01b0319821663780e9d6360e01b1480610869575061086982612450565b92915050565b60606000805461087e90613a30565b80601f01602080910402602001604051908101604052809291908181526020018280546108aa90613a30565b80156108f75780601f106108cc576101008083540402835291602001916108f7565b820191906000526020600020905b8154815290600101906020018083116108da57829003601f168201915b5050505050905090565b600061090c826124a0565b506000908152600460205260409020546001600160a01b031690565b600061093382611150565b9050806001600160a01b0316836001600160a01b031614156109a65760405162461bcd60e51b815260206004820152602160248201527f4552433732313a20617070726f76616c20746f2063757272656e74206f776e656044820152603960f91b60648201526084015b60405180910390fd5b336001600160a01b03821614806109c257506109c281336107a1565b610a345760405162461bcd60e51b815260206004820152603d60248201527f4552433732313a20617070726f76652063616c6c6572206973206e6f7420746f60448201527f6b656e206f776e6572206f7220617070726f76656420666f7220616c6c000000606482015260840161099d565b610a3e83836124ff565b505050565b60606000610a50336111b0565b11610a5a57600080fd5b601e805480602002602001604051908101604052809291908181526020016000905b82821015610bd25783829060005260206000209060020201604051806040016040529081600082018054610aaf90613a30565b80601f0160208091040260200160405190810160405280929190818152602001828054610adb90613a30565b8015610b285780601f10610afd57610100808354040283529160200191610b28565b820191906000526020600020905b815481529060010190602001808311610b0b57829003601f168201915b50505050508152602001600182018054610b4190613a30565b80601f0160208091040260200160405190810160405280929190818152602001828054610b6d90613a30565b8015610bba5780601f10610b8f57610100808354040283529160200191610bba565b820191906000526020600020905b815481529060010190602001808311610b9d57829003601f168201915b50505050508152505081526020019060010190610a7c565b50505050905090565b610be5338261256d565b610c015760405162461bcd60e51b815260040161099d906137f8565b610a3e8383836125ec565b6000610c17836111b0565b8210610c795760405162461bcd60e51b815260206004820152602b60248201527f455243373231456e756d657261626c653a206f776e657220696e646578206f7560448201526a74206f6620626f756e647360a81b606482015260840161099d565b506001600160a01b03919091166000908152600660209081526040808320938352929052205490565b33610cac83611150565b6001600160a01b031614610cbf57600080fd5b60006040518060400160405280838152602001610cd93390565b6001600160a01b03169052601c805460018101825560009190915281518051929350839260029092027f0e4562a10381dec21b205ed72637e6b1b523bdd0e4d4d50af5cd23dd4500a2110191610d379183916020919091019061307f565b5060209190910151600190910180546001600160a01b0319166001600160a01b03909216919091179055336001600160a01b031682604051610d7991906136cb565b604051908190038120907f963cbefbf06d13486cfc0bc54715f33daf948850da30e2a3c2023e6624687ee190600090a3505050565b610db661275d565b604080518082019091528281526020808201839052601e805460018101825560009190915282518051849360029093027f50bb669a95c7b50b7e8a6f09454034b2b14cf2b85c730dca9a539ca82cb6e3500192610e1792849291019061307f565b506020828101518051610e30926001850192019061307f565b50505082604051610e4191906136cb565b604051908190038120907f035b065922620bc9e29f8f7e5156f5e151ecd66c99b686b6da840a49f68bc20890600090a2505050565b610a3e83838360405180602001604052806000815250611a40565b6000610e9c60085490565b8210610eff5760405162461bcd60e51b815260206004820152602c60248201527f455243373231456e756d657261626c653a20676c6f62616c20696e646578206f60448201526b7574206f6620626f756e647360a01b606482015260840161099d565b60088281548110610f1257610f12613ab2565b90600052602060002001549050919050565b60148054610f3190613a30565b80601f0160208091040260200160405190810160405280929190818152602001828054610f5d90613a30565b8015610faa5780601f10610f7f57610100808354040283529160200191610faa565b820191906000526020600020905b815481529060010190602001808311610f8d57829003601f168201915b505050505081565b610fba61275d565b600d543410156110025760405162461bcd60e51b815260206004820152601360248201527224b739bab33334b1b4b2b73a10333ab732399760691b604482015260640161099d565b60646011600082825461101591906139d5565b9091555050600a546001600160a01b03166108fc346040518115909202916000818181858888f19350505050158015611052573d6000803e3d6000fd5b50565b6060601d805480602002602001604051908101604052809291908181526020016000905b82821015610bd257838290600052602060002090600202016040518060400160405290816000820180546110ac90613a30565b80601f01602080910402602001604051908101604052809291908181526020018280546110d890613a30565b80156111255780601f106110fa57610100808354040283529160200191611125565b820191906000526020600020905b81548152906001019060200180831161110857829003601f168201915b50505091835250506001918201546001600160a01b0316602091820152918352929092019101611079565b6000818152600260205260408120546001600160a01b0316806108695760405162461bcd60e51b8152602060048201526018602482015277115490cdcc8c4e881a5b9d985b1a59081d1bdad95b88125160421b604482015260640161099d565b60006001600160a01b03821661121a5760405162461bcd60e51b815260206004820152602960248201527f4552433732313a2061646472657373207a65726f206973206e6f7420612076616044820152683634b21037bbb732b960b91b606482015260840161099d565b506001600160a01b031660009081526003602052604090205490565b60606001805461087e90613a30565b6000604051806040016040528083815260200161125f3390565b6001600160a01b03169052601d805460018101825560009190915281518051929350839260029092027f6d4407e7be21f808e6509aa9fa9143369579dd7d760fe20a2c09680fc146134f01916112bd9183916020919091019061307f565b50602091820151600191820180546001600160a01b0319166001600160a01b039092169190911790553360008181526016909352604092839020805460ff191690921790915590516113109084906136cb565b604051908190038120907f963cbefbf06d13486cfc0bc54715f33daf948850da30e2a3c2023e6624687ee190600090a35050565b60186020526000908152604090208054610f3190613a30565b6113683383836127b9565b5050565b61137461275d565b6005601154101561138457600080fd5b6000601d838154811061139957611399613ab2565b90600052602060002090600202016040518060400160405290816000820180546113c290613a30565b80601f01602080910402602001604051908101604052809291908181526020018280546113ee90613a30565b801561143b5780601f106114105761010080835404028352916020019161143b565b820191906000526020600020905b81548152906001019060200180831161141e57829003601f168201915b5050509183525050600191909101546001600160a01b0316602090910152905081156114ad57602080820180516001600160a01b039081166000908152601784526040808220805460ff19166001179055855193519092168152601884522081516114ab9391929091019061307f565b505b601d80546114bd906001906139ed565b815481106114cd576114cd613ab2565b9060005260206000209060020201601d84815481106114ee576114ee613ab2565b9060005260206000209060020201600082018160000190805461151090613a30565b61151b929190613103565b50600191820154910180546001600160a01b0319166001600160a01b03909216919091179055601d80548061155257611552613a9c565b60008281526020812060001990920191600283020190611572828261317e565b5060010180546001600160a01b03191690559055602080820180516001600160a01b0390811660009081526016909352604092839020805460ff191690559051835192518515159391909216916115c991906136cb565b604051908190038120907ff236cc347bab721c49031024cf484b8f76450f8d11ec7d097aa99bad74ace43290600090a4505050565b61160661275d565b601c8054611616906001906139ed565b8154811061162657611626613ab2565b9060005260206000209060020201601c828154811061164757611647613ab2565b9060005260206000209060020201600082018160000190805461166990613a30565b611674929190613103565b50600191820154910180546001600160a01b0319166001600160a01b03909216919091179055601c8054806116ab576116ab613a9c565b600082815260208120600019909201916002830201906116cb828261317e565b5060010180546001600160a01b0319169055905550565b6116ea6131b8565b60006116f66000611951565b6040805160e081018252600e548152600b546001600160a01b031660208201526013805493945090929183019161172c90613a30565b80601f016020809104026020016040519081016040528092919081815260200182805461175890613a30565b80156117a55780601f1061177a576101008083540402835291602001916117a5565b820191906000526020600020905b81548152906001019060200180831161178857829003601f168201915b505050505081526020016117b96000611d15565b8152602001601e805480602002602001604051908101604052809291908181526020016000905b82821015611936578382906000526020600020906002020160405180604001604052908160008201805461181390613a30565b80601f016020809104026020016040519081016040528092919081815260200182805461183f90613a30565b801561188c5780601f106118615761010080835404028352916020019161188c565b820191906000526020600020905b81548152906001019060200180831161186f57829003601f168201915b505050505081526020016001820180546118a590613a30565b80601f01602080910402602001604051908101604052809291908181526020018280546118d190613a30565b801561191e5780601f106118f35761010080835404028352916020019161191e565b820191906000526020600020905b81548152906001019060200180831161190157829003601f168201915b505050505081525050815260200190600101906117e0565b505050508152602001828152602001600f5481525091505090565b61197560405180606001604052806000815260200160008152602001606081525090565b601a600083815260200190815260200160002060405180606001604052908160008201548152602001600182015481526020016002820180546119b790613a30565b80601f01602080910402602001604051908101604052809291908181526020018280546119e390613a30565b8015611a305780601f10611a0557610100808354040283529160200191611a30565b820191906000526020600020905b815481529060010190602001808311611a1357829003601f168201915b5050505050815250509050919050565b611a4a338361256d565b611a665760405162461bcd60e51b815260040161099d906137f8565b611a7284848484612888565b50505050565b601054341015611aca5760405162461bcd60e51b815260206004820181905260248201527f4d696e74206661696c65643a20496e73756666696369656e742066756e64732e604482015260640161099d565b600c54341015611ad957600080fd5b6064600e5410611b4a5760405162461bcd60e51b815260206004820152603660248201527f4d696e74206661696c65643a20436f6e74726163742068617320726561636865604482015275321034ba13b99036b4b73a1030b63637bbb0b731b29760511b606482015260840161099d565b33611b5482611150565b6001600160a01b031614611b6757600080fd5b6000818152601960205260409020600281015460019091015410611bcd5760405162461bcd60e51b815260206004820181905260248201527f4d696e74206661696c65643a20416c6c6f77616e63652065786365656465642e604482015260640161099d565b611bd983600e546128bb565b611be5600e54836128d5565b60408051606081018252438152426020808301918252828401868152600e546000908152601a83529490942083518155915160018301559251805192939192611c34926002850192019061307f565b5050600e805491506000611c4783613a6b565b91905055506000611c553490565b90506000600f5482611c6791906139ed565b600b54600f546040519293506001600160a01b039091169181156108fc0291906000818181858888f19350505050158015611ca6573d6000803e3d6000fd5b50600a546040516001600160a01b039091169082156108fc029083906000818181858888f19350505050158015611ce1573d6000803e3d6000fd5b506001601960008581526020019081526020016000206001016000828254611d0991906139d5565b90915550505050505050565b6000818152600260205260409020546060906001600160a01b0316611d945760405162461bcd60e51b815260206004820152602f60248201527f4552433732314d657461646174613a2055524920717565727920666f72206e6f60448201526e3732bc34b9ba32b73a103a37b5b2b760891b606482015260840161099d565b60008281526015602052604081208054611dad90613a30565b80601f0160208091040260200160405190810160405280929190818152602001828054611dd990613a30565b8015611e265780601f10611dfb57610100808354040283529160200191611e26565b820191906000526020600020905b815481529060010190602001808311611e0957829003601f168201915b505050505090506000611e4460408051602081019091526000815290565b9050805160001415611e57575092915050565b815115611e89578082604051602001611e719291906136e7565b60405160208183030381529060405292505050919050565b80611e938561296d565b604051602001611e719291906136e7565b60138054610f3190613a30565b336000908152601b602052604090205460ff161515600114611f0d5760405162461bcd60e51b81526020600482015260156024820152742cb7ba9030b932903737ba1030b8383937bb32b21760591b604482015260640161099d565b600f54341015611f1c57600080fd5b6000818152601960205260408120600201805460059290611f3e9084906139d5565b92505081905550600560126000828254611f5891906139d5565b92505081905550600560116000828254611f7291906139ed565b9091555050600b546001600160a01b03166108fc346040518115909202916000818181858888f19350505050158015611368573d6000803e3d6000fd5b6060611fb961275d565b601c805480602002602001604051908101604052809291908181526020016000905b82821015610bd2578382906000526020600020906002020160405180604001604052908160008201805461200e90613a30565b80601f016020809104026020016040519081016040528092919081815260200182805461203a90613a30565b80156120875780601f1061205c57610100808354040283529160200191612087565b820191906000526020600020905b81548152906001019060200180831161206a57829003601f168201915b50505091835250506001918201546001600160a01b0316602091820152918352929092019101611fdb565b3360009081526017602052604090205460ff166121115760405162461bcd60e51b815260206004820152601d60248201527f436c69656e7420686173206e6f74206265656e20617070726f7665642e000000604482015260640161099d565b6005601154101561212157600080fd5b60408051606081018252600e54808252600160208084018281526005858701908152600094855260199092529490922092518355925192820192909255905160029091015561217233600e54612a0a565b61217e600e54826128d5565b60408051606081018252438152426020808301918252828401858152600e546000908152601a835294909420835181559151600183015592518051929391926121cd926002850192019061307f565b5050600e8054915060006121e083613a6b565b9091555050600b546001600160a01b03166108fc346040518115909202916000818181858888f1935050505015801561221d573d6000803e3d6000fd5b5060056011600082825461223191906139ed565b9091555050336000908152601760209081526040808320805460ff19169055601890915281206110529161317e565b604080516080810182526000808252602082018190529181019190915260608082015260006040518060800160405280612299856111b0565b81526001600160a01b03851660008181526016602090815260408083205460ff908116151583870152848452601783528184205416151581860152928252601890522080546060909201916122ed90613a30565b80601f016020809104026020016040519081016040528092919081815260200182805461231990613a30565b80156123665780601f1061233b57610100808354040283529160200191612366565b820191906000526020600020905b81548152906001019060200180831161234957829003601f168201915b505050919092525090949350505050565b61237f61275d565b601154601254106123e95760405162461bcd60e51b815260206004820152602e60248201527f5468697320636f6e74726163742068617320726561636865642069742773206d60448201526d34b73a1030b63637bbb0b731b29760911b606482015260840161099d565b6001601b6000601c848154811061240257612402613ab2565b6000918252602080832060016002909302018201546001600160a01b0316845283019390935260409091019020805492151560ff1990931692909217909155601c80549091611616916139ed565b60006001600160e01b031982166380ac58cd60e01b148061248157506001600160e01b03198216635b5e139f60e01b145b8061086957506301ffc9a760e01b6001600160e01b0319831614610869565b6000818152600260205260409020546001600160a01b03166110525760405162461bcd60e51b8152602060048201526018602482015277115490cdcc8c4e881a5b9d985b1a59081d1bdad95b88125160421b604482015260640161099d565b600081815260046020526040902080546001600160a01b0319166001600160a01b038416908117909155819061253482611150565b6001600160a01b03167f8c5be1e5ebec7d5bd14f71427d1e84f3dd0314c0f7b2291e5b200ac8c7c3b92560405160405180910390a45050565b60008061257983611150565b9050806001600160a01b0316846001600160a01b031614806125c057506001600160a01b0380821660009081526005602090815260408083209388168352929052205460ff165b806125e45750836001600160a01b03166125d984610901565b6001600160a01b0316145b949350505050565b826001600160a01b03166125ff82611150565b6001600160a01b0316146126255760405162461bcd60e51b815260040161099d90613897565b6001600160a01b0382166126875760405162461bcd60e51b8152602060048201526024808201527f4552433732313a207472616e7366657220746f20746865207a65726f206164646044820152637265737360e01b606482015260840161099d565b6126948383836001612ba3565b826001600160a01b03166126a782611150565b6001600160a01b0316146126cd5760405162461bcd60e51b815260040161099d90613897565b600081815260046020908152604080832080546001600160a01b03199081169091556001600160a01b0387811680865260038552838620805460001901905590871680865283862080546001019055868652600290945282852080549092168417909155905184937fddf252ad1be2c89b69c2b068fc378daa952ba7f163c4a11628f55a4df523b3ef91a4505050565b600b546001600160a01b031633146127b75760405162461bcd60e51b815260206004820181905260248201527f4f776e61626c653a2063616c6c6572206973206e6f7420746865206f776e6572604482015260640161099d565b565b816001600160a01b0316836001600160a01b0316141561281b5760405162461bcd60e51b815260206004820152601960248201527f4552433732313a20617070726f766520746f2063616c6c657200000000000000604482015260640161099d565b6001600160a01b03838116600081815260056020908152604080832094871680845294825291829020805460ff191686151590811790915591519182527f17307eab39ab6107e8899845ad3d59bd9653f200f220920489ca2b5937696c31910160405180910390a3505050565b6128938484846125ec565b61289f84848484612cd7565b611a725760405162461bcd60e51b815260040161099d90613845565b611368828260405180602001604052806000815250612de4565b6000828152600260205260409020546001600160a01b031661294e5760405162461bcd60e51b815260206004820152602c60248201527f4552433732314d657461646174613a2055524920736574206f66206e6f6e657860448201526b34b9ba32b73a103a37b5b2b760a11b606482015260840161099d565b60008281526015602090815260409091208251610a3e9284019061307f565b6060600061297a83612e17565b600101905060008167ffffffffffffffff81111561299a5761299a613ac8565b6040519080825280601f01601f1916602001820160405280156129c4576020820181803683370190505b5090508181016020015b600019016f181899199a1a9b1b9c1cb0b131b232b360811b600a86061a8153600a85049450846129fd57612a02565b6129ce565b509392505050565b6001600160a01b038216612a605760405162461bcd60e51b815260206004820181905260248201527f4552433732313a206d696e7420746f20746865207a65726f2061646472657373604482015260640161099d565b6000818152600260205260409020546001600160a01b031615612ac55760405162461bcd60e51b815260206004820152601c60248201527f4552433732313a20746f6b656e20616c7265616479206d696e74656400000000604482015260640161099d565b612ad3600083836001612ba3565b6000818152600260205260409020546001600160a01b031615612b385760405162461bcd60e51b815260206004820152601c60248201527f4552433732313a20746f6b656e20616c7265616479206d696e74656400000000604482015260640161099d565b6001600160a01b038216600081815260036020908152604080832080546001019055848352600290915280822080546001600160a01b0319168417905551839291907fddf252ad1be2c89b69c2b068fc378daa952ba7f163c4a11628f55a4df523b3ef908290a45050565b6001811115612c125760405162461bcd60e51b815260206004820152603560248201527f455243373231456e756d657261626c653a20636f6e7365637574697665207472604482015274185b9cd9995c9cc81b9bdd081cdd5c1c1bdc9d1959605a1b606482015260840161099d565b816001600160a01b038516612c6e57612c6981600880546000838152600960205260408120829055600182018355919091527ff3f7a9fe364faab93b216da50a3214154f22a0a2b415b23a84c8169e8b636ee30155565b612c91565b836001600160a01b0316856001600160a01b031614612c9157612c918582612eef565b6001600160a01b038416612cad57612ca881612f8c565b612cd0565b846001600160a01b0316846001600160a01b031614612cd057612cd0848261303b565b5050505050565b60006001600160a01b0384163b15612dd957604051630a85bd0160e11b81526001600160a01b0385169063150b7a0290612d1b903390899088908890600401613716565b602060405180830381600087803b158015612d3557600080fd5b505af1925050508015612d65575060408051601f3d908101601f19168201909252612d62918101906134cc565b60015b612dbf573d808015612d93576040519150601f19603f3d011682016040523d82523d6000602084013e612d98565b606091505b508051612db75760405162461bcd60e51b815260040161099d90613845565b805181602001fd5b6001600160e01b031916630a85bd0160e11b1490506125e4565b506001949350505050565b612dee8383612a0a565b612dfb6000848484612cd7565b610a3e5760405162461bcd60e51b815260040161099d90613845565b60008072184f03e93ff9f4daa797ed6e38ed64bf6a1f0160401b8310612e565772184f03e93ff9f4daa797ed6e38ed64bf6a1f0160401b830492506040015b6d04ee2d6d415b85acef81000000008310612e82576d04ee2d6d415b85acef8100000000830492506020015b662386f26fc100008310612ea057662386f26fc10000830492506010015b6305f5e1008310612eb8576305f5e100830492506008015b6127108310612ecc57612710830492506004015b60648310612ede576064830492506002015b600a83106108695760010192915050565b60006001612efc846111b0565b612f0691906139ed565b600083815260076020526040902054909150808214612f59576001600160a01b03841660009081526006602090815260408083208584528252808320548484528184208190558352600790915290208190555b5060009182526007602090815260408084208490556001600160a01b039094168352600681528383209183525290812055565b600854600090612f9e906001906139ed565b60008381526009602052604081205460088054939450909284908110612fc657612fc6613ab2565b906000526020600020015490508060088381548110612fe757612fe7613ab2565b600091825260208083209091019290925582815260099091526040808220849055858252812055600880548061301f5761301f613a9c565b6001900381819060005260206000200160009055905550505050565b6000613046836111b0565b6001600160a01b039093166000908152600660209081526040808320868452825280832085905593825260079052919091209190915550565b82805461308b90613a30565b90600052602060002090601f0160209004810192826130ad57600085556130f3565b82601f106130c657805160ff19168380011785556130f3565b828001600101855582156130f3579182015b828111156130f35782518255916020019190600101906130d8565b506130ff929150613220565b5090565b82805461310f90613a30565b90600052602060002090601f01602090048101928261313157600085556130f3565b82601f1061314257805485556130f3565b828001600101855582156130f357600052602060002091601f016020900482015b828111156130f3578254825591600101919060010190613163565b50805461318a90613a30565b6000825580601f1061319a575050565b601f0160209004906000526020600020908101906110529190613220565b6040518060e001604052806000815260200160006001600160a01b0316815260200160608152602001606081526020016060815260200161321360405180606001604052806000815260200160008152602001606081525090565b8152602001600081525090565b5b808211156130ff5760008155600101613221565b600067ffffffffffffffff8084111561325057613250613ac8565b604051601f8501601f19908116603f0116810190828211818310171561327857613278613ac8565b8160405280935085815286868601111561329157600080fd5b858560208301376000602087830101525050509392505050565b80356001600160a01b03811681146132c257600080fd5b919050565b803580151581146132c257600080fd5b600082601f8301126132e857600080fd5b6132f783833560208501613235565b9392505050565b60006020828403121561331057600080fd5b6132f7826132ab565b6000806040838503121561332c57600080fd5b613335836132ab565b9150613343602084016132ab565b90509250929050565b60008060006060848603121561336157600080fd5b61336a846132ab565b9250613378602085016132ab565b9150604084013590509250925092565b6000806000806080858703121561339e57600080fd5b6133a7856132ab565b93506133b5602086016132ab565b925060408501359150606085013567ffffffffffffffff8111156133d857600080fd5b8501601f810187136133e957600080fd5b6133f887823560208401613235565b91505092959194509250565b6000806040838503121561341757600080fd5b613420836132ab565b9150613343602084016132c7565b60008060006060848603121561344357600080fd5b61344c846132ab565b9250602084013567ffffffffffffffff81111561346857600080fd5b613474868287016132d7565b925050604084013590509250925092565b6000806040838503121561349857600080fd5b6134a1836132ab565b946020939093013593505050565b6000602082840312156134c157600080fd5b81356132f781613ade565b6000602082840312156134de57600080fd5b81516132f781613ade565b6000602082840312156134fb57600080fd5b813567ffffffffffffffff81111561351257600080fd5b6125e4848285016132d7565b6000806040838503121561353157600080fd5b823567ffffffffffffffff8082111561354957600080fd5b613555868387016132d7565b9350602085013591508082111561356b57600080fd5b50613578858286016132d7565b9150509250929050565b60006020828403121561359457600080fd5b5035919050565b600080604083850312156135ae57600080fd5b82359150613343602084016132c7565b600080604083850312156135d157600080fd5b82359150602083013567ffffffffffffffff8111156135ef57600080fd5b613578858286016132d7565b600081518084526020808501808196508360051b8101915082860160005b8581101561366957828403895281516040815181875261363b82880182613676565b915050868201519150858103878701526136558183613676565b9a87019a9550505090840190600101613619565b5091979650505050505050565b6000815180845261368e816020860160208601613a04565b601f01601f19169290920160200192915050565b805182526020810151602083015260006040820151606060408501526125e46060850182613676565b600082516136dd818460208701613a04565b9190910192915050565b600083516136f9818460208801613a04565b83519083019061370d818360208801613a04565b01949350505050565b6001600160a01b038581168252841660208201526040810183905260806060820181905260009061374990830184613676565b9695505050505050565b60006020808301818452808551808352604092508286019150828160051b87010184880160005b838110156137c457888303603f190185528151805187855261379e88860182613676565b918901516001600160a01b0316948901949094529487019492509086019060010161377a565b509098975050505050505050565b6020815260006132f760208301846135fb565b6020815260006132f76020830184613676565b6020808252602d908201527f4552433732313a2063616c6c6572206973206e6f7420746f6b656e206f776e6560408201526c1c881bdc88185c1c1c9bdd9959609a1b606082015260800190565b60208082526032908201527f4552433732313a207472616e7366657220746f206e6f6e20455243373231526560408201527131b2b4bb32b91034b6b83632b6b2b73a32b960711b606082015260800190565b60208082526025908201527f4552433732313a207472616e736665722066726f6d20696e636f72726563742060408201526437bbb732b960d91b606082015260800190565b602081528151602082015260018060a01b0360208301511660408201526000604083015160e06060840152613915610100840182613676565b90506060840151601f19808584030160808601526139338383613676565b925060808601519150808584030160a086015261395083836135fb565b925060a08601519150808584030160c08601525061396e82826136a2565b91505060c084015160e08401528091505092915050565b6020815260006132f760208301846136a2565b6020815281516020820152602082015115156040820152604082015115156060820152600060608301516080808401526125e460a0840182613676565b600082198211156139e8576139e8613a86565b500190565b6000828210156139ff576139ff613a86565b500390565b60005b83811015613a1f578181015183820152602001613a07565b83811115611a725750506000910152565b600181811c90821680613a4457607f821691505b60208210811415613a6557634e487b7160e01b600052602260045260246000fd5b50919050565b6000600019821415613a7f57613a7f613a86565b5060010190565b634e487b7160e01b600052601160045260246000fd5b634e487b7160e01b600052603160045260246000fd5b634e487b7160e01b600052603260045260246000fd5b634e487b7160e01b600052604160045260246000fd5b6001600160e01b03198116811461105257600080fdfea264697066735822122083e8bad553fbe29627c9ae3bc124251698bf1ccec68ca752a2c81fd5f8c1c50e64736f6c63430008070033",
  "linkReferences": {},
  "deployedLinkReferences": {}
}