{
  "_format": "hh-sol-artifact-1",
  "contractName": "Tambora",
  "sourceName": "contracts/Tambora.sol",
  "abi": [
    {
      "inputs": [
        {
          "internalType": "address",
          "name": "deployer",
          "type": "address"
        },
        {
          "internalType": "string",
          "name": "name",
          "type": "string"
        },
        {
          "internalType": "string",
          "name": "symbol",
          "type": "string"
        },
        {
          "internalType": "uint256",
          "name": "price_",
          "type": "uint256"
        },
        {
          "internalType": "string",
          "name": "contractType_",
          "type": "string"
        },
        {
          "internalType": "address",
          "name": "to_",
          "type": "address"
        },
        {
          "internalType": "string",
          "name": "uri_",
          "type": "string"
        },
        {
          "internalType": "address",
          "name": "factoryOwner_",
          "type": "address"
        },
        {
          "internalType": "uint256",
          "name": "mintFee_",
          "type": "uint256"
        },
        {
          "internalType": "uint256",
          "name": "contractFee_",
          "type": "uint256"
        }
      ],
      "stateMutability": "nonpayable",
      "type": "constructor"
    },
    {
      "anonymous": false,
      "inputs": [
        {
          "indexed": true,
          "internalType": "address",
          "name": "owner",
          "type": "address"
        },
        {
          "indexed": true,
          "internalType": "address",
          "name": "approved",
          "type": "address"
        },
        {
          "indexed": true,
          "internalType": "uint256",
          "name": "tokenId",
          "type": "uint256"
        }
      ],
      "name": "Approval",
      "type": "event"
    },
    {
      "anonymous": false,
      "inputs": [
        {
          "indexed": true,
          "internalType": "address",
          "name": "owner",
          "type": "address"
        },
        {
          "indexed": true,
          "internalType": "address",
          "name": "operator",
          "type": "address"
        },
        {
          "indexed": false,
          "internalType": "bool",
          "name": "approved",
          "type": "bool"
        }
      ],
      "name": "ApprovalForAll",
      "type": "event"
    },
    {
      "anonymous": false,
      "inputs": [
        {
          "indexed": true,
          "internalType": "string",
          "name": "name",
          "type": "string"
        }
      ],
      "name": "FileAdded",
      "type": "event"
    },
    {
      "anonymous": false,
      "inputs": [
        {
          "indexed": true,
          "internalType": "string",
          "name": "name",
          "type": "string"
        },
        {
          "indexed": true,
          "internalType": "address",
          "name": "addr",
          "type": "address"
        }
      ],
      "name": "Request",
      "type": "event"
    },
    {
      "anonymous": false,
      "inputs": [
        {
          "indexed": true,
          "internalType": "string",
          "name": "name",
          "type": "string"
        },
        {
          "indexed": true,
          "internalType": "address",
          "name": "addr",
          "type": "address"
        },
        {
          "indexed": true,
          "internalType": "bool",
          "name": "res",
          "type": "bool"
        }
      ],
      "name": "Response",
      "type": "event"
    },
    {
      "anonymous": false,
      "inputs": [
        {
          "indexed": true,
          "internalType": "address",
          "name": "from",
          "type": "address"
        },
        {
          "indexed": true,
          "internalType": "address",
          "name": "to",
          "type": "address"
        },
        {
          "indexed": true,
          "internalType": "uint256",
          "name": "tokenId",
          "type": "uint256"
        }
      ],
      "name": "Transfer",
      "type": "event"
    },
    {
      "inputs": [],
      "name": "_factoryOwner",
      "outputs": [
        {
          "internalType": "address payable",
          "name": "",
          "type": "address"
        }
      ],
      "stateMutability": "view",
      "type": "function"
    },
    {
      "inputs": [],
      "name": "accepting",
      "outputs": [
        {
          "internalType": "bool",
          "name": "",
          "type": "bool"
        }
      ],
      "stateMutability": "view",
      "type": "function"
    },
    {
      "inputs": [
        {
          "internalType": "string",
          "name": "name_",
          "type": "string"
        },
        {
          "internalType": "string",
          "name": "uri_",
          "type": "string"
        }
      ],
      "name": "addFileLocation",
      "outputs": [],
      "stateMutability": "nonpayable",
      "type": "function"
    },
    {
      "inputs": [],
      "name": "allottedAmount",
      "outputs": [
        {
          "internalType": "uint256",
          "name": "",
          "type": "uint256"
        }
      ],
      "stateMutability": "view",
      "type": "function"
    },
    {
      "inputs": [
        {
          "internalType": "address",
          "name": "to",
          "type": "address"
        },
        {
          "internalType": "uint256",
          "name": "tokenId",
          "type": "uint256"
        }
      ],
      "name": "approve",
      "outputs": [],
      "stateMutability": "nonpayable",
      "type": "function"
    },
    {
      "inputs": [
        {
          "internalType": "uint256",
          "name": "index_",
          "type": "uint256"
        }
      ],
      "name": "approveMintIncrease",
      "outputs": [],
      "stateMutability": "nonpayable",
      "type": "function"
    },
    {
      "inputs": [
        {
          "internalType": "uint256",
          "name": "index",
          "type": "uint256"
        },
        {
          "internalType": "bool",
          "name": "decision",
          "type": "bool"
        }
      ],
      "name": "approveOrDenyClient",
      "outputs": [],
      "stateMutability": "nonpayable",
      "type": "function"
    },
    {
      "inputs": [
        {
          "internalType": "address",
          "name": "",
          "type": "address"
        }
      ],
      "name": "approvedName",
      "outputs": [
        {
          "internalType": "string",
          "name": "",
          "type": "string"
        }
      ],
      "stateMutability": "view",
      "type": "function"
    },
    {
      "inputs": [
        {
          "internalType": "address",
          "name": "owner",
          "type": "address"
        }
      ],
      "name": "balanceOf",
      "outputs": [
        {
          "internalType": "uint256",
          "name": "",
          "type": "uint256"
        }
      ],
      "stateMutability": "view",
      "type": "function"
    },
    {
      "inputs": [],
      "name": "contractFee",
      "outputs": [
        {
          "internalType": "uint256",
          "name": "",
          "type": "uint256"
        }
      ],
      "stateMutability": "view",
      "type": "function"
    },
    {
      "inputs": [],
      "name": "contractType",
      "outputs": [
        {
          "internalType": "string",
          "name": "",
          "type": "string"
        }
      ],
      "stateMutability": "view",
      "type": "function"
    },
    {
      "inputs": [
        {
          "internalType": "uint256",
          "name": "index_",
          "type": "uint256"
        }
      ],
      "name": "denyMintIncrease",
      "outputs": [],
      "stateMutability": "nonpayable",
      "type": "function"
    },
    {
      "inputs": [
        {
          "internalType": "string",
          "name": "uri",
          "type": "string"
        }
      ],
      "name": "finalizeClient",
      "outputs": [],
      "stateMutability": "payable",
      "type": "function"
    },
    {
      "inputs": [
        {
          "internalType": "uint256",
          "name": "mintId_",
          "type": "uint256"
        }
      ],
      "name": "finalizeMintIncrease",
      "outputs": [],
      "stateMutability": "payable",
      "type": "function"
    },
    {
      "inputs": [
        {
          "internalType": "uint256",
          "name": "tokenId",
          "type": "uint256"
        }
      ],
      "name": "getApproved",
      "outputs": [
        {
          "internalType": "address",
          "name": "",
          "type": "address"
        }
      ],
      "stateMutability": "view",
      "type": "function"
    },
    {
      "inputs": [],
      "name": "getFileStore",
      "outputs": [
        {
          "components": [
            {
              "internalType": "string",
              "name": "name",
              "type": "string"
            },
            {
              "internalType": "string",
              "name": "uri",
              "type": "string"
            }
          ],
          "internalType": "struct Tambora.File[]",
          "name": "",
          "type": "tuple[]"
        }
      ],
      "stateMutability": "view",
      "type": "function"
    },
    {
      "inputs": [],
      "name": "getMintRequests",
      "outputs": [
        {
          "components": [
            {
              "internalType": "string",
              "name": "name",
              "type": "string"
            },
            {
              "internalType": "address",
              "name": "addr",
              "type": "address"
            }
          ],
          "internalType": "struct Tambora.Client[]",
          "name": "",
          "type": "tuple[]"
        }
      ],
      "stateMutability": "view",
      "type": "function"
    },
    {
      "inputs": [],
      "name": "getPendingClients",
      "outputs": [
        {
          "components": [
            {
              "internalType": "string",
              "name": "name",
              "type": "string"
            },
            {
              "internalType": "address",
              "name": "addr",
              "type": "address"
            }
          ],
          "internalType": "struct Tambora.Client[]",
          "name": "",
          "type": "tuple[]"
        }
      ],
      "stateMutability": "view",
      "type": "function"
    },
    {
      "inputs": [],
      "name": "getShowData",
      "outputs": [
        {
          "components": [
            {
              "internalType": "uint256",
              "name": "tokenId",
              "type": "uint256"
            },
            {
              "internalType": "address",
              "name": "manager",
              "type": "address"
            },
            {
              "internalType": "string",
              "name": "contractType",
              "type": "string"
            },
            {
              "internalType": "string",
              "name": "tokenURI",
              "type": "string"
            },
            {
              "components": [
                {
                  "internalType": "string",
                  "name": "name",
                  "type": "string"
                },
                {
                  "internalType": "string",
                  "name": "uri",
                  "type": "string"
                }
              ],
              "internalType": "struct Tambora.File[]",
              "name": "fileStore",
              "type": "tuple[]"
            },
            {
              "components": [
                {
                  "internalType": "uint256",
                  "name": "blockNumber",
                  "type": "uint256"
                },
                {
                  "internalType": "uint256",
                  "name": "timeStamp",
                  "type": "uint256"
                },
                {
                  "internalType": "string",
                  "name": "uri",
                  "type": "string"
                }
              ],
              "internalType": "struct Tambora.Token",
              "name": "tokenData",
              "type": "tuple"
            },
            {
              "internalType": "uint256",
              "name": "price",
              "type": "uint256"
            }
          ],
          "internalType": "struct Tambora.ShowData",
          "name": "",
          "type": "tuple"
        }
      ],
      "stateMutability": "view",
      "type": "function"
    },
    {
      "inputs": [
        {
          "internalType": "uint256",
          "name": "id_",
          "type": "uint256"
        }
      ],
      "name": "getTokenData",
      "outputs": [
        {
          "components": [
            {
              "internalType": "uint256",
              "name": "blockNumber",
              "type": "uint256"
            },
            {
              "internalType": "uint256",
              "name": "timeStamp",
              "type": "uint256"
            },
            {
              "internalType": "string",
              "name": "uri",
              "type": "string"
            }
          ],
          "internalType": "struct Tambora.Token",
          "name": "",
          "type": "tuple"
        }
      ],
      "stateMutability": "view",
      "type": "function"
    },
    {
      "inputs": [
        {
          "internalType": "address",
          "name": "addr_",
          "type": "address"
        }
      ],
      "name": "getUserData",
      "outputs": [
        {
          "components": [
            {
              "internalType": "uint256",
              "name": "balance",
              "type": "uint256"
            },
            {
              "internalType": "bool",
              "name": "pending",
              "type": "bool"
            },
            {
              "internalType": "bool",
              "name": "approved",
              "type": "bool"
            },
            {
              "internalType": "string",
              "name": "name",
              "type": "string"
            }
          ],
          "internalType": "struct Tambora.User",
          "name": "",
          "type": "tuple"
        }
      ],
      "stateMutability": "view",
      "type": "function"
    },
    {
      "inputs": [],
      "name": "increaseContractMintAllowance",
      "outputs": [],
      "stateMutability": "payable",
      "type": "function"
    },
    {
      "inputs": [
        {
          "internalType": "address",
          "name": "",
          "type": "address"
        }
      ],
      "name": "isApproved",
      "outputs": [
        {
          "internalType": "bool",
          "name": "",
          "type": "bool"
        }
      ],
      "stateMutability": "view",
      "type": "function"
    },
    {
      "inputs": [
        {
          "internalType": "address",
          "name": "owner",
          "type": "address"
        },
        {
          "internalType": "address",
          "name": "operator",
          "type": "address"
        }
      ],
      "name": "isApprovedForAll",
      "outputs": [
        {
          "internalType": "bool",
          "name": "",
          "type": "bool"
        }
      ],
      "stateMutability": "view",
      "type": "function"
    },
    {
      "inputs": [
        {
          "internalType": "address",
          "name": "",
          "type": "address"
        }
      ],
      "name": "isPending",
      "outputs": [
        {
          "internalType": "bool",
          "name": "",
          "type": "bool"
        }
      ],
      "stateMutability": "view",
      "type": "function"
    },
    {
      "inputs": [
        {
          "internalType": "uint256",
          "name": "",
          "type": "uint256"
        }
      ],
      "name": "memberTokens",
      "outputs": [
        {
          "internalType": "uint256",
          "name": "mintId",
          "type": "uint256"
        },
        {
          "internalType": "uint256",
          "name": "minted",
          "type": "uint256"
        },
        {
          "internalType": "uint256",
          "name": "mintAllowance",
          "type": "uint256"
        }
      ],
      "stateMutability": "view",
      "type": "function"
    },
    {
      "inputs": [
        {
          "internalType": "address",
          "name": "to_",
          "type": "address"
        },
        {
          "internalType": "string",
          "name": "uri",
          "type": "string"
        },
        {
          "internalType": "uint256",
          "name": "mintId_",
          "type": "uint256"
        }
      ],
      "name": "mint",
      "outputs": [],
      "stateMutability": "payable",
      "type": "function"
    },
    {
      "inputs": [],
      "name": "mintAllowance",
      "outputs": [
        {
          "internalType": "uint256",
          "name": "",
          "type": "uint256"
        }
      ],
      "stateMutability": "view",
      "type": "function"
    },
    {
      "inputs": [],
      "name": "mintFee",
      "outputs": [
        {
          "internalType": "uint256",
          "name": "",
          "type": "uint256"
        }
      ],
      "stateMutability": "view",
      "type": "function"
    },
    {
      "inputs": [],
      "name": "name",
      "outputs": [
        {
          "internalType": "string",
          "name": "",
          "type": "string"
        }
      ],
      "stateMutability": "view",
      "type": "function"
    },
    {
      "inputs": [],
      "name": "owner",
      "outputs": [
        {
          "internalType": "address payable",
          "name": "",
          "type": "address"
        }
      ],
      "stateMutability": "view",
      "type": "function"
    },
    {
      "inputs": [
        {
          "internalType": "uint256",
          "name": "tokenId",
          "type": "uint256"
        }
      ],
      "name": "ownerOf",
      "outputs": [
        {
          "internalType": "address",
          "name": "",
          "type": "address"
        }
      ],
      "stateMutability": "view",
      "type": "function"
    },
    {
      "inputs": [],
      "name": "price",
      "outputs": [
        {
          "internalType": "uint256",
          "name": "",
          "type": "uint256"
        }
      ],
      "stateMutability": "view",
      "type": "function"
    },
    {
      "inputs": [
        {
          "internalType": "string",
          "name": "name",
          "type": "string"
        }
      ],
      "name": "requestApproval",
      "outputs": [],
      "stateMutability": "nonpayable",
      "type": "function"
    },
    {
      "inputs": [
        {
          "internalType": "uint256",
          "name": "mintId_",
          "type": "uint256"
        },
        {
          "internalType": "string",
          "name": "name_",
          "type": "string"
        }
      ],
      "name": "requestMintIncrease",
      "outputs": [],
      "stateMutability": "nonpayable",
      "type": "function"
    },
    {
      "inputs": [
        {
          "internalType": "address",
          "name": "from",
          "type": "address"
        },
        {
          "internalType": "address",
          "name": "to",
          "type": "address"
        },
        {
          "internalType": "uint256",
          "name": "tokenId",
          "type": "uint256"
        }
      ],
      "name": "safeTransferFrom",
      "outputs": [],
      "stateMutability": "nonpayable",
      "type": "function"
    },
    {
      "inputs": [
        {
          "internalType": "address",
          "name": "from",
          "type": "address"
        },
        {
          "internalType": "address",
          "name": "to",
          "type": "address"
        },
        {
          "internalType": "uint256",
          "name": "tokenId",
          "type": "uint256"
        },
        {
          "internalType": "bytes",
          "name": "data",
          "type": "bytes"
        }
      ],
      "name": "safeTransferFrom",
      "outputs": [],
      "stateMutability": "nonpayable",
      "type": "function"
    },
    {
      "inputs": [
        {
          "internalType": "address",
          "name": "operator",
          "type": "address"
        },
        {
          "internalType": "bool",
          "name": "approved",
          "type": "bool"
        }
      ],
      "name": "setApprovalForAll",
      "outputs": [],
      "stateMutability": "nonpayable",
      "type": "function"
    },
    {
      "inputs": [
        {
          "internalType": "bytes4",
          "name": "interfaceId",
          "type": "bytes4"
        }
      ],
      "name": "supportsInterface",
      "outputs": [
        {
          "internalType": "bool",
          "name": "",
          "type": "bool"
        }
      ],
      "stateMutability": "view",
      "type": "function"
    },
    {
      "inputs": [],
      "name": "symbol",
      "outputs": [
        {
          "internalType": "string",
          "name": "",
          "type": "string"
        }
      ],
      "stateMutability": "view",
      "type": "function"
    },
    {
      "inputs": [],
      "name": "toggleAccepting",
      "outputs": [],
      "stateMutability": "nonpayable",
      "type": "function"
    },
    {
      "inputs": [
        {
          "internalType": "uint256",
          "name": "index",
          "type": "uint256"
        }
      ],
      "name": "tokenByIndex",
      "outputs": [
        {
          "internalType": "uint256",
          "name": "",
          "type": "uint256"
        }
      ],
      "stateMutability": "view",
      "type": "function"
    },
    {
      "inputs": [
        {
          "internalType": "address",
          "name": "owner",
          "type": "address"
        },
        {
          "internalType": "uint256",
          "name": "index",
          "type": "uint256"
        }
      ],
      "name": "tokenOfOwnerByIndex",
      "outputs": [
        {
          "internalType": "uint256",
          "name": "",
          "type": "uint256"
        }
      ],
      "stateMutability": "view",
      "type": "function"
    },
    {
      "inputs": [
        {
          "internalType": "uint256",
          "name": "tokenId_",
          "type": "uint256"
        }
      ],
      "name": "tokenURI",
      "outputs": [
        {
          "internalType": "string",
          "name": "",
          "type": "string"
        }
      ],
      "stateMutability": "view",
      "type": "function"
    },
    {
      "inputs": [],
      "name": "totalCost",
      "outputs": [
        {
          "internalType": "uint256",
          "name": "",
          "type": "uint256"
        }
      ],
      "stateMutability": "view",
      "type": "function"
    },
    {
      "inputs": [],
      "name": "totalSupply",
      "outputs": [
        {
          "internalType": "uint256",
          "name": "",
          "type": "uint256"
        }
      ],
      "stateMutability": "view",
      "type": "function"
    },
    {
      "inputs": [
        {
          "internalType": "address",
          "name": "from",
          "type": "address"
        },
        {
          "internalType": "address",
          "name": "to",
          "type": "address"
        },
        {
          "internalType": "uint256",
          "name": "tokenId",
          "type": "uint256"
        }
      ],
      "name": "transferFrom",
      "outputs": [],
      "stateMutability": "nonpayable",
      "type": "function"
    },
    {
      "inputs": [],
      "name": "version",
      "outputs": [
        {
          "internalType": "string",
          "name": "",
          "type": "string"
        }
      ],
      "stateMutability": "view",
      "type": "function"
    }
  ],
  "bytecode": "0x60806040523480156200001157600080fd5b5060405162004bd238038062004bd2833981016040819052620000349162000bd0565b8851899089906200004d90600090602085019062000a7c565b5080516200006390600190602084019062000a7c565b5050600b80546001600160a01b03808e166001600160a01b031992831617909255600a80549287169290911691909117905550600f879055600c829055620000ac828862000d6a565b601055600d8190558551620000c990601390602089019062000a7c565b50600a6012819055605a60115560408051606081018252600080825260016020808401918252938301948552818052601a90935290517fb75ecc04ed35f89790e98640e901bda41eceff0cb896cf2765fb6976802537505590517fb75ecc04ed35f89790e98640e901bda41eceff0cb896cf2765fb6976802537515590517fb75ecc04ed35f89790e98640e901bda41eceff0cb896cf2765fb69768025375255620001769086906200027b565b62000183600085620002a1565b6001600e556040805160608101825243815242602080830191825292820187815260008052601b845282517f584f46c60af19681376031579adb04a2416e54ee5505351c2a8435e3766026ea90815591517f584f46c60af19681376031579adb04a2416e54ee5505351c2a8435e3766026eb55518051929391926200022c927f584f46c60af19681376031579adb04a2416e54ee5505351c2a8435e3766026ec92019062000a7c565b5050604080518082019091526003808252620312e360ec1b60209092019182526200025c92506014919062000a7c565b50506015805460ff191660011790555062000e63975050505050505050565b6200029d8282604051806020016040528060008152506200034660201b60201c565b5050565b6000828152600260205260409020546001600160a01b0316620003205760405162461bcd60e51b815260206004820152602c60248201527f4552433732314d657461646174613a2055524920736574206f66206e6f6e657860448201526b34b9ba32b73a103a37b5b2b760a11b60648201526084015b60405180910390fd5b60008281526016602090815260409091208251620003419284019062000a7c565b505050565b620003528383620003b9565b6200036160008484846200055a565b620003415760405162461bcd60e51b8152602060048201526032602482015260008051602062004bb283398151915260448201527131b2b4bb32b91034b6b83632b6b2b73a32b960711b606482015260840162000317565b6001600160a01b038216620004115760405162461bcd60e51b815260206004820181905260248201527f4552433732313a206d696e7420746f20746865207a65726f2061646472657373604482015260640162000317565b6000818152600260205260409020546001600160a01b031615620004785760405162461bcd60e51b815260206004820152601c60248201527f4552433732313a20746f6b656e20616c7265616479206d696e74656400000000604482015260640162000317565b62000488600083836001620006c3565b6000818152600260205260409020546001600160a01b031615620004ef5760405162461bcd60e51b815260206004820152601c60248201527f4552433732313a20746f6b656e20616c7265616479206d696e74656400000000604482015260640162000317565b6001600160a01b038216600081815260036020908152604080832080546001019055848352600290915280822080546001600160a01b0319168417905551839291907fddf252ad1be2c89b69c2b068fc378daa952ba7f163c4a11628f55a4df523b3ef908290a45050565b60006200057b846001600160a01b03166200082d60201b620026561760201c565b15620006b757604051630a85bd0160e11b81526001600160a01b0385169063150b7a0290620005b590339089908890889060040162000d14565b602060405180830381600087803b158015620005d057600080fd5b505af192505050801562000603575060408051601f3d908101601f19168201909252620006009181019062000ce1565b60015b6200069c573d80801562000634576040519150601f19603f3d011682016040523d82523d6000602084013e62000639565b606091505b508051620006945760405162461bcd60e51b8152602060048201526032602482015260008051602062004bb283398151915260448201527131b2b4bb32b91034b6b83632b6b2b73a32b960711b606482015260840162000317565b805181602001fd5b6001600160e01b031916630a85bd0160e11b149050620006bb565b5060015b949350505050565b620006dc848484846200082760201b62001bda1760201c565b6001811115620007555760405162461bcd60e51b815260206004820152603560248201527f455243373231456e756d657261626c653a20636f6e736563757469766520747260448201527f616e7366657273206e6f7420737570706f727465640000000000000000000000606482015260840162000317565b816001600160a01b038516620007b457620007ae81600880546000838152600960205260408120829055600182018355919091527ff3f7a9fe364faab93b216da50a3214154f22a0a2b415b23a84c8169e8b636ee30155565b620007da565b836001600160a01b0316856001600160a01b031614620007da57620007da85826200083c565b6001600160a01b038416620007fa57620007f481620008e9565b62000820565b846001600160a01b0316846001600160a01b0316146200082057620008208482620009a3565b5050505050565b50505050565b6001600160a01b03163b151590565b600060016200085684620009f460201b620012a01760201c565b62000862919062000d85565b600083815260076020526040902054909150808214620008b6576001600160a01b03841660009081526006602090815260408083208584528252808320548484528184208190558352600790915290208190555b5060009182526007602090815260408084208490556001600160a01b039094168352600681528383209183525290812055565b600854600090620008fd9060019062000d85565b6000838152600960205260408120546008805493945090928490811062000928576200092862000e37565b9060005260206000200154905080600883815481106200094c576200094c62000e37565b600091825260208083209091019290925582815260099091526040808220849055858252812055600880548062000987576200098762000e21565b6001900381819060005260206000200160009055905550505050565b6000620009bb83620009f460201b620012a01760201c565b6001600160a01b039093166000908152600660209081526040808320868452825280832085905593825260079052919091209190915550565b60006001600160a01b03821662000a605760405162461bcd60e51b815260206004820152602960248201527f4552433732313a2061646472657373207a65726f206973206e6f7420612076616044820152683634b21037bbb732b960b91b606482015260840162000317565b506001600160a01b031660009081526003602052604090205490565b82805462000a8a9062000dce565b90600052602060002090601f01602090048101928262000aae576000855562000af9565b82601f1062000ac957805160ff191683800117855562000af9565b8280016001018555821562000af9579182015b8281111562000af957825182559160200191906001019062000adc565b5062000b0792915062000b0b565b5090565b5b8082111562000b07576000815560010162000b0c565b80516001600160a01b038116811462000b3a57600080fd5b919050565b600082601f83011262000b5157600080fd5b81516001600160401b038082111562000b6e5762000b6e62000e4d565b604051601f8301601f19908116603f0116810190828211818310171562000b995762000b9962000e4d565b8160405283815286602085880101111562000bb357600080fd5b62000bc684602083016020890162000d9f565b9695505050505050565b6000806000806000806000806000806101408b8d03121562000bf157600080fd5b62000bfc8b62000b22565b60208c0151909a506001600160401b038082111562000c1a57600080fd5b62000c288e838f0162000b3f565b9a5060408d015191508082111562000c3f57600080fd5b62000c4d8e838f0162000b3f565b995060608d0151985060808d015191508082111562000c6b57600080fd5b62000c798e838f0162000b3f565b975062000c8960a08e0162000b22565b965060c08d015191508082111562000ca057600080fd5b5062000caf8d828e0162000b3f565b94505062000cc060e08c0162000b22565b92506101008b015191506101208b015190509295989b9194979a5092959850565b60006020828403121562000cf457600080fd5b81516001600160e01b03198116811462000d0d57600080fd5b9392505050565b600060018060a01b03808716835280861660208401525083604083015260806060830152825180608084015262000d538160a085016020870162000d9f565b601f01601f19169190910160a00195945050505050565b6000821982111562000d805762000d8062000e0b565b500190565b60008282101562000d9a5762000d9a62000e0b565b500390565b60005b8381101562000dbc57818101518382015260200162000da2565b83811115620008275750506000910152565b600181811c9082168062000de357607f821691505b6020821081141562000e0557634e487b7160e01b600052602260045260246000fd5b50919050565b634e487b7160e01b600052601160045260246000fd5b634e487b7160e01b600052603160045260246000fd5b634e487b7160e01b600052603260045260246000fd5b634e487b7160e01b600052604160045260246000fd5b613d3f8062000e736000396000f3fe6080604052600436106102935760003560e01c80638e59ebac1161015a578063b88d4fde116100c1578063e6205b911161007a578063e6205b91146107dc578063e985e9c5146107f6578063eb9ce1631461083f578063f9dc375f14610854578063ffc9896b14610867578063ffe644341461089457600080fd5b8063b88d4fde1461074b578063ba7aef431461076b578063c87b56dd1461077e578063cb2ef6f71461079e578063d41977cd146107b3578063d431a248146107c957600080fd5b8063a22cb46511610113578063a22cb46514610645578063a28039cd14610665578063a918458214610685578063aeb20b94146106a5578063af80a5be146106fc578063b09afec11461071e57600080fd5b80638e59ebac1461058a57806395d89b41146105aa57806396761595146105bf57806397a33342146105df578063a00745b6146105ff578063a035b1fe1461062f57600080fd5b80633c084fa5116101fe5780635a9be11b116101b75780635a9be11b146104d05780635bf61cfe146104d85780636352211e146104fa578063673448dd1461051a57806370a082311461054a5780638da5cb5b1461056a57600080fd5b80633c084fa5146104255780633c5e6c97146104455780634261917a1461045b57806342842e0e1461047b5780634f6ccce71461049b57806354fd4d50146104bb57600080fd5b806318160ddd1161025057806318160ddd1461038f5780632291e388146103a457806323b872dd146103ba5780632f745c59146103da57806337f1325d146103fa578063396876bd1461040f57600080fd5b806301ffc9a71461029857806306fdde03146102cd578063081812fc146102ef578063095ea7b3146103275780630e37b4fd1461034957806313966db51461036b575b600080fd5b3480156102a457600080fd5b506102b86102b33660046136c4565b6108b4565b60405190151581526020015b60405180910390f35b3480156102d957600080fd5b506102e26108df565b6040516102c491906139fa565b3480156102fb57600080fd5b5061030f61030a366004613797565b610971565b6040516001600160a01b0390911681526020016102c4565b34801561033357600080fd5b5061034761034236600461369a565b610998565b005b34801561035557600080fd5b5061035e610ab3565b6040516102c491906139e7565b34801561037757600080fd5b50610381600c5481565b6040519081526020016102c4565b34801561039b57600080fd5b50600854610381565b3480156103b057600080fd5b5061038160125481565b3480156103c657600080fd5b506103476103d5366004613561565b610ca6565b3480156103e657600080fd5b506103816103f536600461369a565b610cd7565b34801561040657600080fd5b50610347610d6d565b34801561041b57600080fd5b5061038160115481565b34801561043157600080fd5b506103476104403660046137d3565b610d89565b34801561045157600080fd5b5061038160105481565b34801561046757600080fd5b50610347610476366004613733565b610e95565b34801561048757600080fd5b50610347610496366004613561565b610f5d565b3480156104a757600080fd5b506103816104b6366004613797565b610f78565b3480156104c757600080fd5b506102e261100b565b610347611099565b3480156104e457600080fd5b506104ed61113c565b6040516102c49190613968565b34801561050657600080fd5b5061030f610515366004613797565b611240565b34801561052657600080fd5b506102b8610535366004613513565b60186020526000908152604090205460ff1681565b34801561055657600080fd5b50610381610565366004613513565b6112a0565b34801561057657600080fd5b50600b5461030f906001600160a01b031681565b34801561059657600080fd5b50600a5461030f906001600160a01b031681565b3480156105b657600080fd5b506102e2611326565b3480156105cb57600080fd5b506103476105da3660046136fe565b611335565b3480156105eb57600080fd5b506102e26105fa366004613513565b6114ac565b34801561060b57600080fd5b506102b861061a366004613513565b60176020526000908152604090205460ff1681565b34801561063b57600080fd5b50610381600f5481565b34801561065157600080fd5b50610347610660366004613619565b6114c5565b34801561067157600080fd5b506103476106803660046137b0565b6114d4565b34801561069157600080fd5b506103476106a0366004613797565b611766565b3480156106b157600080fd5b506106e16106c0366004613797565b601a6020526000908152604090208054600182015460029092015490919083565b604080519384526020840192909252908201526060016102c4565b34801561070857600080fd5b5061071161184a565b6040516102c49190613af1565b34801561072a57600080fd5b5061073e610739366004613797565b611ab9565b6040516102c49190613b9a565b34801561075757600080fd5b5061034761076636600461359d565b611ba8565b610347610779366004613643565b611be0565b34801561078a57600080fd5b506102e2610799366004613797565b611e7d565b3480156107aa57600080fd5b506102e261200c565b3480156107bf57600080fd5b50610381600d5481565b6103476107d7366004613797565b612019565b3480156107e857600080fd5b506015546102b89060ff1681565b34801561080257600080fd5b506102b861081136600461352e565b6001600160a01b03918216600090815260056020908152604080832093909416825291909152205460ff1690565b34801561084b57600080fd5b506104ed6120bc565b6103476108623660046136fe565b6121bf565b34801561087357600080fd5b50610887610882366004613513565b61236d565b6040516102c49190613bad565b3480156108a057600080fd5b506103476108af366004613797565b612484565b60006001600160e01b0319821663780e9d6360e01b14806108d957506108d982612665565b92915050565b6060600080546108ee90613c45565b80601f016020809104026020016040519081016040528092919081815260200182805461091a90613c45565b80156109675780601f1061093c57610100808354040283529160200191610967565b820191906000526020600020905b81548152906001019060200180831161094a57829003601f168201915b5050505050905090565b600061097c826126b5565b506000908152600460205260409020546001600160a01b031690565b60006109a382611240565b9050806001600160a01b0316836001600160a01b03161415610a165760405162461bcd60e51b815260206004820152602160248201527f4552433732313a20617070726f76616c20746f2063757272656e74206f776e656044820152603960f91b60648201526084015b60405180910390fd5b336001600160a01b0382161480610a325750610a328133610811565b610aa45760405162461bcd60e51b815260206004820152603d60248201527f4552433732313a20617070726f76652063616c6c6572206973206e6f7420746f60448201527f6b656e206f776e6572206f7220617070726f76656420666f7220616c6c0000006064820152608401610a0d565b610aae8383612714565b505050565b60606000610ac0336112a0565b11610aca57600080fd5b6000601a81610ada336000610cd7565b8152602001908152602001600020604051806060016040529081600082015481526020016001820154815260200160028201548152505090506000816040015111610b2457600080fd5b601f805480602002602001604051908101604052809291908181526020016000905b82821015610c9c5783829060005260206000209060020201604051806040016040529081600082018054610b7990613c45565b80601f0160208091040260200160405190810160405280929190818152602001828054610ba590613c45565b8015610bf25780601f10610bc757610100808354040283529160200191610bf2565b820191906000526020600020905b815481529060010190602001808311610bd557829003601f168201915b50505050508152602001600182018054610c0b90613c45565b80601f0160208091040260200160405190810160405280929190818152602001828054610c3790613c45565b8015610c845780601f10610c5957610100808354040283529160200191610c84565b820191906000526020600020905b815481529060010190602001808311610c6757829003601f168201915b50505050508152505081526020019060010190610b46565b5050505091505090565b610cb03382612782565b610ccc5760405162461bcd60e51b8152600401610a0d90613a0d565b610aae838383612801565b6000610ce2836112a0565b8210610d445760405162461bcd60e51b815260206004820152602b60248201527f455243373231456e756d657261626c653a206f776e657220696e646578206f7560448201526a74206f6620626f756e647360a81b6064820152608401610a0d565b506001600160a01b03919091166000908152600660209081526040808320938352929052205490565b610d75612972565b6015805460ff19811660ff90911615179055565b33610d9383611240565b6001600160a01b031614610da657600080fd5b60006040518060400160405280838152602001610dc03390565b6001600160a01b03169052601d805460018101825560009190915281518051929350839260029092027f6d4407e7be21f808e6509aa9fa9143369579dd7d760fe20a2c09680fc146134f0191610e1e91839160209190910190613294565b5060209190910151600190910180546001600160a01b0319166001600160a01b03909216919091179055336001600160a01b031682604051610e6091906138e0565b604051908190038120907f963cbefbf06d13486cfc0bc54715f33daf948850da30e2a3c2023e6624687ee190600090a3505050565b610e9d612972565b604080518082019091528281526020808201839052601f805460018101825560009190915282518051849360029093027fa03837a25210ee280c2113ff4b77ca23440b19d4866cca721c801278fd08d8070192610efe928492910190613294565b506020828101518051610f179260018501920190613294565b50505082604051610f2891906138e0565b604051908190038120907f035b065922620bc9e29f8f7e5156f5e151ecd66c99b686b6da840a49f68bc20890600090a2505050565b610aae83838360405180602001604052806000815250611ba8565b6000610f8360085490565b8210610fe65760405162461bcd60e51b815260206004820152602c60248201527f455243373231456e756d657261626c653a20676c6f62616c20696e646578206f60448201526b7574206f6620626f756e647360a01b6064820152608401610a0d565b60088281548110610ff957610ff9613cc7565b90600052602060002001549050919050565b6014805461101890613c45565b80601f016020809104026020016040519081016040528092919081815260200182805461104490613c45565b80156110915780601f1061106657610100808354040283529160200191611091565b820191906000526020600020905b81548152906001019060200180831161107457829003601f168201915b505050505081565b6110a1612972565b600d543410156110e95760405162461bcd60e51b815260206004820152601360248201527224b739bab33334b1b4b2b73a10333ab732399760691b6044820152606401610a0d565b6064601160008282546110fc9190613bea565b9091555050600a546001600160a01b03166108fc346040518115909202916000818181858888f19350505050158015611139573d6000803e3d6000fd5b50565b6060601e805480602002602001604051908101604052809291908181526020016000905b82821015611237578382906000526020600020906002020160405180604001604052908160008201805461119390613c45565b80601f01602080910402602001604051908101604052809291908181526020018280546111bf90613c45565b801561120c5780601f106111e15761010080835404028352916020019161120c565b820191906000526020600020905b8154815290600101906020018083116111ef57829003601f168201915b50505091835250506001918201546001600160a01b0316602091820152918352929092019101611160565b50505050905090565b6000818152600260205260408120546001600160a01b0316806108d95760405162461bcd60e51b8152602060048201526018602482015277115490cdcc8c4e881a5b9d985b1a59081d1bdad95b88125160421b6044820152606401610a0d565b60006001600160a01b03821661130a5760405162461bcd60e51b815260206004820152602960248201527f4552433732313a2061646472657373207a65726f206973206e6f7420612076616044820152683634b21037bbb732b960b91b6064820152608401610a0d565b506001600160a01b031660009081526003602052604090205490565b6060600180546108ee90613c45565b60155460ff166113ad5760405162461bcd60e51b815260206004820152603860248201527f5468697320636f6e7472616374206973206e6f7420616363657074696e67206e60448201527f6577206d656d6265727320617420746869732074696d652e00000000000000006064820152608401610a0d565b600060405180604001604052808381526020016113c73390565b6001600160a01b03169052601e805460018101825560009190915281518051929350839260029092027f50bb669a95c7b50b7e8a6f09454034b2b14cf2b85c730dca9a539ca82cb6e350019161142591839160209190910190613294565b50602091820151600191820180546001600160a01b0319166001600160a01b039092169190911790553360008181526017909352604092839020805460ff191690921790915590516114789084906138e0565b604051908190038120907f963cbefbf06d13486cfc0bc54715f33daf948850da30e2a3c2023e6624687ee190600090a35050565b6019602052600090815260409020805461101890613c45565b6114d03383836129ce565b5050565b6114dc612972565b600560115410156114ec57600080fd5b6000601e838154811061150157611501613cc7565b906000526020600020906002020160405180604001604052908160008201805461152a90613c45565b80601f016020809104026020016040519081016040528092919081815260200182805461155690613c45565b80156115a35780601f10611578576101008083540402835291602001916115a3565b820191906000526020600020905b81548152906001019060200180831161158657829003601f168201915b5050509183525050600191909101546001600160a01b03166020909101529050811561161557602080820180516001600160a01b039081166000908152601884526040808220805460ff191660011790558551935190921681526019845220815161161393919290910190613294565b505b601e805461162590600190613c02565b8154811061163557611635613cc7565b9060005260206000209060020201601e848154811061165657611656613cc7565b9060005260206000209060020201600082018160000190805461167890613c45565b611683929190613318565b50600191820154910180546001600160a01b0319166001600160a01b03909216919091179055601e8054806116ba576116ba613cb1565b600082815260208120600019909201916002830201906116da8282613393565b5060010180546001600160a01b03191690559055602080820180516001600160a01b0390811660009081526017909352604092839020805460ff1916905590518351925185151593919092169161173191906138e0565b604051908190038120907ff236cc347bab721c49031024cf484b8f76450f8d11ec7d097aa99bad74ace43290600090a4505050565b61176e612972565b601d805461177e90600190613c02565b8154811061178e5761178e613cc7565b9060005260206000209060020201601d82815481106117af576117af613cc7565b906000526020600020906002020160008201816000019080546117d190613c45565b6117dc929190613318565b50600191820154910180546001600160a01b0319166001600160a01b03909216919091179055601d80548061181357611813613cb1565b600082815260208120600019909201916002830201906118338282613393565b5060010180546001600160a01b0319169055905550565b6118526133cd565b600061185e6000611ab9565b6040805160e081018252600e548152600b546001600160a01b031660208201526013805493945090929183019161189490613c45565b80601f01602080910402602001604051908101604052809291908181526020018280546118c090613c45565b801561190d5780601f106118e25761010080835404028352916020019161190d565b820191906000526020600020905b8154815290600101906020018083116118f057829003601f168201915b505050505081526020016119216000611e7d565b8152602001601f805480602002602001604051908101604052809291908181526020016000905b82821015611a9e578382906000526020600020906002020160405180604001604052908160008201805461197b90613c45565b80601f01602080910402602001604051908101604052809291908181526020018280546119a790613c45565b80156119f45780601f106119c9576101008083540402835291602001916119f4565b820191906000526020600020905b8154815290600101906020018083116119d757829003601f168201915b50505050508152602001600182018054611a0d90613c45565b80601f0160208091040260200160405190810160405280929190818152602001828054611a3990613c45565b8015611a865780601f10611a5b57610100808354040283529160200191611a86565b820191906000526020600020905b815481529060010190602001808311611a6957829003601f168201915b50505050508152505081526020019060010190611948565b505050508152602001828152602001600f5481525091505090565b611add60405180606001604052806000815260200160008152602001606081525090565b601b60008381526020019081526020016000206040518060600160405290816000820154815260200160018201548152602001600282018054611b1f90613c45565b80601f0160208091040260200160405190810160405280929190818152602001828054611b4b90613c45565b8015611b985780601f10611b6d57610100808354040283529160200191611b98565b820191906000526020600020905b815481529060010190602001808311611b7b57829003601f168201915b5050505050815250509050919050565b611bb23383612782565b611bce5760405162461bcd60e51b8152600401610a0d90613a0d565b611bda84848484612a9d565b50505050565b601054341015611c325760405162461bcd60e51b815260206004820181905260248201527f4d696e74206661696c65643a20496e73756666696369656e742066756e64732e6044820152606401610a0d565b600c54341015611c4157600080fd5b6064600e5410611cb25760405162461bcd60e51b815260206004820152603660248201527f4d696e74206661696c65643a20436f6e74726163742068617320726561636865604482015275321034ba13b99036b4b73a1030b63637bbb0b731b29760511b6064820152608401610a0d565b33611cbc82611240565b6001600160a01b031614611ccf57600080fd5b6000818152601a60205260409020600281015460019091015410611d355760405162461bcd60e51b815260206004820181905260248201527f4d696e74206661696c65643a20416c6c6f77616e63652065786365656465642e6044820152606401610a0d565b611d4183600e54612ad0565b611d4d600e5483612aea565b60408051606081018252438152426020808301918252828401868152600e546000908152601b83529490942083518155915160018301559251805192939192611d9c9260028501920190613294565b5050600e805491506000611daf83613c80565b91905055506000611dbd3490565b90506000600f5482611dcf9190613c02565b600b54600f546040519293506001600160a01b039091169181156108fc0291906000818181858888f19350505050158015611e0e573d6000803e3d6000fd5b50600a546040516001600160a01b039091169082156108fc029083906000818181858888f19350505050158015611e49573d6000803e3d6000fd5b506001601a60008581526020019081526020016000206001016000828254611e719190613bea565b90915550505050505050565b6000818152600260205260409020546060906001600160a01b0316611efc5760405162461bcd60e51b815260206004820152602f60248201527f4552433732314d657461646174613a2055524920717565727920666f72206e6f60448201526e3732bc34b9ba32b73a103a37b5b2b760891b6064820152608401610a0d565b60008281526016602052604081208054611f1590613c45565b80601f0160208091040260200160405190810160405280929190818152602001828054611f4190613c45565b8015611f8e5780601f10611f6357610100808354040283529160200191611f8e565b820191906000526020600020905b815481529060010190602001808311611f7157829003601f168201915b505050505090506000611fac60408051602081019091526000815290565b9050805160001415611fbf575092915050565b815115611ff1578082604051602001611fd99291906138fc565b60405160208183030381529060405292505050919050565b80611ffb85612b82565b604051602001611fd99291906138fc565b6013805461101890613c45565b336000908152601c602052604090205460ff1615156001146120755760405162461bcd60e51b81526020600482015260156024820152742cb7ba9030b932903737ba1030b8383937bb32b21760591b6044820152606401610a0d565b3361207f82611240565b6001600160a01b03161461209257600080fd5b6000818152601a602052604081206002018054600592906120b4908490613bea565b909155505050565b60606120c6612972565b601d805480602002602001604051908101604052809291908181526020016000905b82821015611237578382906000526020600020906002020160405180604001604052908160008201805461211b90613c45565b80601f016020809104026020016040519081016040528092919081815260200182805461214790613c45565b80156121945780601f1061216957610100808354040283529160200191612194565b820191906000526020600020905b81548152906001019060200180831161217757829003601f168201915b50505091835250506001918201546001600160a01b03166020918201529183529290920191016120e8565b3360009081526018602052604090205460ff1661221e5760405162461bcd60e51b815260206004820152601d60248201527f436c69656e7420686173206e6f74206265656e20617070726f7665642e0000006044820152606401610a0d565b6005601154101561222e57600080fd5b60408051606081018252600e548082526001602080840182815260058587019081526000948552601a9092529490922092518355925192820192909255905160029091015561227f33600e54612ad0565b61228b600e5482612aea565b60408051606081018252438152426020808301918252828401858152600e546000908152601b835294909420835181559151600183015592518051929391926122da9260028501920190613294565b5050600e8054915060006122ed83613c80565b9091555050600b546001600160a01b03166108fc346040518115909202916000818181858888f1935050505015801561232a573d6000803e3d6000fd5b5060056011600082825461233e9190613c02565b9091555050336000908152601860209081526040808320805460ff191690556019909152812061113991613393565b6040805160808101825260008082526020820181905291810191909152606080820152600060405180608001604052806123a6856112a0565b81526001600160a01b03851660008181526017602090815260408083205460ff908116151583870152848452601883528184205416151581860152928252601990522080546060909201916123fa90613c45565b80601f016020809104026020016040519081016040528092919081815260200182805461242690613c45565b80156124735780601f1061244857610100808354040283529160200191612473565b820191906000526020600020905b81548152906001019060200180831161245657829003601f168201915b505050919092525090949350505050565b61248c612972565b601154601254106124f65760405162461bcd60e51b815260206004820152602e60248201527f5468697320636f6e74726163742068617320726561636865642069742773206d60448201526d34b73a1030b63637bbb0b731b29760911b6064820152608401610a0d565b6001601c6000601d848154811061250f5761250f613cc7565b6000918252602080832060016002909302018201546001600160a01b0316845283019390935260409091019020805492151560ff1990931692909217909155601d8054909161255d91613c02565b8154811061256d5761256d613cc7565b9060005260206000209060020201601d828154811061258e5761258e613cc7565b906000526020600020906002020160008201816000019080546125b090613c45565b6125bb929190613318565b50600191820154910180546001600160a01b0319166001600160a01b03909216919091179055601d8054806125f2576125f2613cb1565b600082815260208120600019909201916002830201906126128282613393565b5060010180546001600160a01b03191690559055601280546005919060009061263c908490613bea565b925050819055506005601160008282546120b49190613c02565b6001600160a01b03163b151590565b60006001600160e01b031982166380ac58cd60e01b148061269657506001600160e01b03198216635b5e139f60e01b145b806108d957506301ffc9a760e01b6001600160e01b03198316146108d9565b6000818152600260205260409020546001600160a01b03166111395760405162461bcd60e51b8152602060048201526018602482015277115490cdcc8c4e881a5b9d985b1a59081d1bdad95b88125160421b6044820152606401610a0d565b600081815260046020526040902080546001600160a01b0319166001600160a01b038416908117909155819061274982611240565b6001600160a01b03167f8c5be1e5ebec7d5bd14f71427d1e84f3dd0314c0f7b2291e5b200ac8c7c3b92560405160405180910390a45050565b60008061278e83611240565b9050806001600160a01b0316846001600160a01b031614806127d557506001600160a01b0380821660009081526005602090815260408083209388168352929052205460ff165b806127f95750836001600160a01b03166127ee84610971565b6001600160a01b0316145b949350505050565b826001600160a01b031661281482611240565b6001600160a01b03161461283a5760405162461bcd60e51b8152600401610a0d90613aac565b6001600160a01b03821661289c5760405162461bcd60e51b8152602060048201526024808201527f4552433732313a207472616e7366657220746f20746865207a65726f206164646044820152637265737360e01b6064820152608401610a0d565b6128a98383836001612c1f565b826001600160a01b03166128bc82611240565b6001600160a01b0316146128e25760405162461bcd60e51b8152600401610a0d90613aac565b600081815260046020908152604080832080546001600160a01b03199081169091556001600160a01b0387811680865260038552838620805460001901905590871680865283862080546001019055868652600290945282852080549092168417909155905184937fddf252ad1be2c89b69c2b068fc378daa952ba7f163c4a11628f55a4df523b3ef91a4505050565b600b546001600160a01b031633146129cc5760405162461bcd60e51b815260206004820181905260248201527f4f776e61626c653a2063616c6c6572206973206e6f7420746865206f776e65726044820152606401610a0d565b565b816001600160a01b0316836001600160a01b03161415612a305760405162461bcd60e51b815260206004820152601960248201527f4552433732313a20617070726f766520746f2063616c6c6572000000000000006044820152606401610a0d565b6001600160a01b03838116600081815260056020908152604080832094871680845294825291829020805460ff191686151590811790915591519182527f17307eab39ab6107e8899845ad3d59bd9653f200f220920489ca2b5937696c31910160405180910390a3505050565b612aa8848484612801565b612ab484848484612d53565b611bda5760405162461bcd60e51b8152600401610a0d90613a5a565b6114d0828260405180602001604052806000815250612e60565b6000828152600260205260409020546001600160a01b0316612b635760405162461bcd60e51b815260206004820152602c60248201527f4552433732314d657461646174613a2055524920736574206f66206e6f6e657860448201526b34b9ba32b73a103a37b5b2b760a11b6064820152608401610a0d565b60008281526016602090815260409091208251610aae92840190613294565b60606000612b8f83612e93565b600101905060008167ffffffffffffffff811115612baf57612baf613cdd565b6040519080825280601f01601f191660200182016040528015612bd9576020820181803683370190505b5090508181016020015b600019016f181899199a1a9b1b9c1cb0b131b232b360811b600a86061a8153600a8504945084612c1257612c17565b612be3565b509392505050565b6001811115612c8e5760405162461bcd60e51b815260206004820152603560248201527f455243373231456e756d657261626c653a20636f6e7365637574697665207472604482015274185b9cd9995c9cc81b9bdd081cdd5c1c1bdc9d1959605a1b6064820152608401610a0d565b816001600160a01b038516612cea57612ce581600880546000838152600960205260408120829055600182018355919091527ff3f7a9fe364faab93b216da50a3214154f22a0a2b415b23a84c8169e8b636ee30155565b612d0d565b836001600160a01b0316856001600160a01b031614612d0d57612d0d8582612f6b565b6001600160a01b038416612d2957612d2481613008565b612d4c565b846001600160a01b0316846001600160a01b031614612d4c57612d4c84826130b7565b5050505050565b60006001600160a01b0384163b15612e5557604051630a85bd0160e11b81526001600160a01b0385169063150b7a0290612d9790339089908890889060040161392b565b602060405180830381600087803b158015612db157600080fd5b505af1925050508015612de1575060408051601f3d908101601f19168201909252612dde918101906136e1565b60015b612e3b573d808015612e0f576040519150601f19603f3d011682016040523d82523d6000602084013e612e14565b606091505b508051612e335760405162461bcd60e51b8152600401610a0d90613a5a565b805181602001fd5b6001600160e01b031916630a85bd0160e11b1490506127f9565b506001949350505050565b612e6a83836130fb565b612e776000848484612d53565b610aae5760405162461bcd60e51b8152600401610a0d90613a5a565b60008072184f03e93ff9f4daa797ed6e38ed64bf6a1f0160401b8310612ed25772184f03e93ff9f4daa797ed6e38ed64bf6a1f0160401b830492506040015b6d04ee2d6d415b85acef81000000008310612efe576d04ee2d6d415b85acef8100000000830492506020015b662386f26fc100008310612f1c57662386f26fc10000830492506010015b6305f5e1008310612f34576305f5e100830492506008015b6127108310612f4857612710830492506004015b60648310612f5a576064830492506002015b600a83106108d95760010192915050565b60006001612f78846112a0565b612f829190613c02565b600083815260076020526040902054909150808214612fd5576001600160a01b03841660009081526006602090815260408083208584528252808320548484528184208190558352600790915290208190555b5060009182526007602090815260408084208490556001600160a01b039094168352600681528383209183525290812055565b60085460009061301a90600190613c02565b6000838152600960205260408120546008805493945090928490811061304257613042613cc7565b90600052602060002001549050806008838154811061306357613063613cc7565b600091825260208083209091019290925582815260099091526040808220849055858252812055600880548061309b5761309b613cb1565b6001900381819060005260206000200160009055905550505050565b60006130c2836112a0565b6001600160a01b039093166000908152600660209081526040808320868452825280832085905593825260079052919091209190915550565b6001600160a01b0382166131515760405162461bcd60e51b815260206004820181905260248201527f4552433732313a206d696e7420746f20746865207a65726f20616464726573736044820152606401610a0d565b6000818152600260205260409020546001600160a01b0316156131b65760405162461bcd60e51b815260206004820152601c60248201527f4552433732313a20746f6b656e20616c7265616479206d696e746564000000006044820152606401610a0d565b6131c4600083836001612c1f565b6000818152600260205260409020546001600160a01b0316156132295760405162461bcd60e51b815260206004820152601c60248201527f4552433732313a20746f6b656e20616c7265616479206d696e746564000000006044820152606401610a0d565b6001600160a01b038216600081815260036020908152604080832080546001019055848352600290915280822080546001600160a01b0319168417905551839291907fddf252ad1be2c89b69c2b068fc378daa952ba7f163c4a11628f55a4df523b3ef908290a45050565b8280546132a090613c45565b90600052602060002090601f0160209004810192826132c25760008555613308565b82601f106132db57805160ff1916838001178555613308565b82800160010185558215613308579182015b828111156133085782518255916020019190600101906132ed565b50613314929150613435565b5090565b82805461332490613c45565b90600052602060002090601f0160209004810192826133465760008555613308565b82601f106133575780548555613308565b8280016001018555821561330857600052602060002091601f016020900482015b82811115613308578254825591600101919060010190613378565b50805461339f90613c45565b6000825580601f106133af575050565b601f0160209004906000526020600020908101906111399190613435565b6040518060e001604052806000815260200160006001600160a01b0316815260200160608152602001606081526020016060815260200161342860405180606001604052806000815260200160008152602001606081525090565b8152602001600081525090565b5b808211156133145760008155600101613436565b600067ffffffffffffffff8084111561346557613465613cdd565b604051601f8501601f19908116603f0116810190828211818310171561348d5761348d613cdd565b816040528093508581528686860111156134a657600080fd5b858560208301376000602087830101525050509392505050565b80356001600160a01b03811681146134d757600080fd5b919050565b803580151581146134d757600080fd5b600082601f8301126134fd57600080fd5b61350c8383356020850161344a565b9392505050565b60006020828403121561352557600080fd5b61350c826134c0565b6000806040838503121561354157600080fd5b61354a836134c0565b9150613558602084016134c0565b90509250929050565b60008060006060848603121561357657600080fd5b61357f846134c0565b925061358d602085016134c0565b9150604084013590509250925092565b600080600080608085870312156135b357600080fd5b6135bc856134c0565b93506135ca602086016134c0565b925060408501359150606085013567ffffffffffffffff8111156135ed57600080fd5b8501601f810187136135fe57600080fd5b61360d8782356020840161344a565b91505092959194509250565b6000806040838503121561362c57600080fd5b613635836134c0565b9150613558602084016134dc565b60008060006060848603121561365857600080fd5b613661846134c0565b9250602084013567ffffffffffffffff81111561367d57600080fd5b613689868287016134ec565b925050604084013590509250925092565b600080604083850312156136ad57600080fd5b6136b6836134c0565b946020939093013593505050565b6000602082840312156136d657600080fd5b813561350c81613cf3565b6000602082840312156136f357600080fd5b815161350c81613cf3565b60006020828403121561371057600080fd5b813567ffffffffffffffff81111561372757600080fd5b6127f9848285016134ec565b6000806040838503121561374657600080fd5b823567ffffffffffffffff8082111561375e57600080fd5b61376a868387016134ec565b9350602085013591508082111561378057600080fd5b5061378d858286016134ec565b9150509250929050565b6000602082840312156137a957600080fd5b5035919050565b600080604083850312156137c357600080fd5b82359150613558602084016134dc565b600080604083850312156137e657600080fd5b82359150602083013567ffffffffffffffff81111561380457600080fd5b61378d858286016134ec565b600081518084526020808501808196508360051b8101915082860160005b8581101561387e5782840389528151604081518187526138508288018261388b565b9150508682015191508581038787015261386a818361388b565b9a87019a955050509084019060010161382e565b5091979650505050505050565b600081518084526138a3816020860160208601613c19565b601f01601f19169290920160200192915050565b805182526020810151602083015260006040820151606060408501526127f9606085018261388b565b600082516138f2818460208701613c19565b9190910192915050565b6000835161390e818460208801613c19565b835190830190613922818360208801613c19565b01949350505050565b6001600160a01b038581168252841660208201526040810183905260806060820181905260009061395e9083018461388b565b9695505050505050565b60006020808301818452808551808352604092508286019150828160051b87010184880160005b838110156139d957888303603f19018552815180518785526139b38886018261388b565b918901516001600160a01b0316948901949094529487019492509086019060010161398f565b509098975050505050505050565b60208152600061350c6020830184613810565b60208152600061350c602083018461388b565b6020808252602d908201527f4552433732313a2063616c6c6572206973206e6f7420746f6b656e206f776e6560408201526c1c881bdc88185c1c1c9bdd9959609a1b606082015260800190565b60208082526032908201527f4552433732313a207472616e7366657220746f206e6f6e20455243373231526560408201527131b2b4bb32b91034b6b83632b6b2b73a32b960711b606082015260800190565b60208082526025908201527f4552433732313a207472616e736665722066726f6d20696e636f72726563742060408201526437bbb732b960d91b606082015260800190565b602081528151602082015260018060a01b0360208301511660408201526000604083015160e06060840152613b2a61010084018261388b565b90506060840151601f1980858403016080860152613b48838361388b565b925060808601519150808584030160a0860152613b658383613810565b925060a08601519150808584030160c086015250613b8382826138b7565b91505060c084015160e08401528091505092915050565b60208152600061350c60208301846138b7565b6020815281516020820152602082015115156040820152604082015115156060820152600060608301516080808401526127f960a084018261388b565b60008219821115613bfd57613bfd613c9b565b500190565b600082821015613c1457613c14613c9b565b500390565b60005b83811015613c34578181015183820152602001613c1c565b83811115611bda5750506000910152565b600181811c90821680613c5957607f821691505b60208210811415613c7a57634e487b7160e01b600052602260045260246000fd5b50919050565b6000600019821415613c9457613c94613c9b565b5060010190565b634e487b7160e01b600052601160045260246000fd5b634e487b7160e01b600052603160045260246000fd5b634e487b7160e01b600052603260045260246000fd5b634e487b7160e01b600052604160045260246000fd5b6001600160e01b03198116811461113957600080fdfea264697066735822122099048c74fb08b83432f6ee06377e4e166e9c3caa38cdc95cec7f45fc55e620ff64736f6c634300080700334552433732313a207472616e7366657220746f206e6f6e204552433732315265",
  "linkReferences": {},
  "deployedLinkReferences": {}
}