{
  "_format": "hh-sol-artifact-1",
  "contractName": "Tambora",
  "sourceName": "contracts/Tambora.sol",
  "abi": [
    {
      "inputs": [
        {
          "internalType": "address",
          "name": "deployer",
          "type": "address"
        },
        {
          "internalType": "string",
          "name": "name",
          "type": "string"
        },
        {
          "internalType": "string",
          "name": "symbol",
          "type": "string"
        },
        {
          "internalType": "uint256",
          "name": "price_",
          "type": "uint256"
        },
        {
          "internalType": "string",
          "name": "contractType_",
          "type": "string"
        },
        {
          "internalType": "address",
          "name": "to_",
          "type": "address"
        },
        {
          "internalType": "string",
          "name": "uri_",
          "type": "string"
        },
        {
          "internalType": "address",
          "name": "factoryOwner_",
          "type": "address"
        },
        {
          "internalType": "uint256",
          "name": "mintFee_",
          "type": "uint256"
        },
        {
          "internalType": "uint256",
          "name": "contractFee_",
          "type": "uint256"
        }
      ],
      "stateMutability": "nonpayable",
      "type": "constructor"
    },
    {
      "anonymous": false,
      "inputs": [
        {
          "indexed": true,
          "internalType": "address",
          "name": "owner",
          "type": "address"
        },
        {
          "indexed": true,
          "internalType": "address",
          "name": "approved",
          "type": "address"
        },
        {
          "indexed": true,
          "internalType": "uint256",
          "name": "tokenId",
          "type": "uint256"
        }
      ],
      "name": "Approval",
      "type": "event"
    },
    {
      "anonymous": false,
      "inputs": [
        {
          "indexed": true,
          "internalType": "address",
          "name": "owner",
          "type": "address"
        },
        {
          "indexed": true,
          "internalType": "address",
          "name": "operator",
          "type": "address"
        },
        {
          "indexed": false,
          "internalType": "bool",
          "name": "approved",
          "type": "bool"
        }
      ],
      "name": "ApprovalForAll",
      "type": "event"
    },
    {
      "anonymous": false,
      "inputs": [
        {
          "indexed": true,
          "internalType": "string",
          "name": "name",
          "type": "string"
        }
      ],
      "name": "FileAdded",
      "type": "event"
    },
    {
      "anonymous": false,
      "inputs": [
        {
          "components": [
            {
              "internalType": "string",
              "name": "name",
              "type": "string"
            },
            {
              "internalType": "address",
              "name": "addr",
              "type": "address"
            }
          ],
          "indexed": true,
          "internalType": "struct Tambora.Client",
          "name": "clientData",
          "type": "tuple"
        }
      ],
      "name": "Request",
      "type": "event"
    },
    {
      "anonymous": false,
      "inputs": [
        {
          "components": [
            {
              "internalType": "string",
              "name": "name",
              "type": "string"
            },
            {
              "internalType": "address",
              "name": "addr",
              "type": "address"
            }
          ],
          "indexed": true,
          "internalType": "struct Tambora.Client",
          "name": "clientData",
          "type": "tuple"
        },
        {
          "indexed": true,
          "internalType": "bool",
          "name": "res",
          "type": "bool"
        }
      ],
      "name": "Response",
      "type": "event"
    },
    {
      "anonymous": false,
      "inputs": [
        {
          "indexed": true,
          "internalType": "address",
          "name": "from",
          "type": "address"
        },
        {
          "indexed": true,
          "internalType": "address",
          "name": "to",
          "type": "address"
        },
        {
          "indexed": true,
          "internalType": "uint256",
          "name": "tokenId",
          "type": "uint256"
        }
      ],
      "name": "Transfer",
      "type": "event"
    },
    {
      "inputs": [
        {
          "internalType": "string",
          "name": "name_",
          "type": "string"
        },
        {
          "internalType": "string",
          "name": "uri_",
          "type": "string"
        }
      ],
      "name": "addFileLocation",
      "outputs": [],
      "stateMutability": "nonpayable",
      "type": "function"
    },
    {
      "inputs": [],
      "name": "allottedAmount",
      "outputs": [
        {
          "internalType": "uint256",
          "name": "",
          "type": "uint256"
        }
      ],
      "stateMutability": "view",
      "type": "function"
    },
    {
      "inputs": [
        {
          "internalType": "address",
          "name": "to",
          "type": "address"
        },
        {
          "internalType": "uint256",
          "name": "tokenId",
          "type": "uint256"
        }
      ],
      "name": "approve",
      "outputs": [],
      "stateMutability": "nonpayable",
      "type": "function"
    },
    {
      "inputs": [
        {
          "internalType": "uint256",
          "name": "index_",
          "type": "uint256"
        }
      ],
      "name": "approveMintIncrease",
      "outputs": [],
      "stateMutability": "nonpayable",
      "type": "function"
    },
    {
      "inputs": [
        {
          "internalType": "uint256",
          "name": "index",
          "type": "uint256"
        },
        {
          "internalType": "bool",
          "name": "decision",
          "type": "bool"
        }
      ],
      "name": "approveOrDenyClient",
      "outputs": [],
      "stateMutability": "nonpayable",
      "type": "function"
    },
    {
      "inputs": [
        {
          "internalType": "address",
          "name": "",
          "type": "address"
        }
      ],
      "name": "approvedName",
      "outputs": [
        {
          "internalType": "string",
          "name": "",
          "type": "string"
        }
      ],
      "stateMutability": "view",
      "type": "function"
    },
    {
      "inputs": [
        {
          "internalType": "address",
          "name": "owner",
          "type": "address"
        }
      ],
      "name": "balanceOf",
      "outputs": [
        {
          "internalType": "uint256",
          "name": "",
          "type": "uint256"
        }
      ],
      "stateMutability": "view",
      "type": "function"
    },
    {
      "inputs": [],
      "name": "contractFee",
      "outputs": [
        {
          "internalType": "uint256",
          "name": "",
          "type": "uint256"
        }
      ],
      "stateMutability": "view",
      "type": "function"
    },
    {
      "inputs": [],
      "name": "contractType",
      "outputs": [
        {
          "internalType": "string",
          "name": "",
          "type": "string"
        }
      ],
      "stateMutability": "view",
      "type": "function"
    },
    {
      "inputs": [
        {
          "internalType": "uint256",
          "name": "index_",
          "type": "uint256"
        }
      ],
      "name": "denyMintIncrease",
      "outputs": [],
      "stateMutability": "nonpayable",
      "type": "function"
    },
    {
      "inputs": [
        {
          "internalType": "string",
          "name": "uri",
          "type": "string"
        }
      ],
      "name": "finalizeClient",
      "outputs": [],
      "stateMutability": "payable",
      "type": "function"
    },
    {
      "inputs": [
        {
          "internalType": "uint256",
          "name": "mintId_",
          "type": "uint256"
        }
      ],
      "name": "finalizeMintIncrease",
      "outputs": [],
      "stateMutability": "payable",
      "type": "function"
    },
    {
      "inputs": [
        {
          "internalType": "uint256",
          "name": "tokenId",
          "type": "uint256"
        }
      ],
      "name": "getApproved",
      "outputs": [
        {
          "internalType": "address",
          "name": "",
          "type": "address"
        }
      ],
      "stateMutability": "view",
      "type": "function"
    },
    {
      "inputs": [],
      "name": "getFileStore",
      "outputs": [
        {
          "components": [
            {
              "internalType": "string",
              "name": "name",
              "type": "string"
            },
            {
              "internalType": "string",
              "name": "uri",
              "type": "string"
            }
          ],
          "internalType": "struct Tambora.File[]",
          "name": "",
          "type": "tuple[]"
        }
      ],
      "stateMutability": "view",
      "type": "function"
    },
    {
      "inputs": [],
      "name": "getMintRequests",
      "outputs": [
        {
          "components": [
            {
              "internalType": "string",
              "name": "name",
              "type": "string"
            },
            {
              "internalType": "address",
              "name": "addr",
              "type": "address"
            }
          ],
          "internalType": "struct Tambora.Client[]",
          "name": "",
          "type": "tuple[]"
        }
      ],
      "stateMutability": "view",
      "type": "function"
    },
    {
      "inputs": [],
      "name": "getPendingClients",
      "outputs": [
        {
          "components": [
            {
              "internalType": "string",
              "name": "name",
              "type": "string"
            },
            {
              "internalType": "address",
              "name": "addr",
              "type": "address"
            }
          ],
          "internalType": "struct Tambora.Client[]",
          "name": "",
          "type": "tuple[]"
        }
      ],
      "stateMutability": "view",
      "type": "function"
    },
    {
      "inputs": [],
      "name": "getShowData",
      "outputs": [
        {
          "components": [
            {
              "internalType": "uint256",
              "name": "tokenId",
              "type": "uint256"
            },
            {
              "internalType": "address",
              "name": "manager",
              "type": "address"
            },
            {
              "internalType": "string",
              "name": "contractType",
              "type": "string"
            },
            {
              "internalType": "string",
              "name": "tokenURI",
              "type": "string"
            },
            {
              "components": [
                {
                  "internalType": "string",
                  "name": "name",
                  "type": "string"
                },
                {
                  "internalType": "string",
                  "name": "uri",
                  "type": "string"
                }
              ],
              "internalType": "struct Tambora.File[]",
              "name": "fileStore",
              "type": "tuple[]"
            }
          ],
          "internalType": "struct Tambora.ShowData",
          "name": "",
          "type": "tuple"
        }
      ],
      "stateMutability": "view",
      "type": "function"
    },
    {
      "inputs": [
        {
          "internalType": "uint256",
          "name": "id_",
          "type": "uint256"
        }
      ],
      "name": "getTokenData",
      "outputs": [
        {
          "components": [
            {
              "internalType": "uint256",
              "name": "blockNumber",
              "type": "uint256"
            },
            {
              "internalType": "uint256",
              "name": "timeStamp",
              "type": "uint256"
            },
            {
              "internalType": "string",
              "name": "uri",
              "type": "string"
            }
          ],
          "internalType": "struct Tambora.Token",
          "name": "",
          "type": "tuple"
        }
      ],
      "stateMutability": "view",
      "type": "function"
    },
    {
      "inputs": [],
      "name": "increaseContractMintAllowance",
      "outputs": [],
      "stateMutability": "payable",
      "type": "function"
    },
    {
      "inputs": [
        {
          "internalType": "address",
          "name": "",
          "type": "address"
        }
      ],
      "name": "isApproved",
      "outputs": [
        {
          "internalType": "bool",
          "name": "",
          "type": "bool"
        }
      ],
      "stateMutability": "view",
      "type": "function"
    },
    {
      "inputs": [
        {
          "internalType": "address",
          "name": "owner",
          "type": "address"
        },
        {
          "internalType": "address",
          "name": "operator",
          "type": "address"
        }
      ],
      "name": "isApprovedForAll",
      "outputs": [
        {
          "internalType": "bool",
          "name": "",
          "type": "bool"
        }
      ],
      "stateMutability": "view",
      "type": "function"
    },
    {
      "inputs": [
        {
          "internalType": "address",
          "name": "",
          "type": "address"
        }
      ],
      "name": "isPending",
      "outputs": [
        {
          "internalType": "bool",
          "name": "",
          "type": "bool"
        }
      ],
      "stateMutability": "view",
      "type": "function"
    },
    {
      "inputs": [
        {
          "internalType": "uint256",
          "name": "",
          "type": "uint256"
        }
      ],
      "name": "memberTokens",
      "outputs": [
        {
          "internalType": "uint256",
          "name": "mintId",
          "type": "uint256"
        },
        {
          "internalType": "uint256",
          "name": "minted",
          "type": "uint256"
        },
        {
          "internalType": "uint256",
          "name": "mintAllowance",
          "type": "uint256"
        }
      ],
      "stateMutability": "view",
      "type": "function"
    },
    {
      "inputs": [
        {
          "internalType": "address",
          "name": "to_",
          "type": "address"
        },
        {
          "internalType": "string",
          "name": "uri",
          "type": "string"
        },
        {
          "internalType": "uint256",
          "name": "mintId_",
          "type": "uint256"
        }
      ],
      "name": "mint",
      "outputs": [],
      "stateMutability": "payable",
      "type": "function"
    },
    {
      "inputs": [],
      "name": "mintAllowance",
      "outputs": [
        {
          "internalType": "uint256",
          "name": "",
          "type": "uint256"
        }
      ],
      "stateMutability": "view",
      "type": "function"
    },
    {
      "inputs": [],
      "name": "mintFee",
      "outputs": [
        {
          "internalType": "uint256",
          "name": "",
          "type": "uint256"
        }
      ],
      "stateMutability": "view",
      "type": "function"
    },
    {
      "inputs": [],
      "name": "name",
      "outputs": [
        {
          "internalType": "string",
          "name": "",
          "type": "string"
        }
      ],
      "stateMutability": "view",
      "type": "function"
    },
    {
      "inputs": [],
      "name": "owner",
      "outputs": [
        {
          "internalType": "address payable",
          "name": "",
          "type": "address"
        }
      ],
      "stateMutability": "view",
      "type": "function"
    },
    {
      "inputs": [
        {
          "internalType": "uint256",
          "name": "tokenId",
          "type": "uint256"
        }
      ],
      "name": "ownerOf",
      "outputs": [
        {
          "internalType": "address",
          "name": "",
          "type": "address"
        }
      ],
      "stateMutability": "view",
      "type": "function"
    },
    {
      "inputs": [],
      "name": "price",
      "outputs": [
        {
          "internalType": "uint256",
          "name": "",
          "type": "uint256"
        }
      ],
      "stateMutability": "view",
      "type": "function"
    },
    {
      "inputs": [
        {
          "internalType": "string",
          "name": "name",
          "type": "string"
        }
      ],
      "name": "requestApproval",
      "outputs": [],
      "stateMutability": "nonpayable",
      "type": "function"
    },
    {
      "inputs": [
        {
          "internalType": "uint256",
          "name": "mintId_",
          "type": "uint256"
        },
        {
          "internalType": "string",
          "name": "name_",
          "type": "string"
        }
      ],
      "name": "requestMintIncrease",
      "outputs": [],
      "stateMutability": "nonpayable",
      "type": "function"
    },
    {
      "inputs": [
        {
          "internalType": "address",
          "name": "from",
          "type": "address"
        },
        {
          "internalType": "address",
          "name": "to",
          "type": "address"
        },
        {
          "internalType": "uint256",
          "name": "tokenId",
          "type": "uint256"
        }
      ],
      "name": "safeTransferFrom",
      "outputs": [],
      "stateMutability": "nonpayable",
      "type": "function"
    },
    {
      "inputs": [
        {
          "internalType": "address",
          "name": "from",
          "type": "address"
        },
        {
          "internalType": "address",
          "name": "to",
          "type": "address"
        },
        {
          "internalType": "uint256",
          "name": "tokenId",
          "type": "uint256"
        },
        {
          "internalType": "bytes",
          "name": "data",
          "type": "bytes"
        }
      ],
      "name": "safeTransferFrom",
      "outputs": [],
      "stateMutability": "nonpayable",
      "type": "function"
    },
    {
      "inputs": [
        {
          "internalType": "address",
          "name": "operator",
          "type": "address"
        },
        {
          "internalType": "bool",
          "name": "approved",
          "type": "bool"
        }
      ],
      "name": "setApprovalForAll",
      "outputs": [],
      "stateMutability": "nonpayable",
      "type": "function"
    },
    {
      "inputs": [
        {
          "internalType": "bytes4",
          "name": "interfaceId",
          "type": "bytes4"
        }
      ],
      "name": "supportsInterface",
      "outputs": [
        {
          "internalType": "bool",
          "name": "",
          "type": "bool"
        }
      ],
      "stateMutability": "view",
      "type": "function"
    },
    {
      "inputs": [],
      "name": "symbol",
      "outputs": [
        {
          "internalType": "string",
          "name": "",
          "type": "string"
        }
      ],
      "stateMutability": "view",
      "type": "function"
    },
    {
      "inputs": [
        {
          "internalType": "uint256",
          "name": "index",
          "type": "uint256"
        }
      ],
      "name": "tokenByIndex",
      "outputs": [
        {
          "internalType": "uint256",
          "name": "",
          "type": "uint256"
        }
      ],
      "stateMutability": "view",
      "type": "function"
    },
    {
      "inputs": [
        {
          "internalType": "address",
          "name": "owner",
          "type": "address"
        },
        {
          "internalType": "uint256",
          "name": "index",
          "type": "uint256"
        }
      ],
      "name": "tokenOfOwnerByIndex",
      "outputs": [
        {
          "internalType": "uint256",
          "name": "",
          "type": "uint256"
        }
      ],
      "stateMutability": "view",
      "type": "function"
    },
    {
      "inputs": [
        {
          "internalType": "uint256",
          "name": "tokenId_",
          "type": "uint256"
        }
      ],
      "name": "tokenURI",
      "outputs": [
        {
          "internalType": "string",
          "name": "",
          "type": "string"
        }
      ],
      "stateMutability": "view",
      "type": "function"
    },
    {
      "inputs": [],
      "name": "totalSupply",
      "outputs": [
        {
          "internalType": "uint256",
          "name": "",
          "type": "uint256"
        }
      ],
      "stateMutability": "view",
      "type": "function"
    },
    {
      "inputs": [
        {
          "internalType": "address",
          "name": "from",
          "type": "address"
        },
        {
          "internalType": "address",
          "name": "to",
          "type": "address"
        },
        {
          "internalType": "uint256",
          "name": "tokenId",
          "type": "uint256"
        }
      ],
      "name": "transferFrom",
      "outputs": [],
      "stateMutability": "nonpayable",
      "type": "function"
    }
  ],
  "bytecode": "0x60806040523480156200001157600080fd5b50604051620044103803806200441083398101604081905262000034916200099b565b8851899089906200004d90600090602085019062000821565b5080516200006390600190602084019062000821565b5050600b80546001600160a01b03808e166001600160a01b031992831617909255600a80549287169290911691909117905550600f879055600c829055600d8190558551620000ba90601290602089019062000821565b50600a6011819055605a60105560408051606081018252600080825260016020808401918252938301948552818052601790935290517fd840e16649f6b9a295d95876f4633d3a6b10b55e8162971cf78afd886d5ec89b5590517fd840e16649f6b9a295d95876f4633d3a6b10b55e8162971cf78afd886d5ec89c5590517fd840e16649f6b9a295d95876f4633d3a6b10b55e8162971cf78afd886d5ec89d556200016790869062000231565b62000174600085620003d6565b6001600e5560408051606081018252438152426020808301918252928201878152600080526018845282517f999d26de3473317ead3eeaf34ca78057f1439db67b6953469c3c96ce9caf6bd790815591517f999d26de3473317ead3eeaf34ca78057f1439db67b6953469c3c96ce9caf6bd855518051929391926200021d927f999d26de3473317ead3eeaf34ca78057f1439db67b6953469c3c96ce9caf6bd992019062000821565b509050505050505050505050505062000b51565b6001600160a01b0382166200028d5760405162461bcd60e51b815260206004820181905260248201527f4552433732313a206d696e7420746f20746865207a65726f206164647265737360448201526064015b60405180910390fd5b6000818152600260205260409020546001600160a01b031615620002f45760405162461bcd60e51b815260206004820152601c60248201527f4552433732313a20746f6b656e20616c7265616479206d696e74656400000000604482015260640162000284565b6200030460008383600162000477565b6000818152600260205260409020546001600160a01b0316156200036b5760405162461bcd60e51b815260206004820152601c60248201527f4552433732313a20746f6b656e20616c7265616479206d696e74656400000000604482015260640162000284565b6001600160a01b038216600081815260036020908152604080832080546001019055848352600290915280822080546001600160a01b0319168417905551839291907fddf252ad1be2c89b69c2b068fc378daa952ba7f163c4a11628f55a4df523b3ef908290a45050565b6000828152600260205260409020546001600160a01b0316620004515760405162461bcd60e51b815260206004820152602c60248201527f4552433732314d657461646174613a2055524920736574206f66206e6f6e657860448201526b34b9ba32b73a103a37b5b2b760a11b606482015260840162000284565b60008281526013602090815260409091208251620004729284019062000821565b505050565b6200049084848484620005db60201b62001a001760201c565b6001811115620005095760405162461bcd60e51b815260206004820152603560248201527f455243373231456e756d657261626c653a20636f6e736563757469766520747260448201527f616e7366657273206e6f7420737570706f727465640000000000000000000000606482015260840162000284565b816001600160a01b03851662000568576200056281600880546000838152600960205260408120829055600182018355919091527ff3f7a9fe364faab93b216da50a3214154f22a0a2b415b23a84c8169e8b636ee30155565b6200058e565b836001600160a01b0316856001600160a01b0316146200058e576200058e8582620005e1565b6001600160a01b038416620005ae57620005a8816200068e565b620005d4565b846001600160a01b0316846001600160a01b031614620005d457620005d4848262000748565b5050505050565b50505050565b60006001620005fb846200079960201b620010ba1760201c565b62000607919062000aac565b6000838152600760205260409020549091508082146200065b576001600160a01b03841660009081526006602090815260408083208584528252808320548484528184208190558352600790915290208190555b5060009182526007602090815260408084208490556001600160a01b039094168352600681528383209183525290812055565b600854600090620006a29060019062000aac565b60008381526009602052604081205460088054939450909284908110620006cd57620006cd62000b25565b906000526020600020015490508060088381548110620006f157620006f162000b25565b60009182526020808320909101929092558281526009909152604080822084905585825281205560088054806200072c576200072c62000b0f565b6001900381819060005260206000200160009055905550505050565b600062000760836200079960201b620010ba1760201c565b6001600160a01b039093166000908152600660209081526040808320868452825280832085905593825260079052919091209190915550565b60006001600160a01b038216620008055760405162461bcd60e51b815260206004820152602960248201527f4552433732313a2061646472657373207a65726f206973206e6f7420612076616044820152683634b21037bbb732b960b91b606482015260840162000284565b506001600160a01b031660009081526003602052604090205490565b8280546200082f9062000ad2565b90600052602060002090601f0160209004810192826200085357600085556200089e565b82601f106200086e57805160ff19168380011785556200089e565b828001600101855582156200089e579182015b828111156200089e57825182559160200191906001019062000881565b50620008ac929150620008b0565b5090565b5b80821115620008ac5760008155600101620008b1565b80516001600160a01b0381168114620008df57600080fd5b919050565b600082601f830112620008f657600080fd5b81516001600160401b038082111562000913576200091362000b3b565b604051601f8301601f19908116603f011681019082821181831017156200093e576200093e62000b3b565b816040528381526020925086838588010111156200095b57600080fd5b600091505b838210156200097f578582018301518183018401529082019062000960565b83821115620009915760008385830101525b9695505050505050565b6000806000806000806000806000806101408b8d031215620009bc57600080fd5b620009c78b620008c7565b60208c0151909a506001600160401b0380821115620009e557600080fd5b620009f38e838f01620008e4565b9a5060408d015191508082111562000a0a57600080fd5b62000a188e838f01620008e4565b995060608d0151985060808d015191508082111562000a3657600080fd5b62000a448e838f01620008e4565b975062000a5460a08e01620008c7565b965060c08d015191508082111562000a6b57600080fd5b5062000a7a8d828e01620008e4565b94505062000a8b60e08c01620008c7565b92506101008b015191506101208b015190509295989b9194979a5092959850565b60008282101562000acd57634e487b7160e01b600052601160045260246000fd5b500390565b600181811c9082168062000ae757607f821691505b6020821081141562000b0957634e487b7160e01b600052602260045260246000fd5b50919050565b634e487b7160e01b600052603160045260246000fd5b634e487b7160e01b600052603260045260246000fd5b634e487b7160e01b600052604160045260246000fd5b6138af8062000b616000396000f3fe6080604052600436106102515760003560e01c806395d89b4111610139578063b09afec1116100b6578063d41977cd1161007a578063d41977cd14610711578063d431a24814610727578063e985e9c51461073a578063eb9ce16314610783578063f9dc375f14610798578063ffe64434146107ab57600080fd5b8063b09afec11461067c578063b88d4fde146106a9578063ba7aef43146106c9578063c87b56dd146106dc578063cb2ef6f7146106fc57600080fd5b8063a22cb465116100fd578063a22cb465146105a3578063a28039cd146105c3578063a9184582146105e3578063aeb20b9414610603578063af80a5be1461065a57600080fd5b806395d89b4114610508578063967615951461051d57806397a333421461053d578063a00745b61461055d578063a035b1fe1461058d57600080fd5b8063396876bd116101d25780635a9be11b116101965780635a9be11b1461044e5780635bf61cfe146104565780636352211e14610478578063673448dd1461049857806370a08231146104c85780638da5cb5b146104e857600080fd5b8063396876bd146103b85780633c084fa5146103ce5780634261917a146103ee57806342842e0e1461040e5780634f6ccce71461042e57600080fd5b806313966db51161021957806313966db51461032957806318160ddd1461034d5780632291e3881461036257806323b872dd146103785780632f745c591461039857600080fd5b806301ffc9a71461025657806306fdde031461028b578063081812fc146102ad578063095ea7b3146102e55780630e37b4fd14610307575b600080fd5b34801561026257600080fd5b50610276610271366004613270565b6107cb565b60405190151581526020015b60405180910390f35b34801561029757600080fd5b506102a06107f6565b60405161028291906135b7565b3480156102b957600080fd5b506102cd6102c8366004613343565b610888565b6040516001600160a01b039091168152602001610282565b3480156102f157600080fd5b50610305610300366004613246565b6108af565b005b34801561031357600080fd5b5061031c6109ca565b60405161028291906135a4565b34801561033557600080fd5b5061033f600c5481565b604051908152602001610282565b34801561035957600080fd5b5060085461033f565b34801561036e57600080fd5b5061033f60115481565b34801561038457600080fd5b5061030561039336600461310d565b610b62565b3480156103a457600080fd5b5061033f6103b3366004613246565b610b93565b3480156103c457600080fd5b5061033f60105481565b3480156103da57600080fd5b506103056103e936600461337f565b610c29565b3480156103fa57600080fd5b506103056104093660046132df565b610d2b565b34801561041a57600080fd5b5061030561042936600461310d565b610df3565b34801561043a57600080fd5b5061033f610449366004613343565b610e0e565b610305610ea1565b34801561046257600080fd5b5061046b610f5f565b6040516102829190613525565b34801561048457600080fd5b506102cd610493366004613343565b61105a565b3480156104a457600080fd5b506102766104b33660046130bf565b60156020526000908152604090205460ff1681565b3480156104d457600080fd5b5061033f6104e33660046130bf565b6110ba565b3480156104f457600080fd5b50600b546102cd906001600160a01b031681565b34801561051457600080fd5b506102a0611140565b34801561052957600080fd5b506103056105383660046132aa565b61114f565b34801561054957600080fd5b506102a06105583660046130bf565b61124c565b34801561056957600080fd5b506102766105783660046130bf565b60146020526000908152604090205460ff1681565b34801561059957600080fd5b5061033f600f5481565b3480156105af57600080fd5b506103056105be3660046131c5565b6112e6565b3480156105cf57600080fd5b506103056105de36600461335c565b6112f5565b3480156105ef57600080fd5b506103056105fe366004613343565b611579565b34801561060f57600080fd5b5061063f61061e366004613343565b60176020526000908152604090208054600182015460029092015490919083565b60408051938452602084019290925290820152606001610282565b34801561066657600080fd5b5061066f61165d565b60405161028291906136ae565b34801561068857600080fd5b5061069c610697366004613343565b6118df565b604051610282919061372b565b3480156106b557600080fd5b506103056106c4366004613149565b6119ce565b6103056106d73660046131ef565b611a06565b3480156106e857600080fd5b506102a06106f7366004613343565b611ca6565b34801561070857600080fd5b506102a0611e35565b34801561071d57600080fd5b5061033f600d5481565b610305610735366004613343565b611e42565b34801561074657600080fd5b506102766107553660046130da565b6001600160a01b03918216600090815260056020908152604080832093909416825291909152205460ff1690565b34801561078f57600080fd5b5061046b611f40565b6103056107a63660046132aa565b612043565b3480156107b757600080fd5b506103056107c6366004613343565b6121f1565b60006001600160e01b0319821663780e9d6360e01b14806107f057506107f0826122ca565b92915050565b606060008054610805906137b5565b80601f0160208091040260200160405190810160405280929190818152602001828054610831906137b5565b801561087e5780601f106108535761010080835404028352916020019161087e565b820191906000526020600020905b81548152906001019060200180831161086157829003601f168201915b5050505050905090565b60006108938261231a565b506000908152600460205260409020546001600160a01b031690565b60006108ba8261105a565b9050806001600160a01b0316836001600160a01b0316141561092d5760405162461bcd60e51b815260206004820152602160248201527f4552433732313a20617070726f76616c20746f2063757272656e74206f776e656044820152603960f91b60648201526084015b60405180910390fd5b336001600160a01b038216148061094957506109498133610755565b6109bb5760405162461bcd60e51b815260206004820152603d60248201527f4552433732313a20617070726f76652063616c6c6572206973206e6f7420746f60448201527f6b656e206f776e6572206f7220617070726f76656420666f7220616c6c0000006064820152608401610924565b6109c58383612379565b505050565b606060006109d7336110ba565b116109e157600080fd5b601c805480602002602001604051908101604052809291908181526020016000905b82821015610b595783829060005260206000209060020201604051806040016040529081600082018054610a36906137b5565b80601f0160208091040260200160405190810160405280929190818152602001828054610a62906137b5565b8015610aaf5780601f10610a8457610100808354040283529160200191610aaf565b820191906000526020600020905b815481529060010190602001808311610a9257829003601f168201915b50505050508152602001600182018054610ac8906137b5565b80601f0160208091040260200160405190810160405280929190818152602001828054610af4906137b5565b8015610b415780601f10610b1657610100808354040283529160200191610b41565b820191906000526020600020905b815481529060010190602001808311610b2457829003601f168201915b50505050508152505081526020019060010190610a03565b50505050905090565b610b6c33826123e7565b610b885760405162461bcd60e51b8152600401610924906135ca565b6109c5838383612466565b6000610b9e836110ba565b8210610c005760405162461bcd60e51b815260206004820152602b60248201527f455243373231456e756d657261626c653a206f776e657220696e646578206f7560448201526a74206f6620626f756e647360a81b6064820152608401610924565b506001600160a01b03919091166000908152600660209081526040808320938352929052205490565b33610c338361105a565b6001600160a01b031614610c4657600080fd5b60006040518060400160405280838152602001610c603390565b6001600160a01b03169052601a805460018101825560009190915281518051929350839260029092027f057c384a7d1c54f3a1b2e5e67b2617b8224fdfd1ea7234eea573a6ff665ff63e0191610cbe91839160209190910190612eac565b5060209190910151600190910180546001600160a01b0319166001600160a01b03909216919091179055604051610cf69082906134ae565b604051908190038120907f88db4a536f075851673fbcb81050ab51c0a709de0eef6aa0c872a927c0ade24c90600090a2505050565b610d336125d7565b604080518082019091528281526020808201839052601c805460018101825560009190915282518051849360029093027f0e4562a10381dec21b205ed72637e6b1b523bdd0e4d4d50af5cd23dd4500a2110192610d94928492910190612eac565b506020828101518051610dad9260018501920190612eac565b50505082604051610dbe9190613463565b604051908190038120907f035b065922620bc9e29f8f7e5156f5e151ecd66c99b686b6da840a49f68bc20890600090a2505050565b6109c5838383604051806020016040528060008152506119ce565b6000610e1960085490565b8210610e7c5760405162461bcd60e51b815260206004820152602c60248201527f455243373231456e756d657261626c653a20676c6f62616c20696e646578206f60448201526b7574206f6620626f756e647360a01b6064820152608401610924565b60088281548110610e8f57610e8f613837565b90600052602060002001549050919050565b610ea96125d7565b66b1a2bc2ec50000341015610f0c5760405162461bcd60e51b8152602060048201526024808201527f54686973207472616e73616374696f6e20726571756972657320302e303520656044820152633a3432b960e11b6064820152608401610924565b606460106000828254610f1f919061375a565b9091555050600a546001600160a01b03166108fc346040518115909202916000818181858888f19350505050158015610f5c573d6000803e3d6000fd5b50565b6060601b805480602002602001604051908101604052809291908181526020016000905b82821015610b595783829060005260206000209060020201604051806040016040529081600082018054610fb6906137b5565b80601f0160208091040260200160405190810160405280929190818152602001828054610fe2906137b5565b801561102f5780601f106110045761010080835404028352916020019161102f565b820191906000526020600020905b81548152906001019060200180831161101257829003601f168201915b50505091835250506001918201546001600160a01b0316602091820152918352929092019101610f83565b6000818152600260205260408120546001600160a01b0316806107f05760405162461bcd60e51b8152602060048201526018602482015277115490cdcc8c4e881a5b9d985b1a59081d1bdad95b88125160421b6044820152606401610924565b60006001600160a01b0382166111245760405162461bcd60e51b815260206004820152602960248201527f4552433732313a2061646472657373207a65726f206973206e6f7420612076616044820152683634b21037bbb732b960b91b6064820152608401610924565b506001600160a01b031660009081526003602052604090205490565b606060018054610805906137b5565b600060405180604001604052808381526020016111693390565b6001600160a01b03169052601b805460018101825560009190915281518051929350839260029092027f3ad8aa4f87544323a9d1e5dd902f40c356527a7955687113db5f9a85ad579dc101916111c791839160209190910190612eac565b50602091820151600191820180546001600160a01b0319166001600160a01b039092169190911790553360009081526014909252604091829020805460ff19169091179055516112189082906134ae565b604051908190038120907f88db4a536f075851673fbcb81050ab51c0a709de0eef6aa0c872a927c0ade24c90600090a25050565b60166020526000908152604090208054611265906137b5565b80601f0160208091040260200160405190810160405280929190818152602001828054611291906137b5565b80156112de5780601f106112b3576101008083540402835291602001916112de565b820191906000526020600020905b8154815290600101906020018083116112c157829003601f168201915b505050505081565b6112f1338383612633565b5050565b6112fd6125d7565b6005601054101561130d57600080fd5b6000601b838154811061132257611322613837565b906000526020600020906002020160405180604001604052908160008201805461134b906137b5565b80601f0160208091040260200160405190810160405280929190818152602001828054611377906137b5565b80156113c45780601f10611399576101008083540402835291602001916113c4565b820191906000526020600020905b8154815290600101906020018083116113a757829003601f168201915b5050509183525050600191909101546001600160a01b03166020909101529050811561143657602080820180516001600160a01b039081166000908152601584526040808220805460ff191660011790558551935190921681526016845220815161143493919290910190612eac565b505b8115158160405161144791906134ae565b604051908190038120907f5b5cc648c0cdb118eeb9957a32510510d658bb499f3d22585ddf52d84082956c90600090a3601b805461148790600190613772565b8154811061149757611497613837565b9060005260206000209060020201601b84815481106114b8576114b8613837565b906000526020600020906002020160008201816000019080546114da906137b5565b6114e5929190612f30565b50600191820154910180546001600160a01b0319166001600160a01b03909216919091179055601b80548061151c5761151c613821565b6000828152602081206000199092019160028302019061153c8282612fab565b5060010180546001600160a01b031916905590556020908101516001600160a01b03166000908152601490915260409020805460ff191690555050565b6115816125d7565b601a805461159190600190613772565b815481106115a1576115a1613837565b9060005260206000209060020201601a82815481106115c2576115c2613837565b906000526020600020906002020160008201816000019080546115e4906137b5565b6115ef929190612f30565b50600191820154910180546001600160a01b0319166001600160a01b03909216919091179055601a80548061162657611626613821565b600082815260208120600019909201916002830201906116468282612fab565b5060010180546001600160a01b0319169055905550565b6116986040518060a001604052806000815260200160006001600160a01b031681526020016060815260200160608152602001606081525090565b6040805160a081018252600e548152600b546001600160a01b031660208201526012805491928301916116ca906137b5565b80601f01602080910402602001604051908101604052809291908181526020018280546116f6906137b5565b80156117435780601f1061171857610100808354040283529160200191611743565b820191906000526020600020905b81548152906001019060200180831161172657829003601f168201915b505050505081526020016117576000611ca6565b8152602001601c805480602002602001604051908101604052809291908181526020016000905b828210156118d457838290600052602060002090600202016040518060400160405290816000820180546117b1906137b5565b80601f01602080910402602001604051908101604052809291908181526020018280546117dd906137b5565b801561182a5780601f106117ff5761010080835404028352916020019161182a565b820191906000526020600020905b81548152906001019060200180831161180d57829003601f168201915b50505050508152602001600182018054611843906137b5565b80601f016020809104026020016040519081016040528092919081815260200182805461186f906137b5565b80156118bc5780601f10611891576101008083540402835291602001916118bc565b820191906000526020600020905b81548152906001019060200180831161189f57829003601f168201915b5050505050815250508152602001906001019061177e565b505050915250919050565b61190360405180606001604052806000815260200160008152602001606081525090565b601860008381526020019081526020016000206040518060600160405290816000820154815260200160018201548152602001600282018054611945906137b5565b80601f0160208091040260200160405190810160405280929190818152602001828054611971906137b5565b80156119be5780601f10611993576101008083540402835291602001916119be565b820191906000526020600020905b8154815290600101906020018083116119a157829003601f168201915b5050505050815250509050919050565b6119d833836123e7565b6119f45760405162461bcd60e51b8152600401610924906135ca565b611a0084848484612702565b50505050565b600c54600f54611a16919061375a565b341015611a7f5760405162461bcd60e51b815260206004820152603160248201527f4d696e74206661696c65643a2056616c7565206f66206d657373616765206973604482015270103632b9b9903a3430b710383934b1b29760791b6064820152608401610924565b6064600e5410611adb5760405162461bcd60e51b815260206004820152602160248201527f4d696e74206661696c65643a20546f6b656e732061726520736f6c64206f75746044820152601760f91b6064820152608401610924565b33611ae58261105a565b6001600160a01b031614611af857600080fd5b6000818152601760205260409020600281015460019091015410611b5e5760405162461bcd60e51b815260206004820152601860248201527f4d696e7420616c6c6f77616e63652065786365656465642e00000000000000006044820152606401610924565b611b6a83600e54612735565b611b76600e54836128ce565b60408051606081018252438152426020808301918252828401868152600e546000908152601883529490942083518155915160018301559251805192939192611bc59260028501920190612eac565b5050600e805491506000611bd8836137f0565b91905055506000611be63490565b90506000600f5482611bf89190613772565b600b54600f546040519293506001600160a01b039091169181156108fc0291906000818181858888f19350505050158015611c37573d6000803e3d6000fd5b50600a546040516001600160a01b039091169082156108fc029083906000818181858888f19350505050158015611c72573d6000803e3d6000fd5b506001601760008581526020019081526020016000206001016000828254611c9a919061375a565b90915550505050505050565b6000818152600260205260409020546060906001600160a01b0316611d255760405162461bcd60e51b815260206004820152602f60248201527f4552433732314d657461646174613a2055524920717565727920666f72206e6f60448201526e3732bc34b9ba32b73a103a37b5b2b760891b6064820152608401610924565b60008281526013602052604081208054611d3e906137b5565b80601f0160208091040260200160405190810160405280929190818152602001828054611d6a906137b5565b8015611db75780601f10611d8c57610100808354040283529160200191611db7565b820191906000526020600020905b815481529060010190602001808311611d9a57829003601f168201915b505050505090506000611dd560408051602081019091526000815290565b9050805160001415611de8575092915050565b815115611e1a578082604051602001611e0292919061347f565b60405160208183030381529060405292505050919050565b80611e2485612966565b604051602001611e0292919061347f565b60128054611265906137b5565b3360009081526019602052604090205460ff161515600114611e9e5760405162461bcd60e51b81526020600482015260156024820152742cb7ba9030b932903737ba1030b8383937bb32b21760591b6044820152606401610924565b600f54341015611ead57600080fd5b6000818152601760205260408120600201805460059290611ecf90849061375a565b92505081905550600560116000828254611ee9919061375a565b92505081905550600560106000828254611f039190613772565b9091555050600b546001600160a01b03166108fc346040518115909202916000818181858888f193505050501580156112f1573d6000803e3d6000fd5b6060611f4a6125d7565b601a805480602002602001604051908101604052809291908181526020016000905b82821015610b595783829060005260206000209060020201604051806040016040529081600082018054611f9f906137b5565b80601f0160208091040260200160405190810160405280929190818152602001828054611fcb906137b5565b80156120185780601f10611fed57610100808354040283529160200191612018565b820191906000526020600020905b815481529060010190602001808311611ffb57829003601f168201915b50505091835250506001918201546001600160a01b0316602091820152918352929092019101611f6c565b3360009081526015602052604090205460ff166120a25760405162461bcd60e51b815260206004820152601d60248201527f436c69656e7420686173206e6f74206265656e20617070726f7665642e0000006044820152606401610924565b600560105410156120b257600080fd5b60408051606081018252600e54808252600160208084018281526005858701908152600094855260179092529490922092518355925192820192909255905160029091015561210333600e54612735565b61210f600e54826128ce565b60408051606081018252438152426020808301918252828401858152600e54600090815260188352949094208351815591516001830155925180519293919261215e9260028501920190612eac565b5050600e805491506000612171836137f0565b9091555050600b546001600160a01b03166108fc346040518115909202916000818181858888f193505050501580156121ae573d6000803e3d6000fd5b506005601060008282546121c29190613772565b9091555050336000908152601560209081526040808320805460ff1916905560169091528120610f5c91612fab565b6121f96125d7565b601054601154106122635760405162461bcd60e51b815260206004820152602e60248201527f5468697320636f6e74726163742068617320726561636865642069742773206d60448201526d34b73a1030b63637bbb0b731b29760911b6064820152608401610924565b600160196000601a848154811061227c5761227c613837565b6000918252602080832060016002909302018201546001600160a01b0316845283019390935260409091019020805492151560ff1990931692909217909155601a8054909161159191613772565b60006001600160e01b031982166380ac58cd60e01b14806122fb57506001600160e01b03198216635b5e139f60e01b145b806107f057506301ffc9a760e01b6001600160e01b03198316146107f0565b6000818152600260205260409020546001600160a01b0316610f5c5760405162461bcd60e51b8152602060048201526018602482015277115490cdcc8c4e881a5b9d985b1a59081d1bdad95b88125160421b6044820152606401610924565b600081815260046020526040902080546001600160a01b0319166001600160a01b03841690811790915581906123ae8261105a565b6001600160a01b03167f8c5be1e5ebec7d5bd14f71427d1e84f3dd0314c0f7b2291e5b200ac8c7c3b92560405160405180910390a45050565b6000806123f38361105a565b9050806001600160a01b0316846001600160a01b0316148061243a57506001600160a01b0380821660009081526005602090815260408083209388168352929052205460ff165b8061245e5750836001600160a01b031661245384610888565b6001600160a01b0316145b949350505050565b826001600160a01b03166124798261105a565b6001600160a01b03161461249f5760405162461bcd60e51b815260040161092490613669565b6001600160a01b0382166125015760405162461bcd60e51b8152602060048201526024808201527f4552433732313a207472616e7366657220746f20746865207a65726f206164646044820152637265737360e01b6064820152608401610924565b61250e8383836001612a03565b826001600160a01b03166125218261105a565b6001600160a01b0316146125475760405162461bcd60e51b815260040161092490613669565b600081815260046020908152604080832080546001600160a01b03199081169091556001600160a01b0387811680865260038552838620805460001901905590871680865283862080546001019055868652600290945282852080549092168417909155905184937fddf252ad1be2c89b69c2b068fc378daa952ba7f163c4a11628f55a4df523b3ef91a4505050565b600b546001600160a01b031633146126315760405162461bcd60e51b815260206004820181905260248201527f4f776e61626c653a2063616c6c6572206973206e6f7420746865206f776e65726044820152606401610924565b565b816001600160a01b0316836001600160a01b031614156126955760405162461bcd60e51b815260206004820152601960248201527f4552433732313a20617070726f766520746f2063616c6c6572000000000000006044820152606401610924565b6001600160a01b03838116600081815260056020908152604080832094871680845294825291829020805460ff191686151590811790915591519182527f17307eab39ab6107e8899845ad3d59bd9653f200f220920489ca2b5937696c31910160405180910390a3505050565b61270d848484612466565b61271984848484612b37565b611a005760405162461bcd60e51b815260040161092490613617565b6001600160a01b03821661278b5760405162461bcd60e51b815260206004820181905260248201527f4552433732313a206d696e7420746f20746865207a65726f20616464726573736044820152606401610924565b6000818152600260205260409020546001600160a01b0316156127f05760405162461bcd60e51b815260206004820152601c60248201527f4552433732313a20746f6b656e20616c7265616479206d696e746564000000006044820152606401610924565b6127fe600083836001612a03565b6000818152600260205260409020546001600160a01b0316156128635760405162461bcd60e51b815260206004820152601c60248201527f4552433732313a20746f6b656e20616c7265616479206d696e746564000000006044820152606401610924565b6001600160a01b038216600081815260036020908152604080832080546001019055848352600290915280822080546001600160a01b0319168417905551839291907fddf252ad1be2c89b69c2b068fc378daa952ba7f163c4a11628f55a4df523b3ef908290a45050565b6000828152600260205260409020546001600160a01b03166129475760405162461bcd60e51b815260206004820152602c60248201527f4552433732314d657461646174613a2055524920736574206f66206e6f6e657860448201526b34b9ba32b73a103a37b5b2b760a11b6064820152608401610924565b600082815260136020908152604090912082516109c592840190612eac565b6060600061297383612c44565b600101905060008167ffffffffffffffff8111156129935761299361384d565b6040519080825280601f01601f1916602001820160405280156129bd576020820181803683370190505b5090508181016020015b600019016f181899199a1a9b1b9c1cb0b131b232b360811b600a86061a8153600a85049450846129f6576129fb565b6129c7565b509392505050565b6001811115612a725760405162461bcd60e51b815260206004820152603560248201527f455243373231456e756d657261626c653a20636f6e7365637574697665207472604482015274185b9cd9995c9cc81b9bdd081cdd5c1c1bdc9d1959605a1b6064820152608401610924565b816001600160a01b038516612ace57612ac981600880546000838152600960205260408120829055600182018355919091527ff3f7a9fe364faab93b216da50a3214154f22a0a2b415b23a84c8169e8b636ee30155565b612af1565b836001600160a01b0316856001600160a01b031614612af157612af18582612d1c565b6001600160a01b038416612b0d57612b0881612db9565b612b30565b846001600160a01b0316846001600160a01b031614612b3057612b308482612e68565b5050505050565b60006001600160a01b0384163b15612c3957604051630a85bd0160e11b81526001600160a01b0385169063150b7a0290612b7b9033908990889088906004016134e8565b602060405180830381600087803b158015612b9557600080fd5b505af1925050508015612bc5575060408051601f3d908101601f19168201909252612bc29181019061328d565b60015b612c1f573d808015612bf3576040519150601f19603f3d011682016040523d82523d6000602084013e612bf8565b606091505b508051612c175760405162461bcd60e51b815260040161092490613617565b805181602001fd5b6001600160e01b031916630a85bd0160e11b14905061245e565b506001949350505050565b60008072184f03e93ff9f4daa797ed6e38ed64bf6a1f0160401b8310612c835772184f03e93ff9f4daa797ed6e38ed64bf6a1f0160401b830492506040015b6d04ee2d6d415b85acef81000000008310612caf576d04ee2d6d415b85acef8100000000830492506020015b662386f26fc100008310612ccd57662386f26fc10000830492506010015b6305f5e1008310612ce5576305f5e100830492506008015b6127108310612cf957612710830492506004015b60648310612d0b576064830492506002015b600a83106107f05760010192915050565b60006001612d29846110ba565b612d339190613772565b600083815260076020526040902054909150808214612d86576001600160a01b03841660009081526006602090815260408083208584528252808320548484528184208190558352600790915290208190555b5060009182526007602090815260408084208490556001600160a01b039094168352600681528383209183525290812055565b600854600090612dcb90600190613772565b60008381526009602052604081205460088054939450909284908110612df357612df3613837565b906000526020600020015490508060088381548110612e1457612e14613837565b6000918252602080832090910192909255828152600990915260408082208490558582528120556008805480612e4c57612e4c613821565b6001900381819060005260206000200160009055905550505050565b6000612e73836110ba565b6001600160a01b039093166000908152600660209081526040808320868452825280832085905593825260079052919091209190915550565b828054612eb8906137b5565b90600052602060002090601f016020900481019282612eda5760008555612f20565b82601f10612ef357805160ff1916838001178555612f20565b82800160010185558215612f20579182015b82811115612f20578251825591602001919060010190612f05565b50612f2c929150612fe1565b5090565b828054612f3c906137b5565b90600052602060002090601f016020900481019282612f5e5760008555612f20565b82601f10612f6f5780548555612f20565b82800160010185558215612f2057600052602060002091601f016020900482015b82811115612f20578254825591600101919060010190612f90565b508054612fb7906137b5565b6000825580601f10612fc7575050565b601f016020900490600052602060002090810190610f5c91905b5b80821115612f2c5760008155600101612fe2565b600067ffffffffffffffff808411156130115761301161384d565b604051601f8501601f19908116603f011681019082821181831017156130395761303961384d565b8160405280935085815286868601111561305257600080fd5b858560208301376000602087830101525050509392505050565b80356001600160a01b038116811461308357600080fd5b919050565b8035801515811461308357600080fd5b600082601f8301126130a957600080fd5b6130b883833560208501612ff6565b9392505050565b6000602082840312156130d157600080fd5b6130b88261306c565b600080604083850312156130ed57600080fd5b6130f68361306c565b91506131046020840161306c565b90509250929050565b60008060006060848603121561312257600080fd5b61312b8461306c565b92506131396020850161306c565b9150604084013590509250925092565b6000806000806080858703121561315f57600080fd5b6131688561306c565b93506131766020860161306c565b925060408501359150606085013567ffffffffffffffff81111561319957600080fd5b8501601f810187136131aa57600080fd5b6131b987823560208401612ff6565b91505092959194509250565b600080604083850312156131d857600080fd5b6131e18361306c565b915061310460208401613088565b60008060006060848603121561320457600080fd5b61320d8461306c565b9250602084013567ffffffffffffffff81111561322957600080fd5b61323586828701613098565b925050604084013590509250925092565b6000806040838503121561325957600080fd5b6132628361306c565b946020939093013593505050565b60006020828403121561328257600080fd5b81356130b881613863565b60006020828403121561329f57600080fd5b81516130b881613863565b6000602082840312156132bc57600080fd5b813567ffffffffffffffff8111156132d357600080fd5b61245e84828501613098565b600080604083850312156132f257600080fd5b823567ffffffffffffffff8082111561330a57600080fd5b61331686838701613098565b9350602085013591508082111561332c57600080fd5b5061333985828601613098565b9150509250929050565b60006020828403121561335557600080fd5b5035919050565b6000806040838503121561336f57600080fd5b8235915061310460208401613088565b6000806040838503121561339257600080fd5b82359150602083013567ffffffffffffffff8111156133b057600080fd5b61333985828601613098565b600081518084526020808501808196508360051b8101915082860160005b8581101561342a5782840389528151604081518187526133fc82880182613437565b915050868201519150858103878701526134168183613437565b9a87019a95505050908401906001016133da565b5091979650505050505050565b6000815180845261344f816020860160208601613789565b601f01601f19169290920160200192915050565b60008251613475818460208701613789565b9190910192915050565b60008351613491818460208801613789565b8351908301906134a5818360208801613789565b01949350505050565b6000825180516134c2818560208501613789565b6020948501516001600160a01b0316601f91909101601f19169390930192835250500190565b6001600160a01b038581168252841660208201526040810183905260806060820181905260009061351b90830184613437565b9695505050505050565b60006020808301818452808551808352604092508286019150828160051b87010184880160005b8381101561359657888303603f190185528151805187855261357088860182613437565b918901516001600160a01b0316948901949094529487019492509086019060010161354c565b509098975050505050505050565b6020815260006130b860208301846133bc565b6020815260006130b86020830184613437565b6020808252602d908201527f4552433732313a2063616c6c6572206973206e6f7420746f6b656e206f776e6560408201526c1c881bdc88185c1c1c9bdd9959609a1b606082015260800190565b60208082526032908201527f4552433732313a207472616e7366657220746f206e6f6e20455243373231526560408201527131b2b4bb32b91034b6b83632b6b2b73a32b960711b606082015260800190565b60208082526025908201527f4552433732313a207472616e736665722066726f6d20696e636f72726563742060408201526437bbb732b960d91b606082015260800190565b602081528151602082015260018060a01b0360208301511660408201526000604083015160a060608401526136e660c0840182613437565b90506060840151601f19808584030160808601526137048383613437565b925060808601519150808584030160a08601525061372282826133bc565b95945050505050565b6020815281516020820152602082015160408201526000604083015160608084015261245e6080840182613437565b6000821982111561376d5761376d61380b565b500190565b6000828210156137845761378461380b565b500390565b60005b838110156137a457818101518382015260200161378c565b83811115611a005750506000910152565b600181811c908216806137c957607f821691505b602082108114156137ea57634e487b7160e01b600052602260045260246000fd5b50919050565b60006000198214156138045761380461380b565b5060010190565b634e487b7160e01b600052601160045260246000fd5b634e487b7160e01b600052603160045260246000fd5b634e487b7160e01b600052603260045260246000fd5b634e487b7160e01b600052604160045260246000fd5b6001600160e01b031981168114610f5c57600080fdfea26469706673582212207965906e612b163e57e6722f943b320d7dca08717668d61f5f8981f4ce1239fe64736f6c63430008070033",
  "linkReferences": {},
  "deployedLinkReferences": {}
}