{
  "_format": "hh-sol-artifact-1",
  "contractName": "TamboraFactory",
  "sourceName": "contracts/TamboraFactory.sol",
  "abi": [
    {
      "inputs": [],
      "stateMutability": "nonpayable",
      "type": "constructor"
    },
    {
      "anonymous": false,
      "inputs": [
        {
          "indexed": true,
          "internalType": "contract Tambora",
          "name": "contractAddr",
          "type": "address"
        }
      ],
      "name": "Deployed",
      "type": "event"
    },
    {
      "anonymous": false,
      "inputs": [
        {
          "indexed": true,
          "internalType": "uint256",
          "name": "mintFee",
          "type": "uint256"
        },
        {
          "indexed": true,
          "internalType": "uint256",
          "name": "contractFee",
          "type": "uint256"
        }
      ],
      "name": "FeeChange",
      "type": "event"
    },
    {
      "inputs": [
        {
          "internalType": "uint256",
          "name": "mintFee_",
          "type": "uint256"
        },
        {
          "internalType": "uint256",
          "name": "contractFee_",
          "type": "uint256"
        }
      ],
      "name": "changeFees",
      "outputs": [],
      "stateMutability": "nonpayable",
      "type": "function"
    },
    {
      "inputs": [],
      "name": "contractFee",
      "outputs": [
        {
          "internalType": "uint256",
          "name": "",
          "type": "uint256"
        }
      ],
      "stateMutability": "view",
      "type": "function"
    },
    {
      "inputs": [
        {
          "internalType": "string",
          "name": "name",
          "type": "string"
        },
        {
          "internalType": "string",
          "name": "symbol",
          "type": "string"
        },
        {
          "internalType": "uint256",
          "name": "price_",
          "type": "uint256"
        },
        {
          "internalType": "string",
          "name": "contractType_",
          "type": "string"
        },
        {
          "internalType": "address",
          "name": "to_",
          "type": "address"
        },
        {
          "internalType": "string",
          "name": "uri_",
          "type": "string"
        },
        {
          "internalType": "uint256",
          "name": "mintFee_",
          "type": "uint256"
        },
        {
          "internalType": "uint256",
          "name": "contractFee_",
          "type": "uint256"
        }
      ],
      "name": "deployTambora",
      "outputs": [],
      "stateMutability": "payable",
      "type": "function"
    },
    {
      "inputs": [
        {
          "internalType": "string",
          "name": "name_",
          "type": "string"
        }
      ],
      "name": "getContractAddress",
      "outputs": [
        {
          "internalType": "contract Tambora",
          "name": "",
          "type": "address"
        }
      ],
      "stateMutability": "view",
      "type": "function"
    },
    {
      "inputs": [],
      "name": "getDeployedContracts",
      "outputs": [
        {
          "internalType": "contract Tambora[]",
          "name": "",
          "type": "address[]"
        }
      ],
      "stateMutability": "view",
      "type": "function"
    },
    {
      "inputs": [],
      "name": "getNames",
      "outputs": [
        {
          "internalType": "string[]",
          "name": "",
          "type": "string[]"
        }
      ],
      "stateMutability": "view",
      "type": "function"
    },
    {
      "inputs": [
        {
          "internalType": "address",
          "name": "contractOwner",
          "type": "address"
        }
      ],
      "name": "getOwnedContracts",
      "outputs": [
        {
          "internalType": "contract Tambora[]",
          "name": "",
          "type": "address[]"
        }
      ],
      "stateMutability": "view",
      "type": "function"
    },
    {
      "inputs": [],
      "name": "mintFee",
      "outputs": [
        {
          "internalType": "uint256",
          "name": "",
          "type": "uint256"
        }
      ],
      "stateMutability": "view",
      "type": "function"
    },
    {
      "inputs": [
        {
          "internalType": "uint256",
          "name": "",
          "type": "uint256"
        }
      ],
      "name": "names",
      "outputs": [
        {
          "internalType": "string",
          "name": "",
          "type": "string"
        }
      ],
      "stateMutability": "view",
      "type": "function"
    },
    {
      "inputs": [],
      "name": "version",
      "outputs": [
        {
          "internalType": "string",
          "name": "",
          "type": "string"
        }
      ],
      "stateMutability": "view",
      "type": "function"
    }
  ],
  "bytecode": "0x608060405234801561001057600080fd5b50600280546001600160a01b031916331790556000808055600155604080518082019091526003808252620312e360ec1b60209092019182526100559160059161005b565b5061012f565b828054610067906100f4565b90600052602060002090601f01602090048101928261008957600085556100cf565b82601f106100a257805160ff19168380011785556100cf565b828001600101855582156100cf579182015b828111156100cf5782518255916020019190600101906100b4565b506100db9291506100df565b5090565b5b808211156100db57600081556001016100e0565b600181811c9082168061010857607f821691505b6020821081141561012957634e487b7160e01b600052602260045260246000fd5b50919050565b6157a7806200013f6000396000f3fe6080604052600436106200009d5760003560e01c8063aa9a068f1162000060578063aa9a068f146200017e578063c715bdb914620001a5578063cd838f0f14620001bc578063d41977cd14620001e3578063e5d2f8e314620001fb57600080fd5b806304433bbc14620000a257806313966db514620000e457806321ecff5b146200010b5780634622ab03146200013257806354fd4d501462000166575b600080fd5b348015620000af57600080fd5b50620000c7620000c13660046200091b565b62000220565b6040516001600160a01b0390911681526020015b60405180910390f35b348015620000f157600080fd5b50620000fc60005481565b604051908152602001620000db565b3480156200011857600080fd5b50620001306200012a36600462000a60565b62000253565b005b3480156200013f57600080fd5b50620001576200015136600462000a46565b620002ad565b604051620000db919062000c20565b3480156200017357600080fd5b506200015762000362565b3480156200018b57600080fd5b506200019662000371565b604051620000db919062000b6b565b62000130620001b63660046200095c565b620003d5565b348015620001c957600080fd5b50620001d462000635565b604051620000db919062000bba565b348015620001f057600080fd5b50620000fc60015481565b3480156200020857600080fd5b50620001966200021a366004620008f6565b62000718565b600060078260405162000234919062000ab1565b908152604051908190036020019020546001600160a01b031692915050565b6002546001600160a01b0316336001600160a01b0316146200027457600080fd5b60008281556001829055604051829184917fa995ac7c2dc5fdc05b41983e69d4d9fbd224a8528bc7d86eabfd533cd3ca44979190a35050565b60048181548110620002be57600080fd5b906000526020600020016000915090508054620002db9062000c68565b80601f0160208091040260200160405190810160405280929190818152602001828054620003099062000c68565b80156200035a5780601f106200032e576101008083540402835291602001916200035a565b820191906000526020600020905b8154815290600101906020018083116200033c57829003601f168201915b505050505081565b60058054620002db9062000c68565b60606003805480602002602001604051908101604052809291908181526020018280548015620003cb57602002820191906000526020600020905b81546001600160a01b03168152600190910190602001808311620003ac575b5050505050905090565b600154341015620003e557600080fd5b6000620003f28962000220565b6001600160a01b031614620004435760405162461bcd60e51b81526020600482015260136024820152724e616d6520616c72656164792065786973747360681b604482015260640160405180910390fd5b600033898989898989600260009054906101000a90046001600160a01b03168a8a604051620004729062000790565b620004879a9998979695949392919062000acf565b604051809103906000f080158015620004a4573d6000803e3d6000fd5b506003805460018082019092557fc2575a0e9e593c00f959f8c92f12db2869c3395a3b0502d05e2516446f71f85b0180546001600160a01b0319166001600160a01b0384161790556004805491820181556000528a5191925062000532917f8a35acfbc15ff81a39ae7d344fd709f28e8600b4aa8c65c6b64bfe7fe36bd19b9091019060208c01906200079e565b508060078a60405162000546919062000ab1565b90815260405190819003602001902080546001600160a01b03929092166001600160a01b031990921691909117905560066000620005813390565b6001600160a01b03908116825260208083019390935260409091016000908120805460018101825590825292902090910180546001600160a01b031916838316179055600254166108fc346040518115909202916000818181858888f19350505050158015620005f5573d6000803e3d6000fd5b506040516001600160a01b038216907ff40fcec21964ffb566044d083b4073f29f7f7929110ea19e1b3ebe375d89055e90600090a2505050505050505050565b60606004805480602002602001604051908101604052809291908181526020016000905b828210156200070f5783829060005260206000200180546200067b9062000c68565b80601f0160208091040260200160405190810160405280929190818152602001828054620006a99062000c68565b8015620006fa5780601f10620006ce57610100808354040283529160200191620006fa565b820191906000526020600020905b815481529060010190602001808311620006dc57829003601f168201915b50505050508152602001906001019062000659565b50505050905090565b6001600160a01b0381166000908152600660209081526040918290208054835181840281018401909452808452606093928301828280156200078457602002820191906000526020600020905b81546001600160a01b0316815260019091019060200180831162000765575b50505050509050919050565b614ab68062000cbc83390190565b828054620007ac9062000c68565b90600052602060002090601f016020900481019282620007d057600085556200081b565b82601f10620007eb57805160ff19168380011785556200081b565b828001600101855582156200081b579182015b828111156200081b578251825591602001919060010190620007fe565b50620008299291506200082d565b5090565b5b808211156200082957600081556001016200082e565b80356001600160a01b03811681146200085c57600080fd5b919050565b600082601f8301126200087357600080fd5b813567ffffffffffffffff8082111562000891576200089162000ca5565b604051601f8301601f19908116603f01168101908282118183101715620008bc57620008bc62000ca5565b81604052838152866020858801011115620008d657600080fd5b836020870160208301376000602085830101528094505050505092915050565b6000602082840312156200090957600080fd5b620009148262000844565b9392505050565b6000602082840312156200092e57600080fd5b813567ffffffffffffffff8111156200094657600080fd5b620009548482850162000861565b949350505050565b600080600080600080600080610100898b0312156200097a57600080fd5b883567ffffffffffffffff808211156200099357600080fd5b620009a18c838d0162000861565b995060208b0135915080821115620009b857600080fd5b620009c68c838d0162000861565b985060408b0135975060608b0135915080821115620009e457600080fd5b620009f28c838d0162000861565b965062000a0260808c0162000844565b955060a08b013591508082111562000a1957600080fd5b5062000a288b828c0162000861565b93505060c0890135915060e089013590509295985092959890939650565b60006020828403121562000a5957600080fd5b5035919050565b6000806040838503121562000a7457600080fd5b50508035926020909101359150565b6000815180845262000a9d81602086016020860162000c35565b601f01601f19169290920160200192915050565b6000825162000ac581846020870162000c35565b9190910192915050565b6001600160a01b038b811682526101406020830181905260009162000af78483018e62000a83565b9150838203604085015262000b0d828d62000a83565b91508a6060850152838203608085015262000b29828b62000a83565b915080891660a085015283820360c085015262000b47828962000a83565b961660e0840152505061010081019290925261012090910152979650505050505050565b6020808252825182820181905260009190848201906040850190845b8181101562000bae5783516001600160a01b03168352928401929184019160010162000b87565b50909695505050505050565b6000602080830181845280855180835260408601915060408160051b870101925083870160005b8281101562000c1357603f1988860301845262000c0085835162000a83565b9450928501929085019060010162000be1565b5092979650505050505050565b60208152600062000914602083018462000a83565b60005b8381101562000c5257818101518382015260200162000c38565b8381111562000c62576000848401525b50505050565b600181811c9082168062000c7d57607f821691505b6020821081141562000c9f57634e487b7160e01b600052602260045260246000fd5b50919050565b634e487b7160e01b600052604160045260246000fdfe60806040523480156200001157600080fd5b5060405162004ab638038062004ab6833981016040819052620000349162000bd0565b8851899089906200004d90600090602085019062000a7c565b5080516200006390600190602084019062000a7c565b5050600b80546001600160a01b03808e166001600160a01b031992831617909255600a80549287169290911691909117905550600f879055600c829055620000ac828862000d6a565b601055600d8190558551620000c990601390602089019062000a7c565b50600a6012819055605a60115560408051606081018252600080825260016020808401918252938301948552818052601a90935290517fb75ecc04ed35f89790e98640e901bda41eceff0cb896cf2765fb6976802537505590517fb75ecc04ed35f89790e98640e901bda41eceff0cb896cf2765fb6976802537515590517fb75ecc04ed35f89790e98640e901bda41eceff0cb896cf2765fb69768025375255620001769086906200027b565b62000183600085620002a1565b6001600e556040805160608101825243815242602080830191825292820187815260008052601b845282517f584f46c60af19681376031579adb04a2416e54ee5505351c2a8435e3766026ea90815591517f584f46c60af19681376031579adb04a2416e54ee5505351c2a8435e3766026eb55518051929391926200022c927f584f46c60af19681376031579adb04a2416e54ee5505351c2a8435e3766026ec92019062000a7c565b5050604080518082019091526003808252620312e360ec1b60209092019182526200025c92506014919062000a7c565b50506015805460ff191660011790555062000e63975050505050505050565b6200029d8282604051806020016040528060008152506200034660201b60201c565b5050565b6000828152600260205260409020546001600160a01b0316620003205760405162461bcd60e51b815260206004820152602c60248201527f4552433732314d657461646174613a2055524920736574206f66206e6f6e657860448201526b34b9ba32b73a103a37b5b2b760a11b60648201526084015b60405180910390fd5b60008281526016602090815260409091208251620003419284019062000a7c565b505050565b620003528383620003b9565b6200036160008484846200055a565b620003415760405162461bcd60e51b8152602060048201526032602482015260008051602062004a9683398151915260448201527131b2b4bb32b91034b6b83632b6b2b73a32b960711b606482015260840162000317565b6001600160a01b038216620004115760405162461bcd60e51b815260206004820181905260248201527f4552433732313a206d696e7420746f20746865207a65726f2061646472657373604482015260640162000317565b6000818152600260205260409020546001600160a01b031615620004785760405162461bcd60e51b815260206004820152601c60248201527f4552433732313a20746f6b656e20616c7265616479206d696e74656400000000604482015260640162000317565b62000488600083836001620006c3565b6000818152600260205260409020546001600160a01b031615620004ef5760405162461bcd60e51b815260206004820152601c60248201527f4552433732313a20746f6b656e20616c7265616479206d696e74656400000000604482015260640162000317565b6001600160a01b038216600081815260036020908152604080832080546001019055848352600290915280822080546001600160a01b0319168417905551839291907fddf252ad1be2c89b69c2b068fc378daa952ba7f163c4a11628f55a4df523b3ef908290a45050565b60006200057b846001600160a01b03166200082d60201b6200253a1760201c565b15620006b757604051630a85bd0160e11b81526001600160a01b0385169063150b7a0290620005b590339089908890889060040162000d14565b602060405180830381600087803b158015620005d057600080fd5b505af192505050801562000603575060408051601f3d908101601f19168201909252620006009181019062000ce1565b60015b6200069c573d80801562000634576040519150601f19603f3d011682016040523d82523d6000602084013e62000639565b606091505b508051620006945760405162461bcd60e51b8152602060048201526032602482015260008051602062004a9683398151915260448201527131b2b4bb32b91034b6b83632b6b2b73a32b960711b606482015260840162000317565b805181602001fd5b6001600160e01b031916630a85bd0160e11b149050620006bb565b5060015b949350505050565b620006dc848484846200082760201b62001abe1760201c565b6001811115620007555760405162461bcd60e51b815260206004820152603560248201527f455243373231456e756d657261626c653a20636f6e736563757469766520747260448201527f616e7366657273206e6f7420737570706f727465640000000000000000000000606482015260840162000317565b816001600160a01b038516620007b457620007ae81600880546000838152600960205260408120829055600182018355919091527ff3f7a9fe364faab93b216da50a3214154f22a0a2b415b23a84c8169e8b636ee30155565b620007da565b836001600160a01b0316856001600160a01b031614620007da57620007da85826200083c565b6001600160a01b038416620007fa57620007f481620008e9565b62000820565b846001600160a01b0316846001600160a01b0316146200082057620008208482620009a3565b5050505050565b50505050565b6001600160a01b03163b151590565b600060016200085684620009f460201b6200119d1760201c565b62000862919062000d85565b600083815260076020526040902054909150808214620008b6576001600160a01b03841660009081526006602090815260408083208584528252808320548484528184208190558352600790915290208190555b5060009182526007602090815260408084208490556001600160a01b039094168352600681528383209183525290812055565b600854600090620008fd9060019062000d85565b6000838152600960205260408120546008805493945090928490811062000928576200092862000e37565b9060005260206000200154905080600883815481106200094c576200094c62000e37565b600091825260208083209091019290925582815260099091526040808220849055858252812055600880548062000987576200098762000e21565b6001900381819060005260206000200160009055905550505050565b6000620009bb83620009f460201b6200119d1760201c565b6001600160a01b039093166000908152600660209081526040808320868452825280832085905593825260079052919091209190915550565b60006001600160a01b03821662000a605760405162461bcd60e51b815260206004820152602960248201527f4552433732313a2061646472657373207a65726f206973206e6f7420612076616044820152683634b21037bbb732b960b91b606482015260840162000317565b506001600160a01b031660009081526003602052604090205490565b82805462000a8a9062000dce565b90600052602060002090601f01602090048101928262000aae576000855562000af9565b82601f1062000ac957805160ff191683800117855562000af9565b8280016001018555821562000af9579182015b8281111562000af957825182559160200191906001019062000adc565b5062000b0792915062000b0b565b5090565b5b8082111562000b07576000815560010162000b0c565b80516001600160a01b038116811462000b3a57600080fd5b919050565b600082601f83011262000b5157600080fd5b81516001600160401b038082111562000b6e5762000b6e62000e4d565b604051601f8301601f19908116603f0116810190828211818310171562000b995762000b9962000e4d565b8160405283815286602085880101111562000bb357600080fd5b62000bc684602083016020890162000d9f565b9695505050505050565b6000806000806000806000806000806101408b8d03121562000bf157600080fd5b62000bfc8b62000b22565b60208c0151909a506001600160401b038082111562000c1a57600080fd5b62000c288e838f0162000b3f565b9a5060408d015191508082111562000c3f57600080fd5b62000c4d8e838f0162000b3f565b995060608d0151985060808d015191508082111562000c6b57600080fd5b62000c798e838f0162000b3f565b975062000c8960a08e0162000b22565b965060c08d015191508082111562000ca057600080fd5b5062000caf8d828e0162000b3f565b94505062000cc060e08c0162000b22565b92506101008b015191506101208b015190509295989b9194979a5092959850565b60006020828403121562000cf457600080fd5b81516001600160e01b03198116811462000d0d57600080fd5b9392505050565b600060018060a01b03808716835280861660208401525083604083015260806060830152825180608084015262000d538160a085016020870162000d9f565b601f01601f19169190910160a00195945050505050565b6000821982111562000d805762000d8062000e0b565b500190565b60008282101562000d9a5762000d9a62000e0b565b500390565b60005b8381101562000dbc57818101518382015260200162000da2565b83811115620008275750506000910152565b600181811c9082168062000de357607f821691505b6020821081141562000e0557634e487b7160e01b600052602260045260246000fd5b50919050565b634e487b7160e01b600052601160045260246000fd5b634e487b7160e01b600052603160045260246000fd5b634e487b7160e01b600052603260045260246000fd5b634e487b7160e01b600052604160045260246000fd5b613c238062000e736000396000f3fe6080604052600436106102675760003560e01c80638da5cb5b11610144578063ba7aef43116100b6578063e6205b911161007a578063e6205b91146106d9578063e985e9c5146106f3578063eb9ce1631461073c578063f9dc375f14610751578063ffc9896b14610764578063ffe644341461079157600080fd5b8063ba7aef4314610668578063c87b56dd1461067b578063cb2ef6f71461069b578063d41977cd146106b0578063d431a248146106c657600080fd5b8063a22cb46511610108578063a22cb46514610599578063a28039cd146105b9578063a9184582146105d9578063af80a5be146105f9578063b09afec11461061b578063b88d4fde1461064857600080fd5b80638da5cb5b1461050e5780638e59ebac1461052e57806395d89b411461054e5780639676159514610563578063a035b1fe1461058357600080fd5b8063396876bd116101dd5780634f6ccce7116101a15780634f6ccce71461046f57806354fd4d501461048f5780635a9be11b146104a45780635bf61cfe146104ac5780636352211e146104ce57806370a08231146104ee57600080fd5b8063396876bd146103e35780633c084fa5146103f95780633c5e6c97146104195780634261917a1461042f57806342842e0e1461044f57600080fd5b806313966db51161022f57806313966db51461033f57806318160ddd146103635780632291e3881461037857806323b872dd1461038e5780632f745c59146103ae57806337f1325d146103ce57600080fd5b806301ffc9a71461026c57806306fdde03146102a1578063081812fc146102c3578063095ea7b3146102fb5780630e37b4fd1461031d575b600080fd5b34801561027857600080fd5b5061028c6102873660046135a8565b6107b1565b60405190151581526020015b60405180910390f35b3480156102ad57600080fd5b506102b66107dc565b60405161029891906138de565b3480156102cf57600080fd5b506102e36102de36600461367b565b61086e565b6040516001600160a01b039091168152602001610298565b34801561030757600080fd5b5061031b61031636600461357e565b610895565b005b34801561032957600080fd5b506103326109b0565b60405161029891906138cb565b34801561034b57600080fd5b50610355600c5481565b604051908152602001610298565b34801561036f57600080fd5b50600854610355565b34801561038457600080fd5b5061035560125481565b34801561039a57600080fd5b5061031b6103a9366004613445565b610ba3565b3480156103ba57600080fd5b506103556103c936600461357e565b610bd4565b3480156103da57600080fd5b5061031b610c6a565b3480156103ef57600080fd5b5061035560115481565b34801561040557600080fd5b5061031b6104143660046136b7565b610c86565b34801561042557600080fd5b5061035560105481565b34801561043b57600080fd5b5061031b61044a366004613617565b610d92565b34801561045b57600080fd5b5061031b61046a366004613445565b610e5a565b34801561047b57600080fd5b5061035561048a36600461367b565b610e75565b34801561049b57600080fd5b506102b6610f08565b61031b610f96565b3480156104b857600080fd5b506104c1611039565b604051610298919061384c565b3480156104da57600080fd5b506102e36104e936600461367b565b61113d565b3480156104fa57600080fd5b506103556105093660046133f7565b61119d565b34801561051a57600080fd5b50600b546102e3906001600160a01b031681565b34801561053a57600080fd5b50600a546102e3906001600160a01b031681565b34801561055a57600080fd5b506102b6611223565b34801561056f57600080fd5b5061031b61057e3660046135e2565b611232565b34801561058f57600080fd5b50610355600f5481565b3480156105a557600080fd5b5061031b6105b43660046134fd565b6113a9565b3480156105c557600080fd5b5061031b6105d4366004613694565b6113b8565b3480156105e557600080fd5b5061031b6105f436600461367b565b61164a565b34801561060557600080fd5b5061060e61172e565b60405161029891906139d5565b34801561062757600080fd5b5061063b61063636600461367b565b61199d565b6040516102989190613a7e565b34801561065457600080fd5b5061031b610663366004613481565b611a8c565b61031b610676366004613527565b611ac4565b34801561068757600080fd5b506102b661069636600461367b565b611d61565b3480156106a757600080fd5b506102b6611ef0565b3480156106bc57600080fd5b50610355600d5481565b61031b6106d436600461367b565b611efd565b3480156106e557600080fd5b5060155461028c9060ff1681565b3480156106ff57600080fd5b5061028c61070e366004613412565b6001600160a01b03918216600090815260056020908152604080832093909416825291909152205460ff1690565b34801561074857600080fd5b506104c1611fa0565b61031b61075f3660046135e2565b6120a3565b34801561077057600080fd5b5061078461077f3660046133f7565b612251565b6040516102989190613a91565b34801561079d57600080fd5b5061031b6107ac36600461367b565b612368565b60006001600160e01b0319821663780e9d6360e01b14806107d657506107d682612549565b92915050565b6060600080546107eb90613b29565b80601f016020809104026020016040519081016040528092919081815260200182805461081790613b29565b80156108645780601f1061083957610100808354040283529160200191610864565b820191906000526020600020905b81548152906001019060200180831161084757829003601f168201915b5050505050905090565b600061087982612599565b506000908152600460205260409020546001600160a01b031690565b60006108a08261113d565b9050806001600160a01b0316836001600160a01b031614156109135760405162461bcd60e51b815260206004820152602160248201527f4552433732313a20617070726f76616c20746f2063757272656e74206f776e656044820152603960f91b60648201526084015b60405180910390fd5b336001600160a01b038216148061092f575061092f813361070e565b6109a15760405162461bcd60e51b815260206004820152603d60248201527f4552433732313a20617070726f76652063616c6c6572206973206e6f7420746f60448201527f6b656e206f776e6572206f7220617070726f76656420666f7220616c6c000000606482015260840161090a565b6109ab83836125f8565b505050565b606060006109bd3361119d565b116109c757600080fd5b6000601a816109d7336000610bd4565b8152602001908152602001600020604051806060016040529081600082015481526020016001820154815260200160028201548152505090506000816040015111610a2157600080fd5b601f805480602002602001604051908101604052809291908181526020016000905b82821015610b995783829060005260206000209060020201604051806040016040529081600082018054610a7690613b29565b80601f0160208091040260200160405190810160405280929190818152602001828054610aa290613b29565b8015610aef5780601f10610ac457610100808354040283529160200191610aef565b820191906000526020600020905b815481529060010190602001808311610ad257829003601f168201915b50505050508152602001600182018054610b0890613b29565b80601f0160208091040260200160405190810160405280929190818152602001828054610b3490613b29565b8015610b815780601f10610b5657610100808354040283529160200191610b81565b820191906000526020600020905b815481529060010190602001808311610b6457829003601f168201915b50505050508152505081526020019060010190610a43565b5050505091505090565b610bad3382612666565b610bc95760405162461bcd60e51b815260040161090a906138f1565b6109ab8383836126e5565b6000610bdf8361119d565b8210610c415760405162461bcd60e51b815260206004820152602b60248201527f455243373231456e756d657261626c653a206f776e657220696e646578206f7560448201526a74206f6620626f756e647360a81b606482015260840161090a565b506001600160a01b03919091166000908152600660209081526040808320938352929052205490565b610c72612856565b6015805460ff19811660ff90911615179055565b33610c908361113d565b6001600160a01b031614610ca357600080fd5b60006040518060400160405280838152602001610cbd3390565b6001600160a01b03169052601d805460018101825560009190915281518051929350839260029092027f6d4407e7be21f808e6509aa9fa9143369579dd7d760fe20a2c09680fc146134f0191610d1b91839160209190910190613178565b5060209190910151600190910180546001600160a01b0319166001600160a01b03909216919091179055336001600160a01b031682604051610d5d91906137c4565b604051908190038120907f963cbefbf06d13486cfc0bc54715f33daf948850da30e2a3c2023e6624687ee190600090a3505050565b610d9a612856565b604080518082019091528281526020808201839052601f805460018101825560009190915282518051849360029093027fa03837a25210ee280c2113ff4b77ca23440b19d4866cca721c801278fd08d8070192610dfb928492910190613178565b506020828101518051610e149260018501920190613178565b50505082604051610e2591906137c4565b604051908190038120907f035b065922620bc9e29f8f7e5156f5e151ecd66c99b686b6da840a49f68bc20890600090a2505050565b6109ab83838360405180602001604052806000815250611a8c565b6000610e8060085490565b8210610ee35760405162461bcd60e51b815260206004820152602c60248201527f455243373231456e756d657261626c653a20676c6f62616c20696e646578206f60448201526b7574206f6620626f756e647360a01b606482015260840161090a565b60088281548110610ef657610ef6613bab565b90600052602060002001549050919050565b60148054610f1590613b29565b80601f0160208091040260200160405190810160405280929190818152602001828054610f4190613b29565b8015610f8e5780601f10610f6357610100808354040283529160200191610f8e565b820191906000526020600020905b815481529060010190602001808311610f7157829003601f168201915b505050505081565b610f9e612856565b600d54341015610fe65760405162461bcd60e51b815260206004820152601360248201527224b739bab33334b1b4b2b73a10333ab732399760691b604482015260640161090a565b606460116000828254610ff99190613ace565b9091555050600a546001600160a01b03166108fc346040518115909202916000818181858888f19350505050158015611036573d6000803e3d6000fd5b50565b6060601e805480602002602001604051908101604052809291908181526020016000905b82821015611134578382906000526020600020906002020160405180604001604052908160008201805461109090613b29565b80601f01602080910402602001604051908101604052809291908181526020018280546110bc90613b29565b80156111095780601f106110de57610100808354040283529160200191611109565b820191906000526020600020905b8154815290600101906020018083116110ec57829003601f168201915b50505091835250506001918201546001600160a01b031660209182015291835292909201910161105d565b50505050905090565b6000818152600260205260408120546001600160a01b0316806107d65760405162461bcd60e51b8152602060048201526018602482015277115490cdcc8c4e881a5b9d985b1a59081d1bdad95b88125160421b604482015260640161090a565b60006001600160a01b0382166112075760405162461bcd60e51b815260206004820152602960248201527f4552433732313a2061646472657373207a65726f206973206e6f7420612076616044820152683634b21037bbb732b960b91b606482015260840161090a565b506001600160a01b031660009081526003602052604090205490565b6060600180546107eb90613b29565b60155460ff166112aa5760405162461bcd60e51b815260206004820152603860248201527f5468697320636f6e7472616374206973206e6f7420616363657074696e67206e60448201527f6577206d656d6265727320617420746869732074696d652e0000000000000000606482015260840161090a565b600060405180604001604052808381526020016112c43390565b6001600160a01b03169052601e805460018101825560009190915281518051929350839260029092027f50bb669a95c7b50b7e8a6f09454034b2b14cf2b85c730dca9a539ca82cb6e350019161132291839160209190910190613178565b50602091820151600191820180546001600160a01b0319166001600160a01b039092169190911790553360008181526017909352604092839020805460ff191690921790915590516113759084906137c4565b604051908190038120907f963cbefbf06d13486cfc0bc54715f33daf948850da30e2a3c2023e6624687ee190600090a35050565b6113b43383836128b2565b5050565b6113c0612856565b600560115410156113d057600080fd5b6000601e83815481106113e5576113e5613bab565b906000526020600020906002020160405180604001604052908160008201805461140e90613b29565b80601f016020809104026020016040519081016040528092919081815260200182805461143a90613b29565b80156114875780601f1061145c57610100808354040283529160200191611487565b820191906000526020600020905b81548152906001019060200180831161146a57829003601f168201915b5050509183525050600191909101546001600160a01b0316602090910152905081156114f957602080820180516001600160a01b039081166000908152601884526040808220805460ff19166001179055855193519092168152601984522081516114f793919290910190613178565b505b601e805461150990600190613ae6565b8154811061151957611519613bab565b9060005260206000209060020201601e848154811061153a5761153a613bab565b9060005260206000209060020201600082018160000190805461155c90613b29565b6115679291906131fc565b50600191820154910180546001600160a01b0319166001600160a01b03909216919091179055601e80548061159e5761159e613b95565b600082815260208120600019909201916002830201906115be8282613277565b5060010180546001600160a01b03191690559055602080820180516001600160a01b0390811660009081526017909352604092839020805460ff1916905590518351925185151593919092169161161591906137c4565b604051908190038120907ff236cc347bab721c49031024cf484b8f76450f8d11ec7d097aa99bad74ace43290600090a4505050565b611652612856565b601d805461166290600190613ae6565b8154811061167257611672613bab565b9060005260206000209060020201601d828154811061169357611693613bab565b906000526020600020906002020160008201816000019080546116b590613b29565b6116c09291906131fc565b50600191820154910180546001600160a01b0319166001600160a01b03909216919091179055601d8054806116f7576116f7613b95565b600082815260208120600019909201916002830201906117178282613277565b5060010180546001600160a01b0319169055905550565b6117366132b1565b6000611742600061199d565b6040805160e081018252600e548152600b546001600160a01b031660208201526013805493945090929183019161177890613b29565b80601f01602080910402602001604051908101604052809291908181526020018280546117a490613b29565b80156117f15780601f106117c6576101008083540402835291602001916117f1565b820191906000526020600020905b8154815290600101906020018083116117d457829003601f168201915b505050505081526020016118056000611d61565b8152602001601f805480602002602001604051908101604052809291908181526020016000905b82821015611982578382906000526020600020906002020160405180604001604052908160008201805461185f90613b29565b80601f016020809104026020016040519081016040528092919081815260200182805461188b90613b29565b80156118d85780601f106118ad576101008083540402835291602001916118d8565b820191906000526020600020905b8154815290600101906020018083116118bb57829003601f168201915b505050505081526020016001820180546118f190613b29565b80601f016020809104026020016040519081016040528092919081815260200182805461191d90613b29565b801561196a5780601f1061193f5761010080835404028352916020019161196a565b820191906000526020600020905b81548152906001019060200180831161194d57829003601f168201915b5050505050815250508152602001906001019061182c565b505050508152602001828152602001600f5481525091505090565b6119c160405180606001604052806000815260200160008152602001606081525090565b601b60008381526020019081526020016000206040518060600160405290816000820154815260200160018201548152602001600282018054611a0390613b29565b80601f0160208091040260200160405190810160405280929190818152602001828054611a2f90613b29565b8015611a7c5780601f10611a5157610100808354040283529160200191611a7c565b820191906000526020600020905b815481529060010190602001808311611a5f57829003601f168201915b5050505050815250509050919050565b611a963383612666565b611ab25760405162461bcd60e51b815260040161090a906138f1565b611abe84848484612981565b50505050565b601054341015611b165760405162461bcd60e51b815260206004820181905260248201527f4d696e74206661696c65643a20496e73756666696369656e742066756e64732e604482015260640161090a565b600c54341015611b2557600080fd5b6064600e5410611b965760405162461bcd60e51b815260206004820152603660248201527f4d696e74206661696c65643a20436f6e74726163742068617320726561636865604482015275321034ba13b99036b4b73a1030b63637bbb0b731b29760511b606482015260840161090a565b33611ba08261113d565b6001600160a01b031614611bb357600080fd5b6000818152601a60205260409020600281015460019091015410611c195760405162461bcd60e51b815260206004820181905260248201527f4d696e74206661696c65643a20416c6c6f77616e63652065786365656465642e604482015260640161090a565b611c2583600e546129b4565b611c31600e54836129ce565b60408051606081018252438152426020808301918252828401868152600e546000908152601b83529490942083518155915160018301559251805192939192611c809260028501920190613178565b5050600e805491506000611c9383613b64565b91905055506000611ca13490565b90506000600f5482611cb39190613ae6565b600b54600f546040519293506001600160a01b039091169181156108fc0291906000818181858888f19350505050158015611cf2573d6000803e3d6000fd5b50600a546040516001600160a01b039091169082156108fc029083906000818181858888f19350505050158015611d2d573d6000803e3d6000fd5b506001601a60008581526020019081526020016000206001016000828254611d559190613ace565b90915550505050505050565b6000818152600260205260409020546060906001600160a01b0316611de05760405162461bcd60e51b815260206004820152602f60248201527f4552433732314d657461646174613a2055524920717565727920666f72206e6f60448201526e3732bc34b9ba32b73a103a37b5b2b760891b606482015260840161090a565b60008281526016602052604081208054611df990613b29565b80601f0160208091040260200160405190810160405280929190818152602001828054611e2590613b29565b8015611e725780601f10611e4757610100808354040283529160200191611e72565b820191906000526020600020905b815481529060010190602001808311611e5557829003601f168201915b505050505090506000611e9060408051602081019091526000815290565b9050805160001415611ea3575092915050565b815115611ed5578082604051602001611ebd9291906137e0565b60405160208183030381529060405292505050919050565b80611edf85612a66565b604051602001611ebd9291906137e0565b60138054610f1590613b29565b336000908152601c602052604090205460ff161515600114611f595760405162461bcd60e51b81526020600482015260156024820152742cb7ba9030b932903737ba1030b8383937bb32b21760591b604482015260640161090a565b33611f638261113d565b6001600160a01b031614611f7657600080fd5b6000818152601a60205260408120600201805460059290611f98908490613ace565b909155505050565b6060611faa612856565b601d805480602002602001604051908101604052809291908181526020016000905b828210156111345783829060005260206000209060020201604051806040016040529081600082018054611fff90613b29565b80601f016020809104026020016040519081016040528092919081815260200182805461202b90613b29565b80156120785780601f1061204d57610100808354040283529160200191612078565b820191906000526020600020905b81548152906001019060200180831161205b57829003601f168201915b50505091835250506001918201546001600160a01b0316602091820152918352929092019101611fcc565b3360009081526018602052604090205460ff166121025760405162461bcd60e51b815260206004820152601d60248201527f436c69656e7420686173206e6f74206265656e20617070726f7665642e000000604482015260640161090a565b6005601154101561211257600080fd5b60408051606081018252600e548082526001602080840182815260058587019081526000948552601a9092529490922092518355925192820192909255905160029091015561216333600e546129b4565b61216f600e54826129ce565b60408051606081018252438152426020808301918252828401858152600e546000908152601b835294909420835181559151600183015592518051929391926121be9260028501920190613178565b5050600e8054915060006121d183613b64565b9091555050600b546001600160a01b03166108fc346040518115909202916000818181858888f1935050505015801561220e573d6000803e3d6000fd5b506005601160008282546122229190613ae6565b9091555050336000908152601860209081526040808320805460ff191690556019909152812061103691613277565b60408051608081018252600080825260208201819052918101919091526060808201526000604051806080016040528061228a8561119d565b81526001600160a01b03851660008181526017602090815260408083205460ff908116151583870152848452601883528184205416151581860152928252601990522080546060909201916122de90613b29565b80601f016020809104026020016040519081016040528092919081815260200182805461230a90613b29565b80156123575780601f1061232c57610100808354040283529160200191612357565b820191906000526020600020905b81548152906001019060200180831161233a57829003601f168201915b505050919092525090949350505050565b612370612856565b601154601254106123da5760405162461bcd60e51b815260206004820152602e60248201527f5468697320636f6e74726163742068617320726561636865642069742773206d60448201526d34b73a1030b63637bbb0b731b29760911b606482015260840161090a565b6001601c6000601d84815481106123f3576123f3613bab565b6000918252602080832060016002909302018201546001600160a01b0316845283019390935260409091019020805492151560ff1990931692909217909155601d8054909161244191613ae6565b8154811061245157612451613bab565b9060005260206000209060020201601d828154811061247257612472613bab565b9060005260206000209060020201600082018160000190805461249490613b29565b61249f9291906131fc565b50600191820154910180546001600160a01b0319166001600160a01b03909216919091179055601d8054806124d6576124d6613b95565b600082815260208120600019909201916002830201906124f68282613277565b5060010180546001600160a01b031916905590556012805460059190600090612520908490613ace565b92505081905550600560116000828254611f989190613ae6565b6001600160a01b03163b151590565b60006001600160e01b031982166380ac58cd60e01b148061257a57506001600160e01b03198216635b5e139f60e01b145b806107d657506301ffc9a760e01b6001600160e01b03198316146107d6565b6000818152600260205260409020546001600160a01b03166110365760405162461bcd60e51b8152602060048201526018602482015277115490cdcc8c4e881a5b9d985b1a59081d1bdad95b88125160421b604482015260640161090a565b600081815260046020526040902080546001600160a01b0319166001600160a01b038416908117909155819061262d8261113d565b6001600160a01b03167f8c5be1e5ebec7d5bd14f71427d1e84f3dd0314c0f7b2291e5b200ac8c7c3b92560405160405180910390a45050565b6000806126728361113d565b9050806001600160a01b0316846001600160a01b031614806126b957506001600160a01b0380821660009081526005602090815260408083209388168352929052205460ff165b806126dd5750836001600160a01b03166126d28461086e565b6001600160a01b0316145b949350505050565b826001600160a01b03166126f88261113d565b6001600160a01b03161461271e5760405162461bcd60e51b815260040161090a90613990565b6001600160a01b0382166127805760405162461bcd60e51b8152602060048201526024808201527f4552433732313a207472616e7366657220746f20746865207a65726f206164646044820152637265737360e01b606482015260840161090a565b61278d8383836001612b03565b826001600160a01b03166127a08261113d565b6001600160a01b0316146127c65760405162461bcd60e51b815260040161090a90613990565b600081815260046020908152604080832080546001600160a01b03199081169091556001600160a01b0387811680865260038552838620805460001901905590871680865283862080546001019055868652600290945282852080549092168417909155905184937fddf252ad1be2c89b69c2b068fc378daa952ba7f163c4a11628f55a4df523b3ef91a4505050565b600b546001600160a01b031633146128b05760405162461bcd60e51b815260206004820181905260248201527f4f776e61626c653a2063616c6c6572206973206e6f7420746865206f776e6572604482015260640161090a565b565b816001600160a01b0316836001600160a01b031614156129145760405162461bcd60e51b815260206004820152601960248201527f4552433732313a20617070726f766520746f2063616c6c657200000000000000604482015260640161090a565b6001600160a01b03838116600081815260056020908152604080832094871680845294825291829020805460ff191686151590811790915591519182527f17307eab39ab6107e8899845ad3d59bd9653f200f220920489ca2b5937696c31910160405180910390a3505050565b61298c8484846126e5565b61299884848484612c37565b611abe5760405162461bcd60e51b815260040161090a9061393e565b6113b4828260405180602001604052806000815250612d44565b6000828152600260205260409020546001600160a01b0316612a475760405162461bcd60e51b815260206004820152602c60248201527f4552433732314d657461646174613a2055524920736574206f66206e6f6e657860448201526b34b9ba32b73a103a37b5b2b760a11b606482015260840161090a565b600082815260166020908152604090912082516109ab92840190613178565b60606000612a7383612d77565b600101905060008167ffffffffffffffff811115612a9357612a93613bc1565b6040519080825280601f01601f191660200182016040528015612abd576020820181803683370190505b5090508181016020015b600019016f181899199a1a9b1b9c1cb0b131b232b360811b600a86061a8153600a8504945084612af657612afb565b612ac7565b509392505050565b6001811115612b725760405162461bcd60e51b815260206004820152603560248201527f455243373231456e756d657261626c653a20636f6e7365637574697665207472604482015274185b9cd9995c9cc81b9bdd081cdd5c1c1bdc9d1959605a1b606482015260840161090a565b816001600160a01b038516612bce57612bc981600880546000838152600960205260408120829055600182018355919091527ff3f7a9fe364faab93b216da50a3214154f22a0a2b415b23a84c8169e8b636ee30155565b612bf1565b836001600160a01b0316856001600160a01b031614612bf157612bf18582612e4f565b6001600160a01b038416612c0d57612c0881612eec565b612c30565b846001600160a01b0316846001600160a01b031614612c3057612c308482612f9b565b5050505050565b60006001600160a01b0384163b15612d3957604051630a85bd0160e11b81526001600160a01b0385169063150b7a0290612c7b90339089908890889060040161380f565b602060405180830381600087803b158015612c9557600080fd5b505af1925050508015612cc5575060408051601f3d908101601f19168201909252612cc2918101906135c5565b60015b612d1f573d808015612cf3576040519150601f19603f3d011682016040523d82523d6000602084013e612cf8565b606091505b508051612d175760405162461bcd60e51b815260040161090a9061393e565b805181602001fd5b6001600160e01b031916630a85bd0160e11b1490506126dd565b506001949350505050565b612d4e8383612fdf565b612d5b6000848484612c37565b6109ab5760405162461bcd60e51b815260040161090a9061393e565b60008072184f03e93ff9f4daa797ed6e38ed64bf6a1f0160401b8310612db65772184f03e93ff9f4daa797ed6e38ed64bf6a1f0160401b830492506040015b6d04ee2d6d415b85acef81000000008310612de2576d04ee2d6d415b85acef8100000000830492506020015b662386f26fc100008310612e0057662386f26fc10000830492506010015b6305f5e1008310612e18576305f5e100830492506008015b6127108310612e2c57612710830492506004015b60648310612e3e576064830492506002015b600a83106107d65760010192915050565b60006001612e5c8461119d565b612e669190613ae6565b600083815260076020526040902054909150808214612eb9576001600160a01b03841660009081526006602090815260408083208584528252808320548484528184208190558352600790915290208190555b5060009182526007602090815260408084208490556001600160a01b039094168352600681528383209183525290812055565b600854600090612efe90600190613ae6565b60008381526009602052604081205460088054939450909284908110612f2657612f26613bab565b906000526020600020015490508060088381548110612f4757612f47613bab565b6000918252602080832090910192909255828152600990915260408082208490558582528120556008805480612f7f57612f7f613b95565b6001900381819060005260206000200160009055905550505050565b6000612fa68361119d565b6001600160a01b039093166000908152600660209081526040808320868452825280832085905593825260079052919091209190915550565b6001600160a01b0382166130355760405162461bcd60e51b815260206004820181905260248201527f4552433732313a206d696e7420746f20746865207a65726f2061646472657373604482015260640161090a565b6000818152600260205260409020546001600160a01b03161561309a5760405162461bcd60e51b815260206004820152601c60248201527f4552433732313a20746f6b656e20616c7265616479206d696e74656400000000604482015260640161090a565b6130a8600083836001612b03565b6000818152600260205260409020546001600160a01b03161561310d5760405162461bcd60e51b815260206004820152601c60248201527f4552433732313a20746f6b656e20616c7265616479206d696e74656400000000604482015260640161090a565b6001600160a01b038216600081815260036020908152604080832080546001019055848352600290915280822080546001600160a01b0319168417905551839291907fddf252ad1be2c89b69c2b068fc378daa952ba7f163c4a11628f55a4df523b3ef908290a45050565b82805461318490613b29565b90600052602060002090601f0160209004810192826131a657600085556131ec565b82601f106131bf57805160ff19168380011785556131ec565b828001600101855582156131ec579182015b828111156131ec5782518255916020019190600101906131d1565b506131f8929150613319565b5090565b82805461320890613b29565b90600052602060002090601f01602090048101928261322a57600085556131ec565b82601f1061323b57805485556131ec565b828001600101855582156131ec57600052602060002091601f016020900482015b828111156131ec57825482559160010191906001019061325c565b50805461328390613b29565b6000825580601f10613293575050565b601f0160209004906000526020600020908101906110369190613319565b6040518060e001604052806000815260200160006001600160a01b0316815260200160608152602001606081526020016060815260200161330c60405180606001604052806000815260200160008152602001606081525090565b8152602001600081525090565b5b808211156131f8576000815560010161331a565b600067ffffffffffffffff8084111561334957613349613bc1565b604051601f8501601f19908116603f0116810190828211818310171561337157613371613bc1565b8160405280935085815286868601111561338a57600080fd5b858560208301376000602087830101525050509392505050565b80356001600160a01b03811681146133bb57600080fd5b919050565b803580151581146133bb57600080fd5b600082601f8301126133e157600080fd5b6133f08383356020850161332e565b9392505050565b60006020828403121561340957600080fd5b6133f0826133a4565b6000806040838503121561342557600080fd5b61342e836133a4565b915061343c602084016133a4565b90509250929050565b60008060006060848603121561345a57600080fd5b613463846133a4565b9250613471602085016133a4565b9150604084013590509250925092565b6000806000806080858703121561349757600080fd5b6134a0856133a4565b93506134ae602086016133a4565b925060408501359150606085013567ffffffffffffffff8111156134d157600080fd5b8501601f810187136134e257600080fd5b6134f18782356020840161332e565b91505092959194509250565b6000806040838503121561351057600080fd5b613519836133a4565b915061343c602084016133c0565b60008060006060848603121561353c57600080fd5b613545846133a4565b9250602084013567ffffffffffffffff81111561356157600080fd5b61356d868287016133d0565b925050604084013590509250925092565b6000806040838503121561359157600080fd5b61359a836133a4565b946020939093013593505050565b6000602082840312156135ba57600080fd5b81356133f081613bd7565b6000602082840312156135d757600080fd5b81516133f081613bd7565b6000602082840312156135f457600080fd5b813567ffffffffffffffff81111561360b57600080fd5b6126dd848285016133d0565b6000806040838503121561362a57600080fd5b823567ffffffffffffffff8082111561364257600080fd5b61364e868387016133d0565b9350602085013591508082111561366457600080fd5b50613671858286016133d0565b9150509250929050565b60006020828403121561368d57600080fd5b5035919050565b600080604083850312156136a757600080fd5b8235915061343c602084016133c0565b600080604083850312156136ca57600080fd5b82359150602083013567ffffffffffffffff8111156136e857600080fd5b613671858286016133d0565b600081518084526020808501808196508360051b8101915082860160005b858110156137625782840389528151604081518187526137348288018261376f565b9150508682015191508581038787015261374e818361376f565b9a87019a9550505090840190600101613712565b5091979650505050505050565b60008151808452613787816020860160208601613afd565b601f01601f19169290920160200192915050565b805182526020810151602083015260006040820151606060408501526126dd606085018261376f565b600082516137d6818460208701613afd565b9190910192915050565b600083516137f2818460208801613afd565b835190830190613806818360208801613afd565b01949350505050565b6001600160a01b03858116825284166020820152604081018390526080606082018190526000906138429083018461376f565b9695505050505050565b60006020808301818452808551808352604092508286019150828160051b87010184880160005b838110156138bd57888303603f19018552815180518785526138978886018261376f565b918901516001600160a01b03169489019490945294870194925090860190600101613873565b509098975050505050505050565b6020815260006133f060208301846136f4565b6020815260006133f0602083018461376f565b6020808252602d908201527f4552433732313a2063616c6c6572206973206e6f7420746f6b656e206f776e6560408201526c1c881bdc88185c1c1c9bdd9959609a1b606082015260800190565b60208082526032908201527f4552433732313a207472616e7366657220746f206e6f6e20455243373231526560408201527131b2b4bb32b91034b6b83632b6b2b73a32b960711b606082015260800190565b60208082526025908201527f4552433732313a207472616e736665722066726f6d20696e636f72726563742060408201526437bbb732b960d91b606082015260800190565b602081528151602082015260018060a01b0360208301511660408201526000604083015160e06060840152613a0e61010084018261376f565b90506060840151601f1980858403016080860152613a2c838361376f565b925060808601519150808584030160a0860152613a4983836136f4565b925060a08601519150808584030160c086015250613a67828261379b565b91505060c084015160e08401528091505092915050565b6020815260006133f0602083018461379b565b6020815281516020820152602082015115156040820152604082015115156060820152600060608301516080808401526126dd60a084018261376f565b60008219821115613ae157613ae1613b7f565b500190565b600082821015613af857613af8613b7f565b500390565b60005b83811015613b18578181015183820152602001613b00565b83811115611abe5750506000910152565b600181811c90821680613b3d57607f821691505b60208210811415613b5e57634e487b7160e01b600052602260045260246000fd5b50919050565b6000600019821415613b7857613b78613b7f565b5060010190565b634e487b7160e01b600052601160045260246000fd5b634e487b7160e01b600052603160045260246000fd5b634e487b7160e01b600052603260045260246000fd5b634e487b7160e01b600052604160045260246000fd5b6001600160e01b03198116811461103657600080fdfea2646970667358221220a84d666c83a1ea328e56285f1a0da7b92ae993a34e45aa4909e362318b72672964736f6c634300080700334552433732313a207472616e7366657220746f206e6f6e204552433732315265a2646970667358221220097d5b4d0a50c6c4424f3d0a018e478a6ae5c2587de149631486418bc458e1c564736f6c63430008070033",
  "linkReferences": {},
  "deployedLinkReferences": {}
}