{
  "_format": "hh-sol-artifact-1",
  "contractName": "TamboraFactory",
  "sourceName": "contracts/TamboraFactory.sol",
  "abi": [
    {
      "inputs": [],
      "stateMutability": "nonpayable",
      "type": "constructor"
    },
    {
      "anonymous": false,
      "inputs": [
        {
          "indexed": true,
          "internalType": "contract Tambora",
          "name": "contractAddr",
          "type": "address"
        }
      ],
      "name": "Deployed",
      "type": "event"
    },
    {
      "inputs": [
        {
          "internalType": "string",
          "name": "name",
          "type": "string"
        },
        {
          "internalType": "string",
          "name": "symbol",
          "type": "string"
        },
        {
          "internalType": "uint256",
          "name": "price_",
          "type": "uint256"
        },
        {
          "internalType": "string",
          "name": "contractType_",
          "type": "string"
        },
        {
          "internalType": "address",
          "name": "to_",
          "type": "address"
        },
        {
          "internalType": "string",
          "name": "uri_",
          "type": "string"
        }
      ],
      "name": "deployTambora",
      "outputs": [],
      "stateMutability": "payable",
      "type": "function"
    },
    {
      "inputs": [
        {
          "internalType": "string",
          "name": "name_",
          "type": "string"
        }
      ],
      "name": "getContractAddress",
      "outputs": [
        {
          "internalType": "contract Tambora",
          "name": "",
          "type": "address"
        }
      ],
      "stateMutability": "view",
      "type": "function"
    },
    {
      "inputs": [],
      "name": "getDeployedContracts",
      "outputs": [
        {
          "internalType": "contract Tambora[]",
          "name": "",
          "type": "address[]"
        }
      ],
      "stateMutability": "view",
      "type": "function"
    },
    {
      "inputs": [],
      "name": "getNames",
      "outputs": [
        {
          "internalType": "string[]",
          "name": "",
          "type": "string[]"
        }
      ],
      "stateMutability": "view",
      "type": "function"
    },
    {
      "inputs": [
        {
          "internalType": "address",
          "name": "contractOwner",
          "type": "address"
        }
      ],
      "name": "getOwnedContracts",
      "outputs": [
        {
          "internalType": "contract Tambora[]",
          "name": "",
          "type": "address[]"
        }
      ],
      "stateMutability": "view",
      "type": "function"
    },
    {
      "inputs": [
        {
          "internalType": "uint256",
          "name": "",
          "type": "uint256"
        }
      ],
      "name": "names",
      "outputs": [
        {
          "internalType": "string",
          "name": "",
          "type": "string"
        }
      ],
      "stateMutability": "view",
      "type": "function"
    },
    {
      "inputs": [
        {
          "internalType": "uint256",
          "name": "index",
          "type": "uint256"
        }
      ],
      "name": "removeContract",
      "outputs": [],
      "stateMutability": "nonpayable",
      "type": "function"
    }
  ],
  "bytecode": "0x608060405234801561001057600080fd5b50600080546001600160a01b03191633178155615e5590819061003390396000f3fe608060405260043610620000795760003560e01c80637cca3b0611620000545780637cca3b06146200010d578063aa9a068f1462000132578063cd838f0f1462000159578063e5d2f8e3146200018057600080fd5b806304433bbc146200007e5780634622ab0314620000c05780634f8bd19814620000f4575b600080fd5b3480156200008b57600080fd5b50620000a36200009d36600462000aa4565b620001a5565b6040516001600160a01b0390911681526020015b60405180910390f35b348015620000cd57600080fd5b50620000e5620000df36600462000bba565b620001d8565b604051620000b7919062000d64565b6200010b6200010536600462000ae5565b6200028d565b005b3480156200011a57600080fd5b506200010b6200012c36600462000bba565b62000516565b3480156200013f57600080fd5b506200014a62000694565b604051620000b7919062000caf565b3480156200016657600080fd5b5062000171620006f8565b604051620000b7919062000cfe565b3480156200018d57600080fd5b506200014a6200019f36600462000a7f565b620007db565b6000600482604051620001b9919062000c02565b908152604051908190036020019020546001600160a01b031692915050565b60028181548110620001e957600080fd5b906000526020600020016000915090508054620002069062000dd2565b80601f0160208091040260200160405190810160405280929190818152602001828054620002349062000dd2565b8015620002855780601f10620002595761010080835404028352916020019162000285565b820191906000526020600020905b8154815290600101906020018083116200026757829003601f168201915b505050505081565b66b1a2bc2ec50000341015620002a257600080fd5b6000620002af87620001a5565b6001600160a01b03161462000324576040517f08c379a000000000000000000000000000000000000000000000000000000000815260206004820152601360248201527f4e616d6520616c72656164792065786973747300000000000000000000000000604482015260640160405180910390fd5b60003387878787878760008054906101000a90046001600160a01b03166040516200034f9062000853565b6200036298979695949392919062000c20565b604051809103906000f0801580156200037f573d6000803e3d6000fd5b506001805480820182557fb10e2d527612073b26eecdfd717e6a320cf44b4afac2b0732d9fcbe2b7fa0cf601805473ffffffffffffffffffffffffffffffffffffffff19166001600160a01b038416179055600280549182018155600052885191925062000417917f405787fa12a823e0f2b7631cc41b3ba8828b3321ca811111fa75cd3aa3bb5ace9091019060208a019062000861565b50806004886040516200042b919062000c02565b90815260405190819003602001812080546001600160a01b0393841673ffffffffffffffffffffffffffffffffffffffff19909116179055908216907ff40fcec21964ffb566044d083b4073f29f7f7929110ea19e1b3ebe375d89055e90600090a2336000908152600360209081526040808320805460018101825590845291832090910180546001600160a01b0385811673ffffffffffffffffffffffffffffffffffffffff1990921691909117909155825491519116913480156108fc02929091818181858888f193505050501580156200050c573d6000803e3d6000fd5b5050505050505050565b6000546001600160a01b031633146200052e57600080fd5b60028054620005409060019062000d79565b8154811062000553576200055362000e25565b906000526020600020016002828154811062000573576200057362000e25565b906000526020600020019080546200058b9062000dd2565b62000598929190620008f0565b506002805480620005ad57620005ad62000e0f565b600190038181906000526020600020016000620005cb919062000974565b905560018054620005de90829062000d79565b81548110620005f157620005f162000e25565b600091825260209091200154600180546001600160a01b03909216918390811062000620576200062062000e25565b9060005260206000200160006101000a8154816001600160a01b0302191690836001600160a01b03160217905550600180548062000662576200066262000e0f565b6000828152602090208101600019908101805473ffffffffffffffffffffffffffffffffffffffff1916905501905550565b60606001805480602002602001604051908101604052809291908181526020018280548015620006ee57602002820191906000526020600020905b81546001600160a01b03168152600190910190602001808311620006cf575b5050505050905090565b60606002805480602002602001604051908101604052809291908181526020016000905b82821015620007d25783829060005260206000200180546200073e9062000dd2565b80601f01602080910402602001604051908101604052809291908181526020018280546200076c9062000dd2565b8015620007bd5780601f106200079157610100808354040283529160200191620007bd565b820191906000526020600020905b8154815290600101906020018083116200079f57829003601f168201915b5050505050815260200190600101906200071c565b50505050905090565b6001600160a01b0381166000908152600360209081526040918290208054835181840281018401909452808452606093928301828280156200084757602002820191906000526020600020905b81546001600160a01b0316815260019091019060200180831162000828575b50505050509050919050565b614fce8062000e5283390190565b8280546200086f9062000dd2565b90600052602060002090601f016020900481019282620008935760008555620008de565b82601f10620008ae57805160ff1916838001178555620008de565b82800160010185558215620008de579182015b82811115620008de578251825591602001919060010190620008c1565b50620008ec929150620009b6565b5090565b828054620008fe9062000dd2565b90600052602060002090601f016020900481019282620009225760008555620008de565b82601f10620009355780548555620008de565b82800160010185558215620008de57600052602060002091601f016020900482015b82811115620008de57825482559160010191906001019062000957565b508054620009829062000dd2565b6000825580601f1062000993575050565b601f016020900490600052602060002090810190620009b39190620009b6565b50565b5b80821115620008ec5760008155600101620009b7565b80356001600160a01b0381168114620009e557600080fd5b919050565b600082601f830112620009fc57600080fd5b813567ffffffffffffffff8082111562000a1a5762000a1a62000e3b565b604051601f8301601f19908116603f0116810190828211818310171562000a455762000a4562000e3b565b8160405283815286602085880101111562000a5f57600080fd5b836020870160208301376000602085830101528094505050505092915050565b60006020828403121562000a9257600080fd5b62000a9d82620009cd565b9392505050565b60006020828403121562000ab757600080fd5b813567ffffffffffffffff81111562000acf57600080fd5b62000add84828501620009ea565b949350505050565b60008060008060008060c0878903121562000aff57600080fd5b863567ffffffffffffffff8082111562000b1857600080fd5b62000b268a838b01620009ea565b9750602089013591508082111562000b3d57600080fd5b62000b4b8a838b01620009ea565b965060408901359550606089013591508082111562000b6957600080fd5b62000b778a838b01620009ea565b945062000b8760808a01620009cd565b935060a089013591508082111562000b9e57600080fd5b5062000bad89828a01620009ea565b9150509295509295509295565b60006020828403121562000bcd57600080fd5b5035919050565b6000815180845262000bee81602086016020860162000d9f565b601f01601f19169290920160200192915050565b6000825162000c1681846020870162000d9f565b9190910192915050565b60006101006001600160a01b03808c16845281602085015262000c468285018c62000bd4565b9150838203604085015262000c5c828b62000bd4565b9150886060850152838203608085015262000c78828962000bd4565b915080871660a085015283820360c085015262000c96828762000bd4565b925080851660e085015250509998505050505050505050565b6020808252825182820181905260009190848201906040850190845b8181101562000cf25783516001600160a01b03168352928401929184019160010162000ccb565b50909695505050505050565b6000602080830181845280855180835260408601915060408160051b870101925083870160005b8281101562000d5757603f1988860301845262000d4485835162000bd4565b9450928501929085019060010162000d25565b5092979650505050505050565b60208152600062000a9d602083018462000bd4565b60008282101562000d9a57634e487b7160e01b600052601160045260246000fd5b500390565b60005b8381101562000dbc57818101518382015260200162000da2565b8381111562000dcc576000848401525b50505050565b600181811c9082168062000de757607f821691505b6020821081141562000e0957634e487b7160e01b600052602260045260246000fd5b50919050565b634e487b7160e01b600052603160045260246000fd5b634e487b7160e01b600052603260045260246000fd5b634e487b7160e01b600052604160045260246000fdfe60806040523480156200001157600080fd5b5060405162004fce38038062004fce833981016040819052620000349162000a1e565b8651879087906200004d906000906020850190620008a4565b50805162000063906001906020840190620008a4565b5050600b80546001600160a01b03808c166001600160a01b031992831617909255600a80549285169290911691909117905550600d8590558351620000b0906010906020870190620008a4565b50600a600f819055605a600e5560408051606081018252600080825260016020808401918252938301948552818052601690935290517f0263c2b778d062355049effc2dece97bc6547ff8a88a3258daa512061c2153dd5590517f0263c2b778d062355049effc2dece97bc6547ff8a88a3258daa512061c2153de5590517f0263c2b778d062355049effc2dece97bc6547ff8a88a3258daa512061c2153df556200015d90849062000225565b6200016a600083620003ca565b6001600c5560408051606081018252438152426020808301918252928201858152600080526017845282517fd840e16649f6b9a295d95876f4633d3a6b10b55e8162971cf78afd886d5ec89b90815591517fd840e16649f6b9a295d95876f4633d3a6b10b55e8162971cf78afd886d5ec89c555180519293919262000213927fd840e16649f6b9a295d95876f4633d3a6b10b55e8162971cf78afd886d5ec89d920190620008a4565b50905050505050505050505062000be4565b6001600160a01b038216620002815760405162461bcd60e51b815260206004820181905260248201527f4552433732313a206d696e7420746f20746865207a65726f206164647265737360448201526064015b60405180910390fd5b6000818152600260205260409020546001600160a01b031615620002e85760405162461bcd60e51b815260206004820152601c60248201527f4552433732313a20746f6b656e20616c7265616479206d696e74656400000000604482015260640162000278565b620002f86000838360016200046b565b6000818152600260205260409020546001600160a01b0316156200035f5760405162461bcd60e51b815260206004820152601c60248201527f4552433732313a20746f6b656e20616c7265616479206d696e74656400000000604482015260640162000278565b6001600160a01b038216600081815260036020908152604080832080546001019055848352600290915280822080546001600160a01b0319168417905551839291907fddf252ad1be2c89b69c2b068fc378daa952ba7f163c4a11628f55a4df523b3ef908290a45050565b6000828152600260205260409020546001600160a01b0316620004455760405162461bcd60e51b815260206004820152602c60248201527f4552433732314d657461646174613a2055524920736574206f66206e6f6e657860448201526b34b9ba32b73a103a37b5b2b760a11b606482015260840162000278565b600082815260116020908152604090912082516200046692840190620008a4565b505050565b6200048484848484620005d560201b62002b991760201c565b6001811115620004fd5760405162461bcd60e51b815260206004820152603560248201527f455243373231456e756d657261626c653a20636f6e736563757469766520747260448201527f616e7366657273206e6f7420737570706f727465640000000000000000000000606482015260840162000278565b816001600160a01b0385166200055c576200055681600880546000838152600960205260408120829055600182018355919091527ff3f7a9fe364faab93b216da50a3214154f22a0a2b415b23a84c8169e8b636ee30155565b62000582565b836001600160a01b0316856001600160a01b031614620005825762000582858262000664565b6001600160a01b038416620005a2576200059c8162000711565b620005c8565b846001600160a01b0316846001600160a01b031614620005c857620005c88482620007cb565b5050505050565b50505050565b6001811115620005cf576001600160a01b038416156200061f576001600160a01b038416600090815260036020526040812080548392906200061990849062000b35565b90915550505b6001600160a01b03831615620005cf576001600160a01b038316600090815260036020526040812080548392906200065990849062000b1a565b909155505050505050565b600060016200067e846200081c60201b620013ae1760201c565b6200068a919062000b35565b600083815260076020526040902054909150808214620006de576001600160a01b03841660009081526006602090815260408083208584528252808320548484528184208190558352600790915290208190555b5060009182526007602090815260408084208490556001600160a01b039094168352600681528383209183525290812055565b600854600090620007259060019062000b35565b6000838152600960205260408120546008805493945090928490811062000750576200075062000bb8565b90600052602060002001549050806008838154811062000774576200077462000bb8565b6000918252602080832090910192909255828152600990915260408082208490558582528120556008805480620007af57620007af62000ba2565b6001900381819060005260206000200160009055905550505050565b6000620007e3836200081c60201b620013ae1760201c565b6001600160a01b039093166000908152600660209081526040808320868452825280832085905593825260079052919091209190915550565b60006001600160a01b038216620008885760405162461bcd60e51b815260206004820152602960248201527f4552433732313a2061646472657373207a65726f206973206e6f7420612076616044820152683634b21037bbb732b960b91b606482015260840162000278565b506001600160a01b031660009081526003602052604090205490565b828054620008b29062000b4f565b90600052602060002090601f016020900481019282620008d6576000855562000921565b82601f10620008f157805160ff191683800117855562000921565b8280016001018555821562000921579182015b828111156200092157825182559160200191906001019062000904565b506200092f92915062000933565b5090565b5b808211156200092f576000815560010162000934565b80516001600160a01b03811681146200096257600080fd5b919050565b600082601f8301126200097957600080fd5b81516001600160401b038082111562000996576200099662000bce565b604051601f8301601f19908116603f01168101908282118183101715620009c157620009c162000bce565b81604052838152602092508683858801011115620009de57600080fd5b600091505b8382101562000a025785820183015181830184015290820190620009e3565b8382111562000a145760008385830101525b9695505050505050565b600080600080600080600080610100898b03121562000a3c57600080fd5b62000a47896200094a565b60208a01519098506001600160401b038082111562000a6557600080fd5b62000a738c838d0162000967565b985060408b015191508082111562000a8a57600080fd5b62000a988c838d0162000967565b975060608b0151965060808b015191508082111562000ab657600080fd5b62000ac48c838d0162000967565b955062000ad460a08c016200094a565b945060c08b015191508082111562000aeb57600080fd5b5062000afa8b828c0162000967565b92505062000b0b60e08a016200094a565b90509295985092959890939650565b6000821982111562000b305762000b3062000b8c565b500190565b60008282101562000b4a5762000b4a62000b8c565b500390565b600181811c9082168062000b6457607f821691505b6020821081141562000b8657634e487b7160e01b600052602260045260246000fd5b50919050565b634e487b7160e01b600052601160045260246000fd5b634e487b7160e01b600052603160045260246000fd5b634e487b7160e01b600052603260045260246000fd5b634e487b7160e01b600052604160045260246000fd5b6143da8062000bf46000396000f3fe6080604052600436106102e75760003560e01c806393d34de911610184578063b09afec1116100d6578063d431a2481161008a578063eb9ce16311610064578063eb9ce1631461085c578063f9dc375f14610871578063ffe644341461088457600080fd5b8063d431a248146107e0578063e985e9c5146107f3578063eb4297f61461083c57600080fd5b8063ba7aef43116100bb578063ba7aef4314610798578063c87b56dd146107ab578063cb2ef6f7146107cb57600080fd5b8063b09afec11461074b578063b88d4fde1461077857600080fd5b8063a035b1fe11610138578063a918458211610112578063a9184582146106b2578063aeb20b94146106d2578063af80a5be1461072957600080fd5b8063a035b1fe1461065c578063a22cb46514610672578063a28039cd1461069257600080fd5b8063967615951161016957806396761595146105ec57806397a333421461060c578063a00745b61461062c57600080fd5b806393d34de9146105c257806395d89b41146105d757600080fd5b8063396876bd1161023d5780635a9be11b116101f1578063673448dd116101cb578063673448dd1461055457806370a08231146105845780638da5cb5b146105a457600080fd5b80635a9be11b1461050a5780635bf61cfe146105125780636352211e1461053457600080fd5b80634261917a116102225780634261917a146104aa57806342842e0e146104ca5780634f6ccce7146104ea57600080fd5b8063396876bd146104745780633c084fa51461048a57600080fd5b806318160ddd1161029f57806323b872dd1161027957806323b872dd146104145780632b8fd8bd146104345780632f745c591461045457600080fd5b806318160ddd146103bf5780631fceaae0146103de5780632291e388146103fe57600080fd5b8063081812fc116102d0578063081812fc14610343578063095ea7b31461037b5780630e37b4fd1461039d57600080fd5b806301ffc9a7146102ec57806306fdde0314610321575b600080fd5b3480156102f857600080fd5b5061030c610307366004613e06565b6108a4565b60405190151581526020015b60405180910390f35b34801561032d57600080fd5b506103366108e8565b60405161031891906141a8565b34801561034f57600080fd5b5061036361035e366004613f35565b61097a565b6040516001600160a01b039091168152602001610318565b34801561038757600080fd5b5061039b610396366004613d6a565b6109a1565b005b3480156103a957600080fd5b506103b2610ad8565b6040516103189190614195565b3480156103cb57600080fd5b506008545b604051908152602001610318565b3480156103ea57600080fd5b5061039b6103f9366004613ed9565b610c70565b34801561040a57600080fd5b506103d0600f5481565b34801561042057600080fd5b5061039b61042f366004613c31565b610ce6565b34801561044057600080fd5b5061039b61044f366004613d94565b610d6d565b34801561046057600080fd5b506103d061046f366004613d6a565b610e46565b34801561048057600080fd5b506103d0600e5481565b34801561049657600080fd5b5061039b6104a5366004613f71565b610eee565b3480156104b657600080fd5b5061039b6104c5366004613e75565b610ff0565b3480156104d657600080fd5b5061039b6104e5366004613c31565b6110b8565b3480156104f657600080fd5b506103d0610505366004613f35565b6110d3565b61039b611177565b34801561051e57600080fd5b5061052761124e565b6040516103189190614116565b34801561054057600080fd5b5061036361054f366004613f35565b611349565b34801561056057600080fd5b5061030c61056f366004613be3565b60136020526000908152604090205460ff1681565b34801561059057600080fd5b506103d061059f366004613be3565b6113ae565b3480156105b057600080fd5b50600b546001600160a01b0316610363565b3480156105ce57600080fd5b506103b2611448565b3480156105e357600080fd5b5061033661164d565b3480156105f857600080fd5b5061039b610607366004613e40565b61165c565b34801561061857600080fd5b50610336610627366004613be3565b611759565b34801561063857600080fd5b5061030c610647366004613be3565b60126020526000908152604090205460ff1681565b34801561066857600080fd5b506103d0600d5481565b34801561067e57600080fd5b5061039b61068d366004613ce9565b6117f3565b34801561069e57600080fd5b5061039b6106ad366004613f4e565b611802565b3480156106be57600080fd5b5061039b6106cd366004613f35565b611a86565b3480156106de57600080fd5b5061070e6106ed366004613f35565b60166020526000908152604090208054600182015460029092015490919083565b60408051938452602084019290925290820152606001610318565b34801561073557600080fd5b5061073e611b6a565b60405161031891906141bb565b34801561075757600080fd5b5061076b610766366004613f35565b611f93565b6040516103189190614256565b34801561078457600080fd5b5061039b610793366004613c6d565b612082565b61039b6107a6366004613d13565b612110565b3480156107b757600080fd5b506103366107c6366004613f35565b61236c565b3480156107d757600080fd5b50610336612509565b61039b6107ee366004613f35565b612516565b3480156107ff57600080fd5b5061030c61080e366004613bfe565b6001600160a01b03918216600090815260056020908152604080832093909416825291909152205460ff1690565b34801561084857600080fd5b506103b2610857366004613f35565b61261c565b34801561086857600080fd5b50610527612800565b61039b61087f366004613e40565b612903565b34801561089057600080fd5b5061039b61089f366004613f35565b612ab1565b60006001600160e01b031982167f780e9d630000000000000000000000000000000000000000000000000000000014806108e257506108e282612c21565b92915050565b6060600080546108f7906142e0565b80601f0160208091040260200160405190810160405280929190818152602001828054610923906142e0565b80156109705780601f1061094557610100808354040283529160200191610970565b820191906000526020600020905b81548152906001019060200180831161095357829003601f168201915b5050505050905090565b600061098582612cbc565b506000908152600460205260409020546001600160a01b031690565b60006109ac82611349565b9050806001600160a01b0316836001600160a01b03161415610a3b5760405162461bcd60e51b815260206004820152602160248201527f4552433732313a20617070726f76616c20746f2063757272656e74206f776e6560448201527f720000000000000000000000000000000000000000000000000000000000000060648201526084015b60405180910390fd5b336001600160a01b0382161480610a575750610a57813361080e565b610ac95760405162461bcd60e51b815260206004820152603d60248201527f4552433732313a20617070726f76652063616c6c6572206973206e6f7420746f60448201527f6b656e206f776e6572206f7220617070726f76656420666f7220616c6c0000006064820152608401610a32565b610ad38383612d20565b505050565b60606000610ae5336113ae565b11610aef57600080fd5b601c805480602002602001604051908101604052809291908181526020016000905b82821015610c675783829060005260206000209060020201604051806040016040529081600082018054610b44906142e0565b80601f0160208091040260200160405190810160405280929190818152602001828054610b70906142e0565b8015610bbd5780601f10610b9257610100808354040283529160200191610bbd565b820191906000526020600020905b815481529060010190602001808311610ba057829003601f168201915b50505050508152602001600182018054610bd6906142e0565b80601f0160208091040260200160405190810160405280929190818152602001828054610c02906142e0565b8015610c4f5780601f10610c2457610100808354040283529160200191610c4f565b820191906000526020600020905b815481529060010190602001808311610c3257829003601f168201915b50505050508152505081526020019060010190610b11565b50505050905090565b610c78612d8e565b6000818152601560209081526040808320815180830190925285825281830187905280546001810182559084529282902081518051929460020290910192610cc5928492909101906139d0565b506020828101518051610cde92600185019201906139d0565b505050505050565b610cf03382612dea565b610d625760405162461bcd60e51b815260206004820152602d60248201527f4552433732313a2063616c6c6572206973206e6f7420746f6b656e206f776e6560448201527f72206f7220617070726f766564000000000000000000000000000000000000006064820152608401610a32565b610ad3838383612e69565b33610d7784611349565b6001600160a01b031614610dcd5760405162461bcd60e51b815260206004820152601e60248201527f596f75206d757374206265206120636f6e7472616374206d656d6265722e00006044820152606401610a32565b6001600160a01b0384166000908152601860209081526040808320815180830190925284825281830186905280546001810182559084529282902081518051929460020290910192610e24928492909101906139d0565b506020828101518051610e3d92600185019201906139d0565b50505050505050565b6000610e51836113ae565b8210610ec55760405162461bcd60e51b815260206004820152602b60248201527f455243373231456e756d657261626c653a206f776e657220696e646578206f7560448201527f74206f6620626f756e64730000000000000000000000000000000000000000006064820152608401610a32565b506001600160a01b03919091166000908152600660209081526040808320938352929052205490565b33610ef883611349565b6001600160a01b031614610f0b57600080fd5b60006040518060400160405280838152602001610f253390565b6001600160a01b03169052601a805460018101825560009190915281518051929350839260029092027f057c384a7d1c54f3a1b2e5e67b2617b8224fdfd1ea7234eea573a6ff665ff63e0191610f83918391602091909101906139d0565b5060209190910151600190910180546001600160a01b0319166001600160a01b03909216919091179055604051610fbb9082906140a0565b604051908190038120907f88db4a536f075851673fbcb81050ab51c0a709de0eef6aa0c872a927c0ade24c90600090a2505050565b610ff8612d8e565b604080518082019091528281526020808201839052601c805460018101825560009190915282518051849360029093027f0e4562a10381dec21b205ed72637e6b1b523bdd0e4d4d50af5cd23dd4500a21101926110599284929101906139d0565b50602082810151805161107292600185019201906139d0565b505050826040516110839190614055565b604051908190038120907f035b065922620bc9e29f8f7e5156f5e151ecd66c99b686b6da840a49f68bc20890600090a2505050565b610ad383838360405180602001604052806000815250612082565b60006110de60085490565b82106111525760405162461bcd60e51b815260206004820152602c60248201527f455243373231456e756d657261626c653a20676c6f62616c20696e646578206f60448201527f7574206f6620626f756e647300000000000000000000000000000000000000006064820152608401610a32565b6008828154811061116557611165614362565b90600052602060002001549050919050565b61117f612d8e565b66b1a2bc2ec500003410156111fb5760405162461bcd60e51b8152602060048201526024808201527f54686973207472616e73616374696f6e20726571756972657320302e3035206560448201527f74686572000000000000000000000000000000000000000000000000000000006064820152608401610a32565b6064600e600082825461120e9190614285565b9091555050600a546001600160a01b03166108fc346040518115909202916000818181858888f1935050505015801561124b573d6000803e3d6000fd5b50565b6060601b805480602002602001604051908101604052809291908181526020016000905b82821015610c6757838290600052602060002090600202016040518060400160405290816000820180546112a5906142e0565b80601f01602080910402602001604051908101604052809291908181526020018280546112d1906142e0565b801561131e5780601f106112f35761010080835404028352916020019161131e565b820191906000526020600020905b81548152906001019060200180831161130157829003601f168201915b50505091835250506001918201546001600160a01b0316602091820152918352929092019101611272565b6000818152600260205260408120546001600160a01b0316806108e25760405162461bcd60e51b815260206004820152601860248201527f4552433732313a20696e76616c696420746f6b656e20494400000000000000006044820152606401610a32565b60006001600160a01b03821661142c5760405162461bcd60e51b815260206004820152602960248201527f4552433732313a2061646472657373207a65726f206973206e6f74206120766160448201527f6c6964206f776e657200000000000000000000000000000000000000000000006064820152608401610a32565b506001600160a01b031660009081526003602052604090205490565b336000908152601860205260409020546060906114cd5760405162461bcd60e51b815260206004820152603460248201527f596f752068617665206e6f74206265656e20617070726f76656420666f72207460448201527f68652072657175657374656420616374696f6e2e0000000000000000000000006064820152608401610a32565b33600090815260186020908152604080832080548251818502810185019093528083529193909284015b82821015610c67578382906000526020600020906002020160405180604001604052908160008201805461152a906142e0565b80601f0160208091040260200160405190810160405280929190818152602001828054611556906142e0565b80156115a35780601f10611578576101008083540402835291602001916115a3565b820191906000526020600020905b81548152906001019060200180831161158657829003601f168201915b505050505081526020016001820180546115bc906142e0565b80601f01602080910402602001604051908101604052809291908181526020018280546115e8906142e0565b80156116355780601f1061160a57610100808354040283529160200191611635565b820191906000526020600020905b81548152906001019060200180831161161857829003601f168201915b505050505081525050815260200190600101906114f7565b6060600180546108f7906142e0565b600060405180604001604052808381526020016116763390565b6001600160a01b03169052601b805460018101825560009190915281518051929350839260029092027f3ad8aa4f87544323a9d1e5dd902f40c356527a7955687113db5f9a85ad579dc101916116d4918391602091909101906139d0565b50602091820151600191820180546001600160a01b0319166001600160a01b039092169190911790553360009081526012909252604091829020805460ff19169091179055516117259082906140a0565b604051908190038120907f88db4a536f075851673fbcb81050ab51c0a709de0eef6aa0c872a927c0ade24c90600090a25050565b60146020526000908152604090208054611772906142e0565b80601f016020809104026020016040519081016040528092919081815260200182805461179e906142e0565b80156117eb5780601f106117c0576101008083540402835291602001916117eb565b820191906000526020600020905b8154815290600101906020018083116117ce57829003601f168201915b505050505081565b6117fe33838361306f565b5050565b61180a612d8e565b6005600e54101561181a57600080fd5b6000601b838154811061182f5761182f614362565b9060005260206000209060020201604051806040016040529081600082018054611858906142e0565b80601f0160208091040260200160405190810160405280929190818152602001828054611884906142e0565b80156118d15780601f106118a6576101008083540402835291602001916118d1565b820191906000526020600020905b8154815290600101906020018083116118b457829003601f168201915b5050509183525050600191909101546001600160a01b03166020909101529050811561194357602080820180516001600160a01b039081166000908152601384526040808220805460ff1916600117905585519351909216815260148452208151611941939192909101906139d0565b505b8115158160405161195491906140a0565b604051908190038120907f5b5cc648c0cdb118eeb9957a32510510d658bb499f3d22585ddf52d84082956c90600090a3601b80546119949060019061429d565b815481106119a4576119a4614362565b9060005260206000209060020201601b84815481106119c5576119c5614362565b906000526020600020906002020160008201816000019080546119e7906142e0565b6119f2929190613a54565b50600191820154910180546001600160a01b0319166001600160a01b03909216919091179055601b805480611a2957611a2961434c565b60008281526020812060001990920191600283020190611a498282613acf565b5060010180546001600160a01b031916905590556020908101516001600160a01b03166000908152601290915260409020805460ff191690555050565b611a8e612d8e565b601a8054611a9e9060019061429d565b81548110611aae57611aae614362565b9060005260206000209060020201601a8281548110611acf57611acf614362565b90600052602060002090600202016000820181600001908054611af1906142e0565b611afc929190613a54565b50600191820154910180546001600160a01b0319166001600160a01b03909216919091179055601a805480611b3357611b3361434c565b60008281526020812060001990920191600283020190611b538282613acf565b5060010180546001600160a01b0319169055905550565b611bac6040518060c001604052806000815260200160006001600160a01b03168152602001606081526020016060815260200160608152602001606081525090565b6040518060c00160405280600c548152602001611bd1600b546001600160a01b031690565b6001600160a01b0316815260200160108054611bec906142e0565b80601f0160208091040260200160405190810160405280929190818152602001828054611c18906142e0565b8015611c655780601f10611c3a57610100808354040283529160200191611c65565b820191906000526020600020905b815481529060010190602001808311611c4857829003601f168201915b50505050508152602001611c79600061236c565b8152602001601c805480602002602001604051908101604052809291908181526020016000905b82821015611df65783829060005260206000209060020201604051806040016040529081600082018054611cd3906142e0565b80601f0160208091040260200160405190810160405280929190818152602001828054611cff906142e0565b8015611d4c5780601f10611d2157610100808354040283529160200191611d4c565b820191906000526020600020905b815481529060010190602001808311611d2f57829003601f168201915b50505050508152602001600182018054611d65906142e0565b80601f0160208091040260200160405190810160405280929190818152602001828054611d91906142e0565b8015611dde5780601f10611db357610100808354040283529160200191611dde565b820191906000526020600020905b815481529060010190602001808311611dc157829003601f168201915b50505050508152505081526020019060010190611ca0565b50505050815260200160156000808152602001908152602001600020805480602002602001604051908101604052809291908181526020016000905b82821015611f885783829060005260206000209060020201604051806040016040529081600082018054611e65906142e0565b80601f0160208091040260200160405190810160405280929190818152602001828054611e91906142e0565b8015611ede5780601f10611eb357610100808354040283529160200191611ede565b820191906000526020600020905b815481529060010190602001808311611ec157829003601f168201915b50505050508152602001600182018054611ef7906142e0565b80601f0160208091040260200160405190810160405280929190818152602001828054611f23906142e0565b8015611f705780601f10611f4557610100808354040283529160200191611f70565b820191906000526020600020905b815481529060010190602001808311611f5357829003601f168201915b50505050508152505081526020019060010190611e32565b505050915250919050565b611fb760405180606001604052806000815260200160008152602001606081525090565b601760008381526020019081526020016000206040518060600160405290816000820154815260200160018201548152602001600282018054611ff9906142e0565b80601f0160208091040260200160405190810160405280929190818152602001828054612025906142e0565b80156120725780601f1061204757610100808354040283529160200191612072565b820191906000526020600020905b81548152906001019060200180831161205557829003601f168201915b5050505050815250509050919050565b61208c3383612dea565b6120fe5760405162461bcd60e51b815260206004820152602d60248201527f4552433732313a2063616c6c6572206973206e6f7420746f6b656e206f776e6560448201527f72206f7220617070726f766564000000000000000000000000000000000000006064820152608401610a32565b61210a8484848461313e565b50505050565b600d543410156121885760405162461bcd60e51b815260206004820152603160248201527f4d696e74206661696c65643a2056616c7565206f66206d65737361676520697360448201527f206c657373207468616e2070726963652e0000000000000000000000000000006064820152608401610a32565b6064600c54106122005760405162461bcd60e51b815260206004820152602160248201527f4d696e74206661696c65643a20546f6b656e732061726520736f6c64206f757460448201527f2e000000000000000000000000000000000000000000000000000000000000006064820152608401610a32565b3361220a82611349565b6001600160a01b03161461221d57600080fd5b60008181526016602052604090206002810154600190910154106122835760405162461bcd60e51b815260206004820152601860248201527f4d696e7420616c6c6f77616e63652065786365656465642e00000000000000006044820152606401610a32565b61228f83600c546131c7565b61229b600c5483613360565b60408051606081018252438152426020808301918252828401868152600c5460009081526017835294909420835181559151600183015592518051929391926122ea92600285019201906139d0565b5050600c8054915060006122fd8361431b565b9091555050600b546001600160a01b03166108fc346040518115909202916000818181858888f1935050505015801561233a573d6000803e3d6000fd5b5060016016600083815260200190815260200160002060010160008282546123629190614285565b9091555050505050565b6000818152600260205260409020546060906001600160a01b03166123f95760405162461bcd60e51b815260206004820152602f60248201527f4552433732314d657461646174613a2055524920717565727920666f72206e6f60448201527f6e6578697374656e7420746f6b656e00000000000000000000000000000000006064820152608401610a32565b60008281526011602052604081208054612412906142e0565b80601f016020809104026020016040519081016040528092919081815260200182805461243e906142e0565b801561248b5780601f106124605761010080835404028352916020019161248b565b820191906000526020600020905b81548152906001019060200180831161246e57829003601f168201915b5050505050905060006124a960408051602081019091526000815290565b90508051600014156124bc575092915050565b8151156124ee5780826040516020016124d6929190614071565b60405160208183030381529060405292505050919050565b806124f885613409565b6040516020016124d6929190614071565b60108054611772906142e0565b3360009081526019602052604090205460ff16151560011461257a5760405162461bcd60e51b815260206004820152601560248201527f596f7520617265206e6f7420617070726f7665642e00000000000000000000006044820152606401610a32565b600d5434101561258957600080fd5b60008181526016602052604081206002018054600592906125ab908490614285565b925050819055506005600f60008282546125c59190614285565b925050819055506005600e60008282546125df919061429d565b9091555050600b546001600160a01b03166108fc346040518115909202916000818181858888f193505050501580156117fe573d6000803e3d6000fd5b60606000612629336113ae565b116126765760405162461bcd60e51b815260206004820152601b60248201527f596f75206d757374206265206120746f6b656e20686f6c6465722e00000000006044820152606401610a32565b600082815260156020908152604080832080548251818502810185019093528083529193909284015b828210156127f557838290600052602060002090600202016040518060400160405290816000820180546126d2906142e0565b80601f01602080910402602001604051908101604052809291908181526020018280546126fe906142e0565b801561274b5780601f106127205761010080835404028352916020019161274b565b820191906000526020600020905b81548152906001019060200180831161272e57829003601f168201915b50505050508152602001600182018054612764906142e0565b80601f0160208091040260200160405190810160405280929190818152602001828054612790906142e0565b80156127dd5780601f106127b2576101008083540402835291602001916127dd565b820191906000526020600020905b8154815290600101906020018083116127c057829003601f168201915b5050505050815250508152602001906001019061269f565b505050509050919050565b606061280a612d8e565b601a805480602002602001604051908101604052809291908181526020016000905b82821015610c67578382906000526020600020906002020160405180604001604052908160008201805461285f906142e0565b80601f016020809104026020016040519081016040528092919081815260200182805461288b906142e0565b80156128d85780601f106128ad576101008083540402835291602001916128d8565b820191906000526020600020905b8154815290600101906020018083116128bb57829003601f168201915b50505091835250506001918201546001600160a01b031660209182015291835292909201910161282c565b3360009081526013602052604090205460ff166129625760405162461bcd60e51b815260206004820152601d60248201527f436c69656e7420686173206e6f74206265656e20617070726f7665642e0000006044820152606401610a32565b6005600e54101561297257600080fd5b60408051606081018252600c5480825260016020808401828152600585870190815260009485526016909252949092209251835592519282019290925590516002909101556129c333600c546131c7565b6129cf600c5482613360565b60408051606081018252438152426020808301918252828401858152600c546000908152601783529490942083518155915160018301559251805192939192612a1e92600285019201906139d0565b5050600c805491506000612a318361431b565b9091555050600b546001600160a01b03166108fc346040518115909202916000818181858888f19350505050158015612a6e573d6000803e3d6000fd5b506005600e6000828254612a82919061429d565b9091555050336000908152601360209081526040808320805460ff191690556014909152812061124b91613acf565b612ab9612d8e565b600e54600f5410612b325760405162461bcd60e51b815260206004820152602e60248201527f5468697320636f6e74726163742068617320726561636865642069742773206d60448201527f696e7420616c6c6f77616e63652e0000000000000000000000000000000000006064820152608401610a32565b600160196000601a8481548110612b4b57612b4b614362565b6000918252602080832060016002909302018201546001600160a01b0316845283019390935260409091019020805492151560ff1990931692909217909155601a80549091611a9e9161429d565b600181111561210a576001600160a01b03841615612bdf576001600160a01b03841660009081526003602052604081208054839290612bd990849061429d565b90915550505b6001600160a01b0383161561210a576001600160a01b03831660009081526003602052604081208054839290612c16908490614285565b909155505050505050565b60006001600160e01b031982167f80ac58cd000000000000000000000000000000000000000000000000000000001480612c8457506001600160e01b031982167f5b5e139f00000000000000000000000000000000000000000000000000000000145b806108e257507f01ffc9a7000000000000000000000000000000000000000000000000000000006001600160e01b03198316146108e2565b6000818152600260205260409020546001600160a01b031661124b5760405162461bcd60e51b815260206004820152601860248201527f4552433732313a20696e76616c696420746f6b656e20494400000000000000006044820152606401610a32565b600081815260046020526040902080546001600160a01b0319166001600160a01b0384169081179091558190612d5582611349565b6001600160a01b03167f8c5be1e5ebec7d5bd14f71427d1e84f3dd0314c0f7b2291e5b200ac8c7c3b92560405160405180910390a45050565b600b546001600160a01b03163314612de85760405162461bcd60e51b815260206004820181905260248201527f4f776e61626c653a2063616c6c6572206973206e6f7420746865206f776e65726044820152606401610a32565b565b600080612df683611349565b9050806001600160a01b0316846001600160a01b03161480612e3d57506001600160a01b0380821660009081526005602090815260408083209388168352929052205460ff165b80612e615750836001600160a01b0316612e568461097a565b6001600160a01b0316145b949350505050565b826001600160a01b0316612e7c82611349565b6001600160a01b031614612ee05760405162461bcd60e51b815260206004820152602560248201527f4552433732313a207472616e736665722066726f6d20696e636f72726563742060448201526437bbb732b960d91b6064820152608401610a32565b6001600160a01b038216612f5b5760405162461bcd60e51b8152602060048201526024808201527f4552433732313a207472616e7366657220746f20746865207a65726f2061646460448201527f72657373000000000000000000000000000000000000000000000000000000006064820152608401610a32565b612f6883838360016134b3565b826001600160a01b0316612f7b82611349565b6001600160a01b031614612fdf5760405162461bcd60e51b815260206004820152602560248201527f4552433732313a207472616e736665722066726f6d20696e636f72726563742060448201526437bbb732b960d91b6064820152608401610a32565b600081815260046020908152604080832080546001600160a01b03199081169091556001600160a01b0387811680865260038552838620805460001901905590871680865283862080546001019055868652600290945282852080549092168417909155905184937fddf252ad1be2c89b69c2b068fc378daa952ba7f163c4a11628f55a4df523b3ef91a4505050565b816001600160a01b0316836001600160a01b031614156130d15760405162461bcd60e51b815260206004820152601960248201527f4552433732313a20617070726f766520746f2063616c6c6572000000000000006044820152606401610a32565b6001600160a01b03838116600081815260056020908152604080832094871680845294825291829020805460ff191686151590811790915591519182527f17307eab39ab6107e8899845ad3d59bd9653f200f220920489ca2b5937696c31910160405180910390a3505050565b613149848484612e69565b613155848484846135fb565b61210a5760405162461bcd60e51b815260206004820152603260248201527f4552433732313a207472616e7366657220746f206e6f6e20455243373231526560448201527f63656976657220696d706c656d656e74657200000000000000000000000000006064820152608401610a32565b6001600160a01b03821661321d5760405162461bcd60e51b815260206004820181905260248201527f4552433732313a206d696e7420746f20746865207a65726f20616464726573736044820152606401610a32565b6000818152600260205260409020546001600160a01b0316156132825760405162461bcd60e51b815260206004820152601c60248201527f4552433732313a20746f6b656e20616c7265616479206d696e746564000000006044820152606401610a32565b6132906000838360016134b3565b6000818152600260205260409020546001600160a01b0316156132f55760405162461bcd60e51b815260206004820152601c60248201527f4552433732313a20746f6b656e20616c7265616479206d696e746564000000006044820152606401610a32565b6001600160a01b038216600081815260036020908152604080832080546001019055848352600290915280822080546001600160a01b0319168417905551839291907fddf252ad1be2c89b69c2b068fc378daa952ba7f163c4a11628f55a4df523b3ef908290a45050565b6000828152600260205260409020546001600160a01b03166133ea5760405162461bcd60e51b815260206004820152602c60248201527f4552433732314d657461646174613a2055524920736574206f66206e6f6e657860448201527f697374656e7420746f6b656e00000000000000000000000000000000000000006064820152608401610a32565b60008281526011602090815260409091208251610ad3928401906139d0565b606060006134168361375e565b600101905060008167ffffffffffffffff81111561343657613436614378565b6040519080825280601f01601f191660200182016040528015613460576020820181803683370190505b5090508181016020015b600019017f3031323334353637383961626364656600000000000000000000000000000000600a86061a8153600a85049450846134a6576134ab565b61346a565b509392505050565b6134bf84848484612b99565b60018111156135365760405162461bcd60e51b815260206004820152603560248201527f455243373231456e756d657261626c653a20636f6e736563757469766520747260448201527f616e7366657273206e6f7420737570706f7274656400000000000000000000006064820152608401610a32565b816001600160a01b0385166135925761358d81600880546000838152600960205260408120829055600182018355919091527ff3f7a9fe364faab93b216da50a3214154f22a0a2b415b23a84c8169e8b636ee30155565b6135b5565b836001600160a01b0316856001600160a01b0316146135b5576135b58582613840565b6001600160a01b0384166135d1576135cc816138dd565b6135f4565b846001600160a01b0316846001600160a01b0316146135f4576135f4848261398c565b5050505050565b60006001600160a01b0384163b1561375357604051630a85bd0160e11b81526001600160a01b0385169063150b7a029061363f9033908990889088906004016140da565b602060405180830381600087803b15801561365957600080fd5b505af1925050508015613689575060408051601f3d908101601f1916820190925261368691810190613e23565b60015b613739573d8080156136b7576040519150601f19603f3d011682016040523d82523d6000602084013e6136bc565b606091505b5080516137315760405162461bcd60e51b815260206004820152603260248201527f4552433732313a207472616e7366657220746f206e6f6e20455243373231526560448201527f63656976657220696d706c656d656e74657200000000000000000000000000006064820152608401610a32565b805181602001fd5b6001600160e01b031916630a85bd0160e11b149050612e61565b506001949350505050565b6000807a184f03e93ff9f4daa797ed6e38ed64bf6a1f01000000000000000083106137a7577a184f03e93ff9f4daa797ed6e38ed64bf6a1f010000000000000000830492506040015b6d04ee2d6d415b85acef810000000083106137d3576d04ee2d6d415b85acef8100000000830492506020015b662386f26fc1000083106137f157662386f26fc10000830492506010015b6305f5e1008310613809576305f5e100830492506008015b612710831061381d57612710830492506004015b6064831061382f576064830492506002015b600a83106108e25760010192915050565b6000600161384d846113ae565b613857919061429d565b6000838152600760205260409020549091508082146138aa576001600160a01b03841660009081526006602090815260408083208584528252808320548484528184208190558352600790915290208190555b5060009182526007602090815260408084208490556001600160a01b039094168352600681528383209183525290812055565b6008546000906138ef9060019061429d565b6000838152600960205260408120546008805493945090928490811061391757613917614362565b90600052602060002001549050806008838154811061393857613938614362565b60009182526020808320909101929092558281526009909152604080822084905585825281205560088054806139705761397061434c565b6001900381819060005260206000200160009055905550505050565b6000613997836113ae565b6001600160a01b039093166000908152600660209081526040808320868452825280832085905593825260079052919091209190915550565b8280546139dc906142e0565b90600052602060002090601f0160209004810192826139fe5760008555613a44565b82601f10613a1757805160ff1916838001178555613a44565b82800160010185558215613a44579182015b82811115613a44578251825591602001919060010190613a29565b50613a50929150613b05565b5090565b828054613a60906142e0565b90600052602060002090601f016020900481019282613a825760008555613a44565b82601f10613a935780548555613a44565b82800160010185558215613a4457600052602060002091601f016020900482015b82811115613a44578254825591600101919060010190613ab4565b508054613adb906142e0565b6000825580601f10613aeb575050565b601f01602090049060005260206000209081019061124b91905b5b80821115613a505760008155600101613b06565b600067ffffffffffffffff80841115613b3557613b35614378565b604051601f8501601f19908116603f01168101908282118183101715613b5d57613b5d614378565b81604052809350858152868686011115613b7657600080fd5b858560208301376000602087830101525050509392505050565b80356001600160a01b0381168114613ba757600080fd5b919050565b80358015158114613ba757600080fd5b600082601f830112613bcd57600080fd5b613bdc83833560208501613b1a565b9392505050565b600060208284031215613bf557600080fd5b613bdc82613b90565b60008060408385031215613c1157600080fd5b613c1a83613b90565b9150613c2860208401613b90565b90509250929050565b600080600060608486031215613c4657600080fd5b613c4f84613b90565b9250613c5d60208501613b90565b9150604084013590509250925092565b60008060008060808587031215613c8357600080fd5b613c8c85613b90565b9350613c9a60208601613b90565b925060408501359150606085013567ffffffffffffffff811115613cbd57600080fd5b8501601f81018713613cce57600080fd5b613cdd87823560208401613b1a565b91505092959194509250565b60008060408385031215613cfc57600080fd5b613d0583613b90565b9150613c2860208401613bac565b600080600060608486031215613d2857600080fd5b613d3184613b90565b9250602084013567ffffffffffffffff811115613d4d57600080fd5b613d5986828701613bbc565b925050604084013590509250925092565b60008060408385031215613d7d57600080fd5b613d8683613b90565b946020939093013593505050565b60008060008060808587031215613daa57600080fd5b613db385613b90565b935060208501359250604085013567ffffffffffffffff80821115613dd757600080fd5b613de388838901613bbc565b93506060870135915080821115613df957600080fd5b50613cdd87828801613bbc565b600060208284031215613e1857600080fd5b8135613bdc8161438e565b600060208284031215613e3557600080fd5b8151613bdc8161438e565b600060208284031215613e5257600080fd5b813567ffffffffffffffff811115613e6957600080fd5b612e6184828501613bbc565b60008060408385031215613e8857600080fd5b823567ffffffffffffffff80821115613ea057600080fd5b613eac86838701613bbc565b93506020850135915080821115613ec257600080fd5b50613ecf85828601613bbc565b9150509250929050565b600080600060608486031215613eee57600080fd5b833567ffffffffffffffff80821115613f0657600080fd5b613f1287838801613bbc565b94506020860135915080821115613f2857600080fd5b50613d5986828701613bbc565b600060208284031215613f4757600080fd5b5035919050565b60008060408385031215613f6157600080fd5b82359150613c2860208401613bac565b60008060408385031215613f8457600080fd5b82359150602083013567ffffffffffffffff811115613fa257600080fd5b613ecf85828601613bbc565b600081518084526020808501808196508360051b8101915082860160005b8581101561401c578284038952815160408151818752613fee82880182614029565b915050868201519150858103878701526140088183614029565b9a87019a9550505090840190600101613fcc565b5091979650505050505050565b600081518084526140418160208601602086016142b4565b601f01601f19169290920160200192915050565b600082516140678184602087016142b4565b9190910192915050565b600083516140838184602088016142b4565b8351908301906140978183602088016142b4565b01949350505050565b6000825180516140b48185602085016142b4565b6020948501516001600160a01b0316601f91909101601f19169390930192835250500190565b60006001600160a01b0380871683528086166020840152508360408301526080606083015261410c6080830184614029565b9695505050505050565b60006020808301818452808551808352604092508286019150828160051b87010184880160005b8381101561418757888303603f190185528151805187855261416188860182614029565b918901516001600160a01b0316948901949094529487019492509086019060010161413d565b509098975050505050505050565b602081526000613bdc6020830184613fae565b602081526000613bdc6020830184614029565b60208152815160208201526001600160a01b0360208301511660408201526000604083015160c060608401526141f460e0840182614029565b90506060840151601f19808584030160808601526142128383614029565b925060808601519150808584030160a086015261422f8383613fae565b925060a08601519150808584030160c08601525061424d8282613fae565b95945050505050565b60208152815160208201526020820151604082015260006040830151606080840152612e616080840182614029565b6000821982111561429857614298614336565b500190565b6000828210156142af576142af614336565b500390565b60005b838110156142cf5781810151838201526020016142b7565b8381111561210a5750506000910152565b600181811c908216806142f457607f821691505b6020821081141561431557634e487b7160e01b600052602260045260246000fd5b50919050565b600060001982141561432f5761432f614336565b5060010190565b634e487b7160e01b600052601160045260246000fd5b634e487b7160e01b600052603160045260246000fd5b634e487b7160e01b600052603260045260246000fd5b634e487b7160e01b600052604160045260246000fd5b6001600160e01b03198116811461124b57600080fdfea2646970667358221220b47db3b35299730cdb8fdd75c5cdb43d32094659c47cbe46d8f237d0f5b3ad0364736f6c63430008070033a2646970667358221220fdbf47fa6a63f6186d5db904cdb7d74029ab6db623e823fef6d98ca0bf23ae1e64736f6c63430008070033",
  "linkReferences": {},
  "deployedLinkReferences": {}
}