{
  "_format": "hh-sol-artifact-1",
  "contractName": "TamboraFactory",
  "sourceName": "contracts/TamboraFactory.sol",
  "abi": [
    {
      "inputs": [],
      "stateMutability": "nonpayable",
      "type": "constructor"
    },
    {
      "anonymous": false,
      "inputs": [
        {
          "indexed": true,
          "internalType": "contract Tambora",
          "name": "contractAddr",
          "type": "address"
        }
      ],
      "name": "Deployed",
      "type": "event"
    },
    {
      "inputs": [
        {
          "internalType": "string",
          "name": "name",
          "type": "string"
        },
        {
          "internalType": "string",
          "name": "symbol",
          "type": "string"
        },
        {
          "internalType": "uint256",
          "name": "price_",
          "type": "uint256"
        },
        {
          "internalType": "string",
          "name": "contractType_",
          "type": "string"
        },
        {
          "internalType": "address",
          "name": "to_",
          "type": "address"
        },
        {
          "internalType": "string",
          "name": "uri_",
          "type": "string"
        }
      ],
      "name": "deployTambora",
      "outputs": [],
      "stateMutability": "payable",
      "type": "function"
    },
    {
      "inputs": [
        {
          "internalType": "string",
          "name": "name_",
          "type": "string"
        }
      ],
      "name": "getContractAddress",
      "outputs": [
        {
          "internalType": "contract Tambora",
          "name": "",
          "type": "address"
        }
      ],
      "stateMutability": "view",
      "type": "function"
    },
    {
      "inputs": [],
      "name": "getDeployedContracts",
      "outputs": [
        {
          "internalType": "contract Tambora[]",
          "name": "",
          "type": "address[]"
        }
      ],
      "stateMutability": "view",
      "type": "function"
    },
    {
      "inputs": [],
      "name": "getNames",
      "outputs": [
        {
          "internalType": "string[]",
          "name": "",
          "type": "string[]"
        }
      ],
      "stateMutability": "view",
      "type": "function"
    },
    {
      "inputs": [
        {
          "internalType": "address",
          "name": "contractOwner",
          "type": "address"
        }
      ],
      "name": "getOwnedContracts",
      "outputs": [
        {
          "internalType": "contract Tambora[]",
          "name": "",
          "type": "address[]"
        }
      ],
      "stateMutability": "view",
      "type": "function"
    },
    {
      "inputs": [
        {
          "internalType": "uint256",
          "name": "",
          "type": "uint256"
        }
      ],
      "name": "names",
      "outputs": [
        {
          "internalType": "string",
          "name": "",
          "type": "string"
        }
      ],
      "stateMutability": "view",
      "type": "function"
    }
  ],
  "bytecode": "0x608060405234801561001057600080fd5b50600080546001600160a01b03191633178155614bb290819061003390396000f3fe6080604052600436106200006d5760003560e01c8063aa9a068f1162000048578063aa9a068f1462000101578063cd838f0f1462000128578063e5d2f8e3146200014f57600080fd5b806304433bbc14620000725780634622ab0314620000b45780634f8bd19814620000e8575b600080fd5b3480156200007f57600080fd5b5062000097620000913660046200081a565b62000174565b6040516001600160a01b0390911681526020015b60405180910390f35b348015620000c157600080fd5b50620000d9620000d336600462000930565b620001a7565b604051620000ab919062000ada565b620000ff620000f93660046200085b565b6200025c565b005b3480156200010e57600080fd5b5062000119620004d0565b604051620000ab919062000a25565b3480156200013557600080fd5b506200014062000534565b604051620000ab919062000a74565b3480156200015c57600080fd5b50620001196200016e366004620007f5565b62000617565b600060048260405162000188919062000978565b908152604051908190036020019020546001600160a01b031692915050565b60028181548110620001b857600080fd5b906000526020600020016000915090508054620001d59062000b22565b80601f0160208091040260200160405190810160405280929190818152602001828054620002039062000b22565b8015620002545780601f10620002285761010080835404028352916020019162000254565b820191906000526020600020905b8154815290600101906020018083116200023657829003601f168201915b505050505081565b6000620002698762000174565b6001600160a01b031614620002de576040517f08c379a000000000000000000000000000000000000000000000000000000000815260206004820152601360248201527f4e616d6520616c72656164792065786973747300000000000000000000000000604482015260640160405180910390fd5b60003387878787878760008054906101000a90046001600160a01b031660405162000309906200068f565b6200031c98979695949392919062000996565b604051809103906000f08015801562000339573d6000803e3d6000fd5b506001805480820182557fb10e2d527612073b26eecdfd717e6a320cf44b4afac2b0732d9fcbe2b7fa0cf601805473ffffffffffffffffffffffffffffffffffffffff19166001600160a01b0384161790556002805491820181556000528851919250620003d1917f405787fa12a823e0f2b7631cc41b3ba8828b3321ca811111fa75cd3aa3bb5ace9091019060208a01906200069d565b5080600488604051620003e5919062000978565b90815260405190819003602001812080546001600160a01b0393841673ffffffffffffffffffffffffffffffffffffffff19909116179055908216907ff40fcec21964ffb566044d083b4073f29f7f7929110ea19e1b3ebe375d89055e90600090a2336000908152600360209081526040808320805460018101825590845291832090910180546001600160a01b0385811673ffffffffffffffffffffffffffffffffffffffff1990921691909117909155825491519116913480156108fc02929091818181858888f19350505050158015620004c6573d6000803e3d6000fd5b5050505050505050565b606060018054806020026020016040519081016040528092919081815260200182805480156200052a57602002820191906000526020600020905b81546001600160a01b031681526001909101906020018083116200050b575b5050505050905090565b60606002805480602002602001604051908101604052809291908181526020016000905b828210156200060e5783829060005260206000200180546200057a9062000b22565b80601f0160208091040260200160405190810160405280929190818152602001828054620005a89062000b22565b8015620005f95780601f10620005cd57610100808354040283529160200191620005f9565b820191906000526020600020905b815481529060010190602001808311620005db57829003601f168201915b50505050508152602001906001019062000558565b50505050905090565b6001600160a01b0381166000908152600360209081526040918290208054835181840281018401909452808452606093928301828280156200068357602002820191906000526020600020905b81546001600160a01b0316815260019091019060200180831162000664575b50505050509050919050565b6140078062000b7683390190565b828054620006ab9062000b22565b90600052602060002090601f016020900481019282620006cf57600085556200071a565b82601f10620006ea57805160ff19168380011785556200071a565b828001600101855582156200071a579182015b828111156200071a578251825591602001919060010190620006fd565b50620007289291506200072c565b5090565b5b808211156200072857600081556001016200072d565b80356001600160a01b03811681146200075b57600080fd5b919050565b600082601f8301126200077257600080fd5b813567ffffffffffffffff8082111562000790576200079062000b5f565b604051601f8301601f19908116603f01168101908282118183101715620007bb57620007bb62000b5f565b81604052838152866020858801011115620007d557600080fd5b836020870160208301376000602085830101528094505050505092915050565b6000602082840312156200080857600080fd5b620008138262000743565b9392505050565b6000602082840312156200082d57600080fd5b813567ffffffffffffffff8111156200084557600080fd5b620008538482850162000760565b949350505050565b60008060008060008060c087890312156200087557600080fd5b863567ffffffffffffffff808211156200088e57600080fd5b6200089c8a838b0162000760565b97506020890135915080821115620008b357600080fd5b620008c18a838b0162000760565b9650604089013595506060890135915080821115620008df57600080fd5b620008ed8a838b0162000760565b9450620008fd60808a0162000743565b935060a08901359150808211156200091457600080fd5b506200092389828a0162000760565b9150509295509295509295565b6000602082840312156200094357600080fd5b5035919050565b600081518084526200096481602086016020860162000aef565b601f01601f19169290920160200192915050565b600082516200098c81846020870162000aef565b9190910192915050565b60006101006001600160a01b03808c168452816020850152620009bc8285018c6200094a565b91508382036040850152620009d2828b6200094a565b91508860608501528382036080850152620009ee82896200094a565b915080871660a085015283820360c085015262000a0c82876200094a565b925080851660e085015250509998505050505050505050565b6020808252825182820181905260009190848201906040850190845b8181101562000a685783516001600160a01b03168352928401929184019160010162000a41565b50909695505050505050565b6000602080830181845280855180835260408601915060408160051b870101925083870160005b8281101562000acd57603f1988860301845262000aba8583516200094a565b9450928501929085019060010162000a9b565b5092979650505050505050565b6020815260006200081360208301846200094a565b60005b8381101562000b0c57818101518382015260200162000af2565b8381111562000b1c576000848401525b50505050565b600181811c9082168062000b3757607f821691505b6020821081141562000b5957634e487b7160e01b600052602260045260246000fd5b50919050565b634e487b7160e01b600052604160045260246000fdfe60806040523480156200001157600080fd5b5060405162004007380380620040078339810160408190526200003491620008b1565b8651879087906200004d90600090602085019062000737565b5080516200006390600190602084019062000737565b5050600b80546001600160a01b03808c166001600160a01b031992831617909255600a80549285169290911691909117905550600d8590558351620000b090601090602087019062000737565b50600a600f81905560408051606081018252600080825260016020808401918252938301948552818052601690935290517f0263c2b778d062355049effc2dece97bc6547ff8a88a3258daa512061c2153dd5590517f0263c2b778d062355049effc2dece97bc6547ff8a88a3258daa512061c2153de5590517f0263c2b778d062355049effc2dece97bc6547ff8a88a3258daa512061c2153df556200015890849062000220565b620001656000836200037a565b6001600c5560408051606081018252438152426020808301918252928201858152600080526017845282517fd840e16649f6b9a295d95876f4633d3a6b10b55e8162971cf78afd886d5ec89b90815591517fd840e16649f6b9a295d95876f4633d3a6b10b55e8162971cf78afd886d5ec89c55518051929391926200020e927fd840e16649f6b9a295d95876f4633d3a6b10b55e8162971cf78afd886d5ec89d92019062000737565b50905050505050505050505062000a77565b6001600160a01b0382166200027c5760405162461bcd60e51b815260206004820181905260248201527f4552433732313a206d696e7420746f20746865207a65726f206164647265737360448201526064015b60405180910390fd5b6000818152600260205260409020546001600160a01b031615620002e35760405162461bcd60e51b815260206004820152601c60248201527f4552433732313a20746f6b656e20616c7265616479206d696e74656400000000604482015260640162000273565b620002f1600083836200041b565b6001600160a01b03821660009081526003602052604081208054600192906200031c908490620009ad565b909155505060008181526002602052604080822080546001600160a01b0319166001600160a01b03861690811790915590518392907fddf252ad1be2c89b69c2b068fc378daa952ba7f163c4a11628f55a4df523b3ef908290a45050565b6000828152600260205260409020546001600160a01b0316620003f55760405162461bcd60e51b815260206004820152602c60248201527f4552433732314d657461646174613a2055524920736574206f66206e6f6e657860448201526b34b9ba32b73a103a37b5b2b760a11b606482015260840162000273565b60008281526011602090815260409091208251620004169284019062000737565b505050565b620004338383836200041660201b6200092c1760201c565b6001600160a01b03831662000491576200048b81600880546000838152600960205260408120829055600182018355919091527ff3f7a9fe364faab93b216da50a3214154f22a0a2b415b23a84c8169e8b636ee30155565b620004b7565b816001600160a01b0316836001600160a01b031614620004b757620004b78382620004f7565b6001600160a01b038216620004d1576200041681620005a4565b826001600160a01b0316826001600160a01b03161462000416576200041682826200065e565b600060016200051184620006af60201b620010781760201c565b6200051d9190620009c8565b60008381526007602052604090205490915080821462000571576001600160a01b03841660009081526006602090815260408083208584528252808320548484528184208190558352600790915290208190555b5060009182526007602090815260408084208490556001600160a01b039094168352600681528383209183525290812055565b600854600090620005b890600190620009c8565b60008381526009602052604081205460088054939450909284908110620005e357620005e362000a4b565b90600052602060002001549050806008838154811062000607576200060762000a4b565b600091825260208083209091019290925582815260099091526040808220849055858252812055600880548062000642576200064262000a35565b6001900381819060005260206000200160009055905550505050565b60006200067683620006af60201b620010781760201c565b6001600160a01b039093166000908152600660209081526040808320868452825280832085905593825260079052919091209190915550565b60006001600160a01b0382166200071b5760405162461bcd60e51b815260206004820152602960248201527f4552433732313a2061646472657373207a65726f206973206e6f7420612076616044820152683634b21037bbb732b960b91b606482015260840162000273565b506001600160a01b031660009081526003602052604090205490565b8280546200074590620009e2565b90600052602060002090601f016020900481019282620007695760008555620007b4565b82601f106200078457805160ff1916838001178555620007b4565b82800160010185558215620007b4579182015b82811115620007b457825182559160200191906001019062000797565b50620007c2929150620007c6565b5090565b5b80821115620007c25760008155600101620007c7565b80516001600160a01b0381168114620007f557600080fd5b919050565b600082601f8301126200080c57600080fd5b81516001600160401b038082111562000829576200082962000a61565b604051601f8301601f19908116603f0116810190828211818310171562000854576200085462000a61565b816040528381526020925086838588010111156200087157600080fd5b600091505b8382101562000895578582018301518183018401529082019062000876565b83821115620008a75760008385830101525b9695505050505050565b600080600080600080600080610100898b031215620008cf57600080fd5b620008da89620007dd565b60208a01519098506001600160401b0380821115620008f857600080fd5b620009068c838d01620007fa565b985060408b01519150808211156200091d57600080fd5b6200092b8c838d01620007fa565b975060608b0151965060808b01519150808211156200094957600080fd5b620009578c838d01620007fa565b95506200096760a08c01620007dd565b945060c08b01519150808211156200097e57600080fd5b506200098d8b828c01620007fa565b9250506200099e60e08a01620007dd565b90509295985092959890939650565b60008219821115620009c357620009c362000a1f565b500190565b600082821015620009dd57620009dd62000a1f565b500390565b600181811c90821680620009f757607f821691505b6020821081141562000a1957634e487b7160e01b600052602260045260246000fd5b50919050565b634e487b7160e01b600052601160045260246000fd5b634e487b7160e01b600052603160045260246000fd5b634e487b7160e01b600052603260045260246000fd5b634e487b7160e01b600052604160045260246000fd5b6135808062000a876000396000f3fe6080604052600436106102345760003560e01c806370a0823111610138578063aeb20b94116100b0578063c87b56dd1161007f578063e985e9c511610064578063e985e9c51461068e578063eb58f0ec146106d7578063f9dc375f146106ea57600080fd5b8063c87b56dd14610659578063cb2ef6f71461067957600080fd5b8063aeb20b94146105ad578063af80a5be14610604578063b88d4fde14610626578063ba7aef431461064657600080fd5b806397a3334211610107578063a035b1fe116100ec578063a035b1fe14610557578063a22cb4651461056d578063a28039cd1461058d57600080fd5b806397a3334214610507578063a00745b61461052757600080fd5b806370a08231146104945780638da5cb5b146104b457806395d89b41146104d257806396761595146104e757600080fd5b80632f745c59116101cb5780635a9be11b1161019a578063634282af1161017f578063634282af146104155780636352211e14610444578063673448dd1461046457600080fd5b80635a9be11b146103eb5780635bf61cfe146103f357600080fd5b80632f745c591461036b5780634261917a1461038b57806342842e0e146103ab5780634f6ccce7146103cb57600080fd5b80630e37b4fd116102075780630e37b4fd146102ea57806318160ddd1461030c5780631fceaae01461032b57806323b872dd1461034b57600080fd5b806301ffc9a71461023957806306fdde031461026e578063081812fc14610290578063095ea7b3146102c8575b600080fd5b34801561024557600080fd5b50610259610254366004612fd7565b6106fd565b60405190151581526020015b60405180910390f35b34801561027a57600080fd5b50610283610741565b6040516102659190613320565b34801561029c57600080fd5b506102b06102ab366004613106565b6107d3565b6040516001600160a01b039091168152602001610265565b3480156102d457600080fd5b506102e86102e3366004612fad565b6107fa565b005b3480156102f657600080fd5b506102ff610931565b604051610265919061330d565b34801561031857600080fd5b506008545b604051908152602001610265565b34801561033757600080fd5b506102e86103463660046130aa565b610ac9565b34801561035757600080fd5b506102e8610366366004612e74565b610b3f565b34801561037757600080fd5b5061031d610386366004612fad565b610bc6565b34801561039757600080fd5b506102e86103a6366004613046565b610c6e565b3480156103b757600080fd5b506102e86103c6366004612e74565b610cd7565b3480156103d757600080fd5b5061031d6103e6366004613106565b610cf2565b6102e8610d96565b3480156103ff57600080fd5b50610408610e6d565b604051610265919061328e565b34801561042157600080fd5b50610435610430366004613106565b610f68565b604051610265939291906133ce565b34801561045057600080fd5b506102b061045f366004613106565b611013565b34801561047057600080fd5b5061025961047f366004612e26565b60136020526000908152604090205460ff1681565b3480156104a057600080fd5b5061031d6104af366004612e26565b611078565b3480156104c057600080fd5b50600b546001600160a01b03166102b0565b3480156104de57600080fd5b50610283611112565b3480156104f357600080fd5b506102e8610502366004613011565b611121565b34801561051357600080fd5b50610283610522366004612e26565b61122b565b34801561053357600080fd5b50610259610542366004612e26565b60126020526000908152604090205460ff1681565b34801561056357600080fd5b5061031d600d5481565b34801561057957600080fd5b506102e8610588366004612f2c565b6112c5565b34801561059957600080fd5b506102e86105a836600461311f565b6112d4565b3480156105b957600080fd5b506105e96105c8366004613106565b60166020526000908152604090208054600182015460029092015490919083565b60408051938452602084019290925290820152606001610265565b34801561061057600080fd5b50610619611562565b6040516102659190613333565b34801561063257600080fd5b506102e8610641366004612eb0565b61198b565b6102e8610654366004612f56565b611a19565b34801561066557600080fd5b50610283610674366004613106565b611bfd565b34801561068557600080fd5b50610283611d9a565b34801561069a57600080fd5b506102596106a9366004612e41565b6001600160a01b03918216600090815260056020908152604080832093909416825291909152205460ff1690565b6102e86106e5366004613106565b611da7565b6102e86106f8366004613011565b611e6c565b60006001600160e01b031982167f780e9d6300000000000000000000000000000000000000000000000000000000148061073b575061073b82611fa0565b92915050565b6060600080546107509061345c565b80601f016020809104026020016040519081016040528092919081815260200182805461077c9061345c565b80156107c95780601f1061079e576101008083540402835291602001916107c9565b820191906000526020600020905b8154815290600101906020018083116107ac57829003601f168201915b5050505050905090565b60006107de8261203b565b506000908152600460205260409020546001600160a01b031690565b600061080582611013565b9050806001600160a01b0316836001600160a01b031614156108945760405162461bcd60e51b815260206004820152602160248201527f4552433732313a20617070726f76616c20746f2063757272656e74206f776e6560448201527f720000000000000000000000000000000000000000000000000000000000000060648201526084015b60405180910390fd5b336001600160a01b03821614806108b057506108b081336106a9565b6109225760405162461bcd60e51b815260206004820152603e60248201527f4552433732313a20617070726f76652063616c6c6572206973206e6f7420746f60448201527f6b656e206f776e6572206e6f7220617070726f76656420666f7220616c6c0000606482015260840161088b565b61092c838361209f565b505050565b6060600061093e33611078565b1161094857600080fd5b6019805480602002602001604051908101604052809291908181526020016000905b82821015610ac0578382906000526020600020906002020160405180604001604052908160008201805461099d9061345c565b80601f01602080910402602001604051908101604052809291908181526020018280546109c99061345c565b8015610a165780601f106109eb57610100808354040283529160200191610a16565b820191906000526020600020905b8154815290600101906020018083116109f957829003601f168201915b50505050508152602001600182018054610a2f9061345c565b80601f0160208091040260200160405190810160405280929190818152602001828054610a5b9061345c565b8015610aa85780601f10610a7d57610100808354040283529160200191610aa8565b820191906000526020600020905b815481529060010190602001808311610a8b57829003601f168201915b5050505050815250508152602001906001019061096a565b50505050905090565b610ad161211a565b6000818152601560209081526040808320815180830190925285825281830187905280546001810182559084529282902081518051929460020290910192610b1e92849290910190612c13565b506020828101518051610b379260018501920190612c13565b505050505050565b610b493382612176565b610bbb5760405162461bcd60e51b815260206004820152602e60248201527f4552433732313a2063616c6c6572206973206e6f7420746f6b656e206f776e6560448201527f72206e6f7220617070726f766564000000000000000000000000000000000000606482015260840161088b565b61092c8383836121f5565b6000610bd183611078565b8210610c455760405162461bcd60e51b815260206004820152602b60248201527f455243373231456e756d657261626c653a206f776e657220696e646578206f7560448201527f74206f6620626f756e6473000000000000000000000000000000000000000000606482015260840161088b565b506001600160a01b03919091166000908152600660209081526040808320938352929052205490565b610c7661211a565b6040805180820190915282815260208082018390526019805460018101825560009190915282518051849360029093027f944998273e477b495144fb8794c914197f3ccb46be2900f4698fd0ef743c96950192610b1e928492910190612c13565b61092c8383836040518060200160405280600081525061198b565b6000610cfd60085490565b8210610d715760405162461bcd60e51b815260206004820152602c60248201527f455243373231456e756d657261626c653a20676c6f62616c20696e646578206f60448201527f7574206f6620626f756e64730000000000000000000000000000000000000000606482015260840161088b565b60088281548110610d8457610d84613508565b90600052602060002001549050919050565b610d9e61211a565b668e1bc9bf040000341015610e1a5760405162461bcd60e51b8152602060048201526024808201527f54686973207472616e73616374696f6e20726571756972657320302e3034206560448201527f7468657200000000000000000000000000000000000000000000000000000000606482015260840161088b565b6064600e6000828254610e2d91906133ed565b9091555050600a546001600160a01b03166108fc346040518115909202916000818181858888f19350505050158015610e6a573d6000803e3d6000fd5b50565b60606018805480602002602001604051908101604052809291908181526020016000905b82821015610ac05783829060005260206000209060020201604051806040016040529081600082018054610ec49061345c565b80601f0160208091040260200160405190810160405280929190818152602001828054610ef09061345c565b8015610f3d5780601f10610f1257610100808354040283529160200191610f3d565b820191906000526020600020905b815481529060010190602001808311610f2057829003601f168201915b50505091835250506001918201546001600160a01b0316602091820152918352929092019101610e91565b60176020526000908152604090208054600182015460028301805492939192610f909061345c565b80601f0160208091040260200160405190810160405280929190818152602001828054610fbc9061345c565b80156110095780601f10610fde57610100808354040283529160200191611009565b820191906000526020600020905b815481529060010190602001808311610fec57829003601f168201915b5050505050905083565b6000818152600260205260408120546001600160a01b03168061073b5760405162461bcd60e51b815260206004820152601860248201527f4552433732313a20696e76616c696420746f6b656e2049440000000000000000604482015260640161088b565b60006001600160a01b0382166110f65760405162461bcd60e51b815260206004820152602960248201527f4552433732313a2061646472657373207a65726f206973206e6f74206120766160448201527f6c6964206f776e65720000000000000000000000000000000000000000000000606482015260840161088b565b506001600160a01b031660009081526003602052604090205490565b6060600180546107509061345c565b6000604051806040016040528083815260200161113b3390565b6001600160a01b031690526018805460018101825560009190915281518051929350839260029092027fb13d2d76d1f4b7be834882e410b3e3a8afaf69f83600ae24db354391d2378d2e019161119991839160209190910190612c13565b506020918201516001918201805473ffffffffffffffffffffffffffffffffffffffff19166001600160a01b039092169190911790553360009081526012909252604091829020805460ff19169091179055516111f7908290613218565b604051908190038120907f88db4a536f075851673fbcb81050ab51c0a709de0eef6aa0c872a927c0ade24c90600090a25050565b601460205260009081526040902080546112449061345c565b80601f01602080910402602001604051908101604052809291908181526020018280546112709061345c565b80156112bd5780601f10611292576101008083540402835291602001916112bd565b820191906000526020600020905b8154815290600101906020018083116112a057829003601f168201915b505050505081565b6112d03383836123da565b5050565b6112dc61211a565b6000601883815481106112f1576112f1613508565b906000526020600020906002020160405180604001604052908160008201805461131a9061345c565b80601f01602080910402602001604051908101604052809291908181526020018280546113469061345c565b80156113935780601f1061136857610100808354040283529160200191611393565b820191906000526020600020905b81548152906001019060200180831161137657829003601f168201915b5050509183525050600191909101546001600160a01b03166020909101529050811561140557602080820180516001600160a01b039081166000908152601384526040808220805460ff191660011790558551935190921681526014845220815161140393919290910190612c13565b505b811515816040516114169190613218565b604051908190038120907f5b5cc648c0cdb118eeb9957a32510510d658bb499f3d22585ddf52d84082956c90600090a36018805461145690600190613419565b8154811061146657611466613508565b90600052602060002090600202016018848154811061148757611487613508565b906000526020600020906002020160008201816000019080546114a99061345c565b6114b4929190612c97565b506001918201549101805473ffffffffffffffffffffffffffffffffffffffff19166001600160a01b0390921691909117905560188054806114f8576114f86134f2565b600082815260208120600019909201916002830201906115188282612d12565b50600101805473ffffffffffffffffffffffffffffffffffffffff1916905590556020908101516001600160a01b03166000908152601290915260409020805460ff191690555050565b6115a46040518060c001604052806000815260200160006001600160a01b03168152602001606081526020016060815260200160608152602001606081525090565b6040518060c00160405280600c5481526020016115c9600b546001600160a01b031690565b6001600160a01b03168152602001601080546115e49061345c565b80601f01602080910402602001604051908101604052809291908181526020018280546116109061345c565b801561165d5780601f106116325761010080835404028352916020019161165d565b820191906000526020600020905b81548152906001019060200180831161164057829003601f168201915b505050505081526020016116716000611bfd565b81526020016019805480602002602001604051908101604052809291908181526020016000905b828210156117ee57838290600052602060002090600202016040518060400160405290816000820180546116cb9061345c565b80601f01602080910402602001604051908101604052809291908181526020018280546116f79061345c565b80156117445780601f1061171957610100808354040283529160200191611744565b820191906000526020600020905b81548152906001019060200180831161172757829003601f168201915b5050505050815260200160018201805461175d9061345c565b80601f01602080910402602001604051908101604052809291908181526020018280546117899061345c565b80156117d65780601f106117ab576101008083540402835291602001916117d6565b820191906000526020600020905b8154815290600101906020018083116117b957829003601f168201915b50505050508152505081526020019060010190611698565b50505050815260200160156000808152602001908152602001600020805480602002602001604051908101604052809291908181526020016000905b82821015611980578382906000526020600020906002020160405180604001604052908160008201805461185d9061345c565b80601f01602080910402602001604051908101604052809291908181526020018280546118899061345c565b80156118d65780601f106118ab576101008083540402835291602001916118d6565b820191906000526020600020905b8154815290600101906020018083116118b957829003601f168201915b505050505081526020016001820180546118ef9061345c565b80601f016020809104026020016040519081016040528092919081815260200182805461191b9061345c565b80156119685780601f1061193d57610100808354040283529160200191611968565b820191906000526020600020905b81548152906001019060200180831161194b57829003601f168201915b5050505050815250508152602001906001019061182a565b505050915250919050565b6119953383612176565b611a075760405162461bcd60e51b815260206004820152602e60248201527f4552433732313a2063616c6c6572206973206e6f7420746f6b656e206f776e6560448201527f72206e6f7220617070726f766564000000000000000000000000000000000000606482015260840161088b565b611a13848484846124a9565b50505050565b6064600c5410611a915760405162461bcd60e51b815260206004820152602160248201527f4d696e74206661696c65643a20546f6b656e732061726520736f6c64206f757460448201527f2e00000000000000000000000000000000000000000000000000000000000000606482015260840161088b565b33611a9b82611013565b6001600160a01b031614611aae57600080fd5b6000818152601660205260409020600281015460019091015410611b145760405162461bcd60e51b815260206004820152601860248201527f4d696e7420616c6c6f77616e63652065786365656465642e0000000000000000604482015260640161088b565b611b2083600c54612532565b611b2c600c548361268d565b60408051606081018252438152426020808301918252828401868152600c546000908152601783529490942083518155915160018301559251805192939192611b7b9260028501920190612c13565b5050600c805491506000611b8e83613497565b9091555050600b546001600160a01b03166108fc346040518115909202916000818181858888f19350505050158015611bcb573d6000803e3d6000fd5b506001601660008381526020019081526020016000206001016000828254611bf391906133ed565b9091555050505050565b6000818152600260205260409020546060906001600160a01b0316611c8a5760405162461bcd60e51b815260206004820152602f60248201527f4552433732314d657461646174613a2055524920717565727920666f72206e6f60448201527f6e6578697374656e7420746f6b656e0000000000000000000000000000000000606482015260840161088b565b60008281526011602052604081208054611ca39061345c565b80601f0160208091040260200160405190810160405280929190818152602001828054611ccf9061345c565b8015611d1c5780601f10611cf157610100808354040283529160200191611d1c565b820191906000526020600020905b815481529060010190602001808311611cff57829003601f168201915b505050505090506000611d3a60408051602081019091526000815290565b9050805160001415611d4d575092915050565b815115611d7f578082604051602001611d679291906131e9565b60405160208183030381529060405292505050919050565b80611d8985612736565b604051602001611d679291906131e9565b601080546112449061345c565b611daf61211a565b600e54600f5410611e285760405162461bcd60e51b815260206004820152602e60248201527f5468697320636f6e74726163742068617320726561636865642069742773206d60448201527f696e7420616c6c6f77616e63652e000000000000000000000000000000000000606482015260840161088b565b6000818152601660205260408120600201805460059290611e4a9084906133ed565b925050819055506005600f6000828254611e6491906133ed565b909155505050565b3360009081526013602052604090205460ff16611ecb5760405162461bcd60e51b815260206004820152601d60248201527f436c69656e7420686173206e6f74206265656e20617070726f7665642e000000604482015260640161088b565b60408051606081018252600c548082526001602080840182815260058587019081526000948552601690925294909220925183559251928201929092559051600290910155611f1c33600c54612532565b611f28600c548261268d565b600c8054906000611f3883613497565b9091555050600b546001600160a01b03166108fc346040518115909202916000818181858888f19350505050158015611f75573d6000803e3d6000fd5b50336000908152601360209081526040808320805460ff1916905560149091528120610e6a91612d12565b60006001600160e01b031982167f80ac58cd00000000000000000000000000000000000000000000000000000000148061200357506001600160e01b031982167f5b5e139f00000000000000000000000000000000000000000000000000000000145b8061073b57507f01ffc9a7000000000000000000000000000000000000000000000000000000006001600160e01b031983161461073b565b6000818152600260205260409020546001600160a01b0316610e6a5760405162461bcd60e51b815260206004820152601860248201527f4552433732313a20696e76616c696420746f6b656e2049440000000000000000604482015260640161088b565b6000818152600460205260409020805473ffffffffffffffffffffffffffffffffffffffff19166001600160a01b03841690811790915581906120e182611013565b6001600160a01b03167f8c5be1e5ebec7d5bd14f71427d1e84f3dd0314c0f7b2291e5b200ac8c7c3b92560405160405180910390a45050565b600b546001600160a01b031633146121745760405162461bcd60e51b815260206004820181905260248201527f4f776e61626c653a2063616c6c6572206973206e6f7420746865206f776e6572604482015260640161088b565b565b60008061218283611013565b9050806001600160a01b0316846001600160a01b031614806121c957506001600160a01b0380821660009081526005602090815260408083209388168352929052205460ff165b806121ed5750836001600160a01b03166121e2846107d3565b6001600160a01b0316145b949350505050565b826001600160a01b031661220882611013565b6001600160a01b0316146122845760405162461bcd60e51b815260206004820152602560248201527f4552433732313a207472616e736665722066726f6d20696e636f72726563742060448201527f6f776e6572000000000000000000000000000000000000000000000000000000606482015260840161088b565b6001600160a01b0382166122ff5760405162461bcd60e51b8152602060048201526024808201527f4552433732313a207472616e7366657220746f20746865207a65726f2061646460448201527f7265737300000000000000000000000000000000000000000000000000000000606482015260840161088b565b61230a838383612868565b61231560008261209f565b6001600160a01b038316600090815260036020526040812080546001929061233e908490613419565b90915550506001600160a01b038216600090815260036020526040812080546001929061236c9084906133ed565b9091555050600081815260026020526040808220805473ffffffffffffffffffffffffffffffffffffffff19166001600160a01b0386811691821790925591518493918716917fddf252ad1be2c89b69c2b068fc378daa952ba7f163c4a11628f55a4df523b3ef91a4505050565b816001600160a01b0316836001600160a01b0316141561243c5760405162461bcd60e51b815260206004820152601960248201527f4552433732313a20617070726f766520746f2063616c6c657200000000000000604482015260640161088b565b6001600160a01b03838116600081815260056020908152604080832094871680845294825291829020805460ff191686151590811790915591519182527f17307eab39ab6107e8899845ad3d59bd9653f200f220920489ca2b5937696c31910160405180910390a3505050565b6124b48484846121f5565b6124c084848484612920565b611a135760405162461bcd60e51b815260206004820152603260248201527f4552433732313a207472616e7366657220746f206e6f6e20455243373231526560448201527f63656976657220696d706c656d656e7465720000000000000000000000000000606482015260840161088b565b6001600160a01b0382166125885760405162461bcd60e51b815260206004820181905260248201527f4552433732313a206d696e7420746f20746865207a65726f2061646472657373604482015260640161088b565b6000818152600260205260409020546001600160a01b0316156125ed5760405162461bcd60e51b815260206004820152601c60248201527f4552433732313a20746f6b656e20616c7265616479206d696e74656400000000604482015260640161088b565b6125f960008383612868565b6001600160a01b03821660009081526003602052604081208054600192906126229084906133ed565b9091555050600081815260026020526040808220805473ffffffffffffffffffffffffffffffffffffffff19166001600160a01b03861690811790915590518392907fddf252ad1be2c89b69c2b068fc378daa952ba7f163c4a11628f55a4df523b3ef908290a45050565b6000828152600260205260409020546001600160a01b03166127175760405162461bcd60e51b815260206004820152602c60248201527f4552433732314d657461646174613a2055524920736574206f66206e6f6e657860448201527f697374656e7420746f6b656e0000000000000000000000000000000000000000606482015260840161088b565b6000828152601160209081526040909120825161092c92840190612c13565b60608161277657505060408051808201909152600181527f3000000000000000000000000000000000000000000000000000000000000000602082015290565b8160005b81156127a0578061278a81613497565b91506127999050600a83613405565b915061277a565b60008167ffffffffffffffff8111156127bb576127bb61351e565b6040519080825280601f01601f1916602001820160405280156127e5576020820181803683370190505b5090505b84156121ed576127fa600183613419565b9150612807600a866134b2565b6128129060306133ed565b60f81b81838151811061282757612827613508565b60200101907effffffffffffffffffffffffffffffffffffffffffffffffffffffffffffff1916908160001a905350612861600a86613405565b94506127e9565b6001600160a01b0383166128c3576128be81600880546000838152600960205260408120829055600182018355919091527ff3f7a9fe364faab93b216da50a3214154f22a0a2b415b23a84c8169e8b636ee30155565b6128e6565b816001600160a01b0316836001600160a01b0316146128e6576128e68382612a83565b6001600160a01b0382166128fd5761092c81612b20565b826001600160a01b0316826001600160a01b03161461092c5761092c8282612bcf565b60006001600160a01b0384163b15612a7857604051630a85bd0160e11b81526001600160a01b0385169063150b7a0290612964903390899088908890600401613252565b602060405180830381600087803b15801561297e57600080fd5b505af19250505080156129ae575060408051601f3d908101601f191682019092526129ab91810190612ff4565b60015b612a5e573d8080156129dc576040519150601f19603f3d011682016040523d82523d6000602084013e6129e1565b606091505b508051612a565760405162461bcd60e51b815260206004820152603260248201527f4552433732313a207472616e7366657220746f206e6f6e20455243373231526560448201527f63656976657220696d706c656d656e7465720000000000000000000000000000606482015260840161088b565b805181602001fd5b6001600160e01b031916630a85bd0160e11b1490506121ed565b506001949350505050565b60006001612a9084611078565b612a9a9190613419565b600083815260076020526040902054909150808214612aed576001600160a01b03841660009081526006602090815260408083208584528252808320548484528184208190558352600790915290208190555b5060009182526007602090815260408084208490556001600160a01b039094168352600681528383209183525290812055565b600854600090612b3290600190613419565b60008381526009602052604081205460088054939450909284908110612b5a57612b5a613508565b906000526020600020015490508060088381548110612b7b57612b7b613508565b6000918252602080832090910192909255828152600990915260408082208490558582528120556008805480612bb357612bb36134f2565b6001900381819060005260206000200160009055905550505050565b6000612bda83611078565b6001600160a01b039093166000908152600660209081526040808320868452825280832085905593825260079052919091209190915550565b828054612c1f9061345c565b90600052602060002090601f016020900481019282612c415760008555612c87565b82601f10612c5a57805160ff1916838001178555612c87565b82800160010185558215612c87579182015b82811115612c87578251825591602001919060010190612c6c565b50612c93929150612d48565b5090565b828054612ca39061345c565b90600052602060002090601f016020900481019282612cc55760008555612c87565b82601f10612cd65780548555612c87565b82800160010185558215612c8757600052602060002091601f016020900482015b82811115612c87578254825591600101919060010190612cf7565b508054612d1e9061345c565b6000825580601f10612d2e575050565b601f016020900490600052602060002090810190610e6a91905b5b80821115612c935760008155600101612d49565b600067ffffffffffffffff80841115612d7857612d7861351e565b604051601f8501601f19908116603f01168101908282118183101715612da057612da061351e565b81604052809350858152868686011115612db957600080fd5b858560208301376000602087830101525050509392505050565b80356001600160a01b0381168114612dea57600080fd5b919050565b80358015158114612dea57600080fd5b600082601f830112612e1057600080fd5b612e1f83833560208501612d5d565b9392505050565b600060208284031215612e3857600080fd5b612e1f82612dd3565b60008060408385031215612e5457600080fd5b612e5d83612dd3565b9150612e6b60208401612dd3565b90509250929050565b600080600060608486031215612e8957600080fd5b612e9284612dd3565b9250612ea060208501612dd3565b9150604084013590509250925092565b60008060008060808587031215612ec657600080fd5b612ecf85612dd3565b9350612edd60208601612dd3565b925060408501359150606085013567ffffffffffffffff811115612f0057600080fd5b8501601f81018713612f1157600080fd5b612f2087823560208401612d5d565b91505092959194509250565b60008060408385031215612f3f57600080fd5b612f4883612dd3565b9150612e6b60208401612def565b600080600060608486031215612f6b57600080fd5b612f7484612dd3565b9250602084013567ffffffffffffffff811115612f9057600080fd5b612f9c86828701612dff565b925050604084013590509250925092565b60008060408385031215612fc057600080fd5b612fc983612dd3565b946020939093013593505050565b600060208284031215612fe957600080fd5b8135612e1f81613534565b60006020828403121561300657600080fd5b8151612e1f81613534565b60006020828403121561302357600080fd5b813567ffffffffffffffff81111561303a57600080fd5b6121ed84828501612dff565b6000806040838503121561305957600080fd5b823567ffffffffffffffff8082111561307157600080fd5b61307d86838701612dff565b9350602085013591508082111561309357600080fd5b506130a085828601612dff565b9150509250929050565b6000806000606084860312156130bf57600080fd5b833567ffffffffffffffff808211156130d757600080fd5b6130e387838801612dff565b945060208601359150808211156130f957600080fd5b50612f9c86828701612dff565b60006020828403121561311857600080fd5b5035919050565b6000806040838503121561313257600080fd5b82359150612e6b60208401612def565b600081518084526020808501808196508360051b8101915082860160005b858110156131b0578284038952815160408151818752613182828801826131bd565b9150508682015191508581038787015261319c81836131bd565b9a87019a9550505090840190600101613160565b5091979650505050505050565b600081518084526131d5816020860160208601613430565b601f01601f19169290920160200192915050565b600083516131fb818460208801613430565b83519083019061320f818360208801613430565b01949350505050565b60008251805161322c818560208501613430565b6020948501516001600160a01b0316601f91909101601f19169390930192835250500190565b60006001600160a01b0380871683528086166020840152508360408301526080606083015261328460808301846131bd565b9695505050505050565b60006020808301818452808551808352604092508286019150828160051b87010184880160005b838110156132ff57888303603f19018552815180518785526132d9888601826131bd565b918901516001600160a01b031694890194909452948701949250908601906001016132b5565b509098975050505050505050565b602081526000612e1f6020830184613142565b602081526000612e1f60208301846131bd565b60208152815160208201526001600160a01b0360208301511660408201526000604083015160c0606084015261336c60e08401826131bd565b90506060840151601f198085840301608086015261338a83836131bd565b925060808601519150808584030160a08601526133a78383613142565b925060a08601519150808584030160c0860152506133c58282613142565b95945050505050565b8381528260208201526060604082015260006133c560608301846131bd565b60008219821115613400576134006134c6565b500190565b600082613414576134146134dc565b500490565b60008282101561342b5761342b6134c6565b500390565b60005b8381101561344b578181015183820152602001613433565b83811115611a135750506000910152565b600181811c9082168061347057607f821691505b6020821081141561349157634e487b7160e01b600052602260045260246000fd5b50919050565b60006000198214156134ab576134ab6134c6565b5060010190565b6000826134c1576134c16134dc565b500690565b634e487b7160e01b600052601160045260246000fd5b634e487b7160e01b600052601260045260246000fd5b634e487b7160e01b600052603160045260246000fd5b634e487b7160e01b600052603260045260246000fd5b634e487b7160e01b600052604160045260246000fd5b6001600160e01b031981168114610e6a57600080fdfea26469706673582212200b67efbbefbf1524b53e8fef92418c359c5843227726170f069cc13ac0f9800064736f6c63430008070033a264697066735822122048db224f5beb6e5eec864f86a926aad7a37181b89c19de99a81ef4a488fae91764736f6c63430008070033",
  "linkReferences": {},
  "deployedLinkReferences": {}
}