{
  "_format": "hh-sol-artifact-1",
  "contractName": "TamboraFactory",
  "sourceName": "contracts/TamboraFactory.sol",
  "abi": [
    {
      "inputs": [],
      "stateMutability": "nonpayable",
      "type": "constructor"
    },
    {
      "anonymous": false,
      "inputs": [
        {
          "indexed": true,
          "internalType": "contract Tambora",
          "name": "contractAddr",
          "type": "address"
        }
      ],
      "name": "Deployed",
      "type": "event"
    },
    {
      "anonymous": false,
      "inputs": [
        {
          "indexed": true,
          "internalType": "uint256",
          "name": "mintFee",
          "type": "uint256"
        },
        {
          "indexed": true,
          "internalType": "uint256",
          "name": "contractFee",
          "type": "uint256"
        }
      ],
      "name": "FeeChange",
      "type": "event"
    },
    {
      "inputs": [
        {
          "internalType": "uint256",
          "name": "mintFee_",
          "type": "uint256"
        },
        {
          "internalType": "uint256",
          "name": "contractFee_",
          "type": "uint256"
        }
      ],
      "name": "changeFees",
      "outputs": [],
      "stateMutability": "nonpayable",
      "type": "function"
    },
    {
      "inputs": [],
      "name": "contractFee",
      "outputs": [
        {
          "internalType": "uint256",
          "name": "",
          "type": "uint256"
        }
      ],
      "stateMutability": "view",
      "type": "function"
    },
    {
      "inputs": [
        {
          "internalType": "string",
          "name": "name",
          "type": "string"
        },
        {
          "internalType": "string",
          "name": "symbol",
          "type": "string"
        },
        {
          "internalType": "uint256",
          "name": "price_",
          "type": "uint256"
        },
        {
          "internalType": "string",
          "name": "contractType_",
          "type": "string"
        },
        {
          "internalType": "address",
          "name": "to_",
          "type": "address"
        },
        {
          "internalType": "string",
          "name": "uri_",
          "type": "string"
        },
        {
          "internalType": "uint256",
          "name": "mintFee_",
          "type": "uint256"
        },
        {
          "internalType": "uint256",
          "name": "contractFee_",
          "type": "uint256"
        }
      ],
      "name": "deployTambora",
      "outputs": [],
      "stateMutability": "payable",
      "type": "function"
    },
    {
      "inputs": [
        {
          "internalType": "string",
          "name": "name_",
          "type": "string"
        }
      ],
      "name": "getContractAddress",
      "outputs": [
        {
          "internalType": "contract Tambora",
          "name": "",
          "type": "address"
        }
      ],
      "stateMutability": "view",
      "type": "function"
    },
    {
      "inputs": [],
      "name": "getDeployedContracts",
      "outputs": [
        {
          "internalType": "contract Tambora[]",
          "name": "",
          "type": "address[]"
        }
      ],
      "stateMutability": "view",
      "type": "function"
    },
    {
      "inputs": [],
      "name": "getNames",
      "outputs": [
        {
          "internalType": "string[]",
          "name": "",
          "type": "string[]"
        }
      ],
      "stateMutability": "view",
      "type": "function"
    },
    {
      "inputs": [
        {
          "internalType": "address",
          "name": "contractOwner",
          "type": "address"
        }
      ],
      "name": "getOwnedContracts",
      "outputs": [
        {
          "internalType": "contract Tambora[]",
          "name": "",
          "type": "address[]"
        }
      ],
      "stateMutability": "view",
      "type": "function"
    },
    {
      "inputs": [],
      "name": "mintFee",
      "outputs": [
        {
          "internalType": "uint256",
          "name": "",
          "type": "uint256"
        }
      ],
      "stateMutability": "view",
      "type": "function"
    },
    {
      "inputs": [
        {
          "internalType": "uint256",
          "name": "",
          "type": "uint256"
        }
      ],
      "name": "names",
      "outputs": [
        {
          "internalType": "string",
          "name": "",
          "type": "string"
        }
      ],
      "stateMutability": "view",
      "type": "function"
    }
  ],
  "bytecode": "0x608060405234801561001057600080fd5b50600280546001600160a01b031916331790556601c6bf52634000600090815566b1a2bc2ec500006001556150e590819061004b90396000f3fe608060405260043610620000915760003560e01c8063aa9a068f1162000060578063aa9a068f146200015a578063c715bdb91462000181578063cd838f0f1462000198578063d41977cd14620001bf578063e5d2f8e314620001d757600080fd5b806304433bbc146200009657806313966db514620000d857806321ecff5b14620000ff5780634622ab031462000126575b600080fd5b348015620000a357600080fd5b50620000bb620000b5366004620008e8565b620001fc565b6040516001600160a01b0390911681526020015b60405180910390f35b348015620000e557600080fd5b50620000f060005481565b604051908152602001620000cf565b3480156200010c57600080fd5b50620001246200011e36600462000a2d565b6200022f565b005b3480156200013357600080fd5b506200014b6200014536600462000a13565b62000289565b604051620000cf919062000bed565b3480156200016757600080fd5b50620001726200033e565b604051620000cf919062000b38565b620001246200019236600462000929565b620003a2565b348015620001a557600080fd5b50620001b062000602565b604051620000cf919062000b87565b348015620001cc57600080fd5b50620000f060015481565b348015620001e457600080fd5b5062000172620001f6366004620008c3565b620006e5565b600060068260405162000210919062000a7e565b908152604051908190036020019020546001600160a01b031692915050565b6002546001600160a01b0316336001600160a01b0316146200025057600080fd5b60008281556001829055604051829184917fa995ac7c2dc5fdc05b41983e69d4d9fbd224a8528bc7d86eabfd533cd3ca44979190a35050565b600481815481106200029a57600080fd5b906000526020600020016000915090508054620002b79062000c35565b80601f0160208091040260200160405190810160405280929190818152602001828054620002e59062000c35565b8015620003365780601f106200030a5761010080835404028352916020019162000336565b820191906000526020600020905b8154815290600101906020018083116200031857829003601f168201915b505050505081565b606060038054806020026020016040519081016040528092919081815260200182805480156200039857602002820191906000526020600020905b81546001600160a01b0316815260019091019060200180831162000379575b5050505050905090565b600154341015620003b257600080fd5b6000620003bf89620001fc565b6001600160a01b031614620004105760405162461bcd60e51b81526020600482015260136024820152724e616d6520616c72656164792065786973747360681b604482015260640160405180910390fd5b600033898989898989600260009054906101000a90046001600160a01b03168a8a6040516200043f906200075d565b620004549a9998979695949392919062000a9c565b604051809103906000f08015801562000471573d6000803e3d6000fd5b506003805460018082019092557fc2575a0e9e593c00f959f8c92f12db2869c3395a3b0502d05e2516446f71f85b0180546001600160a01b0319166001600160a01b0384161790556004805491820181556000528a51919250620004ff917f8a35acfbc15ff81a39ae7d344fd709f28e8600b4aa8c65c6b64bfe7fe36bd19b9091019060208c01906200076b565b508060068a60405162000513919062000a7e565b90815260405190819003602001902080546001600160a01b03929092166001600160a01b0319909216919091179055600560006200054e3390565b6001600160a01b03908116825260208083019390935260409091016000908120805460018101825590825292902090910180546001600160a01b031916838316179055600254166108fc346040518115909202916000818181858888f19350505050158015620005c2573d6000803e3d6000fd5b506040516001600160a01b038216907ff40fcec21964ffb566044d083b4073f29f7f7929110ea19e1b3ebe375d89055e90600090a2505050505050505050565b60606004805480602002602001604051908101604052809291908181526020016000905b82821015620006dc578382906000526020600020018054620006489062000c35565b80601f0160208091040260200160405190810160405280929190818152602001828054620006769062000c35565b8015620006c75780601f106200069b57610100808354040283529160200191620006c7565b820191906000526020600020905b815481529060010190602001808311620006a957829003601f168201915b50505050508152602001906001019062000626565b50505050905090565b6001600160a01b0381166000908152600560209081526040918290208054835181840281018401909452808452606093928301828280156200075157602002820191906000526020600020905b81546001600160a01b0316815260019091019060200180831162000732575b50505050509050919050565b6144278062000c8983390190565b828054620007799062000c35565b90600052602060002090601f0160209004810192826200079d5760008555620007e8565b82601f10620007b857805160ff1916838001178555620007e8565b82800160010185558215620007e8579182015b82811115620007e8578251825591602001919060010190620007cb565b50620007f6929150620007fa565b5090565b5b80821115620007f65760008155600101620007fb565b80356001600160a01b03811681146200082957600080fd5b919050565b600082601f8301126200084057600080fd5b813567ffffffffffffffff808211156200085e576200085e62000c72565b604051601f8301601f19908116603f0116810190828211818310171562000889576200088962000c72565b81604052838152866020858801011115620008a357600080fd5b836020870160208301376000602085830101528094505050505092915050565b600060208284031215620008d657600080fd5b620008e18262000811565b9392505050565b600060208284031215620008fb57600080fd5b813567ffffffffffffffff8111156200091357600080fd5b62000921848285016200082e565b949350505050565b600080600080600080600080610100898b0312156200094757600080fd5b883567ffffffffffffffff808211156200096057600080fd5b6200096e8c838d016200082e565b995060208b01359150808211156200098557600080fd5b620009938c838d016200082e565b985060408b0135975060608b0135915080821115620009b157600080fd5b620009bf8c838d016200082e565b9650620009cf60808c0162000811565b955060a08b0135915080821115620009e657600080fd5b50620009f58b828c016200082e565b93505060c0890135915060e089013590509295985092959890939650565b60006020828403121562000a2657600080fd5b5035919050565b6000806040838503121562000a4157600080fd5b50508035926020909101359150565b6000815180845262000a6a81602086016020860162000c02565b601f01601f19169290920160200192915050565b6000825162000a9281846020870162000c02565b9190910192915050565b6001600160a01b038b811682526101406020830181905260009162000ac48483018e62000a50565b9150838203604085015262000ada828d62000a50565b91508a6060850152838203608085015262000af6828b62000a50565b915080891660a085015283820360c085015262000b14828962000a50565b961660e0840152505061010081019290925261012090910152979650505050505050565b6020808252825182820181905260009190848201906040850190845b8181101562000b7b5783516001600160a01b03168352928401929184019160010162000b54565b50909695505050505050565b6000602080830181845280855180835260408601915060408160051b870101925083870160005b8281101562000be057603f1988860301845262000bcd85835162000a50565b9450928501929085019060010162000bae565b5092979650505050505050565b602081526000620008e1602083018462000a50565b60005b8381101562000c1f57818101518382015260200162000c05565b8381111562000c2f576000848401525b50505050565b600181811c9082168062000c4a57607f821691505b6020821081141562000c6c57634e487b7160e01b600052602260045260246000fd5b50919050565b634e487b7160e01b600052604160045260246000fdfe60806040523480156200001157600080fd5b5060405162004427380380620044278339810160408190526200003491620009aa565b8851899089906200004d90600090602085019062000830565b5080516200006390600190602084019062000830565b5050600b80546001600160a01b03808e166001600160a01b031992831617909255600a80549287169290911691909117905550600f879055600c829055620000ac828862000abb565b601055600d8190558551620000c990601390602089019062000830565b50600a6012819055605a60115560408051606081018252600080825260016020808401918252938301948552818052601890935290517f999d26de3473317ead3eeaf34ca78057f1439db67b6953469c3c96ce9caf6bd75590517f999d26de3473317ead3eeaf34ca78057f1439db67b6953469c3c96ce9caf6bd85590517f999d26de3473317ead3eeaf34ca78057f1439db67b6953469c3c96ce9caf6bd9556200017690869062000240565b62000183600085620003e5565b6001600e5560408051606081018252438152426020808301918252928201878152600080526019845282517fd2ac945fcc0096878c763e37d6929b78378c1a2defabde8ba7ee5ed1d6e7a5b290815591517fd2ac945fcc0096878c763e37d6929b78378c1a2defabde8ba7ee5ed1d6e7a5b355518051929391926200022c927fd2ac945fcc0096878c763e37d6929b78378c1a2defabde8ba7ee5ed1d6e7a5b492019062000830565b509050505050505050505050505062000b85565b6001600160a01b0382166200029c5760405162461bcd60e51b815260206004820181905260248201527f4552433732313a206d696e7420746f20746865207a65726f206164647265737360448201526064015b60405180910390fd5b6000818152600260205260409020546001600160a01b031615620003035760405162461bcd60e51b815260206004820152601c60248201527f4552433732313a20746f6b656e20616c7265616479206d696e74656400000000604482015260640162000293565b6200031360008383600162000486565b6000818152600260205260409020546001600160a01b0316156200037a5760405162461bcd60e51b815260206004820152601c60248201527f4552433732313a20746f6b656e20616c7265616479206d696e74656400000000604482015260640162000293565b6001600160a01b038216600081815260036020908152604080832080546001019055848352600290915280822080546001600160a01b0319168417905551839291907fddf252ad1be2c89b69c2b068fc378daa952ba7f163c4a11628f55a4df523b3ef908290a45050565b6000828152600260205260409020546001600160a01b0316620004605760405162461bcd60e51b815260206004820152602c60248201527f4552433732314d657461646174613a2055524920736574206f66206e6f6e657860448201526b34b9ba32b73a103a37b5b2b760a11b606482015260840162000293565b60008281526014602090815260409091208251620004819284019062000830565b505050565b6200049f84848484620005ea60201b62001a201760201c565b6001811115620005185760405162461bcd60e51b815260206004820152603560248201527f455243373231456e756d657261626c653a20636f6e736563757469766520747260448201527f616e7366657273206e6f7420737570706f727465640000000000000000000000606482015260840162000293565b816001600160a01b03851662000577576200057181600880546000838152600960205260408120829055600182018355919091527ff3f7a9fe364faab93b216da50a3214154f22a0a2b415b23a84c8169e8b636ee30155565b6200059d565b836001600160a01b0316856001600160a01b0316146200059d576200059d8582620005f0565b6001600160a01b038416620005bd57620005b7816200069d565b620005e3565b846001600160a01b0316846001600160a01b031614620005e357620005e3848262000757565b5050505050565b50505050565b600060016200060a84620007a860201b620010ca1760201c565b62000616919062000ad6565b6000838152600760205260409020549091508082146200066a576001600160a01b03841660009081526006602090815260408083208584528252808320548484528184208190558352600790915290208190555b5060009182526007602090815260408084208490556001600160a01b039094168352600681528383209183525290812055565b600854600090620006b19060019062000ad6565b60008381526009602052604081205460088054939450909284908110620006dc57620006dc62000b59565b90600052602060002001549050806008838154811062000700576200070062000b59565b60009182526020808320909101929092558281526009909152604080822084905585825281205560088054806200073b576200073b62000b43565b6001900381819060005260206000200160009055905550505050565b60006200076f83620007a860201b620010ca1760201c565b6001600160a01b039093166000908152600660209081526040808320868452825280832085905593825260079052919091209190915550565b60006001600160a01b038216620008145760405162461bcd60e51b815260206004820152602960248201527f4552433732313a2061646472657373207a65726f206973206e6f7420612076616044820152683634b21037bbb732b960b91b606482015260840162000293565b506001600160a01b031660009081526003602052604090205490565b8280546200083e9062000af0565b90600052602060002090601f016020900481019282620008625760008555620008ad565b82601f106200087d57805160ff1916838001178555620008ad565b82800160010185558215620008ad579182015b82811115620008ad57825182559160200191906001019062000890565b50620008bb929150620008bf565b5090565b5b80821115620008bb5760008155600101620008c0565b80516001600160a01b0381168114620008ee57600080fd5b919050565b600082601f8301126200090557600080fd5b81516001600160401b038082111562000922576200092262000b6f565b604051601f8301601f19908116603f011681019082821181831017156200094d576200094d62000b6f565b816040528381526020925086838588010111156200096a57600080fd5b600091505b838210156200098e57858201830151818301840152908201906200096f565b83821115620009a05760008385830101525b9695505050505050565b6000806000806000806000806000806101408b8d031215620009cb57600080fd5b620009d68b620008d6565b60208c0151909a506001600160401b0380821115620009f457600080fd5b62000a028e838f01620008f3565b9a5060408d015191508082111562000a1957600080fd5b62000a278e838f01620008f3565b995060608d0151985060808d015191508082111562000a4557600080fd5b62000a538e838f01620008f3565b975062000a6360a08e01620008d6565b965060c08d015191508082111562000a7a57600080fd5b5062000a898d828e01620008f3565b94505062000a9a60e08c01620008d6565b92506101008b015191506101208b015190509295989b9194979a5092959850565b6000821982111562000ad15762000ad162000b2d565b500190565b60008282101562000aeb5762000aeb62000b2d565b500390565b600181811c9082168062000b0557607f821691505b6020821081141562000b2757634e487b7160e01b600052602260045260246000fd5b50919050565b634e487b7160e01b600052601160045260246000fd5b634e487b7160e01b600052603160045260246000fd5b634e487b7160e01b600052603260045260246000fd5b634e487b7160e01b600052604160045260246000fd5b6138928062000b956000396000f3fe60806040526004361061025c5760003560e01c80638da5cb5b11610144578063b09afec1116100b6578063d41977cd1161007a578063d41977cd14610732578063d431a24814610748578063e985e9c51461075b578063eb9ce163146107a4578063f9dc375f146107b9578063ffe64434146107cc57600080fd5b8063b09afec11461069d578063b88d4fde146106ca578063ba7aef43146106ea578063c87b56dd146106fd578063cb2ef6f71461071d57600080fd5b8063a035b1fe11610108578063a035b1fe146105ae578063a22cb465146105c4578063a28039cd146105e4578063a918458214610604578063aeb20b9414610624578063af80a5be1461067b57600080fd5b80638da5cb5b1461050957806395d89b4114610529578063967615951461053e57806397a333421461055e578063a00745b61461057e57600080fd5b8063396876bd116101dd5780634f6ccce7116101a15780634f6ccce71461044f5780635a9be11b1461046f5780635bf61cfe146104775780636352211e14610499578063673448dd146104b957806370a08231146104e957600080fd5b8063396876bd146103c35780633c084fa5146103d95780633c5e6c97146103f95780634261917a1461040f57806342842e0e1461042f57600080fd5b806313966db51161022457806313966db51461033457806318160ddd146103585780632291e3881461036d57806323b872dd146103835780632f745c59146103a357600080fd5b806301ffc9a71461026157806306fdde0314610296578063081812fc146102b8578063095ea7b3146102f05780630e37b4fd14610312575b600080fd5b34801561026d57600080fd5b5061028161027c36600461328d565b6107ec565b60405190151581526020015b60405180910390f35b3480156102a257600080fd5b506102ab610817565b60405161028d919061359a565b3480156102c457600080fd5b506102d86102d3366004613360565b6108a9565b6040516001600160a01b03909116815260200161028d565b3480156102fc57600080fd5b5061031061030b366004613263565b6108d0565b005b34801561031e57600080fd5b506103276109eb565b60405161028d9190613587565b34801561034057600080fd5b5061034a600c5481565b60405190815260200161028d565b34801561036457600080fd5b5060085461034a565b34801561037957600080fd5b5061034a60125481565b34801561038f57600080fd5b5061031061039e36600461312a565b610b83565b3480156103af57600080fd5b5061034a6103be366004613263565b610bb4565b3480156103cf57600080fd5b5061034a60115481565b3480156103e557600080fd5b506103106103f436600461339c565b610c4a565b34801561040557600080fd5b5061034a60105481565b34801561041b57600080fd5b5061031061042a3660046132fc565b610d56565b34801561043b57600080fd5b5061031061044a36600461312a565b610e1e565b34801561045b57600080fd5b5061034a61046a366004613360565b610e39565b610310610ecc565b34801561048357600080fd5b5061048c610f6f565b60405161028d9190613508565b3480156104a557600080fd5b506102d86104b4366004613360565b61106a565b3480156104c557600080fd5b506102816104d43660046130dc565b60166020526000908152604090205460ff1681565b3480156104f557600080fd5b5061034a6105043660046130dc565b6110ca565b34801561051557600080fd5b50600b546102d8906001600160a01b031681565b34801561053557600080fd5b506102ab611150565b34801561054a57600080fd5b506103106105593660046132c7565b61115f565b34801561056a57600080fd5b506102ab6105793660046130dc565b61125e565b34801561058a57600080fd5b506102816105993660046130dc565b60156020526000908152604090205460ff1681565b3480156105ba57600080fd5b5061034a600f5481565b3480156105d057600080fd5b506103106105df3660046131e2565b6112f8565b3480156105f057600080fd5b506103106105ff366004613379565b611307565b34801561061057600080fd5b5061031061061f366004613360565b611599565b34801561063057600080fd5b5061066061063f366004613360565b60186020526000908152604090208054600182015460029092015490919083565b6040805193845260208401929092529082015260600161028d565b34801561068757600080fd5b5061069061167d565b60405161028d9190613691565b3480156106a957600080fd5b506106bd6106b8366004613360565b6118ff565b60405161028d919061370e565b3480156106d657600080fd5b506103106106e5366004613166565b6119ee565b6103106106f836600461320c565b611a26565b34801561070957600080fd5b506102ab610718366004613360565b611cc3565b34801561072957600080fd5b506102ab611e52565b34801561073e57600080fd5b5061034a600d5481565b610310610756366004613360565b611e5f565b34801561076757600080fd5b506102816107763660046130f7565b6001600160a01b03918216600090815260056020908152604080832093909416825291909152205460ff1690565b3480156107b057600080fd5b5061048c611f5d565b6103106107c73660046132c7565b612060565b3480156107d857600080fd5b506103106107e7366004613360565b61220e565b60006001600160e01b0319821663780e9d6360e01b14806108115750610811826122e7565b92915050565b60606000805461082690613798565b80601f016020809104026020016040519081016040528092919081815260200182805461085290613798565b801561089f5780601f106108745761010080835404028352916020019161089f565b820191906000526020600020905b81548152906001019060200180831161088257829003601f168201915b5050505050905090565b60006108b482612337565b506000908152600460205260409020546001600160a01b031690565b60006108db8261106a565b9050806001600160a01b0316836001600160a01b0316141561094e5760405162461bcd60e51b815260206004820152602160248201527f4552433732313a20617070726f76616c20746f2063757272656e74206f776e656044820152603960f91b60648201526084015b60405180910390fd5b336001600160a01b038216148061096a575061096a8133610776565b6109dc5760405162461bcd60e51b815260206004820152603d60248201527f4552433732313a20617070726f76652063616c6c6572206973206e6f7420746f60448201527f6b656e206f776e6572206f7220617070726f76656420666f7220616c6c0000006064820152608401610945565b6109e68383612396565b505050565b606060006109f8336110ca565b11610a0257600080fd5b601d805480602002602001604051908101604052809291908181526020016000905b82821015610b7a5783829060005260206000209060020201604051806040016040529081600082018054610a5790613798565b80601f0160208091040260200160405190810160405280929190818152602001828054610a8390613798565b8015610ad05780601f10610aa557610100808354040283529160200191610ad0565b820191906000526020600020905b815481529060010190602001808311610ab357829003601f168201915b50505050508152602001600182018054610ae990613798565b80601f0160208091040260200160405190810160405280929190818152602001828054610b1590613798565b8015610b625780601f10610b3757610100808354040283529160200191610b62565b820191906000526020600020905b815481529060010190602001808311610b4557829003601f168201915b50505050508152505081526020019060010190610a24565b50505050905090565b610b8d3382612404565b610ba95760405162461bcd60e51b8152600401610945906135ad565b6109e6838383612483565b6000610bbf836110ca565b8210610c215760405162461bcd60e51b815260206004820152602b60248201527f455243373231456e756d657261626c653a206f776e657220696e646578206f7560448201526a74206f6620626f756e647360a81b6064820152608401610945565b506001600160a01b03919091166000908152600660209081526040808320938352929052205490565b33610c548361106a565b6001600160a01b031614610c6757600080fd5b60006040518060400160405280838152602001610c813390565b6001600160a01b03169052601b805460018101825560009190915281518051929350839260029092027f3ad8aa4f87544323a9d1e5dd902f40c356527a7955687113db5f9a85ad579dc10191610cdf91839160209190910190612ec9565b5060209190910151600190910180546001600160a01b0319166001600160a01b03909216919091179055336001600160a01b031682604051610d219190613480565b604051908190038120907f963cbefbf06d13486cfc0bc54715f33daf948850da30e2a3c2023e6624687ee190600090a3505050565b610d5e6125f4565b604080518082019091528281526020808201839052601d805460018101825560009190915282518051849360029093027f6d4407e7be21f808e6509aa9fa9143369579dd7d760fe20a2c09680fc146134f0192610dbf928492910190612ec9565b506020828101518051610dd89260018501920190612ec9565b50505082604051610de99190613480565b604051908190038120907f035b065922620bc9e29f8f7e5156f5e151ecd66c99b686b6da840a49f68bc20890600090a2505050565b6109e6838383604051806020016040528060008152506119ee565b6000610e4460085490565b8210610ea75760405162461bcd60e51b815260206004820152602c60248201527f455243373231456e756d657261626c653a20676c6f62616c20696e646578206f60448201526b7574206f6620626f756e647360a01b6064820152608401610945565b60088281548110610eba57610eba61381a565b90600052602060002001549050919050565b610ed46125f4565b600d54341015610f1c5760405162461bcd60e51b815260206004820152601360248201527224b739bab33334b1b4b2b73a10333ab732399760691b6044820152606401610945565b606460116000828254610f2f919061373d565b9091555050600a546001600160a01b03166108fc346040518115909202916000818181858888f19350505050158015610f6c573d6000803e3d6000fd5b50565b6060601c805480602002602001604051908101604052809291908181526020016000905b82821015610b7a5783829060005260206000209060020201604051806040016040529081600082018054610fc690613798565b80601f0160208091040260200160405190810160405280929190818152602001828054610ff290613798565b801561103f5780601f106110145761010080835404028352916020019161103f565b820191906000526020600020905b81548152906001019060200180831161102257829003601f168201915b50505091835250506001918201546001600160a01b0316602091820152918352929092019101610f93565b6000818152600260205260408120546001600160a01b0316806108115760405162461bcd60e51b8152602060048201526018602482015277115490cdcc8c4e881a5b9d985b1a59081d1bdad95b88125160421b6044820152606401610945565b60006001600160a01b0382166111345760405162461bcd60e51b815260206004820152602960248201527f4552433732313a2061646472657373207a65726f206973206e6f7420612076616044820152683634b21037bbb732b960b91b6064820152608401610945565b506001600160a01b031660009081526003602052604090205490565b60606001805461082690613798565b600060405180604001604052808381526020016111793390565b6001600160a01b03169052601c805460018101825560009190915281518051929350839260029092027f0e4562a10381dec21b205ed72637e6b1b523bdd0e4d4d50af5cd23dd4500a21101916111d791839160209190910190612ec9565b50602091820151600191820180546001600160a01b0319166001600160a01b039092169190911790553360008181526015909352604092839020805460ff1916909217909155905161122a908490613480565b604051908190038120907f963cbefbf06d13486cfc0bc54715f33daf948850da30e2a3c2023e6624687ee190600090a35050565b6017602052600090815260409020805461127790613798565b80601f01602080910402602001604051908101604052809291908181526020018280546112a390613798565b80156112f05780601f106112c5576101008083540402835291602001916112f0565b820191906000526020600020905b8154815290600101906020018083116112d357829003601f168201915b505050505081565b611303338383612650565b5050565b61130f6125f4565b6005601154101561131f57600080fd5b6000601c83815481106113345761133461381a565b906000526020600020906002020160405180604001604052908160008201805461135d90613798565b80601f016020809104026020016040519081016040528092919081815260200182805461138990613798565b80156113d65780601f106113ab576101008083540402835291602001916113d6565b820191906000526020600020905b8154815290600101906020018083116113b957829003601f168201915b5050509183525050600191909101546001600160a01b03166020909101529050811561144857602080820180516001600160a01b039081166000908152601684526040808220805460ff191660011790558551935190921681526017845220815161144693919290910190612ec9565b505b601c805461145890600190613755565b815481106114685761146861381a565b9060005260206000209060020201601c84815481106114895761148961381a565b906000526020600020906002020160008201816000019080546114ab90613798565b6114b6929190612f4d565b50600191820154910180546001600160a01b0319166001600160a01b03909216919091179055601c8054806114ed576114ed613804565b6000828152602081206000199092019160028302019061150d8282612fc8565b5060010180546001600160a01b03191690559055602080820180516001600160a01b0390811660009081526015909352604092839020805460ff191690559051835192518515159391909216916115649190613480565b604051908190038120907ff236cc347bab721c49031024cf484b8f76450f8d11ec7d097aa99bad74ace43290600090a4505050565b6115a16125f4565b601b80546115b190600190613755565b815481106115c1576115c161381a565b9060005260206000209060020201601b82815481106115e2576115e261381a565b9060005260206000209060020201600082018160000190805461160490613798565b61160f929190612f4d565b50600191820154910180546001600160a01b0319166001600160a01b03909216919091179055601b80548061164657611646613804565b600082815260208120600019909201916002830201906116668282612fc8565b5060010180546001600160a01b0319169055905550565b6116b86040518060a001604052806000815260200160006001600160a01b031681526020016060815260200160608152602001606081525090565b6040805160a081018252600e548152600b546001600160a01b031660208201526013805491928301916116ea90613798565b80601f016020809104026020016040519081016040528092919081815260200182805461171690613798565b80156117635780601f1061173857610100808354040283529160200191611763565b820191906000526020600020905b81548152906001019060200180831161174657829003601f168201915b505050505081526020016117776000611cc3565b8152602001601d805480602002602001604051908101604052809291908181526020016000905b828210156118f457838290600052602060002090600202016040518060400160405290816000820180546117d190613798565b80601f01602080910402602001604051908101604052809291908181526020018280546117fd90613798565b801561184a5780601f1061181f5761010080835404028352916020019161184a565b820191906000526020600020905b81548152906001019060200180831161182d57829003601f168201915b5050505050815260200160018201805461186390613798565b80601f016020809104026020016040519081016040528092919081815260200182805461188f90613798565b80156118dc5780601f106118b1576101008083540402835291602001916118dc565b820191906000526020600020905b8154815290600101906020018083116118bf57829003601f168201915b5050505050815250508152602001906001019061179e565b505050915250919050565b61192360405180606001604052806000815260200160008152602001606081525090565b60196000838152602001908152602001600020604051806060016040529081600082015481526020016001820154815260200160028201805461196590613798565b80601f016020809104026020016040519081016040528092919081815260200182805461199190613798565b80156119de5780601f106119b3576101008083540402835291602001916119de565b820191906000526020600020905b8154815290600101906020018083116119c157829003601f168201915b5050505050815250509050919050565b6119f83383612404565b611a145760405162461bcd60e51b8152600401610945906135ad565b611a208484848461271f565b50505050565b601054341015611a785760405162461bcd60e51b815260206004820181905260248201527f4d696e74206661696c65643a20496e73756666696369656e742066756e64732e6044820152606401610945565b600c54341015611a8757600080fd5b6064600e5410611af85760405162461bcd60e51b815260206004820152603660248201527f4d696e74206661696c65643a20436f6e74726163742068617320726561636865604482015275321034ba13b99036b4b73a1030b63637bbb0b731b29760511b6064820152608401610945565b33611b028261106a565b6001600160a01b031614611b1557600080fd5b6000818152601860205260409020600281015460019091015410611b7b5760405162461bcd60e51b815260206004820181905260248201527f4d696e74206661696c65643a20416c6c6f77616e63652065786365656465642e6044820152606401610945565b611b8783600e54612752565b611b93600e54836128eb565b60408051606081018252438152426020808301918252828401868152600e546000908152601983529490942083518155915160018301559251805192939192611be29260028501920190612ec9565b5050600e805491506000611bf5836137d3565b91905055506000611c033490565b90506000600f5482611c159190613755565b600b54600f546040519293506001600160a01b039091169181156108fc0291906000818181858888f19350505050158015611c54573d6000803e3d6000fd5b50600a546040516001600160a01b039091169082156108fc029083906000818181858888f19350505050158015611c8f573d6000803e3d6000fd5b506001601860008581526020019081526020016000206001016000828254611cb7919061373d565b90915550505050505050565b6000818152600260205260409020546060906001600160a01b0316611d425760405162461bcd60e51b815260206004820152602f60248201527f4552433732314d657461646174613a2055524920717565727920666f72206e6f60448201526e3732bc34b9ba32b73a103a37b5b2b760891b6064820152608401610945565b60008281526014602052604081208054611d5b90613798565b80601f0160208091040260200160405190810160405280929190818152602001828054611d8790613798565b8015611dd45780601f10611da957610100808354040283529160200191611dd4565b820191906000526020600020905b815481529060010190602001808311611db757829003601f168201915b505050505090506000611df260408051602081019091526000815290565b9050805160001415611e05575092915050565b815115611e37578082604051602001611e1f92919061349c565b60405160208183030381529060405292505050919050565b80611e4185612983565b604051602001611e1f92919061349c565b6013805461127790613798565b336000908152601a602052604090205460ff161515600114611ebb5760405162461bcd60e51b81526020600482015260156024820152742cb7ba9030b932903737ba1030b8383937bb32b21760591b6044820152606401610945565b600f54341015611eca57600080fd5b6000818152601860205260408120600201805460059290611eec90849061373d565b92505081905550600560126000828254611f06919061373d565b92505081905550600560116000828254611f209190613755565b9091555050600b546001600160a01b03166108fc346040518115909202916000818181858888f19350505050158015611303573d6000803e3d6000fd5b6060611f676125f4565b601b805480602002602001604051908101604052809291908181526020016000905b82821015610b7a5783829060005260206000209060020201604051806040016040529081600082018054611fbc90613798565b80601f0160208091040260200160405190810160405280929190818152602001828054611fe890613798565b80156120355780601f1061200a57610100808354040283529160200191612035565b820191906000526020600020905b81548152906001019060200180831161201857829003601f168201915b50505091835250506001918201546001600160a01b0316602091820152918352929092019101611f89565b3360009081526016602052604090205460ff166120bf5760405162461bcd60e51b815260206004820152601d60248201527f436c69656e7420686173206e6f74206265656e20617070726f7665642e0000006044820152606401610945565b600560115410156120cf57600080fd5b60408051606081018252600e54808252600160208084018281526005858701908152600094855260189092529490922092518355925192820192909255905160029091015561212033600e54612752565b61212c600e54826128eb565b60408051606081018252438152426020808301918252828401858152600e54600090815260198352949094208351815591516001830155925180519293919261217b9260028501920190612ec9565b5050600e80549150600061218e836137d3565b9091555050600b546001600160a01b03166108fc346040518115909202916000818181858888f193505050501580156121cb573d6000803e3d6000fd5b506005601160008282546121df9190613755565b9091555050336000908152601660209081526040808320805460ff1916905560179091528120610f6c91612fc8565b6122166125f4565b601154601254106122805760405162461bcd60e51b815260206004820152602e60248201527f5468697320636f6e74726163742068617320726561636865642069742773206d60448201526d34b73a1030b63637bbb0b731b29760911b6064820152608401610945565b6001601a6000601b84815481106122995761229961381a565b6000918252602080832060016002909302018201546001600160a01b0316845283019390935260409091019020805492151560ff1990931692909217909155601b805490916115b191613755565b60006001600160e01b031982166380ac58cd60e01b148061231857506001600160e01b03198216635b5e139f60e01b145b8061081157506301ffc9a760e01b6001600160e01b0319831614610811565b6000818152600260205260409020546001600160a01b0316610f6c5760405162461bcd60e51b8152602060048201526018602482015277115490cdcc8c4e881a5b9d985b1a59081d1bdad95b88125160421b6044820152606401610945565b600081815260046020526040902080546001600160a01b0319166001600160a01b03841690811790915581906123cb8261106a565b6001600160a01b03167f8c5be1e5ebec7d5bd14f71427d1e84f3dd0314c0f7b2291e5b200ac8c7c3b92560405160405180910390a45050565b6000806124108361106a565b9050806001600160a01b0316846001600160a01b0316148061245757506001600160a01b0380821660009081526005602090815260408083209388168352929052205460ff165b8061247b5750836001600160a01b0316612470846108a9565b6001600160a01b0316145b949350505050565b826001600160a01b03166124968261106a565b6001600160a01b0316146124bc5760405162461bcd60e51b81526004016109459061364c565b6001600160a01b03821661251e5760405162461bcd60e51b8152602060048201526024808201527f4552433732313a207472616e7366657220746f20746865207a65726f206164646044820152637265737360e01b6064820152608401610945565b61252b8383836001612a20565b826001600160a01b031661253e8261106a565b6001600160a01b0316146125645760405162461bcd60e51b81526004016109459061364c565b600081815260046020908152604080832080546001600160a01b03199081169091556001600160a01b0387811680865260038552838620805460001901905590871680865283862080546001019055868652600290945282852080549092168417909155905184937fddf252ad1be2c89b69c2b068fc378daa952ba7f163c4a11628f55a4df523b3ef91a4505050565b600b546001600160a01b0316331461264e5760405162461bcd60e51b815260206004820181905260248201527f4f776e61626c653a2063616c6c6572206973206e6f7420746865206f776e65726044820152606401610945565b565b816001600160a01b0316836001600160a01b031614156126b25760405162461bcd60e51b815260206004820152601960248201527f4552433732313a20617070726f766520746f2063616c6c6572000000000000006044820152606401610945565b6001600160a01b03838116600081815260056020908152604080832094871680845294825291829020805460ff191686151590811790915591519182527f17307eab39ab6107e8899845ad3d59bd9653f200f220920489ca2b5937696c31910160405180910390a3505050565b61272a848484612483565b61273684848484612b54565b611a205760405162461bcd60e51b8152600401610945906135fa565b6001600160a01b0382166127a85760405162461bcd60e51b815260206004820181905260248201527f4552433732313a206d696e7420746f20746865207a65726f20616464726573736044820152606401610945565b6000818152600260205260409020546001600160a01b03161561280d5760405162461bcd60e51b815260206004820152601c60248201527f4552433732313a20746f6b656e20616c7265616479206d696e746564000000006044820152606401610945565b61281b600083836001612a20565b6000818152600260205260409020546001600160a01b0316156128805760405162461bcd60e51b815260206004820152601c60248201527f4552433732313a20746f6b656e20616c7265616479206d696e746564000000006044820152606401610945565b6001600160a01b038216600081815260036020908152604080832080546001019055848352600290915280822080546001600160a01b0319168417905551839291907fddf252ad1be2c89b69c2b068fc378daa952ba7f163c4a11628f55a4df523b3ef908290a45050565b6000828152600260205260409020546001600160a01b03166129645760405162461bcd60e51b815260206004820152602c60248201527f4552433732314d657461646174613a2055524920736574206f66206e6f6e657860448201526b34b9ba32b73a103a37b5b2b760a11b6064820152608401610945565b600082815260146020908152604090912082516109e692840190612ec9565b6060600061299083612c61565b600101905060008167ffffffffffffffff8111156129b0576129b0613830565b6040519080825280601f01601f1916602001820160405280156129da576020820181803683370190505b5090508181016020015b600019016f181899199a1a9b1b9c1cb0b131b232b360811b600a86061a8153600a8504945084612a1357612a18565b6129e4565b509392505050565b6001811115612a8f5760405162461bcd60e51b815260206004820152603560248201527f455243373231456e756d657261626c653a20636f6e7365637574697665207472604482015274185b9cd9995c9cc81b9bdd081cdd5c1c1bdc9d1959605a1b6064820152608401610945565b816001600160a01b038516612aeb57612ae681600880546000838152600960205260408120829055600182018355919091527ff3f7a9fe364faab93b216da50a3214154f22a0a2b415b23a84c8169e8b636ee30155565b612b0e565b836001600160a01b0316856001600160a01b031614612b0e57612b0e8582612d39565b6001600160a01b038416612b2a57612b2581612dd6565b612b4d565b846001600160a01b0316846001600160a01b031614612b4d57612b4d8482612e85565b5050505050565b60006001600160a01b0384163b15612c5657604051630a85bd0160e11b81526001600160a01b0385169063150b7a0290612b989033908990889088906004016134cb565b602060405180830381600087803b158015612bb257600080fd5b505af1925050508015612be2575060408051601f3d908101601f19168201909252612bdf918101906132aa565b60015b612c3c573d808015612c10576040519150601f19603f3d011682016040523d82523d6000602084013e612c15565b606091505b508051612c345760405162461bcd60e51b8152600401610945906135fa565b805181602001fd5b6001600160e01b031916630a85bd0160e11b14905061247b565b506001949350505050565b60008072184f03e93ff9f4daa797ed6e38ed64bf6a1f0160401b8310612ca05772184f03e93ff9f4daa797ed6e38ed64bf6a1f0160401b830492506040015b6d04ee2d6d415b85acef81000000008310612ccc576d04ee2d6d415b85acef8100000000830492506020015b662386f26fc100008310612cea57662386f26fc10000830492506010015b6305f5e1008310612d02576305f5e100830492506008015b6127108310612d1657612710830492506004015b60648310612d28576064830492506002015b600a83106108115760010192915050565b60006001612d46846110ca565b612d509190613755565b600083815260076020526040902054909150808214612da3576001600160a01b03841660009081526006602090815260408083208584528252808320548484528184208190558352600790915290208190555b5060009182526007602090815260408084208490556001600160a01b039094168352600681528383209183525290812055565b600854600090612de890600190613755565b60008381526009602052604081205460088054939450909284908110612e1057612e1061381a565b906000526020600020015490508060088381548110612e3157612e3161381a565b6000918252602080832090910192909255828152600990915260408082208490558582528120556008805480612e6957612e69613804565b6001900381819060005260206000200160009055905550505050565b6000612e90836110ca565b6001600160a01b039093166000908152600660209081526040808320868452825280832085905593825260079052919091209190915550565b828054612ed590613798565b90600052602060002090601f016020900481019282612ef75760008555612f3d565b82601f10612f1057805160ff1916838001178555612f3d565b82800160010185558215612f3d579182015b82811115612f3d578251825591602001919060010190612f22565b50612f49929150612ffe565b5090565b828054612f5990613798565b90600052602060002090601f016020900481019282612f7b5760008555612f3d565b82601f10612f8c5780548555612f3d565b82800160010185558215612f3d57600052602060002091601f016020900482015b82811115612f3d578254825591600101919060010190612fad565b508054612fd490613798565b6000825580601f10612fe4575050565b601f016020900490600052602060002090810190610f6c91905b5b80821115612f495760008155600101612fff565b600067ffffffffffffffff8084111561302e5761302e613830565b604051601f8501601f19908116603f0116810190828211818310171561305657613056613830565b8160405280935085815286868601111561306f57600080fd5b858560208301376000602087830101525050509392505050565b80356001600160a01b03811681146130a057600080fd5b919050565b803580151581146130a057600080fd5b600082601f8301126130c657600080fd5b6130d583833560208501613013565b9392505050565b6000602082840312156130ee57600080fd5b6130d582613089565b6000806040838503121561310a57600080fd5b61311383613089565b915061312160208401613089565b90509250929050565b60008060006060848603121561313f57600080fd5b61314884613089565b925061315660208501613089565b9150604084013590509250925092565b6000806000806080858703121561317c57600080fd5b61318585613089565b935061319360208601613089565b925060408501359150606085013567ffffffffffffffff8111156131b657600080fd5b8501601f810187136131c757600080fd5b6131d687823560208401613013565b91505092959194509250565b600080604083850312156131f557600080fd5b6131fe83613089565b9150613121602084016130a5565b60008060006060848603121561322157600080fd5b61322a84613089565b9250602084013567ffffffffffffffff81111561324657600080fd5b613252868287016130b5565b925050604084013590509250925092565b6000806040838503121561327657600080fd5b61327f83613089565b946020939093013593505050565b60006020828403121561329f57600080fd5b81356130d581613846565b6000602082840312156132bc57600080fd5b81516130d581613846565b6000602082840312156132d957600080fd5b813567ffffffffffffffff8111156132f057600080fd5b61247b848285016130b5565b6000806040838503121561330f57600080fd5b823567ffffffffffffffff8082111561332757600080fd5b613333868387016130b5565b9350602085013591508082111561334957600080fd5b50613356858286016130b5565b9150509250929050565b60006020828403121561337257600080fd5b5035919050565b6000806040838503121561338c57600080fd5b82359150613121602084016130a5565b600080604083850312156133af57600080fd5b82359150602083013567ffffffffffffffff8111156133cd57600080fd5b613356858286016130b5565b600081518084526020808501808196508360051b8101915082860160005b8581101561344757828403895281516040815181875261341982880182613454565b915050868201519150858103878701526134338183613454565b9a87019a95505050908401906001016133f7565b5091979650505050505050565b6000815180845261346c81602086016020860161376c565b601f01601f19169290920160200192915050565b6000825161349281846020870161376c565b9190910192915050565b600083516134ae81846020880161376c565b8351908301906134c281836020880161376c565b01949350505050565b6001600160a01b03858116825284166020820152604081018390526080606082018190526000906134fe90830184613454565b9695505050505050565b60006020808301818452808551808352604092508286019150828160051b87010184880160005b8381101561357957888303603f190185528151805187855261355388860182613454565b918901516001600160a01b0316948901949094529487019492509086019060010161352f565b509098975050505050505050565b6020815260006130d560208301846133d9565b6020815260006130d56020830184613454565b6020808252602d908201527f4552433732313a2063616c6c6572206973206e6f7420746f6b656e206f776e6560408201526c1c881bdc88185c1c1c9bdd9959609a1b606082015260800190565b60208082526032908201527f4552433732313a207472616e7366657220746f206e6f6e20455243373231526560408201527131b2b4bb32b91034b6b83632b6b2b73a32b960711b606082015260800190565b60208082526025908201527f4552433732313a207472616e736665722066726f6d20696e636f72726563742060408201526437bbb732b960d91b606082015260800190565b602081528151602082015260018060a01b0360208301511660408201526000604083015160a060608401526136c960c0840182613454565b90506060840151601f19808584030160808601526136e78383613454565b925060808601519150808584030160a08601525061370582826133d9565b95945050505050565b6020815281516020820152602082015160408201526000604083015160608084015261247b6080840182613454565b60008219821115613750576137506137ee565b500190565b600082821015613767576137676137ee565b500390565b60005b8381101561378757818101518382015260200161376f565b83811115611a205750506000910152565b600181811c908216806137ac57607f821691505b602082108114156137cd57634e487b7160e01b600052602260045260246000fd5b50919050565b60006000198214156137e7576137e76137ee565b5060010190565b634e487b7160e01b600052601160045260246000fd5b634e487b7160e01b600052603160045260246000fd5b634e487b7160e01b600052603260045260246000fd5b634e487b7160e01b600052604160045260246000fd5b6001600160e01b031981168114610f6c57600080fdfea264697066735822122045f76c97020c2cd98ef5394ab44164c1b064d882d8bbd282108a7f0dab3d949c64736f6c63430008070033a2646970667358221220de821a805935dde5216b15813c6d5f3957e792a4478ef3ef3765fd7a79e320c064736f6c63430008070033",
  "linkReferences": {},
  "deployedLinkReferences": {}
}