{
  "_format": "hh-sol-artifact-1",
  "contractName": "TamboraFactory",
  "sourceName": "contracts/TamboraFactory.sol",
  "abi": [
    {
      "inputs": [],
      "stateMutability": "nonpayable",
      "type": "constructor"
    },
    {
      "anonymous": false,
      "inputs": [
        {
          "indexed": true,
          "internalType": "contract Tambora",
          "name": "contractAddr",
          "type": "address"
        }
      ],
      "name": "Deployed",
      "type": "event"
    },
    {
      "inputs": [
        {
          "internalType": "uint256",
          "name": "mintFee_",
          "type": "uint256"
        },
        {
          "internalType": "uint256",
          "name": "contractFee_",
          "type": "uint256"
        }
      ],
      "name": "changeFees",
      "outputs": [],
      "stateMutability": "nonpayable",
      "type": "function"
    },
    {
      "inputs": [],
      "name": "contractFee",
      "outputs": [
        {
          "internalType": "uint256",
          "name": "",
          "type": "uint256"
        }
      ],
      "stateMutability": "view",
      "type": "function"
    },
    {
      "inputs": [
        {
          "internalType": "string",
          "name": "name",
          "type": "string"
        },
        {
          "internalType": "string",
          "name": "symbol",
          "type": "string"
        },
        {
          "internalType": "uint256",
          "name": "price_",
          "type": "uint256"
        },
        {
          "internalType": "string",
          "name": "contractType_",
          "type": "string"
        },
        {
          "internalType": "address",
          "name": "to_",
          "type": "address"
        },
        {
          "internalType": "string",
          "name": "uri_",
          "type": "string"
        },
        {
          "internalType": "uint256",
          "name": "mintFee_",
          "type": "uint256"
        },
        {
          "internalType": "uint256",
          "name": "contractFee_",
          "type": "uint256"
        }
      ],
      "name": "deployTambora",
      "outputs": [],
      "stateMutability": "payable",
      "type": "function"
    },
    {
      "inputs": [
        {
          "internalType": "string",
          "name": "name_",
          "type": "string"
        }
      ],
      "name": "getContractAddress",
      "outputs": [
        {
          "internalType": "contract Tambora",
          "name": "",
          "type": "address"
        }
      ],
      "stateMutability": "view",
      "type": "function"
    },
    {
      "inputs": [],
      "name": "getDeployedContracts",
      "outputs": [
        {
          "internalType": "contract Tambora[]",
          "name": "",
          "type": "address[]"
        }
      ],
      "stateMutability": "view",
      "type": "function"
    },
    {
      "inputs": [],
      "name": "getNames",
      "outputs": [
        {
          "internalType": "string[]",
          "name": "",
          "type": "string[]"
        }
      ],
      "stateMutability": "view",
      "type": "function"
    },
    {
      "inputs": [
        {
          "internalType": "address",
          "name": "contractOwner",
          "type": "address"
        }
      ],
      "name": "getOwnedContracts",
      "outputs": [
        {
          "internalType": "contract Tambora[]",
          "name": "",
          "type": "address[]"
        }
      ],
      "stateMutability": "view",
      "type": "function"
    },
    {
      "inputs": [],
      "name": "mintFee",
      "outputs": [
        {
          "internalType": "uint256",
          "name": "",
          "type": "uint256"
        }
      ],
      "stateMutability": "view",
      "type": "function"
    },
    {
      "inputs": [
        {
          "internalType": "uint256",
          "name": "",
          "type": "uint256"
        }
      ],
      "name": "names",
      "outputs": [
        {
          "internalType": "string",
          "name": "",
          "type": "string"
        }
      ],
      "stateMutability": "view",
      "type": "function"
    }
  ],
  "bytecode": "0x608060405234801561001057600080fd5b50600280546001600160a01b031916331790556601c6bf52634000600090815566b1a2bc2ec5000060015561509a90819061004b90396000f3fe608060405260043610620000915760003560e01c8063aa9a068f1162000060578063aa9a068f146200015a578063c715bdb91462000181578063cd838f0f1462000198578063d41977cd14620001bf578063e5d2f8e314620001d757600080fd5b806304433bbc146200009657806313966db514620000d857806321ecff5b14620000ff5780634622ab031462000126575b600080fd5b348015620000a357600080fd5b50620000bb620000b53660046200089f565b620001fc565b6040516001600160a01b0390911681526020015b60405180910390f35b348015620000e557600080fd5b50620000f060005481565b604051908152602001620000cf565b3480156200010c57600080fd5b50620001246200011e366004620009e4565b6200022f565b005b3480156200013357600080fd5b506200014b62000145366004620009ca565b6200025b565b604051620000cf919062000ba4565b3480156200016757600080fd5b506200017262000310565b604051620000cf919062000aef565b6200012462000192366004620008e0565b62000374565b348015620001a557600080fd5b50620001b0620005b9565b604051620000cf919062000b3e565b348015620001cc57600080fd5b50620000f060015481565b348015620001e457600080fd5b5062000172620001f63660046200087a565b6200069c565b600060068260405162000210919062000a35565b908152604051908190036020019020546001600160a01b031692915050565b6002546001600160a01b0316336001600160a01b0316146200025057600080fd5b600091909155600155565b600481815481106200026c57600080fd5b906000526020600020016000915090508054620002899062000bec565b80601f0160208091040260200160405190810160405280929190818152602001828054620002b79062000bec565b8015620003085780601f10620002dc5761010080835404028352916020019162000308565b820191906000526020600020905b815481529060010190602001808311620002ea57829003601f168201915b505050505081565b606060038054806020026020016040519081016040528092919081815260200182805480156200036a57602002820191906000526020600020905b81546001600160a01b031681526001909101906020018083116200034b575b5050505050905090565b6001543410156200038457600080fd5b60006200039189620001fc565b6001600160a01b031614620003e25760405162461bcd60e51b81526020600482015260136024820152724e616d6520616c72656164792065786973747360681b604482015260640160405180910390fd5b600033898989898989600260009054906101000a90046001600160a01b03168a8a604051620004119062000714565b620004269a9998979695949392919062000a53565b604051809103906000f08015801562000443573d6000803e3d6000fd5b506003805460018082019092557fc2575a0e9e593c00f959f8c92f12db2869c3395a3b0502d05e2516446f71f85b0180546001600160a01b0319166001600160a01b0384161790556004805491820181556000528a51919250620004d1917f8a35acfbc15ff81a39ae7d344fd709f28e8600b4aa8c65c6b64bfe7fe36bd19b9091019060208c019062000722565b508060068a604051620004e5919062000a35565b90815260405190819003602001812080546001600160a01b039384166001600160a01b0319909116179055908216907ff40fcec21964ffb566044d083b4073f29f7f7929110ea19e1b3ebe375d89055e90600090a2336000908152600560209081526040808320805460018101825590845291832090910180546001600160a01b038581166001600160a01b03199092169190911790915560025491519116913480156108fc02929091818181858888f19350505050158015620005ad573d6000803e3d6000fd5b50505050505050505050565b60606004805480602002602001604051908101604052809291908181526020016000905b8282101562000693578382906000526020600020018054620005ff9062000bec565b80601f01602080910402602001604051908101604052809291908181526020018280546200062d9062000bec565b80156200067e5780601f1062000652576101008083540402835291602001916200067e565b820191906000526020600020905b8154815290600101906020018083116200066057829003601f168201915b505050505081526020019060010190620005dd565b50505050905090565b6001600160a01b0381166000908152600560209081526040918290208054835181840281018401909452808452606093928301828280156200070857602002820191906000526020600020905b81546001600160a01b03168152600190910190602001808311620006e9575b50505050509050919050565b6144258062000c4083390190565b828054620007309062000bec565b90600052602060002090601f0160209004810192826200075457600085556200079f565b82601f106200076f57805160ff19168380011785556200079f565b828001600101855582156200079f579182015b828111156200079f57825182559160200191906001019062000782565b50620007ad929150620007b1565b5090565b5b80821115620007ad5760008155600101620007b2565b80356001600160a01b0381168114620007e057600080fd5b919050565b600082601f830112620007f757600080fd5b813567ffffffffffffffff8082111562000815576200081562000c29565b604051601f8301601f19908116603f0116810190828211818310171562000840576200084062000c29565b816040528381528660208588010111156200085a57600080fd5b836020870160208301376000602085830101528094505050505092915050565b6000602082840312156200088d57600080fd5b6200089882620007c8565b9392505050565b600060208284031215620008b257600080fd5b813567ffffffffffffffff811115620008ca57600080fd5b620008d884828501620007e5565b949350505050565b600080600080600080600080610100898b031215620008fe57600080fd5b883567ffffffffffffffff808211156200091757600080fd5b620009258c838d01620007e5565b995060208b01359150808211156200093c57600080fd5b6200094a8c838d01620007e5565b985060408b0135975060608b01359150808211156200096857600080fd5b620009768c838d01620007e5565b96506200098660808c01620007c8565b955060a08b01359150808211156200099d57600080fd5b50620009ac8b828c01620007e5565b93505060c0890135915060e089013590509295985092959890939650565b600060208284031215620009dd57600080fd5b5035919050565b60008060408385031215620009f857600080fd5b50508035926020909101359150565b6000815180845262000a2181602086016020860162000bb9565b601f01601f19169290920160200192915050565b6000825162000a4981846020870162000bb9565b9190910192915050565b6001600160a01b038b811682526101406020830181905260009162000a7b8483018e62000a07565b9150838203604085015262000a91828d62000a07565b91508a6060850152838203608085015262000aad828b62000a07565b915080891660a085015283820360c085015262000acb828962000a07565b961660e0840152505061010081019290925261012090910152979650505050505050565b6020808252825182820181905260009190848201906040850190845b8181101562000b325783516001600160a01b03168352928401929184019160010162000b0b565b50909695505050505050565b6000602080830181845280855180835260408601915060408160051b870101925083870160005b8281101562000b9757603f1988860301845262000b8485835162000a07565b9450928501929085019060010162000b65565b5092979650505050505050565b60208152600062000898602083018462000a07565b60005b8381101562000bd657818101518382015260200162000bbc565b8381111562000be6576000848401525b50505050565b600181811c9082168062000c0157607f821691505b6020821081141562000c2357634e487b7160e01b600052602260045260246000fd5b50919050565b634e487b7160e01b600052604160045260246000fdfe60806040523480156200001157600080fd5b50604051620044253803806200442583398101604081905262000034916200099b565b8851899089906200004d90600090602085019062000821565b5080516200006390600190602084019062000821565b5050600b80546001600160a01b03808e166001600160a01b031992831617909255600a80549287169290911691909117905550600f879055600c829055600d8190558551620000ba90601290602089019062000821565b50600a6011819055605a60105560408051606081018252600080825260016020808401918252938301948552818052601790935290517fd840e16649f6b9a295d95876f4633d3a6b10b55e8162971cf78afd886d5ec89b5590517fd840e16649f6b9a295d95876f4633d3a6b10b55e8162971cf78afd886d5ec89c5590517fd840e16649f6b9a295d95876f4633d3a6b10b55e8162971cf78afd886d5ec89d556200016790869062000231565b62000174600085620003d6565b6001600e5560408051606081018252438152426020808301918252928201878152600080526018845282517f999d26de3473317ead3eeaf34ca78057f1439db67b6953469c3c96ce9caf6bd790815591517f999d26de3473317ead3eeaf34ca78057f1439db67b6953469c3c96ce9caf6bd855518051929391926200021d927f999d26de3473317ead3eeaf34ca78057f1439db67b6953469c3c96ce9caf6bd992019062000821565b509050505050505050505050505062000b51565b6001600160a01b0382166200028d5760405162461bcd60e51b815260206004820181905260248201527f4552433732313a206d696e7420746f20746865207a65726f206164647265737360448201526064015b60405180910390fd5b6000818152600260205260409020546001600160a01b031615620002f45760405162461bcd60e51b815260206004820152601c60248201527f4552433732313a20746f6b656e20616c7265616479206d696e74656400000000604482015260640162000284565b6200030460008383600162000477565b6000818152600260205260409020546001600160a01b0316156200036b5760405162461bcd60e51b815260206004820152601c60248201527f4552433732313a20746f6b656e20616c7265616479206d696e74656400000000604482015260640162000284565b6001600160a01b038216600081815260036020908152604080832080546001019055848352600290915280822080546001600160a01b0319168417905551839291907fddf252ad1be2c89b69c2b068fc378daa952ba7f163c4a11628f55a4df523b3ef908290a45050565b6000828152600260205260409020546001600160a01b0316620004515760405162461bcd60e51b815260206004820152602c60248201527f4552433732314d657461646174613a2055524920736574206f66206e6f6e657860448201526b34b9ba32b73a103a37b5b2b760a11b606482015260840162000284565b60008281526013602090815260409091208251620004729284019062000821565b505050565b6200049084848484620005db60201b62001a001760201c565b6001811115620005095760405162461bcd60e51b815260206004820152603560248201527f455243373231456e756d657261626c653a20636f6e736563757469766520747260448201527f616e7366657273206e6f7420737570706f727465640000000000000000000000606482015260840162000284565b816001600160a01b03851662000568576200056281600880546000838152600960205260408120829055600182018355919091527ff3f7a9fe364faab93b216da50a3214154f22a0a2b415b23a84c8169e8b636ee30155565b6200058e565b836001600160a01b0316856001600160a01b0316146200058e576200058e8582620005e1565b6001600160a01b038416620005ae57620005a8816200068e565b620005d4565b846001600160a01b0316846001600160a01b031614620005d457620005d4848262000748565b5050505050565b50505050565b60006001620005fb846200079960201b620010ba1760201c565b62000607919062000aac565b6000838152600760205260409020549091508082146200065b576001600160a01b03841660009081526006602090815260408083208584528252808320548484528184208190558352600790915290208190555b5060009182526007602090815260408084208490556001600160a01b039094168352600681528383209183525290812055565b600854600090620006a29060019062000aac565b60008381526009602052604081205460088054939450909284908110620006cd57620006cd62000b25565b906000526020600020015490508060088381548110620006f157620006f162000b25565b60009182526020808320909101929092558281526009909152604080822084905585825281205560088054806200072c576200072c62000b0f565b6001900381819060005260206000200160009055905550505050565b600062000760836200079960201b620010ba1760201c565b6001600160a01b039093166000908152600660209081526040808320868452825280832085905593825260079052919091209190915550565b60006001600160a01b038216620008055760405162461bcd60e51b815260206004820152602960248201527f4552433732313a2061646472657373207a65726f206973206e6f7420612076616044820152683634b21037bbb732b960b91b606482015260840162000284565b506001600160a01b031660009081526003602052604090205490565b8280546200082f9062000ad2565b90600052602060002090601f0160209004810192826200085357600085556200089e565b82601f106200086e57805160ff19168380011785556200089e565b828001600101855582156200089e579182015b828111156200089e57825182559160200191906001019062000881565b50620008ac929150620008b0565b5090565b5b80821115620008ac5760008155600101620008b1565b80516001600160a01b0381168114620008df57600080fd5b919050565b600082601f830112620008f657600080fd5b81516001600160401b038082111562000913576200091362000b3b565b604051601f8301601f19908116603f011681019082821181831017156200093e576200093e62000b3b565b816040528381526020925086838588010111156200095b57600080fd5b600091505b838210156200097f578582018301518183018401529082019062000960565b83821115620009915760008385830101525b9695505050505050565b6000806000806000806000806000806101408b8d031215620009bc57600080fd5b620009c78b620008c7565b60208c0151909a506001600160401b0380821115620009e557600080fd5b620009f38e838f01620008e4565b9a5060408d015191508082111562000a0a57600080fd5b62000a188e838f01620008e4565b995060608d0151985060808d015191508082111562000a3657600080fd5b62000a448e838f01620008e4565b975062000a5460a08e01620008c7565b965060c08d015191508082111562000a6b57600080fd5b5062000a7a8d828e01620008e4565b94505062000a8b60e08c01620008c7565b92506101008b015191506101208b015190509295989b9194979a5092959850565b60008282101562000acd57634e487b7160e01b600052601160045260246000fd5b500390565b600181811c9082168062000ae757607f821691505b6020821081141562000b0957634e487b7160e01b600052602260045260246000fd5b50919050565b634e487b7160e01b600052603160045260246000fd5b634e487b7160e01b600052603260045260246000fd5b634e487b7160e01b600052604160045260246000fd5b6138c48062000b616000396000f3fe6080604052600436106102515760003560e01c806395d89b4111610139578063b09afec1116100b6578063d41977cd1161007a578063d41977cd14610711578063d431a24814610727578063e985e9c51461073a578063eb9ce16314610783578063f9dc375f14610798578063ffe64434146107ab57600080fd5b8063b09afec11461067c578063b88d4fde146106a9578063ba7aef43146106c9578063c87b56dd146106dc578063cb2ef6f7146106fc57600080fd5b8063a22cb465116100fd578063a22cb465146105a3578063a28039cd146105c3578063a9184582146105e3578063aeb20b9414610603578063af80a5be1461065a57600080fd5b806395d89b4114610508578063967615951461051d57806397a333421461053d578063a00745b61461055d578063a035b1fe1461058d57600080fd5b8063396876bd116101d25780635a9be11b116101965780635a9be11b1461044e5780635bf61cfe146104565780636352211e14610478578063673448dd1461049857806370a08231146104c85780638da5cb5b146104e857600080fd5b8063396876bd146103b85780633c084fa5146103ce5780634261917a146103ee57806342842e0e1461040e5780634f6ccce71461042e57600080fd5b806313966db51161021957806313966db51461032957806318160ddd1461034d5780632291e3881461036257806323b872dd146103785780632f745c591461039857600080fd5b806301ffc9a71461025657806306fdde031461028b578063081812fc146102ad578063095ea7b3146102e55780630e37b4fd14610307575b600080fd5b34801561026257600080fd5b50610276610271366004613285565b6107cb565b60405190151581526020015b60405180910390f35b34801561029757600080fd5b506102a06107f6565b60405161028291906135cc565b3480156102b957600080fd5b506102cd6102c8366004613358565b610888565b6040516001600160a01b039091168152602001610282565b3480156102f157600080fd5b5061030561030036600461325b565b6108af565b005b34801561031357600080fd5b5061031c6109ca565b60405161028291906135b9565b34801561033557600080fd5b5061033f600c5481565b604051908152602001610282565b34801561035957600080fd5b5060085461033f565b34801561036e57600080fd5b5061033f60115481565b34801561038457600080fd5b50610305610393366004613122565b610b62565b3480156103a457600080fd5b5061033f6103b336600461325b565b610b93565b3480156103c457600080fd5b5061033f60105481565b3480156103da57600080fd5b506103056103e9366004613394565b610c29565b3480156103fa57600080fd5b506103056104093660046132f4565b610d2b565b34801561041a57600080fd5b50610305610429366004613122565b610df3565b34801561043a57600080fd5b5061033f610449366004613358565b610e0e565b610305610ea1565b34801561046257600080fd5b5061046b610f5f565b604051610282919061353a565b34801561048457600080fd5b506102cd610493366004613358565b61105a565b3480156104a457600080fd5b506102766104b33660046130d4565b60156020526000908152604090205460ff1681565b3480156104d457600080fd5b5061033f6104e33660046130d4565b6110ba565b3480156104f457600080fd5b50600b546102cd906001600160a01b031681565b34801561051457600080fd5b506102a0611140565b34801561052957600080fd5b506103056105383660046132bf565b61114f565b34801561054957600080fd5b506102a06105583660046130d4565b61124c565b34801561056957600080fd5b506102766105783660046130d4565b60146020526000908152604090205460ff1681565b34801561059957600080fd5b5061033f600f5481565b3480156105af57600080fd5b506103056105be3660046131da565b6112e6565b3480156105cf57600080fd5b506103056105de366004613371565b6112f5565b3480156105ef57600080fd5b506103056105fe366004613358565b611579565b34801561060f57600080fd5b5061063f61061e366004613358565b60176020526000908152604090208054600182015460029092015490919083565b60408051938452602084019290925290820152606001610282565b34801561066657600080fd5b5061066f61165d565b60405161028291906136c3565b34801561068857600080fd5b5061069c610697366004613358565b6118df565b6040516102829190613740565b3480156106b557600080fd5b506103056106c436600461315e565b6119ce565b6103056106d7366004613204565b611a06565b3480156106e857600080fd5b506102a06106f7366004613358565b611cbb565b34801561070857600080fd5b506102a0611e4a565b34801561071d57600080fd5b5061033f600d5481565b610305610735366004613358565b611e57565b34801561074657600080fd5b506102766107553660046130ef565b6001600160a01b03918216600090815260056020908152604080832093909416825291909152205460ff1690565b34801561078f57600080fd5b5061046b611f55565b6103056107a63660046132bf565b612058565b3480156107b757600080fd5b506103056107c6366004613358565b612206565b60006001600160e01b0319821663780e9d6360e01b14806107f057506107f0826122df565b92915050565b606060008054610805906137ca565b80601f0160208091040260200160405190810160405280929190818152602001828054610831906137ca565b801561087e5780601f106108535761010080835404028352916020019161087e565b820191906000526020600020905b81548152906001019060200180831161086157829003601f168201915b5050505050905090565b60006108938261232f565b506000908152600460205260409020546001600160a01b031690565b60006108ba8261105a565b9050806001600160a01b0316836001600160a01b0316141561092d5760405162461bcd60e51b815260206004820152602160248201527f4552433732313a20617070726f76616c20746f2063757272656e74206f776e656044820152603960f91b60648201526084015b60405180910390fd5b336001600160a01b038216148061094957506109498133610755565b6109bb5760405162461bcd60e51b815260206004820152603d60248201527f4552433732313a20617070726f76652063616c6c6572206973206e6f7420746f60448201527f6b656e206f776e6572206f7220617070726f76656420666f7220616c6c0000006064820152608401610924565b6109c5838361238e565b505050565b606060006109d7336110ba565b116109e157600080fd5b601c805480602002602001604051908101604052809291908181526020016000905b82821015610b595783829060005260206000209060020201604051806040016040529081600082018054610a36906137ca565b80601f0160208091040260200160405190810160405280929190818152602001828054610a62906137ca565b8015610aaf5780601f10610a8457610100808354040283529160200191610aaf565b820191906000526020600020905b815481529060010190602001808311610a9257829003601f168201915b50505050508152602001600182018054610ac8906137ca565b80601f0160208091040260200160405190810160405280929190818152602001828054610af4906137ca565b8015610b415780601f10610b1657610100808354040283529160200191610b41565b820191906000526020600020905b815481529060010190602001808311610b2457829003601f168201915b50505050508152505081526020019060010190610a03565b50505050905090565b610b6c33826123fc565b610b885760405162461bcd60e51b8152600401610924906135df565b6109c583838361247b565b6000610b9e836110ba565b8210610c005760405162461bcd60e51b815260206004820152602b60248201527f455243373231456e756d657261626c653a206f776e657220696e646578206f7560448201526a74206f6620626f756e647360a81b6064820152608401610924565b506001600160a01b03919091166000908152600660209081526040808320938352929052205490565b33610c338361105a565b6001600160a01b031614610c4657600080fd5b60006040518060400160405280838152602001610c603390565b6001600160a01b03169052601a805460018101825560009190915281518051929350839260029092027f057c384a7d1c54f3a1b2e5e67b2617b8224fdfd1ea7234eea573a6ff665ff63e0191610cbe91839160209190910190612ec1565b5060209190910151600190910180546001600160a01b0319166001600160a01b03909216919091179055604051610cf69082906134c3565b604051908190038120907f88db4a536f075851673fbcb81050ab51c0a709de0eef6aa0c872a927c0ade24c90600090a2505050565b610d336125ec565b604080518082019091528281526020808201839052601c805460018101825560009190915282518051849360029093027f0e4562a10381dec21b205ed72637e6b1b523bdd0e4d4d50af5cd23dd4500a2110192610d94928492910190612ec1565b506020828101518051610dad9260018501920190612ec1565b50505082604051610dbe9190613478565b604051908190038120907f035b065922620bc9e29f8f7e5156f5e151ecd66c99b686b6da840a49f68bc20890600090a2505050565b6109c5838383604051806020016040528060008152506119ce565b6000610e1960085490565b8210610e7c5760405162461bcd60e51b815260206004820152602c60248201527f455243373231456e756d657261626c653a20676c6f62616c20696e646578206f60448201526b7574206f6620626f756e647360a01b6064820152608401610924565b60088281548110610e8f57610e8f61384c565b90600052602060002001549050919050565b610ea96125ec565b66b1a2bc2ec50000341015610f0c5760405162461bcd60e51b8152602060048201526024808201527f54686973207472616e73616374696f6e20726571756972657320302e303520656044820152633a3432b960e11b6064820152608401610924565b606460106000828254610f1f919061376f565b9091555050600a546001600160a01b03166108fc346040518115909202916000818181858888f19350505050158015610f5c573d6000803e3d6000fd5b50565b6060601b805480602002602001604051908101604052809291908181526020016000905b82821015610b595783829060005260206000209060020201604051806040016040529081600082018054610fb6906137ca565b80601f0160208091040260200160405190810160405280929190818152602001828054610fe2906137ca565b801561102f5780601f106110045761010080835404028352916020019161102f565b820191906000526020600020905b81548152906001019060200180831161101257829003601f168201915b50505091835250506001918201546001600160a01b0316602091820152918352929092019101610f83565b6000818152600260205260408120546001600160a01b0316806107f05760405162461bcd60e51b8152602060048201526018602482015277115490cdcc8c4e881a5b9d985b1a59081d1bdad95b88125160421b6044820152606401610924565b60006001600160a01b0382166111245760405162461bcd60e51b815260206004820152602960248201527f4552433732313a2061646472657373207a65726f206973206e6f7420612076616044820152683634b21037bbb732b960b91b6064820152608401610924565b506001600160a01b031660009081526003602052604090205490565b606060018054610805906137ca565b600060405180604001604052808381526020016111693390565b6001600160a01b03169052601b805460018101825560009190915281518051929350839260029092027f3ad8aa4f87544323a9d1e5dd902f40c356527a7955687113db5f9a85ad579dc101916111c791839160209190910190612ec1565b50602091820151600191820180546001600160a01b0319166001600160a01b039092169190911790553360009081526014909252604091829020805460ff19169091179055516112189082906134c3565b604051908190038120907f88db4a536f075851673fbcb81050ab51c0a709de0eef6aa0c872a927c0ade24c90600090a25050565b60166020526000908152604090208054611265906137ca565b80601f0160208091040260200160405190810160405280929190818152602001828054611291906137ca565b80156112de5780601f106112b3576101008083540402835291602001916112de565b820191906000526020600020905b8154815290600101906020018083116112c157829003601f168201915b505050505081565b6112f1338383612648565b5050565b6112fd6125ec565b6005601054101561130d57600080fd5b6000601b83815481106113225761132261384c565b906000526020600020906002020160405180604001604052908160008201805461134b906137ca565b80601f0160208091040260200160405190810160405280929190818152602001828054611377906137ca565b80156113c45780601f10611399576101008083540402835291602001916113c4565b820191906000526020600020905b8154815290600101906020018083116113a757829003601f168201915b5050509183525050600191909101546001600160a01b03166020909101529050811561143657602080820180516001600160a01b039081166000908152601584526040808220805460ff191660011790558551935190921681526016845220815161143493919290910190612ec1565b505b8115158160405161144791906134c3565b604051908190038120907f5b5cc648c0cdb118eeb9957a32510510d658bb499f3d22585ddf52d84082956c90600090a3601b805461148790600190613787565b815481106114975761149761384c565b9060005260206000209060020201601b84815481106114b8576114b861384c565b906000526020600020906002020160008201816000019080546114da906137ca565b6114e5929190612f45565b50600191820154910180546001600160a01b0319166001600160a01b03909216919091179055601b80548061151c5761151c613836565b6000828152602081206000199092019160028302019061153c8282612fc0565b5060010180546001600160a01b031916905590556020908101516001600160a01b03166000908152601490915260409020805460ff191690555050565b6115816125ec565b601a805461159190600190613787565b815481106115a1576115a161384c565b9060005260206000209060020201601a82815481106115c2576115c261384c565b906000526020600020906002020160008201816000019080546115e4906137ca565b6115ef929190612f45565b50600191820154910180546001600160a01b0319166001600160a01b03909216919091179055601a80548061162657611626613836565b600082815260208120600019909201916002830201906116468282612fc0565b5060010180546001600160a01b0319169055905550565b6116986040518060a001604052806000815260200160006001600160a01b031681526020016060815260200160608152602001606081525090565b6040805160a081018252600e548152600b546001600160a01b031660208201526012805491928301916116ca906137ca565b80601f01602080910402602001604051908101604052809291908181526020018280546116f6906137ca565b80156117435780601f1061171857610100808354040283529160200191611743565b820191906000526020600020905b81548152906001019060200180831161172657829003601f168201915b505050505081526020016117576000611cbb565b8152602001601c805480602002602001604051908101604052809291908181526020016000905b828210156118d457838290600052602060002090600202016040518060400160405290816000820180546117b1906137ca565b80601f01602080910402602001604051908101604052809291908181526020018280546117dd906137ca565b801561182a5780601f106117ff5761010080835404028352916020019161182a565b820191906000526020600020905b81548152906001019060200180831161180d57829003601f168201915b50505050508152602001600182018054611843906137ca565b80601f016020809104026020016040519081016040528092919081815260200182805461186f906137ca565b80156118bc5780601f10611891576101008083540402835291602001916118bc565b820191906000526020600020905b81548152906001019060200180831161189f57829003601f168201915b5050505050815250508152602001906001019061177e565b505050915250919050565b61190360405180606001604052806000815260200160008152602001606081525090565b601860008381526020019081526020016000206040518060600160405290816000820154815260200160018201548152602001600282018054611945906137ca565b80601f0160208091040260200160405190810160405280929190818152602001828054611971906137ca565b80156119be5780601f10611993576101008083540402835291602001916119be565b820191906000526020600020905b8154815290600101906020018083116119a157829003601f168201915b5050505050815250509050919050565b6119d833836123fc565b6119f45760405162461bcd60e51b8152600401610924906135df565b611a0084848484612717565b50505050565b6000600c54600f54611a18919061376f565b905080341015611a845760405162461bcd60e51b815260206004820152603160248201527f4d696e74206661696c65643a2056616c7565206f66206d657373616765206973604482015270103632b9b9903a3430b710383934b1b29760791b6064820152608401610924565b600c54341015611a9357600080fd5b6064600e5410611aef5760405162461bcd60e51b815260206004820152602160248201527f4d696e74206661696c65643a20546f6b656e732061726520736f6c64206f75746044820152601760f91b6064820152608401610924565b33611af98361105a565b6001600160a01b031614611b0c57600080fd5b6000828152601760205260409020600281015460019091015410611b725760405162461bcd60e51b815260206004820152601860248201527f4d696e7420616c6c6f77616e63652065786365656465642e00000000000000006044820152606401610924565b611b7e84600e5461274a565b611b8a600e54846128e3565b60408051606081018252438152426020808301918252828401878152600e546000908152601883529490942083518155915160018301559251805192939192611bd99260028501920190612ec1565b5050600e805491506000611bec83613805565b91905055506000611bfa3490565b90506000600f5482611c0c9190613787565b600b54600f546040519293506001600160a01b039091169181156108fc0291906000818181858888f19350505050158015611c4b573d6000803e3d6000fd5b50600a546040516001600160a01b039091169082156108fc029083906000818181858888f19350505050158015611c86573d6000803e3d6000fd5b506001601760008681526020019081526020016000206001016000828254611cae919061376f565b9091555050505050505050565b6000818152600260205260409020546060906001600160a01b0316611d3a5760405162461bcd60e51b815260206004820152602f60248201527f4552433732314d657461646174613a2055524920717565727920666f72206e6f60448201526e3732bc34b9ba32b73a103a37b5b2b760891b6064820152608401610924565b60008281526013602052604081208054611d53906137ca565b80601f0160208091040260200160405190810160405280929190818152602001828054611d7f906137ca565b8015611dcc5780601f10611da157610100808354040283529160200191611dcc565b820191906000526020600020905b815481529060010190602001808311611daf57829003601f168201915b505050505090506000611dea60408051602081019091526000815290565b9050805160001415611dfd575092915050565b815115611e2f578082604051602001611e17929190613494565b60405160208183030381529060405292505050919050565b80611e398561297b565b604051602001611e17929190613494565b60128054611265906137ca565b3360009081526019602052604090205460ff161515600114611eb35760405162461bcd60e51b81526020600482015260156024820152742cb7ba9030b932903737ba1030b8383937bb32b21760591b6044820152606401610924565b600f54341015611ec257600080fd5b6000818152601760205260408120600201805460059290611ee490849061376f565b92505081905550600560116000828254611efe919061376f565b92505081905550600560106000828254611f189190613787565b9091555050600b546001600160a01b03166108fc346040518115909202916000818181858888f193505050501580156112f1573d6000803e3d6000fd5b6060611f5f6125ec565b601a805480602002602001604051908101604052809291908181526020016000905b82821015610b595783829060005260206000209060020201604051806040016040529081600082018054611fb4906137ca565b80601f0160208091040260200160405190810160405280929190818152602001828054611fe0906137ca565b801561202d5780601f106120025761010080835404028352916020019161202d565b820191906000526020600020905b81548152906001019060200180831161201057829003601f168201915b50505091835250506001918201546001600160a01b0316602091820152918352929092019101611f81565b3360009081526015602052604090205460ff166120b75760405162461bcd60e51b815260206004820152601d60248201527f436c69656e7420686173206e6f74206265656e20617070726f7665642e0000006044820152606401610924565b600560105410156120c757600080fd5b60408051606081018252600e54808252600160208084018281526005858701908152600094855260179092529490922092518355925192820192909255905160029091015561211833600e5461274a565b612124600e54826128e3565b60408051606081018252438152426020808301918252828401858152600e5460009081526018835294909420835181559151600183015592518051929391926121739260028501920190612ec1565b5050600e80549150600061218683613805565b9091555050600b546001600160a01b03166108fc346040518115909202916000818181858888f193505050501580156121c3573d6000803e3d6000fd5b506005601060008282546121d79190613787565b9091555050336000908152601560209081526040808320805460ff1916905560169091528120610f5c91612fc0565b61220e6125ec565b601054601154106122785760405162461bcd60e51b815260206004820152602e60248201527f5468697320636f6e74726163742068617320726561636865642069742773206d60448201526d34b73a1030b63637bbb0b731b29760911b6064820152608401610924565b600160196000601a84815481106122915761229161384c565b6000918252602080832060016002909302018201546001600160a01b0316845283019390935260409091019020805492151560ff1990931692909217909155601a8054909161159191613787565b60006001600160e01b031982166380ac58cd60e01b148061231057506001600160e01b03198216635b5e139f60e01b145b806107f057506301ffc9a760e01b6001600160e01b03198316146107f0565b6000818152600260205260409020546001600160a01b0316610f5c5760405162461bcd60e51b8152602060048201526018602482015277115490cdcc8c4e881a5b9d985b1a59081d1bdad95b88125160421b6044820152606401610924565b600081815260046020526040902080546001600160a01b0319166001600160a01b03841690811790915581906123c38261105a565b6001600160a01b03167f8c5be1e5ebec7d5bd14f71427d1e84f3dd0314c0f7b2291e5b200ac8c7c3b92560405160405180910390a45050565b6000806124088361105a565b9050806001600160a01b0316846001600160a01b0316148061244f57506001600160a01b0380821660009081526005602090815260408083209388168352929052205460ff165b806124735750836001600160a01b031661246884610888565b6001600160a01b0316145b949350505050565b826001600160a01b031661248e8261105a565b6001600160a01b0316146124b45760405162461bcd60e51b81526004016109249061367e565b6001600160a01b0382166125165760405162461bcd60e51b8152602060048201526024808201527f4552433732313a207472616e7366657220746f20746865207a65726f206164646044820152637265737360e01b6064820152608401610924565b6125238383836001612a18565b826001600160a01b03166125368261105a565b6001600160a01b03161461255c5760405162461bcd60e51b81526004016109249061367e565b600081815260046020908152604080832080546001600160a01b03199081169091556001600160a01b0387811680865260038552838620805460001901905590871680865283862080546001019055868652600290945282852080549092168417909155905184937fddf252ad1be2c89b69c2b068fc378daa952ba7f163c4a11628f55a4df523b3ef91a4505050565b600b546001600160a01b031633146126465760405162461bcd60e51b815260206004820181905260248201527f4f776e61626c653a2063616c6c6572206973206e6f7420746865206f776e65726044820152606401610924565b565b816001600160a01b0316836001600160a01b031614156126aa5760405162461bcd60e51b815260206004820152601960248201527f4552433732313a20617070726f766520746f2063616c6c6572000000000000006044820152606401610924565b6001600160a01b03838116600081815260056020908152604080832094871680845294825291829020805460ff191686151590811790915591519182527f17307eab39ab6107e8899845ad3d59bd9653f200f220920489ca2b5937696c31910160405180910390a3505050565b61272284848461247b565b61272e84848484612b4c565b611a005760405162461bcd60e51b81526004016109249061362c565b6001600160a01b0382166127a05760405162461bcd60e51b815260206004820181905260248201527f4552433732313a206d696e7420746f20746865207a65726f20616464726573736044820152606401610924565b6000818152600260205260409020546001600160a01b0316156128055760405162461bcd60e51b815260206004820152601c60248201527f4552433732313a20746f6b656e20616c7265616479206d696e746564000000006044820152606401610924565b612813600083836001612a18565b6000818152600260205260409020546001600160a01b0316156128785760405162461bcd60e51b815260206004820152601c60248201527f4552433732313a20746f6b656e20616c7265616479206d696e746564000000006044820152606401610924565b6001600160a01b038216600081815260036020908152604080832080546001019055848352600290915280822080546001600160a01b0319168417905551839291907fddf252ad1be2c89b69c2b068fc378daa952ba7f163c4a11628f55a4df523b3ef908290a45050565b6000828152600260205260409020546001600160a01b031661295c5760405162461bcd60e51b815260206004820152602c60248201527f4552433732314d657461646174613a2055524920736574206f66206e6f6e657860448201526b34b9ba32b73a103a37b5b2b760a11b6064820152608401610924565b600082815260136020908152604090912082516109c592840190612ec1565b6060600061298883612c59565b600101905060008167ffffffffffffffff8111156129a8576129a8613862565b6040519080825280601f01601f1916602001820160405280156129d2576020820181803683370190505b5090508181016020015b600019016f181899199a1a9b1b9c1cb0b131b232b360811b600a86061a8153600a8504945084612a0b57612a10565b6129dc565b509392505050565b6001811115612a875760405162461bcd60e51b815260206004820152603560248201527f455243373231456e756d657261626c653a20636f6e7365637574697665207472604482015274185b9cd9995c9cc81b9bdd081cdd5c1c1bdc9d1959605a1b6064820152608401610924565b816001600160a01b038516612ae357612ade81600880546000838152600960205260408120829055600182018355919091527ff3f7a9fe364faab93b216da50a3214154f22a0a2b415b23a84c8169e8b636ee30155565b612b06565b836001600160a01b0316856001600160a01b031614612b0657612b068582612d31565b6001600160a01b038416612b2257612b1d81612dce565b612b45565b846001600160a01b0316846001600160a01b031614612b4557612b458482612e7d565b5050505050565b60006001600160a01b0384163b15612c4e57604051630a85bd0160e11b81526001600160a01b0385169063150b7a0290612b909033908990889088906004016134fd565b602060405180830381600087803b158015612baa57600080fd5b505af1925050508015612bda575060408051601f3d908101601f19168201909252612bd7918101906132a2565b60015b612c34573d808015612c08576040519150601f19603f3d011682016040523d82523d6000602084013e612c0d565b606091505b508051612c2c5760405162461bcd60e51b81526004016109249061362c565b805181602001fd5b6001600160e01b031916630a85bd0160e11b149050612473565b506001949350505050565b60008072184f03e93ff9f4daa797ed6e38ed64bf6a1f0160401b8310612c985772184f03e93ff9f4daa797ed6e38ed64bf6a1f0160401b830492506040015b6d04ee2d6d415b85acef81000000008310612cc4576d04ee2d6d415b85acef8100000000830492506020015b662386f26fc100008310612ce257662386f26fc10000830492506010015b6305f5e1008310612cfa576305f5e100830492506008015b6127108310612d0e57612710830492506004015b60648310612d20576064830492506002015b600a83106107f05760010192915050565b60006001612d3e846110ba565b612d489190613787565b600083815260076020526040902054909150808214612d9b576001600160a01b03841660009081526006602090815260408083208584528252808320548484528184208190558352600790915290208190555b5060009182526007602090815260408084208490556001600160a01b039094168352600681528383209183525290812055565b600854600090612de090600190613787565b60008381526009602052604081205460088054939450909284908110612e0857612e0861384c565b906000526020600020015490508060088381548110612e2957612e2961384c565b6000918252602080832090910192909255828152600990915260408082208490558582528120556008805480612e6157612e61613836565b6001900381819060005260206000200160009055905550505050565b6000612e88836110ba565b6001600160a01b039093166000908152600660209081526040808320868452825280832085905593825260079052919091209190915550565b828054612ecd906137ca565b90600052602060002090601f016020900481019282612eef5760008555612f35565b82601f10612f0857805160ff1916838001178555612f35565b82800160010185558215612f35579182015b82811115612f35578251825591602001919060010190612f1a565b50612f41929150612ff6565b5090565b828054612f51906137ca565b90600052602060002090601f016020900481019282612f735760008555612f35565b82601f10612f845780548555612f35565b82800160010185558215612f3557600052602060002091601f016020900482015b82811115612f35578254825591600101919060010190612fa5565b508054612fcc906137ca565b6000825580601f10612fdc575050565b601f016020900490600052602060002090810190610f5c91905b5b80821115612f415760008155600101612ff7565b600067ffffffffffffffff8084111561302657613026613862565b604051601f8501601f19908116603f0116810190828211818310171561304e5761304e613862565b8160405280935085815286868601111561306757600080fd5b858560208301376000602087830101525050509392505050565b80356001600160a01b038116811461309857600080fd5b919050565b8035801515811461309857600080fd5b600082601f8301126130be57600080fd5b6130cd8383356020850161300b565b9392505050565b6000602082840312156130e657600080fd5b6130cd82613081565b6000806040838503121561310257600080fd5b61310b83613081565b915061311960208401613081565b90509250929050565b60008060006060848603121561313757600080fd5b61314084613081565b925061314e60208501613081565b9150604084013590509250925092565b6000806000806080858703121561317457600080fd5b61317d85613081565b935061318b60208601613081565b925060408501359150606085013567ffffffffffffffff8111156131ae57600080fd5b8501601f810187136131bf57600080fd5b6131ce8782356020840161300b565b91505092959194509250565b600080604083850312156131ed57600080fd5b6131f683613081565b91506131196020840161309d565b60008060006060848603121561321957600080fd5b61322284613081565b9250602084013567ffffffffffffffff81111561323e57600080fd5b61324a868287016130ad565b925050604084013590509250925092565b6000806040838503121561326e57600080fd5b61327783613081565b946020939093013593505050565b60006020828403121561329757600080fd5b81356130cd81613878565b6000602082840312156132b457600080fd5b81516130cd81613878565b6000602082840312156132d157600080fd5b813567ffffffffffffffff8111156132e857600080fd5b612473848285016130ad565b6000806040838503121561330757600080fd5b823567ffffffffffffffff8082111561331f57600080fd5b61332b868387016130ad565b9350602085013591508082111561334157600080fd5b5061334e858286016130ad565b9150509250929050565b60006020828403121561336a57600080fd5b5035919050565b6000806040838503121561338457600080fd5b823591506131196020840161309d565b600080604083850312156133a757600080fd5b82359150602083013567ffffffffffffffff8111156133c557600080fd5b61334e858286016130ad565b600081518084526020808501808196508360051b8101915082860160005b8581101561343f5782840389528151604081518187526134118288018261344c565b9150508682015191508581038787015261342b818361344c565b9a87019a95505050908401906001016133ef565b5091979650505050505050565b6000815180845261346481602086016020860161379e565b601f01601f19169290920160200192915050565b6000825161348a81846020870161379e565b9190910192915050565b600083516134a681846020880161379e565b8351908301906134ba81836020880161379e565b01949350505050565b6000825180516134d781856020850161379e565b6020948501516001600160a01b0316601f91909101601f19169390930192835250500190565b6001600160a01b03858116825284166020820152604081018390526080606082018190526000906135309083018461344c565b9695505050505050565b60006020808301818452808551808352604092508286019150828160051b87010184880160005b838110156135ab57888303603f19018552815180518785526135858886018261344c565b918901516001600160a01b03169489019490945294870194925090860190600101613561565b509098975050505050505050565b6020815260006130cd60208301846133d1565b6020815260006130cd602083018461344c565b6020808252602d908201527f4552433732313a2063616c6c6572206973206e6f7420746f6b656e206f776e6560408201526c1c881bdc88185c1c1c9bdd9959609a1b606082015260800190565b60208082526032908201527f4552433732313a207472616e7366657220746f206e6f6e20455243373231526560408201527131b2b4bb32b91034b6b83632b6b2b73a32b960711b606082015260800190565b60208082526025908201527f4552433732313a207472616e736665722066726f6d20696e636f72726563742060408201526437bbb732b960d91b606082015260800190565b602081528151602082015260018060a01b0360208301511660408201526000604083015160a060608401526136fb60c084018261344c565b90506060840151601f1980858403016080860152613719838361344c565b925060808601519150808584030160a08601525061373782826133d1565b95945050505050565b60208152815160208201526020820151604082015260006040830151606080840152612473608084018261344c565b6000821982111561378257613782613820565b500190565b60008282101561379957613799613820565b500390565b60005b838110156137b95781810151838201526020016137a1565b83811115611a005750506000910152565b600181811c908216806137de57607f821691505b602082108114156137ff57634e487b7160e01b600052602260045260246000fd5b50919050565b600060001982141561381957613819613820565b5060010190565b634e487b7160e01b600052601160045260246000fd5b634e487b7160e01b600052603160045260246000fd5b634e487b7160e01b600052603260045260246000fd5b634e487b7160e01b600052604160045260246000fd5b6001600160e01b031981168114610f5c57600080fdfea2646970667358221220b58b1a607b0375d7610c81ad6bd79dbf46df596bdc84834eba067cfe051ee9e764736f6c63430008070033a264697066735822122002d79d8cbb51a1d495b5ac6c03c9edc73a39940e167a72924b305f546cc35bcf64736f6c63430008070033",
  "linkReferences": {},
  "deployedLinkReferences": {}
}