{
  "_format": "hh-sol-artifact-1",
  "contractName": "TamboraFactory",
  "sourceName": "contracts/TamboraFactory.sol",
  "abi": [
    {
      "inputs": [],
      "stateMutability": "nonpayable",
      "type": "constructor"
    },
    {
      "anonymous": false,
      "inputs": [
        {
          "indexed": true,
          "internalType": "contract Tambora",
          "name": "contractAddr",
          "type": "address"
        }
      ],
      "name": "Deployed",
      "type": "event"
    },
    {
      "inputs": [
        {
          "internalType": "string",
          "name": "name",
          "type": "string"
        },
        {
          "internalType": "string",
          "name": "symbol",
          "type": "string"
        },
        {
          "internalType": "uint256",
          "name": "price_",
          "type": "uint256"
        },
        {
          "internalType": "string",
          "name": "contractType_",
          "type": "string"
        },
        {
          "internalType": "address",
          "name": "to_",
          "type": "address"
        },
        {
          "internalType": "string",
          "name": "uri_",
          "type": "string"
        }
      ],
      "name": "deployTambora",
      "outputs": [],
      "stateMutability": "payable",
      "type": "function"
    },
    {
      "inputs": [
        {
          "internalType": "string",
          "name": "name_",
          "type": "string"
        }
      ],
      "name": "getContractAddress",
      "outputs": [
        {
          "internalType": "contract Tambora",
          "name": "",
          "type": "address"
        }
      ],
      "stateMutability": "view",
      "type": "function"
    },
    {
      "inputs": [],
      "name": "getDeployedContracts",
      "outputs": [
        {
          "internalType": "contract Tambora[]",
          "name": "",
          "type": "address[]"
        }
      ],
      "stateMutability": "view",
      "type": "function"
    },
    {
      "inputs": [],
      "name": "getNames",
      "outputs": [
        {
          "internalType": "string[]",
          "name": "",
          "type": "string[]"
        }
      ],
      "stateMutability": "view",
      "type": "function"
    },
    {
      "inputs": [
        {
          "internalType": "address",
          "name": "contractOwner",
          "type": "address"
        }
      ],
      "name": "getOwnedContracts",
      "outputs": [
        {
          "internalType": "contract Tambora[]",
          "name": "",
          "type": "address[]"
        }
      ],
      "stateMutability": "view",
      "type": "function"
    },
    {
      "inputs": [
        {
          "internalType": "uint256",
          "name": "",
          "type": "uint256"
        }
      ],
      "name": "names",
      "outputs": [
        {
          "internalType": "string",
          "name": "",
          "type": "string"
        }
      ],
      "stateMutability": "view",
      "type": "function"
    },
    {
      "inputs": [
        {
          "internalType": "uint256",
          "name": "index",
          "type": "uint256"
        }
      ],
      "name": "removeContract",
      "outputs": [],
      "stateMutability": "nonpayable",
      "type": "function"
    }
  ],
  "bytecode": "0x608060405234801561001057600080fd5b50600080546001600160a01b03191633178155615a6790819061003390396000f3fe608060405260043610620000795760003560e01c80637cca3b0611620000545780637cca3b06146200010d578063aa9a068f1462000132578063cd838f0f1462000159578063e5d2f8e3146200018057600080fd5b806304433bbc146200007e5780634622ab0314620000c05780634f8bd19814620000f4575b600080fd5b3480156200008b57600080fd5b50620000a36200009d36600462000aa4565b620001a5565b6040516001600160a01b0390911681526020015b60405180910390f35b348015620000cd57600080fd5b50620000e5620000df36600462000bba565b620001d8565b604051620000b7919062000d64565b6200010b6200010536600462000ae5565b6200028d565b005b3480156200011a57600080fd5b506200010b6200012c36600462000bba565b62000516565b3480156200013f57600080fd5b506200014a62000694565b604051620000b7919062000caf565b3480156200016657600080fd5b5062000171620006f8565b604051620000b7919062000cfe565b3480156200018d57600080fd5b506200014a6200019f36600462000a7f565b620007db565b6000600482604051620001b9919062000c02565b908152604051908190036020019020546001600160a01b031692915050565b60028181548110620001e957600080fd5b906000526020600020016000915090508054620002069062000dd2565b80601f0160208091040260200160405190810160405280929190818152602001828054620002349062000dd2565b8015620002855780601f10620002595761010080835404028352916020019162000285565b820191906000526020600020905b8154815290600101906020018083116200026757829003601f168201915b505050505081565b66b1a2bc2ec50000341015620002a257600080fd5b6000620002af87620001a5565b6001600160a01b03161462000324576040517f08c379a000000000000000000000000000000000000000000000000000000000815260206004820152601360248201527f4e616d6520616c72656164792065786973747300000000000000000000000000604482015260640160405180910390fd5b60003387878787878760008054906101000a90046001600160a01b03166040516200034f9062000853565b6200036298979695949392919062000c20565b604051809103906000f0801580156200037f573d6000803e3d6000fd5b506001805480820182557fb10e2d527612073b26eecdfd717e6a320cf44b4afac2b0732d9fcbe2b7fa0cf601805473ffffffffffffffffffffffffffffffffffffffff19166001600160a01b038416179055600280549182018155600052885191925062000417917f405787fa12a823e0f2b7631cc41b3ba8828b3321ca811111fa75cd3aa3bb5ace9091019060208a019062000861565b50806004886040516200042b919062000c02565b90815260405190819003602001812080546001600160a01b0393841673ffffffffffffffffffffffffffffffffffffffff19909116179055908216907ff40fcec21964ffb566044d083b4073f29f7f7929110ea19e1b3ebe375d89055e90600090a2336000908152600360209081526040808320805460018101825590845291832090910180546001600160a01b0385811673ffffffffffffffffffffffffffffffffffffffff1990921691909117909155825491519116913480156108fc02929091818181858888f193505050501580156200050c573d6000803e3d6000fd5b5050505050505050565b6000546001600160a01b031633146200052e57600080fd5b60028054620005409060019062000d79565b8154811062000553576200055362000e25565b906000526020600020016002828154811062000573576200057362000e25565b906000526020600020019080546200058b9062000dd2565b62000598929190620008f0565b506002805480620005ad57620005ad62000e0f565b600190038181906000526020600020016000620005cb919062000974565b905560018054620005de90829062000d79565b81548110620005f157620005f162000e25565b600091825260209091200154600180546001600160a01b03909216918390811062000620576200062062000e25565b9060005260206000200160006101000a8154816001600160a01b0302191690836001600160a01b03160217905550600180548062000662576200066262000e0f565b6000828152602090208101600019908101805473ffffffffffffffffffffffffffffffffffffffff1916905501905550565b60606001805480602002602001604051908101604052809291908181526020018280548015620006ee57602002820191906000526020600020905b81546001600160a01b03168152600190910190602001808311620006cf575b5050505050905090565b60606002805480602002602001604051908101604052809291908181526020016000905b82821015620007d25783829060005260206000200180546200073e9062000dd2565b80601f01602080910402602001604051908101604052809291908181526020018280546200076c9062000dd2565b8015620007bd5780601f106200079157610100808354040283529160200191620007bd565b820191906000526020600020905b8154815290600101906020018083116200079f57829003601f168201915b5050505050815260200190600101906200071c565b50505050905090565b6001600160a01b0381166000908152600360209081526040918290208054835181840281018401909452808452606093928301828280156200084757602002820191906000526020600020905b81546001600160a01b0316815260019091019060200180831162000828575b50505050509050919050565b614be08062000e5283390190565b8280546200086f9062000dd2565b90600052602060002090601f016020900481019282620008935760008555620008de565b82601f10620008ae57805160ff1916838001178555620008de565b82800160010185558215620008de579182015b82811115620008de578251825591602001919060010190620008c1565b50620008ec929150620009b6565b5090565b828054620008fe9062000dd2565b90600052602060002090601f016020900481019282620009225760008555620008de565b82601f10620009355780548555620008de565b82800160010185558215620008de57600052602060002091601f016020900482015b82811115620008de57825482559160010191906001019062000957565b508054620009829062000dd2565b6000825580601f1062000993575050565b601f016020900490600052602060002090810190620009b39190620009b6565b50565b5b80821115620008ec5760008155600101620009b7565b80356001600160a01b0381168114620009e557600080fd5b919050565b600082601f830112620009fc57600080fd5b813567ffffffffffffffff8082111562000a1a5762000a1a62000e3b565b604051601f8301601f19908116603f0116810190828211818310171562000a455762000a4562000e3b565b8160405283815286602085880101111562000a5f57600080fd5b836020870160208301376000602085830101528094505050505092915050565b60006020828403121562000a9257600080fd5b62000a9d82620009cd565b9392505050565b60006020828403121562000ab757600080fd5b813567ffffffffffffffff81111562000acf57600080fd5b62000add84828501620009ea565b949350505050565b60008060008060008060c0878903121562000aff57600080fd5b863567ffffffffffffffff8082111562000b1857600080fd5b62000b268a838b01620009ea565b9750602089013591508082111562000b3d57600080fd5b62000b4b8a838b01620009ea565b965060408901359550606089013591508082111562000b6957600080fd5b62000b778a838b01620009ea565b945062000b8760808a01620009cd565b935060a089013591508082111562000b9e57600080fd5b5062000bad89828a01620009ea565b9150509295509295509295565b60006020828403121562000bcd57600080fd5b5035919050565b6000815180845262000bee81602086016020860162000d9f565b601f01601f19169290920160200192915050565b6000825162000c1681846020870162000d9f565b9190910192915050565b60006101006001600160a01b03808c16845281602085015262000c468285018c62000bd4565b9150838203604085015262000c5c828b62000bd4565b9150886060850152838203608085015262000c78828962000bd4565b915080871660a085015283820360c085015262000c96828762000bd4565b925080851660e085015250509998505050505050505050565b6020808252825182820181905260009190848201906040850190845b8181101562000cf25783516001600160a01b03168352928401929184019160010162000ccb565b50909695505050505050565b6000602080830181845280855180835260408601915060408160051b870101925083870160005b8281101562000d5757603f1988860301845262000d4485835162000bd4565b9450928501929085019060010162000d25565b5092979650505050505050565b60208152600062000a9d602083018462000bd4565b60008282101562000d9a57634e487b7160e01b600052601160045260246000fd5b500390565b60005b8381101562000dbc57818101518382015260200162000da2565b8381111562000dcc576000848401525b50505050565b600181811c9082168062000de757607f821691505b6020821081141562000e0957634e487b7160e01b600052602260045260246000fd5b50919050565b634e487b7160e01b600052603160045260246000fd5b634e487b7160e01b600052603260045260246000fd5b634e487b7160e01b600052604160045260246000fdfe60806040523480156200001157600080fd5b5060405162004be038038062004be08339810160408190526200003491620008b6565b8651879087906200004d9060009060208501906200073c565b508051620000639060019060208401906200073c565b5050600b80546001600160a01b03808c166001600160a01b031992831617909255600a80549285169290911691909117905550600d8590558351620000b09060109060208701906200073c565b50600a600f819055600e81905560408051606081018252600080825260016020808401918252938301948552818052601690935290517f0263c2b778d062355049effc2dece97bc6547ff8a88a3258daa512061c2153dd5590517f0263c2b778d062355049effc2dece97bc6547ff8a88a3258daa512061c2153de5590517f0263c2b778d062355049effc2dece97bc6547ff8a88a3258daa512061c2153df556200015d90849062000225565b6200016a6000836200037f565b6001600c5560408051606081018252438152426020808301918252928201858152600080526017845282517fd840e16649f6b9a295d95876f4633d3a6b10b55e8162971cf78afd886d5ec89b90815591517fd840e16649f6b9a295d95876f4633d3a6b10b55e8162971cf78afd886d5ec89c555180519293919262000213927fd840e16649f6b9a295d95876f4633d3a6b10b55e8162971cf78afd886d5ec89d9201906200073c565b50905050505050505050505062000a7c565b6001600160a01b038216620002815760405162461bcd60e51b815260206004820181905260248201527f4552433732313a206d696e7420746f20746865207a65726f206164647265737360448201526064015b60405180910390fd5b6000818152600260205260409020546001600160a01b031615620002e85760405162461bcd60e51b815260206004820152601c60248201527f4552433732313a20746f6b656e20616c7265616479206d696e74656400000000604482015260640162000278565b620002f66000838362000420565b6001600160a01b038216600090815260036020526040812080546001929062000321908490620009b2565b909155505060008181526002602052604080822080546001600160a01b0319166001600160a01b03861690811790915590518392907fddf252ad1be2c89b69c2b068fc378daa952ba7f163c4a11628f55a4df523b3ef908290a45050565b6000828152600260205260409020546001600160a01b0316620003fa5760405162461bcd60e51b815260206004820152602c60248201527f4552433732314d657461646174613a2055524920736574206f66206e6f6e657860448201526b34b9ba32b73a103a37b5b2b760a11b606482015260840162000278565b600082815260116020908152604090912082516200041b928401906200073c565b505050565b620004388383836200041b60201b62000ad31760201c565b6001600160a01b03831662000496576200049081600880546000838152600960205260408120829055600182018355919091527ff3f7a9fe364faab93b216da50a3214154f22a0a2b415b23a84c8169e8b636ee30155565b620004bc565b816001600160a01b0316836001600160a01b031614620004bc57620004bc8382620004fc565b6001600160a01b038216620004d6576200041b81620005a9565b826001600160a01b0316826001600160a01b0316146200041b576200041b828262000663565b600060016200051684620006b460201b620013111760201c565b620005229190620009cd565b60008381526007602052604090205490915080821462000576576001600160a01b03841660009081526006602090815260408083208584528252808320548484528184208190558352600790915290208190555b5060009182526007602090815260408084208490556001600160a01b039094168352600681528383209183525290812055565b600854600090620005bd90600190620009cd565b60008381526009602052604081205460088054939450909284908110620005e857620005e862000a50565b9060005260206000200154905080600883815481106200060c576200060c62000a50565b600091825260208083209091019290925582815260099091526040808220849055858252812055600880548062000647576200064762000a3a565b6001900381819060005260206000200160009055905550505050565b60006200067b83620006b460201b620013111760201c565b6001600160a01b039093166000908152600660209081526040808320868452825280832085905593825260079052919091209190915550565b60006001600160a01b038216620007205760405162461bcd60e51b815260206004820152602960248201527f4552433732313a2061646472657373207a65726f206973206e6f7420612076616044820152683634b21037bbb732b960b91b606482015260840162000278565b506001600160a01b031660009081526003602052604090205490565b8280546200074a90620009e7565b90600052602060002090601f0160209004810192826200076e5760008555620007b9565b82601f106200078957805160ff1916838001178555620007b9565b82800160010185558215620007b9579182015b82811115620007b95782518255916020019190600101906200079c565b50620007c7929150620007cb565b5090565b5b80821115620007c75760008155600101620007cc565b80516001600160a01b0381168114620007fa57600080fd5b919050565b600082601f8301126200081157600080fd5b81516001600160401b03808211156200082e576200082e62000a66565b604051601f8301601f19908116603f0116810190828211818310171562000859576200085962000a66565b816040528381526020925086838588010111156200087657600080fd5b600091505b838210156200089a57858201830151818301840152908201906200087b565b83821115620008ac5760008385830101525b9695505050505050565b600080600080600080600080610100898b031215620008d457600080fd5b620008df89620007e2565b60208a01519098506001600160401b0380821115620008fd57600080fd5b6200090b8c838d01620007ff565b985060408b01519150808211156200092257600080fd5b620009308c838d01620007ff565b975060608b0151965060808b01519150808211156200094e57600080fd5b6200095c8c838d01620007ff565b95506200096c60a08c01620007e2565b945060c08b01519150808211156200098357600080fd5b50620009928b828c01620007ff565b925050620009a360e08a01620007e2565b90509295985092959890939650565b60008219821115620009c857620009c862000a24565b500190565b600082821015620009e257620009e262000a24565b500390565b600181811c90821680620009fc57607f821691505b6020821081141562000a1e57634e487b7160e01b600052602260045260246000fd5b50919050565b634e487b7160e01b600052601160045260246000fd5b634e487b7160e01b600052603160045260246000fd5b634e487b7160e01b600052603260045260246000fd5b634e487b7160e01b600052604160045260246000fd5b6141548062000a8c6000396000f3fe6080604052600436106102e75760003560e01c806393d34de911610184578063b09afec1116100d6578063d431a2481161008a578063eb9ce16311610064578063eb9ce1631461085c578063f9dc375f14610871578063ffe644341461088457600080fd5b8063d431a248146107e0578063e985e9c5146107f3578063eb4297f61461083c57600080fd5b8063ba7aef43116100bb578063ba7aef4314610798578063c87b56dd146107ab578063cb2ef6f7146107cb57600080fd5b8063b09afec11461074b578063b88d4fde1461077857600080fd5b8063a035b1fe11610138578063a918458211610112578063a9184582146106b2578063aeb20b94146106d2578063af80a5be1461072957600080fd5b8063a035b1fe1461065c578063a22cb46514610672578063a28039cd1461069257600080fd5b8063967615951161016957806396761595146105ec57806397a333421461060c578063a00745b61461062c57600080fd5b806393d34de9146105c257806395d89b41146105d757600080fd5b8063396876bd1161023d5780635a9be11b116101f1578063673448dd116101cb578063673448dd1461055457806370a08231146105845780638da5cb5b146105a457600080fd5b80635a9be11b1461050a5780635bf61cfe146105125780636352211e1461053457600080fd5b80634261917a116102225780634261917a146104aa57806342842e0e146104ca5780634f6ccce7146104ea57600080fd5b8063396876bd146104745780633c084fa51461048a57600080fd5b806318160ddd1161029f57806323b872dd1161027957806323b872dd146104145780632b8fd8bd146104345780632f745c591461045457600080fd5b806318160ddd146103bf5780631fceaae0146103de5780632291e388146103fe57600080fd5b8063081812fc116102d0578063081812fc14610343578063095ea7b31461037b5780630e37b4fd1461039d57600080fd5b806301ffc9a7146102ec57806306fdde0314610321575b600080fd5b3480156102f857600080fd5b5061030c610307366004613b5e565b6108a4565b60405190151581526020015b60405180910390f35b34801561032d57600080fd5b506103366108e8565b6040516103189190613ee4565b34801561034f57600080fd5b5061036361035e366004613c8d565b61097a565b6040516001600160a01b039091168152602001610318565b34801561038757600080fd5b5061039b610396366004613ac2565b6109a1565b005b3480156103a957600080fd5b506103b2610ad8565b6040516103189190613ed1565b3480156103cb57600080fd5b506008545b604051908152602001610318565b3480156103ea57600080fd5b5061039b6103f9366004613c31565b610c70565b34801561040a57600080fd5b506103d0600f5481565b34801561042057600080fd5b5061039b61042f366004613989565b610ce6565b34801561044057600080fd5b5061039b61044f366004613aec565b610d6d565b34801561046057600080fd5b506103d061046f366004613ac2565b610e46565b34801561048057600080fd5b506103d0600e5481565b34801561049657600080fd5b5061039b6104a5366004613cc9565b610eee565b3480156104b657600080fd5b5061039b6104c5366004613bcd565b610fb2565b3480156104d657600080fd5b5061039b6104e5366004613989565b61101b565b3480156104f657600080fd5b506103d0610505366004613c8d565b611036565b61039b6110da565b34801561051e57600080fd5b506105276111b1565b6040516103189190613e52565b34801561054057600080fd5b5061036361054f366004613c8d565b6112ac565b34801561056057600080fd5b5061030c61056f36600461393b565b60136020526000908152604090205460ff1681565b34801561059057600080fd5b506103d061059f36600461393b565b611311565b3480156105b057600080fd5b50600b546001600160a01b0316610363565b3480156105ce57600080fd5b506103b26113ab565b3480156105e357600080fd5b506103366115b0565b3480156105f857600080fd5b5061039b610607366004613b98565b6115bf565b34801561061857600080fd5b5061033661062736600461393b565b6116bc565b34801561063857600080fd5b5061030c61064736600461393b565b60126020526000908152604090205460ff1681565b34801561066857600080fd5b506103d0600d5481565b34801561067e57600080fd5b5061039b61068d366004613a41565b611756565b34801561069e57600080fd5b5061039b6106ad366004613ca6565b611765565b3480156106be57600080fd5b5061039b6106cd366004613c8d565b6119d9565b3480156106de57600080fd5b5061070e6106ed366004613c8d565b60166020526000908152604090208054600182015460029092015490919083565b60408051938452602084019290925290820152606001610318565b34801561073557600080fd5b5061073e611abd565b6040516103189190613ef7565b34801561075757600080fd5b5061076b610766366004613c8d565b611ee6565b6040516103189190613f92565b34801561078457600080fd5b5061039b6107933660046139c5565b611fd5565b61039b6107a6366004613a6b565b612063565b3480156107b757600080fd5b506103366107c6366004613c8d565b6122bf565b3480156107d757600080fd5b5061033661245c565b61039b6107ee366004613c8d565b612469565b3480156107ff57600080fd5b5061030c61080e366004613956565b6001600160a01b03918216600090815260056020908152604080832093909416825291909152205460ff1690565b34801561084857600080fd5b506103b2610857366004613c8d565b61256f565b34801561086857600080fd5b50610527612753565b61039b61087f366004613b98565b612856565b34801561089057600080fd5b5061039b61089f366004613c8d565b6129f4565b60006001600160e01b031982167f780e9d630000000000000000000000000000000000000000000000000000000014806108e257506108e282612adc565b92915050565b6060600080546108f790614030565b80601f016020809104026020016040519081016040528092919081815260200182805461092390614030565b80156109705780601f1061094557610100808354040283529160200191610970565b820191906000526020600020905b81548152906001019060200180831161095357829003601f168201915b5050505050905090565b600061098582612b77565b506000908152600460205260409020546001600160a01b031690565b60006109ac826112ac565b9050806001600160a01b0316836001600160a01b03161415610a3b5760405162461bcd60e51b815260206004820152602160248201527f4552433732313a20617070726f76616c20746f2063757272656e74206f776e6560448201527f720000000000000000000000000000000000000000000000000000000000000060648201526084015b60405180910390fd5b336001600160a01b0382161480610a575750610a57813361080e565b610ac95760405162461bcd60e51b815260206004820152603e60248201527f4552433732313a20617070726f76652063616c6c6572206973206e6f7420746f60448201527f6b656e206f776e6572206e6f7220617070726f76656420666f7220616c6c00006064820152608401610a32565b610ad38383612bdb565b505050565b60606000610ae533611311565b11610aef57600080fd5b601c805480602002602001604051908101604052809291908181526020016000905b82821015610c675783829060005260206000209060020201604051806040016040529081600082018054610b4490614030565b80601f0160208091040260200160405190810160405280929190818152602001828054610b7090614030565b8015610bbd5780601f10610b9257610100808354040283529160200191610bbd565b820191906000526020600020905b815481529060010190602001808311610ba057829003601f168201915b50505050508152602001600182018054610bd690614030565b80601f0160208091040260200160405190810160405280929190818152602001828054610c0290614030565b8015610c4f5780601f10610c2457610100808354040283529160200191610c4f565b820191906000526020600020905b815481529060010190602001808311610c3257829003601f168201915b50505050508152505081526020019060010190610b11565b50505050905090565b610c78612c49565b6000818152601560209081526040808320815180830190925285825281830187905280546001810182559084529282902081518051929460020290910192610cc592849290910190613728565b506020828101518051610cde9260018501920190613728565b505050505050565b610cf03382612ca5565b610d625760405162461bcd60e51b815260206004820152602e60248201527f4552433732313a2063616c6c6572206973206e6f7420746f6b656e206f776e6560448201527f72206e6f7220617070726f7665640000000000000000000000000000000000006064820152608401610a32565b610ad3838383612d24565b33610d77846112ac565b6001600160a01b031614610dcd5760405162461bcd60e51b815260206004820152601e60248201527f596f75206d757374206265206120636f6e7472616374206d656d6265722e00006044820152606401610a32565b6001600160a01b0384166000908152601860209081526040808320815180830190925284825281830186905280546001810182559084529282902081518051929460020290910192610e2492849290910190613728565b506020828101518051610e3d9260018501920190613728565b50505050505050565b6000610e5183611311565b8210610ec55760405162461bcd60e51b815260206004820152602b60248201527f455243373231456e756d657261626c653a206f776e657220696e646578206f7560448201527f74206f6620626f756e64730000000000000000000000000000000000000000006064820152608401610a32565b506001600160a01b03919091166000908152600660209081526040808320938352929052205490565b33610ef8836112ac565b6001600160a01b031614610f0b57600080fd5b60006040518060400160405280838152602001610f253390565b6001600160a01b03169052601a805460018101825560009190915281518051929350839260029092027f057c384a7d1c54f3a1b2e5e67b2617b8224fdfd1ea7234eea573a6ff665ff63e0191610f8391839160209190910190613728565b5060209190910151600190910180546001600160a01b0319166001600160a01b03909216919091179055505050565b610fba612c49565b604080518082019091528281526020808201839052601c805460018101825560009190915282518051849360029093027f0e4562a10381dec21b205ed72637e6b1b523bdd0e4d4d50af5cd23dd4500a2110192610cc5928492910190613728565b610ad383838360405180602001604052806000815250611fd5565b600061104160085490565b82106110b55760405162461bcd60e51b815260206004820152602c60248201527f455243373231456e756d657261626c653a20676c6f62616c20696e646578206f60448201527f7574206f6620626f756e647300000000000000000000000000000000000000006064820152608401610a32565b600882815481106110c8576110c86140dc565b90600052602060002001549050919050565b6110e2612c49565b66b1a2bc2ec5000034101561115e5760405162461bcd60e51b8152602060048201526024808201527f54686973207472616e73616374696f6e20726571756972657320302e3035206560448201527f74686572000000000000000000000000000000000000000000000000000000006064820152608401610a32565b600a600e60008282546111719190613fc1565b9091555050600a546001600160a01b03166108fc346040518115909202916000818181858888f193505050501580156111ae573d6000803e3d6000fd5b50565b6060601b805480602002602001604051908101604052809291908181526020016000905b82821015610c67578382906000526020600020906002020160405180604001604052908160008201805461120890614030565b80601f016020809104026020016040519081016040528092919081815260200182805461123490614030565b80156112815780601f1061125657610100808354040283529160200191611281565b820191906000526020600020905b81548152906001019060200180831161126457829003601f168201915b50505091835250506001918201546001600160a01b03166020918201529183529290920191016111d5565b6000818152600260205260408120546001600160a01b0316806108e25760405162461bcd60e51b815260206004820152601860248201527f4552433732313a20696e76616c696420746f6b656e20494400000000000000006044820152606401610a32565b60006001600160a01b03821661138f5760405162461bcd60e51b815260206004820152602960248201527f4552433732313a2061646472657373207a65726f206973206e6f74206120766160448201527f6c6964206f776e657200000000000000000000000000000000000000000000006064820152608401610a32565b506001600160a01b031660009081526003602052604090205490565b336000908152601860205260409020546060906114305760405162461bcd60e51b815260206004820152603460248201527f596f752068617665206e6f74206265656e20617070726f76656420666f72207460448201527f68652072657175657374656420616374696f6e2e0000000000000000000000006064820152608401610a32565b33600090815260186020908152604080832080548251818502810185019093528083529193909284015b82821015610c67578382906000526020600020906002020160405180604001604052908160008201805461148d90614030565b80601f01602080910402602001604051908101604052809291908181526020018280546114b990614030565b80156115065780601f106114db57610100808354040283529160200191611506565b820191906000526020600020905b8154815290600101906020018083116114e957829003601f168201915b5050505050815260200160018201805461151f90614030565b80601f016020809104026020016040519081016040528092919081815260200182805461154b90614030565b80156115985780601f1061156d57610100808354040283529160200191611598565b820191906000526020600020905b81548152906001019060200180831161157b57829003601f168201915b5050505050815250508152602001906001019061145a565b6060600180546108f790614030565b600060405180604001604052808381526020016115d93390565b6001600160a01b03169052601b805460018101825560009190915281518051929350839260029092027f3ad8aa4f87544323a9d1e5dd902f40c356527a7955687113db5f9a85ad579dc1019161163791839160209190910190613728565b50602091820151600191820180546001600160a01b0319166001600160a01b039092169190911790553360009081526012909252604091829020805460ff1916909117905551611688908290613ddc565b604051908190038120907f88db4a536f075851673fbcb81050ab51c0a709de0eef6aa0c872a927c0ade24c90600090a25050565b601460205260009081526040902080546116d590614030565b80601f016020809104026020016040519081016040528092919081815260200182805461170190614030565b801561174e5780601f106117235761010080835404028352916020019161174e565b820191906000526020600020905b81548152906001019060200180831161173157829003601f168201915b505050505081565b611761338383612efc565b5050565b61176d612c49565b6000601b8381548110611782576117826140dc565b90600052602060002090600202016040518060400160405290816000820180546117ab90614030565b80601f01602080910402602001604051908101604052809291908181526020018280546117d790614030565b80156118245780601f106117f957610100808354040283529160200191611824565b820191906000526020600020905b81548152906001019060200180831161180757829003601f168201915b5050509183525050600191909101546001600160a01b03166020909101529050811561189657602080820180516001600160a01b039081166000908152601384526040808220805460ff191660011790558551935190921681526014845220815161189493919290910190613728565b505b811515816040516118a79190613ddc565b604051908190038120907f5b5cc648c0cdb118eeb9957a32510510d658bb499f3d22585ddf52d84082956c90600090a3601b80546118e790600190613fed565b815481106118f7576118f76140dc565b9060005260206000209060020201601b8481548110611918576119186140dc565b9060005260206000209060020201600082018160000190805461193a90614030565b6119459291906137ac565b50600191820154910180546001600160a01b0319166001600160a01b03909216919091179055601b80548061197c5761197c6140c6565b6000828152602081206000199092019160028302019061199c8282613827565b5060010180546001600160a01b031916905590556020908101516001600160a01b03166000908152601290915260409020805460ff191690555050565b6119e1612c49565b601a80546119f190600190613fed565b81548110611a0157611a016140dc565b9060005260206000209060020201601a8281548110611a2257611a226140dc565b90600052602060002090600202016000820181600001908054611a4490614030565b611a4f9291906137ac565b50600191820154910180546001600160a01b0319166001600160a01b03909216919091179055601a805480611a8657611a866140c6565b60008281526020812060001990920191600283020190611aa68282613827565b5060010180546001600160a01b0319169055905550565b611aff6040518060c001604052806000815260200160006001600160a01b03168152602001606081526020016060815260200160608152602001606081525090565b6040518060c00160405280600c548152602001611b24600b546001600160a01b031690565b6001600160a01b0316815260200160108054611b3f90614030565b80601f0160208091040260200160405190810160405280929190818152602001828054611b6b90614030565b8015611bb85780601f10611b8d57610100808354040283529160200191611bb8565b820191906000526020600020905b815481529060010190602001808311611b9b57829003601f168201915b50505050508152602001611bcc60006122bf565b8152602001601c805480602002602001604051908101604052809291908181526020016000905b82821015611d495783829060005260206000209060020201604051806040016040529081600082018054611c2690614030565b80601f0160208091040260200160405190810160405280929190818152602001828054611c5290614030565b8015611c9f5780601f10611c7457610100808354040283529160200191611c9f565b820191906000526020600020905b815481529060010190602001808311611c8257829003601f168201915b50505050508152602001600182018054611cb890614030565b80601f0160208091040260200160405190810160405280929190818152602001828054611ce490614030565b8015611d315780601f10611d0657610100808354040283529160200191611d31565b820191906000526020600020905b815481529060010190602001808311611d1457829003601f168201915b50505050508152505081526020019060010190611bf3565b50505050815260200160156000808152602001908152602001600020805480602002602001604051908101604052809291908181526020016000905b82821015611edb5783829060005260206000209060020201604051806040016040529081600082018054611db890614030565b80601f0160208091040260200160405190810160405280929190818152602001828054611de490614030565b8015611e315780601f10611e0657610100808354040283529160200191611e31565b820191906000526020600020905b815481529060010190602001808311611e1457829003601f168201915b50505050508152602001600182018054611e4a90614030565b80601f0160208091040260200160405190810160405280929190818152602001828054611e7690614030565b8015611ec35780601f10611e9857610100808354040283529160200191611ec3565b820191906000526020600020905b815481529060010190602001808311611ea657829003601f168201915b50505050508152505081526020019060010190611d85565b505050915250919050565b611f0a60405180606001604052806000815260200160008152602001606081525090565b601760008381526020019081526020016000206040518060600160405290816000820154815260200160018201548152602001600282018054611f4c90614030565b80601f0160208091040260200160405190810160405280929190818152602001828054611f7890614030565b8015611fc55780601f10611f9a57610100808354040283529160200191611fc5565b820191906000526020600020905b815481529060010190602001808311611fa857829003601f168201915b5050505050815250509050919050565b611fdf3383612ca5565b6120515760405162461bcd60e51b815260206004820152602e60248201527f4552433732313a2063616c6c6572206973206e6f7420746f6b656e206f776e6560448201527f72206e6f7220617070726f7665640000000000000000000000000000000000006064820152608401610a32565b61205d84848484612fcb565b50505050565b600d543410156120db5760405162461bcd60e51b815260206004820152603160248201527f4d696e74206661696c65643a2056616c7565206f66206d65737361676520697360448201527f206c657373207468616e2070726963652e0000000000000000000000000000006064820152608401610a32565b6064600c54106121535760405162461bcd60e51b815260206004820152602160248201527f4d696e74206661696c65643a20546f6b656e732061726520736f6c64206f757460448201527f2e000000000000000000000000000000000000000000000000000000000000006064820152608401610a32565b3361215d826112ac565b6001600160a01b03161461217057600080fd5b60008181526016602052604090206002810154600190910154106121d65760405162461bcd60e51b815260206004820152601860248201527f4d696e7420616c6c6f77616e63652065786365656465642e00000000000000006044820152606401610a32565b6121e283600c54613054565b6121ee600c54836131a2565b60408051606081018252438152426020808301918252828401868152600c54600090815260178352949094208351815591516001830155925180519293919261223d9260028501920190613728565b5050600c8054915060006122508361406b565b9091555050600b546001600160a01b03166108fc346040518115909202916000818181858888f1935050505015801561228d573d6000803e3d6000fd5b5060016016600083815260200190815260200160002060010160008282546122b59190613fc1565b9091555050505050565b6000818152600260205260409020546060906001600160a01b031661234c5760405162461bcd60e51b815260206004820152602f60248201527f4552433732314d657461646174613a2055524920717565727920666f72206e6f60448201527f6e6578697374656e7420746f6b656e00000000000000000000000000000000006064820152608401610a32565b6000828152601160205260408120805461236590614030565b80601f016020809104026020016040519081016040528092919081815260200182805461239190614030565b80156123de5780601f106123b3576101008083540402835291602001916123de565b820191906000526020600020905b8154815290600101906020018083116123c157829003601f168201915b5050505050905060006123fc60408051602081019091526000815290565b905080516000141561240f575092915050565b815115612441578082604051602001612429929190613dad565b60405160208183030381529060405292505050919050565b8061244b8561324b565b604051602001612429929190613dad565b601080546116d590614030565b3360009081526019602052604090205460ff1615156001146124cd5760405162461bcd60e51b815260206004820152601560248201527f596f7520617265206e6f7420617070726f7665642e00000000000000000000006044820152606401610a32565b600d543410156124dc57600080fd5b60008181526016602052604081206002018054600592906124fe908490613fc1565b925050819055506005600f60008282546125189190613fc1565b925050819055506005600e60008282546125329190613fed565b9091555050600b546001600160a01b03166108fc346040518115909202916000818181858888f19350505050158015611761573d6000803e3d6000fd5b6060600061257c33611311565b116125c95760405162461bcd60e51b815260206004820152601b60248201527f596f75206d757374206265206120746f6b656e20686f6c6465722e00000000006044820152606401610a32565b600082815260156020908152604080832080548251818502810185019093528083529193909284015b82821015612748578382906000526020600020906002020160405180604001604052908160008201805461262590614030565b80601f016020809104026020016040519081016040528092919081815260200182805461265190614030565b801561269e5780601f106126735761010080835404028352916020019161269e565b820191906000526020600020905b81548152906001019060200180831161268157829003601f168201915b505050505081526020016001820180546126b790614030565b80601f01602080910402602001604051908101604052809291908181526020018280546126e390614030565b80156127305780601f1061270557610100808354040283529160200191612730565b820191906000526020600020905b81548152906001019060200180831161271357829003601f168201915b505050505081525050815260200190600101906125f2565b505050509050919050565b606061275d612c49565b601a805480602002602001604051908101604052809291908181526020016000905b82821015610c6757838290600052602060002090600202016040518060400160405290816000820180546127b290614030565b80601f01602080910402602001604051908101604052809291908181526020018280546127de90614030565b801561282b5780601f106128005761010080835404028352916020019161282b565b820191906000526020600020905b81548152906001019060200180831161280e57829003601f168201915b50505091835250506001918201546001600160a01b031660209182015291835292909201910161277f565b3360009081526013602052604090205460ff166128b55760405162461bcd60e51b815260206004820152601d60248201527f436c69656e7420686173206e6f74206265656e20617070726f7665642e0000006044820152606401610a32565b60408051606081018252600c54808252600160208084018281526005858701908152600094855260169092529490922092518355925192820192909255905160029091015561290633600c54613054565b612912600c54826131a2565b60408051606081018252438152426020808301918252828401858152600c5460009081526017835294909420835181559151600183015592518051929391926129619260028501920190613728565b5050600c8054915060006129748361406b565b9091555050600b546001600160a01b03166108fc346040518115909202916000818181858888f193505050501580156129b1573d6000803e3d6000fd5b506005600e60008282546129c59190613fed565b9091555050336000908152601360209081526040808320805460ff19169055601490915281206111ae91613827565b6129fc612c49565b600e54600f5410612a755760405162461bcd60e51b815260206004820152602e60248201527f5468697320636f6e74726163742068617320726561636865642069742773206d60448201527f696e7420616c6c6f77616e63652e0000000000000000000000000000000000006064820152608401610a32565b600160196000601a8481548110612a8e57612a8e6140dc565b6000918252602080832060016002909302018201546001600160a01b0316845283019390935260409091019020805492151560ff1990931692909217909155601a805490916119f191613fed565b60006001600160e01b031982167f80ac58cd000000000000000000000000000000000000000000000000000000001480612b3f57506001600160e01b031982167f5b5e139f00000000000000000000000000000000000000000000000000000000145b806108e257507f01ffc9a7000000000000000000000000000000000000000000000000000000006001600160e01b03198316146108e2565b6000818152600260205260409020546001600160a01b03166111ae5760405162461bcd60e51b815260206004820152601860248201527f4552433732313a20696e76616c696420746f6b656e20494400000000000000006044820152606401610a32565b600081815260046020526040902080546001600160a01b0319166001600160a01b0384169081179091558190612c10826112ac565b6001600160a01b03167f8c5be1e5ebec7d5bd14f71427d1e84f3dd0314c0f7b2291e5b200ac8c7c3b92560405160405180910390a45050565b600b546001600160a01b03163314612ca35760405162461bcd60e51b815260206004820181905260248201527f4f776e61626c653a2063616c6c6572206973206e6f7420746865206f776e65726044820152606401610a32565b565b600080612cb1836112ac565b9050806001600160a01b0316846001600160a01b03161480612cf857506001600160a01b0380821660009081526005602090815260408083209388168352929052205460ff165b80612d1c5750836001600160a01b0316612d118461097a565b6001600160a01b0316145b949350505050565b826001600160a01b0316612d37826112ac565b6001600160a01b031614612db35760405162461bcd60e51b815260206004820152602560248201527f4552433732313a207472616e736665722066726f6d20696e636f72726563742060448201527f6f776e65720000000000000000000000000000000000000000000000000000006064820152608401610a32565b6001600160a01b038216612e2e5760405162461bcd60e51b8152602060048201526024808201527f4552433732313a207472616e7366657220746f20746865207a65726f2061646460448201527f72657373000000000000000000000000000000000000000000000000000000006064820152608401610a32565b612e3983838361337d565b612e44600082612bdb565b6001600160a01b0383166000908152600360205260408120805460019290612e6d908490613fed565b90915550506001600160a01b0382166000908152600360205260408120805460019290612e9b908490613fc1565b909155505060008181526002602052604080822080546001600160a01b0319166001600160a01b0386811691821790925591518493918716917fddf252ad1be2c89b69c2b068fc378daa952ba7f163c4a11628f55a4df523b3ef91a4505050565b816001600160a01b0316836001600160a01b03161415612f5e5760405162461bcd60e51b815260206004820152601960248201527f4552433732313a20617070726f766520746f2063616c6c6572000000000000006044820152606401610a32565b6001600160a01b03838116600081815260056020908152604080832094871680845294825291829020805460ff191686151590811790915591519182527f17307eab39ab6107e8899845ad3d59bd9653f200f220920489ca2b5937696c31910160405180910390a3505050565b612fd6848484612d24565b612fe284848484613435565b61205d5760405162461bcd60e51b815260206004820152603260248201527f4552433732313a207472616e7366657220746f206e6f6e20455243373231526560448201527f63656976657220696d706c656d656e74657200000000000000000000000000006064820152608401610a32565b6001600160a01b0382166130aa5760405162461bcd60e51b815260206004820181905260248201527f4552433732313a206d696e7420746f20746865207a65726f20616464726573736044820152606401610a32565b6000818152600260205260409020546001600160a01b03161561310f5760405162461bcd60e51b815260206004820152601c60248201527f4552433732313a20746f6b656e20616c7265616479206d696e746564000000006044820152606401610a32565b61311b6000838361337d565b6001600160a01b0382166000908152600360205260408120805460019290613144908490613fc1565b909155505060008181526002602052604080822080546001600160a01b0319166001600160a01b03861690811790915590518392907fddf252ad1be2c89b69c2b068fc378daa952ba7f163c4a11628f55a4df523b3ef908290a45050565b6000828152600260205260409020546001600160a01b031661322c5760405162461bcd60e51b815260206004820152602c60248201527f4552433732314d657461646174613a2055524920736574206f66206e6f6e657860448201527f697374656e7420746f6b656e00000000000000000000000000000000000000006064820152608401610a32565b60008281526011602090815260409091208251610ad392840190613728565b60608161328b57505060408051808201909152600181527f3000000000000000000000000000000000000000000000000000000000000000602082015290565b8160005b81156132b5578061329f8161406b565b91506132ae9050600a83613fd9565b915061328f565b60008167ffffffffffffffff8111156132d0576132d06140f2565b6040519080825280601f01601f1916602001820160405280156132fa576020820181803683370190505b5090505b8415612d1c5761330f600183613fed565b915061331c600a86614086565b613327906030613fc1565b60f81b81838151811061333c5761333c6140dc565b60200101907effffffffffffffffffffffffffffffffffffffffffffffffffffffffffffff1916908160001a905350613376600a86613fd9565b94506132fe565b6001600160a01b0383166133d8576133d381600880546000838152600960205260408120829055600182018355919091527ff3f7a9fe364faab93b216da50a3214154f22a0a2b415b23a84c8169e8b636ee30155565b6133fb565b816001600160a01b0316836001600160a01b0316146133fb576133fb8382613598565b6001600160a01b03821661341257610ad381613635565b826001600160a01b0316826001600160a01b031614610ad357610ad382826136e4565b60006001600160a01b0384163b1561358d57604051630a85bd0160e11b81526001600160a01b0385169063150b7a0290613479903390899088908890600401613e16565b602060405180830381600087803b15801561349357600080fd5b505af19250505080156134c3575060408051601f3d908101601f191682019092526134c091810190613b7b565b60015b613573573d8080156134f1576040519150601f19603f3d011682016040523d82523d6000602084013e6134f6565b606091505b50805161356b5760405162461bcd60e51b815260206004820152603260248201527f4552433732313a207472616e7366657220746f206e6f6e20455243373231526560448201527f63656976657220696d706c656d656e74657200000000000000000000000000006064820152608401610a32565b805181602001fd5b6001600160e01b031916630a85bd0160e11b149050612d1c565b506001949350505050565b600060016135a584611311565b6135af9190613fed565b600083815260076020526040902054909150808214613602576001600160a01b03841660009081526006602090815260408083208584528252808320548484528184208190558352600790915290208190555b5060009182526007602090815260408084208490556001600160a01b039094168352600681528383209183525290812055565b60085460009061364790600190613fed565b6000838152600960205260408120546008805493945090928490811061366f5761366f6140dc565b906000526020600020015490508060088381548110613690576136906140dc565b60009182526020808320909101929092558281526009909152604080822084905585825281205560088054806136c8576136c86140c6565b6001900381819060005260206000200160009055905550505050565b60006136ef83611311565b6001600160a01b039093166000908152600660209081526040808320868452825280832085905593825260079052919091209190915550565b82805461373490614030565b90600052602060002090601f016020900481019282613756576000855561379c565b82601f1061376f57805160ff191683800117855561379c565b8280016001018555821561379c579182015b8281111561379c578251825591602001919060010190613781565b506137a892915061385d565b5090565b8280546137b890614030565b90600052602060002090601f0160209004810192826137da576000855561379c565b82601f106137eb578054855561379c565b8280016001018555821561379c57600052602060002091601f016020900482015b8281111561379c57825482559160010191906001019061380c565b50805461383390614030565b6000825580601f10613843575050565b601f0160209004906000526020600020908101906111ae91905b5b808211156137a8576000815560010161385e565b600067ffffffffffffffff8084111561388d5761388d6140f2565b604051601f8501601f19908116603f011681019082821181831017156138b5576138b56140f2565b816040528093508581528686860111156138ce57600080fd5b858560208301376000602087830101525050509392505050565b80356001600160a01b03811681146138ff57600080fd5b919050565b803580151581146138ff57600080fd5b600082601f83011261392557600080fd5b61393483833560208501613872565b9392505050565b60006020828403121561394d57600080fd5b613934826138e8565b6000806040838503121561396957600080fd5b613972836138e8565b9150613980602084016138e8565b90509250929050565b60008060006060848603121561399e57600080fd5b6139a7846138e8565b92506139b5602085016138e8565b9150604084013590509250925092565b600080600080608085870312156139db57600080fd5b6139e4856138e8565b93506139f2602086016138e8565b925060408501359150606085013567ffffffffffffffff811115613a1557600080fd5b8501601f81018713613a2657600080fd5b613a3587823560208401613872565b91505092959194509250565b60008060408385031215613a5457600080fd5b613a5d836138e8565b915061398060208401613904565b600080600060608486031215613a8057600080fd5b613a89846138e8565b9250602084013567ffffffffffffffff811115613aa557600080fd5b613ab186828701613914565b925050604084013590509250925092565b60008060408385031215613ad557600080fd5b613ade836138e8565b946020939093013593505050565b60008060008060808587031215613b0257600080fd5b613b0b856138e8565b935060208501359250604085013567ffffffffffffffff80821115613b2f57600080fd5b613b3b88838901613914565b93506060870135915080821115613b5157600080fd5b50613a3587828801613914565b600060208284031215613b7057600080fd5b813561393481614108565b600060208284031215613b8d57600080fd5b815161393481614108565b600060208284031215613baa57600080fd5b813567ffffffffffffffff811115613bc157600080fd5b612d1c84828501613914565b60008060408385031215613be057600080fd5b823567ffffffffffffffff80821115613bf857600080fd5b613c0486838701613914565b93506020850135915080821115613c1a57600080fd5b50613c2785828601613914565b9150509250929050565b600080600060608486031215613c4657600080fd5b833567ffffffffffffffff80821115613c5e57600080fd5b613c6a87838801613914565b94506020860135915080821115613c8057600080fd5b50613ab186828701613914565b600060208284031215613c9f57600080fd5b5035919050565b60008060408385031215613cb957600080fd5b8235915061398060208401613904565b60008060408385031215613cdc57600080fd5b82359150602083013567ffffffffffffffff811115613cfa57600080fd5b613c2785828601613914565b600081518084526020808501808196508360051b8101915082860160005b85811015613d74578284038952815160408151818752613d4682880182613d81565b91505086820151915085810387870152613d608183613d81565b9a87019a9550505090840190600101613d24565b5091979650505050505050565b60008151808452613d99816020860160208601614004565b601f01601f19169290920160200192915050565b60008351613dbf818460208801614004565b835190830190613dd3818360208801614004565b01949350505050565b600082518051613df0818560208501614004565b6020948501516001600160a01b0316601f91909101601f19169390930192835250500190565b60006001600160a01b03808716835280861660208401525083604083015260806060830152613e486080830184613d81565b9695505050505050565b60006020808301818452808551808352604092508286019150828160051b87010184880160005b83811015613ec357888303603f1901855281518051878552613e9d88860182613d81565b918901516001600160a01b03169489019490945294870194925090860190600101613e79565b509098975050505050505050565b6020815260006139346020830184613d06565b6020815260006139346020830184613d81565b60208152815160208201526001600160a01b0360208301511660408201526000604083015160c06060840152613f3060e0840182613d81565b90506060840151601f1980858403016080860152613f4e8383613d81565b925060808601519150808584030160a0860152613f6b8383613d06565b925060a08601519150808584030160c086015250613f898282613d06565b95945050505050565b60208152815160208201526020820151604082015260006040830151606080840152612d1c6080840182613d81565b60008219821115613fd457613fd461409a565b500190565b600082613fe857613fe86140b0565b500490565b600082821015613fff57613fff61409a565b500390565b60005b8381101561401f578181015183820152602001614007565b8381111561205d5750506000910152565b600181811c9082168061404457607f821691505b6020821081141561406557634e487b7160e01b600052602260045260246000fd5b50919050565b600060001982141561407f5761407f61409a565b5060010190565b600082614095576140956140b0565b500690565b634e487b7160e01b600052601160045260246000fd5b634e487b7160e01b600052601260045260246000fd5b634e487b7160e01b600052603160045260246000fd5b634e487b7160e01b600052603260045260246000fd5b634e487b7160e01b600052604160045260246000fd5b6001600160e01b0319811681146111ae57600080fdfea2646970667358221220842b63b5225606c05360982937bc48d30755780de2a80eac6a1d24056f31402364736f6c63430008070033a2646970667358221220293a46727f1afb06e3c6a3eda92e383c110cafa0e0b4725e2644f8018188729264736f6c63430008070033",
  "linkReferences": {},
  "deployedLinkReferences": {}
}