{
  "_format": "hh-sol-artifact-1",
  "contractName": "TamboraFactory",
  "sourceName": "contracts/TamboraFactory.sol",
  "abi": [
    {
      "inputs": [],
      "stateMutability": "nonpayable",
      "type": "constructor"
    },
    {
      "anonymous": false,
      "inputs": [
        {
          "indexed": true,
          "internalType": "contract Tambora",
          "name": "contractAddr",
          "type": "address"
        }
      ],
      "name": "Deployed",
      "type": "event"
    },
    {
      "anonymous": false,
      "inputs": [
        {
          "indexed": true,
          "internalType": "uint256",
          "name": "mintFee",
          "type": "uint256"
        },
        {
          "indexed": true,
          "internalType": "uint256",
          "name": "contractFee",
          "type": "uint256"
        }
      ],
      "name": "FeeChange",
      "type": "event"
    },
    {
      "inputs": [
        {
          "internalType": "uint256",
          "name": "mintFee_",
          "type": "uint256"
        },
        {
          "internalType": "uint256",
          "name": "contractFee_",
          "type": "uint256"
        }
      ],
      "name": "changeFees",
      "outputs": [],
      "stateMutability": "nonpayable",
      "type": "function"
    },
    {
      "inputs": [],
      "name": "contractFee",
      "outputs": [
        {
          "internalType": "uint256",
          "name": "",
          "type": "uint256"
        }
      ],
      "stateMutability": "view",
      "type": "function"
    },
    {
      "inputs": [
        {
          "internalType": "string",
          "name": "name",
          "type": "string"
        },
        {
          "internalType": "string",
          "name": "symbol",
          "type": "string"
        },
        {
          "internalType": "uint256",
          "name": "price_",
          "type": "uint256"
        },
        {
          "internalType": "string",
          "name": "contractType_",
          "type": "string"
        },
        {
          "internalType": "address",
          "name": "to_",
          "type": "address"
        },
        {
          "internalType": "string",
          "name": "uri_",
          "type": "string"
        },
        {
          "internalType": "uint256",
          "name": "mintFee_",
          "type": "uint256"
        },
        {
          "internalType": "uint256",
          "name": "contractFee_",
          "type": "uint256"
        }
      ],
      "name": "deployTambora",
      "outputs": [],
      "stateMutability": "payable",
      "type": "function"
    },
    {
      "inputs": [
        {
          "internalType": "string",
          "name": "name_",
          "type": "string"
        }
      ],
      "name": "getContractAddress",
      "outputs": [
        {
          "internalType": "contract Tambora",
          "name": "",
          "type": "address"
        }
      ],
      "stateMutability": "view",
      "type": "function"
    },
    {
      "inputs": [],
      "name": "getDeployedContracts",
      "outputs": [
        {
          "internalType": "contract Tambora[]",
          "name": "",
          "type": "address[]"
        }
      ],
      "stateMutability": "view",
      "type": "function"
    },
    {
      "inputs": [],
      "name": "getNames",
      "outputs": [
        {
          "internalType": "string[]",
          "name": "",
          "type": "string[]"
        }
      ],
      "stateMutability": "view",
      "type": "function"
    },
    {
      "inputs": [
        {
          "internalType": "address",
          "name": "contractOwner",
          "type": "address"
        }
      ],
      "name": "getOwnedContracts",
      "outputs": [
        {
          "internalType": "contract Tambora[]",
          "name": "",
          "type": "address[]"
        }
      ],
      "stateMutability": "view",
      "type": "function"
    },
    {
      "inputs": [],
      "name": "mintFee",
      "outputs": [
        {
          "internalType": "uint256",
          "name": "",
          "type": "uint256"
        }
      ],
      "stateMutability": "view",
      "type": "function"
    },
    {
      "inputs": [
        {
          "internalType": "uint256",
          "name": "",
          "type": "uint256"
        }
      ],
      "name": "names",
      "outputs": [
        {
          "internalType": "string",
          "name": "",
          "type": "string"
        }
      ],
      "stateMutability": "view",
      "type": "function"
    },
    {
      "inputs": [],
      "name": "version",
      "outputs": [
        {
          "internalType": "string",
          "name": "",
          "type": "string"
        }
      ],
      "stateMutability": "view",
      "type": "function"
    }
  ],
  "bytecode": "0x608060405234801561001057600080fd5b50600280546001600160a01b031916331790556601c6bf5263400060005566b1a2bc2ec50000600155604080518082019091526003808252620312e360ec1b602090920191825261006391600591610069565b5061013d565b82805461007590610102565b90600052602060002090601f01602090048101928261009757600085556100dd565b82601f106100b057805160ff19168380011785556100dd565b828001600101855582156100dd579182015b828111156100dd5782518255916020019190600101906100c2565b506100e99291506100ed565b5090565b5b808211156100e957600081556001016100ee565b600181811c9082168061011657607f821691505b6020821081141561013757634e487b7160e01b600052602260045260246000fd5b50919050565b61574d806200014d6000396000f3fe6080604052600436106200009d5760003560e01c8063aa9a068f1162000060578063aa9a068f146200017e578063c715bdb914620001a5578063cd838f0f14620001bc578063d41977cd14620001e3578063e5d2f8e314620001fb57600080fd5b806304433bbc14620000a257806313966db514620000e457806321ecff5b146200010b5780634622ab03146200013257806354fd4d501462000166575b600080fd5b348015620000af57600080fd5b50620000c7620000c13660046200091b565b62000220565b6040516001600160a01b0390911681526020015b60405180910390f35b348015620000f157600080fd5b50620000fc60005481565b604051908152602001620000db565b3480156200011857600080fd5b50620001306200012a36600462000a60565b62000253565b005b3480156200013f57600080fd5b50620001576200015136600462000a46565b620002ad565b604051620000db919062000c20565b3480156200017357600080fd5b506200015762000362565b3480156200018b57600080fd5b506200019662000371565b604051620000db919062000b6b565b62000130620001b63660046200095c565b620003d5565b348015620001c957600080fd5b50620001d462000635565b604051620000db919062000bba565b348015620001f057600080fd5b50620000fc60015481565b3480156200020857600080fd5b50620001966200021a366004620008f6565b62000718565b600060078260405162000234919062000ab1565b908152604051908190036020019020546001600160a01b031692915050565b6002546001600160a01b0316336001600160a01b0316146200027457600080fd5b60008281556001829055604051829184917fa995ac7c2dc5fdc05b41983e69d4d9fbd224a8528bc7d86eabfd533cd3ca44979190a35050565b60048181548110620002be57600080fd5b906000526020600020016000915090508054620002db9062000c68565b80601f0160208091040260200160405190810160405280929190818152602001828054620003099062000c68565b80156200035a5780601f106200032e576101008083540402835291602001916200035a565b820191906000526020600020905b8154815290600101906020018083116200033c57829003601f168201915b505050505081565b60058054620002db9062000c68565b60606003805480602002602001604051908101604052809291908181526020018280548015620003cb57602002820191906000526020600020905b81546001600160a01b03168152600190910190602001808311620003ac575b5050505050905090565b600154341015620003e557600080fd5b6000620003f28962000220565b6001600160a01b031614620004435760405162461bcd60e51b81526020600482015260136024820152724e616d6520616c72656164792065786973747360681b604482015260640160405180910390fd5b600033898989898989600260009054906101000a90046001600160a01b03168a8a604051620004729062000790565b620004879a9998979695949392919062000acf565b604051809103906000f080158015620004a4573d6000803e3d6000fd5b506003805460018082019092557fc2575a0e9e593c00f959f8c92f12db2869c3395a3b0502d05e2516446f71f85b0180546001600160a01b0319166001600160a01b0384161790556004805491820181556000528a5191925062000532917f8a35acfbc15ff81a39ae7d344fd709f28e8600b4aa8c65c6b64bfe7fe36bd19b9091019060208c01906200079e565b508060078a60405162000546919062000ab1565b90815260405190819003602001902080546001600160a01b03929092166001600160a01b031990921691909117905560066000620005813390565b6001600160a01b03908116825260208083019390935260409091016000908120805460018101825590825292902090910180546001600160a01b031916838316179055600254166108fc346040518115909202916000818181858888f19350505050158015620005f5573d6000803e3d6000fd5b506040516001600160a01b038216907ff40fcec21964ffb566044d083b4073f29f7f7929110ea19e1b3ebe375d89055e90600090a2505050505050505050565b60606004805480602002602001604051908101604052809291908181526020016000905b828210156200070f5783829060005260206000200180546200067b9062000c68565b80601f0160208091040260200160405190810160405280929190818152602001828054620006a99062000c68565b8015620006fa5780601f10620006ce57610100808354040283529160200191620006fa565b820191906000526020600020905b815481529060010190602001808311620006dc57829003601f168201915b50505050508152602001906001019062000659565b50505050905090565b6001600160a01b0381166000908152600660209081526040918290208054835181840281018401909452808452606093928301828280156200078457602002820191906000526020600020905b81546001600160a01b0316815260019091019060200180831162000765575b50505050509050919050565b614a5c8062000cbc83390190565b828054620007ac9062000c68565b90600052602060002090601f016020900481019282620007d057600085556200081b565b82601f10620007eb57805160ff19168380011785556200081b565b828001600101855582156200081b579182015b828111156200081b578251825591602001919060010190620007fe565b50620008299291506200082d565b5090565b5b808211156200082957600081556001016200082e565b80356001600160a01b03811681146200085c57600080fd5b919050565b600082601f8301126200087357600080fd5b813567ffffffffffffffff8082111562000891576200089162000ca5565b604051601f8301601f19908116603f01168101908282118183101715620008bc57620008bc62000ca5565b81604052838152866020858801011115620008d657600080fd5b836020870160208301376000602085830101528094505050505092915050565b6000602082840312156200090957600080fd5b620009148262000844565b9392505050565b6000602082840312156200092e57600080fd5b813567ffffffffffffffff8111156200094657600080fd5b620009548482850162000861565b949350505050565b600080600080600080600080610100898b0312156200097a57600080fd5b883567ffffffffffffffff808211156200099357600080fd5b620009a18c838d0162000861565b995060208b0135915080821115620009b857600080fd5b620009c68c838d0162000861565b985060408b0135975060608b0135915080821115620009e457600080fd5b620009f28c838d0162000861565b965062000a0260808c0162000844565b955060a08b013591508082111562000a1957600080fd5b5062000a288b828c0162000861565b93505060c0890135915060e089013590509295985092959890939650565b60006020828403121562000a5957600080fd5b5035919050565b6000806040838503121562000a7457600080fd5b50508035926020909101359150565b6000815180845262000a9d81602086016020860162000c35565b601f01601f19169290920160200192915050565b6000825162000ac581846020870162000c35565b9190910192915050565b6001600160a01b038b811682526101406020830181905260009162000af78483018e62000a83565b9150838203604085015262000b0d828d62000a83565b91508a6060850152838203608085015262000b29828b62000a83565b915080891660a085015283820360c085015262000b47828962000a83565b961660e0840152505061010081019290925261012090910152979650505050505050565b6020808252825182820181905260009190848201906040850190845b8181101562000bae5783516001600160a01b03168352928401929184019160010162000b87565b50909695505050505050565b6000602080830181845280855180835260408601915060408160051b870101925083870160005b8281101562000c1357603f1988860301845262000c0085835162000a83565b9450928501929085019060010162000be1565b5092979650505050505050565b60208152600062000914602083018462000a83565b60005b8381101562000c5257818101518382015260200162000c38565b8381111562000c62576000848401525b50505050565b600181811c9082168062000c7d57607f821691505b6020821081141562000c9f57634e487b7160e01b600052602260045260246000fd5b50919050565b634e487b7160e01b600052604160045260246000fdfe60806040523480156200001157600080fd5b5060405162004a5c38038062004a5c833981016040819052620000349162000bc2565b8851899089906200004d90600090602085019062000a6e565b5080516200006390600190602084019062000a6e565b5050600b80546001600160a01b03808e166001600160a01b031992831617909255600a80549287169290911691909117905550600f879055600c829055620000ac828862000d5c565b601055600d8190558551620000c990601390602089019062000a6e565b50600a6012819055605a60115560408051606081018252600080825260016020808401918252938301948552818052601990935290517fd2ac945fcc0096878c763e37d6929b78378c1a2defabde8ba7ee5ed1d6e7a5b25590517fd2ac945fcc0096878c763e37d6929b78378c1a2defabde8ba7ee5ed1d6e7a5b35590517fd2ac945fcc0096878c763e37d6929b78378c1a2defabde8ba7ee5ed1d6e7a5b455620001769086906200026d565b6200018360008562000293565b6001600e556040805160608101825243815242602080830191825292820187815260008052601a845282517fb75ecc04ed35f89790e98640e901bda41eceff0cb896cf2765fb69768025375090815591517fb75ecc04ed35f89790e98640e901bda41eceff0cb896cf2765fb69768025375155518051929391926200022c927fb75ecc04ed35f89790e98640e901bda41eceff0cb896cf2765fb69768025375292019062000a6e565b5050604080518082019091526003808252620312e360ec1b60209092019182526200025c92506014919062000a6e565b505050505050505050505062000e55565b6200028f8282604051806020016040528060008152506200033860201b60201c565b5050565b6000828152600260205260409020546001600160a01b0316620003125760405162461bcd60e51b815260206004820152602c60248201527f4552433732314d657461646174613a2055524920736574206f66206e6f6e657860448201526b34b9ba32b73a103a37b5b2b760a11b60648201526084015b60405180910390fd5b60008281526015602090815260409091208251620003339284019062000a6e565b505050565b620003448383620003ab565b6200035360008484846200054c565b620003335760405162461bcd60e51b8152602060048201526032602482015260008051602062004a3c83398151915260448201527131b2b4bb32b91034b6b83632b6b2b73a32b960711b606482015260840162000309565b6001600160a01b038216620004035760405162461bcd60e51b815260206004820181905260248201527f4552433732313a206d696e7420746f20746865207a65726f2061646472657373604482015260640162000309565b6000818152600260205260409020546001600160a01b0316156200046a5760405162461bcd60e51b815260206004820152601c60248201527f4552433732313a20746f6b656e20616c7265616479206d696e74656400000000604482015260640162000309565b6200047a600083836001620006b5565b6000818152600260205260409020546001600160a01b031615620004e15760405162461bcd60e51b815260206004820152601c60248201527f4552433732313a20746f6b656e20616c7265616479206d696e74656400000000604482015260640162000309565b6001600160a01b038216600081815260036020908152604080832080546001019055848352600290915280822080546001600160a01b0319168417905551839291907fddf252ad1be2c89b69c2b068fc378daa952ba7f163c4a11628f55a4df523b3ef908290a45050565b60006200056d846001600160a01b03166200081f60201b620024ee1760201c565b15620006a957604051630a85bd0160e11b81526001600160a01b0385169063150b7a0290620005a790339089908890889060040162000d06565b602060405180830381600087803b158015620005c257600080fd5b505af1925050508015620005f5575060408051601f3d908101601f19168201909252620005f29181019062000cd3565b60015b6200068e573d80801562000626576040519150601f19603f3d011682016040523d82523d6000602084013e6200062b565b606091505b508051620006865760405162461bcd60e51b8152602060048201526032602482015260008051602062004a3c83398151915260448201527131b2b4bb32b91034b6b83632b6b2b73a32b960711b606482015260840162000309565b805181602001fd5b6001600160e01b031916630a85bd0160e11b149050620006ad565b5060015b949350505050565b620006ce848484846200081960201b62001a721760201c565b6001811115620007475760405162461bcd60e51b815260206004820152603560248201527f455243373231456e756d657261626c653a20636f6e736563757469766520747260448201527f616e7366657273206e6f7420737570706f727465640000000000000000000000606482015260840162000309565b816001600160a01b038516620007a657620007a081600880546000838152600960205260408120829055600182018355919091527ff3f7a9fe364faab93b216da50a3214154f22a0a2b415b23a84c8169e8b636ee30155565b620007cc565b836001600160a01b0316856001600160a01b031614620007cc57620007cc85826200082e565b6001600160a01b038416620007ec57620007e681620008db565b62000812565b846001600160a01b0316846001600160a01b031614620008125762000812848262000995565b5050505050565b50505050565b6001600160a01b03163b151590565b600060016200084884620009e660201b620011b01760201c565b62000854919062000d77565b600083815260076020526040902054909150808214620008a8576001600160a01b03841660009081526006602090815260408083208584528252808320548484528184208190558352600790915290208190555b5060009182526007602090815260408084208490556001600160a01b039094168352600681528383209183525290812055565b600854600090620008ef9060019062000d77565b600083815260096020526040812054600880549394509092849081106200091a576200091a62000e29565b9060005260206000200154905080600883815481106200093e576200093e62000e29565b600091825260208083209091019290925582815260099091526040808220849055858252812055600880548062000979576200097962000e13565b6001900381819060005260206000200160009055905550505050565b6000620009ad83620009e660201b620011b01760201c565b6001600160a01b039093166000908152600660209081526040808320868452825280832085905593825260079052919091209190915550565b60006001600160a01b03821662000a525760405162461bcd60e51b815260206004820152602960248201527f4552433732313a2061646472657373207a65726f206973206e6f7420612076616044820152683634b21037bbb732b960b91b606482015260840162000309565b506001600160a01b031660009081526003602052604090205490565b82805462000a7c9062000dc0565b90600052602060002090601f01602090048101928262000aa0576000855562000aeb565b82601f1062000abb57805160ff191683800117855562000aeb565b8280016001018555821562000aeb579182015b8281111562000aeb57825182559160200191906001019062000ace565b5062000af992915062000afd565b5090565b5b8082111562000af9576000815560010162000afe565b80516001600160a01b038116811462000b2c57600080fd5b919050565b600082601f83011262000b4357600080fd5b81516001600160401b038082111562000b605762000b6062000e3f565b604051601f8301601f19908116603f0116810190828211818310171562000b8b5762000b8b62000e3f565b8160405283815286602085880101111562000ba557600080fd5b62000bb884602083016020890162000d91565b9695505050505050565b6000806000806000806000806000806101408b8d03121562000be357600080fd5b62000bee8b62000b14565b60208c0151909a506001600160401b038082111562000c0c57600080fd5b62000c1a8e838f0162000b31565b9a5060408d015191508082111562000c3157600080fd5b62000c3f8e838f0162000b31565b995060608d0151985060808d015191508082111562000c5d57600080fd5b62000c6b8e838f0162000b31565b975062000c7b60a08e0162000b14565b965060c08d015191508082111562000c9257600080fd5b5062000ca18d828e0162000b31565b94505062000cb260e08c0162000b14565b92506101008b015191506101208b015190509295989b9194979a5092959850565b60006020828403121562000ce657600080fd5b81516001600160e01b03198116811462000cff57600080fd5b9392505050565b600060018060a01b03808716835280861660208401525083604083015260806060830152825180608084015262000d458160a085016020870162000d91565b601f01601f19169190910160a00195945050505050565b6000821982111562000d725762000d7262000dfd565b500190565b60008282101562000d8c5762000d8c62000dfd565b500390565b60005b8381101562000dae57818101518382015260200162000d94565b83811115620008195750506000910152565b600181811c9082168062000dd557607f821691505b6020821081141562000df757634e487b7160e01b600052602260045260246000fd5b50919050565b634e487b7160e01b600052601160045260246000fd5b634e487b7160e01b600052603160045260246000fd5b634e487b7160e01b600052603260045260246000fd5b634e487b7160e01b600052604160045260246000fd5b613bd78062000e656000396000f3fe6080604052600436106102725760003560e01c80638da5cb5b1161014f578063b09afec1116100c1578063d431a2481161007a578063d431a24814610773578063e985e9c514610786578063eb9ce163146107cf578063f9dc375f146107e4578063ffc9896b146107f7578063ffe644341461082457600080fd5b8063b09afec1146106c8578063b88d4fde146106f5578063ba7aef4314610715578063c87b56dd14610728578063cb2ef6f714610748578063d41977cd1461075d57600080fd5b8063a035b1fe11610113578063a035b1fe146105d9578063a22cb465146105ef578063a28039cd1461060f578063a91845821461062f578063aeb20b941461064f578063af80a5be146106a657600080fd5b80638da5cb5b1461053457806395d89b4114610554578063967615951461056957806397a3334214610589578063a00745b6146105a957600080fd5b80633c084fa5116101e857806354fd4d50116101ac57806354fd4d50146104855780635a9be11b1461049a5780635bf61cfe146104a25780636352211e146104c4578063673448dd146104e457806370a082311461051457600080fd5b80633c084fa5146103ef5780633c5e6c971461040f5780634261917a1461042557806342842e0e146104455780634f6ccce71461046557600080fd5b806313966db51161023a57806313966db51461034a57806318160ddd1461036e5780632291e3881461038357806323b872dd146103995780632f745c59146103b9578063396876bd146103d957600080fd5b806301ffc9a71461027757806306fdde03146102ac578063081812fc146102ce578063095ea7b3146103065780630e37b4fd14610328575b600080fd5b34801561028357600080fd5b5061029761029236600461355c565b610844565b60405190151581526020015b60405180910390f35b3480156102b857600080fd5b506102c161086f565b6040516102a39190613892565b3480156102da57600080fd5b506102ee6102e936600461362f565b610901565b6040516001600160a01b0390911681526020016102a3565b34801561031257600080fd5b50610326610321366004613532565b610928565b005b34801561033457600080fd5b5061033d610a43565b6040516102a3919061387f565b34801561035657600080fd5b50610360600c5481565b6040519081526020016102a3565b34801561037a57600080fd5b50600854610360565b34801561038f57600080fd5b5061036060125481565b3480156103a557600080fd5b506103266103b43660046133f9565b610bdb565b3480156103c557600080fd5b506103606103d4366004613532565b610c0c565b3480156103e557600080fd5b5061036060115481565b3480156103fb57600080fd5b5061032661040a36600461366b565b610ca2565b34801561041b57600080fd5b5061036060105481565b34801561043157600080fd5b506103266104403660046135cb565b610dae565b34801561045157600080fd5b506103266104603660046133f9565b610e76565b34801561047157600080fd5b5061036061048036600461362f565b610e91565b34801561049157600080fd5b506102c1610f24565b610326610fb2565b3480156104ae57600080fd5b506104b7611055565b6040516102a39190613800565b3480156104d057600080fd5b506102ee6104df36600461362f565b611150565b3480156104f057600080fd5b506102976104ff3660046133ab565b60176020526000908152604090205460ff1681565b34801561052057600080fd5b5061036061052f3660046133ab565b6111b0565b34801561054057600080fd5b50600b546102ee906001600160a01b031681565b34801561056057600080fd5b506102c1611236565b34801561057557600080fd5b50610326610584366004613596565b611245565b34801561059557600080fd5b506102c16105a43660046133ab565b611344565b3480156105b557600080fd5b506102976105c43660046133ab565b60166020526000908152604090205460ff1681565b3480156105e557600080fd5b50610360600f5481565b3480156105fb57600080fd5b5061032661060a3660046134b1565b61135d565b34801561061b57600080fd5b5061032661062a366004613648565b61136c565b34801561063b57600080fd5b5061032661064a36600461362f565b6115fe565b34801561065b57600080fd5b5061068b61066a36600461362f565b60196020526000908152604090208054600182015460029092015490919083565b604080519384526020840192909252908201526060016102a3565b3480156106b257600080fd5b506106bb6116e2565b6040516102a39190613989565b3480156106d457600080fd5b506106e86106e336600461362f565b611951565b6040516102a39190613a32565b34801561070157600080fd5b50610326610710366004613435565b611a40565b6103266107233660046134db565b611a78565b34801561073457600080fd5b506102c161074336600461362f565b611d15565b34801561075457600080fd5b506102c1611ea4565b34801561076957600080fd5b50610360600d5481565b61032661078136600461362f565b611eb1565b34801561079257600080fd5b506102976107a13660046133c6565b6001600160a01b03918216600090815260056020908152604080832093909416825291909152205460ff1690565b3480156107db57600080fd5b506104b7611f54565b6103266107f2366004613596565b612057565b34801561080357600080fd5b506108176108123660046133ab565b612205565b6040516102a39190613a45565b34801561083057600080fd5b5061032661083f36600461362f565b61231c565b60006001600160e01b0319821663780e9d6360e01b14806108695750610869826124fd565b92915050565b60606000805461087e90613add565b80601f01602080910402602001604051908101604052809291908181526020018280546108aa90613add565b80156108f75780601f106108cc576101008083540402835291602001916108f7565b820191906000526020600020905b8154815290600101906020018083116108da57829003601f168201915b5050505050905090565b600061090c8261254d565b506000908152600460205260409020546001600160a01b031690565b600061093382611150565b9050806001600160a01b0316836001600160a01b031614156109a65760405162461bcd60e51b815260206004820152602160248201527f4552433732313a20617070726f76616c20746f2063757272656e74206f776e656044820152603960f91b60648201526084015b60405180910390fd5b336001600160a01b03821614806109c257506109c281336107a1565b610a345760405162461bcd60e51b815260206004820152603d60248201527f4552433732313a20617070726f76652063616c6c6572206973206e6f7420746f60448201527f6b656e206f776e6572206f7220617070726f76656420666f7220616c6c000000606482015260840161099d565b610a3e83836125ac565b505050565b60606000610a50336111b0565b11610a5a57600080fd5b601e805480602002602001604051908101604052809291908181526020016000905b82821015610bd25783829060005260206000209060020201604051806040016040529081600082018054610aaf90613add565b80601f0160208091040260200160405190810160405280929190818152602001828054610adb90613add565b8015610b285780601f10610afd57610100808354040283529160200191610b28565b820191906000526020600020905b815481529060010190602001808311610b0b57829003601f168201915b50505050508152602001600182018054610b4190613add565b80601f0160208091040260200160405190810160405280929190818152602001828054610b6d90613add565b8015610bba5780601f10610b8f57610100808354040283529160200191610bba565b820191906000526020600020905b815481529060010190602001808311610b9d57829003601f168201915b50505050508152505081526020019060010190610a7c565b50505050905090565b610be5338261261a565b610c015760405162461bcd60e51b815260040161099d906138a5565b610a3e838383612699565b6000610c17836111b0565b8210610c795760405162461bcd60e51b815260206004820152602b60248201527f455243373231456e756d657261626c653a206f776e657220696e646578206f7560448201526a74206f6620626f756e647360a81b606482015260840161099d565b506001600160a01b03919091166000908152600660209081526040808320938352929052205490565b33610cac83611150565b6001600160a01b031614610cbf57600080fd5b60006040518060400160405280838152602001610cd93390565b6001600160a01b03169052601c805460018101825560009190915281518051929350839260029092027f0e4562a10381dec21b205ed72637e6b1b523bdd0e4d4d50af5cd23dd4500a2110191610d379183916020919091019061312c565b5060209190910151600190910180546001600160a01b0319166001600160a01b03909216919091179055336001600160a01b031682604051610d799190613778565b604051908190038120907f963cbefbf06d13486cfc0bc54715f33daf948850da30e2a3c2023e6624687ee190600090a3505050565b610db661280a565b604080518082019091528281526020808201839052601e805460018101825560009190915282518051849360029093027f50bb669a95c7b50b7e8a6f09454034b2b14cf2b85c730dca9a539ca82cb6e3500192610e1792849291019061312c565b506020828101518051610e30926001850192019061312c565b50505082604051610e419190613778565b604051908190038120907f035b065922620bc9e29f8f7e5156f5e151ecd66c99b686b6da840a49f68bc20890600090a2505050565b610a3e83838360405180602001604052806000815250611a40565b6000610e9c60085490565b8210610eff5760405162461bcd60e51b815260206004820152602c60248201527f455243373231456e756d657261626c653a20676c6f62616c20696e646578206f60448201526b7574206f6620626f756e647360a01b606482015260840161099d565b60088281548110610f1257610f12613b5f565b90600052602060002001549050919050565b60148054610f3190613add565b80601f0160208091040260200160405190810160405280929190818152602001828054610f5d90613add565b8015610faa5780601f10610f7f57610100808354040283529160200191610faa565b820191906000526020600020905b815481529060010190602001808311610f8d57829003601f168201915b505050505081565b610fba61280a565b600d543410156110025760405162461bcd60e51b815260206004820152601360248201527224b739bab33334b1b4b2b73a10333ab732399760691b604482015260640161099d565b6064601160008282546110159190613a82565b9091555050600a546001600160a01b03166108fc346040518115909202916000818181858888f19350505050158015611052573d6000803e3d6000fd5b50565b6060601d805480602002602001604051908101604052809291908181526020016000905b82821015610bd257838290600052602060002090600202016040518060400160405290816000820180546110ac90613add565b80601f01602080910402602001604051908101604052809291908181526020018280546110d890613add565b80156111255780601f106110fa57610100808354040283529160200191611125565b820191906000526020600020905b81548152906001019060200180831161110857829003601f168201915b50505091835250506001918201546001600160a01b0316602091820152918352929092019101611079565b6000818152600260205260408120546001600160a01b0316806108695760405162461bcd60e51b8152602060048201526018602482015277115490cdcc8c4e881a5b9d985b1a59081d1bdad95b88125160421b604482015260640161099d565b60006001600160a01b03821661121a5760405162461bcd60e51b815260206004820152602960248201527f4552433732313a2061646472657373207a65726f206973206e6f7420612076616044820152683634b21037bbb732b960b91b606482015260840161099d565b506001600160a01b031660009081526003602052604090205490565b60606001805461087e90613add565b6000604051806040016040528083815260200161125f3390565b6001600160a01b03169052601d805460018101825560009190915281518051929350839260029092027f6d4407e7be21f808e6509aa9fa9143369579dd7d760fe20a2c09680fc146134f01916112bd9183916020919091019061312c565b50602091820151600191820180546001600160a01b0319166001600160a01b039092169190911790553360008181526016909352604092839020805460ff19169092179091559051611310908490613778565b604051908190038120907f963cbefbf06d13486cfc0bc54715f33daf948850da30e2a3c2023e6624687ee190600090a35050565b60186020526000908152604090208054610f3190613add565b611368338383612866565b5050565b61137461280a565b6005601154101561138457600080fd5b6000601d838154811061139957611399613b5f565b90600052602060002090600202016040518060400160405290816000820180546113c290613add565b80601f01602080910402602001604051908101604052809291908181526020018280546113ee90613add565b801561143b5780601f106114105761010080835404028352916020019161143b565b820191906000526020600020905b81548152906001019060200180831161141e57829003601f168201915b5050509183525050600191909101546001600160a01b0316602090910152905081156114ad57602080820180516001600160a01b039081166000908152601784526040808220805460ff19166001179055855193519092168152601884522081516114ab9391929091019061312c565b505b601d80546114bd90600190613a9a565b815481106114cd576114cd613b5f565b9060005260206000209060020201601d84815481106114ee576114ee613b5f565b9060005260206000209060020201600082018160000190805461151090613add565b61151b9291906131b0565b50600191820154910180546001600160a01b0319166001600160a01b03909216919091179055601d80548061155257611552613b49565b60008281526020812060001990920191600283020190611572828261322b565b5060010180546001600160a01b03191690559055602080820180516001600160a01b0390811660009081526016909352604092839020805460ff191690559051835192518515159391909216916115c99190613778565b604051908190038120907ff236cc347bab721c49031024cf484b8f76450f8d11ec7d097aa99bad74ace43290600090a4505050565b61160661280a565b601c805461161690600190613a9a565b8154811061162657611626613b5f565b9060005260206000209060020201601c828154811061164757611647613b5f565b9060005260206000209060020201600082018160000190805461166990613add565b6116749291906131b0565b50600191820154910180546001600160a01b0319166001600160a01b03909216919091179055601c8054806116ab576116ab613b49565b600082815260208120600019909201916002830201906116cb828261322b565b5060010180546001600160a01b0319169055905550565b6116ea613265565b60006116f66000611951565b6040805160e081018252600e548152600b546001600160a01b031660208201526013805493945090929183019161172c90613add565b80601f016020809104026020016040519081016040528092919081815260200182805461175890613add565b80156117a55780601f1061177a576101008083540402835291602001916117a5565b820191906000526020600020905b81548152906001019060200180831161178857829003601f168201915b505050505081526020016117b96000611d15565b8152602001601e805480602002602001604051908101604052809291908181526020016000905b82821015611936578382906000526020600020906002020160405180604001604052908160008201805461181390613add565b80601f016020809104026020016040519081016040528092919081815260200182805461183f90613add565b801561188c5780601f106118615761010080835404028352916020019161188c565b820191906000526020600020905b81548152906001019060200180831161186f57829003601f168201915b505050505081526020016001820180546118a590613add565b80601f01602080910402602001604051908101604052809291908181526020018280546118d190613add565b801561191e5780601f106118f35761010080835404028352916020019161191e565b820191906000526020600020905b81548152906001019060200180831161190157829003601f168201915b505050505081525050815260200190600101906117e0565b505050508152602001828152602001600f5481525091505090565b61197560405180606001604052806000815260200160008152602001606081525090565b601a600083815260200190815260200160002060405180606001604052908160008201548152602001600182015481526020016002820180546119b790613add565b80601f01602080910402602001604051908101604052809291908181526020018280546119e390613add565b8015611a305780601f10611a0557610100808354040283529160200191611a30565b820191906000526020600020905b815481529060010190602001808311611a1357829003601f168201915b5050505050815250509050919050565b611a4a338361261a565b611a665760405162461bcd60e51b815260040161099d906138a5565b611a7284848484612935565b50505050565b601054341015611aca5760405162461bcd60e51b815260206004820181905260248201527f4d696e74206661696c65643a20496e73756666696369656e742066756e64732e604482015260640161099d565b600c54341015611ad957600080fd5b6064600e5410611b4a5760405162461bcd60e51b815260206004820152603660248201527f4d696e74206661696c65643a20436f6e74726163742068617320726561636865604482015275321034ba13b99036b4b73a1030b63637bbb0b731b29760511b606482015260840161099d565b33611b5482611150565b6001600160a01b031614611b6757600080fd5b6000818152601960205260409020600281015460019091015410611bcd5760405162461bcd60e51b815260206004820181905260248201527f4d696e74206661696c65643a20416c6c6f77616e63652065786365656465642e604482015260640161099d565b611bd983600e54612968565b611be5600e5483612982565b60408051606081018252438152426020808301918252828401868152600e546000908152601a83529490942083518155915160018301559251805192939192611c34926002850192019061312c565b5050600e805491506000611c4783613b18565b91905055506000611c553490565b90506000600f5482611c679190613a9a565b600b54600f546040519293506001600160a01b039091169181156108fc0291906000818181858888f19350505050158015611ca6573d6000803e3d6000fd5b50600a546040516001600160a01b039091169082156108fc029083906000818181858888f19350505050158015611ce1573d6000803e3d6000fd5b506001601960008581526020019081526020016000206001016000828254611d099190613a82565b90915550505050505050565b6000818152600260205260409020546060906001600160a01b0316611d945760405162461bcd60e51b815260206004820152602f60248201527f4552433732314d657461646174613a2055524920717565727920666f72206e6f60448201526e3732bc34b9ba32b73a103a37b5b2b760891b606482015260840161099d565b60008281526015602052604081208054611dad90613add565b80601f0160208091040260200160405190810160405280929190818152602001828054611dd990613add565b8015611e265780601f10611dfb57610100808354040283529160200191611e26565b820191906000526020600020905b815481529060010190602001808311611e0957829003601f168201915b505050505090506000611e4460408051602081019091526000815290565b9050805160001415611e57575092915050565b815115611e89578082604051602001611e71929190613794565b60405160208183030381529060405292505050919050565b80611e9385612a1a565b604051602001611e71929190613794565b60138054610f3190613add565b336000908152601b602052604090205460ff161515600114611f0d5760405162461bcd60e51b81526020600482015260156024820152742cb7ba9030b932903737ba1030b8383937bb32b21760591b604482015260640161099d565b33611f1782611150565b6001600160a01b031614611f2a57600080fd5b6000818152601960205260408120600201805460059290611f4c908490613a82565b909155505050565b6060611f5e61280a565b601c805480602002602001604051908101604052809291908181526020016000905b82821015610bd25783829060005260206000209060020201604051806040016040529081600082018054611fb390613add565b80601f0160208091040260200160405190810160405280929190818152602001828054611fdf90613add565b801561202c5780601f106120015761010080835404028352916020019161202c565b820191906000526020600020905b81548152906001019060200180831161200f57829003601f168201915b50505091835250506001918201546001600160a01b0316602091820152918352929092019101611f80565b3360009081526017602052604090205460ff166120b65760405162461bcd60e51b815260206004820152601d60248201527f436c69656e7420686173206e6f74206265656e20617070726f7665642e000000604482015260640161099d565b600560115410156120c657600080fd5b60408051606081018252600e54808252600160208084018281526005858701908152600094855260199092529490922092518355925192820192909255905160029091015561211733600e54612968565b612123600e5482612982565b60408051606081018252438152426020808301918252828401858152600e546000908152601a83529490942083518155915160018301559251805192939192612172926002850192019061312c565b5050600e80549150600061218583613b18565b9091555050600b546001600160a01b03166108fc346040518115909202916000818181858888f193505050501580156121c2573d6000803e3d6000fd5b506005601160008282546121d69190613a9a565b9091555050336000908152601760209081526040808320805460ff19169055601890915281206110529161322b565b60408051608081018252600080825260208201819052918101919091526060808201526000604051806080016040528061223e856111b0565b81526001600160a01b03851660008181526016602090815260408083205460ff9081161515838701528484526017835281842054161515818601529282526018905220805460609092019161229290613add565b80601f01602080910402602001604051908101604052809291908181526020018280546122be90613add565b801561230b5780601f106122e05761010080835404028352916020019161230b565b820191906000526020600020905b8154815290600101906020018083116122ee57829003601f168201915b505050919092525090949350505050565b61232461280a565b6011546012541061238e5760405162461bcd60e51b815260206004820152602e60248201527f5468697320636f6e74726163742068617320726561636865642069742773206d60448201526d34b73a1030b63637bbb0b731b29760911b606482015260840161099d565b6001601b6000601c84815481106123a7576123a7613b5f565b6000918252602080832060016002909302018201546001600160a01b0316845283019390935260409091019020805492151560ff1990931692909217909155601c805490916123f591613a9a565b8154811061240557612405613b5f565b9060005260206000209060020201601c828154811061242657612426613b5f565b9060005260206000209060020201600082018160000190805461244890613add565b6124539291906131b0565b50600191820154910180546001600160a01b0319166001600160a01b03909216919091179055601c80548061248a5761248a613b49565b600082815260208120600019909201916002830201906124aa828261322b565b5060010180546001600160a01b0319169055905560128054600591906000906124d4908490613a82565b92505081905550600560116000828254611f4c9190613a9a565b6001600160a01b03163b151590565b60006001600160e01b031982166380ac58cd60e01b148061252e57506001600160e01b03198216635b5e139f60e01b145b8061086957506301ffc9a760e01b6001600160e01b0319831614610869565b6000818152600260205260409020546001600160a01b03166110525760405162461bcd60e51b8152602060048201526018602482015277115490cdcc8c4e881a5b9d985b1a59081d1bdad95b88125160421b604482015260640161099d565b600081815260046020526040902080546001600160a01b0319166001600160a01b03841690811790915581906125e182611150565b6001600160a01b03167f8c5be1e5ebec7d5bd14f71427d1e84f3dd0314c0f7b2291e5b200ac8c7c3b92560405160405180910390a45050565b60008061262683611150565b9050806001600160a01b0316846001600160a01b0316148061266d57506001600160a01b0380821660009081526005602090815260408083209388168352929052205460ff165b806126915750836001600160a01b031661268684610901565b6001600160a01b0316145b949350505050565b826001600160a01b03166126ac82611150565b6001600160a01b0316146126d25760405162461bcd60e51b815260040161099d90613944565b6001600160a01b0382166127345760405162461bcd60e51b8152602060048201526024808201527f4552433732313a207472616e7366657220746f20746865207a65726f206164646044820152637265737360e01b606482015260840161099d565b6127418383836001612ab7565b826001600160a01b031661275482611150565b6001600160a01b03161461277a5760405162461bcd60e51b815260040161099d90613944565b600081815260046020908152604080832080546001600160a01b03199081169091556001600160a01b0387811680865260038552838620805460001901905590871680865283862080546001019055868652600290945282852080549092168417909155905184937fddf252ad1be2c89b69c2b068fc378daa952ba7f163c4a11628f55a4df523b3ef91a4505050565b600b546001600160a01b031633146128645760405162461bcd60e51b815260206004820181905260248201527f4f776e61626c653a2063616c6c6572206973206e6f7420746865206f776e6572604482015260640161099d565b565b816001600160a01b0316836001600160a01b031614156128c85760405162461bcd60e51b815260206004820152601960248201527f4552433732313a20617070726f766520746f2063616c6c657200000000000000604482015260640161099d565b6001600160a01b03838116600081815260056020908152604080832094871680845294825291829020805460ff191686151590811790915591519182527f17307eab39ab6107e8899845ad3d59bd9653f200f220920489ca2b5937696c31910160405180910390a3505050565b612940848484612699565b61294c84848484612beb565b611a725760405162461bcd60e51b815260040161099d906138f2565b611368828260405180602001604052806000815250612cf8565b6000828152600260205260409020546001600160a01b03166129fb5760405162461bcd60e51b815260206004820152602c60248201527f4552433732314d657461646174613a2055524920736574206f66206e6f6e657860448201526b34b9ba32b73a103a37b5b2b760a11b606482015260840161099d565b60008281526015602090815260409091208251610a3e9284019061312c565b60606000612a2783612d2b565b600101905060008167ffffffffffffffff811115612a4757612a47613b75565b6040519080825280601f01601f191660200182016040528015612a71576020820181803683370190505b5090508181016020015b600019016f181899199a1a9b1b9c1cb0b131b232b360811b600a86061a8153600a8504945084612aaa57612aaf565b612a7b565b509392505050565b6001811115612b265760405162461bcd60e51b815260206004820152603560248201527f455243373231456e756d657261626c653a20636f6e7365637574697665207472604482015274185b9cd9995c9cc81b9bdd081cdd5c1c1bdc9d1959605a1b606482015260840161099d565b816001600160a01b038516612b8257612b7d81600880546000838152600960205260408120829055600182018355919091527ff3f7a9fe364faab93b216da50a3214154f22a0a2b415b23a84c8169e8b636ee30155565b612ba5565b836001600160a01b0316856001600160a01b031614612ba557612ba58582612e03565b6001600160a01b038416612bc157612bbc81612ea0565b612be4565b846001600160a01b0316846001600160a01b031614612be457612be48482612f4f565b5050505050565b60006001600160a01b0384163b15612ced57604051630a85bd0160e11b81526001600160a01b0385169063150b7a0290612c2f9033908990889088906004016137c3565b602060405180830381600087803b158015612c4957600080fd5b505af1925050508015612c79575060408051601f3d908101601f19168201909252612c7691810190613579565b60015b612cd3573d808015612ca7576040519150601f19603f3d011682016040523d82523d6000602084013e612cac565b606091505b508051612ccb5760405162461bcd60e51b815260040161099d906138f2565b805181602001fd5b6001600160e01b031916630a85bd0160e11b149050612691565b506001949350505050565b612d028383612f93565b612d0f6000848484612beb565b610a3e5760405162461bcd60e51b815260040161099d906138f2565b60008072184f03e93ff9f4daa797ed6e38ed64bf6a1f0160401b8310612d6a5772184f03e93ff9f4daa797ed6e38ed64bf6a1f0160401b830492506040015b6d04ee2d6d415b85acef81000000008310612d96576d04ee2d6d415b85acef8100000000830492506020015b662386f26fc100008310612db457662386f26fc10000830492506010015b6305f5e1008310612dcc576305f5e100830492506008015b6127108310612de057612710830492506004015b60648310612df2576064830492506002015b600a83106108695760010192915050565b60006001612e10846111b0565b612e1a9190613a9a565b600083815260076020526040902054909150808214612e6d576001600160a01b03841660009081526006602090815260408083208584528252808320548484528184208190558352600790915290208190555b5060009182526007602090815260408084208490556001600160a01b039094168352600681528383209183525290812055565b600854600090612eb290600190613a9a565b60008381526009602052604081205460088054939450909284908110612eda57612eda613b5f565b906000526020600020015490508060088381548110612efb57612efb613b5f565b6000918252602080832090910192909255828152600990915260408082208490558582528120556008805480612f3357612f33613b49565b6001900381819060005260206000200160009055905550505050565b6000612f5a836111b0565b6001600160a01b039093166000908152600660209081526040808320868452825280832085905593825260079052919091209190915550565b6001600160a01b038216612fe95760405162461bcd60e51b815260206004820181905260248201527f4552433732313a206d696e7420746f20746865207a65726f2061646472657373604482015260640161099d565b6000818152600260205260409020546001600160a01b03161561304e5760405162461bcd60e51b815260206004820152601c60248201527f4552433732313a20746f6b656e20616c7265616479206d696e74656400000000604482015260640161099d565b61305c600083836001612ab7565b6000818152600260205260409020546001600160a01b0316156130c15760405162461bcd60e51b815260206004820152601c60248201527f4552433732313a20746f6b656e20616c7265616479206d696e74656400000000604482015260640161099d565b6001600160a01b038216600081815260036020908152604080832080546001019055848352600290915280822080546001600160a01b0319168417905551839291907fddf252ad1be2c89b69c2b068fc378daa952ba7f163c4a11628f55a4df523b3ef908290a45050565b82805461313890613add565b90600052602060002090601f01602090048101928261315a57600085556131a0565b82601f1061317357805160ff19168380011785556131a0565b828001600101855582156131a0579182015b828111156131a0578251825591602001919060010190613185565b506131ac9291506132cd565b5090565b8280546131bc90613add565b90600052602060002090601f0160209004810192826131de57600085556131a0565b82601f106131ef57805485556131a0565b828001600101855582156131a057600052602060002091601f016020900482015b828111156131a0578254825591600101919060010190613210565b50805461323790613add565b6000825580601f10613247575050565b601f01602090049060005260206000209081019061105291906132cd565b6040518060e001604052806000815260200160006001600160a01b031681526020016060815260200160608152602001606081526020016132c060405180606001604052806000815260200160008152602001606081525090565b8152602001600081525090565b5b808211156131ac57600081556001016132ce565b600067ffffffffffffffff808411156132fd576132fd613b75565b604051601f8501601f19908116603f0116810190828211818310171561332557613325613b75565b8160405280935085815286868601111561333e57600080fd5b858560208301376000602087830101525050509392505050565b80356001600160a01b038116811461336f57600080fd5b919050565b8035801515811461336f57600080fd5b600082601f83011261339557600080fd5b6133a4838335602085016132e2565b9392505050565b6000602082840312156133bd57600080fd5b6133a482613358565b600080604083850312156133d957600080fd5b6133e283613358565b91506133f060208401613358565b90509250929050565b60008060006060848603121561340e57600080fd5b61341784613358565b925061342560208501613358565b9150604084013590509250925092565b6000806000806080858703121561344b57600080fd5b61345485613358565b935061346260208601613358565b925060408501359150606085013567ffffffffffffffff81111561348557600080fd5b8501601f8101871361349657600080fd5b6134a5878235602084016132e2565b91505092959194509250565b600080604083850312156134c457600080fd5b6134cd83613358565b91506133f060208401613374565b6000806000606084860312156134f057600080fd5b6134f984613358565b9250602084013567ffffffffffffffff81111561351557600080fd5b61352186828701613384565b925050604084013590509250925092565b6000806040838503121561354557600080fd5b61354e83613358565b946020939093013593505050565b60006020828403121561356e57600080fd5b81356133a481613b8b565b60006020828403121561358b57600080fd5b81516133a481613b8b565b6000602082840312156135a857600080fd5b813567ffffffffffffffff8111156135bf57600080fd5b61269184828501613384565b600080604083850312156135de57600080fd5b823567ffffffffffffffff808211156135f657600080fd5b61360286838701613384565b9350602085013591508082111561361857600080fd5b5061362585828601613384565b9150509250929050565b60006020828403121561364157600080fd5b5035919050565b6000806040838503121561365b57600080fd5b823591506133f060208401613374565b6000806040838503121561367e57600080fd5b82359150602083013567ffffffffffffffff81111561369c57600080fd5b61362585828601613384565b600081518084526020808501808196508360051b8101915082860160005b858110156137165782840389528151604081518187526136e882880182613723565b915050868201519150858103878701526137028183613723565b9a87019a95505050908401906001016136c6565b5091979650505050505050565b6000815180845261373b816020860160208601613ab1565b601f01601f19169290920160200192915050565b805182526020810151602083015260006040820151606060408501526126916060850182613723565b6000825161378a818460208701613ab1565b9190910192915050565b600083516137a6818460208801613ab1565b8351908301906137ba818360208801613ab1565b01949350505050565b6001600160a01b03858116825284166020820152604081018390526080606082018190526000906137f690830184613723565b9695505050505050565b60006020808301818452808551808352604092508286019150828160051b87010184880160005b8381101561387157888303603f190185528151805187855261384b88860182613723565b918901516001600160a01b03169489019490945294870194925090860190600101613827565b509098975050505050505050565b6020815260006133a460208301846136a8565b6020815260006133a46020830184613723565b6020808252602d908201527f4552433732313a2063616c6c6572206973206e6f7420746f6b656e206f776e6560408201526c1c881bdc88185c1c1c9bdd9959609a1b606082015260800190565b60208082526032908201527f4552433732313a207472616e7366657220746f206e6f6e20455243373231526560408201527131b2b4bb32b91034b6b83632b6b2b73a32b960711b606082015260800190565b60208082526025908201527f4552433732313a207472616e736665722066726f6d20696e636f72726563742060408201526437bbb732b960d91b606082015260800190565b602081528151602082015260018060a01b0360208301511660408201526000604083015160e060608401526139c2610100840182613723565b90506060840151601f19808584030160808601526139e08383613723565b925060808601519150808584030160a08601526139fd83836136a8565b925060a08601519150808584030160c086015250613a1b828261374f565b91505060c084015160e08401528091505092915050565b6020815260006133a4602083018461374f565b60208152815160208201526020820151151560408201526040820151151560608201526000606083015160808084015261269160a0840182613723565b60008219821115613a9557613a95613b33565b500190565b600082821015613aac57613aac613b33565b500390565b60005b83811015613acc578181015183820152602001613ab4565b83811115611a725750506000910152565b600181811c90821680613af157607f821691505b60208210811415613b1257634e487b7160e01b600052602260045260246000fd5b50919050565b6000600019821415613b2c57613b2c613b33565b5060010190565b634e487b7160e01b600052601160045260246000fd5b634e487b7160e01b600052603160045260246000fd5b634e487b7160e01b600052603260045260246000fd5b634e487b7160e01b600052604160045260246000fd5b6001600160e01b03198116811461105257600080fdfea26469706673582212201f7310f429422d2455c1d6081acc5e99b9a56d483c5aa15de7e2f7d6b996b7be64736f6c634300080700334552433732313a207472616e7366657220746f206e6f6e204552433732315265a2646970667358221220314a20ae57f1553b74ff16f9040e2906ebc4b46616fde01412f5ccc063814f9064736f6c63430008070033",
  "linkReferences": {},
  "deployedLinkReferences": {}
}